S31508003000401C0020E1300008318200089980000841
S3150800301000000000000000000000000000000000A2
S31508003020000000000000000000000000B58900084C
S315080030300000000000000000B582000801A1000899
S31508003040F3300008F3300008F3300008F3300008C6
S31508003050F3300008995800089D580008E9580008F8
S3150800306000000000F3300008F3300008F3300008D1
S31508003070F3300008F3300008F330000800000000C1
S31508003080F3300008F330000800000000F3300008B1
S31508003090F3300008F3300008F3300008F330000876
S315080030A0F3300008F3300008F330000835A60008AE
S315080030B099A60008000000000000000000000000BB
S315080030C0F330000800000000F33000080348854686
S315080030D000F038F80048004701DB0008401C0020D3
S315080030E00448804704480047FEE7FEE7FEE7FEE798
S315080030F0FEE7FEE769A10008CD30000803460B434A
S315080031009B0703D009E008C9121F08C0042AFAD28F
S3150800311003E00B780370401C491C521EF9D2704715
S31508003120D2B201E00270401C491EFBD27047002251
S31508003130F6E710B513460A4604461946FFF7F0FFA8
S31508003140204610BD064C0125064E05E0E36807CC6F
S315080031502B430C3C98471034B442F7D3FFF7BAFF19
S3150800316054EE000874EE000830B58C180278401C3E
S3150800317013071B0F01D10378401C120906D10278E8
S31508003180401C03E005780D70401C491C5B1EF9D1F4
S3150800319001E00B70491C521EFBD1A142E6D3002068
S315080031A030BD000010B504F00DFA05490C78FE2272
S315080031B022400123234300B11A460A7010BDC046B7
S315080031C0D10D0020F0B585B000260496039640F68A
S315080031D00004274940F600003246334606F066FDED
S315080031E004AA40F6000040F2E831334603F0C6FE72
S315080031F0A0B20190204C354632E040F2E83038184B
S31508003200411D03AA00260198334603F0B7FEF0B223
S315080032100399814222DD332179434D4A51184000F2
S315080032200818C17980790002084380B204F08AFD43
S31508003230104989B2884200D30E4880B26421B0FB97
S31508003240F1F0E9B2490061180881761C6D1CE8B2F4
S315080032500228DCD320780028D9D006E0029E761C06
S315080032600296F7B20498B842C7DC05B0F0BDC0466E
S31508003270BB0F000074400000C0000020F0B587B006
S3150800328000260696059640F6000406AA40F60000B3
S3150800329040F2E831334603F071FEA0B200902C4F9D
S315080032A035464EE0019640F2E8302018411C05AA42
S315080032B000260098334603F061FE304605990391CF
S315080032C02646029437E0049033227243BA1849001E
S315080032D05118CB7B897B0A021A43052151434B09B6
S315080032E01C4881421C4900D81946ECB263001B48A9
S315080032F0C15248F2000002431948824211D11A48C5
S315080033002E460546025D3846571C2F552A1935465E
S31508003310029EFCB207460A2C0AD31248C31899869D
S3150800332004E01048C21891860F480219002111704E
S315080033300498401C6D1CC1B2039A8A42C3DC019EE4
S31508003340761CF4B20698A042ACDC07B0F0BDC046C5
S31508003350B00500201F7102008813000070050020C8
S31508003360FFFF0000F004002016060020F0B5A9B003
S3150800337014460E46054609A88021FFF7D8FE00F038
S31508003380BFF83420029000F04BF905F097F90028B1
S3150800339000D1B0E0304600F043F905F08FF9002877
S315080033A000D1A8E0204600F03BF905F087F900288F
S315080033B000D1A0E000F0A4F8352000F031F905F0BE
S315080033C07DF9002800D196E0019604950394002023
S315080033D01FE0049844540027A74848F200013A46DB
S315080033E0694EB0471E252846A44CA0470122A24E86
S315080033F0304644F20001644B98472846A0473046B9
S3150800340044F200013A46604B98472846A04705987B
S31508003410401C059080B2069000F0E6FA00210C46A2
S3150800342022E007910127944E304644F200013A46BD
S315080034300AF006FB1E2528460AF01CF8304648F214
S3150800344000010AF004FB04460022304644F200015B
S315080034500AF0F6FA28460AF00DF804B92746089C39
S3150800346064003C430799491CC8B207280894D8D970
S3150800347000F0D2FA039D0699A942AAD30124E54889
S3150800348048F200012246E44B98471E273846E34E89
S31508003490B047F64844F200012246F54B98473846AD
S315080034A03C46B0470027F14844F200013A46F04B43
S315080034B098472046B04700F049F809A80199417095
S315080034C00299017085703521C170049B04E0195C6E
S315080034D009AA101801717F1CB8B2A842F7D3281D93
S315080034E0C1B209A800F0FCFE0899C9B2091A002061
S315080034F0401A484102E000F029F8002029B0F0BD42
S31508003500F8B5EB480126EB4C44F200013246A047D9
S315080035101E25E94F2846B847E54848F200013246D5
S31508003520A0472846B8470026E14848F20001324637
S31508003530A0472846B847DE4844F200013246A0476D
S3150800354028463946F8BC04BC96460847F8B5D84814
S315080035500022D84C48F20001A0471E25D64F28461F
S31508003560B8470126D24844F200013246A047284609
S31508003570B847CF4848F200013246A04728463946A0
S31508003580F8BC04BC9646084741DA0008F0B5A1B075
S3150800359014460F46054601AEB01C7E21FFF7C7FD4F
S315080035A0777034203070002004E06A5C01AB59184B
S315080035B08A70401C81B2A142F7D3A01CC1B201A8EF
S315080035C000F08EFE0646FFF79BFF342000F028F831
S315080035D005F074F8E8B1384600F022F805F06EF800
S315080035E0B8B1002707E0287800F01AF805F066F861
S315080035F078B17F1C6D1CB8B2A042F4D3304600F0F7
S315080036000FF805F05BF8012400B90446FFF79EFFA2
S3150800361002E0FFF79BFF0024204621B0F0BD000022
S31508003620F8B50026E04C22E04100009140B200289F
S3150800363001DB002200E00122F64F384648F200017D
S315080036400AF0FEF91E252846A0470122384644F20C
S3150800365000010AF0F5F92846A0470022384644F248
S3150800366000010AF0EDF92846A047761C0098F1B249
S315080036700729D9D9F8BDC0460004004875D4000802
S31508003680F0B5A9B014460E46054609A88021FFF7ED
S315080036904EFD00F0C5F83420029000F059F905F007
S315080036A031F8002800D1B0E0304600F051F905F0B5
S315080036B029F8002800D1A8E0204600F049F905F0CD
S315080036C021F8002800D1A0E000F0AAF8352000F083
S315080036D03FF905F017F8002800D196E00196049501
S315080036E0039400201FE0049844540027EB4842F254
S315080036F000013A466F4EB0471E252846AA4CA047F9
S315080037000122E64E304641F200016A4B98472846A8
S31508003710A047304641F200013A46664B984728468C
S31508003720A0470598401C059080B2069000F08AF9DB
S3150800373000210C4622E007910127D84E304641F277
S3150800374000013A460AF07CF91E25284609F092FE41
S31508003750304642F200010AF07AF904460022304661
S3150800376041F200010AF06CF9284609F083FE04B913
S315080037702746089C64003C430799491CC8B2072899
S315080037800894D8D900F074F9039D0699A942AAD3DA
S315080037900124C24842F200012246464B98471E279A
S315080037A03846814EB047BD4841F200012246414B9A
S315080037B0984738463C46B0470027B84841F20001CA
S315080037C03A463C4B98472046B04700F053F809A8BC
S315080037D0019941700299017085703521C170049B69
S315080037E004E0195C09AA101801717F1CB8B2A84236
S315080037F0F7D3281DC1B209A800F072FD0899C9B20D
S31508003800091A0020401A484102E000F033F8002067
S3150800381029B0F0BD0004004841DA000875D4000854
S31508003820F8B59E480126234C41F200013246A047CE
S315080038301E255D4F2846B847984842F20001324691
S31508003840A0472846B8470026944842F20001324667
S31508003850A0472846B847914841F200013246A0479A
S3150800386028463946F8BC04BC964608470004004872
S3150800387041DA0008F8B5894800220E4C42F20001E8
S31508003880A0471E25484F2846B8470126834841F2D7
S3150800389000013246A0472846B847804842F2000150
S315080038A03246A04728463946F8BC04BC964608471F
S315080038B00004004841DA000875D40008F0B5A1B044
S315080038C014460F46054601AEB01C7E21FFF72FFCB5
S315080038D0777034203070002004E06A5C01AB591818
S315080038E08A70401C81B2A142F7D3A01CC1B201A8BC
S315080038F000F0F6FC0646FFF793FF342000F028F8A0
S3150800390004F000FFE8B1384600F022F804F0FAFEA9
S31508003910B8B1002707E0287800F01AF804F0F2FE9C
S3150800392078B17F1C6D1CB8B2A042F4D3304600F0C3
S315080039300FF804F0E7FE012400B90446FFF79AFFE2
S3150800394002E0FFF797FF0024204621B0F0BD0000F3
S31508003950F8B50026144C22E04100009140B2002838
S3150800396001DB002200E001224C4F384642F20001FA
S315080039700AF066F81E252846A0470122384641F275
S3150800398000010AF05DF82846A0470022384641F2B1
S3150800399000010AF055F82846A047761C0098F1B2AF
S315080039A00729D9D9F8BDC04675D40008012805D01D
S315080039B048B9084611461A46FFF7D8BC08461146C4
S315080039C01A46FFF75DBE00207047012805D048B9A2
S315080039D0084611461A46FFF7D9BD084611461A4643
S315080039E0FFF76CBF00207047B0B52C4C0025204669
S315080039F029462A4648F200030AF02FF803222046F1
S31508003A00294648F20003039CA646B0BC01B00AF05A
S31508003A1042B8C04600040048B0B5204C0121002534
S31508003A2020462A4648F200030AF017F803222046E1
S31508003A30294648F20003039CA646B0BC01B00AF02A
S31508003A402AB8C046B0B5154C0025204629462A4650
S31508003A5042F200030AF001F803222046294642F200
S31508003A600003039CA646B0BC01B00AF014B8C046D1
S31508003A70B0B50A4C0121002520462A4642F2000329
S31508003A8009F0EBFF03222046294642F20003039C75
S31508003A90A646B0BC01B009F0FEBFC0460004004807
S31508003AA0B0B50146784CE089421C0523B2FBF3F514
S31508003AB05D43551B228A954206D00D225043034B7F
S31508003AC01818FFF71BFBE581B0BDC046100400209F
S31508003AD0B0B50146F64C6389581C1422B0FBF2F5C2
S31508003AE05543451BA289002095420BD0C87808B9D2
S31508003AF00820C8700D2253430348C018FFF7FEFA82
S31508003B0065810120B0BDC046EA0D002070B586B0BB
S31508003B1014460D46064602A800230373049303932E
S31508003B20029301200190264901AA40F6000003F0FD
S31508003B3025FA012E22D0002E40D102AE0820F070C0
S31508003B40B57040F2A51030802078307160787071B9
S31508003B50A078B071E078F07120793072607970726F
S31508003B60A079B072E079F072337B02AA07CA04F032
S31508003B7065FE3073304600F06BF81FE002AE082091
S31508003B80F070B57040F2A5103080207830716078FA
S31508003B907071A078B071E078F07120793072607930
S31508003BA07072A079B072E079F072337B02AA07CA04
S31508003BB004F044FE30733046FFF78AFF06B070BD46
S31508003BC02A040000B0B50146144C20890125854316
S31508003BD06289954209D040F206125043034A1018EA
S31508003BE040F20612FFF78AFA2581B0BDEE0E0020D4
S31508003BF0B0B50146094CA28801259543E388002003
S31508003C009D420AD040F2061042430548801840F209
S31508003C100612FFF773FAA5800120B0BD4000002008
S31508003C20FA100020B0B50146B64CE088421C0523C0
S31508003C30B2FBF3F55D43551B2289954206D00D224A
S31508003C40504320181230FFF759FAE580B0BDC04638
S31508003C50B0B50146AB4C6388581C1422B0FBF2F58C
S31508003C605543451BA288002095420BD0C87808B951
S31508003C700820C8700D2253430448C018FFF73EFABF
S31508003C8065800120B0BDC046D00100200613002083
S31508003C90FEB5002702970197364C40F60000364ECF
S31508003CA085B2009750E0B8B2801E032821D881005B
S31508003CB001A251188F46C04600F006B800F00FB8AA
S31508003CC000F002B800F00BB802AA002328463146D5
S31508003CD003F054F968B1029802282DD009E002AA27
S31508003CE000232846314603F049F910B10298012805
S31508003CF022D0A18801AA0023284603F03FF908B379
S31508003D000198552802D1218802260BE0618801AA6C
S31508003D100023284603F032F9A0B1019855280BD1A3
S31508003D202188012600232846324605F0BFFF009861
S31508003D3030430090104E05E021880022284613469D
S31508003D4005F0B4FFA41D7F1C0C2FACD100990936D1
S31508003D50880706D4C80706D10022284631461346E6
S31508003D6005E0022200E0012200232846314605F03C
S31508003D709DFFFEBD96E60008D3070000F0B553B3D5
S31508003D80059C2688751C9E4200D31D46258005E0A5
S31508003D905B00D6180127FF43F65BD6526D1EABB201
S31508003DA0002BF5D11080258800242046234604E000
S31508003DB016889B19921CE41C401C8542F8D11A18D7
S31508003DC0B3FBF0F545435D1BA408A54200D81A4687
S31508003DD0B2FBF0F00880F0BDBCB5401E032830D811
S31508003DE0840001A52C19A74600F006B800F00FB804
S31508003DF000F016B800F01AB85000134C2018183006
S31508003E006C4620609000124A1258032414E05000B1
S31508003E100D4C20186C46206090000C4A12580AE097
S31508003E20084A684602600832052405E00548821CEF
S31508003E306C462260021D0224084619462346FFF7EF
S31508003E409DFFBCBDA0010020B0030020E0E60008ED
S31508003E5010E7000880B50AF061FB03F08BFB18B188
S31508003E6002480178491C017080BDC046E80D002053
S31508003E70BFB5684600210173029101910091214D59
S31508003E80288AE989884212D00D225043094909181F
S31508003E906C462046FFF732F9204600F015FA288AC4
S31508003EA0401C0521B0FBF1F24A43801A2882BFBDA7
S31508003EB0D001002010040020BFB568460021017318
S31508003EC00291019100910F4DA8896989884218D0FD
S31508003ED06978B1B9012169700D2250430A49091858
S31508003EE06C462046FFF70AF9204609F08FF90128A3
S31508003EF007D1A889401C1421B0FBF1F24A43801A65
S31508003F00A881BFBDD0010020EA0D0020FEB500241F
S31508003F10029402AD40F6000040F2E8312A462346F4
S31508003F2003F02CF8E34EAA2030702F7801940BE0AA
S31508003F3081007118CD68A9B203F0FAF81DB15520B1
S31508003F40307001200190641CE0B28742F0D8352118
S31508003F50012340F20040019A05F0A8FEFEBDC046C6
S31508003F60F0B5C1B000200F900E90F54B5989491C49
S31508003F7059810D909B4A0A40D1084B2904D39A4986
S31508003F809870481C588103E09878012800D127E1E9
S31508003F90964D29460C310EAF0024954E40F600008A
S31508003FA03A462346B04729460D3140F600000A91A5
S31508003FB03A462346B0470E980C9029460E3140F6ED
S31508003FC000003A462346B0470E980B9040F2E83177
S31508003FD0283140F600003A462346B0470FAA40F675
S31508003FE0000029462346B047D54B02200F990129E0
S31508003FF002D0597A01290AD1012002210B9A5F2A97
S3150800400000DB08467B4A0C9D954200DC0846587042
S3150800401000F076F9CA484078012800D0C7E021A800
S315080040208021FFF784F80024209440F6000085B22A
S3150800403020AF284640F2E8313A462346B04738785A
S31508004040029040F2E831123128463A462346B047F4
S315080040502098069040F2E831133128463A4623461E
S31508004060B04720980590009528460A993A4623466F
S31508004070B0473888049010AE304604F09DFE18A864
S3150800408020223146FFF73AF80994039487E0500056
S3150800409018A9085A069981427CD840F2E8301018C7
S315080040A0411C20AD0A92002300982A4602F066FFBA
S315080040B00A9B28780990421E0F2A75D801940398FE
S315080040C0C0B20C900025089210E0980121A90C189E
S315080040D00C98460004F07AFE089A0A9B8019790023
S315080040E0405AB9006052601885706D1CEFB2099885
S315080040F0B842EAD8002125E00791101A0B90002251
S3150800410019E09D0121A84619601C8700F05BF1198A
S315080041100C91A100745A761884420BD921AB5B190D
S3150800412059188D783080D81983788B700A9B0C992A
S315080041300C808570521CD4B20B98A042E1DC07991A
S31508004140491C089AC8B28242D6DC0998841E1CE02B
S31508004150980121AA10188900435A049A9D1A5526CF
S31508004160F243059FBD42154600D33546069E9E423C
S3150800417000D82A46D3B24018827871480C300A9D76
S31508004180294603F001F82B46641CE1B209988842D7
S31508004190DED8019C0398099908180390641CE2B2BA
S315080041A00298904200D972E7FFF7B0FE18E040F691
S315080041B0000080B20DAA40F2E831234602F0DEFE86
S315080041C003E0002102F0B4FF641CE0B20D998142BD
S315080041D0F7DC35210022012340F2004005F066FD98
S315080041E041B0F0BDF8FF000057020000D3070000F9
S315080041F07D6F00083F060000F0B585B0044600252F
S31508004200049504AE40F6000040F2E83132462B46EB
S3150800421002F0B4FEE84304B920463678484F03E076
S3150800422089007918C8606D1CE9B28E42F8D800205A
S31508004230C04304B92046142101E07854491C1C29BE
S31508004240FBD1BC7044B3002140F6000080B2019057
S31508004250039100961CE040F2E83028180291411CB0
S3150800426004AA0023019802F089FEF878039C001B33
S3150800427080B2401E0121814089B23E46049F2846ED
S3150800428002F056FF02993C1903943746009E491CD2
S31508004290CDB2AE42DFD808E0002403E0002102F0E8
S315080042A047FF641CE0B28642F8D80020788105B042
S315080042B0F0BDC0460000002002480178491C017084
S315080042C07047C046581700204178402901D08029F8
S315080042D004D18178021D012003F0ACBF70470000AD
S315080042E010B50023054A05E0DBB204785C40135D8F
S315080042F0491E401C0C06F7D1D8B210BD90E700083D
S31508004300BCB50024019401AD40F6000040F2E83146
S315080043102A46234602F032FE2978094804E092002C
S3150800432082180023D360641CE2B29142F7D81421A4
S3150800433002E000224254491C1C29FAD1BCBDC046E1
S315080043400000002000F09CB9FEB5002302930193FB
S3150800435040F600042E4901AA40F6000002F00EFEBF
S31508004360019800B1FEBDA4B28E4902AA00232046D8
S3150800437002F004FE274D2878401C2870C0B21E287B
S3150800438003D80298401C029004E0642801D3002058
S31508004390287002986978491C0A22B1FBF2F3534344
S315080043A0C91A69701C4EB04224DA371A1B4887426C
S315080043B0D8DC686840F2E03260B9E868686040F2C4
S315080043C0E03111312A4608320023204602F0D6FD94
S315080043D040F2E032A868E968424340F2E83092FBCE
S315080043E0F0F0814202DA2869C01928616869C019A3
S315080043F068610298B042B5DD43494118084A9042BF
S31508004400B0DC2869401A2861A8694018A861FEBD71
S31508004410BF0F00009002002030750000A08C00003D
S31508004420D0010100F8B50D4600240094032835D0C4
S31508004430022816D001285ED1304D00246C80314EFA
S315080044403268314810181E303C2854D82F490023AA
S3150800445040F6000005F02AFC01242C7030686880BC
S3150800446049E0264E3078012845D128461E38254988
S3150800447009682A461E3291423DDC81423BDB2248CE
S3150800448028181F4B5A1C521B9D4200DC1046022559
S31508004490725F09B28A421DDA891A1DE0174F387809
S315080044A0022828D13F496A46002440F600002346E0
S315080044B002F064FD0099284608F0EAFF064610480F
S315080044C0411C284608F0E4FFC008864213D20020A3
S315080044D038700FE00FDD511A64224243B2FBF1F245
S315080044E00A48411C002440F60000234605F0DEFB7E
S315080044F008B135700124204601B0F0BDB401002092
S315080045002F750000C80D0020D08AFFFF07040000A1
S315080045107CB5234E35460A350195224901AA002461
S3150800452040F60000234602F029FD0198B0420DDA54
S315080045301D480189491C018189B20B2903D31B49EE
S3150800454001220A708271002141810EE016494A89CA
S31508004550521C4A8192B2332A01D300228A710C81F5
S31508004560A84202DD11480021017002F031F8012845
S3150800457002D10D48807910B901F040FD40B140F2F2
S31508004580E83005F019FC08480021817181607CBD7E
S3150800459001F050FD10B1002005F00EFC7CBDC046B0
S315080045A026750000D2070000B80100200900002087
S315080045B080B500F07FFF80BC01BC864600F04ABF8C
S315080045C0BCB5002401940E49224695B20B2D14D889
S315080045D006236B43CD5A521C8542F6D1C8188188EA
S315080045E001AA002440F60000234602F0C7FC20B1C9
S315080045F00198553800210C1A4441204602B0B0BD36
S3150800460096E6000880B500F0DBFF012801D10220FC
S3150800461000E0032009F07CFA09F014FD08B1022035
S3150800462000E0032080BC02BC8E4608F0B3BE000042
S31508004630F8B500908E4C104A104B15E00099097891
S315080046404C40002109E06608164037465F400125C0
S315080046502C4200D03E46491C3446CEB2072EF2D92B
S315080046600099491C00910146481EFF263142E5D1B2
S31508004670A0B201B0F0BDC046FF7F000001A0FFFF59
S3150800468010B50124204600F039F9204600F080F8DC
S31508004690204600F00BF800F0EFF800F087F9204606
S315080046A010BC02BC8E4600F045B90000F0B587B0D4
S315080046B00190002406946E480590012703940294FD
S315080046C030E040F2004086B22D2106AA30462B463D
S315080046D002F054FC2E2105AA30462B4602F04EFC69
S315080046E0012305980699012D01D11A4616E00246BE
S315080046F05F4B1A40049DABB29A4200D328469A42B1
S315080047003A4600D3039A0B46594D2B40A5B2AB4205
S3150800471000D82146AB423B4600D8029B7F1C029339
S3150800472003920C460490FDB201988542C9D9A2B2FB
S31508004730164D00274F4C40F6000029463B46A04739
S3150800474040F2004086B20298C3B2312106AA30462A
S3150800475002F014FC069AA91D40F600003B46A04745
S31508004760691C049882B240F600003B46A0470398AD
S31508004770C3B2322105AA304602F000FC059AE91DAB
S3150800478040F600003B46A04707B0F0BDE107000031
S31508004790F0B587B0019000240694354805900127A6
S315080047A00394029430E040F2004086B2292106AA1A
S315080047B030462B4602F0E2FB2A2105AA30462B4654
S315080047C002F0DCFB012305980699012D01D11A4652
S315080047D016E00246264B1A40049DABB29A4200D315
S315080047E028469A423A4600D3039A0B46204D2B4058
S315080047F0A5B2AB4200D82146AB423B4600D8029B45
S315080048007F1C029303920C460490FDB201988542E0
S31508004810C9D9A2B2374D0027164C40F600002946E2
S315080048203B46A04740F2004086B20298C3B22F2109
S3150800483006AA304602F0A2FB069AA91D40F6000019
S315080048403B46A047691C049882B240F600003B46E6
S31508004850A0470398C3B2302105AA304602F08EFB62
S31508004860059AE91D40F600003B46A04707B0F0BD93
S31508004870FFFF0000AD9C00087FB500240394029456
S31508004880019400941B4D03AA1B4E40F600002946CE
S315080048902346B047691C02AA40F600002346B047E3
S315080048A0029A039B981AD11A934200DC084682B2F0
S315080048B0291D40F60000234605F0F8F9A91C01AAAF
S315080048C040F600002346B047E91C6A4640F6000059
S315080048D02346B047009A019B981AD11A934200DCE6
S315080048E0084682B2691D40F60000234605F0DEF947
S315080048F07FBDC046DF0700007D6F00087CB5054612
S315080049000026019634460AE0761CF3B2262101AA4F
S3150800491040F2004002F032FB0198001984B2F0B26E
S31508004920A842F1D33249002340F60000224605F09A
S31508004930BDF97CBDF0B585B0019000240494012131
S3150800494040F6000080B2009025461DE0029140F234
S31508004950EC300392111804AE0027009832463B4605
S3150800496002F00CFB36780AE0203104AA40F2004037
S31508004970039B02F003FB049845197F1C641CF9B2DB
S315080049808E42F1D80299491CCAB201988242DDD9F1
S31508004990012C06DB95FBF4F203490023009805F089
S315080049A085F905B0F0BDC046DE070000BCB5002499
S315080049B0019400940E4D01AA40F6000029462346AC
S315080049C002F0DCFA691D6A4640F60000234602F04A
S315080049D0D5FA642001994143009891FBF0F20C3511
S315080049E040F600002946234605F060F9BCBDC046DE
S315080049F0D1070000F0B58DB01D4C204640F250118D
S31508004A00FEF795FB1B48411D40F600070BAA00253B
S31508004A1040F6000004912B4602F0B0FA0CA92020BB
S31508004A20087040F200418EB20DE00AAA0123304612
S31508004A30294602F0A3FA0A986070000A2070A41C9E
S31508004A406D1C0CA80078C0B28542EED3B8B20949ED
S31508004A50891D0BAA0025079001912B4602F08EFAB4
S31508004A600CA908200870024F4137EC4313E0C046F2
S31508004A7064060020D1070000294620310AAA01232E
S31508004A80304602F07BFA0A98010A395538706D1CCF
S31508004A90BF1C0CA80078C0B28542EDD300940AAAC0
S31508004AA008920027079C204668493B46684DA84758
S31508004AB051200A99674A1154080A502150546348EC
S31508004AC0411C20460291089D2A463B46604CA04759
S31508004AD061480A99401A53215E4B5854010A5222DA
S31508004AE099540A90594801461831059107982A465B
S31508004AF03B46574CA04755200A99564A1154080A6E
S31508004B005421505451490E31079D2846089A3B4670
S31508004B104F4CA04757200A994E4A1154080A562165
S31508004B2050544A4801460F312846089C22463B46BF
S31508004B30474DA84759200A99464A1154080A582148
S31508004B405054424801461031079822463B46404D8C
S31508004B50A8475B200A993F4A1154080A5A2150541B
S31508004B603A491131079D284622463B46384CA0470C
S31508004B705D200A99374A1154080A5C215054144694
S31508004B803248811C2846089A3B46314DA8475F2083
S31508004B900A992154080A5E21605430490831079C55
S31508004BA020460391089A3B46294DA84709AA254657
S31508004BB0204605993B46264CA047642106910A984B
S31508004BC090FBF1F00999414340F2E83091FBF0F08F
S31508004BD06121204B5854010A602299540A902846AC
S31508004BE00499089A3B461A4CA04763200A99194A21
S31508004BF01154080A6221505428460199089A3B46DE
S31508004C00A04765200A99134A1154080A0699505470
S31508004C101249103128461546089A3B46A047672090
S31508004C200A992954080A662168540A970C4A107882
S31508004C305178014390780843D178014310790843A5
S31508004C4051790143002938460ED00BE0D107000000
S31508004C507D6F00086406002060EA0000E903000092
S31508004C601400002001200A906921685468202F54F6
S31508004C703248014608310AAC079822463B46304D71
S31508004C80A8476B200A992F4A1154080A6A215054DA
S31508004C902A48C11D079822463B46A8476D200A990F
S31508004CA0284A1154080A6C215054272101253046F8
S31508004CB0224608942B46224EB0476F200A99214A6D
S31508004CC01154080A6E2150541C4801461231079E99
S31508004CD0304622463B461A4CA04771200A99194A83
S31508004CE01154080A7021505430461449089A3B4614
S31508004CF0134CA0470BAA304602993B46A0471248D8
S31508004D00417874220F4B9954017875229954C178C9
S31508004D107622995481787722995441797822995440
S31508004D2001797922995409490B9B5918084E721C26
S31508004D300292D21AB3420EDC0CE0C046D10700003C
S31508004D407D6F000864060020D80D0020D08AFFFF7A
S31508004D502F75000011460B910A9A4A43069992FB51
S31508004D60F1F17322144EB154090A7222B154C17971
S31508004D707A22B15480797B2170540A977E20375263
S31508004D800E492631079C2046089A3B460C4EB047EA
S31508004D9080200C49084A115202980A900CAE204607
S31508004DA0094932463B46064CA0470A970748007809
S31508004DB03178009C0CE0C04664060020D10700004C
S31508004DC07D6F000875300000E9030000140000201C
S31508004DD0FAB28A4206D22B4693407F1C0342F7D08A
S31508004DE0501C0A9082200027FC490F520A970BAAEA
S31508004DF0079D284604993B46F94EB0470CA8102152
S31508004E0001700AAA0892284603993B46B0470A98B1
S31508004E10069990FBF1F0AF21F04B5854010AAE22E7
S31508004E2099540A90EF4801460B312846089D2A46B0
S31508004E303B46EB4EB047B1200A99E84A1154080A96
S31508004E40B0215054E748411E07982A462E463B464D
S31508004E50E34DA847B3200A99E04A1154080AB2213B
S31508004E605054079D2846DF4932463B46DC4EB0473C
S31508004E70B5200A99D94A1154080AB4215054D94878
S31508004E80411C2846089D2A463B46D54EB047B720C2
S31508004E900A99D24A1154080AB6215054D148811C9D
S31508004EA007982A462E463B46CD4DA847B9200A996B
S31508004EB0CA4A1154080AB8215054CA48011D079D08
S31508004EC0284632463B46C64EB047BB200A99C34AD7
S31508004ED01154080ABA215054C248411D2846089E52
S31508004EE032463B46BE4DA847BD200A99BB4A1154D7
S31508004EF0080ABC215054BB48811D079832463546DE
S31508004F003B46B74EB047BF200A99B44A1154080A1F
S31508004F10BE215054B3490A31079E30462A463B46BD
S31508004F20AF4DA847C1200A99AC4A1154080AC021B6
S31508004F305054AC4914313046089A3B46A84DA84708
S31508004F40C3200A99A54A1154080AC2215054A548F3
S31508004F50014627313046089A3B46A14DA847C52049
S31508004F600A999E4A1154080AC42150549D4935315C
S31508004F703046089A3B469A4DA847C7200A99974A49
S31508004F801154080AC621505496480146283130461D
S31508004F90089A3B46924DA847C9200A998F4A115448
S31508004FA0080AC82150548F4936313046089A3B467C
S31508004FB08B4DA847CB200A99884A1154080ACA215A
S31508004FC050548848014621313046089A3B46844D5C
S31508004FD0A847CD200A99814A1154080ACC21505471
S31508004FE080492F313046089A3B467D4DA847CF2049
S31508004FF00A997A4A1154080ACE215054794801462A
S3150800500022313046089A3B46754DA847D1200A9961
S31508005010724A1154080AD021505472493031304628
S31508005020089A3B466E4DA847D3200A996B4A1154F5
S31508005030080AD22150546B48014625313046089A51
S315080050403B46674DA847D5200A99FC4A1154080AD9
S31508005050D4215054FC4933313046089A3B46F94D21
S31508005060A847D7200A99F54A1154080AD621505458
S31508005070F548014626313046089A3B46F14DA84781
S31508005080D9200A99ED4A1154080AD8215054EE49F4
S3150800509034313046089A3B46EA4DA847DB200A9940
S315080050A0E64A1154080ADA215054E74801462C31D9
S315080050B03046089A3B46E34DA847DD200A99DF4A61
S315080050C01154080ADC215054DF493A313046089A0F
S315080050D03B46DC4DA847DF200A99D84A1154080AEE
S315080050E0DE215054D84801462D313046089A3B46B1
S315080050F0D44DA847E1200A99D04A1154080AE0215C
S315080051005054D1493B313046089A3B46CD4DA847C5
S31508005110E3200A99C94A1154080AE2215054CA4898
S3150800512001462A313046089A3B46C64DA847E5202F
S315080051300A99C24A1154080AE4215054C24938311E
S315080051403046089A3B46BF4DA847E7200A99BB4A0E
S315080051501154080AE6215054BB4801462B31304603
S31508005160089A3B46B74DA847E9200A99B34A11540D
S31508005170080AE8215054B44939313046089A3B4662
S31508005180B04DA847EB200A99AC4A1154080AEA21FF
S315080051905054AD48014629313046089A3B46A94D38
S315080051A0A847ED200A99A54A1154080AEC2150543B
S315080051B0A54937313046089A3B46A24DA847EF2005
S315080051C00A999E4A1154080AEE2150549E480146EF
S315080051D02E313046089A3B4606E0C0466406002053
S315080051E07D6F0008E9030000964DA847F1200A994B
S315080051F0924A1154080AF021505493493C313046DA
S31508005200089A3B468F4DA847F3200A998B4A1154B2
S31508005210080AF22150548C48014611313046089A42
S315080052203B46884DA847F5200A99844A1154080A2E
S31508005230F4215054844912313046089D2A463B468B
S31508005240804EB047F7200A997C4A1154080AF6217D
S3150800525050547B4E3146243107982A463B46794DB1
S31508005260A847F820754A17540A985538411E8841A8
S31508005270F92150540A90253607983146089E324639
S315080052803B46704DA847FA206C4A17540A98553879
S31508005290411E8841FB2150540A90079D28460599CE
S315080052A032463B46674EB047FD200A99634A115479
S315080052B0080AFC2150546449423128461546089A82
S315080052C03B46B047FF200A992954080AFE2168542C
S315080052D05E480D3040F2001105E07A1C0F43037852
S315080052E0EB55001917460E2FF7D140F21010281863
S315080052F00E21574A079F04E053181B5D0370401C94
S31508005300491E0029F8D140F220102C18002508263D
S3150800531012E04D48291815310AAA0023384601F02B
S315080053202DFE0A98E070010C6170010E2170000ACA
S31508005330A070241D761E6D1C002EEAD1424D29460A
S3150800534043310AAE00230893384632463D4CA047FF
S3150800535040F241100A99394C2154080A40F240118A
S31508005360605429464431384606963246089B354CE1
S31508005370A04740F243100A99304A1154080A40F2ED
S31508005380421150542946453138463246089E33461E
S315080053902C4CA04740F245100A99284A1154080A8D
S315080053A040F24411505429461D313846069A334670
S315080053B0A04740F249100A99204C2154080E40F2A1
S315080053C04612A054080C40F24712A054080A40F2AC
S315080053D04811605438462946069E3246089C23469C
S315080053E0184DA84740F24B100A99144A1154080A56
S315080053F040F24A115054144D29464931384632462E
S315080054002346104EB04740F24D100A990B4E3154C0
S31508005410080A40F24C11705429464A313846069A11
S315080054202346084CA04740F24F100A993154080AFF
S3150800543040F24E1170540DB0F0BDC046640600200F
S31508005440D10700007D6F0008E90300003B0100203A
S315080054502D010020B0B502F09DF82D4D90B1002425
S31508005460EC702879401C2871C0B2042809D303209F
S3150800547028710F4940F600002246234604F016FC20
S315080054806C71B0BDE878401CE870C0B204280CD333
S315080054900320E870687940B905490124002340F6DD
S315080054A00000224604F002FC6C7100202871B0BD91
S315080054B0ED070000B0B502F068F8154D90B100246C
S315080054C02C706878401C6870C0B2042809D3032081
S315080054D06870104940F600002246234604F0E6FBB1
S315080054E0AC70B0BD2878401C2870C0B204280CD314
S315080054F003202870A87840B906490124002340F6FD
S315080055000000224604F0D2FBAC7000206870B0BDE3
S31508005510B8010020EC07000070B50C460546074E9A
S315080055203046243001F0CAFD042805D881007118D8
S3150800553000228A664D654C6270BDC0463003002065
S315080055400148642103F0D0BDA188000880B506484B
S3150800555040F2F41103F0C8FD0448642180BC04BC81
S31508005560964603F0C1BDC046258E0008913C00084A
S3150800557010B508486421084CA047084840F2E831AD
S31508005580A047074840F2E831224610BC08BC9E46B0
S315080055901047C04649430008E990000895A400084A
S315080055A0FD9D000880B50920C0062021012208F0CB
S315080055B047FA02480021017080BDC046D00100208C
S315080055C0FEB500230293284E31461A3140F60004F0
S315080055D002AA40F6000001F0D1FC029810B923484F
S315080055E000210170A4B202AA0025204631462B46A6
S315080055F001F0C4FC01271E480299814201DD3D469F
S315080056002FE01A48007860BB233602AA00252046F8
S3150800561031462B4601F0B2FC0298552821D0154890
S31508005620007801281DD007F073FDD0B90197002630
S3150800563011A70BE0396802AA002520462B4601F07F
S315080056409DFC0298552805D03F1D761C042EF1D9DD
S31508005650019D06E0F0B20428044902D10120087031
S315080056600025284603B0F0BDD20700003A180020EE
S3150800567030750000E90D0020C40B0000CA0B0000BD
S31508005680D30B0000D10B0000C80B0000FEB50023A9
S315080056900293244E31461B3140F6000402AA40F616
S315080056A0000001F06BFC029810B91F480021017038
S315080056B0A5B202AA002428463146234601F05EFC1C
S315080056C001261A480299814201DA344627E016482B
S315080056D0007820BB01F096FC08BB15480078012825
S315080056E01DD007F015FDD0B90196002711A60BE0CD
S315080056F0316802AA00242846234601F03FFC029896
S31508005700552805D0361D7F1C042FF1D9019C06E0CB
S31508005710F8B20428044902D1012008700024204662
S3150800572003B0F0BDD20700003B180020307500001A
S31508005730E90D0020C50B0000CB0B0000CD0B0000C7
S31508005740CE0B0000C90B0000BCB50023019340F640
S3150800575000051D4C01AA40F60000214601F00EFC8A
S315080057600198012804D102F041FB012818D00198BC
S31508005770552815D0A5281BD0A8B22C3C01AA002371
S31508005780214601F0FBFB11480199814202D11048DC
S315080057900121017001F05AFE524801214170BCBD39
S315080057A0A8B200222146134604F080FA02F0D8FB7C
S315080057B0A8B200222146134604F078FA4948012186
S315080057C0017002F0CDFBC04629040000FFFF00006F
S315080057D0C40D002070B5FFF759FF012806D1002037
S315080057E008F096F914480121017019E0124E307834
S315080057F0012810D10124204602F068FA0F4D2846E8
S3150800580001F016FE204608F083F9284601F010FE3E
S31508005810002002F05BFA00203070012008F078F9C9
S3150800582008F02CFC08B1002000E0012070BC02BC86
S315080058308E4607F0AFBDC046B407002088130000A7
S31508005840B0B5CF4C0025204629462A4640F6000327
S3150800585008F003F903222046294640F60003039C74
S31508005860A646B0BC01B008F016B9C046B0B5C44CDF
S315080058700121002520462A4640F6000308F0EDF8E7
S3150800588003222046294640F60003039CA646B0BCE0
S3150800589001B008F000B9C04602F044BAB0B5042019
S315080058A008F064F80F4D687850B1E878072806D8EC
S315080058B0FFF7ECFE012802D101F06CFE28B1B0BD5D
S315080058C0B0BC01BC864602F02DBA0124204602F07F
S315080058D0FDF9204602F020FA042007F05BFD0520BA
S315080058E0A870B0BD1401002002F01CBAF0B587B04C
S315080058F002920C4605460120059080F3108800F0B8
S315080059009DF8A027384600F019F902F01FFF002875
S315080059107AD0200A00F012F902F018FF002879D090
S31508005920E0B200F00BF902F011FF002878D000F081
S3150800593085F8781CC0B200F001F902F007FF0028CC
S3150800594074D00298401E0190002653E003960495F1
S31508005950FFF776FF00210D461AE00691884E30467D
S3150800596040F20041059F3A4608F06AF8304640F68C
S31508005970000108F06CF804460022304640F2004167
S3150800598008F05EF804B927466D003D430699491CA0
S31508005990C8B20728E1D9FFF769FF049805700546DC
S315080059A0451C0198039EB04211D10124744F384614
S315080059B040F6000122463C4FB847714840F2004184
S315080059C02246B84700226E4840F2004110E0002403
S315080059D06B4F384640F600012246334FB84701223E
S315080059E0674840F20041B847654840F20041224600
S315080059F0B847761C02988642A8D100F03DF80020E8
S31508005A0080F31088012016E000F036F8002080F3B5
S31508005A10108810E000F030F8002080F310880AE0C3
S31508005A2000F02AF8002080F3108804E000F024F83B
S31508005A30002080F3108807B0F0BDC04670B5504C02
S31508005A400125194E204640F200412A46B047204615
S31508005A5040F600012A46B0470025204640F60001D8
S31508005A602A46B047204640F200412A463346039C60
S31508005A70A64670BC01B0184770B5414C00220A4EC4
S31508005A80204640F60001B0470125204640F2004175
S31508005A902A46B047204640F600012A463346039C6C
S31508005AA0A64670BC01B0184741DA000870B514461E
S31508005AB00E460546012080F31088FFF7BFFFA02099
S31508005AC000F03CF802F042FEF8B1300A00F036F871
S31508005AD002F03CFEF8B1F0B200F030F802F036FE03
S31508005AE0F8B1002607E0287800F028F802F02EFE24
S31508005AF0E8B1761C6D1CB0B2A042F4D3FFF7BCFF28
S31508005B00002080F31088012070BDFFF7B5FF002044
S31508005B1080F3108870BDFFF7AFFF002080F3108870
S31508005B2070BDFFF7A9FF002080F3108870BDFFF74E
S31508005B30A3FF002080F3108870BD000070B5002513
S31508005B400F4C19E0460040B2002801DB002200E0B5
S31508005B500122204640F6000107F072FF0122204686
S31508005B6040F2004107F06CFF0022204640F2004157
S31508005B7007F066FF6D1C3046E9B20729E2D970BD09
S31508005B80000400487CB5002501955720009040F692
S31508005B900006284901AA40F600002B4601F0EEF956
S31508005BA025496A4640F600002B4601F0E7F9234CE2
S31508005BB000980199814211DAC91C81421EDC2048ED
S31508005BC005704178491C4170C9B21E2916D31E2199
S31508005BD04170B0B20022214613460DE018484570C0
S31508005BE00178491C0170C9B21E2907D31E2101700C
S31508005BF0B0B201220023214604F058F8B0B201AA37
S31508005C000023214601F0BAF90198012808D1062097
S31508005C1007F0C0FB0B48017820220A4302707CBDBE
S31508005C2008480178DF220A400270072007F0B2FB15
S31508005C307CBDC046F40700002B040000AE0F000030
S31508005C40C4020020D10D002070B50446481E222843
S31508005C5000D97DE1810001A251188F4600F044B8B1
S31508005C6000F04EB800F058B800F05EB800F064B81E
S31508005C7000F072B800F080B800F08EB800F09CB85A
S31508005C8000F0AAB800F0B8B800F0BFB800F060B9E4
S31508005C9000F05EB900F05CB900F05AB900F058B9E6
S31508005CA000F056B900F054B900F052B900F050B9F6
S31508005CB000F04EB900F0B3B800F04AB900F048B9A0
S31508005CC000F0B6B800F044B900F042B900F040B9A7
S31508005CD000F03EB900F03CB900F03AB900F02BB933
S31508005CE000F0B5B800F0BDB805F06AFA002800D192
S31508005CF0C0E09A480268406803218A430221CCE042
S31508005D0005F07CFA002800D1BEE094480268406895
S31508005D100C218A430821C0E0220130231A408F480B
S31508005D20016840689943B8E08C4802684068C02119
S31508005D308A43A101C9B2B0E00020C5438E4E05F0E2
S31508005D40A9F9002800D1AAE08448026840682840DA
S31508005D50324040F20021A0E00020C543854E05F000
S31508005D60B7F9002800D1A3E07C48026840682840BB
S31508005D70324040F6000190E00020C5437C4E05F015
S31508005D80C5F9002800D19CE074480268406828409C
S31508005D90324042F2000180E00020C543734E05F010
S31508005DA0D3F9002800D195E06C480268406828407D
S31508005DB0324048F2000170E00020C5436A4E05F003
S31508005DC03BFA002800D18EE0644802684068284003
S31508005DD032400121490460E00020C543614E05F0C8
S31508005DE067FA002800D187E05C48026840682840C6
S31508005DF032400121C90450E003210A0557480368C7
S31508005E00406893430C40210507E003218A0553485F
S31508005E100368406893430C40A105194395E04F4831
S31508005E2006C840F2001082430120044020028BE09D
S31508005E300020C5434A4E002C6DD048480368406888
S31508005E4030402B4001210C40E10200226EE0012483
S31508005E50E50405F097F9414A06CAAA432040C0045A
S31508005E6072E0012002053D4B0ACB9343044020050E
S31508005E7018436AE03948016840680322002C6BD051
S31508005E8014409143214360E0344802684068002C7E
S31508005E905FD00C239A43A1001940114355E02F48BF
S31508005EA0026840689CB3324003210C4021022BE073
S31508005EB02A480268406854B3324003210C40A102C4
S31508005EC022E02648026840680CB3324003210C40A1
S31508005ED0210319E0214802684068C4B13240032111
S31508005EE00C40A10310E01D48026840687CB13240AE
S31508005EF003210C40210407E018480268406834B1C1
S31508005F00324003210C40A104114328401DE03240D1
S31508005F102840114619E007F0DDF810490A68496873
S31508005F2031402A4001230340D80200231A430B4B71
S31508005F3001431A6059600124A50405F09BF9074A34
S31508005F4006CAAA43204080041043044A11605060E0
S31508005F5070BD0C218A43DCE79143F6E7D80D002093
S31508005F60FFF7FFFFFFFFF3FFFFFFFCFFFF3FFFFF0A
S31508005F70FFCFFFFFFFF3FFFFFFFCFFFF10B51A4C33
S31508005F8020780A2801D3002020706078322803D3AD
S31508005F9004F016FB00206070E0781E2801D300206C
S31508005FA0E070A078642801D30020A07020796428C6
S31508005FB003D30E480021017021716079642803D348
S31508005FC00B48002101706171A079642801D3002073
S31508005FD0A071E079642805D3064800210170E171B3
S31508005FE00548017010BDC046E00D00209E0A00203D
S31508005FF0D0010020D1010020410000201CB500245A
S3150800600001940A4901AA40F60000234600F0B6FFAB
S315080060100748FEF7D5FA01995539621A4A4101210E
S3150800602000B901461140084602B010BDB80B000081
S31508006030A60F00001CB5002401940A4901AA40F6DF
S315080060400000234600F09AFF0748FEF7B9FA0199BF
S315080060505539621A4A41012100B9014611400846DC
S3150800606002B010BDB90B0000A70F0000B0B50022A2
S31508006070074B1446E1B2032906D889005D58641C0B
S3150800608001218542F6D100E011460846B0BDC0465A
S3150800609090E80008FEB501900025029540F2D076FA
S315080060A0711C02AFAA4C40F600003A462B46A047A0
S315080060B0D3490298C870000A887040F6000040F27A
S315080060C0D0713A462B46A24CA0470298CC49487153
S315080060D0000A0871B11C40F600003A462B469C4C53
S315080060E0A0470E480299401AC54AD071010A917113
S315080060F014460290193640F6000031463A462B46B9
S31508006100934DA84702986072000A2072A21C90213B
S315080061100198FDF7FBFC012003B0F0BD60EA000022
S31508006120FEB5019000250295194902AE884C40F645
S3150800613000000F4632462B46A047F14C0298E07005
S31508006140000AA070B91D40F6000032462B46804F63
S31508006150B847029820710E48411C40F600003246A6
S315080061602B467B4FB8470298A071000A6071084811
S31508006170C11D40F6000032462B46B8470298E0712A
S31508006180A21C91210198FDF7C1FC012003B0F0BDC6
S31508006190DF070000FEB5019000250295174902AEFB
S315080061A06B4C40F600000F4632462B46A047DF4CA4
S315080061B00298A070B91D40F6000032462B46644F7F
S315080061C0B8470298E0700D48411C40F60000324678
S315080061D02B465F4FB847029820710848C11D40F604
S315080061E0000032462B46B84702986071A21C9221DD
S315080061F00198FDF78BFC012003B0F0BDE107000014
S31508006200FEB50090002502950195244E02AF504C2C
S3150800621040F6000031463A462B46A047DD4902982B
S315080062208870B11D40F600003A462B46484CA047F8
S315080062300298D849C870711D40F600003A462B46A8
S31508006240434CA0470298D34908711548007848710D
S315080062500C46144940F600003A462B463C4FB847D0
S31508006260163601AA40F6000031462B46B847029872
S315080062700199414340F2E83091FBF0F06072010E5B
S31508006280A171010CE171010A21720290A21C9321ED
S315080062900098FDF73BFC012003B0F0BDD3070000D2
S315080062A058170020F1030000FEB50190002502955D
S315080062B0524F02AC264E40F60000394622462B467F
S315080062C0B047B44902988870791C40F60000224607
S315080062D02B461F4EB0470298F649C8703946163104
S315080062E040F6000022462B46194EB0470298F1495F
S315080062F008713946173140F60000264622462B46D5
S31508006300134CA0470298EB4C607112480078A071B4
S31508006310114940F6000032462B460D4CA04702981C
S31508006320E4490872000AC8711E3740F6000039466B
S3150800633032462B46064CA0470298DE4948728A1C0C
S3150800634094210198FDF7E2FB012003B0F0BDC04699
S315080063507D6F0008D10D0020F9030000F0B595B057
S31508006360019005A84021FCF7E2FE00250495039557
S31508006370224903AA40F600002B4600F0FFFD0FE075
S3150800638004AA012740F2004031463B4600F0F6FDDC
S31508006390700004990A0A05AB1A54384319546D1C3F
S315080063A0EEB20398B042EBDC0022ED4D1EE00292FD
S315080063B005AA575C0626B1FBF6F2344654430C1B75
S315080063C02C19E7704C1CB4FBF6F77743E41B5B1EED
S315080063D00CB18B4208D1501CE14988708A1C952162
S315080063E00198FDF793FB0398029A521C4300D1B219
S315080063F09942DCDB012015B0F0BDC046D607000087
S3150800640030020020F0B587B0019000260696059662
S315080064100496039602966920C0431430C0B20A78DF
S31508006420962300938242304609D18878244A908080
S31508006430C878D0800879108148795081012021498F
S315080064400870214902AA40F60000334600F096FD7E
S31508006450062002900CE03946203103AA012340F2B7
S31508006460004000F08BFD04A80399C155761C0298DC
S31508006470F7B2B842EFDC0026D74F1BE004A98B5CC5
S315080064800725B2FBF5F12C464C43141B3C19E37067
S31508006490531CB3FBF5F46C431B1B441E944200D0FB
S315080064A03BB9481CB870BA1C01980099FDF72EFB39
S315080064B00298761CF2B29042E0DC012007B0F0BDEB
S315080064C0C8000020C0000020D707000080B5354A64
S315080064D01378E8498B705378CB7093780B71D3781F
S315080064E04B7113798B715379CB7193790B72D2797E
S315080064F04A728A1C9721FDF709FB012080BDC04618
S315080065003002002080B508490A88DA4B5A804A8842
S315080065109A808A88DA80C98819819A1C9821FDF799
S31508006520F5FA012080BDC046D80D002030020020B3
S31508006530F8B50446F64F0025BD70009516496E4617
S3150800654040F6000032462B4600F018FD7520F8701C
S315080065503020387111480090114940F60000324643
S315080065602B4600F00BFD7D710E48007800998D4290
S3150800657005D20122AA406D1C0242F8D07D71002086
S315080065807871BA1C99212046FDF7C0FA012001B09E
S31508006590F0BDC04630020020F70700003075000045
S315080065A0E903000014000020B0B50022074B14468A
S315080065B0E1B2032906D889005D58641C0121854289
S315080065C0F6D100E011460846B0BDC046A4E800086A
S315080065D0BCB50024019440F6A070801DFDF7F0FFBD
S315080065E018B904F0EDFD002568B10C4901AA40F67A
S315080065F00000234600F0C2FC41F2C02001250199A3
S31508006600814200DB254640F6A070FDF7D9FF01213F
S3150800661000B10D46284602B0B0BDC046DF070000EF
S31508006620012110280CD30221502809D3030903217C
S315080066309022092B04D33032D2B20421904201D2DF
S31508006640C8B270473030C2B205200021202A00D3D4
S3150800665008467047FEB5019000240294144F02AE16
S3150800666040F6000039463246234600F087FCEB4DDB
S3150800667002986871010EA970010CE970000A287168
S31508006680F91C40F600003246234600F077FC0298D3
S315080066906872010EA971010CE971000A2872AA1C18
S315080066A050210198FDF732FA204603B0F0BDC046E6
S315080066B0F103000030020020FEB501900024029488
S315080066C002AEF84F40F6000040F2E8313246234663
S315080066D0B847F54D0298A87040F2E830411C40F6DC
S315080066E0000032462346B8470298E87040F2E83080
S315080066F0811C40F6000032462346B84702982871A6
S3150800670040F2E830C11C40F6000032462346B8473E
S315080067100298687140F2E830411D40F600003246A2
S315080067202346B8470298A87140F2E830811D40F622
S31508006730000032462346B8470298E87140F2E8302E
S31508006740C11D40F6000032462346B8470298287213
S31508006750AA1C51210198FDF7D9F9204603B0F0BDCE
S3150800676030020020FEB5019000240294194F02AEB3
S3150800677040F6000039463246234600F0FFFB40F259
S31508006780E831029890FBF1F0F94D6871010EA97095
S31508006790010CE970010A29710290791C40F6000083
S315080067A03246234600F0EAFB029840F2E83190FBB5
S315080067B0F1F06872010EA971010CE971010A2972DA
S315080067C00290AA1C52210198FDF7A0F9204603B0B1
S315080067D0F0BDC046F503000030020020FEB501906A
S315080067E000240294224F02AEE04D40F600003946DE
S315080067F032462346A847DE49029888703946093149
S3150800680040F6000032462346A8470298D849C87081
S315080068103946133140F6000032462346A847029807
S31508006820010EF64D2971010C6971000AA8713946E5
S315080068300A3140F6000032462346EF4DA847029833
S31508006840EE490872000AC8713D3740F6000039461D
S3150800685032462346E84DA8470298E84948728A1CFA
S3150800686053210198FDF752F9204603B0F0BDC04602
S31508006870F303000030020020F0B58BB00446002573
S315080068800A9568462821FCF752FC204E2F4612E04E
S31508006890B9190AAA002340F6000000F06FFB0A980F
S315080068A0010E6A4651555119C870020C4A70000A01
S315080068B088702D1D7F1C202DEAD100200125F04E61
S315080068C013E06F463F5C1F54471C1F2801D08242C5
S315080068D009D1C0B2B0FBF1F0401CB070B21C572110
S315080068E02046FDF713F96D1C38460721B5FBF1F272
S315080068F04A43521EB0FBF1F30627FF435F43F319E1
S31508006900DB1C2028DDD100200BB0F0BDFE03000003
S3150800691030020020FEB501900024029440F2104790
S3150800692002AED64D40F6000040F2104132462346EC
S31508006930A847E8490298C870000A887040F21041D2
S315080069400E3140F6000032462346CC4DA847029841
S31508006950F5494871000A0871791C40F6000032466C
S315080069602346C64DA8470298EF4DE871000AA8715C
S315080069700F3740F60000394632462346BF4EB04729
S3150800698002986872000A2872AA1C59210198FDF714
S31508006990BDF8204603B0F0BDFEB501900024029470
S315080069A01D4F02AEB54D40F6000039463246234625
S315080069B0A847F3490298C870000A887039460E310C
S315080069C040F6000032462346AC4DA8470298EC49EB
S315080069D04871000A0871791C40F6000032462346C1
S315080069E0A64DA8470298FD4DE871000AA8710F3711
S315080069F040F60000394632462346A04EB047029874
S31508006A006872000A2872AA1C5A210198FDF77EF8B6
S31508006A10204603B0F0BDC0460A040000300200203C
S31508006A20FEB50190002402941D4F02AE934D40F628
S31508006A300000394632462346A847F6490298C870E8
S31508006A40000A887039460E3140F600003246234661
S31508006A508A4DA8470298EF494871000A0871791CBF
S31508006A6040F6000032462346844DA8470298E94D71
S31508006A70E871000AA8710F3740F600003946324619
S31508006A802346FC4EB04702986872000A2872AA1C70
S31508006A905B210198FDF73AF8204603B0F0BDC046E1
S31508006AA00E0400007D6F000830020020FEB501903C
S31508006AB0002402942C4EB11C02AFEE4D40F60000A5
S31508006AC03A462346A847F749029888703146103156
S31508006AD040F600003A462346E64DA8470298F14993
S31508006AE0C870F11C40F600003A462346E14DA84717
S31508006AF00298EC4908713146113140F600003A46D1
S31508006B002346A8470298FB49487140F600003146DB
S31508006B103A462346A8470298F649887131460E3107
S31508006B2040F600003A462346A8470298F149C8713C
S31508006B30711C40F600003A462346A8470298ED4DD8
S31508006B4028720F3640F6000031463A462346C94EAB
S31508006B50B04702986872AA1C5C210198FCF7D6FF18
S31508006B60204603B0F0BDC046130400007D6F000840
S31508006B7030020020FEB50190002402941D4F02AE9B
S31508006B80BC4D40F60000394632462346A847FA4926
S31508006B900298C870000A887039460E3140F600001F
S31508006BA032462346B34DA8470298F3494871000A6E
S31508006BB00871791C40F6000032462346AD4DA847B9
S31508006BC00298ED4DE871000AA8710F3740F60000EB
S31508006BD0394632462346A74EB04702986872000ADD
S31508006BE02872AA1C5D210198FCF790FF204603B085
S31508006BF0F0BDC0460C0400007D6F0008300200207E
S31508006C00FEB50190002402941B4F02AE994D40F642
S31508006C100000394632462346A847D7490298C87025
S31508006C20000A887039460E3140F60000324623467F
S31508006C30904DA8470298D0494871000A0871791DF5
S31508006C4040F60000324623468A4DA8470298CA4DA8
S31508006C50A871133740F60000394632462346854E5A
S31508006C60B0470298E871AA1C5E210198FCF74EFF0E
S31508006C70204603B0F0BDC046120400007D6F000830
S31508006C8030020020FEB5019000240294104E02AF97
S31508006C9040F6000031463A46234600F06FF9B64DF5
S31508006CA00298E870000AA870711C40F600003A467F
S31508006CB0234600F063F902986871000A2871AA1C35
S31508006CC05F210198FCF722FF204603B0F0BDC046BD
S31508006CD0FA03000030020020FEB501900024029459
S31508006CE0104E02AF40F6000031463A46234600F001
S31508006CF045F9A14D0298E870000AA870711C40F683
S31508006D0000003A46234600F039F902986871000AED
S31508006D102871AA1C60210198FCF7F8FE204603B0EA
S31508006D20F0BDC0462604000030020020F8B50090E9
S31508006D3000200125904E134F10E03C5C1C54441C67
S31508006D40824209D1C0B2B0FBF1F0401CB070B21C4F
S31508006D5062210098FCF7DAFE6D1C20460721B5FB78
S31508006D60F1F24A43521EB0FBF1F30624E4435C43B6
S31508006D703319DB1C0E28E0D1012001B0F0BDC04656
S31508006D80300200203B010020F8B5009000200125C4
S31508006D90794E134F10E03C5C1C54441C824209D1C6
S31508006DA0C0B2B0FBF1F0401CB070B21C6321009871
S31508006DB0FCF7ACFE6D1C20460721B5FBF1F24A43F1
S31508006DC0521EB0FBF1F30624E4435C433319DB1C83
S31508006DD00E28E0D1012001B0F0BDC04630020020E7
S31508006DE02D010020BCB50446094901AA002340F636
S31508006DF0000000F0C3F860480125C570019981704C
S31508006E00821C65212046FCF781FE284602B0B0BDEB
S31508006E102A04000030020020FEB50190144DA91D79
S31508006E2002AE0027134C40F6000032463B46A04708
S31508006E3051490298887040F60000294632463B467A
S31508006E400C4CA04702984C490871093540F60000D9
S31508006E50294632463B46074CA04702984649887160
S31508006E608A1C66210198FCF751FE012003B0F0BD8B
S31508006E702B0400007D6F00081CB50446084901AACA
S31508006E80002340F6000000F079F83B48019981702C
S31508006E90821C67212046FCF739FE012002B010BD8E
S31508006EA03204000030020020FEB50190104D02AEFB
S31508006EB0002740F60000294632463B4600F05EF8B9
S31508006EC02D4C0298A0704A3540F6000029463246F5
S31508006ED03B4600F053F802982071000AE070A21CA5
S31508006EE068210198FCF712FE012003B0F0BDC046E8
S31508006EF0E903000030020020F0B58BB0044601AD6E
S31508006F0028212846FCF713F9284607F0D5F8E87F24
S31508006F10A5282DD1182003E001A900220A54401CF7
S31508006F202028F9D100200125134E13E001AF3F5C5C
S31508006F301F54471C1F2801D0824209D1C0B2B0FB9A
S31508006F40F1F0401CB070B21C6A212046FCF7DEFD49
S31508006F506D1C38460721B5FBF1F24A43521EB0FBB9
S31508006F60F1F30627FF435F43F319DB1C2028DDD125
S31508006F7000200BB0F0BDC04630020020B0B5044674
S31508006F80002062B340F60005AC420AD040F2004544
S31508006F90AC4224D1362922D8012B20D188001849A1
S31508006FA01AE00F4BCB18542B02D89800134913E05C
S31508006FB00C4BCB18272B02D898000F490CE00A4B2C
S31508006FC0CB18302B02D898000A4905E0074BC91898
S31508006FD0232904D888000649085810600120B0BD46
S31508006FE018FCFFFF30F8FFFF48F4FFFF60F0FFFFD3
S31508006FF0C816002010140020D41400207415002090
S315080070005C1700201CB50024019400940F4901AABE
S3150800701040F600002346FFF7B1FF0D496A4640F6E1
S3150800702000002346FFF7AAFF00F0CCFA50B90198F2
S31508007030552807D000F0B2FA28B90098A52801D03B
S315080070405A2800D10124204602B010BDF6070000D8
S315080070503404000070B50023064CDDB2092D08D8AB
S31508007060ED00665D5B1C8E42F7D161194B681146CF
S31508007070984770BD84EC000870B50023064CDDB255
S31508007080132D08D8ED00665D5B1C8E42F7D1611999
S315080070904B681146984770BD6CED000840F25C11CC
S315080070A04118002006E00A6812B998228A581AB1CF
S315080070B0091D401C2528F6D9C0B270471C3000218E
S315080070C005E002680AB942691AB1001D491C25295A
S315080070D0F7D9C8B270470000B0B5134D284606F078
S315080070E087FF124800242146224642F2000306F092
S315080070F0B4FCED35284606F07BFF0720214606F04E
S315080071002FFD02250D21284607F012F942F200004C
S3150800711021462A4606F0FAFB42F20000B0BC02BC41
S315080071208E4606F023BCC04613050000000800483A
S31508007130F8B504466D466970080A28705E4940F23B
S31508007140E830884741220127204629463B46FCF776
S315080071503CFC064640F2E830574988473D43422200
S31508007160204629463B46FCF730FC044640F2E83008
S31508007170514988473440204601B0F0BDC748202110
S31508007180012206F05DBCC04670B50C01144D2C19E1
S31508007190A45C07252540E408AA2B10D0552B1DD141
S315080071A001231E4696408900425832434250E8B2AF
S315080071B08340E0B20B490818017D19430DE001230D
S315080071C01E46964089004258B2434250E8B2834070
S315080071D0E0B204490818017D9943017570BDC0469F
S315080071E036060020000000201CB501AC207040F2D5
S315080071F0E83000F01DF90020402201232146FCF763
S31508007200E4FB044640F2E83000F012F9204602B0EA
S3150800721010BD0000274808307047C0460148343082
S315080072207047C046F00400200148808940BA70477C
S31508007230B0050020E5482021002206F001BCC04622
S31508007240FEB50026029601A8067005F083FE02AA7E
S3150800725040F6000040F2E8313346FFF78FFE154945
S3150800726023E04C19E07805281ED340F2E83012498D
S315080072708847009601AE70220127284631463B46CC
S31508007280FCF7A3FB40F2E8300B49884771222846F1
S315080072903146009E3B46FCF798FB40F2E83006492B
S315080072A0884704490020E070761CF5B20298A84287
S315080072B0D7DCFEBDC00000203174000805F052BFBF
S315080072C07CB501A8C0260670002400946A4640F6DC
S315080072D0000040F2E8312346FFF750FE11E040F285
S315080072E0E83000F0A5F8012383F3108830462A30E9
S315080072F0C2B201A92846FCF768FB002080F3108873
S31508007300641CE5B20098A842E9DC012002B070BD11
S31508007310F8B5394F384606F06BFE0920C006002539
S315080073200226012429463246234606F096FBEF3705
S31508007330384606F05DFE0520294606F011FC28466B
S31508007340294606F0F5FF20462946324606F0DEFABB
S315080073502046F8BC02BC8E4606F008BBB0B5264DE2
S31508007360284606F045FE0920C00600242146224686
S3150800737041F2000306F071FBEF35284606F038FEA9
S315080073800720214606F0ECFB0C21204606F0D0FF2C
S31508007390022241F20000214606F0B8FA41F2000046
S315080073A0B0BC02BC8E4606F0E1BAC04670B5124EB5
S315080073B0304606F01DFE0920C0060025022429468F
S315080073C02A46234606F049FBEF36304606F010FEFD
S315080073D00520294606F0C4FB0121284606F0A8FF29
S315080073E020462946224606F091FA204670BC02BC81
S315080073F08E4606F0BBBAC04611050000B0B50A4C69
S315080074000A4A002540F6000021462B4602F04EFCAB
S31508007410611C40F600002A462B46039CA646B0BCD3
S3150800742001B002F043BCC046D20700003075000028
S3150800743005214143044803E00278521C0270491EA4
S315080074400029F9D17047C0460A14002070B5124EBB
S31508007450304606F0CDFD5D480025042429462A4617
S31508007460234606F0FAFAEE36304606F0C1FD062047
S31508007470294606F075FB01200226314606F058FF1C
S3150800748020462946324606F041FA204670BC02BC20
S315080074908E4606F06BBAC046120500000004004886
S315080074A0704710B5002007210124224603F08EFDFF
S315080074B0204603F0DDFD022003F07EFD0028FAD009
S315080074C0022003F073FD10BC01BC864603F0CABD5A
S315080074D07CB501A800210180FFF7E3FF01091B4ED7
S315080074E0A52902D301A920481AE01949884202D3DE
S315080074F001A91C4814E0B1B2884202D901A918486A
S315080075000EE01449884203D301A941F6407007E00A
S315080075101149884202D301A9104801E001A9E848A7
S31508007520088081B20420002401AD22462B46FCF7D0
S3150800753053FC28886421B0FBF1F20C480280BC3663
S31508007540B0B20B49234602F0B1FB7CBD44070000EC
S31508007550C7080000DB050000BC0400002823000063
S31508007560581B000070170000881300005A170020E7
S31508007570F40700000920C006012106F068BA0920B0
S31508007580C00641F2000106F062BA0920C0060221CF
S3150800759006F05DBACC48042106F059BA80B5C6484B
S315080075A042F2000106F053FA0021091A484180BD4B
S315080075B080B50920C006102106F049FA0021091AEB
S315080075C0484180BDC048012106F041BA0004004880
S315080075D0F0B589B0012668460024046044608460DA
S315080075E0C660B448871CB448B44D44F200013A4614
S315080075F007973346A847B248B24DA847684604607D
S3150800760044608460C660AC4848F200013A46334696
S31508007610AA4FB847AA48A8476846046044608460E9
S31508007620C460A44D6A1C0892A74840F2002133465C
S31508007630B847A348A34988476846022106910460CB
S3150800764041608460C4600920C706384605973146FC
S315080076502A462346994DA8476846046044608460D4
S31508007660C460202538462946924A3346934FB84780
S315080076706846046044608460C46093482946089D4F
S315080076802A4633468D4FB84768460460446084608E
S31508007690C4608D4840F200112A462F463346874D6E
S315080076A0A8476846046044608460C460824842F221
S315080076B00001079A2346A847684604604460846028
S315080076C0C4601021049105987A4A2346A84768465B
S315080076D003210791046044608160C6607A4841F2DC
S315080076E000013A463D463346744FB847684604603B
S315080076F0446007998160C660734842F200012A46D1
S3150800770033466E4FB84768460460446007998160FF
S31508007710C6606D4844F200012F462A463346674D37
S31508007720A84768460460446007998160C660664851
S3150800773048F200013A463346604DA8476846046059
S315080077404460079D8560C6605F4840F200413A463E
S3150800775033465A4FB84768460460001D70C05A48F9
S3150800776040F60001089A3346544FB8476846046005
S3150800777044608460C4608021059F38464D4A2B4684
S315080077804E4DA8476846046044608460C460384625
S3150800779041F20001474A2346484DA8476846046017
S315080077A044608460C460384640F60001414A334666
S315080077B0A84768460460069941608460C460424DE3
S315080077C028463146089F3A4623463C4DA847684610
S315080077D0046044608460C4603B4804993A46334672
S315080077E0364FB8476846046044608460C4604021E8
S315080077F0059D28462F4A3346B847684604604460C4
S315080078008460C46004213048089A23462B4FB84741
S315080078106846046044608460C46028460699254A20
S315080078202346B8476846046044608460C4600821FB
S315080078302548089A3346214FB8476846046044608D
S315080078408460C660284640F200111A4F3A4633460D
S315080078501A4FB8476846046044608460C660284684
S315080078602F4640F20021FE4A3346FF4DA847684698
S31508007870046044608460C660384640F20041F84AB5
S315080078803346A8476846046044608460C460F54887
S31508007890069D2946089A3346F34EB047684630C0D7
S315080078A004604460384648F20001ED4A2346B04772
S315080078B009B0F0BD1105000000080048CD780008A1
S315080078C010270000317400080004004870B51E46F1
S315080078D00C460546104606F08BFB059A28463146A7
S315080078E0234606F0BAF8012E0ED1079E069A049989
S315080078F02846234606F0CFF828462146324670BC6D
S3150800790008BC9E4606F09CB870BD0000F0B58DB068
S31508007910012668460024046044608460C660EA481C
S31508007920421C0C92FB48D04D40F200213346A84732
S31508007930CE48CF4988476846046044608460C4607E
S31508007940E148871CCB4848F200013A460897334677
S31508007950A847C94D2846C649884768460460446012
S315080079608460C660C34844F200013A463346099625
S31508007970BD4FB8472846BE498847684602210A913E
S31508007980046041608460C4600920C70638460B97C6
S315080079903146CD4A2346B44DA8476846046044603C
S315080079A08460C460202538462946C74A3346AE4F08
S315080079B0B8476846046044608460C460D54F38465A
S315080079C029460C9D2A463346A74EB04768460460AA
S315080079D044608460C460384640F200112A46234653
S315080079E0B0476846046044608460C460A14842F2B7
S315080079F00001089A2346B0476846046044608460DC
S31508007A00C460102106910B98AF4A2346B0476846D2
S31508007A1003250460446085600895C460384641F2D1
S31508007A2000010C9F3A46099B8F4EB0476846046092
S31508007A3044608560C460B74842F200013A46099D31
S31508007A402B46894EB04768460460446008998160B1
S31508007A502E46C560AF4844F200013A462B46824D91
S31508007A60A847684604604460089D8560C660A948C2
S31508007A7048F200013A46334637467B4EB0476846D9
S31508007A80046044608560C460A24840F200410C9AD4
S31508007A903B46B0476846046044608560C4609D48BC
S31508007AA040F600010C9A3B463E466F4FB84768467B
S31508007AB0046044608460C460802107910B9F384647
S31508007AC0814A2B46684DA84768460460446084602E
S31508007AD0C460384641F200017B4D2A462346624D72
S31508007AE0A8476846046044608460C460384640F627
S31508007AF00001754A354633465B4EB0476846046012
S31508007B000A9941608460C460824F384629462E46E9
S31508007B100C9D2A462346544FB8476846046044607D
S31508007B208460C4607B4806992A4633464E4DA8476A
S31508007B306846046044608460C460402108910B9FD5
S31508007B403846614A3346A8476846046044608460FC
S31508007B50C460042106916F480C9D2A462346424E6E
S31508007B60B0476846046044608460C46038460A9931
S31508007B70554A2346B0476846046044608460C4603A
S31508007B800821059163482A46099E3346364DA8477B
S31508007B906846046044608460C460384640F2001158
S31508007BA0494D2A463346304DA84768460460446026
S31508007BB08460C460384640F20021434A33462A4D61
S31508007BC0A8476846046044608460C460384640F24A
S31508007BD000413D4A3346244DA84768460460446040
S31508007BE08460C4604B480A9F39460C9A3346A847B6
S31508007BF0684690C0046044600B9F384648F200010E
S31508007C00314A2346A8476846046044608460C460D5
S31508007C1038460699F94A16462346A8476846046030
S31508007C2044608460C4603846059932462346A847AE
S31508007C306846046044608460C460364E30460899DD
S31508007C400C9F3A462346A847684604604460846009
S31508007C50C460304607993A462346A8470DB0F0BD9A
S31508007C601105000000040048CD780008C027090067
S31508007C7031740008000800481027000070B5DF4E70
S31508007C80304606F0B5F90920C00600251024294615
S31508007C902A46234605F0E1FEEF36304606F0A8F9F7
S31508007CA00720294605F05CFF0421284606F040FB1C
S31508007CB001222046294605F029FE204670BC02BC52
S31508007CC08E4605F053BEC04611050000024611480F
S31508007CD0082105F0B5BEC04602460920C00640F296
S31508007CE0001105F0ADBE02460920C00640F200218B
S31508007CF005F0A6BE7047704702460920C00640F246
S31508007D00004105F09DBE000002460248102105F01C
S31508007D1097BEC0460004004802460920C006402116
S31508007D2005F08EBE012080F31088BFF34F8F0348FD
S31508007D3003490160BFF34F8F00BFFDE70CED00E07C
S31508007D400400FA05F8B51949411889B2184A91424A
S31508007D5008D919490122002440F60000234601F0FB
S31508007D60A5FF1FE04821002491260BE09CB2AEB285
S31508007D70371BA21B012A13D0012F11D0A1194908BC
S31508007D801E462C468BB25B000A4AD75A87420B46D8
S31508007D9000D3334687420D4600D825468742E5D1AB
S31508007DA064244C43A0B201B0F0BDC046CAF5FFFF3B
S31508007DB0CC6F0000ACEA0008BB0F00000848094970
S31508007DC04160FF210906084A13688B430321890786
S31508007DD01943116000218160072101607047C04680
S31508007DE010E000E07FBB000020ED00E07CB5002439
S31508007DF001941D4901AA40F600002346FFF7BEF884
S31508007E001A480168624A501A8A180199914215DA85
S31508007E10814213DDFFF7B3FB80B94F4D2846FCF7C7
S31508007E20CFFB012648B9A81DFCF7CAFB28B903F001
S31508007E30E5F910B905F06CF918B13446204602B0D8
S31508007E4070BDFFF7ABFB0028F8D1FFF7B1FB0028A0
S31508007E50F4D10748007807490A7882423446EDD0BB
S31508007E6008700024EAE7C046D20700001C0100207B
S31508007E70E80D00208E080020FEB500250295019524
S31508007E8040F60007314C02AA40F6000021462B4670
S31508007E90FFF774F8FFF7AAFF2D4E3168491C012831
S31508007EA000D0294631602B4B187908B1401E18714D
S31508007EB0B8B22146373101AA002500901F462B4645
S31508007EC0FFF75CF8FFF76AFB397901430198A528A3
S31508007ED003D1080601D1022002901F4F3846FCF74D
S31508007EE06FFB48B9B81DFCF76BFB28B903F086F998
S31508007EF010B905F00DF970B10120164B18707068AD
S31508007F00401C70603168029A91420DD2062901D34D
S31508007F103C2809D2FEBD00200E4B187070600F4930
S31508007F2009780029F6D1EDE735601D4600F064FFB3
S31508007F3028782C3408B9012200E0A52200230098ED
S31508007F40214601F0B3FE00F00BF8C046FD03000021
S31508007F506405002014010020A10F0000C40D0020B4
S31508007F6080B50B48FFF764FA02F0DCFF00F07DFCF1
S31508007F70FFF7CCFC0748FFF75BFA02F083FC0648DC
S31508007F8006F036F80120002105F032FEFEE7C0466D
S31508007F9030750000A08601001C07000010B5174CBC
S31508007FA0204606F025F8F834204606F021F8062083
S31508007FB005F052FE0920C00603210024802322462C
S31508007FC005F04BFD204602F0A1FF0124204621467C
S31508007FD002F07CFF07204104204602F0D3FF20462A
S31508007FE0214602F0AFFF02F0A3FF40F2E830FFF7A8
S31508007FF01FFA10BC01BC864602F058BF11050000E6
S31508008000F8B5002006F014F805F046FF0321CA4328
S315080080101D4883581D4DAC1C1C43845001235C0429
S31508008020865826406F1E15B1002E3D46F8D0855855
S31508008030254228D0164C25680726B5431D432560DA
S315080080400468046004680460046804600468114DE8
S31508008050254005602B2424040568254305608458BB
S315080080601D062543855084585D062C42FBD00268C0
S315080080708A430260016802220A43026001680822F4
S315080080801142FBD0F8BDFEE704100240FEFF0000D7
S3150800809000200240FFFFC077FEE7000010B50C483D
S315080080A0143055210B4A07E00F23DB43C3580468F5
S315080080B0E31808C21830491E0029F5D100200649E0
S315080080C002E000220A50001DDC28FAD110BDC04685
S315080080D020F00008741500205C170020F0B587B062
S315080080E00024069405940494039401943C4E06AA2D
S315080080F03C4D40F6000031462346A8473A4F0698BD
S31508008100F861B11D05AA40F600002346A847059A5E
S3150800811036491531364D40F600002346A8473549FD
S3150800812005980880F969414340F2E83291FBF2F17B
S31508008130F96006F0ADF8311D04AA40F600002346A2
S31508008140284DA8470498F862711D03AA40F6000056
S315080081502346A8470398F968FA6A3A633962786247
S31508008160B862F869049991FBF0F2029231463546F5
S31508008170083140F6000023461D4EB047E91C01AA07
S3150800818040F600002346174DA847184EB11C02AA10
S3150800819040F600002346134DA8470298019941432B
S315080081A0642591FBF5F2029240F60000314623461B
S315080081B00F4EB047F86990FBF5F00A21029A92FB38
S315080081C0F1F14143029140F2E83091FBF0F20748A1
S315080081D0411C40F600002346B04707B0F0BDC04634
S315080081E0F10300007D6F000890020020D40700000C
S315080081F0AD9C000838180020CF480178491C01704A
S315080082004178491C4170C178491CC1708178491C64
S3150800821081700179491C01714179491C4171817943
S31508008220491C8171C179491CC1717047FDF7A6BE09
S315080082307047000070B514460D4606460846FEF718
S31508008240EFF9401E042831D8810001A251188F4643
S3150800825000F008B800F00CB800F013B800F019B830
S3150800826000F01FB8284670BC02BC8E4606F057B808
S315080082700F480121017030462946224601F074FD57
S3150800828070BD30462946224670BC08BC9E46FEF79D
S31508008290F3BE30462946224670BC08BC9E46FEF709
S315080082A0D9BE30462946224601F072FD70BDC04649
S315080082B0D20D00207047FCF72BB900007CB50446A8
S315080082C000200190B24D29780A39052900D985E0A0
S315080082D08A0001A39A18974600F00AB800F01BB85E
S315080082E000F024B800F033B800F048B800F058B8E9
S315080082F0444901AA002340F60000FEF73FFED220BB
S31508008300D22C6BD1EC49087028730B2028708A4848
S31508008310002181717CBD102C60D80120A04038490D
S3150800832008425BD0E44844706C735BE0DF490A7826
S31508008330521C0A70D2B2022A52D3EC7308700D206E
S315080083402870088900022043DB4948807CBDD7494C
S315080083504A78521C4A70D2B2022A45D30A891202B6
S31508008360224340F20413D44EF2526C7448706000F3
S315080083703071707810283FD10E203EE0CE48017942
S31508008380CA48C2888A4206D2AB189C74521CC2805C
S3150800839092B28A4232D30F2129700021C1807CBD56
S315080083A0C24A9178491C9170C9B2022920D39070AB
S315080083B0C14843780079801D0621102B00D0084655
S315080083C0C1B2168928460C30FCF732F92102711819
S315080083D089B2884202D1B848FBF7F4FB0A200CE0C0
S315080083E00C81AC730C2008E00C812C740D2004E081
S315080083F00F20287014817CBD0F2028707CBDC046D4
S31508008400480001002A040000F8B50D46AA4CA172DE
S31508008410218821810021A822204B03E09F5DB842D4
S3150800842004D0491CCEB29642F8D335D071001C4A06
S31508008430515A56280DD84819AE282DD8194840182B
S31508008440002103E0425C6318DA72491C8D42F9D1B7
S3150800845010E0802820D3481940F2501290421BD8C9
S3150800846010484018002103E0425C6318DA72491C80
S315080084708D42F9D126460836EF1CF9B23046FCF78C
S31508008480D7F87119C870020A0A7140F202116754C6
S31508008490E0802046FBF7ACFBF8BDC046B4E8000810
S315080084A05CE9000864060020B0B5C2B0684640F230
S315080084B0061440F20611FAF73AFE7B4D68892989B7
S315080084C088420FD06043084909186C46204640F296
S315080084D00612FAF713FE204600F032F868890121E1
S315080084E08143698142B0B0BDEE0E002070B5C2B0BE
S315080084F0684640F20611FAF71AFE6B4DE888A98815
S31508008500884217D06978A9B901266E70C949002230
