S31508003000D81F0020E130000831870008D584000861
S3150800301000000000000000000000000000000000A2
S31508003020000000000000000000000000258F0008D6
S315080030300000000000000000B587000879A8000815
S31508003040F3300008F3300008F3300008F3300008C6
S31508003050F3300008D95A0008DD5A0008255B000835
S3150800306000000000F3300008F3300008F3300008D1
S31508003070F3300008F3300008F330000800000000C1
S31508003080F3300008F330000800000000F3300008B1
S31508003090F3300008F3300008F3300008F330000876
S315080030A0F3300008F3300008F3300008C5AD000817
S315080030B039AE000800000000000000000000000013
S315080030C0F330000800000000F33000080348854686
S315080030D000F038F80048004759DC0008D81F0020DF
S315080030E00448804704480047FEE7FEE7FEE7FEE798
S315080030F0FEE7FEE7E5A80008CD30000803460B43C7
S315080031009B0703D009E008C9121F08C0042AFAD28F
S3150800311003E00B780370401C491C521EF9D2704715
S31508003120D2B201E00270401C491EFBD27047002251
S31508003130F6E710B513460A4604461946FFF7F0FFA8
S31508003140204610BD064C0125064E05E0E36807CC6F
S315080031502B430C3C98471034B442F7D3FFF7BAFF19
S31508003160D4EF0008F4EF000810B504F0DDFB0549BC
S315080031700C78FE2222400123234300B11A460A7026
S3150800318010BDC0466D110020F0B585B00026049626
S31508003190039640F60004274940F6000032463346B7
S315080031A007F03AF904AA40F6000040F2E83133463F
S315080031B004F040F8A0B20190204C354632E040F2C7
S315080031C0E8303818411D03AA00260198334604F052
S315080031D031F8F0B20399814222DD332179434D4A11
S315080031E0511840000818C17980790002084380B256
S315080031F004F08CFF104989B2884200D30E4880B289
S315080032006421B0FBF1F0E9B2490061184881761CE7
S315080032106D1CE8B20228DCD3A0780028D9D006E0D5
S31508003220029E761C0296F7B20498B842C7DC05B02F
S31508003230F0BDC046BB0F00007440000050000020DF
S31508003240F0B587B000260696059640F6000406AA4D
S3150800325040F6000040F2E831334603F0EBFFA0B237
S3150800326000902C4F35464EE0019640F2E830201883
S31508003270411C05AA00260098334603F0DBFF3046BA
S31508003280059903912646029437E004903322724347
S31508003290BA1849005118CB7B897B0A021A430521C3
S315080032A051434B091C4881421C4900D81946ECB2C7
S315080032B063001B48C15248F2000002431948824283
S315080032C011D11A482E460546025D3846571C2F5519
S315080032D02A193546029EFCB207460A2C0AD312481A
S315080032E0C318998604E01048C21891860F48021937
S315080032F0002111700498401C6D1CC1B2039A8A42C1
S31508003300C3DC019E761CF4B20698A042ACDC07B07A
S31508003310F0BDC046C00500201F71020088130000DA
S3150800332080050020FFFF0000B004002026060020CC
S31508003330F0B5A9B014460E46054609A88021FFF740
S31508003340F6FE00F0BFF83420029000F04BF905F0C5
S315080033503BFC002800D1B0E0304600F043F905F008
S3150800336033FC002800D1A8E0204600F03BF905F020
S315080033702BFC002800D1A0E000F0A4F8352000F0CE
S3150800338031F905F021FC002800D196E00196049554
S31508003390039400201FE0049844540027A74848F2E5
S315080033A000013A46694EB0471E252846A44CA04758
S315080033B00122A24E304644F20001644B9847284643
S315080033C0A047304644F200013A46604B98472846E3
S315080033D0A0470598401C059080B2069000F0E6FAD2
S315080033E000210C4622E007910127944E304644F20C
S315080033F000013A460AF0D0FB1E2528460AF0E6F8F0
S31508003400304648F200010AF0CEFB04460022304658
S3150800341044F200010AF0C0FB28460AF0D7F804B9BE
S315080034202746089C64003C430799491CC8B20728EC
S315080034300894D8D900F0D2FA039D0699A942AAD3CE
S315080034400124E54848F200012246E44B98471E2726
S315080034503846E34EB047F64844F200012246F54B9B
S31508003460984738463C46B0470027F14844F20001E1
S315080034703A46F04B98472046B04700F049F809A865
S31508003480019941700299017085703521C170049BBC
S3150800349004E0195C09AA101801717F1CB8B2A84289
S315080034A0F7D3281DC1B209A800F014FF0899C9B2BC
S315080034B0091A0020401A484102E000F029F80020C5
S315080034C029B0F0BDF8B5EB480126EB4C44F20001F3
S315080034D03246A0471E25E94F2846B847E54848F230
S315080034E000013246A0472846B8470026E14848F278
S315080034F000013246A0472846B847DE4844F2000194
S315080035003246A04728463946F8BC04BC96460847C2
S31508003510F8B5D8480022D84C48F20001A0471E2525
S31508003520D64F2846B8470126D24844F2000132460B
S31508003530A0472846B847CF4848F200013246A04778
S3150800354028463946F8BC04BC9646084799DB000865
S31508003550F0B5A1B014460F46054601AEB01C7E2153
S31508003560FFF7E5FD777034203070002004E06A5CD0
S3150800357001AB59188A70401C81B2A142F7D3A01C2E
S31508003580C1B201A800F0A6FE0646FFF79BFF34204D
S3150800359000F028F805F018FBE8B1384600F022F8E4
S315080035A005F012FBB8B1002707E0287800F01AF8F2
S315080035B005F00AFB78B17F1C6D1CB8B2A042F4D3A3
S315080035C0304600F00FF805F0FFFA012400B904466A
S315080035D0FFF79EFF02E0FFF79BFF0024204621B07D
S315080035E0F0BD0000F8B50026E04C22E0410000914D
S315080035F040B2002801DB002200E00122F64F3846DF
S3150800360048F200010AF0C8FA1E252846A0470122FA
S31508003610384644F200010AF0BFFA2846A0470022BD
S31508003620384644F200010AF0B7FA2846A047761C45
S315080036300098F1B20729D9D9F8BDC0460004004858
S31508003640CDD50008F0B5A9B014460E46054609A81A
S315080036508021FFF76CFD00F0C5F83420029000F0D9
S3150800366059F905F0D5FA002800D1B0E0304600F047
S3150800367051F905F0CDFA002800D1A8E0204600F05F
S3150800368049F905F0C5FA002800D1A0E000F0AAF82B
S31508003690352000F03FF905F0BBFA002800D196E086
S315080036A001960495039400201FE0049844540027CB
S315080036B0EB4842F200013A466F4EB0471E252846AF
S315080036C0AA4CA0470122E64E304641F200016A4B59
S315080036D098472846A047304641F200013A46664BCD
S315080036E098472846A0470598401C059080B2069042
S315080036F000F08AF900210C4622E007910127D84EEE
S31508003700304641F200013A460AF046FA1E25284696
S3150800371009F05CFF304642F200010AF044FA04461A
S315080037200022304641F200010AF036FA284609F02E
S315080037304DFF04B92746089C64003C430799491C79
S31508003740C8B207280894D8D900F074F9039D0699D9
S31508003750A942AAD30124C24842F200012246464B96
S3150800376098471E273846814EB047BD4841F20001AA
S315080037702246414B984738463C46B0470027B8484A
S3150800378041F200013A463C4B98472046B04700F0C4
S3150800379053F809A80199417002990170857035217D
S315080037A0C170049B04E0195C09AA101801717F1CFA
S315080037B0B8B2A842F7D3281DC1B209A800F08AFDFD
S315080037C00899C9B2091A0020401A484102E000F0D7
S315080037D033F8002029B0F0BD0004004899DB000842
S315080037E0CDD50008F8B59E480126234C41F20001C4
S315080037F03246A0471E255D4F2846B847984842F2EC
S3150800380000013246A0472846B8470026944842F2A7
S3150800381000013246A0472846B847914841F20001C0
S315080038203246A04728463946F8BC04BC964608479F
S315080038300004004899DB0008F8B5894800220E4CB8
S3150800384042F20001A0471E25484F2846B8470126E0
S31508003850834841F200013246A0472846B8478048C7
S3150800386042F200013246A04728463946F8BC04BC55
S31508003870964608470004004899DB0008CDD500089D
S31508003880F0B5A1B014460F46054601AEB01C7E2120
S31508003890FFF74DFC777034203070002004E06A5C36
S315080038A001AB59188A70401C81B2A142F7D3A01CFB
S315080038B0C1B201A800F00EFD0646FFF793FF3420BB
S315080038C000F028F805F0A4F9E8B1384600F022F827
S315080038D005F09EF9B8B1002707E0287800F01AF835
S315080038E005F096F978B17F1C6D1CB8B2A042F4D3E6
S315080038F0304600F00FF805F08BF9012400B90446AC
S31508003900FFF79AFF02E0FFF797FF0024204621B051
S31508003910F0BD0000F8B50026144C22E041000091E5
S3150800392040B2002801DB002200E001224C4F384655
S3150800393042F200010AF030F91E252846A047012266
S31508003940384641F200010AF027F92846A047002226
S31508003950384641F200010AF01FF92846A047761CAE
S315080039600098F1B20729D9D9F8BDC046CDD50008C7
S31508003970012805D048B9084611461A46FFF7D8BCAB
S31508003980084611461A46FFF75DBE00207047012813
S3150800399005D048B9084611461A46FFF7D9BD084664
S315080039A011461A46FFF76CBF00207047B0B52C4C7D
S315080039B00025204629462A4648F200030AF0F9F867
S315080039C003222046294648F20003039CA646B0BCBB
S315080039D001B00AF00CB9C04600040048B0B5204C46
S315080039E00121002520462A4648F200030AF0E1F89C
S315080039F003222046294648F20003039CA646B0BC8B
S31508003A0001B00AF0F4B8C046B0B5154C00252046FA
S31508003A1029462A4642F200030AF0CBF8032220463A
S31508003A20294642F20003039CA646B0BC01B00AF040
S31508003A30DEB8C046B0B50A4C0121002520462A4604
S31508003A4042F200030AF0B5F803222046294642F25C
S31508003A500003039CA646B0BC01B00AF0C8B8C0462D
S31508003A6000040048B0B50146854CE089421C052390
S31508003A70B2FBF3F55D43551B228A954206D00D220B
S31508003A805043034B1818FFF739FBE581B0BDC04614
S31508003A9070030020B0B50146794C6389581C0F2283
S31508003AA0B0FBF2F55543451BA289002095420BD081
S31508003AB0C87808B90820C8700D2253430348C018AF
S31508003AC0FFF71CFB65810120B0BDC0468A110020A6
S31508003AD0F0B589B014460291054605A80027077374
S31508003AE00797069705970120019004900397314E92
S31508003AF004AA40F6000031463B4603F09BFB13360A
S31508003B0003AA40F6000031463B4603F093FB012D1D
S31508003B102DD0002D4CD105ADA52028700298A8708F
S31508003B200820E870039904980129014600D00199F4
S31508003B30214A126802B908466870207828716078A8
S31508003B406871A078A871E078E871207928726079A0
S31508003B506872A079A872E079E8722B7B05AA07CA71
S31508003B6005F0F2F82873284600F06EF820E005AD57
S31508003B700820E8700298A87040F2A51028802078DE
S31508003B80287160786871A078A871E078E871207962
S31508003B90287260796872A079A872E079E8722B7B3E
S31508003BA005AA07CA05F0D0F828732846FFF772FF5A
S31508003BB009B0F0BD2A040000140B0020B0B5014678
S31508003BC0144CE088012585432289954209D040F2A4
S31508003BD010125043034A101840F21012FFF78EFADB
S31508003BE0E580B0BD4E120020B0B50146094C62888A
S31508003BF001259543A38800209D420AD040F2101063
S31508003C0042430548801840F21012FFF777FA65809C
S31508003C100120B0BD340000206E140020B0B5014666
S31508003C20B54CE088421C0523B2FBF3F55D43551BF2
S31508003C302289954206D00D22504320181630FFF7E8
S31508003C405DFAE580B0BDC046B0B50146AA4C6388AA
S31508003C50581C1422B0FBF2F55543451BA2880020D8
S31508003C6095420BD0C87808B90820C8700D2253436E
S31508003C700448C018FFF742FA65800120B0BDC04667
S31508003C80900100208E160020FEB5002702970197A6
S31508003C90364C40F60000364E85B2009750E0B8B272
S31508003CA0801E032821D8810001A251188F46C046DC
S31508003CB000F006B800F00FB800F002B800F00BB834
S31508003CC002AA00232846314603F0B4FA68B10298DE
S31508003CD002282DD009E002AA00232846314603F01F
S31508003CE0A9FA10B10298012822D0A18801AA0023B6
S31508003CF0284603F09FFA08B30198552802D121886F
S31508003D0002260BE0618801AA0023284603F092FAEE
S31508003D10A0B1019855280BD12188012600232846F1
S31508003D20324606F079FB009830430090104E05E0C5
S31508003D30218800222846134606F06EFBA41D7F1C28
S31508003D400C2FACD100990936880706D4C80706D1C6
S31508003D50002228463146134605E0022200E00122E9
S31508003D6000232846314606F057FBFEBD8AE80008C0
S31508003D70D3070000F0B553B3059C2688751C9E42F0
S31508003D8000D31D46258005E05B00D6180127FF43B2
S31508003D90F65BD6526D1EABB2002BF5D11080258886
S31508003DA000242046234604E016889B19921CE41C2E
S31508003DB0401C8542F8D11A18B3FBF0F545435D1B44
S31508003DC0A408A54200D81A46B2FBF0F00880F0BD58
S31508003DD0BCB5401E032830D8840001A52C19A74677
S31508003DE000F006B800F00FB800F016B800F01AB8E0
S31508003DF05000134C201818306C4620609000124A68
S31508003E001258032414E050000D4C20186C4620600C
S31508003E1090000C4A12580AE0084A684602600832BE
S31508003E20052405E00548821C6C462260021D022412
S31508003E30084619462346FFF79DFFBCBD60010020D2
S31508003E4010030020D4E8000804E9000880B50AF049
S31508003E505FFC03F039FD18B102480178491C01706E
S31508003E6080BDC04688110020BFB568460021017391
S31508003E70029101910091204D288AE989884212D041
S31508003E800D225043084909186C462046FFF736F9B3
S31508003E90204600F013FA288A401C0521B0FBF1F2EF
S31508003EA04A43801A2882BFBD70030020BFB5684602
S31508003EB0002101730291019100910F4DA88969892A
S31508003EC0884218D06978B1B9012169700D2250432A
S31508003ED00A4909186C462046FFF710F9204609F0EA
S31508003EE01FFA012807D1A889401C0F21B0FBF1F25F
S31508003EF04A43801AA881BFBD900100208A1100207C
S31508003F00FEB50024029402AD40F6000040F2E83106
S31508003F102A46234603F08EF9E34EAA2030702F78FE
S31508003F2001940BE081007118CD68A9B203F05CFA20
S31508003F301DB15520307001200190641CE0B2874203
S31508003F40F0D83521012340F20040019A06F064FAC0
S31508003F50FEBDC046F0B5C1B000200F900E90F54BDF
S31508003F605989491C59810D909B4A0A40D1084B2909
S31508003F7004D39A499870481C588103E09878012818
S31508003F8000D127E1964D29460C310EAF0024954EF7
S31508003F9040F600003A462346B04729460D3140F61A
S31508003FA000000A913A462346B0470E980C902946D7
S31508003FB00E3140F600003A462346B0470E980B905D
S31508003FC040F2E831283140F600003A462346B04729
S31508003FD00FAA40F6000029462346B047D54B0220D3
S31508003FE00F99012902D0597A01290AD10120022103
S31508003FF00B9A5F2A00DB08467B4A0C9D954200DC3B
S315080040000846587000F076F9CA484078012800D06A
S31508004010C7E021A88021FFF78AF80024209440F6FB
S31508004020000085B220AF284640F2E8313A462346DA
S31508004030B0473878019040F2E831123128463A46BE
S315080040402346B0472098069040F2E83113312846B7
S315080040503A462346B04720980590009528460A997F
S315080040603A462346B0473888049010AE304605F0E5
S3150800407091F918A820223146FFF740F8039487E003
S31508004080500018A90C5A40F2E8301018411C20AF0D
S315080040900A92002300983A4603F0CCF80A9B38782F
S315080040A009900698A0426DD80998421E0F2A75D81D
S315080040B00398C0B20C900027089210E0980121A935
S315080040C00C180C98460005F06FF9089A0A9B801997
S315080040D06900405AA9006052601887707F1CFDB2BB
S315080040E00998A842EAD8002125E00791101A0B90F2
S315080040F0002219E09D0121A84619601C8700F05B83
S31508004100F1190C91A100745A761884420BD921AB87
S315080041105B1959188D783080D81983788B700A9B6B
S315080041200C990C808570521CD4B20B98A042E1DC25
S315080041300799491C089AC8B28242D6DC0998841E97
S315080041401CE0980121AA10188900435A049A9D1A5E
S315080041505526F243059FBD42154600D33546069EB1
S315080041609E4200D82A46D3B24018827871480C304D
S315080041700A9D294603F064F92B46641CE1B20998A6
S315080041808842DED80398099940180390029C641C5B
S315080041900294E2B20198904200D971E7FFF7B0FEA7
S315080041A018E040F6000080B20DAA40F2E831234636
S315080041B003F040F803E0002103F016F9641CE0B2AE
S315080041C00D998142F7DC35210022012340F2004097
S315080041D006F022F941B0F0BDF8FF000057020000D2
S315080041E0D3070000357200083F060000F0B585B019
S315080041F004460025049504AE40F6000040F2E83176
S3150800420032462B4603F016F8E84304B920463678BA
S31508004210484F03E089007918C8606D1CE9B28E42E0
S31508004220F8D80020C04304B92046142101E0785488
S31508004230491C1C29FBD1BC7044B3002140F6000080
S3150800424080B20190039100961CE040F2E8302818ED
S315080042500291411C04AA0023019802F0EBFFF878AA
S31508004260039C001B80B2401E0121814089B23E4654
S31508004270049F284603F0B8F802993C190394374678
S31508004280009E491CCDB2AE42DFD808E0002403E008
S31508004290002103F0A9F8641CE0B28642F8D8002091
S315080042A0788105B0F0BDC0460000002002480178BC
S315080042B0491C01707047C046ED1A00204178402914
S315080042C001D0802904D18178021D012004F032BA78
S315080042D07047000010B50023054A05E0DBB20478F4
S315080042E05C40135D491E401C0C06F7D1D8B210BDC0
S315080042F084E90008BCB50024019401AD40F600002D
S3150800430040F2E8312A46234602F094FF2978094804
S3150800431004E0920082180023D360641CE2B2914242
S31508004320F7D8142102E000224254491C1C29FAD16C
S31508004330BCBDC0460000002000F026BAFEB500232A
S315080043400293019340F600042E4901AA40F60000A4
S3150800435002F070FF019800B1FEBDA4B2954902AA09
S315080043600023204602F066FF274D2878401C287057
S31508004370C0B21E2803D80298401C029004E06428A4
S3150800438001D30020287002986978491C0A22B1FBDB
S31508004390F2F35343C91A6970854EB04224DA371AC4
S315080043A01A488742D8DC686840F2E03260B9E868A3
S315080043B0686040F2E03111312A460832002320466F
S315080043C002F038FF40F2E032A868E968424340F25A
S315080043D0E83092FBF0F0814202DA2869C0192861B8
S315080043E06869C01968610298B042B5DD424941184A
S315080043F0074A9042B0DC2869401A2861A869401823
S31508004400A861FEBDBF0F0000F0010020A08C0000CF
S31508004410D0010100F8B50D4600240094032835D0D4
S31508004420022816D001285ED1304D00246C80314E0A
S315080044303268314810182830502854D82F4900239C
S3150800444040F6000005F0E8FF01242C70306868800B
S3150800445049E0264E3078012845D12846283825498E
S3150800446009682A46283291423DDC81423BDB2248D4
S3150800447028181F4B5A1C521B9D4200DC1046022569
S31508004480725F09B28A421DDA891A1DE0174F387819
S31508004490022828D147496A46002440F600002346E8
S315080044A002F0C8FE0099284609F09EF8064610480C
S315080044B0411C284609F098F8C008864213D2002005
S315080044C038700FE00FDD511A64224243B2FBF1F255
S315080044D00A48411C002440F60000234605F09CFFCC
S315080044E008B135700124204601B0F0BD74010020E2
S315080044F02F75000064110020D08AFFFF0704000012
S31508004500FEB52B4F02970025019540F60006294C6B
S3150800451002AA40F6000021462B4602F08BFE0298BE
S31508004520B8420DDA24480189491C018189B20B2950
S3150800453003D3224901220A708271002141810EE0CB
S315080045401D494A89521C4A8192B2332A01D3002254
S315080045508A710D81B84202DD184800210170B0B297
S31508004560173401AA0023214602F064FE40F2E8341B
S3150800457002F08AF9012802D10F48807928B901F09A
S315080045807BFE58B10198A04208D040F2E83005F009
S31508004590C9FF0948002181718160FEBD01F0A6FEB0
S315080045A020B1019810B1002005F0BCFFFEBDC04641
S315080045B030750000D20700007801002009000020AD
S315080045C080B501F067F880BC01BC864601F032B8B8
S315080045D0BCB5002401940E49224695B20B2D14D879
S315080045E006236B43CD5A521C8542F6D1C8188188DA
S315080045F001AA002440F60000234602F01BFE20B163
S315080046000198553800210C1A4441204602B0B0BD25
S315080046108AE80008E0B50020019001F0E5F80128D5
S315080046200CD10D4901AA002340F6000002F002FE53
S315080046300198012804D10948007808B1032000E050
S31508004640022009F011FB09F0C7FD08B1022000E0BD
S31508004650032008F059FF8CBD3D04000044000020EB
S31508004660B0B50146174C608A421C0323B2FBF3F52A
S315080046705D43551BA28A954206D016225043124B1B
S315080046801818FEF73BFD6582B0BDC046B0B586B0CA
S315080046900C4DA88A698A814212D0162250430A49CB
S315080046A009186C462046FEF729FD204600F00EF84C
S315080046B0A88A401C0321B0FBF1F24A43801AA8825B
S315080046C006B0B0BD9001002030050020B0B5418885
S315080046D0144A914207D01448814221D1B0BC01BC8A
S315080046E0864608F009BE002210A3124905E09C5C24
S315080046F00578AD014D19AC54521C082AF7D100783B
S3150800470082008918802208238B52822201238B5229
S315080047100C21414308484058B0BC02BC8E460047AD
S31508004720B0BDC046050F0000010F000051100F056F
S31508004730AAAA21937E06002098EA0008FCB58E4EA8
S315080047400F4B104C14E0009001784E40002109E010
S3150800475077081F403A46624001252E4200D0174688
S31508004760491C3E46CAB2072AF2D90098401C01994C
S315080047704A1E0192804A1142E5D1B0B202B0F0BD9C
S31508004780FF7F000001A0FFFF10B50124204600F0BE
S3150800479039F9204600F080F8204600F00BF800F0C2
S315080047A0EFF800F087F9204610BC02BC8E4600F0F0
S315080047B045B90000F0B587B00190002406946E480C
S315080047C0059001270394029430E040F2004086B237
S315080047D02D2106AA30462B4602F02CFD2E2105AACD
S315080047E030462B4602F026FD012305980699012D31
S315080047F001D11A4616E002465F4B1A40049DABB239
S315080048009A4200D328469A423A4600D3039A0B4660
S31508004810594D2B40A5B2AB4200D82146AB423B4688
S3150800482000D8029B7F1C029303920C460490FDB2AB
S3150800483001988542C9D9A2B2164D00274F4C40F6B9
S31508004840000029463B46A04740F2004086B202983F
S31508004850C3B2312106AA304602F0ECFC069AA91D1D
S3150800486040F600003B46A047691C049882B240F611
S3150800487000003B46A0470398C3B2322105AA30463A
S3150800488002F0D8FC059AE91D40F600003B46A04711
S3150800489007B0F0BDE1070000F0B587B0019000242D
S315080048A006943548059001270394029430E040F2B7
S315080048B0004086B2292106AA30462B4602F0BAFCE9
S315080048C02A2105AA30462B4602F0B4FC0123059896
S315080048D00699012D01D11A4616E00246264B1A40C2
S315080048E0049DABB29A4200D328469A423A4600D370
S315080048F0039A0B46204D2B40A5B2AB4200D8214661
S31508004900AB423B4600D8029B7F1C029303920C469F
S315080049100490FDB201988542C9D9A2B2374D002745
S31508004920164C40F6000029463B46A04740F2004098
S3150800493086B20298C3B22F2106AA304602F07AFC44
S31508004940069AA91D40F600003B46A047691C049834
S3150800495082B240F600003B46A0470398C3B2302116
S3150800496005AA304602F066FC059AE91D40F60000E5
S315080049703B46A04707B0F0BDFFFF000019A400089A
S315080049807FB5002403940294019400941B4D03AA56
S315080049901B4E40F6000029462346B047691C02AA6A
S315080049A040F600002346B047029A039B981AD11A8C
S315080049B0934200DC084682B2291D40F600002346D1
S315080049C005F02AFDA91C01AA40F600002346B047B7
S315080049D0E91C6A4640F600002346B047009A019B48
S315080049E0981AD11A934200DC084682B2691D40F62D
S315080049F00000234605F010FD7FBDC046DF07000016
S31508004A00357200087CB505460026019634460AE04C
S31508004A10761CF3B2262101AA40F2004002F00AFCF5
S31508004A200198001984B2F0B2A842F1D332490023A2
S31508004A3040F60000224605F0EFFC7CBDF0B585B0D7
S31508004A40019000240494012140F6000080B20090F1
S31508004A5025461DE0029140F2EC300392111804AE8F
S31508004A600027009832463B4602F0E4FB36780AE017
S31508004A70203104AA40F20040039B02F0DBFB0498B5
S31508004A8045197F1C641CF9B28E42F1D80299491C5B
S31508004A90CAB201988242DDD9012C06DB95FBF4F2F5
S31508004AA003490023009805F0B7FC05B0F0BDC046E1
S31508004AB0DE070000BCB50024019400940E4D01AA3F
S31508004AC040F600002946234602F0B4FB691D6A46F3
S31508004AD040F60000234602F0ADFB642001994143ED
S31508004AE0009891FBF0F20C3540F600002946234663
S31508004AF005F092FCBCBDC046D1070000F0B58DB0EC
S31508004B001E4C204640F2F411FEF711FB1C48411DCD
S31508004B1040F600070BAA002540F6000005912B4633
S31508004B2002F088FB0CA92020087040F200418EB2E2
S31508004B300DE00AAA01233046294602F07BFB0A98B3
S31508004B406070000A2070A41C6D1C0CA80078C0B206
S31508004B508542EED3BBB20A48811D0BAA00241D4626
S31508004B6018460091234602F065FB0CA90820087038
S31508004B70024F4137E143089114E0C046340700204C
S31508004B80D1070000214620310AAA0123304602F047
S31508004B9051FB0A98010A089AB9543870641CBF1C5C
S31508004BA00CA80078C0B28442ECD30AAA0692002464
S31508004BB0284607956A4923466A4FB84751200A99F5
S31508004BC0694A1154080A502150546548411C284620
S31508004BD00291069F3A462346624DA84763480A99BA
S31508004BE0401A5321604B5854010A522299540A908C
S31508004BF05B4801461831039107983A462346594DB2
S31508004C00A84755200A99584A1154080A542150545D
S31508004C1053490E3107983A462346524DA84757201E
S31508004C200A99514A1154080A562150544C480146CB
S31508004C300F31079D28463A4623464A4FB84759201A
S31508004C400A99494A1154080A5821505444491031BE
S31508004C502846069F3A462346424DA8475B200A99AE
S31508004C60414A1154080A5A2150543D491131079DA9
S31508004C7028463A4623463B4FB8475D200A993A4AA2
S31508004C801154080A5C2150543548811C2846069F51
S31508004C903A462346334DA8475F200A99324A1154AB
S31508004CA0080A5E21505440F2E8310931079D28462A
S31508004CB001913A4623462B4FB84709AA2846039935
S31508004CC02346B847642104910A9890FBF1F00999A4
S31508004CD0414340F2E83091FBF0F06121224B5854F1
S31508004CE0010A602299540A9028460599069D2A4683
S31508004CF023461C4FB84763200A991B4A1154080AD1
S31508004D0062215054079800992A462346154FB847FA
S31508004D1065200A99144A1154080A049950541346EE
S31508004D2040F2E831113107982A461D462346B8470E
S31508004D3067200A992954080A662168540A940C4A75
S31508004D4010785178014390780843D1780143107957
S31508004D50084351790143002920460DD00AE0C04690
S31508004D60D1070000357200083407002060EA000009
S31508004D701400002001200A906921685468202C54E8
S31508004D803248014608310AAD07982A462346304F6D
S31508004D90B8476B200A992F4A1154080A6A215054B9
S31508004DA02A48C11D07982A462346294FB8476D2029
S31508004DB00A99284A1154080A6C21505427210127B8
S31508004DC030462A463B46224EB0476F200A99214A6A
S31508004DD01154080A6E2150541C480146123107988E
S31508004DE02A4623461A4EB04771200A99194A115481
S31508004DF0080A702150540798144906952A4605460C
S31508004E002346134EB0470BAA284602992346B047B5
S31508004E101148417874220F4B995401787522995498
S31508004E20C1787622995481787722995441797822E3
S31508004E30995401797922995408490B9B5918084EB7
S31508004E40721C0292D21AB3420DDC0BE0D1070000A5
S31508004E50357200083407002078110020D08AFFFF39
S31508004E602F75000011460B910A9A4A43049992FB42
S31508004E70F1F17322154EB154090A7222B154C1795F
S31508004E807A22B15480797B2170540A947E20345258
S31508004E900F492631079D2846069A23460D4EB047E8
S31508004EA080200D49094A115202980A9040F2E830CA
S31508004EB0411C0CAE2846009132462346054DA847AC
S31508004EC00A940648007831780AE0C046340700207C
S31508004ED0D107000035720008753000001400002064
S31508004EE0E2B28A4206D23B469340641C0342F7D09C
S31508004EF0501C0A9082200024104E34520A941049FD
S31508004F0023310AAA079D2846234602F093F98520ED
S31508004F100A993154080A842170540BAA284605991F
S31508004F20234602F087F90CA8102101700548C07FB6
S31508004F30A5210291A52811D106E0C0463407002014
S31508004F40D1070000F40000203046AE30024918228E
S31508004F50FEF7D4F802E0C046F40000203046C6301A
S31508004F603821FF273A46FEF7DBF80AAA06920024FC
S31508004F70079D284601992346FD4EB0470A9804998D
S31508004F8090FBF1F0FB49C855FA4F010AFE22B954C5
S31508004F900A9040F2E8310C312846069E32462346EE
S31508004FA02F46F34DA84740F201100A99F14A1154C9
S31508004FB0080A40F200115054384640F2E8313246A9
S31508004FC023463D46EA4FB847E94F40F203100A998F
S31508004FD0E84A1154080A40F202115054284600992A
S31508004FE032462346B84740F205100A99E14A115459
S31508004FF0080A40F20411505440F2E830811C284651
S3150800500032462346B84740F207100A99D94A11543E
S31508005010080A40F20611505440F2E830C11C2846EE
S31508005020324637462346D24EB04740F209100A990F
S31508005030D04A1154080A40F20811505440F2E83098
S31508005040411D28463A462346B04740F20B100A99B6
S31508005050C84A1154080A40F20A11505440F2E8307E
S31508005060811D28463A462346B04740F20D100A9954
S31508005070C04A1154080A40F20C11505440F2E83064
S31508005080C11D28463A462346B04740F20F100A99F2
S31508005090B84A1154080A40F20E11505440F2E83149
S315080050A00B3128463A462346B04740F211100A9972
S315080050B0B04A1154080A40F21011505440F2E8312F
S315080050C0153128463A462346B04740F213100A9946
S315080050D0A84A1154080A40F21211505440F2E83115
S315080050E0283128463A462346B04740F215100A9911
S315080050F0A04A1154080A40F21411505440F2E831FB
S31508005100363128463A462346B04740F217100A99E0
S31508005110984A1154080A40F21611505440F2E831E0
S31508005120293128463A462346B04740F219100A99CB
S31508005130904A1154080A40F21811505440F2E831C6
S31508005140373128463A462346B04740F21B100A999B
S31508005150884A1154080A40F21A11505440F2E831AC
S31508005160223128463A462346B04740F21D100A998E
S31508005170804A1154080A40F21C11505440F2E83192
S31508005180303128463A462346B04740F21F100A995E
S31508005190784A1154080A40F21E11505440F2E83178
S315080051A0233128463A462346B04740F221100A9949
S315080051B0704A1154080A40F22011505440F2E8315E
S315080051C0313128463A462346B04740F223100A9919
S315080051D0684A1154080A40F22211505440F2E83144
S315080051E0263128463A462346B04740F225100A9902
S315080051F0604A1154080A40F22411505440F2E8312A
S31508005200343128463A462346B04740F227100A99D1
S31508005210584A1154080A40F22611505440F2E8310F
S31508005220273128463A462346B04740F229100A99BC
S31508005230FB4A1154080A40F22811505440F2E8314A
S31508005240353128463A462346B04740F22B100A998C
S31508005250F34A1154080A40F22A11505440F2E83130
S315080052602D3128463A462346B04740F22D100A9972
S31508005270EB4A1154080A40F22C11505440F2E83116
S315080052803B3128463A462346B04740F22F100A9942
S31508005290E34A1154080A40F22E11505440F2E831FC
S315080052A02E3128463A462346B04740F231100A992D
S315080052B0DB4A1154080A40F23011505440F2E831E2
S315080052C03C3128463A462346B04740F233100A99FD
S315080052D0D34A1154080A40F23211505440F2E831C8
S315080052E02B3128463A462346B04740F235100A99EC
S315080052F0CB4A1154080A40F23411505440F2E831AE
S31508005300393128463A462346B04740F237100A99BB
S31508005310C34A1154080A40F23611505440F2E83193
S315080053202C3128463A462346BF4EB04740F239103C
S315080053300A99BB4A1154080A40F23811505440F2EF
S31508005340E8313A3128463A462346B74EB04740F246
S315080053503B100A99B24A1154080A40F23A115054BD
S3150800536040F2E8312A3128463A46234604E0C04648
S315080053703572000834070020AB4EB04740F23D10A6
S315080053800A99A74A1154080A40F23C11505440F2AF
S31508005390E831383128463A462346A34EB04740F20C
S315080053A03F100A999E4E3154080A40F23E11705435
S315080053B040F2E8312F3128463A4623469A4FB847F5
S315080053C040F241100A993154080A40F240117054CB
S315080053D040F2E8313D312846069F3A462346924E2A
S315080053E0B04740F243100A998D4A1154080A40F210
S315080053F04211505440F2E831123128463A462346C3
S31508005400894EB04740F245100A99854A1154080A50
S3150800541040F24411505440F2E83113312846069FB1
S315080054203A462346B04740F247100A997C4A115437
S31508005430080A40F2461150547A4E3146243128461D
S315080054403A462346784FB84740F24810744A1454EF
S315080054500A985538411E884140F2491150540A901D
S31508005460253628463146069E32462346B84740F238
S315080054704A106B4A14540A985538411E884140F21E
S315080054804B1150540A902846039932462346B8478A
S3150800549040F24D100A99624A1154080A40F24C111A
S315080054A05054134640F2E8314331284632461F46E7
S315080054B023465D4EB04740F24F100A993954080A00
S315080054C040F24E11785440F2501038180E21574ABF
S315080054D0089E04E053189B5D0370401C491E002972
S315080054E0F8D140F2601038180E21514A04E05318DA
S315080054F09B5D0370401C491E0029F8D140F27010CC
S315080055003E18082713E040F2E830211816310AAA97
S315080055100023284601F08EFE0A98F070010C71707F
S31508005520010E3170000AB070361D7F1E641C002FF4
S31508005530E9D140F2E83144310AAE00242846324621
S3150800554006962346384FB84740F291100A99344FC9
S315080055503954080A40F29011785440F2E83145313E
S31508005560284632462346304EB04740F293100A99F1
S315080055703954080A40F29211785440F2E83146311B
S315080055802846069A2346284EB04740F295100A99AF
S315080055903954080A40F29411785440F2E8311E3121
S315080055A02846069A2346204EB04740F299100A9993
S315080055B03954080E40F29612B854080C40F2971265
S315080055C0B854080A40F2981178540BAA2846059947
S315080055D02346154DA84702995A3140F29C10395472
S315080055E040F29D10395440F29E103C5240F2A010F1
S315080055F00899395040F2AC103C520B98010E40F213
S315080056009A12B954000C40F29B11785440F2AE102D
S3150800561038183021FF22FDF783FD0DB0F0BDC046D6
S3150800562034070020D107000035720008D400002096
S31508005630C6000020B0B502F05DF92D4D90B10024EA
S31508005640EC702879401C2871C0B2042809D30320BD
S3150800565028710F4940F600002246234604F0DCFE76
S315080056606C71B0BDE878401CE870C0B204280CD351
S315080056700320E870687940B905490124002340F6FB
S315080056800000224604F0C8FE6C7100202871B0BDE7
S31508005690ED070000B0B502F022F9154D90B10024CF
S315080056A02C706878401C6870C0B2042809D303209F
S315080056B06870104940F600002246234604F0ACFE06
S315080056C0AC70B0BD2878401C2870C0B204280CD332
S315080056D003202870A87840B906490124002340F61B
S315080056E00000224604F098FEAC7000206870B0BD39
S315080056F078010020EC070000B0B50446084D68782C
S3150800570003F06AFB0248214600F00CF86870B0BD49
S315080057101557000802484FF6007101807047C046C9
S315080057205000002070B50C460546074E304624301A
S3150800573001F020FE042805D88100711800228A6627
S315080057404D654C6270BDC046900200200148642138
S3150800575003F0B2BFAD8D000880B50548C82103F037
S31508005760ABFF0448642180BC04BC964603F0A4BF82
S3150800577001940008893C000810B508486421084CC3
S31508005780A047084840F2E831A047074840F2E83108
S31508005790224610BC08BC9E461047C0463D4300083A
S315080057A0B996000825AC000869A5000880B5092047
S315080057B0C0062021012208F0EFF9024800210170F5
S315080057C080BDC0469001002005494143054803E0D5
S315080057D00278521C0270491C0029F9D17047C0464C
S315080057E0C0E0FFFF95170020FEB500230293284E60
S315080057F031461A3140F6000402AA40F6000001F0CC
S3150800580019FD029810B9234800210170A4B202AA12
S315080058100025204631462B4601F00CFD01271E487F
S315080058200299814201DD3D462FE01A48007860BBA7
S31508005830233602AA0025204631462B4601F0FAFCFB
S315080058400298552821D01548007801281DD007F060
S31508005850DBFCD0B90197002611A70BE0396802AA2C
S31508005860002520462B4601F0E5FC0298552805D070
S315080058703F1D761C042EF1D9019D06E0F0B20428DE
S31508005880044902D1012008700025284603B0F0BD5E
S31508005890D2070000CE1B00203075000089110020B9
S315080058A0C40B0000CA0B0000D30B0000D10B00008C
S315080058B0C80B0000FEB500230293244E31461B3167
S315080058C040F6000402AA40F6000001F0B3FC029874
S315080058D010B91F4800210170A5B202AA0024284663
S315080058E03146234601F0A6FC01261A480299814250
S315080058F001DA344627E01648007820BB01F0DEFCC2
S3150800590008BB1548007801281DD007F07DFCD0B9E2
S315080059100196002711A60BE0316802AA0024284642
S31508005920234601F087FC0298552805D0361D7F1CB2
S31508005930042FF1D9019C06E0F8B20428044902D1E3
S31508005940012008700024204603B0F0BDD2070000ED
S31508005950CF1B00203075000089110020C50B000000
S31508005960CB0B0000CD0B0000CE0B0000C90B0000CE
S31508005970BCB50023019340F60005224C01AA40F667
S315080059800000214601F056FC0198012804D102F0D6
S3150800599049FC012823D00198552820D0A52826D0CF
S315080059A0ADB221462C3901AA0023284601F042FC53
S315080059B015480199814202D1144801210170163413
S315080059C001AA00232846214601F034FC0198012843
S315080059D004D101F0B9FE514801214170BCBDA8B2FD
S315080059E000222146134604F017FD02F0D5FCA8B2A2
S315080059F000222146134604F00FFD48480121017094
S31508005A0002F0CAFC29040000FFFF00006011002014
S31508005A1070B5FFF74FFF42490870012806D10020EC
S31508005A2008F022F914480121017019E0124E307865
S31508005A30012810D10124204602F012FB0F4D2846FA
S31508005A4001F074FE204608F00FF9284601F06EFEB4
S31508005A50002002F005FB00203070012008F004F950
S31508005A6008F0D6FB08B1002000E0012070BC02BC9B
S31508005A708E4607F049BDC046280900208813000055
S31508005A80B0B5CE4C0025204629462A4640F60003E6
S31508005A9008F08FF803222046294640F60003039CA7
S31508005AA0A646B0BC01B008F0A2B8C046B0B5C34C13
S31508005AB00121002520462A4640F6000308F079F819
S31508005AC003222046294640F60003039CA646B0BC9E
S31508005AD001B008F08CB8C04602F008BBB0B50F4D4F
S31508005AE0687898B1E878072812D80D480078012810
S31508005AF00ED101F0FFFE58B90124204602F0B0FA93
S31508005B00204602F0D3FA0520A87001E002F0EEFA6A
S31508005B100420B0BC02BC8E4607F0D4BFA800002003
S31508005B206E11002002F0E2BAF0B587B002920C4678
S31508005B3005460120059080F3108800F09DF8A027FF
S31508005B40384600F019F903F087F800287AD0200AB9
S31508005B5000F012F903F080F8002879D0E0B200F0DE
S31508005B600BF903F079F8002878D000F085F8781C4E
S31508005B70C0B200F001F903F06FF8002874D002985B
S31508005B80401E0190002653E003960495FFF778FF20
S31508005B9000210D461AE00691884E304640F2004133
S31508005BA0059F3A4607F0F8FF304640F6000107F031
S31508005BB0FAFF04460022304640F2004107F0ECFFA7
S31508005BC004B927466D003D430699491CC8B2072803
S31508005BD0E1D9FFF76BFF049805700546451C019847
S31508005BE0039EB04211D10124744F384640F6000195
S31508005BF022463C4FB847714840F200412246B84712
S31508005C0000226E4840F2004110E000246B4F3846EF
S31508005C1040F600012246334FB8470122674840F252
S31508005C200041B847654840F200412246B847761C0D
S31508005C3002988642A8D100F03DF8002080F310882B
S31508005C40012016E000F036F8002080F3108810E0F6
S31508005C5000F030F8002080F310880AE000F02AF8F7
S31508005C60002080F3108804E000F024F8002080F378
S31508005C70108807B0F0BDC04670B5504C0125194EC6
S31508005C80204640F200412A46B047204640F6000129
S31508005C902A46B0470025204640F600012A46B04766
S31508005CA0204640F200412A463346039CA64670BC6D
S31508005CB001B0184770B5414C00220A4E204640F6FE
S31508005CC00001B0470125204640F200412A46B04768
S31508005CD0204640F600012A463346039CA64670BC79
S31508005CE001B0184799DB000870B514460E460546FC
S31508005CF0012080F31088FFF7BFFFA02000F03CF8D2
S31508005D0002F0AAFFF8B1300A00F036F802F0A4FF54
S31508005D10F8B1F0B200F030F802F09EFFF8B10026B4
S31508005D2007E0287800F028F802F096FFE8B1761C1C
S31508005D306D1CB0B2A042F4D3FFF7BCFF002080F37D
S31508005D401088012070BDFFF7B5FF002080F310888A
S31508005D5070BDFFF7AFFF002080F3108870BDFFF716
S31508005D60A9FF002080F3108870BDFFF7A3FF00206D
S31508005D7080F3108870BD000070B500250F4C19E03F
S31508005D80460040B2002801DB002200E0012220463E
S31508005D9040F6000107F000FF0122204640F20041CC
S31508005DA007F0FAFE0022204640F2004107F0F4FE12
S31508005DB06D1C3046E9B20729E2D970BD00040048D7
S31508005DC0FEB50025029557200190009540F600067D
S31508005DD0344902AA344F40F600002B46B8473349E7
S31508005DE001AA40F600002B46B847314CA11C6A466A
S31508005DF040F600002B46B847009870B1B0B20022B2
S31508005E002146134604F008FB2A480178DF220A4097
S31508005E100270072007F078FBFEBD019802998142BF
S31508005E2011DAC91C81421EDC234805704178491CD9
S31508005E304170C9B21E2916D31E214170B0B2002284
S31508005E40214613460DE01C4845700178491C01702F
S31508005E50C9B21E2907D31E210170B0B20122002340
S31508005E60214604F0D9FAB0B202AA0023214601F06D
S31508005E70E1F91248017849B111490A88531C0B8087
S31508005E8010498A4205D30021017002E002980128D0
S31508005E90BAD1062007F038FB0648017820220A43C3
S31508005EA00270FEBDF4070000357200082B040000DE
S31508005EB0AE0F00006D1100203C04002040000020B9
S31508005EC0420000205902000070B50446481E2228E8
S31508005ED000D97BE1810001A251188F4600F044B831
S31508005EE000F04EB800F058B800F05FB800F065B89A
S31508005EF000F073B800F081B800F08FB800F09DB8D4
S31508005F0000F0ABB800F0B9B800F0C0B800F05EB960
S31508005F1000F05CB900F05AB900F058B900F056B96B
S31508005F2000F054B900F052B900F050B900F04EB97B
S31508005F3000F04CB900F0B4B800F048B900F046B922
S31508005F4000F0B8B800F042B900F040B900F03EB928
S31508005F5000F03CB900F03AB900F038B900F025B9BC
S31508005F6000F0B7B800F0BFB805F07CFD002800D1F6
S31508005F70C2E09948036841680320834302228DE002
S31508005F8005F08EFD002800D1C0E0934803684168FB
S31508005F900C208343082281E02001302318408E49D3
S31508005FA00A6849689A4302430DE18B4803684168C9
S31508005FB0C0208343A001C2B270E00020C5438D4EC5
S31508005FC005F0BAFC002800D1A9E0834803684168B7
S31508005FD02940334040F2002260E00020C543844E49
S31508005FE005F0C8FC002800D1A1E07B480368416899
S31508005FF02940334040F6000250E00020C5437B4E5E
S3150800600005F0D6FC002800D199E07348036841687A
S315080060102940334042F2000240E00020C543724E58
S3150800602005F0E4FC002800D191E06B48036841685C
S315080060302940334048F2000230E00020C543694E4B
S3150800604005F04CFD002800D189E0634803684168E3
S31508006050294033400120420420E00020C543604E19
S3150800606005F078FD002800D181E05B4803684168A7
S31508006070294033400120C20410E003200205564996
S315080060800B68496893430440220507E0032082050C
S3150800609051490B68496893430440A2051A4392E0A4
S315080060A04D480268406840F20011884301210C40BF
S315080060B0210283E00020C543484E002C65D046489F
S315080060C00368406830402B4001212140C902002264
S315080060D066E00124E50405F0A7FC3F490CC9AB437B
S315080060E02040C10406E0012001053B4B0CCB8B4345
S315080060F004402105194366E03748026841680320D1
S31508006100002C67D00440824322435CE0324903C92D
S31508006110002C5CD00C239843A2001A4043E72E4972
S3150800612003C974B3304003221440220226E02A49E8
S3150800613003C934B3304003221440A2021EE02649A4
S3150800614003C9F4B1304003221440220316E0224961
S3150800615003C9B4B1304003221440A2030EE01E491D
S3150800616003C974B1304003221440220406E01A49D8
S3150800617003C934B1304003221440A2040243294023
S3150800618021E03040294002461DE007F01FF8124979
S315080061900A68496831402A4001230340D80200238F
S315080061A01A430D4B01431A60596005F0B5FC2043AC
S315080061B009490A68496818B101208004014302E0C8
S315080061C001208004814304480260416070BD0C22AE
S315080061D09043D8E78243F6E778110020FFF7FFFFE0
S315080061E0FFFFF3FFFFFFFCFFFF3FFFFFFFCFFFFFB0
S315080061F0FFF3FFFFFFFCFFFF10B51A4C20780A28B3
S3150800620001D3002020706078322803D304F0A0FD63
S3150800621000206070E0781E2801D30020E070A07886
S31508006220642801D30020A0702079642803D30E487F
S315080062300021017021716079642803D30B4800217D
S3150800624001706171A079642801D30020A071E079FA
S31508006250642805D3064800210170E17105480170DC
S3150800626010BDC04680110020380E00209001002085
S315080062709101002034000020FEB500240294019408
S31508006280174D02AA40F600002946234600F0D2FF21
S315080062901448FEF79DF90746029E134901AA40F6DF
S315080062A00000234600F0C6FF553EA01B704101269C
S315080062B007B93E460640019801280DD140F6000070
S315080062C080B2083502AA2946234600F0B3FF029891
S315080062D05538211A41410E43304603B0F0BDC04639
S315080062E0B80B0000A60F00003D0400001CB50024F2
S315080062F001940A4901AA40F60000234600F09AFFD5
S315080063000748FEF765F901995539621A4A4101218C
S3150800631000B901461140084602B010BDB90B00008D
S31508006320A70F0000B0B50022074B1446E1B20329B7
S3150800633006D889005D58641C01218542F6D100E023
S3150800634011460846B0BDC04684EA0008FEB501906D
S315080063500025029540F2D076711C02AFAA4C40F691
S3150800636000003A462B46A047D3490298C870000A4F
S31508006370887040F6000040F2D0713A462B46A24C8F
S31508006380A0470298CC494871000A0871B11C40F62A
S3150800639000003A462B469C4CA0470E480299401AE4
S315080063A0C54AD071010A917114460290193640F611
S315080063B0000031463A462B46934DA847029860722C
S315080063C0000A2072A21C90210198FDF781FB01208A
S315080063D003B0F0BD60EA0000FEB501900025029505
S315080063E0194902AE884C40F600000F4632462B4645
S315080063F0A047F14C0298E070000AA070B91D40F65B
S31508006400000032462B46804FB847029820710E4846
S31508006410411C40F6000032462B467B4FB84702988F
S31508006420A071000A60710848C11D40F60000324696
S315080064302B46B8470298E071A21C91210198FDF7F6
S3150800644047FB012003B0F0BDDF070000FEB5019051
S3150800645000250295174902AE6B4C40F600000F4620
S3150800646032462B46A047DF4C0298A070B91D40F66D
S31508006470000032462B46644FB8470298E0700D4834
S31508006480411C40F6000032462B465F4FB84702983B
S3150800649020710848C11D40F6000032462B46B84711
S315080064A002986071A21C92210198FDF711FB012048
S315080064B003B0F0BDE1070000FEB500900025029587
S315080064C00195244E02AF504C40F6000031463A463C
S315080064D02B46A047DD4902988870B11D40F600009A
S315080064E03A462B46484CA0470298D849C870711DB1
S315080064F040F600003A462B46434CA0470298D3493B
S3150800650008711548007848710C46144940F6000091
S315080065103A462B463C4FB847163601AA40F60000C5
S3150800652031462B46B84702980199414340F2E83074
S3150800653091FBF0F06072010EA171010CE171010A84
S3150800654021720290A21C93210098FDF7C1FA01203E
S3150800655003B0F0BDD3070000ED1A0020F1030000D8
S31508006560FEB5019000250295524F02AC264E40F624
S315080065700000394622462B46B047B449029888702F
S31508006580791C40F6000022462B461F4EB04702985B
S31508006590F649C8703946163140F6000022462B46A1
S315080065A0194EB0470298F14908713946173140F635
S315080065B00000264622462B46134CA0470298EB4C71
S315080065C0607112480078A071114940F60000324601
S315080065D02B460D4CA0470298E4490872000AC87178
S315080065E01E3740F60000394632462B46064CA04771
S315080065F00298DE4948728A1C94210198FDF768FAC8
S31508006600012003B0F0BDC046357200086D110020A8
S31508006610F9030000F0B595B0019005A84021FCF7F4
S3150800662086FD002504950395224903AA40F6000035
S315080066302B4600F0FFFD0FE004AA012740F20040B8
S3150800664031463B4600F0F6FD700004990A0A05AB90
S315080066501A54384319546D1CEEB20398B042EBDC59
S315080066600022ED4D1EE0029205AA575C0626B1FBF4
S31508006670F6F2344654430C1B2C19E7704C1CB4FB39
S31508006680F6F77743E41B5B1E0CB18B4208D1501C0E
S31508006690E14988708A1C95210198FDF719FA039833
S315080066A0029A521C4300D1B29942DCDB012015B094
S315080066B0F0BDC046D6070000E0030020F0B587B05D
S315080066C0019000260696059604960396029669207A
S315080066D0C0431430C0B20A789623009382423046EB
S315080066E009D18878244A9080C878D08008791081A2
S315080066F048795081012021490870214902AA40F6AB
S315080067000000334600F096FD062002900CE039465C
S31508006710203103AA012340F2004000F08BFD04A8B3
S315080067200399C155761C0298F7B2B842EFDC0026E9
S31508006730D74F1BE004A98B5C0725B2FBF5F12C4665
S315080067404C43141B3C19E370531CB3FBF5F46C4320
S315080067501B1B441E944200D03BB9481CB870BA1C97
S3150800676001980099FDF7B4F90298761CF2B29042A6
S31508006770E0DC012007B0F0BD5A00002052000020DE
S31508006780D707000080B5354A1378E8498B705378E7
S31508006790CB7093780B71D3784B7113798B715379CE
S315080067A0CB7193790B72D2794A728A1C9721FDF7BD
S315080067B08FF9012080BDC046E003002080B5084956
S315080067C00A88DA4B5A804A889A808A88DA80C98881
S315080067D019819A1C9821FDF77BF9012080BDC046D6
S315080067E078110020E0030020F8B50446F64F00258E
S315080067F0BD70009516496E4640F6000032462B4697
S3150800680000F018FD7520F870302038711148009096
S31508006810114940F6000032462B4600F00BFD7D710B
S315080068200E48007800998D4205D20122AA406D1CB7
S315080068300242F8D07D7100207871BA1C9921204651
S31508006840FDF746F9012001B0F0BDC046E00300207F
S31508006850F707000030750000E90300001400002067
S31508006860B0B50022074B1446E1B2032906D88900C1
S315080068705D58641C01218542F6D100E011460846A0
S31508006880B0BDC046B0EA0008BCB50024019440F685
S31508006890A070801DFDF79CFE18B905F0E3F80025E9
S315080068A068B10C4901AA40F60000234600F0C2FC74
S315080068B041F2C02001250199814200DB254640F6B8
S315080068C0A070FDF785FE012100B10D46284602B0ED
S315080068D0B0BDC046DF070000012110280CD30221F5
S315080068E0502809D3030903219022092B04D33032F7
S315080068F0D2B20421904201D2C8B270473030C2B237
S3150800690005200021202A00D308467047FEB50190CD
S3150800691000240294144F02AE40F60000394632466F
S31508006920234600F087FCEB4D02986871010EA970AA
S31508006930010CE970000A2871F91C40F6000032467D
S31508006940234600F077FC02986872010EA971010CC3
S31508006950E971000A2872AA1C50210198FDF7B8F8B7
S31508006960204603B0F0BDC046F1030000E003002056
S31508006970FEB501900024029402AEF84F40F60000DE
S3150800698040F2E83132462346B847F54D0298A870DA
S3150800699040F2E830411C40F6000032462346B8472C
S315080069A00298E87040F2E830811C40F60000324652
S315080069B02346B8470298287140F2E830C11C40F6D1
S315080069C0000032462346B8470298687140F2E8301C
S315080069D0411D40F6000032462346B8470298A87182
S315080069E040F2E830811D40F6000032462346B8479B
S315080069F00298E87140F2E830C11D40F600003246C0
S31508006A002346B84702982872AA1C51210198FDF717
S31508006A105FF8204603B0F0BDE0030020FEB5019004
S31508006A2000240294194F02AE40F600003946324659
S31508006A30234600F0FFFB40F2E831029890FBF1F0A4
S31508006A40F94D6871010EA970010CE970010A2971E6
S31508006A500290791C40F600003246234600F0EAFB15
S31508006A60029840F2E83190FBF1F06872010EA971C4
S31508006A70010CE971010A29720290AA1C5221019897
S31508006A80FDF726F8204603B0F0BDC046F503000022
S31508006A90E0030020FEB5019000240294224F02AEC6
S31508006AA0E04D40F60000394632462346A847DE49FF
S31508006AB0029888703946093140F600003246234666
S31508006AC0A8470298D849C8703946133140F60000DD
S31508006AD032462346A8470298010EF64D2971010C45
S31508006AE06971000AA87139460A3140F60000324633
S31508006AF02346EF4DA8470298EE490872000AC87166
S31508006B003D3740F60000394632462346E84DA84749
S31508006B100298E84948728A1C53210198FCF7D8FF65
S31508006B20204603B0F0BDC046F3030000E003002092
S31508006B30F0B58BB0044600250A9568462821FCF76F
S31508006B40F6FA204E2F4612E0B9190AAA002340F693
S31508006B50000000F06FFB0A98010E6A46515551195C
S31508006B60C870020C4A70000A88702D1D7F1C202DE3
S31508006B70EAD100200125F04E13E06F463F5C1F5412
S31508006B80471C1F2801D0824209D1C0B2B0FBF1F0E0
S31508006B90401CB070B21C57212046FCF799FF6D1CAB
S31508006BA038460721B5FBF1F24A43521EB0FBF1F312
S31508006BB00627FF435F43F319DB1C2028DDD100209D
S31508006BC00BB0F0BDFE030000E0030020FEB5019007
S31508006BD00024029440F2104702AED64D40F600005B
S31508006BE040F2104132462346A847E8490298C87041
S31508006BF0000A887040F210410E3140F60000324615
S31508006C002346CC4DA8470298F5494871000A0871F1
S31508006C10791C40F6000032462346C64DA84702981E
S31508006C20EF4DE871000AA8710F3740F600003946A3
S31508006C3032462346BF4EB04702986872000A287249
S31508006C40AA1C59210198FCF743FF204603B0F0BD62
S31508006C50FEB50190002402941D4F02AEB54D40F6D4
S31508006C600000394632462346A847F3490298C870B9
S31508006C70000A887039460E3140F60000324623462F
S31508006C80AC4DA8470298EC494871000A0871791C6E
S31508006C9040F6000032462346A64DA8470298FD4D09
S31508006CA0E871000AA8710F3740F6000039463246E7
S31508006CB02346A04EB04702986872000A2872AA1C9A
S31508006CC05A210198FCF704FF204603B0F0BDC046E0
S31508006CD00A040000E0030020FEB501900024029497
S31508006CE01D4F02AE934D40F6000039463246234604
S31508006CF0A847F6490298C870000A887039460E31C6
S31508006D0040F60000324623468A4DA8470298EF49C6
S31508006D104871000A0871791C40F60000324623467D
S31508006D20844DA8470298E94DE871000AA8710F3703
S31508006D3040F60000394632462346FC4EB0470298D4
S31508006D406872000A2872AA1C5B210198FCF7C0FE2B
S31508006D50204603B0F0BDC0460E0400003572000898
S31508006D60E0030020FEB50190002402942C4EB11CCD
S31508006D7002AFEE4D40F600003A462346A847F749CB
S31508006D80029888703146103140F600003A4623468C
S31508006D90E64DA8470298F149C870F11C40F6000074
S31508006DA03A462346E14DA8470298EC490871314610
S31508006DB0113140F600003A462346A8470298FB4997
S31508006DC0487140F6000031463A462346A8470298DD
S31508006DD0F649887131460E3140F600003A46234698
S31508006DE0A8470298F149C871711C40F600003A4656
S31508006DF02346A8470298ED4D28720F3640F6000044
S31508006E0031463A462346C94EB04702986872AA1CCC
S31508006E105C210198FCF75CFE204603B0F0BDC04635
S31508006E201304000035720008E0030020FEB5019047
S31508006E30002402941D4F02AEBC4D40F600003946B0
S31508006E4032462346A847FA490298C870000A88704D
S31508006E5039460E3140F6000032462346B34DA84760
S31508006E600298F3494871000A0871791C40F6000037
S31508006E7032462346AD4DA8470298ED4DE871000A03
S31508006E80A8710F3740F60000394632462346A74E0A
S31508006E90B04702986872000A2872AA1C5D210198F8
S31508006EA0FCF716FE204603B0F0BDC0460C040000F1
S31508006EB035720008E0030020FEB501900024029414
S31508006EC01B4F02AE994D40F600003946324623461E
S31508006ED0A847D7490298C870000A887039460E3103
S31508006EE040F6000032462346904DA8470298D049FE
S31508006EF04871000A0871791D40F60000324623469B
S31508006F008A4DA8470298CA4DA871133740F6000063
S31508006F10394632462346854EB0470298E871AA1C80
S31508006F205E210198FCF7D4FD204603B0F0BDC046AB
S31508006F301204000035720008E0030020FEB5019037
S31508006F4000240294104E02AF40F6000031463A463D
S31508006F50234600F06FF9B64D0298E870000AA8704B
S31508006F60711C40F600003A46234600F063F9029881
S31508006F706871000A2871AA1C5F210198FCF7A8FD10
S31508006F80204603B0F0BDC046FA030000E003002027
S31508006F90FEB5019000240294104E02AF40F60000A0
S31508006FA031463A46234600F045F9A14D0298E87065
S31508006FB0000AA870711C40F600003A46234600F005
S31508006FC039F902986871000A2871AA1C602101988B
S31508006FD0FCF77EFD204603B0F0BDC046260400003F
S31508006FE0E0030020F8B5009000200125904E134FCD
S31508006FF010E03C5C1C54441C824209D1C0B2B0FB70
S31508007000F1F0401CB070B21C62210098FCF760FDDC
S315080070106D1C20460721B5FBF1F24A43521EB0FB10
S31508007020F1F30624E4435C433319DB1C0E28E0D154
S31508007030012001B0F0BDC046E0030020D4000020C6
S31508007040F8B5009000200125794E134F10E03C5CFE
S315080070501C54441C824209D1C0B2B0FBF1F0401C5A
S31508007060B070B21C63210098FCF732FD6D1C2046F7
S315080070700721B5FBF1F24A43521EB0FBF1F3062491
S31508007080E4435C433319DB1C0E28E0D1012001B030
S31508007090F0BDC046E0030020C6000020BCB504468B
S315080070A0094901AA002340F6000000F0C3F8604829
S315080070B00125C57001998170821C65212046FCF75F
S315080070C007FD284602B0B0BD2A040000E0030020F0
S315080070D0FEB50190144DA91D02AE0027134C40F6CB
S315080070E0000032463B46A04751490298887040F650
S315080070F00000294632463B460C4CA04702984C49AC
S315080071000871093540F60000294632463B46074CC9
S31508007110A0470298464988718A1C66210198FCF79F
S31508007120D7FC012003B0F0BD2B040000357200081F
S315080071301CB50446084901AA002340F6000000F0E1
S3150800714079F83B4801998170821C67212046FCF733
S31508007150BFFC012002B010BD32040000E00300208D
S31508007160FEB50190104D02AE002740F600002946F4
S3150800717032463B4600F05EF82D4C0298A0704A3520
S3150800718040F60000294632463B4600F053F802987E
S315080071902071000AE070A21C68210198FCF798FC8F
S315080071A0012003B0F0BDC046E9030000E00300205B
S315080071B0F0B58BB0044601AD28212846FBF7B7FF8A
S315080071C0284607F043F8E87FA5282DD1182003E0C4
S315080071D001A900220A54401C2028F9D100200125C3
S315080071E0134E13E001AF3F5C1F54471C1F2801D004
S315080071F0824209D1C0B2B0FBF1F0401CB070B21C9B
S315080072006A212046FCF764FC6D1C38460721B5FB4D
S31508007210F1F24A43521EB0FBF1F30627FF435F43E0
S31508007220F319DB1C2028DDD100200BB0F0BDC046C9
S31508007230E0030020B0B50446002062B340F600051E
S31508007240AC420AD040F20045AC4224D1362922D8B5
S31508007250012B20D1880018491AE00F4BCB18572B61
S3150800726002D89800134913E00C4BCB18272B02D8E9
S3150800727098000F490CE00A4BCB18302B02D898001F
S315080072800A4905E0074BC918232904D88800064986
S31508007290085810600120B0BD18FCFFFF30F8FFFF4A
S315080072A048F4FFFF60F0FFFF5C1A002098170020E3
S315080072B05C180020FC180020F01A00201CB50024D9
S315080072C0019400940F4901AA40F600002346FFF7EF
S315080072D0B1FF0D496A4640F600002346FFF7AAFFAC
S315080072E000F022FB50B90198552807D000F008FB9A
S315080072F028B90098A52801D05A2800D1012420468B
S3150800730002B010BDF60700003404000070B5002373
S31508007310064CDDB2092D08D8ED00665D5B1C8E4271
S31508007320F7D161194B681146984770BDF8EC00080B
S3150800733070B50023064CDDB2132D08D8ED00665D46
S315080073405B1C8E42F7D161194B681146984770BD90
S3150800735078F8000840F25C114118002006E00A6837
S3150800736012B998228A581AB1091D401C2528F6D93F
S31508007370C0B270471C30002105E002680AB94269AC
S315080073801AB1001D491C2529F7D9C8B27047000053
S31508007390B0B5134D284606F0F5FE124800242146DE
S315080073A0224642F2000306F004FCED35284606F0B4
S315080073B0E9FE0720214606F09DFC02250D212846F8
S315080073C007F0B0F842F2000021462A4606F04AFBCA
S315080073D042F20000B0BC02BC8E4606F073BBC04643
S315080073E01305000000080048F8B504466D466970A4
S315080073F0080A28706C4940F2E8308847412201277C
S31508007400204629463B46FCF7C2FA064640F2E830D3
S31508007410654988473D434222204629463B46FCF7B4
S31508007420B6FA044640F2E8305F49884734402046B9
S3150800743001B0F0BDD8482021012206F0ADBBC046F8
S3150800744070B50C01144D2C19A45C07252540E408D9
S31508007450AA2B10D0552B1DD101231E469640890014
S31508007460425832434250E8B28340E0B20B4908180A
S31508007470017D19430DE001231E46964089004258B6
S31508007480B2434250E8B28340E0B204490818017D8D
S315080074909943017570BDC04606070020000000200C
S315080074A01CB501AC207040F2E83000F03FF900202E
S315080074B0402201232146FCF76AFA044640F2E830E6
S315080074C000F034F9204602B010BD00003A480A30F0
S315080074D07047C046014834307047C046B0040020A3
S315080074E0E0B5002301930E4901AA40F60000FFF714
S315080074F0A1FE0C4801462F3103460D33019A012A95
S3150800750000D01946097803462E330C30012A00D0DC
S31508007510034618780002084380B202B080BDC04610
S315080075203E040000C0050020F4482021002206F091
S3150800753033BBC046FEB50026029601A8067005F0C4
S315080075407FFD02AA40F6000040F2E8313346FFF715
S3150800755071FE194923E04C19607905281ED340F2BB
S31508007560E83011498847009601AE7022012728465F
S3150800757031463B46FCF70BFA40F2E8300A498847A1
S31508007580712228463146009E3B46FCF700FA40F237
S31508007590E83005498847084900206071761CF5B22D
S315080075A00298A842D7DCFEBD2D770008024800786D
S315080075B000B1704705F052BE500000207CB501A806
S315080075C0C0260670002400946A4640F6000040F281
S315080075D0E8312346FFF72EFE11E040F2E83000F0CE
S315080075E0A5F8012383F3108830462A30C2B201A9D0
S315080075F02846FCF7CCF9002080F31088641CE5B215
S315080076000098A842E9DC012002B070BDF8B5394FF0
S31508007610384606F0B7FD0920C006002502260124D3
S3150800762029463246234606F0C4FAEF37384606F0AE
S31508007630A9FD0520294606F05DFB2846294606F0E1
S3150800764071FF20462946324606F00CFA2046F8BC59
S3150800765002BC8E4606F036BAB0B5264D284606F068
S3150800766091FD0920C00600242146224641F2000366
S3150800767006F09FFAEF35284606F084FD07202146D6
S3150800768006F038FB0C21204606F04CFF022241F298
S315080076900000214606F0E6F941F20000B0BC02BC43
S315080076A08E4606F00FBAC04670B5124E304606F042
S315080076B069FD0920C0060025022429462A462346D4
S315080076C006F077FAEF36304606F05CFD05202946C7
S315080076D006F010FB0121284606F024FF204629461D
S315080076E0224606F0BFF9204670BC02BC8E4606F05C
S315080076F0E9B9C04611050000B0B50A4C0A4A00258A
S3150800770040F6000021462B4602F086FE611C40F634
S3150800771000002A462B46039CA646B0BC01B002F0E0
S315080077207BBEC046D20700003075000005214143E4
S31508007730044803E00278521C0270491E0029F9D158
S315080077407047C0469317002070B5124E304606F0B3
S3150800775019FD77480025042429462A46234606F0BB
S3150800776028FAEE36304606F00DFD0620294606F0C4
S31508007770C1FA01200226314606F0D4FE20462946E3
S31508007780324606F06FF9204670BC02BC8E4606F0FB
S3150800779099B9C0461205000000040048704710B5A4
S315080077A0002007210124224604F062F8204604F04E
S315080077B0B1F8022004F052F80028FAD0022004F0AA
S315080077C047F810BC01BC864604F09EB8FEB502A870
S315080077D000220280019240F6000640F6000040F6BC
S315080077E0B071134602F018FEFFF7D9FF0109A52963
S315080077F002D302A8304C20E02749884202D302A8C7
S315080078002C4C1AE040F60001BC3989B2884202D9EC
S3150800781002A8274C11E02149884203D302A841F661
S3150800782040740AE01E49884202D302A81F4C04E0AD
S315080078301C4C1D49884222D302A80480A1B2042008
S31508007840002502AC2A462346FCF7C2FA20886421A2
S31508007850B0FBF1F0194F3880B4B201AA204640F6C1
S31508007860B0712B46FFF7E6FC1549019808B1154A91
S3150800787000E03A880023204602F0CEFDFEBD02A9AC
S315080078800C809528DAD8B0B20122002340F6B071F0
S3150800789002F0C2FDD2E7C046C7080000DB050000BB
S315080078A0BC04000010270000BB03000028230000CA
S315080078B0581B00007017000088130000EE1A0020FD
S315080078C0F4070000FFFF00000920C006012106F0AA
S315080078D06AB90920C00641F2000106F064B9092018
S315080078E0C006022106F05FB90920C00648F2000169
S315080078F006F059B9D048042106F055B900040048E5
S3150800790080B5C94842F2000106F04DF90021091A6E
S31508007910484180BD80B50920C006102106F043F90C
S315080079200021091A484180BDC348012106F03BB928
S3150800793000040048F0B589B00126684600240460B2
S3150800794044608460C660B748871CB748B74D44F2A0
S3150800795000013A4606973346A847B548B54DA847A5
S315080079606846046044608460C660AF4848F2000117
S315080079703A463346AD4FB847AD48A847684604600F
S3150800798044608460C460A74D6A1C0892AA4840F205
S3150800799000213346B847A648A649884768460221C3
S315080079A00591046041608460C4600920C7063846B2
S315080079B0079731462A4623469C4DA84768460460E1
S315080079C044608460C460202538462946954A334673
S315080079D0964FB8476846046044608460C460964819
S315080079E02946089D2A463346B847684604604460D7
S315080079F08460C460904840F200112A462F463346F8
S31508007A008A4DA8476846046044608460C460864816
S31508007A1042F20001069A2346A84768460460446075
S31508007A208460C4601021049107987E4A2346A847BB
S31508007A30684603210691046044608160C6607E48FA
S31508007A4041F200013D463A463346784FB847684604
S31508007A500460446006998160C660774842F2000176
S31508007A602F462A463346714DA84768460460446047
S31508007A70069D8560C660704844F200013A46334662
S31508007A806A4FB84768460460001D70C06A4848F2E5
S31508007A900001089D2A463346644FB8476846046085
S31508007AA0446006998160C660634840F200412F46EB
S31508007AB02A4633465D4DA847684604604460069DDD
S31508007AC08560C6605C4840F600013A463346574F23
S31508007AD0B8476846046044608460C4608021079F94
S31508007AE03846504A2B46514DA847684604604460BC
S31508007AF08460C460384641F200014A4A23464B4D29
S31508007B00A8476846046044608460C460384640F606
S31508007B100001444A3346A84768460460059941600F
S31508007B208460C460444D28463146089F3A46234639
S31508007B303E4DA8476846046044608460C4603E4879
S31508007B4004993A463346394FB84768460460446054
S31508007B508460C4604021079D2846324A3346B847A8
S31508007B606846046044608460C46004213248089A08
S31508007B7023462E4FB8476846046044608460C46054
S31508007B8028460599274A2346B8473D46684604606D
S31508007B9044608460C46008212748089A3346B84779
S31508007BA06846046044608460C660079F384640F2B1
S31508007BB000111C4A3346A84768460460446084603E
S31508007BC0C660384640F20021164A3346A84768463A
S31508007BD0046044608460C660384640F20041114A39
S31508007BE03346A8476846046044608460C460124807
S31508007BF005990D46089A33460C4EB047384629462D
S31508007C002A4648F2000305F0D4FF684630C00460EF
S31508007C104460384648F20001F64A2346F64CA04727
S31508007C2009B0F0BD11050000000800483D7C0008B9
S31508007C30102700002D7700080004004870B51E467E
S31508007C400C460546104606F09DFA059A2846314622
S31508007C50234605F0AEFF012E0ED1079E069A04991B
S31508007C602846234605F0C3FF28462146324670BCFF
S31508007C7008BC9E4605F090BF70BD0000F0B58DB0FB
S31508007C80012568460024046044608460C560F34F9B
S31508007C907A1C0C92F548D84E40F200212B46B04784
S31508007CA0D648D74988476846046044608460C460FB
S31508007CB0BF1CD44848F200013A4608972B46B047FD
S31508007CC0D14E3046CE498847684604604460846091
S31508007CD0C560CC4844F200013A462B460B95C64F80
S31508007CE0B8473046C6498847684602210A91046063
S31508007CF041608460C4600920C7063846099729464A
S31508007D00D64A2346BC4EB047684604604460846041
S31508007D10C460202638463146D04A2B46B64FB84767
S31508007D206846046044608460C460EF4F3846314654
S31508007D300C9E32462B46B04FB847684604604460EE
S31508007D408460C460E84840F20011324637462B4644
S31508007D50A94EB0476846046044608460C460A94878
S31508007D6042F20001089A2346B04768460460446018
S31508007D708460C460102106910998B84A2346B04722
S31508007D80684603210791046044608160C460D64850
S31508007D9041F200013A463D460B9E3346964FB84798
S31508007DA068460460446007998160C460CE4842F220
S31508007DB000012A46354633468F4FB8476846046061
S31508007DC04460079E8660C560C74844F200010C9F60
S31508007DD03A462B46884DA847684604604460866044
S31508007DE00B9BC360C04848F200013A46824DA8473B
S31508007DF06846046044608660C460BB4840F200413F
S31508007E003A460B9D2B467C4FB8476846046044604B
S31508007E108660C460B44840F600010C9A2B46764F3B
S31508007E20B8476846046044608460C460802108914D
S31508007E30099F3846894A33466F4EB04768460460FC
S31508007E4044608460C460384641F20001834A234690
S31508007E50694EB0476846046044608460C46038462A
S31508007E6040F600017D4A2B46B047684604600A99E9
S31508007E7041608460C4609C4E304629460C9F3A4651
S31508007E8023465D4EB0476846046044608460C4601B
S31508007E90954806993A462B46574FB84768460460B0
S31508007EA044608460C46040210791099E30466B4A4D
S31508007EB02B46B8476846046044608460C460042161
S31508007EC0069189480C9D2A462346B84768460460A9
S31508007ED044608460C460304637460A995F4A234640
S31508007EE0454EB0476846046044608460C460082113
S31508007EF005917D482A460B9D2B46B0476846046087
S31508007F0044608460C460384640F20011534A2B46E8
S31508007F10B0476846046044608460C460384640F2EE
S31508007F2000214E4A2B46344EB047684604604460EA
S31508007F308460C460384640F20041484A2B462E4EBB
S31508007F40B0476846046044608460C46066480A9E18
S31508007F5031460C9A2B46284DA847684650C00460FF
S31508007F604460384648F200013C4D2A462346224DD5
S31508007F70A847684650C00460446038460699374AA0
S31508007F8023461D4DA847684650C0046044603846DD
S31508007F900599324A2346184DA847684650C00460DA
S31508007FA04460514F384607990C9D2A462346124F7E
S31508007FB0B847684650C0046044604B4808992A464A
S31508007FC02346B847684650C0046044602348451DA8
S31508007FD00E4807992A462346074FB847684650C0B1
S31508007FE004604460094808992A462346024CA0477B
S31508007FF00DB0F0BD110500003D7C0008C027090042
S315080080002D770008000800481027000000140048D3
S3150800801070B5124E304606F0B5F80920C0060025A0
S31508008020102429462A46234605F0C3FDEF36304676
S3150800803006F0A8F80720294605F05CFE0421284624
S3150800804006F070FA01222046294605F00BFD204667
S3150800805070BC02BC8E4605F035BDC0461105000051
S3150800806002462148082105F097BDC046000400488D
S3150800807002460920C00640F2001105F08DBD0246F1
S315080080800920C00640F2002105F086BD70477047FA
S3150800809002460920C00640F2004105F07DBD0000F9
S315080080A002461148102105F077BDC0460246092050
S315080080B0C006402105F070BDE0B5002301930949CB
S315080080C001AA40F60000FFF7B5F80748019901290B
S315080080D002D10221002201E00221012205F05CFD05
S315080080E08CBDC0463F04000000040048012080F310
S315080080F01088BFF34F8F034803490160BFF34F8FC2
S3150800810000BFFDE70CED00E00400FA05F8B51949D3
S31508008110411889B2184A914208D9194901220024FE
S3150800812040F60000234602F077F91FE048210024B4
S3150800813091260BE09CB2AEB2371BA21B012A13D0C4
S31508008140012F11D0A11949081E462C468BB25B0097
S315080081500A4AD75A87420B4600D3334687420D460A
S3150800816000D825468742E5D164244C43A0B201B025
S31508008170F0BDC046CAF5FFFFCC6F0000BAEB000899
S31508008180BB0F0000084809494160FF210906084A53
S3150800819013688B4303218907194311600021816005
S315080081A0072101607047C04610E000E07FBB000071
S315080081B020ED00E00146134806F01EBA80B50320FC
S315080081C0FDF702FB0920C0062021012205F0E4FC88
S315080081D00C48072180BC04BC964606F034BAC04653
S315080081E080B50920C0062021002205F0D5FC032011
S315080081F0FDF7EAFA0348072180BC04BC964606F058
S315080082002BBAC046003801400146054806F0F4B9C5
S315080082100348072106F017BA0148072106F01CBAD9
S31508008220004400407CB5002401941D4901AA40F68B
S3150800823000002346FEF7FEFF1A480168634A501AF3
S315080082408A180199914215DA814213DDFFF741FB3D
S3150800825080B94F4D2846FCF7BBF9012648B9A81D39
S31508008260FCF7B6F928B903F01BFC10B904F0CCFFEB
S3150800827018B13446204602B070BDFFF741FB00280E
S31508008280F8D1FFF747FB0028F4D1074800780749DB
S315080082900A7882423446EDD008700024EAE7C046E0
S315080082A0D2070000B000002088110020020A002032
S315080082B0FEB500250295019540F60007314C02AA45
S315080082C040F6000021462B46FEF7B4FFFFF7AAFF4B
S315080082D02D4E3168491C012800D0294631602B4BA8
S315080082E0187908B1401E1871B8B22146373101AA6B
S315080082F0002500901F462B46FEF79CFFFFF700FB64
S31508008300397901430198A52803D1080601D102202D
S3150800831002901F4F3846FCF75BF948B9B81DFCF7C1
S3150800832057F928B903F0BCFB10B904F06DFF70B11A
S315080083300120164B18707068401C70603168029AEC
S3150800834091420DD2062901D33C2809D2FEBD002050
S315080083500E4B187070600F4909780029F6D1EDE7C1
S3150800836035601D4601F036F828782C3408B9012204
S3150800837000E0A52200230098214602F04DF800F0FF
S315080083800BF8C046FD03000024050020A8000020C5
S31508008390A10F00006011002080B50C48FFF7C6F950
S315080083A003F012FA00F0E7FCFFF768FCFFF784FE1B
S315080083B00748FFF7BBF902F009FF064805F0E2FE99
S315080083C00120002105F0DEFCFEE7C04630750000FE
S315080083D0A08601001C07000010B5174C204605F0C2
S315080083E0D1FEF834204605F0CDFE062005F0FEFC49
S315080083F00920C006032100248023224605F0D9FB64
S31508008400204603F0D5F901242046214603F0B0F9A9
S3150800841007204104204603F007FA2046214603F0C8
S31508008420E3F903F0D7F940F2E830FFF77FF910BC1B
S3150800843001BC864603F08CB911050000F8B500208A
S3150800844005F0C0FE05F0F2FD0321CA431D48835816
S315080084501D4DAC1C1C43845001235C0486582640E1
S315080084606F1E15B1002E3D46F8D08558254228D0F6
S31508008470164C25680726B5431D4325600468046025
S3150800848004680460046804600468114D25400560AA
S315080084902B24240405682543056084581D062543B6
S315080084A0855084585D062C42FBD002688A430260D8
S315080084B0016802220A430260016808221142FBD0C1
S315080084C0F8BDFEE704100240FEFF0000002002404F
S315080084D0FFFFC077FEE7000010B50C48143058219E
S315080084E00B4A08E00F23DB43C358048824B21B1940
S315080084F008C21830491E0029F4D10020054902E0B7
S3150800850000220A50001DDC28FAD110BD20F0000810
