S3150800300000200020E1300008FD88000865860008D9
S3150800301000000000000000000000000000000000A2
S31508003020000000000000000000000000F990000801
S3150800303000000000000000008189000845AC000877
S31508003040F3300008F3300008F3300008F3300008C6
S31508003050F3300008B15B0008B55B0008FD5B0008AB
S3150800306000000000F3300008F3300008F3300008D1
S31508003070F3300008F3300008F330000800000000C1
S31508003080F3300008F330000800000000F3300008B1
S31508003090F3300008F3300008F3300008F330000876
S315080030A0F3300008F3300008F330000889B100084F
S315080030B0FDB100080000000000000000000000004C
S315080030C0F330000800000000F33000080348854686
S315080030D000F038F80048004765D5000800200020B1
S315080030E00448804704480047FEE7FEE7FEE7FEE798
S315080030F0FEE7FEE7B1AC0008CD30000803460B43F7
S315080031009B0703D009E008C9121F08C0042AFAD28F
S3150800311003E00B780370401C491C521EF9D2704715
S31508003120D2B201E00270401C491EFBD27047002251
S31508003130F6E710B513460A4604461946FFF7F0FFA8
S31508003140204610BD064C0125064E05E0E36807CC6F
S315080031502B430C3C98471034B442F7D3FFF7BAFF19
S3150800316018ED000838ED000830B58C180278401CB8
S3150800317013071B0F01D10378401C120906D10278E8
S31508003180401C03E005780D70401C491C5B1EF9D1F4
S3150800319001E00B70491C521EFBD1A142E6D3002068
S315080031A030BD000010B504F08BFC05490C78FE22F2
S315080031B022400123234300B11A460A7010BDC046B7
S315080031C045110020F0B585B000260496039640F612
S315080031D00004274940F600003246334607F002FB52
S315080031E004AA40F6000040F2E831334604F0E0F85D
S315080031F0A0B20190204C354632E040F2E83038184B
S31508003200411D03AA00260198334604F0D1F8F0B20E
S315080032100399814222DD332179434D4A51184000F2
S315080032200818C17980790002084380B205F034F89D
S31508003230104989B2884200D30E4880B26421B0FB97
S31508003240F1F0E9B2490061184881761C6D1CE8B2B4
S315080032500228DCD3A0780028D9D006E0029E761C86
S315080032600296F7B20498B842C7DC05B0F0BDC0466E
S31508003270BB0F00007440000050000020F0B587B076
S3150800328000260696059640F6000406AA40F60000B3
S3150800329040F2E831334604F08BF8A0B200902C4F88
S315080032A035464EE0019640F2E8302018411C05AA42
S315080032B000260098334604F07BF8304605990391BA
S315080032C02646029437E0049033227243BA1849001E
S315080032D05118CB7B897B0A021A43052151434B09B6
S315080032E01C4881421C4900D81946ECB263001B48A9
S315080032F0C15248F2000002431948824211D11A48C5
S315080033002E460546025D3846571C2F552A1935465E
S31508003310029EFCB207460A2C0AD31248C31899869D
S3150800332004E01048C21891860F480219002111704E
S315080033300498401C6D1CC1B2039A8A42C3DC019EE4
S31508003340761CF4B20698A042ACDC07B0F0BDC046C5
S31508003350C00600201F7102008813000080060020A6
S31508003360FFFF0000B005002026070020F0B5A9B031
S3150800337014460E46054609A88021FFF7D8FE00F038
S31508003380BFF83420029000F04BF905F007FD00283D
S3150800339000D1B0E0304600F043F905F0FFFC002804
S315080033A000D1A8E0204600F03BF905F0F7FC00281C
S315080033B000D1A0E000F0A4F8352000F031F905F0BE
S315080033C0EDFC002800D196E00196049503940020B0
S315080033D01FE0049844540027A74848F200013A46DB
S315080033E0694EB0471E252846A44CA0470122A24E86
S315080033F0304644F20001644B98472846A0473046B9
S3150800340044F200013A46604B98472846A04705987B
S31508003410401C059080B2069000F0E6FA00210C46A2
S3150800342022E007910127944E304644F200013A46BD
S315080034300AF038F81E25284609F04EFD304648F2AF
S3150800344000010AF036F804460022304644F200012C
S315080034500AF028F8284609F03FFD04B92746089CD3
S3150800346064003C430799491CC8B207280894D8D970
S3150800347000F0D2FA039D0699A942AAD30124E54889
S3150800348048F200012246E44B98471E273846E34E89
S31508003490B047F64844F200012246F54B98473846AD
S315080034A03C46B0470027F14844F200013A46F04B43
S315080034B098472046B04700F049F809A80199417095
S315080034C00299017085703521C170049B04E0195C6E
S315080034D009AA101801717F1CB8B2A842F7D3281D93
S315080034E0C1B209A800F00AFF0899C9B2091A002052
S315080034F0401A484102E000F029F8002029B0F0BD42
S31508003500F8B5EB480126EB4C44F200013246A047D9
S315080035101E25E94F2846B847E54848F200013246D5
S31508003520A0472846B8470026E14848F20001324637
S31508003530A0472846B847DE4844F200013246A0476D
S3150800354028463946F8BC04BC96460847F8B5D84814
S315080035500022D84C48F20001A0471E25D64F28461F
S31508003560B8470126D24844F200013246A047284609
S31508003570B847CF4848F200013246A04728463946A0
S31508003580F8BC04BC96460847A5D40008F0B5A1B017
S3150800359014460F46054601AEB01C7E21FFF7C7FD4F
S315080035A0777034203070002004E06A5C01AB59184B
S315080035B08A70401C81B2A142F7D3A01CC1B201A8EF
S315080035C000F09CFE0646FFF79BFF342000F028F823
S315080035D005F0E4FBE8B1384600F022F805F0DEFB1A
S315080035E0B8B1002707E0287800F01AF805F0D6FBEE
S315080035F078B17F1C6D1CB8B2A042F4D3304600F0F7
S315080036000FF805F0CBFB012400B90446FFF79EFF2F
S3150800361002E0FFF79BFF0024204621B0F0BD000022
S31508003620F8B50026E04C22E04100009140B200289F
S3150800363001DB002200E00122F64F384648F200017D
S3150800364009F030FF1E252846A0470122384644F2D5
S31508003650000109F027FF2846A0470022384644F211
S31508003660000109F01FFF2846A047761C0098F1B212
S315080036700729D9D9F8BDC04600040048D9CE0008A4
S31508003680F0B5A9B014460E46054609A88021FFF7ED
S315080036904EFD00F0C5F83420029000F059F905F007
S315080036A0A1FB002800D1B0E0304600F051F905F042
S315080036B099FB002800D1A8E0204600F049F905F05A
S315080036C091FB002800D1A0E000F0AAF8352000F010
S315080036D03FF905F087FB002800D196E0019604958E
S315080036E0039400201FE0049844540027EB4842F254
S315080036F000013A466F4EB0471E252846AA4CA047F9
S315080037000122E64E304641F200016A4B98472846A8
S31508003710A047304641F200013A46664B984728468C
S31508003720A0470598401C059080B2069000F08AF9DB
S3150800373000210C4622E007910127D84E304641F277
S3150800374000013A4609F0AEFE1E25284609F0C4FBDC
S31508003750304642F2000109F0ACFE0446002230462B
S3150800376041F2000109F09EFE284609F0B5FB04B9AE
S315080037702746089C64003C430799491CC8B2072899
S315080037800894D8D900F074F9039D0699A942AAD3DA
S315080037900124C24842F200012246464B98471E279A
S315080037A03846814EB047BD4841F200012246414B9A
S315080037B0984738463C46B0470027B84841F20001CA
S315080037C03A463C4B98472046B04700F053F809A8BC
S315080037D0019941700299017085703521C170049B69
S315080037E004E0195C09AA101801717F1CB8B2A84236
S315080037F0F7D3281DC1B209A800F080FD0899C9B2FF
S31508003800091A0020401A484102E000F033F8002067
S3150800381029B0F0BD00040048A5D40008D9CE000898
S31508003820F8B59E480126234C41F200013246A047CE
S315080038301E255D4F2846B847984842F20001324691
S31508003840A0472846B8470026944842F20001324667
S31508003850A0472846B847914841F200013246A0479A
S3150800386028463946F8BC04BC964608470004004872
S31508003870A5D40008F8B5894800220E4C42F200018A
S31508003880A0471E25484F2846B8470126834841F2D7
S3150800389000013246A0472846B847804842F2000150
S315080038A03246A04728463946F8BC04BC964608471F
S315080038B000040048A5D40008D9CE0008F0B5A1B088
S315080038C014460F46054601AEB01C7E21FFF72FFCB5
S315080038D0777034203070002004E06A5C01AB591818
S315080038E08A70401C81B2A142F7D3A01CC1B201A8BC
S315080038F000F004FD0646FFF793FF342000F028F891
S3150800390005F070FAE8B1384600F022F805F06AFAD0
S31508003910B8B1002707E0287800F01AF805F062FA2F
S3150800392078B17F1C6D1CB8B2A042F4D3304600F0C3
S315080039300FF805F057FA012400B90446FFF79AFF75
S3150800394002E0FFF797FF0024204621B0F0BD0000F3
S31508003950F8B50026144C22E04100009140B2002838
S3150800396001DB002200E001224C4F384642F20001FA
S3150800397009F098FD1E252846A0470122384641F23F
S31508003980000109F08FFD2846A0470022384641F27B
S31508003990000109F087FD2846A047761C0098F1B279
S315080039A00729D9D9F8BDC046D9CE0008012805D0BF
S315080039B048B9084611461A46FFF7D8BC08461146C4
S315080039C01A46FFF75DBE00207047012805D048B9A2
S315080039D0084611461A46FFF7D9BD084611461A4643
S315080039E0FFF76CBF00207047B0B52C4C0025204669
S315080039F029462A4648F2000309F061FD03222046BB
S31508003A00294648F20003039CA646B0BC01B009F05B
S31508003A1074BDC04600040048B0B5204C01210025FD
S31508003A2020462A4648F2000309F049FD03222046AB
S31508003A30294648F20003039CA646B0BC01B009F02B
S31508003A405CBDC046B0B5154C0025204629462A4619
S31508003A5042F2000309F033FD03222046294642F2CA
S31508003A600003039CA646B0BC01B009F046BDC0469B
S31508003A70B0B50A4C0121002520462A4642F2000329
S31508003A8009F01DFD03222046294642F20003039C45
S31508003A90A646B0BC01B009F030BDC04600040048D7
S31508003AA0B0B50146854CE089421C0523B2FBF3F507
S31508003AB05D43551B228A954206D00D225043034B7F
S31508003AC01818FFF71BFBE581B0BDC046700400203F
S31508003AD0B0B50146794C6389581C1422B0FBF2F53F
S31508003AE05543451BA289002095420BD0C87808B9D2
S31508003AF00820C8700D2253430348C018FFF7FEFA82
S31508003B0065810120B0BDC04661110020F0B589B0BD
S31508003B1014460291054605A80027077307970697D6
S31508003B2005970120019004900397314E04AA40F6A8
S31508003B30000031463B4603F03BFC133603AA40F629
S31508003B40000031463B4603F033FC012D2DD0002DF5
S31508003B504CD105ADA52028700298A8700820E870F9
S31508003B60039904980129014600D00199214A12684F
S31508003B7002B9084668702078287160786871A0785C
S31508003B80A871E078E8712079287260796872A0795E
S31508003B90A872E079E8722B7B05AA07CA05F0BEF978
S31508003BA02873284600F06EF820E005AD0820E87076
S31508003BB00298A87040F2A5102880207828716078AD
S31508003BC06871A078A871E078E87120792872607920
S31508003BD06872A079A872E079E8722B7B05AA07CAF1
S31508003BE005F09CF928732846FFF772FF09B0F0BD67
S31508003BF02A040000940C0020B0B50146144CE08855
S31508003C00012585432289954209D040F21012504376
S31508003C10034A101840F21012FFF770FAE580B0BD9B
S31508003C2066120020B0B50146094C62880125954305
S31508003C30A38800209D420AD040F21010424305484E
S31508003C40801840F21012FFF759FA65800120B0BDBE
S31508003C503400002086140020B0B50146B54CE08833
S31508003C60421C0523B2FBF3F55D43551B2289954299
S31508003C7006D00D22504320181630FFF73FFAE5808C
S31508003C80B0BDC046B0B50146AA4C6388581C14227C
S31508003C90B0FBF2F55543451BA288002095420BD090
S31508003CA0C87808B90820C8700D2253430448C018BC
S31508003CB0FFF724FA65800120B0BDC04650020020F7
S31508003CC0A6160020FEB5002702970197364C40F647
S31508003CD00000364E85B2009750E0B8B2801E032821
S31508003CE021D8810001A251188F46C04600F006B8B7
S31508003CF000F00FB800F002B800F00BB802AA0023D3
S31508003D002846314603F054FB68B1029802282DD0A4
S31508003D1009E002AA00232846314603F049FB10B100
S31508003D200298012822D0A18801AA0023284603F078
S31508003D303FFB08B30198552802D1218802260BE0DB
S31508003D40618801AA0023284603F032FBA0B1019836
S31508003D5055280BD12188012600232846324606F02D
S31508003D6041FD009830430090104E05E0218800225E
S31508003D702846134606F036FDA41D7F1C0C2FACD131
S31508003D8000990936880706D4C80706D100222846AE
S31508003D903146134605E0022200E0012200232846A8
S31508003DA0314606F01FFDFEBDE0E10008D30700001E
S31508003DB0F0B553B3059C2688751C9E4200D31D4654
S31508003DC0258005E05B00D6180127FF43F65BD6522F
S31508003DD06D1EABB2002BF5D1108025880024204635
S31508003DE0234604E016889B19921CE41C401C854255
S31508003DF0F8D11A18B3FBF0F545435D1BA408A54294
S31508003E0000D81A46B2FBF0F00880F0BDBCB5401EDB
S31508003E10032830D8840001A52C19A74600F006B857
S31508003E2000F00FB800F016B800F01AB85000134C9E
S31508003E30201818306C4620609000124A1258032445
S31508003E4014E050000D4C20186C46206090000C4A77
S31508003E5012580AE0084A684602600832052405E056
S31508003E600548821C6C462260021D02240846194633
S31508003E702346FFF79DFFBCBD30020020000400204A
S31508003E8028E2000858E2000880B50AF0CFF803F0E7
S31508003E90E9FD18B102480178491C017080BDC04689
S31508003EA060110020BFB56846002101730291019197
S31508003EB00091204D288AE989884212D00D22504364
S31508003EC0084909186C462046FFF718F9204600F0FD
S31508003ED009FA288A401C0521B0FBF1F24A43801AE8
S31508003EE02882BFBD70040020BFB568460021017353
S31508003EF00291019100910F4DA8896989884218D0CD
S31508003F006978B1B9012169700D2250430A49091827
S31508003F106C462046FFF7F2F8204608F087FE01288F
S31508003F2007D1A889401C1421B0FBF1F24A43801A34
S31508003F30A881BFBD5002002061110020FEB50024F3
S31508003F40029402AD40F6000040F2E8312A462346C4
S31508003F5003F02EFADE4EAA2030702F7801940BE07B
S31508003F6081007118CD68A9B203F0FAFA1DB155207F
S31508003F70307001200190641CE0B28742F0D83521E8
S31508003F80012340F20040019A06F02CFCFEBDC04613
S31508003F90F0B5C1B000200F900E90F04B5989491C1E
S31508003FA059810D90954A0A40D1084B2904D3944962
S31508003FB09870481C588103E09878012800D110E1D0
S31508003FC040F600058F4E0FAA002440F60000314641
S31508003FD0234603F0EDF9711D0EAA40F600002346AC
S31508003FE003F0E6F90F9802280FD08748017842783F
S31508003FF012020A438178C07800020843000410437D
S315080040004FF60071084200D1EDE00220D3490F4671
S31508004010487000F083F97878012800D0CAE021A812
S315080040208021FFF784F840F600000025209584B229
S3150800403020AF204640F2E8313A462B46734EB04749
S315080040403878019040F2E831123120463A462B463C
S315080040506E4EB0472098069040F2E831133120465C
S315080040603A462B46B0472098059066490D3100948C
S3150800407020463A462B46B0473888049010AE30465C
S3150800408005F072FA18A820223146FFF737F803958B
S3150800409087E0500018A90C5A40F2E8301018411C65
S315080040A020AF0A92002300983A4603F081F90A9B4A
S315080040B0387809900698A0426DD80998421E0F2AAA
S315080040C075D80398C0B20C900027089210E09801A2
S315080040D021A90C180C98460005F050FA089A0A9B74
S315080040E080196900405AA9006052601887707F1CC1
S315080040F0FDB20998A842EAD8002125E00791101ACE
S315080041000B90002219E09D0121A84619601C870022
S31508004110F05BF1190C91A100745A761884420BD9F8
S3150800412021AB5B1959188D783080D81983788B7034
S315080041300A9B0C990C808570521CD4B20B98A0422D
S31508004140E1DC0799491C089AC8B28242D6DC09986C
S31508004150841E1CE0980121AA10188900435A049A63
S315080041609D1A5526F243059FBD42154600D335468E
S31508004170069E9E4200D82A46D3B2401882787748CF
S315080041800C300A9D294603F017FA2B46641CE1B247
S3150800419009988842DED80398099940180390029D29
S315080041A06D1C0295EAB20198904200D971E7FFF7B3
S315080041B0C5FE16E0A8B20DAA40F2E831234603F080
S315080041C0F7F803E0002103F0CBF9641CE0B20D997F
S315080041D08142F7DC35210022012340F2004006F037
S315080041E001FB41B0F0BD81030120890F00D00CE727
S315080041F00E99012900D109E707E7C046F8FF000034
S3150800420057020000D307000050110020B1730008C0
S31508004210F0B585B004460025049504AE40F60000C6
S3150800422040F2E83132462B4603F0C2F8E84304B9B7
S3150800423020463678494F03E089007918C8606D1C16
S31508004240E9B28E42F8D80020C04304B920461421AA
S3150800425001E07854491C1C29FBD1BC705CB30021D1
S3150800426040F6000080B20190039100961FE040F2EC
S31508004270E83028180291411C04AA0023019803F08B
S3150800428097F8A8003818F978039C091B89B2491EC3
S3150800429001228A40C26091B23E46049F284603F036
S315080042A05FF902993C1903943746009E491CCDB222
S315080042B0AE42DCD808E0002403E0002103F050F900
S315080042C0641CE0B28642F8D80020788105B0F0BDBB
S315080042D00000002002480178491C01707047C0465A
S315080042E0191B00204178402901D0802904D1817802
S315080042F0021D012004F004BB7047000010B500231E
S31508004300054A05E0DBB204785C40135D491E401C93
S315080043100C06F7D1D8B210BDD8E20008BCB5002407
S31508004320019401AD40F6000040F2E8312A462346E2
S3150800433003F03EF82978094804E092008218002321
S31508004340D360641CE2B29142F7D8142102E000223D
S315080043504254491C1C29FAD1BCBDC04600000020A5
S3150800436000F060BAFEB500230293019340F60004FC
S315080043702D4901AA40F6000003F01AF8019800B189
S31508004380FEBDA4B2B24902AA0023204603F010F8E3
S31508004390264D2878401C2870C0B21E2803D80298DB
S315080043A0401C029004E0642801D30020287002987B
S315080043B06978491C0A22B1FBF2F35343C91A69709A
S315080043C0A24EB04222DA371A19488742D8DC686802
S315080043D008B9E868686040F2E03160312A46083278
S315080043E00023204602F0E4FFA868E96840F2E032BC
S315080043F0504340F2E83290FBF2F0814202DA286933
S31508004400C01928616869C01968610298B042B7DDA9
S3150800441042494118074A9042B2DC2869401A286185
S31508004420A8694018A861FEBDBF0F0000B0020020B1
S31508004430A08C0000D0010100F8B50D4600240094B8
S31508004440032835D0022816D001285ED1304D002425
S315080044506C80314E3268314810182830502854D8AC
S315080044602F49002340F6000006F0BCF901242C7001
S315080044703068688049E0264E3078012845D12846BC
S315080044802838254909682A46283291423DDC814266
S315080044903BDB224828181F4B5A1C521B9D4200DC46
S315080044A010460225725F09B28A421DDA891A1DE092
S315080044B0174F3878022828D165496A46002440F6FD
S315080044C00000234602F074FF0099284608F012FD02
S315080044D006461048411C284608F00CFDC0088642CE
S315080044E013D2002038700FE00FDD511A64224243C0
S315080044F0B2FBF1F20A48411C002440F600002346AC
S3150800450006F070F908B135700124204601B0F0BDF7
S31508004510440200202F7500003C110020D08AFFFFBE
S3150800452007040000FEB5494F029700240194009441
S3150800453040F60005464E02AA40F6000031462346DC
S3150800454002F036FF02994348B9420ADA0189491C42
S31508004550018189B20B2901D3012181710021418191
S3150800456012E04289521C428192B2332A01D30022B8
S3150800457082710481B94207DDC1794A1CC2710B29CF
S3150800458002D3354800210170ACB2173601AA0025BE
S31508004590204631462B4602F00BFF02F031FA01287D
S315080045A002D12C48807910B901F0E6FEC0B340F27A
S315080045B0E83006F09DF9274885718560264E3078E3
S315080045C0002842D0357040F2E8310D316F4620465A
S315080045D03A462B4602F0ECFE70680099081A70609D
S315080045E040F2E831093120463A462B4602F0E0FE11
S315080045F00C22009842430A2192FBF1F372689A4210
S3150800460023DCC00090FBF1F082421EDB40F2E83169
S3150800461058310023204606F0E5F804F047F8FEBDB9
S3150800462001F0CEFE88B1284606F062F940F2E8317C
S315080046300D316A4620462B4602F0BAFE064801218D
S3150800464001700449CD7100994160FEBD30750000C6
S31508004650D2070000580400204802002080B501F067
S3150800466067F880BC01BC864601F032B8BCB50024A8
S3150800467001940E49224695B20B2D14D806236B4396
S31508004680CD5A521C8542F6D1C818818801AA002441
S3150800469040F60000234602F08BFE20B101985538FB
S315080046A000210C1A4441204602B0B0BDE0E10008E2
S315080046B0E0B50020019001F0EBF801280CD10D4976
S315080046C001AA002340F6000002F072FE01980128B4
S315080046D004D10948007808B1032000E0022008F058
S315080046E049FF09F0FFF908B1022000E0032008F0AD
S315080046F091FB8CBD3D04000044000020B0B5014686
S31508004700174C608A421C0323B2FBF3F55D43551B25
S31508004710A28A954206D016225043124B1818FEF765
S31508004720EDFC6582B0BDC046B0B586B00C4DA88A12
S31508004730698A814212D0162250430A4909186C46E2
S315080047402046FEF7DBFC204600F00EF8A88A401C3F
S315080047500321B0FBF1F24A43801AA88206B0B0BD25
S315080047605002002030060020B0B54188144A914214
S3150800477007D01448814221D1B0BC01BC864608F056
S3150800478041BA002210A3124905E09C5C0578AD01E8
S315080047904D19AC54521C082AF7D1007882008918A2
S315080047A0802208238B52822201238B520C214143FB
S315080047B008484058B0BC02BC8E460047B0BDC0464B
S315080047C0050F0000010F000051100F05AAAA21933A
S315080047D0FE070020ECE30008FCB58E4E0F4B104C8C
S315080047E014E0009001784E40002109E077081F4048
S315080047F03A46624001252E4200D01746491C3E46DD
S31508004800CAB2072AF2D90098401C01994A1E019299
S31508004810804A1142E5D1B0B202B0F0BDFF7F000078
S3150800482001A0FFFF10B50124204600F039F9204603
S3150800483000F080F8204600F00BF800F0EFF800F0E2
S3150800484087F9204610BC02BC8E4600F045B9000028
S31508004850F0B587B00190002406946E4805900127AC
S315080048600394029430E040F2004086B22D2106AA55
S3150800487030462B4602F09CFD2E2105AA30462B46D3
S3150800488002F096FD012305980699012D01D11A46D5
S3150800489016E002465F4B1A40049DABB29A4200D31B
S315080048A028469A423A4600D3039A0B46594D2B405E
S315080048B0A5B2AB4200D82146AB423B4600D8029B84
S315080048C07F1C029303920C460490FDB20198854220
S315080048D0C9D9A2B2164D00274F4C40F6000029460A
S315080048E03B46A04740F2004086B20298C3B2312147
S315080048F006AA304602F05CFD069AA91D40F600009D
S315080049003B46A047691C049882B240F600003B4625
S31508004910A0470398C3B2322105AA304602F048FDE3
S31508004920059AE91D40F600003B46A04707B0F0BDD2
S31508004930E1070000F0B587B00190002406943548D9
S31508004940059001270394029430E040F2004086B2B5
S31508004950292106AA30462B4602F02AFD2A2105AA55
S3150800496030462B4602F024FD012305980699012DB1
S3150800497001D11A4616E00246264B1A40049DABB2F0
S315080049809A4200D328469A423A4600D3039A0B46DF
S31508004990204D2B40A5B2AB4200D82146AB423B4640
S315080049A000D8029B7F1C029303920C460490FDB22A
S315080049B001988542C9D9A2B2374D0027164C40F650
S315080049C0000029463B46A04740F2004086B20298BE
S315080049D0C3B22F2106AA304602F0EAFC069AA91DA0
S315080049E040F600003B46A047691C049882B240F690
S315080049F000003B46A0470398C3B2302105AA3046BB
S31508004A0002F0D6FC059AE91D40F600003B46A04791
S31508004A1007B0F0BDFFFF0000E5A700087FB500243A
S31508004A2003940294019400941B4D03AA1B4E40F66E
S31508004A30000029462346B047691C02AA40F6000032
S31508004A402346B047029A039B981AD11A934200DC70
S31508004A50084682B2291D40F60000234605F0C2FE2C
S31508004A60A91C01AA40F600002346B047E91C6A467D
S31508004A7040F600002346B047009A019B981AD11ABF
S31508004A80934200DC084682B2691D40F600002346C0
S31508004A9005F0A8FE7FBDC046DF070000B173000819
S31508004AA07CB505460026019634460AE0761CF3B224
S31508004AB0262101AA40F2004002F07AFC019800196A
S31508004AC084B2F0B2A842F1D33249002340F600007E
S31508004AD0224605F087FE7CBDF0B585B0019000241E
S31508004AE00494012140F6000080B2009025461DE09E
S31508004AF0029140F2EC300392111804AE0027009898
S31508004B0032463B4602F054FC36780AE0203104AAC5
S31508004B1040F20040039B02F04BFC049845197F1CA9
S31508004B20641CF9B28E42F1D80299491CCAB201989E
S31508004B308242DDD9012C06DB95FBF4F203490023FA
S31508004B40009805F04FFE05B0F0BDC046DE07000030
S31508004B50BCB50024019400940E4D01AA40F600004D
S31508004B602946234602F024FC691D6A4640F60000E1
S31508004B70234602F01DFC642001994143009891FBED
S31508004B80F0F20C3540F600002946234605F02AFEC9
S31508004B90BCBDC046D1070000F0B58DB01E4C2046FE
S31508004BA040F2F411FEF7C3FA1C48411D40F600070F
S31508004BB00BAA002540F6000005912B4602F0F8FBEB
S31508004BC00CA92020087040F200418EB20DE00AAA16
S31508004BD001233046294602F0EBFB0A986070000A6A
S31508004BE02070A41C6D1C0CA80078C0B28542EED3B8
S31508004BF0BBB20A48811D0BAA00241D46184600911F
S31508004C00234602F0D5FB0CA908200870024F41374D
S31508004C10E143089114E0C046B4080020D10700001B
S31508004C20214620310AAA0123304602F0C1FB0A9820
S31508004C30010A089AB9543870641CBF1C0CA800787D
S31508004C40C0B28442ECD30AAA0692002428460795E5
S31508004C506A4923466A4FB84751200A99694A115446
S31508004C60080A502150546548411C28460291069F5F
S31508004C703A462346624DA84763480A99401A532183
S31508004C80604B5854010A522299540A905B480146CF
S31508004C901831039107983A462346594DA847552097
S31508004CA00A99584A1154080A5421505453490E3146
S31508004CB007983A462346524DA84757200A99514A1B
S31508004CC01154080A562150544C4801460F31079D85
S31508004CD028463A4623464A4FB84759200A99494A28
S31508004CE01154080A58215054444910312846069F41
S31508004CF03A462346424DA8475B200A99414A115431
S31508004D00080A5A2150543D491131079D28463A460A
S31508004D1023463B4FB8475D200A993A4A1154080A78
S31508004D205C2150543548811C2846069F3A4623463E
S31508004D30334DA8475F200A99324A1154080A5E2162
S31508004D40505440F2E8310931079D284601913A4608
S31508004D5023462B4FB84709AA284603992346B8473E
S31508004D60642104910A9890FBF1F00999414340F2B5
S31508004D70E83091FBF0F06121224B5854010A602279
S31508004D8099540A9028460599069D2A4623461C4F9B
S31508004D90B84763200A991B4A1154080A62215054DD
S31508004DA0079800992A462346154FB84765200A9959
S31508004DB0144A1154080A04995054134640F2E8312B
S31508004DC0113107982A461D462346B84767200A998F
S31508004DD02954080A662168540A940C4A10785178AE
S31508004DE0014390780843D1780143107908435179F3
S31508004DF00143002920460DD00AE0C046D10700002D
S31508004E00B1730008B408002060EA0000140000200E
S31508004E1001200A906921685468202C5432480146BA
S31508004E2008310AAD07982A462346304FB8476B2003
S31508004E300A992F4A1154080A6A2150542A48C11D52
S31508004E4007982A462346294FB8476D200A99284AC3
S31508004E501154080A6C2150542721012730462A4646
S31508004E603B46224EB0476F200A99214A1154080A38
S31508004E706E2150541C480146123107982A4623468B
S31508004E801A4EB04771200A99194A1154080A702116
S31508004E9050540798144906952A4605462346134E44
S31508004EA0B0470BAA284602992346B04711484178CD
S31508004EB074220F4B9954017875229954C178762239
S31508004EC099548178772299544179782299540179AD
S31508004ED07922995408490B9B5918084E721C02925C
S31508004EE0D21AB3420DDC0BE0D1070000B1730008FB
S31508004EF0B408002050110020D08AFFFF2F7500004B
S31508004F0011460B910A9A4A43049992FBF1F17322CE
S31508004F10154EB154090A7222B154C1797A22B15494
S31508004F2080797B2170540A947E2034520F492631A9
S31508004F30079D2846069A23460D4EB04780200D4900
S31508004F40094A115202980A9040F2E830411C0CAE08
S31508004F502846009132462346054DA8470A94064836
S31508004F60007831780AE0C046B4080020D10700006E
S31508004F70B17300087530000014000020E2B28A42BE
S31508004F8006D23B469340641C0342F7D0501C0A9055
S31508004F9082200024104E34520A94104923310AAA5A
S31508004FA0079D2846234602F003FA85200A993154BC
S31508004FB0080A842170540BAA28460599234602F04C
S31508004FC0F7F90CA8102101700548C07FA5210291A8
S31508004FD0A52811D106E0C046B4080020D107000074
S31508004FE0840100203046AE3002491822FEF786F8C2
S31508004FF002E0C046840100203046C6303821FF272B
S315080050003A46FEF78DF80AAA06920024079D284616
S3150800501001992346FD4EB0470A98049990FBF1F092
S31508005020FB49C855FA4F010AFE22B9540A9040F2C4
S31508005030E8310C312846069E324623462F46F34D64
S31508005040A84740F201100A99F14A1154080A40F299
S3150800505000115054384640F2E831324623463D4660
S31508005060EA4FB847E94F40F203100A99E84A115443
S31508005070080A40F20211505428460099324623463F
S31508005080B84740F205100A99E14A1154080A40F255
S315080050900411505440F2E830811C28463246234613
S315080050A0B84740F207100A99D94A1154080A40F23B
S315080050B00611505440F2E830C11C2846324637469D
S315080050C02346D24EB04740F209100A99D04A1154E5
S315080050D0080A40F20811505440F2E830411D2846AB
S315080050E03A462346B04740F20B100A99C84A11546B
S315080050F0080A40F20A11505440F2E830811D284649
S315080051003A462346B04740F20D100A99C04A115450
S31508005110080A40F20C11505440F2E830C11D2846E6
S315080051203A462346B04740F20F100A99B84A115436
S31508005130080A40F20E11505440F2E8310B31284665
S315080051403A462346B04740F211100A99B04A11541C
S31508005150080A40F21011505440F2E8311531284639
S315080051603A462346B04740F213100A99A84A115402
S31508005170080A40F21211505440F2E8312831284604
S315080051803A462346B04740F215100A99A04A1154E8
S31508005190080A40F21411505440F2E83136312846D4
S315080051A03A462346B04740F217100A99984A1154CE
S315080051B0080A40F21611505440F2E83129312846BF
S315080051C03A462346B04740F219100A99904A1154B4
S315080051D0080A40F21811505440F2E831373128468F
S315080051E03A462346B04740F21B100A99884A11549A
S315080051F0080A40F21A11505440F2E8312231284682
S315080052003A462346B04740F21D100A99804A11547F
S31508005210080A40F21C11505440F2E8313031284651
S315080052203A462346B04740F21F100A99784A115465
S31508005230080A40F21E11505440F2E831233128463C
S315080052403A462346B04740F221100A99704A11544B
S31508005250080A40F22011505440F2E831313128460C
S315080052603A462346B04740F223100A99684A115431
S31508005270080A40F22211505440F2E83126312846F5
S315080052803A462346B04740F225100A99604A115417
S31508005290080A40F22411505440F2E83134312846C5
S315080052A03A462346B04740F227100A99584A1154FD
S315080052B0080A40F22611505440F2E83127312846B0
S315080052C03A462346B04740F229100A99FB4A115438
S315080052D0080A40F22811505440F2E8313531284680
S315080052E03A462346B04740F22B100A99F34A11541E
S315080052F0080A40F22A11505440F2E8312D31284666
S315080053003A462346B04740F22D100A99EB4A115403
S31508005310080A40F22C11505440F2E8313B31284635
S315080053203A462346B04740F22F100A99E34A1154E9
S31508005330080A40F22E11505440F2E8312E31284620
S315080053403A462346B04740F231100A99DB4A1154CF
S31508005350080A40F23011505440F2E8313C312846F0
S315080053603A462346B04740F233100A99D34A1154B5
S31508005370080A40F23211505440F2E8312B312846DF
S315080053803A462346B04740F235100A99CB4A11549B
S31508005390080A40F23411505440F2E83139312846AF
S315080053A03A462346B04740F237100A99C34A115481
S315080053B0080A40F23611505440F2E8312C3128469A
S315080053C03A462346BF4EB04740F239100A99BB4ABF
S315080053D01154080A40F23811505440F2E8313A3173
S315080053E028463A462346B74EB04740F23B100A993C
S315080053F0B24A1154080A40F23A11505440F2E831C0
S315080054002A3128463A46234604E0C046B1730008C6
S31508005410B4080020AB4EB04740F23D100A99A74A9F
S315080054201154080A40F23C11505440F2E831383120
S3150800543028463A462346A34EB04740F23F100A99FB
S315080054409E4E3154080A40F23E11705440F2E8313B
S315080054502F3128463A4623469A4FB84740F241101C
S315080054600A993154080A40F24011705440F2E83162
S315080054703D312846069F3A462346924EB04740F2AB
S3150800548043100A998D4A1154080A40F242115054A1
S3150800549040F2E831123128463A462346894EB0474B
S315080054A040F245100A99854A1154080A40F24411F7
S315080054B0505440F2E83113312846069F3A462346AF
S315080054C0B04740F247100A997C4A1154080A40F23C
S315080054D0461150547A4E3146243128463A462346D8
S315080054E0784FB84740F24810744A14540A98553809
S315080054F0411E884140F2491150540A9025362846E3
S315080055003146069E32462346B84740F24A106B4A51
S3150800551014540A985538411E884140F24B1150548C
S315080055200A902846039932462346B84740F24D105A
S315080055300A99624A1154080A40F24C11505413460B
S3150800554040F2E8314331284632461F4623465D4E2F
S31508005550B04740F24F100A993954080A40F24E11E2
S31508005560785440F2501038180E21574A089E04E025
S3150800557053189B5D0370401C491E0029F8D140F260
S31508005580601038180E21514A04E053189B5D0370C9
S31508005590401C491E0029F8D140F270103E18082711
S315080055A013E040F2E830211816310AAA00232846EB
S315080055B001F0FEFE0A98F070010C7170010E317050
S315080055C0000AB070361D7F1E641C002FE9D140F218
S315080055D0E83144310AAE0024284632460696234668
S315080055E0384FB84740F291100A99344F3954080A8F
S315080055F040F29011785440F2E83145312846324657
S315080056002346304EB04740F293100A993954080A97
S3150800561040F29211785440F2E83146312846069A0B
S315080056202346284EB04740F295100A993954080A7D
S3150800563040F29411785440F2E8311E312846069A11
S315080056402346204EB04740F299100A993954080E5D
S3150800565040F29612B854080C40F29712B854080A49
S3150800566040F2981178540BAA284605992346154DF9
S31508005670A84702995A3140F29C10395440F29D10BD
S31508005680395440F29E103C5240F2A0100899395005
S3150800569040F2AC103C520B98010E40F29A12B954E3
S315080056A0000C40F29B11785440F2AE1038183021A5
S315080056B0FF22FDF735FD0DB0F0BDC046B408002049
S315080056C0D1070000B17300086401002056010020CC
S315080056D0B0B502F0DDF92D4D90B10024EC702879B3
S315080056E0401C2871C0B2042809D3032028710F4929
S315080056F040F600002246234605F074F86C71B0BDEA
S31508005700E878401CE870C0B204280CD30320E8707F
S31508005710687940B905490124002340F6000022466D
S3150800572005F060F86C7100202871B0BDED07000027
S31508005730B0B502F0A2F9154D90B100242C70687826
S31508005740401C6870C0B2042809D303206870104949
S3150800575040F600002246234605F044F8AC70B0BD7A
S315080057602878401C2870C0B204280CD3032028705F
S31508005770A87840B906490124002340F600002246CD
S3150800578005F030F8AC7000206870B0BD58040020F1
S31508005790EC070000B0B50446084D687803F006FC2F
S315080057A00248214600F00CF86870B0BDB1570008F1
S315080057B002484FF6007101807047C046500000202D
S315080057C070B50C460546074E3046083001F08FFE88
S315080057D0042805D88100711800228A634D628C60FE
S315080057E070BDC046500300200148642104F012B978
S315080057F0818F000810B50748134C40F2E831A047DE
S315080058000548C821A04705486421224610BC08BCA3
S315080058109E46104729980008D5950008C53C0008FB
S3150800582010B508486421084CA047084840F2E831FA
S31508005830A047074840F2E831224610BC08BC9E46FD
S315080058401047C04665430008159A0008E9AF0008E6
S3150800585035A9000880B50920C0062021012207F0D5
S3150800586021FE02480021017080BDC046500200207A
S3150800587005494143054803E00278521C0270491C59
S315080058800029F9D17047C046C0E0FFFFAD170020D8
S31508005890F8B5002300932E4E31461A3140F600041F
S315080058A06A4640F6000001F083FD009810B92948C1
S315080058B000210170A4B26A460027204631463B46BD
S315080058C001F076FD01252448009981423CDC2148F7
S315080058D0007800283D4637D123366A4600252046FB
S315080058E031462B4601F064FD009855282CD01B48FC
S315080058F04078012828D007F00DF928BB002718A6FC
S3150800590001E0361D7F1C042F14D831686A4600252D
S3150800591020462B4601F04CFD00985528F1D1F8B2E7
S31508005920042811D10D48007870B90120094908707A
S31508005930002509E043496A46002520462B4601F022
S3150800594037FD00982D1A4541284601B0F0BDC046DE
S31508005950D2070000FA1B0020307500004400002022
S31508005960C40B0000CA0B0000D30B0000D10B0000CB
S31508005970C80B0000F8B500230093294D29461B31B2
S3150800598040F600046A4640F6000001F011FD009852
S3150800599010B9244800210170A4B26A4600262046A0
S315080059A02946334601F004FD01251F480099814226
S315080059B02BDB1C48007838BB01F03EFD20BB1B489A
S315080059C04078012820D007F0A5F8002835461CD1D4
S315080059D0002617A70BE039686A46002520462B469D
S315080059E001F0E6FC0098552812D03F1D761C042EBF
S315080059F0F1D914496A46002520462B4601F0D8FC01
S31508005A0000982D1A454100E03546284601B0F0BDFC
S31508005A10F0B204280349F8D1012008700025F4E7FC
S31508005A20D2070000FB1B0020307500004400002050
S31508005A30C50B0000CB0B0000CD0B0000CE0B000001
S31508005A40C90B0000C30F0000BCB50023019340F644
S31508005A500005224C01AA40F60000214601F0A8FCE8
S31508005A600198012804D102F0A3FC012823D001984B
S31508005A70552820D0A52826D0ADB221462C3901AA12
S31508005A800023284601F094FC15480199814202D169
S31508005A90144801210170163401AA0023284621461C
S31508005AA001F086FC0198012804D101F00DFF514848
S31508005AB001214170BCBDA8B200222146134604F05C
S31508005AC091FE02F02FFDA8B200222146134604F0EB
S31508005AD089FE48480121017002F024FD29040000CE
S31508005AE0FFFF00003811002070B5FFF743FF424959
S31508005AF00870012806D1002007F03CFD1448012152
S31508005B00017019E0124E3078012810D10124204680
S31508005B1002F06CFB0F4D284601F0C8FE204607F040
S31508005B2029FD284601F0C2FE002002F05FFB002096
S31508005B303070012007F01EFD07F0F0FF08B10020C5
S31508005B4000E0012070BC02BC8E4607F063B9C0466F
S31508005B50A80A002088130000B0B5CE4C00252046C0
S31508005B6029462A4640F6000307F0A9FC03222046E8
S31508005B70294640F60003039CA646B0BC01B007F0D0
S31508005B80BCBCC046B0B5C34C0121002520462A46F8
S31508005B9040F6000307F093FC03222046294640F608
S31508005BA00003039CA646B0BC01B007F0A6BCC046DD
S31508005BB002F062BBB0B50F4D687898B1E87807284F
S31508005BC012D80D48007801280ED101F061FF58B9A6
S31508005BD00124204602F00AFB204602F02DFB052090
S31508005BE0A87001E002F048FB0420B0BC02BC8E4657
S31508005BF007F0EEBBA80000204611002002F03CBBCF
S31508005C00F0B587B002920C4605460120059080F350
S31508005C10108800F09DF8A027384600F019F903F01F
S31508005C2005F900287AD0200A00F012F903F0FEF8E8
S31508005C30002879D0E0B200F00BF903F0F7F8002855
S31508005C4078D000F085F8781CC0B200F001F903F0AE
S31508005C50EDF8002874D00298401E0190002653E003
S31508005C6003960495FFF778FF00210D461AE0069182
S31508005C70884E304640F20041059F3A4607F012FC2E
S31508005C80304640F6000107F014FC04460022304670
S31508005C9040F2004107F006FC04B927466D003D4373
S31508005CA00699491CC8B20728E1D9FFF76BFF049883
S31508005CB005700546451C0198039EB04211D1012482
S31508005CC0744F384640F6000122463C4FB8477148A3
S31508005CD040F200412246B84700226E4840F2004191
S31508005CE010E000246B4F384640F600012246334F39
S31508005CF0B8470122674840F20041B847654840F274
S31508005D0000412246B847761C02988642A8D100F080
S31508005D103DF8002080F31088012016E000F036F8E0
S31508005D20002080F3108810E000F030F8002080F39F
S31508005D3010880AE000F02AF8002080F3108804E0B2
S31508005D4000F024F8002080F3108807B0F0BDC046A4
S31508005D5070B5504C0125194E204640F200412A469E
S31508005D60B047204640F600012A46B047002520469F
S31508005D7040F600012A46B047204640F200412A462E
S31508005D803346039CA64670BC01B0184770B5414C13
S31508005D9000220A4E204640F60001B047012520465B
S31508005DA040F200412A46B047204640F600012A46FE
S31508005DB03346039CA64670BC01B01847A5D4000814
S31508005DC070B514460E460546012080F31088FFF785
S31508005DD0BFFFA02000F03CF803F028F8F8B1300A1D
S31508005DE000F036F803F022F8F8B1F0B200F030F817
S31508005DF003F01CF8F8B1002607E0287800F028F828
S31508005E0003F014F8E8B1761C6D1CB0B2A042F4D3C6
S31508005E10FFF7BCFF002080F31088012070BDFFF754
S31508005E20B5FF002080F3108870BDFFF7AFFF002094
S31508005E3080F3108870BDFFF7A9FF002080F3108853
S31508005E4070BDFFF7A3FF002080F3108870BD000027
S31508005E5070B500250F4C19E0460040B2002801DB5A
S31508005E60002200E00122204640F6000107F01AFB56
S31508005E700122204640F2004107F014FB002220468A
S31508005E8040F2004107F00EFB6D1C3046E9B20729C7
S31508005E90E2D970BD00040048FEB5002502955720DA
S31508005EA00190009540F60006344902AA344F40F6A0
S31508005EB000002B46B847334901AA40F600002B4696
S31508005EC0B847314CA11C6A4640F600002B46B84735
S31508005ED0009870B1B0B200222146134604F082FC45
S31508005EE02A480178DF220A400270072006F092FF4E
S31508005EF0FEBD01980299814211DAC91C81421EDC55
S31508005F00234805704178491C4170C9B21E2916D329
S31508005F101E214170B0B20022214613460DE01C48EE
S31508005F2045700178491C0170C9B21E2907D31E2184
S31508005F300170B0B201220023214604F053FCB0B22E
S31508005F4002AA0023214601F033FA1248017849B122
S31508005F5011490A88531C0B8010498A4205D300212F
S31508005F60017002E002980128BAD1062006F052FF15
S31508005F700648017820220A430270FEBDF407000095
S31508005F80B17300082B040000AE0F00004511002075
S31508005F903C05002040000020420000205902000075
S31508005FA070B50446481E242800D98FE1810001A255
S31508005FB051188F4600F048B800F052B800F05CB8A7
S31508005FC000F063B800F069B800F077B800F085B85B
S31508005FD000F093B800F0A1B800F0AFB800F0BDB873
S31508005FE000F0C4B800F072B900F070B900F06EB9EC
S31508005FF000F06CB900F06AB900F068B900F066B94B
S3150800600000F064B900F062B900F060B900F0B8B801
S3150800601000F05CB900F05AB900F0BCB800F056B907
S3150800602000F054B900F052B900F050B900F04EB97A
S3150800603000F04CB900F039B900F0BBB800F0C3B8AD
S3150800604000F0C9B800F0CFB805F0FAFE002800D174
S31508006050D2E0A148036841680320834302228DE009
S3150800606005F00CFF002800D1D0E09B480368416882
S315080060700C208343082281E02001302318409649EA
S315080060800A6849689A4302431DE1934803684168D0
S31508006090C0208343A001C2B270E00020C543954EDC
S315080060A005F038FE002800D1B9E08B48036841683E
S315080060B02940334040F2002260E00020C5438C4E60
S315080060C005F046FE002800D1B1E083480368416820
S315080060D02940334040F6000250E00020C543834E75
S315080060E005F054FE002800D1A9E07B480368416802
S315080060F02940334042F2000240E00020C5437A4E70
S3150800610005F062FE002800D1A1E0734803684168E3
S315080061102940334048F2000230E00020C543714E62
S3150800612005F0CAFE002800D199E06B48036841686B
S31508006130294033400120420420E00020C543684E30
S3150800614005F0F6FE002800D191E06348036841682F
S31508006150294033400120C20410E0032002055E49AD
S315080061600B68496893430440220507E0032082052B
S3150800617059490B68496893430440A2051A43A2E0AB
S3150800618055480268406840F20011884301210C40D6
S31508006190210293E00020C543504E002C75D04E488E
S315080061A00368406830402B4001212140C902002283
S315080061B076E00124E50405F025FE47490CC9AB4302
S315080061C02040C10416E001200105434B0CCB8B434C
S315080061D0044021050EE0012081053F4B0CCB8B4383
S315080061E00440A10506E00120C1053B4B0CCB8B43BF
S315080061F00440E105194366E0374802684168032010
S31508006200002C64D00440824322435CE0324903C92F
S31508006210002C5ED00C239843A2001A4033E72E497F
S3150800622003C974B3304003221440220226E02A49E7
S3150800623003C934B3304003221440A2021EE02649A3
S3150800624003C9F4B1304003221440220316E0224960
S3150800625003C9B4B1304003221440A2030EE01E491C
S3150800626003C974B1304003221440220406E01A49D7
S3150800627003C934B1304003221440A2040243294022
S3150800628021E03040294002461DE006F025FC12496F
S315080062900A68496831402A4001230340D80200238E
S315080062A01A430D4B01431A60596005F023FE20433B
S315080062B009490A68496818B101208004014302E0C7
S315080062C001208004814304480260416070BD824316
S315080062D0F9E70C229043D6E750110020FFF7FFFF9D
S315080062E0FFFFF3FFFFFFFCFFFF3FFFFFFFCFFFFFAF
S315080062F0FFF3FFFFFFFCFFFF10B51A4C20780A28B2
S3150800630001D3002020706078322803D304F002FFFE
S3150800631000206070E0781E2801D30020E070A07885
S31508006320642801D30020A0702079642803D30E487E
S315080063300021017021716079642803D30B4800217C
S3150800634001706171A079642801D30020A071E079F9
S31508006350642805D3064800210170E17105480170DB
S3150800636010BDC04658110020A80E0020500200207B
S3150800637051020020340000201CB50024019400942A
S315080063800D4901AA40F60000234601F011F80B4911
S315080063906A4640F60000234601F00AF800980028ED
S315080063A002DC05F04DFD18B10198552800D10124ED
S315080063B0204602B010BDC046B80B0000A60F00006C
S315080063C01CB5002401940A4901AA40F60000234698
S315080063D000F0EEFF0748FEF749F910B905F04EFD43
S315080063E018B10198552800D10124204602B010BDE5
S315080063F0B90B0000A70F0000B0B50022074B1446E2
S31508006400E1B2032906D889005D58641C012185423A
S31508006410F6D100E011460846B0BDC046D8E30008EC
S31508006420FEB501900025029540F2D076711C02AFA8
S31508006430AA4C40F600003A462B46A047D349029894
S31508006440C870000A887040F6000040F2D0713A46DB
S315080064502B46A24CA0470298CC494871000A0871FD
S31508006460B11C40F600003A462B469C4CA0470E4805
S315080064700299401AC54AD071010A917114460290D0
S31508006480193640F6000031463A462B46934DA84742
S3150800649002986072000A2072A21C90210198FDF7EA
S315080064A035FB012003B0F0BD60EA0000FEB501909F
S315080064B000250295194902AE884C40F600000F46A1
S315080064C032462B46A047F14C0298E070000AA070AD
S315080064D0B91D40F6000032462B46804FB847029851
S315080064E020710E48411C40F6000032462B467B4F71
S315080064F0B8470298A071000A60710848C11D40F6A5
S31508006500000032462B46B8470298E071A21C91213A
S315080065100198FDF7FBFA012003B0F0BDDF07000084
S31508006520FEB5019000250295174902AE6B4C40F660
S3150800653000000F4632462B46A047DF4C0298A07053
S31508006540B91D40F6000032462B46644FB8470298FC
S31508006550E0700D48411C40F6000032462B465F4F5E
S31508006560B847029820710848C11D40F60000324617
S315080065702B46B84702986071A21C92210198FDF734
S31508006580C5FA012003B0F0BDE1070000FEB5009092
S31508006590002502950195244E02AF504C40F60000A6
S315080065A031463A462B46A047DE4902988870B11D07
S315080065B040F600003A462B46484CA0470298D9496F
S315080065C0C870711D40F600003A462B46434CA0475A
S315080065D00298D44908711548007848710C46144940
S315080065E040F600003A462B463C4FB847163601AAF5
S315080065F040F6000031462B46B847029801994143B8
S3150800660040F2E83091FBF0F06072010EA171010CC6
S31508006610E171010A21720290A21C93210098FDF7EC
S3150800662075FA012003B0F0BDD3070000191B00203E
S31508006630F1030000FEB5019000250295524F02AC09
S31508006640E34E40F60000394622462B46B047E1495C
S3150800665002988870791C40F6000022462B46DC4ECC
S31508006660B0470298DB49C8703946163140F6000033
S3150800667022462B46D64EB0470298D6490871394667
S31508006680173140F60000264622462B46D04CA04736
S315080066900298D04C607112480078A071114940F6F2
S315080066A0000032462B46CA4CA0470298C9490872D0
S315080066B0000AC8711E3740F60000394632462B4696
S315080066C0C34CA0470298C34948728A1C9421019872
S315080066D0FDF71CFA012003B0F0BDC046B1730008EF
S315080066E045110020F9030000F0B595B0019005A802
S315080066F04021FCF71CFD002504950395224903AAB1
S3150800670040F600002B4600F053FE0FE004AA0127CE
S3150800671040F2004031463B4600F04AFE70000499BC
S315080067200A0A05AB1A54384319546D1CEEB203987D
S31508006730B042EBDC0022EB4D1EE0029205AA575C44
S315080067400626B1FBF6F2344654430C1B2C19E770A7
S315080067504C1CB4FBF6F77743E41B5B1E0CB18B426B
S3150800676008D1501CDF4988708A1C95210198FDF7CD
S31508006770CDF90398029A521C4300D1B29942DCDB48
S31508006780012015B0F0BDC046D6070000E004002081
S31508006790F0B587B0019000260696059604960396EE
S315080067A002966920C0431430C0B20A789623009333
S315080067B08242304609D18878244A9080C878D080A9
S315080067C008791081487950810120214908702149AA
S315080067D002AA40F60000334600F0EAFD06200290C1
S315080067E00CE03946203103AA012340F2004000F0AC
S315080067F0DFFD04A80399C155761C0298F7B2B84282
S31508006800EFDC0026E24F1BE004A98B5C0725B2FBF0
S31508006810F5F12C464C43141B3C19E370531CB3FB8F
S31508006820F5F46C431B1B441E944200D03BB9481C2C
S31508006830B870BA1C01980099FDF768F90298761C99
S31508006840F2B29042E0DC012007B0F0BD5A00002009
S3150800685052000020D707000080B5364A1378EA4967
S315080068608B705378CB7093780B71D3784B711379FF
S315080068708B715379CB7193790B72D2794A728A1CD0
S315080068809721FDF743F9012080BDC046E0040020AA
S3150800689080B508490A88DC4B5A804A889A808A88D3
S315080068A0DA80C98819819A1C9821FDF72FF90120E9
S315080068B080BDC04650110020E0040020F8B504460B
S315080068C0F94F0025BD70009517496E4640F6000041
S315080068D032462B4600F06CFD7520F8703020387172
S315080068E012480090124940F6000032462B4600F046
S315080068F05FFD7D710F48007800998D4205D201220F
S31508006900AA406D1C0242F8D07D71002078710A48B1
S315080069103881BA1C99212046FDF7F8F8012001B004
S31508006920F0BDC046E0040020F707000030750000FF
S31508006930E90300001400002041300000FEB5019074
S3150800694000250295664EF11D02AFD64C40F60000B2
S315080069503A462B46A047FB490298C870000A887039
S3150800696040F6000031463A4600972B46A047642475
S31508006970029890FBF4F0F34A5071010A11710290E3
S3150800698040F6000031463A462B46C64FB8470298AD
S3150800699090FBF4F0EB4AD071010A91711746029008
S315080069A04F3640F600003146009A2B46BD4DA847A3
S315080069B0029890FBF4F07872010A39720290BA1CB8
S315080069C09A210198FDF7A2F8012003B0F0BDC04650
S315080069D0B1730008E0040020B0B50022074B144646
S315080069E0E1B2032906D889005D58641C0121854255
S315080069F0F6D100E011460846B0BDC04604E40008DA
S31508006A00BCB50024019440F6A070801DFDF72EFE4B
S31508006A1018B905F015FA002568B10C4901AA40F61F
S31508006A200000234600F0C4FC41F2C020012501996C
S31508006A30814200DB254640F6A070FDF717FE0121CE
S31508006A4000B10D46284602B0B0BDC046DF070000BB
S31508006A50012110280CD30221502809D30309032148
S31508006A609022092B04D33032D2B20421904201D2AB
S31508006A70C8B270473030C2B205200021202A00D3A0
S31508006A8008467047FEB5019000240294144F02AEE2
S31508006A9040F6000039463246234600F089FCEC4DA4
S31508006AA002986871010EA970010CE970000A287134
S31508006AB0F91C40F600003246234600F079FC02989D
S31508006AC06872010EA971010CE971000A2872AA1CE4
S31508006AD050210198FDF71AF8204603B0F0BDC046CC
S31508006AE0F1030000E0040020FEB5019000240294A2
S31508006AF002AEF94F40F6000040F2E831324623462E
S31508006B00B847F64D0298A87040F2E830411C40F6A6
S31508006B10000032462346B8470298E87040F2E8304B
S31508006B20811C40F6000032462346B8470298287171
S31508006B3040F2E830C11C40F6000032462346B8470A
S31508006B400298687140F2E830411D40F6000032466E
S31508006B502346B8470298A87140F2E830811D40F6EE
S31508006B60000032462346B8470298E87140F2E830FA
S31508006B70C11D40F6000032462346B84702982872DF
S31508006B80AA1C51210198FCF7C1FF204603B0F0BDAD
S31508006B90E0040020FEB5019000240294194F02AECD
S31508006BA040F6000039463246234600F001FC40F222
S31508006BB0E831029890FBF1F0FA4D6871010EA97060
S31508006BC0010CE970010A29710290791C40F600004F
S31508006BD03246234600F0ECFB029840F2E83190FB7F
S31508006BE0F1F06872010EA971010CE971010A2972A6
S31508006BF00290AA1C52210198FCF788FF204603B090
S31508006C00F0BDC046F5030000E0040020FEB5019083
S31508006C1000240294224F02AEE14D40F600003946A8
S31508006C2032462346A847DF49029888703946093113
S31508006C3040F6000032462346A8470298D949C8704C
S31508006C403946133140F6000032462346A8470298D3
S31508006C50010EF74D2971010C6971000AA8713946B0
S31508006C600A3140F6000032462346F04DA8470298FE
S31508006C70EF490872000AC8713D3740F600003946E8
S31508006C8032462346E94DA8470298E94948728A1CC4
S31508006C9053210198FCF73AFF204603B0F0BDC046E1
S31508006CA0F3030000B1730008E0040020F0B58BB0D0
S31508006CB0044600250A9568462821FCF738FA204E2E
S31508006CC02F4612E0B9190AAA002340F6000000F080
S31508006CD06FFB0A98010E6A4651555119C870020C85
S31508006CE04A70000A88702D1D7F1C202DEAD10020CD
S31508006CF00125F04E13E06F463F5C1F54471C1F28C2
S31508006D0001D0824209D1C0B2B0FBF1F0401CB0708C
S31508006D10B21C57212046FCF7F9FE6D1C38460721A0
S31508006D20B5FBF1F24A43521EB0FBF1F30627FF43C7
S31508006D305F43F319DB1C2028DDD100200BB0F0BD22
S31508006D40FE030000E0040020FEB501900024029432
S31508006D5040F2104702AED64D40F6000040F2104110
S31508006D6032462346A847E8490298C870000A887040
S31508006D7040F210410E3140F6000032462346CC4D13
S31508006D80A8470298F5494871000A0871791C40F627
S31508006D90000032462346C64DA8470298EF4DE871D3
S31508006DA0000AA8710F3740F60000394632462346D6
S31508006DB0BF4EB04702986872000A2872AA1C592169
S31508006DC00198FCF7A3FE204603B0F0BDFEB501907E
S31508006DD0002402941D4F02AEB54D40F60000394618
S31508006DE032462346A847F3490298C870000A8870B5
S31508006DF039460E3140F6000032462346AC4DA847C8
S31508006E000298EC494871000A0871791C40F600009E
S31508006E1032462346A64DA8470298FD4DE871000A5A
S31508006E20A8710F3740F60000394632462346A04E71
S31508006E30B04702986872000A2872AA1C5A2101985B
S31508006E40FCF764FE204603B0F0BDC0460A04000005
S31508006E50E0040020FEB50190002402941D4F02AE06
S31508006E60934D40F60000394632462346A847F64970
S31508006E700298C870000A887039460E3140F600003C
S31508006E80324623468A4DA8470298EF494871000AB8
S31508006E900871791C40F6000032462346844DA847FF
S31508006EA00298E94DE871000AA8710F3740F600000C
S31508006EB0394632462346FC4EB04702986872000AA5
S31508006EC02872AA1C5B210198FCF720FE204603B015
S31508006ED0F0BDC0460E040000B1730008E0040020AF
S31508006EE0FEB50190002402942C4EB11C02AFEE4D63
S31508006EF040F600003A462346A847F74902988870A4
S31508006F003146103140F600003A462346E64DA8477A
S31508006F100298F149C870F11C40F600003A4623462B
S31508006F20E14DA8470298EC4908713146113140F6FF
S31508006F3000003A462346A8470298FB49487140F69E
S31508006F40000031463A462346A8470298F649887112
S31508006F5031460E3140F600003A462346A8470298C5
S31508006F60F149C871711C40F600003A462346A84705
S31508006F700298ED4D28720F3640F6000031463A4623
S31508006F802346C94EB04702986872AA1C5C2101982C
S31508006F90FCF7BCFD204603B0F0BDC0461304000054
S31508006FA0B1730008E0040020FEB5019000240294A5
S31508006FB01D4F02AEBC4D40F6000039463246234608
S31508006FC0A847FA490298C870000A887039460E31EF
S31508006FD040F6000032462346B34DA8470298F349C7
S31508006FE04871000A0871791C40F6000032462346AB
S31508006FF0AD4DA8470298ED4DE871000AA8710F3704
S3150800700040F60000394632462346A74EB047029856
S315080070106872000A2872AA1C5D210198FCF776FDA1
S31508007020204603B0F0BDC0460C040000B17300084A
S31508007030E0040020FEB50190002402941B4F02AE26
S31508007040994D40F60000394632462346A847D749A7
S315080070500298C870000A887039460E3140F600005A
S3150800706032462346904DA8470298D0494871000AEF
S315080070700871791D40F60000324623468A4DA84716
S315080070800298CA4DA871133740F6000039463246B1
S315080070902346854EB0470298E871AA1C5E210198DE
S315080070A0FCF734FD204603B0F0BDC04612040000CC
S315080070B0B1730008E0040020FEB501900024029494
S315080070C0104E02AF40F6000031463A46234600F01D
S315080070D06FF9B64D0298E870000AA870711C40F660
S315080070E000003A46234600F063F902986871000AE0
S315080070F02871AA1C5F210198FCF708FD204603B0F9
S31508007100F0BDC046FA030000E0040020FEB5019079
S3150800711000240294104E02AF40F6000031463A466B
S31508007120234600F045F9A14D0298E870000AA870B8
S31508007130711C40F600003A46234600F039F90298D9
S315080071406871000A2871AA1C60210198FCF7DEFC08
S31508007150204603B0F0BDC04626040000E004002027
S31508007160F8B5009000200125904E134F10E03C5CC6
S315080071701C54441C824209D1C0B2B0FBF1F0401C39
S31508007180B070B21C62210098FCF7C0FC6D1C20464A
S315080071900721B5FBF1F24A43521EB0FBF1F3062470
S315080071A0E4435C433319DB1C0E28E0D1012001B00F
S315080071B0F0BDC046E004002064010020F8B5009048
S315080071C000200125794E134F10E03C5C1C54441CEA
S315080071D0824209D1C0B2B0FBF1F0401CB070B21CBB
S315080071E063210098FCF792FC6D1C20460721B5FB2D
S315080071F0F1F24A43521EB0FBF1F30624E4435C4322
S315080072003319DB1C0E28E0D1012001B0F0BDC046C1
S31508007210E004002056010020BCB50446094901AA2D
S31508007220002340F6000000F0C3F860480125C57049
S3150800723001998170821C65212046FCF767FC284667
S3150800724002B0B0BD2A040000E0040020FEB501909B
S31508007250144DA91D02AE0027134C40F60000324615
S315080072603B46A04751490298887040F600002946D7
S3150800727032463B460C4CA04702984C4908710935E2
S3150800728040F60000294632463B46074CA04702987E
S31508007290464988718A1C66210198FCF737FC01204B
S315080072A003B0F0BD2B040000B17300081CB50446FA
S315080072B0084901AA002340F6000000F079F83B4887
S315080072C001998170821C67212046FCF71FFC01206A
S315080072D002B010BD32040000E0040020FEB50190A3
S315080072E0104D02AE002740F60000294632463B46BE
S315080072F000F05EF82D4C0298A0704A3540F6000062
S31508007300294632463B4600F053F802982071000A97
S31508007310E070A21C68210198FCF7F8FB012003B075
S31508007320F0BDC046E9030000E0040020F0B58BB0CC
S31508007330044601AD28212846FBF7F9FE284606F043
S3150800734010FCE87FA5282DD101AD1E212846FDF7A2
S3150800735043FAE877000AA87700200125134E13E0C0
S3150800736001AF3F5C1F54471C1F2801D0824209D138
S31508007370C0B2B0FBF1F0401CB070B21C6A212046C6
S31508007380FCF7C4FB6D1C38460721B5FBF1F24A43EE
S31508007390521EB0FBF1F30627FF435F43F319DB1CCC
S315080073A02028DDD100200BB0F0BDC046E004002047
S315080073B0B0B50446002062B340F60005AC420AD0D8
S315080073C040F20045AC4224D1362922D8012B20D1DF
S315080073D0880018491AE00F4BCB18582B02D898008A
S315080073E0134913E00C4BCB18272B02D898000F49EA
S315080073F00CE00A4BCB18322B02D898000A4905E054
S31508007400074BC918252904D888000649085810606A
S315080074100120B0BD18FCFFFF30F8FFFF48F4FFFF5E
S3150800742060F0FFFF801A0020B01700207C180020AB
S315080074301C1900201C1B00201CB500240194009474
S315080074400F4901AA40F600002346FFF7B1FF0D4990
S315080074506A4640F600002346FFF7AAFF00F030FB15
S3150800746050B90198552807D000F016FB28B900989E
S31508007470A52801D05A2800D10124204602B010BD03
S31508007480F60700003404000070B50023064CDDB290
S315080074900A2D08D8ED00665D5B1C8E42F7D161198E
S315080074A04B681146984770BDC0EC000870B50023BC
S315080074B0064CDDB2132D08D8ED00665D5B1C8E42C6
S315080074C0F7D161194B681146984770BD14F2000848
S315080074D010B5002240F25C1304E08C000419E4584D
S315080074E01CB1521CD1B22529F7D9084610BD002275
S315080074F004E08B00C318DB691BB1521CD1B22529E5
S31508007500F7D9084670470000B0B5134D284606F06F
S31508007510BFFA124800240122214642F2000305F070
S31508007520CEFFED35284606F0B3FA0720214606F0C9
S3150800753067F802250D21284606F082FC42F2000073
S3150800754021462A4605F014FF42F20000B0BC02BCF0
S315080075508E4605F03DBFC0461305000000080048EA
S31508007560F8B504466D466970080A28706C4940F2F9
S31508007570E830884741220127204629463B46FCF742
S3150800758024FA064640F2E830654988473D434222D8
S31508007590204629463B46FCF718FA044640F2E830EE
S315080075A05F4988473440204601B0F0BDDA482021BB
S315080075B0012205F077BFC04670B50C01144D2C1991
S315080075C0A45C07252540E408AA2B10D0552B1DD10D
S315080075D001231E4696408900425832434250E8B27B
S315080075E08340E0B20B490818017D19430DE00123D9
S315080075F01E46964089004258B2434250E8B283403C
S31508007600E0B204490818017D9943017570BDC0466A
S3150800761086080020000000201CB501AC207040F24E
S31508007620E83000F043F90020402201232146FCF708
S31508007630CCF9044640F2E83000F038F9204602B0AA
S3150800764010BD00003A480A307047C0460148343039
S315080076507047C046B0050020E0B5002301930E49E7
S3150800766001AA40F60000FFF7A3FE0C4801462F3199
S3150800767003460D33019A012A00D0194609780346B4
S315080076802E330C30012A00D003461878000208432E
S3150800769080B202B080BDC0463E040000C00600208D
S315080076A09D482021002205F0FDBEC046FEB50026F5
S315080076B0029601A8067005F049F902AA40F60000EC
S315080076C040F2E8313346FFF773FE194923E04C19B7
S315080076D0607905281ED340F2E8301149884700969C
S315080076E001AE70220127284631463B46FCF76DF964
S315080076F040F2E8300A498847712228463146009EFA
S315080077003B46FCF762F940F2E830054988470849E4
S3150800771000206071761CF5B20298A842D7DCFEBD3F
S31508007720AD7800080248007800B1704705F01CBA29
S31508007730500000207CB501A8C026067000240094DD
S315080077406A4640F6000040F2E8312346FFF730FE6D
S3150800775011E040F2E83000F0A9F8012383F310881D
S3150800776030462A30C2B201A92846FCF72EF9002075
S3150800777080F31088641CE5B20098A842E9DC012071
S3150800778002B070BDF8B53B4F384606F081F90920BE
S31508007790C00600250226012429463246234605F05E
S315080077A08EFEEF37384606F073F90520294605F0B0
S315080077B027FF2846294606F043FB20462946324637
S315080077C005F0D6FD2046F8BC02BC8E4605F000BE84
S315080077D0B0B500F04CF908B100F04EFD254D28462D
S315080077E006F056F90920C00600242146224641F231
S315080077F0000305F064FEEF35284606F049F9072030
S31508007800214605F0FDFE0C21204606F019FB022252
S3150800781041F20000214605F0ABFD41F20000B0BC84
S3150800782002BC8E4605F0D4BD70B5124E304606F041
S315080078302FF90920C0060025022429462A46234690
S3150800784005F03DFEEF36304606F022F905202946BA
S3150800785005F0D6FE0121284606F0F2FA204629460A
S31508007860224605F085FD204670BC02BC8E4605F012
S31508007870AFBDC04611050000B0B50A4C0A4A00253E
S3150800788040F6000021462B4602F0ACFF611C40F68C
S3150800789000002A462B46039CA646B0BC01B002F05F
S315080078A0A1BFC046D207000030750000052141433C
S315080078B0044803E00278521C0270491E0029F9D1D7
S315080078C07047C046AB17002070B5124E304606F01A
S315080078D0DFF87D480025042429462A46234605F074
S315080078E0EEFDEE36304606F0D3F80620294605F0BA
S315080078F087FE01200226314606F0A2FA20462946CE
S31508007900324605F035FD204670BC02BC8E4605F0B1
S315080079105FBDC0461205000000040048704710B558
S31508007920002007210124224604F090F9204604F09D
S31508007930DFF9022004F080F90028FAD0022004F0CA
S3150800794075F910BC01BC864604F0CCB9FEB502A890
S31508007950002202800192009240F6000640F60000DE
S3150800796040F6B071134602F03DFFFFF7D8FF010954
S31508007970A52902D302A8364C20E02D49884202D315
S3150800798002A8324C1AE040F60001BC3989B2884296
S3150800799002D902A82C4C11E02649884203D302A832
S315080079A041F640740AE02449884202D302A8254CCD
S315080079B004E0224C224988422DD302A80480A1B2B1
S315080079C00420002502AC2A462346FCF71FFA208825
S315080079D06421B0FBF1F01F4F3880B4B201AA2046EB
S315080079E040F6B0712B46FFF7E3FC1B496A46204672
S315080079F02B46FFF7DDFC1949019830B9009840F28B
S31508007A004A12904201DA3A8800E0154A00232046D5
S31508007A1002F0E8FEFEBD02A90C809528CFD8B0B2C8
S31508007A200122002340F6B07102F0DCFEC7E7C0462B
S31508007A30C7080000DB050000BC0400001027000092
S31508007A40BB03000028230000581B00007017000025
S31508007A50881300001A1B002027040000F407000002
S31508007A60FFFF00000920C006012105F022BD0920FC
S31508007A70C00641F2000105F01CBD0920C00602211E
S31508007A8005F017BD0920C00648F2000105F011BD32
S31508007A90CD48042105F00DBD80B5C74842F2000166
S31508007AA005F007FD0021091A484180BD80B5092067
S31508007AB0C006102105F0FDFC0021091A484180BDC9
S31508007AC0C148012105F0F5BC00040048F0B589B0AD
S31508007AD0012668460024046044608460C660B54890
S31508007AE0871CB548B54D44F200013A46059733461A
S31508007AF0A847B348B34DA847684604604460846005
S31508007B00C660AD4848F200013A463346AB4FB8471F
S31508007B10AB48A8476846046044608460C460A54DC5
S31508007B206A1C0892A84840F200213346B847A44880
S31508007B30A44988476846022106910460416084602A
S31508007B40C4600920C7063846079731462A462346A1
S31508007B509A4DA8476846046044608460C46020253E
S31508007B6038462946934A3346944FB84768460460D0
S31508007B7044608460C46094482946089D2A46334672
S31508007B80B8476846046044608460C4608E4840F222
S31508007B9000112A462F463346884DA847684650C0E6
S31508007BA004604460844842F20001059A2346A847C7
S31508007BB0684650C0046044601021049107987D4AC5
S31508007BC02346A847684603210591046044608160FE
S31508007BD0C6607D4841F200013D463A463346774F36
S31508007BE0B84768460460446005998160C66076486F
S31508007BF042F200012F462A463346704DA84768468A
S31508007C0004604460059D8560C6606F4844F20001C3
S31508007C103A463346694FB84768460460001D70C047
S31508007C20694848F20001089A3346644FB8476846DF
S31508007C300460001D70C0644840F20041089F3A463F
S31508007C4033465E4DA847684604604460059D8560D6
S31508007C50C6605D4840F600013A463346574FB84776
S31508007C606846046044608460C4608021079F384683
S31508007C70504A2B46514DA8476846046044608460C4
S31508007C80C460384641F200014A4A23464B4DA8478C
S31508007C906846046044608460C460384640F6000163
S31508007CA0444A3346A847684604600699416084609A
S31508007CB0C460454D28463146089F3A4623463F4DFF
S31508007CC0A8476846046044608460C4603E480499D6
S31508007CD03A463346394FB84768460460446084607C
S31508007CE0C4604021079D2846324A3346B84768464D
S31508007CF0046044608460C46004213348089A2346BB
S31508007D002E4FB8476846046044608460C4602846BD
S31508007D100699284A2346B8473D46684604604460A3
S31508007D208460C46008212848089A3346B8476846DC
S31508007D30046044608460C660079F384640F20011BC
S31508007D401C4A3346A8476846046044608460C66097
S31508007D50384640F20021174A3346A8476846046069
S31508007D6044608460C660384640F20041114A334692
S31508007D70A8476846046044608460C460124806994F
S31508007D800D46089A33460D4EB047384629462A46C8
S31508007D9048F2000305F093FB684630C0046044606F
S31508007DA0384648F20001F64A2346F64CA04709B081
S31508007DB0F0BDC0461105000000080048CD7D00084A
S31508007DC010270000AD7800080004004870B51E466C
S31508007DD00C460546104605F05BFE059A28463146D0
S31508007DE0234605F06CFB012E0ED1079E069A0499D0
S31508007DF02846234605F081FB28462146324670BCB4
S31508007E0008BC9E4605F04EBB70BD0000F0B58DB0AF
S31508007E10012568460024046044608460C560F24F0A
S31508007E207A1C0C92F448D74E40F200212B46B047F4
S31508007E30D548D64988476846046044608460C4606B
S31508007E40BF1CD34848F200013A460A972B46B0476A
S31508007E50D04E3046CD498847684604604460846001
S31508007E60C560CB4844F200013A462B46C54FB84791
S31508007E703046C64988476846022109910460416030
S31508007E808460C4600920C70638460B972946D64A37
S31508007E902346BC4EB0476846046044608460C460AC
S31508007EA0202638463146D04A2B46B64FB84768464C
S31508007EB0046044608460C460EE4F384631460C9EC8
S31508007EC032462B46AF4FB847684604604460846024
S31508007ED0C460E84840F20011324637462B46A94EA0
S31508007EE0B047684630C004604460A94842F20001C1
S31508007EF00A9A2346B047684630C004604460102199
S31508007F0006910B98B84A2346B04768460321046091
S31508007F10446081600A910E46C460D64841F2000169
S31508007F203A462B46974FB8476846046044608660D1
S31508007F30C460D04842F200010C9F3A462B46914E47
S31508007F40B0476846046044600A998160C560C948BC
S31508007F5044F200013A463E462B468A4FB8476846E1
S31508007F60046044600A998160C560C24848F200010D
S31508007F7032462B462E460795824FB8476846046018
S31508007F8044600A9D8560C460BA4840F200410C9F6F
S31508007F903A4633467B4EB04768460460446085607F
S31508007FA0C460B44840F600013A46079D2B46754E14
S31508007FB0B0476846046044608460C46080210891C4
S31508007FC00B9F3846884A0A9B6E4EB047684604603F
S31508007FD044608460C460384641F20001824A234600
S31508007FE0684EB0476846046044608460C46038469A
S31508007FF040F600017C4A2B46B0476846046009995A
S3150800800041608460C4609B4E304629460C9F3A46C0
S3150800801023465C4EB0476846046044608460C4608A
S31508008020944806993A462B46564EB0476846046029
S3150800803044608460C46040210A910B9F38466A4AAE
S315080080402B46B0476846046044608460C4600421D7
S31508008050069188480C9D2A462346B0476846046020
S3150800806044608460C460384609995F4A2346B0472D
S315080080706846046044608460C460082105917D48B0
S315080080802A46079D2B46B0476846046044608460CC
S31508008090C460384640F20011534A2B46B04768463A
S315080080A0046044608460C460384640F200214E4A49
S315080080B02B46344EB0476846046044608460C4600A
S315080080C0384640F20041484A2B462E4FB847684684
S315080080D0046044608460C4606648099E31460C9A10
S315080080E02B46B847684650C0046044600B9D284636
S315080080F048F200013C4F3A462346224FB8476846A5
S3150800810050C00460446028460699374A23461D4FE6
S31508008110B847684650C00460446028460599324A04
S315080081202346184DA847684650C004604460514F1E
S3150800813038460A990C9D2A462346124FB847684680
S3150800814050C0046044604B4808992A462346B847FD
S31508008150684650C0046044602348451D0E480A9985
S315080081602A462346074FB847684650C0046044600D
S31508008170094808992A462346024CA0470DB0F0BD87
S3150800818011050000CD7D0008C0270900AD7800085C
S31508008190000800481027000000140048F8B5124FE0
S315080081A0384605F075FC0920C0060025012610246E
S315080081B029463246234605F082F9EF37384605F058
S315080081C067FC0720294605F01BFA0421284605F016
S315080081D037FE20462946324605F0CAF82046F8BC3E
S315080081E002BC8E4605F0F4B8110500000246214887
S315080081F0082105F057B9C046000400480246092080
S31508008200C00640F2001105F04DB902460920C00625
S3150800821040F2002105F046B970477047024609202A
S31508008220C00640F2004105F03DB90000024611487B
S31508008230102105F037B9C04602460920C00640217C
S3150800824005F030B9E0B500230193094901AA40F6C3
S315080082500000FFF7ADF807480199012902D102216C
S31508008260002201E00221012205F01CF98CBDC0465E
S315080082703F04000000040048012080F31088BFF383
S315080082804F8F034803490160BFF34F8F00BFFDE7D7
S315080082900CED00E00400FA05F8B51949411889B251
S315080082A0184A914208D919490122002440F60000CB
S315080082B0234602F097FA1FE04821002491260BE096
S315080082C09CB2AEB2371BA21B012A13D0012F11D0C4
S315080082D0A11949081E462C468BB25B000A4AD75A92
S315080082E087420B4600D3334687420D4600D82546BB
S315080082F08742E5D164244C43A0B201B0F0BDC04624
S31508008300CAF5FFFFCC6F000032EE0008BB0F000075
S31508008310084809494160FF210906084A13688B4342
S315080083200321890719431160002181600721016033
S315080083307047C04610E000E07FBB000020ED00E07B
S315080083400146134805F0E6BD80B50320FDF790FA0F
S315080083500920C0062021012205F0A4F80C480721AF
S3150800836080BC04BC964605F0FCBDC04680B5092015
S31508008370C0062021002205F095F80320FDF778FABB
S315080083800348072180BC04BC964605F0F3BDC046E9
S31508008390003801400146054805F0BCBD03480721E1
S315080083A005F0DFBD0148072105F0E4BD00440040A3
S315080083B07CB5002401941D4901AA40F60000234615
S315080083C0FEF7F6FF1A480168644A501A8A18019996
S315080083D0914215DA814213DDFFF749FB80B94F4D0B
S315080083E02846FCF743F9012648B9A81DFCF73EF9CB
S315080083F028B903F043FD10B904F08CFB18B13446D4
S31508008400204602B070BDFFF747FB0028F8D1FFF7FA
S315080084104DFB0028F4D10748007807490A788242BC
S315080084203446EDD008700024EAE7C046D2070000BB
S31508008430B000002060110020820B0020FEB5002548
S315080084400295019540F60007314C02AA40F6000055
S3150800845021462B46FEF7ACFFFFF7AAFF2D4E3168E3
S31508008460491C012800D0294631602B4B187908B1E0
S31508008470401E1871B8B22146373101AA002500906E
S315080084801F462B46FEF794FFFFF706FB3979014393
S315080084900198A52803D1080601D1022002901F4F92
S315080084A03846FCF7E3F848B9B81DFCF7DFF828B9F1
S315080084B003F0E4FC10B904F02DFB70B10120164B53
S315080084C018707068401C70603168029A91420DD22B
S315080084D0062901D3372809D2FEBD00200E4B187095
S315080084E070600F4909780029F6D1EDE735601D4619
S315080084F001F05AF828782C3408B9012200E0A522A0
S3150800850000230098214602F06DF900F00BF8C046EA
