S31508003000E8180020E1300008317D0008997B0008A7
S3150800301000000000000000000000000000000000A2
S31508003020000000000000000000000000D583000832
S315080030300000000000000000B57D0008D5980008D3
S31508003040F3300008F3300008F3300008F3300008C6
S31508003050F3300008E1560008E5560008E95600086E
S3150800306000000000F3300008F3300008F3300008D1
S31508003070F3300008F3300008F330000800000000C1
S31508003080F3300008F330000800000000F3300008B1
S31508003090F3300008F3300008F3300008F330000876
S315080030A0F3300008F3300008F3300008F59D0008F7
S315080030B0599E000800000000000000000000000003
S315080030C0F330000800000000F33000080348854686
S315080030D000F038F800480047B9E20008E818002070
S315080030E00448804704480047FEE7FEE7FEE7FEE798
S315080030F0FEE7FEE739990008CD30000803460B4382
S315080031009B0703D009E008C9121F08C0042AFAD28F
S3150800311003E00B780370401C491C521EF9D2704715
S31508003120D2B201E00270401C491EFBD27047002251
S31508003130F6E710B513460A4604461946FFF7F0FFA8
S31508003140204610BD064C0125064E05E0E36807CC6F
S315080031502B430C3C98471034B442F7D3FFF7BAFF19
S3150800316058FC000878FC000830B58C180278401C1A
S3150800317013071B0F01D10378401C120906D10278E8
S31508003180401C03E005780D70401C491C5B1EF9D1F4
S3150800319001E00B70491C521EFBD1A142E6D3002068
S315080031A030BD000010B503F077FF05490C78FE2204
S315080031B022400123234300B11A460A7010BDC046B7
S315080031C0410C0020F0B585B000260496039640F61B
S315080031D0000404AA40F6000040F2E831334603F042
S315080031E089FC1C4FA0B2019035462DE0029640F2AC
S315080031F0E8302018411D03AA00260198334603F03B
S3150800320079FC1BE033216143364A511840000818FF
S31508003210C17980790002084380B204F02FFBB9B265
S31508003220884200D3384680B26421B0FBF1F0E9B297
S315080032304900094A5118C880761C6D1CF0B20399DA
S315080032408142DFDC029E761CF4B20498A042CDDCF3
S3150800325005B0F0BD74400000C0000020F0B585B090
S3150800326000260496039640F6000404AA40F60000D9
S3150800327040F2E831334603F03DFCA0B201901C4F02
S31508003280354628E0029640F2E8302018411C03AA89
S3150800329000260198334603F02DFC039816E03322E6
S315080032A06243104B9A1849005118CA7B897B090258
S315080032B0114305234B435A090B498B420B4900D846
S315080032C01146EAB25200B952761C6D1CF1B2884218
S315080032D0E5DC029E761CF4B20498A042D2DC05B066
S315080032E0F0BDC046500500201F710200881300007B
S315080032F010050020F0B5A9B014460E46054609A8E3
S315080033008021FFF714FF00F0D5F83420029000F072
S3150800331075F904F047FF002800D1B2E0304600F006
S315080033206DF904F03FFF002800D1B0E0204600F018
S3150800333065F904F037FF002800D1AEE000F0BAF8CE
S31508003340352000F05BF904F02DFF002800D1AAE033
S3150800335001960495039400201FE00498445400271E
S31508003360BC4848F200013A46744EB0471E25284626
S31508003370B94CA0470122B74E304644F200016F4BC4
S3150800338098472846A047304644F200013A466B4B18
S3150800339098472846A0470598401C059080B2069095
S315080033A000F038FB00210C4622E007910127A94EC0
S315080033B0304644F200013A460AF01EFF1E2528460A
S315080033C00AF034FC304648F200010AF01CFF0446B5
S315080033D00022304644F200010AF00EFF28460AF0A1
S315080033E025FC04B92746089C64003C430799491CF8
S315080033F0C8B207280894D8D900F022FB039D06997D
S31508003400A942AAD30124934848F2000122464B4B0D
S3150800341098471E273846904EB0478E4844F200011A
S315080034202246464B984738463C46B04700278948C7
S3150800343044F200013A46414B98472046B04700F00F
S315080034405FF887F3108809A80199417002990170FD
S3150800345085703521C170049B04E0195C09AA10180F
S3150800346001717F1CB8B2A842F7D3281DC1B209A8BA
S3150800347000F05AFF0899C9B2091A0020401A4841B3
S3150800348016E000F03DF8002080F3108810E000F008
S3150800349037F8002080F310880AE000F031F80020A1
S315080034A080F3108804E000F02BF8002080F31088E1
S315080034B029B0F0BDF8B5EC480126EC4C44F2000101
S315080034C03246A0471E25EA4F2846B847E64848F23E
S315080034D000013246A0472846B8470026F44848F275
S315080034E000013246A0472846B847F14844F2000191
S315080034F03246A04728463946F8BC04BC96460847D3
S31508003500F8B5EB480022EB4C48F20001A0471E250F
S31508003510E94F2846B8470126E54844F200013246F5
S31508003520A0472846B847E24848F200013246A04775
S3150800353028463946F8BC04BC96460847F9E100080F
S31508003540F0B5A1B014460F46054601AEB01C7E2163
S31508003550FFF7EDFD777034203070002004E06A5CD8
S3150800356001AB59188A70401C81B2A142F7D3A01C3E
S31508003570C1B201A800F0D8FE0090012686F3108893
S31508003580FFF798FF342000F039F804F00BFE00B37B
S31508003590384600F033F804F005FE00B3002707E0CC
S315080035A0287800F02BF804F0FDFDF0B17F1C6D1CA7
S315080035B0B8B2A042F4D3009800F020F804F0F2FD67
S315080035C00446FFF79DFF002080F3108894B926462D
S315080035D010E0FFF795FF002686F310880AE0FFF74C
S315080035E08FFF002686F3108804E0FFF789FF002680
S315080035F086F31088304621B0F0BD0000F8B50026E5
S31508003600F44C22E04100009140B2002801DB002280
S3150800361000E00122EE4F384648F200010AF0ECFDC0
S315080036201E252846A0470122384644F200010AF022
S31508003630E3FD2846A0470022384644F200010AF076
S31508003640DBFD2846A047761C0098F1B20729D9D990
S31508003650F8BDC046000400482DDC0008F0B5A9B046
S3150800366014460E46054609A88021FFF760FD00F0BE
S31508003670D5F83420029000F07FF904F0B7FD002851
S3150800368000D1B2E0304600F077F904F0AFFD00282B
S3150800369000D1B0E0204600F06FF904F0A7FD00283D
S315080036A000D1AEE000F0BAF8352000F065F904F074
S315080036B09DFD002800D1AAE00196049503940020F8
S315080036C01FE0049844540027F34842F200013A46A2
S315080036D0784EB0471E252846BE4CA0470122FA4E12
S315080036E0304641F20001734B98472846A0473046BA
S315080036F041F200013A466F4B98472846A04705987D
S31508003700401C059080B2069000F0B0F900210C46E6
S3150800371022E007910127EC4E304641F200013A4675
S315080037200AF06AFD1E2528460AF080FA304642F25B
S3150800373000010AF068FD04460022304641F2000105
S315080037400AF05AFD28460AF071FA04B92746089C79
S3150800375064003C430799491CC8B207280894D8D97D
S3150800376000F09CF9039D0699A942AAD30124D648DC
S3150800377042F2000122464F4B98471E273846954E7F
S31508003780B047D14841F2000122464A4B984738468D
S315080037903C46B0470027CC4841F200013A46454B23
S315080037A098472046B04700F065F887F3108809A8BF
S315080037B0019941700299017085703521C170049B89
S315080037C004E0195C09AA101801717F1CB8B2A84256
S315080037D0F7D3281DC1B209A800F0A6FD0899C9B2F9
S315080037E0091A0020401A484116E000F043F8002064
S315080037F080F3108810E000F03DF8002080F3108870
S315080038000AE000F037F8002080F3108804E000F0A2
S3150800381031F8002080F3108829B0F0BDF8B5AA4821
S315080038200126244C41F200013246A0471E25694F65
S315080038302846B847A44842F200013246A04728461F
S31508003840B8470026A04842F200013246A04728465B
S31508003850B8479D4841F200013246A04728463946F6
S31508003860F8BC04BC9646084700040048F9E100087D
S315080038702DDC0008F8B5944800220E4C42F20001EF
S31508003880A0471E25534F2846B84701268E4841F2C1
S3150800389000013246A0472846B8478B4842F2000145
S315080038A03246A04728463946F8BC04BC964608471F
S315080038B000040048F9E100082DDC0008F0B5A1B0C5
S315080038C014460F46054601AEB01C7E21FFF72FFCB5
S315080038D0777034203070002004E06A5C01AB591818
S315080038E08A70401C81B2A142F7D3A01CC1B201A8BC
S315080038F000F01AFD0090012686F31088FFF78EFF68
S31508003900342000F039F804F071FC00B3384600F0B2
S3150800391033F804F06BFC00B3002707E0287800F0C2
S315080039202BF804F063FCF0B17F1C6D1CB8B2A04202
S31508003930F4D3009800F020F804F058FC0446FFF78A
S3150800394099FF002080F3108894B9264610E0FFF707
S3150800395091FF002686F310880AE0FFF78BFF002602
S3150800396086F3108804E0FFF785FF002686F31088A3
S31508003970304621B0F0BD0000F8B50026154C22E00F
S315080039804100009140B2002801DB002200E001223C
S315080039904D4F384642F200010AF02EFC1E252846F5
S315080039A0A0470122384641F200010AF025FC2846C4
S315080039B0A0470022384641F200010AF01DFC2846BD
S315080039C0A047761C0098F1B20729D9D9F8BDC04698
S315080039D0000400482DDC0008012805D048B908462F
S315080039E011461A46FFF786BC084611461A46FFF7DF
S315080039F035BE00207047012805D048B9084611464B
S31508003A001A46FFF79DBD084611461A46FFF756BFE8
S31508003A1000207047B0B52C4C0025204629462A467A
S31508003A2048F200030AF0F5FB03222046294648F22D
S31508003A300003039CA646B0BC01B00AF008BCC04609
S31508003A40B0B5214C0121002520462A4648F200033C
S31508003A500AF0DFFB03222046294648F20003039CAE
S31508003A60A646B0BC01B00AF0F2BBC046B0B5164CCB
S31508003A700025204629462A4642F200030AF0C9FBD9
S31508003A8003222046294642F20003039CA646B0BC00
S31508003A9001B00AF0DCBBC04600040048B0B50A4CC9
S31508003AA00121002520462A4642F200030AF0B1FB0E
S31508003AB003222046294642F20003039CA646B0BCD0
S31508003AC001B00AF0C4BBC04600040048B0B50146C0
S31508003AD0754CE089421C0523B2FBF3F55D43551B83
S31508003AE0228A954206D00D225043FA4B1818FFF742
S31508003AF005FBE581B0BDC046B0B50146F44C638907
S31508003B00581C1422B0FBF2F55543451BA289002028
S31508003B1095420BD0C87808B90820C8700D225343BF
S31508003B200348C018FFF7EAFA65810120B0BDC04610
S31508003B30590C002070B586B014460D46064602A8F4
S31508003B4000230373049303930293012001902649EB
S31508003B5001AA40F6000002F0CDFF012E22D0002E69
S31508003B6040D102AE0820F070B57040F2A510308042
S31508003B702078307160787071A078B071E078F07153
S31508003B802079307260797072A079B072E079F0723B
S31508003B90337B02AA07CA04F06DFB3073304600F087
S31508003BA067F81FE002AE0820F070B57040F2A51065
S31508003BB030802078307160787071A078B071E078C4
S31508003BC0F0712079307260797072A079B072E079FC
S31508003BD0F072337B02AA07CA04F04CFB30733046F6
S31508003BE0FFF78AFF06B070BD2A040000B0B501468B
S31508003BF0124C2089012585436289954206D0A22266
S31508003C005043034B1818FFF779FA2581B0BDC04613
S31508003C105E0D0020B0B50146084CA38801259D43DA
S31508003C20E2880020954207D0A22253430448C018D0
S31508003C30FFF764FAA5800120B0BDC0464000002009
S31508003C40A20E0020B0B50146B64CE088421C0523FA
S31508003C50B2FBF3F55D43551B2289954206D00D222A
S31508003C60504320181230FFF749FAE580B0BDC04628
S31508003C70B0B50146AB4C6388581C1422B0FBF2F56C
S31508003C805543451BA288002095420BD0C87808B931
S31508003C900820C8700D2253430448C018FFF72EFAAF
S31508003CA065800120B0BDC046F0010020E60F002067
S31508003CB0FEB5002702970197364C40F60000364EAF
S31508003CC085B2009750E0B8B2801E032821D881003B
S31508003CD001A251188F46C04600F006B800F00FB88A
S31508003CE000F002B800F00BB802AA002328463146B5
S31508003CF002F000FF68B1029802282DD009E002AA56
S31508003D0000232846314602F0F5FE10B10298012834
S31508003D1022D0A18801AA0023284602F0EBFE08B3A8
S31508003D200198552802D1218802260BE0618801AA4C
S31508003D300023284602F0DEFEA0B1019855280BD1D3
S31508003D402188012600232846324605F0EDFB009817
S31508003D5030430090104E05E021880022284613467D
S31508003D6005F0E2FBA41D7F1C0C2FACD10099093687
S31508003D70880706D4C80706D10022284631461346C6
S31508003D8005E0022200E0012200232846314605F01C
S31508003D90CBFBFEBD9EEC0008D3070000F0B553B37D
S31508003DA0059C2688751C9E4200D31D46258005E085
S31508003DB05B00D6180127FF43F65BD6526D1EABB2E1
S31508003DC0002BF5D11080258800242046234604E0E0
S31508003DD016889B19921CE41C401C8542F8D11A18B7
S31508003DE0B3FBF0F545435D1BA408A54200D81A4667
S31508003DF0B2FBF0F00880F0BDBCB5401E032830D8F1
S31508003E00840001A52C19A74600F006B800F00FB8E3
S31508003E1000F016B800F01AB85000134C20180C30F1
S31508003E206C4620609000124A1258032414E0500091
S31508003E300D4C20186C46206090000C4A12580AE077
S31508003E40084A684602600832052405E00548821CCF
S31508003E506C462260021D0224084619462346FFF7CF
S31508003E609DFFBCBDC001002030040020E8EC00081E
S31508003E7074EE000880B50AF001FF03F0E3F818B104
S31508003E8002480178491C017080BDC046580C0020C4
S31508003E90BFB5684600210173029101910091214D39
S31508003EA0288AE989884212D00D22504309490918FF
S31508003EB06C462046FFF722F9204600F01DFA288AAC
S31508003EC0401C0521B0FBF1F24A43801A2882BFBD87
S31508003ED0F001002080040020BFB568460021017368
S31508003EE00291019100910F4DA8896989884218D0DD
S31508003EF06978B1B9012169700D2250430A49091838
S31508003F006C462046FFF7FAF8204609F05BFD0128C3
S31508003F1007D1A889401C1421B0FBF1F24A43801A44
S31508003F20A881BFBDF0010020590C0020FEB5002471
S31508003F30029402AD40F6000040F2E8312A462346D4
S31508003F4002F0D8FDE74EAA2030702F7801940BE0D6
S31508003F50810071180D69A9B202F098FE1DB15520AD
S31508003F60307001200190641CE0B28742F0D83521F8
S31508003F70012340F20040019A05F0D6FAFEBDC0467C
S31508003F80F0B5C1B000200F900E90D64B9989491C08
S31508003F9099810D909F4A0A40D1084B2904D39E491E
S31508003FA09870481C988103E09878012800D12EE182
S31508003FB09A4E31460C310EAF0024994D40F600005A
S31508003FC03A462346A84731460D3140F600000C9183
S31508003FD03A462346A8470E980B9031460E3140F6CE
S31508003FE000003A462346A8470E980A9040F2E83160
S31508003FF0283140F600003A462346A8470FAA40F65D
S31508004000000031462346A847DF4B02200F990129B5
S315080040100AD1012002210A9A5F2A00DB0846814A52
S315080040200B9D954200DC0846587000F08DF9D64A7B
S3150800403010465078012800D0D0E021A88021FFF74B
S3150800404076F80025209540F6000084B220AF204679
S3150800405040F2E8313A462B46714EB047387802901E
S3150800406040F2E831123120463A462B46B0472098AE
S31508004070069040F2E831133120463A462B46B047BF
S3150800408020980590009420460C993A462C462B46D3
S31508004090B047BD4908460A308979012900D0384613
S315080040A00088049010AE304604F0A0FB18A8202221
S315080040B03146FFF723F80994039487E0500018A9BE
S315080040C0085A069981427CD840F2E8301018411CFB
S315080040D020AD0A92002300982A4602F00BFD0A9B9F
S315080040E028780990421E0F2A75D801940398C0B201
S315080040F00C900025089210E0980121A90C180C983C
S31508004100460004F07BFB089A0A9B80197900405AFE
S31508004110B9006052601885706D1CEFB20998B842F4
S31508004120EAD8002125E00791101A0B90002219E021
S315080041309D0121A84619601C8700F05BF1190C91B6
S31508004140A100745A761884420BD921AB5B19591809
S315080041508D783080D81983788B700A9B0C990C80DF
S315080041608570521CD4B20B98A042E1DC0799491C11
S31508004170089AC8B28242D6DC0998841E1CE09801C7
S3150800418021AA10188900435A049A9D1A5526F24303
S31508004190059FBD42154600D33546069E9E4200D869
S315080041A02A46D3B240188278774810300A9D2946A5
S315080041B002F090FD2B46641CE1B209988842DED8CD
S315080041C0019C0398099908180390641CE2B20298A6
S315080041D0904200D972E7FFF7A9FE18E040F6000002
S315080041E080B20DAA40F2E831234602F083FC03E0D0
S315080041F0002102F04BFD641CE0B20D998142F7DC08
S3150800420035210022012340F2004005F08DF941B026
S31508004210F0BDC046F8FF000057020000D3070000B3
S31508004220F56A00083F060000F0B585B0044600258B
S31508004230049504AE40F6000040F2E83132462B46BB
S3150800424002F058FCE84304B9204636784E4F03E09E
S315080042508900791808616D1CE9B28E42F8D80020E9
S31508004260C04304B92046182101E07854491C202986
S31508004270FBD1BC7044B3002140F6000080B2019027
S31508004280039100961CE040F2E83028180291411C80
S3150800429004AA0023019802F02DFCF878039C001B61
S315080042A080B2401E0121814089B23E46049F2846BD
S315080042B002F0ECFC02993C1903943746009E491C0F
S315080042C0CDB2AE42DFD808E0002403E0002102F0B8
S315080042D0DDFC641CE0B28642F8D80020B88105B03F
S315080042E0F0BDC0460000002002480178491C017054
S315080042F07047C0460414002080B54178402908D08C
S3150800430080290BD1074901230B708178021D1846B5
S3150800431002E08178021D012003F00CFD014800210E
S31508004320017080BD360C002010B50023054A05E053
S31508004330DBB204785C40135D491E401C0C06F7D1BD
S31508004340D8B210BDF4EE0008BCB50024019401AD46
S3150800435040F6000040F2E8312A46234602F0CAFB3E
S315080043602978094804E09200821800231361641C26
S31508004370E2B29142F7D8182102E000224254491CC1
S315080043802029FAD1BCBDC0460000002000F0CEB9F5
S31508004390FEB500230293019340F60004304901AAB2
S315080043A040F6000002F0A6FB019800B1FEBDA4B2DB
S315080043B0A14902AA0023204602F09CFB424D287818
S315080043C0401C2870C0B2282803D80298401C0290C6
S315080043D004E0642801D300202870029869788A00CE
S315080043E0AA189063491C0A22B1FBF2F35343C91A6F
S315080043F069701C4EB04224DA371A1B488742D5DC4E
S31508004400A86840F2E03260B92869A86040F2E03155
S3150800441011312A460C320023204602F06BFB40F28B
S31508004420E032E8682969424340F2E83092FBF0F04E
S31508004430814202DA6869C0196861A869C019A86169
S315080044400298B042B2DD5C494118084A9042ADDC98
S315080044506869401A6861E8694018E861FEBDC046A7
S31508004460BF0F000030750000A08C0000D0010100CD
S31508004470B0B500223821144802E043589A18091D9D
S315080044806029FAD10A2192FBF1F34B4A9A180F4C8C
S3150800449025460A35AA4209D2C188491C8BB20A2286
S315080044A00A2B00D31146C18000220BE00022C280ED
S315080044B0074D5B19A34205D28288521C93B20A2B78
S315080044C000D30A468280B0BD90020020671700001C
S315080044D040A2FFFFF8B50D4600240094032835D006
S315080044E0022816D001285ED1304D00246C80314E4A
S315080044F03268314810180A30142854D82F49002336
S3150800450040F6000005F010F801242C703068688029
S3150800451049E0264E3078012845D1284614382549E1
S3150800452009682A46143291423DDC81423BDB224827
S3150800453028181F4B5A1C521B9D4200DC10460225A8
S31508004540725F09B28A421DDA891A1DE0174F387858
S31508004550022828D138496A46002440F60000234636
S3150800456002F0C8FA0099284609F06EFB064610487C
S31508004570411C284609F068FBC008864213D2002071
S3150800458038700FE00FDD511A64224243B2FBF1F294
S315080045900A48411C002440F60000234604F0C4FFE4
S315080045A008B135700124204601B0F0BDD4010020C1
S315080045B02F750000380C0020D08AFFFF0704000082
S315080045C0BCB51C4D28460A3001901B4901AA002497
S315080045D040F60000234602F08DFA01981749A842D2
S315080045E00BDA0889421C0A8108460A3092B20B2A5D
S315080045F00ED3012088710A3109E04889421C4A8194
S315080046000846083092B2332A02D38C71083108461C
S31508004610048001F049FE01280AD1084CA079012836
S3150800462006D140F2E83005F005F80020A071A06038
S31508004630BCBDC04626750000D2070000D801002080
S3150800464080B500F0A1FE80BC01BC864600F06EBEB7
S31508004650BCB5002401940E49224695B20B2D14D8F8
S3150800466006236B43CD5A521C8542F6D1C818818859
S3150800467001AA002440F60000234602F03BFA20B1C6
S315080046800198553800210C1A4441204602B0B0BDA5
S315080046909EEC0008E0B5002301930E4901AA40F6F6
S315080046A0000002F027FA019810B90B480021417062
S315080046B000F0F6FE012801D1022000E0032009F0EF
S315080046C003FE0AF09BF808B1022000E0032009F077
S315080046D03DFA8CBDEC070000F0020020F8B500900A
S315080046E08C4C104A104B15E0009909784C40002173
S315080046F009E06608164037465F4001252C4200D07F
S315080047003E46491C3446CEB2072EF2D90099491CBA
S3150800471000910146481EFF263142E5D1A0B201B0FC
S31508004720F0BDC046FF7F000001A0FFFF10B50124C1
S31508004730204600F035F9204600F07CF8204600F0C7
S3150800474007F800F0EBF810BC01BC864600F044B947
S31508004750F0B587B00190002406946E4805900127AD
S315080047600394029430E040F2004086B22D2106AA56
S3150800477030462B4602F0BEF92E2105AA30462B46B6
S3150800478002F0B8F9012305980699012D01D11A46B8
S3150800479016E002465F4B1A40049DABB29A4200D31C
S315080047A028469A423A4600D3039A0B46594D2B405F
S315080047B0A5B2AB4200D82146AB423B4600D8029B85
S315080047C07F1C029303920C460490FDB20198854221
S315080047D0C9D9A2B2164D00274F4C40F6000029460B
S315080047E03B46A04740F2004086B20298C3B2312148
S315080047F006AA304602F07EF9069AA91D40F6000080
S315080048003B46A047691C049882B240F600003B4626
S31508004810A0470398C3B2322105AA304602F06AF9C6
S31508004820059AE91D40F600003B46A04707B0F0BDD3
S31508004830E1070000F0B587B00190002406943548DA
S31508004840059001270394029430E040F2004086B2B6
S31508004850292106AA30462B4602F04CF92A2105AA38
S3150800486030462B4602F046F9012305980699012D94
S3150800487001D11A4616E00246264B1A40049DABB2F1
S315080048809A4200D328469A423A4600D3039A0B46E0
S31508004890204D2B40A5B2AB4200D82146AB423B4641
S315080048A000D8029B7F1C029303920C460490FDB22B
S315080048B001988542C9D9A2B2374D0027164C40F651
S315080048C0000029463B46A04740F2004086B20298BF
S315080048D0C3B22F2106AA304602F00CF9069AA91D82
S315080048E040F600003B46A047691C049882B240F691
S315080048F000003B46A0470398C3B2302105AA3046BC
S3150800490002F0F8F8059AE91D40F600003B46A04774
S3150800491007B0F0BDFFFF0000299500087FB5002409
S3150800492003940294019400941B4D03AA1B4E40F66F
S31508004930000029462346B047691C02AA40F6000033
S315080049402346B047029A039B981AD11A934200DC71
S31508004950084682B2291D40F60000234604F0E4FD0D
S31508004960A91C01AA40F600002346B047E91C6A467E
S3150800497040F600002346B047009A019B981AD11AC0
S31508004980934200DC084682B2691D40F600002346C1
S3150800499004F0CAFD7FBDC046DF070000F56A0008BF
S315080049A07CB505460026019634460AE0761CF3B225
S315080049B0262101AA40F2004002F09CF8019800194D
S315080049C084B2F0B2A842F1D31449002340F600009D
S315080049D0224604F0A9FD7CBDBCB5002401940094D0
S315080049E00E4D01AA40F600002946234602F082F839
S315080049F0691D6A4640F60000234602F07BF86420EB
S31508004A0001994143009891FBF0F20C3540F60000FD
S31508004A102946234604F088FDBCBDC046D1070000E0
S31508004A20F0B58DB00A4C204640F21411FEF77FFB14
S31508004A300848411D40F600070CAA002640F600006B
S31508004A400291334602F056F840F2004085B20FE074
S31508004A50DC050020D10700000BAA012328463146B1
S31508004A6002F048F80B986070000A2070A41C761CA7
S31508004A70202EF1D1B8B20749891D0CAA0026099043
S31508004A800091334602F036F80F20C443024F0894CB
S31508004A9014E0C046D1070000DC050020314620316D
S31508004AA00BAA0123284602F025F8381951210B9A3A
S31508004AB04254110A50228154A41C761C002CEDD1B4
S31508004AC00BAA07920026099C204667493346674D7C
S31508004AD0A84751200B993954080A5021785462483E
S31508004AE0411C20460391079D2A4633465F4CA04742
S31508004AF05F480B99401A53217854010A5222B95437
S31508004B000B90594801461831059109982A463346AB
S31508004B1034460696554DA84755200B993954080A28
S31508004B2054217854504801460E31099E3046079D57
S31508004B302A4623464D4CA04757200B993954080A54
S31508004B405621785448490F3130462A462E46069D46
S31508004B502B46464CA04759200B993954080A582128
S31508004B60785441491031099C204632462B462E4638
S31508004B703E4DA8475B200B993954080A5A217854A8
S31508004B80394911312046079D2A463346374EB047E4
S31508004B905D200B993954080A5C2178543248811CE7
S31508004BA020462A46069E3346304CA0475F200B997E
S31508004BB03954080A5E21785440F2E8310931099CD3
S31508004BC0204601912A463346284DA8470AAA204678
S31508004BD005993346A847642104910B9890FBF1F098
S31508004BE00A99414340F2E83091FBF0F0612178548C
S31508004BF0010A6022B9540B9020460299079D2A465D
S31508004C0033461A4CA04763200B993954080A622187
S31508004C107854099C204600992A463346134DA847DE
S31508004C2065200B993954080A0499785440F2E831FA
S31508004C3011312046079A3346A84767200B993954FD
S31508004C40080A662178540B960A48017842780A437E
S31508004C5081781143C2780A430179114340790843A0
S31508004C60002830460AD007E0D1070000F56A000898
S31508004C7060EA00001800002001200B906921785492
S31508004C8068203E542E48014608310BAE099C204642
S31508004C903246069B2B4DA8476B200B993954080AB8
S31508004CA06A217854264DE91D20463246069B254D35
S31508004CB0A8476D200B993954080A6C217854204965
S31508004CC00C3120463246069BA8476F200B9939546B
S31508004CD0080A6E2178541A49123120463246069B34
S31508004CE0A84771200B993954080A70217854204630
S31508004CF0134907963246069E3346A8470CAA20460D
S31508004D0003993346A847104841787422B954017864
S31508004D107522B954C1787622B95481787722B95464
S31508004D2041797822B95401797922B95407490C9BFB
S31508004D305918074C621CD21AA3420CDC0AE0C0467A
S31508004D40D1070000F56A0008480C0020D08AFFFF4A
S31508004D502F75000011460C910B9A4A43049C92FB4E
S31508004D60F4F17322B9540A0A7223FA540B91C179E1
S31508004D707A22B95480797B217854099E3046019964
S31508004D80079A069BFC4DA8470B9890FBF4F07D21EB
S31508004D907854010A7C22B9540B9040F2E8310C3160
S31508004DA030463446079D2A46069BF34EB0477F2079
S31508004DB00B993954080A7E217854204640F2E83186
S31508004DC02A462C46069D2B46EB4EB04781200B996A
S31508004DD03954080A8021785440F2E830411C099E6B
S31508004DE0304622462B46E44CA04783200B9939547B
S31508004DF0080A8221785440F2E830811C3046079C24
S31508004E0022462B46DC4EB04785200B993954080AB2
S31508004E108421785440F2E830C11C099E3046224667
S31508004E202B46D54CA04787200B993954080A86216A
S31508004E30785440F2E830411D3046079A2B46CE4C4E
S31508004E40A04789200B993954080A8821785440F2DA
S31508004E50E830811D3046079C22462B46C64EB04791
S31508004E608B200B993954080A8A21785440F2E83085
S31508004E70C11D099E304622462B46BF4CA0478D20B1
S31508004E800B993954080A8C21785440F2E8310B31D1
S31508004E903046079C22462B46B74EB0478F200B99C3
S31508004EA03954080A8E21785440F2E8311531099EA2
S31508004EB0304622462B46B04DA84791200B993954C7
S31508004EC0080A9021785440F2E831283130462246C3
S31508004ED0069D2B46A84CA04793200B993954080ADF
S31508004EE09221785440F2E831363130463446079EEE
S31508004EF032462B46A04DA84795200B993954080AE7
S31508004F009421785440F2E831293120463246069CED
S31508004F102346994DA84797200B993954080A962194
S31508004F20785440F2E83137310998354632462346F7
S31508004F30FB4EB04799200B993954080A98217854A2
S31508004F4040F2E8312231099E30462A462346F44D7E
S31508004F50A8479B200B993954080A9A21785440F29D
S31508004F60E83130313046079A2346ED4DA8479D2053
S31508004F700B993954080A9C21785440F2E8312331B8
S31508004F803046079A2346E64DA8479F200B99395481
S31508004F90080A9E21785440F2E83131313046079AA2
S31508004FA02346DF4DA847A1200B993954080AA021AA
S31508004FB0785440F2E83126313046079D2A46234682
S31508004FC0D74EB047A3200B993954080AA221785422
S31508004FD040F2E8313431099E30462A462346D04D00
S31508004FE0A847A5200B993954080AA421785440F2F9
S31508004FF0E83127313046079A2346C94DA847A720E6
S315080050000B993954080AA621785440F2E83135310B
S315080050103046079E32462346C14DA847A9200B991C
S315080050203954080AA821785440F2E8312D310998F4
S31508005030324623462646BA4D2C46A847AB200B993E
S315080050403954080AAA21785440F2E8313B31099CC0
S315080050502046079D2A463346B14EB047AD200B99E8
S315080050603954080AAC21785440F2E8312E312046EA
S315080050702A46069E3346AA4DA847AF200B993954AF
S31508005080080AAE21785440F2E8313C312046079AA6
S315080050903346A34DA847B1200B993954080AB021C5
S315080050A0785440F2E8312B312046079A33469C4D16
S315080050B0A847B3200B993954080AB221785440F20C
S315080050C0E83139312046079A3346954DA847B52029
S315080050D00B993954080AB421785440F2E8312C3136
S315080050E02046079D2A46344633468D4EB047B7209C
S315080050F00B993954080AB621785440F2E8313A3106
S31508005100099E30462A462346854DA847B9200B995D
S315080051103954080AB821785440F2E8312A31304621
S31508005120079A23467E4DA847BB200B993954080A8F
S31508005130BA21785440F2E83138313046079A234686
S31508005140774DA847BD200B993954080ABC217854D5
S3150800515040F2E8312F313046079A2346704DA8476A
S31508005160BF200B993954080ABE21785440F2E83119
S315080051703D31304602E0C046F56A0008079D2A46DA
S315080051802346674CA047C1200B993954080AC02109
S31508005190785440F2E831123130462A46069C2346B6
S315080051A05F4EB047C3200B993954080AC221785478
S315080051B040F2E831133109982A462E462346584DBF
S315080051C0A847C5200B993954080AC4217854534D69
S315080051D029462431099832462346514EB047C620FF
S315080051E03C540B985538411E8841C72178540B907A
S315080051F0253509982946079D2A462346484EB0472D
S31508005200C8203C540B985538411E8841C92178540A
S315080052100B90099E304605992A462346404DA847D5
S31508005220CB200B993954080ACA21785440F2E83140
S3150800523043313046079A2346A847CD200B9939545F
S31508005240080ACC21785437480D30CE21089B04E053
S3150800525002787A54C0180F30491CDC29F8D1324834
S315080052600D30DE2104E002787A54C0180F30491C4C
S31508005270EC29F8D13D46F1350026082415E040F220
S31508005280E830311816310BAA0023099801F032FCD0
S31508005290089828180B990A0AC2730A0C82730A0E10
S315080052A0427329702D1D641E761C002CE7D140F22E
S315080052B0E83144310BAA07920026099C204633465A
S315080052C00896174DA84740F20F100B993954080A4B
S315080052D040F20E11785440F2E83145312046079DD8
S315080052E02A4633460E4EB04740F211100B993954F0
S315080052F0080A40F21011785440F2E8314631204647
S315080053002A46089B064CA04740F213100B993954BD
S31508005310080A40F2121178540DB0F0BDD10700000A
S31508005320F56A00085C0100204E010020B0B501F0C6
S3150800533099FE2C4D90B10024EC702879401C2871F8
S31508005340C0B2042809D303202871CD4940F60000CD
S315080053502246234604F0E8F86C71B0BDE878401C94
S31508005360E870C0B204280CD30320E870687940B905
S31508005370C3490124002340F60000224604F0D4F86D
S315080053806C7100202871B0BDB0B501F066FE154DF0
S3150800539090B100242C706878401C6870C0B204284C
S315080053A009D303206870104940F6000022462346B8
S315080053B004F0BAF8AC70B0BD2878401C2870C0B2AA
S315080053C004280CD303202870A87840B9064901247C
S315080053D0002340F60000224604F0A6F8AC70002030
S315080053E06870B0BDD8010020EC07000070B50C4607
S315080053F00546074E3046243001F00EFC042805D831
S315080054008100711800228A664D654C6270BDC046DF
S31508005410A00300200148642103F040BBC5820008B0
S3150800542080B5064840F2F41103F038FB04486421BD
S3150800543080BC04BC964603F031BBC04659880008B8
S31508005440B13C0008B0B50A4864240A4D2146A8476D
S31508005450094840F2E831A847084840F2E831A84729
S31508005460074821462A46B0BC08BC9E461047C04697
S31508005470914300089D8A0008559C00087996000803
S315080054807144000880B50920C0062021012208F0D1
S31508005490B3FE02480021017080BDC046F00100201D
S315080054A0F8B50024009440F60006444D6A4640F6D6
S315080054B000002946234601F01DFB012740480099B4
S315080054C0814201DD3C4610E06E48407868B9B0B2CA
S315080054D023356A4600242946234601F00BFB00982B
S315080054E0552802D008F0F0F910B1204601B0F0BDF9
S315080054F00024114D634E11E02888FFF7A9F801280A
S3150800550007D13019417A491C4172C9B20A2903D315
S3150800551007E0301900214172AD1C641C042CEBD93C
S31508005520D0E70A214172E0B200240428DDD1012027
S31508005530544948700024D8E714ED0008F8B500244B
S3150800554000941E496A4640F60000234601F0D2FA46
S3150800555001261B480099814201DA344608E0494D84
S31508005560287828B901F00AFB10B908F0ADF910B18E
S31508005570204601B0F0BD0024124F11E03888FFF72D
S3150800558067F8012807D128190179491C0171C9B2A0
S315080055900A2903D307E0281900210171BF1C641CDE
S315080055A0042CEBD9D9E70A210171E0B200240428BA
S315080055B0DED1012028700024DAE7C046D2070000B1
S315080055C0307500001EED0008BCB50023019340F6B7
S315080055D00005174C01AA40F60000214601F08AFA98
S315080055E00198A52810D0012819D0A8B22C3C01AAE8
S315080055F00023214601F07EFA0F480199814202D123
S315080056000E4801210170BCBDA8B2002221461346EE
S3150800561003F08AFF07480121017002F021FAA8B2B7
S3150800562000222146134603F07FFF02F019FAC0460E
S3150800563029040000340C0020FFFF0000350C002070
S31508005640E0B5002301930E4901AA40F6000001F0D7
S3150800565051FA019810B9F34800210170FFF76EFF5F
S31508005660012801D1002000E0012008F02DFE09F0F4
S31508005670E1F808B1002000E0012008F067FA8CBDC7
S31508005680ED070000F0020020B0B5BD4C002520460D
S3150800569029462A4640F6000308F0BBFD03222046A9
S315080056A0294640F60003039CA646B0BC01B008F0A4
S315080056B0CEBDC046B0B5B24C0121002520462A46CB
S315080056C040F6000308F0A5FD03222046294640F6C9
S315080056D00003039CA646B0BC01B008F0B8BDC0469E
S315080056E002F0BCB802F0BAB802F0B8B8F0B587B0A4
S315080056F002920C4605460120059080F3108800F0BA
S315080057009DF8A027384600F019F902F093FD002805
S315080057107AD0200A00F012F902F08CFD002879D020
S31508005720E0B200F00BF902F085FD002878D000F011
S3150800573085F8781CC0B200F001F902F07BFD00285C
S3150800574074D00298401E0190002653E003960495F3
S31508005750FFF79AFF00210D461AE00691884E30465B
S3150800576040F20041059F3A4608F046FD304640F6AD
S31508005770000108F048FD04460022304640F2004188
S3150800578008F03AFD04B927466D003D430699491CC1
S31508005790C8B20728E1D9FFF78DFF049805700546BA
S315080057A0451C0198039EB04211D10124744F384616
S315080057B040F6000122463C4FB847714840F2004186
S315080057C02246B84700226E4840F2004110E0002405
S315080057D06B4F384640F600012246334FB847012240
S315080057E0674840F20041B847654840F20041224602
S315080057F0B847761C02988642A8D100F03DF80020EA
S3150800580080F31088012016E000F036F8002080F3B7
S31508005810108810E000F030F8002080F310880AE0C5
S3150800582000F02AF8002080F3108804E000F024F83D
S31508005830002080F3108807B0F0BDC04670B5504C04
S315080058400125194E204640F200412A46B047204617
S3150800585040F600012A46B0470025204640F60001DA
S315080058602A46B047204640F200412A463346039C62
S31508005870A64670BC01B0184770B5414C00220A4EC6
S31508005880204640F60001B0470125204640F2004177
S315080058902A46B047204640F600012A463346039C6E
S315080058A0A64670BC01B01847F9E1000870B5144661
S315080058B00E460546012080F31088FFF7BFFFA0209B
S315080058C000F03CF802F0B6FCF8B1300A00F036F801
S315080058D002F0B0FCF8B1F0B200F030F802F0AAFC21
S315080058E0F8B1002607E0287800F028F802F0A2FCB4
S315080058F0E8B1761C6D1CB0B2A042F4D3FFF7BCFF2A
S31508005900002080F31088012070BDFFF7B5FF002046
S3150800591080F3108870BDFFF7AFFF002080F3108872
S3150800592070BDFFF7A9FF002080F3108870BDFFF750
S31508005930A3FF002080F3108870BD000070B5002515
S315080059400F4C19E0460040B2002801DB002200E0B7
S315080059500122204640F6000108F04EFC01222046AE
S3150800596040F2004108F048FC0022204640F200417F
S3150800597008F042FC6D1C3046E9B20729E2D970BD31
S31508005980000400487CB500250195009540F6000600
S31508005990214901AA40F600002B4601F0ABF81F4941
S315080059A06A4640F600002B4601F0A4F81C4C009805
S315080059B00199814211DAC91C81421EDC1948857099
S315080059C0C178491CC170C9B21E2916D31E21C170DF
S315080059D0B0B20022214613460DE01248C570817800
S315080059E0491C8170C9B21E2907D31E218170B0B225
S315080059F001220023214603F097FDB0B201AA002335
S31508005A00214601F077F80198012801D1062000E027
S31508005A10072008F09BF87CBDF40700002B04000063
S31508005A20AE0F0000F002002070B50446481E22287A
S31508005A3000D97DE1810001A251188F4600F044B8D3
S31508005A4000F04EB800F058B800F05EB800F064B840
S31508005A5000F072B800F080B800F08EB800F09CB87C
S31508005A6000F0AAB800F0B8B800F0BFB800F060B906
S31508005A7000F05EB900F05CB900F05AB900F058B908
S31508005A8000F056B900F054B900F052B900F050B918
S31508005A9000F04EB900F0B3B800F04AB900F048B9C2
S31508005AA000F0B6B800F044B900F042B900F040B9C9
S31508005AB000F03EB900F03CB900F03AB900F02BB955
S31508005AC000F0B5B800F0BDB804F02AFF002800D1F0
S31508005AD0C0E09A480268406803218A430221CCE064
S31508005AE004F03CFF002800D1BEE0944802684068F4
S31508005AF00C218A430821C0E0220130231A408F482E
S31508005B00016840689943B8E08C4802684068C0213B
S31508005B108A43A101C9B2B0E00020C5438E4E04F005
S31508005B2069FE002800D1AAE0844802684068284037
S31508005B30324040F20021A0E00020C543854E04F023
S31508005B4077FE002800D1A3E07C4802684068284018
S31508005B50324040F6000190E00020C5437C4E04F038
S31508005B6085FE002800D19CE07448026840682840F9
S31508005B70324042F2000180E00020C543734E04F033
S31508005B8093FE002800D195E06C48026840682840DA
S31508005B90324048F2000170E00020C5436A4E04F026
S31508005BA0FBFE002800D18EE0644802684068284061
S31508005BB032400121490460E00020C543614E04F0EB
S31508005BC027FF002800D187E05C4802684068284023
S31508005BD032400121C90450E003210A0557480368E9
S31508005BE0406893430C40210507E003218A05534882
S31508005BF00368406893430C40A105194395E04F4854
S31508005C0006C840F2001082430120044020028BE0BF
S31508005C100020C5434A4E002C6DD0484803684068AA
S31508005C2030402B4001210C40E10200226EE00124A5
S31508005C30E50404F057FE414A06CAAA432040C004B8
S31508005C4072E0012002053D4B0ACB93430440200530
S31508005C5018436AE03948016840680322002C6BD073
S31508005C6014409143214360E0344802684068002CA0
S31508005C705FD00C239A43A1001940114355E02F48E1
S31508005C80026840689CB3324003210C4021022BE095
S31508005C902A480268406854B3324003210C40A102E6
S31508005CA022E02648026840680CB3324003210C40C3
S31508005CB0210319E0214802684068C4B13240032133
S31508005CC00C40A10310E01D48026840687CB13240D0
S31508005CD003210C40210407E018480268406834B1E3
S31508005CE0324003210C40A104114328401DE03240F4
S31508005CF02840114619E007F0C9FD10490A684968A5
S31508005D0031402A4001230340D80200231A430B4B93
S31508005D1001431A6059600124A50404F05BFE074A92
S31508005D2006CAAA43204080041043044A1160506002
S31508005D3070BD0C218A43DCE79143F6E7480C002046
S31508005D40FFF7FFFFFFFFF3FFFFFFFCFFFF3FFFFF2C
S31508005D50FFCFFFFFFFF3FFFFFFFCFFFF10B51A4C55
S31508005D6020780A2801D3002020706078322803D3CF
S31508005D7004F006F800206070E0781E2801D30020A1
S31508005D80E070A078642801D30020A07020796428E8
S31508005D9003D30E480021017021716079642803D36A
S31508005DA00B48002101706171A079642801D3002095
S31508005DB0A071E079642805D3064800210170E171D5
S31508005DC00548017010BDC046500C00200E09002081
S31508005DD0F0010020F101002041000020B0B50022AA
S31508005DE0074B1446E1B2032906D889005D58641C9E
S31508005DF001218542F6D100E011460846B0BDC046ED
S31508005E0000ED0008FEB501900025029540F2D07617
S31508005E10711C02AFA14C40F600003A462B46A0473B
S31508005E20CF4902988870000A487040F6000040F290
S31508005E30D0713A462B46994CA0470298F249087108
S31508005E40000AC870B11C40F600003A462B46934C2F
S31508005E50A0470E480299401AEB4A9071010A5171FF
S31508005E6014460290193640F6000031463A462B464B
S31508005E708A4DA84702982072000AE071621C902198
S31508005E800198FDF757FE012003B0F0BD60EA000057
S31508005E90FEB5019000250295194902AE7F4C40F6E1
S31508005EA000000F4632462B46A047F44C0298A070D5
S31508005EB0000A6070B91D40F6000032462B46774F3F
S31508005EC0B8470298E0700E48411C40F6000032467A
S31508005ED02B46724FB84702986071000A207108482D
S31508005EE0C11D40F6000032462B46B8470298A071FD
S31508005EF0621C91210198FDF71DFE012003B0F0BD3B
S31508005F00DF070000FEB5019000250295174902AE8D
S31508005F10624C40F600000F4632462B46A047D74C47
S31508005F2002986070B91D40F6000032462B465B4F5A
S31508005F30B8470298A0700D48411C40F6000032464A
S31508005F402B46564FB8470298E0700848C11D40F6E0
S31508005F50000032462B46B84702982071621C9221EF
S31508005F600198FDF7E7FD012003B0F0BDE107000049
S31508005F70FEB50090002502950195244E02AF474CC8
S31508005F8040F6000031463A462B46A047BB490298E0
S31508005F904870B11D40F600003A462B463F4CA047D4
S31508005FA00298B6498870711D40F600003A462B469D
S31508005FB03A4CA0470298F549C87015480078087108
S31508005FC00C46F14940F600003A462B46334FB8478F
S31508005FD0163601AA40F6000031462B46B847029805
S31508005FE00199414340F2E83091FBF0F02072010E2E
S31508005FF06171010CA171010AE1710290621C932181
S315080060000098FDF797FD012003B0F0BDD307000007
S3150800601004140020FEB50190002502954E4F02AEED
S315080060201E4C40F60000394632462B46A047D74953
S3150800603002984870791C40F6000032462B46174CE9
S31508006040A0470298D14988703946163140F60000B3
S3150800605032462B46F84CA0470298F84CE0701737A2
S3150800606040F60000394632462B46F34FB8470298A9
S3150800607020710B48007860710A4940F600003246E4
S315080060802B46B8470298E071000AA071621C942159
S315080060900198FDF74FFD012003B0F0BDF56A000831
S315080060A0410C0020F9030000F0B595B0044605A898
S315080060B04021FDF73CF8002304930393264903AADD
S315080060C040F6000000F016FD0194012C05D1234886
S315080060D00078012801D12020039000270FE004AAA8
S315080060E0012640F200402946334600F003FD6800C9
S315080060F004990A0A05AB1A54304319547F1CFDB299
S315080061000398A842EBDC0022EA4D1EE0029205AA9B
S31508006110575C0626B1FBF6F2344654430C1B2C1981
S31508006120A7704C1CB4FBF6F77743E41B5B1E0CB157
S315080061308B4208D1501CDF4948704A1C95210198AA
S31508006140FDF7F8FC0398029A521C4300D1B2994213
S31508006150DCDB012015B0F0BDD6070000360C0020A8
S3150800616050020020F0B585B0044603A800238380BA
S31508006170039302930193224901AA40F6000000F016
S31508006180B9FC0094012C04D1062001901D4800F0AA
S31508006190E1FE00250BE03146203102AA012340F238
S315080061A0004000F0A7FC03A8029981556D1CEEB2C9
S315080061B00198B042EFDC0025E54E1BE003A98B5C95
S315080061C00724B2FBF4F127464F43D71BF719BB70D8
S315080061D0531CB3FBF4F76743DB1B441E944200D001
S315080061E03BB9481C7070721C96210098FDF7A2FCFA
S315080061F001986D1CEAB29042E0DC012005B0F0BDC2
S31508006200D7070000E09304005002002080B50C4A2E
S315080062101378F6494B7053788B709378CB70D37894
S315080062200B7113794B7153798B719379CB71D27941
S315080062300A724A1C9721FDF77DFC012080BDC046E5
S315080062401800002080B50C4A1378E8494B7053783B
S315080062508B709378CB70D3780B7113794B71537914
S315080062608B719379CB71D2790A724A1C9821FDF702
S3150800627061FC012080BDC046480C00205002002069
S31508006280B0B50022074B1446E1B2032906D88900A7
S315080062905D58641C01218542F6D100E01146084686
S315080062A0B0BDC04628ED0008BCB50024019440F6F0
S315080062B0A070801DFEF7CCF918B904F031FB002553
S315080062C068B10C4901AA40F60000234600F012FC0A
S315080062D041F2C02001250199814200DB254640F69E
S315080062E0A070FEF7B5F9012100B10D46284602B0A7
S315080062F0B0BDC046DF070000012110280CD30221DB
S31508006300502809D3030903219022092B04D33032DC
S31508006310D2B20421904201D2C8B270473030C2B21C
S3150800632005200021202A00D308467047FEB50190B3
S3150800633000240294144F02AE40F600003946324655
S31508006340234600F0D7FBEC4D02982871010E6970C0
S31508006350010CA970000AE870F91C40F600003246E4
S31508006360234600F0C7FB02982872010E6971010CDA
S31508006370A971000AE8716A1C50210198FDF7DAFB39
S31508006380204603B0F0BDC046F103000050020020CD
S31508006390FEB501900024029402AEF94F40F60000C3
S315080063A040F2E83132462346B847F64D02986870FF
S315080063B040F2E830411C40F6000032462346B84712
S315080063C00298A87040F2E830811C40F60000324678
S315080063D02346B8470298E87040F2E830C11C40F6F8
S315080063E0000032462346B8470298287140F2E83042
S315080063F0411D40F6000032462346B84702986871A8
S3150800640040F2E830811D40F6000032462346B84780
S315080064100298A87140F2E830C11D40F600003246E5
S315080064202346B8470298E8716A1C51210198FDF77E
S3150800643081FB204603B0F0BDF56A00085002002033
S31508006440FEB5019000240294194F02AE40F60000F2
S3150800645039463246234600F04DFB40F2E8310298B1
S3150800646090FBF1F0F94D2871010E6970010CA970C5
S31508006470010AE9700290791C40F60000324623466C
S3150800648000F038FB029840F2E83190FBF1F02872F0
S31508006490010E6971010CA971010AE97102906A1C61
S315080064A052210198FDF746FB204603B0F0BDC046D1
S315080064B0F503000050020020FEB501900024029466
S315080064C0224F02AEE04D40F60000394632462346DA
S315080064D0A847DE49029848703946093140F6000057
S315080064E032462346A8470298D84988703946133158
S315080064F040F6000032462346A8470298010EF64D9C
S31508006500E970010C2971000A687139460A3140F6AA
S31508006510000032462346EF4DA8470298EE49C87157
S31508006520000A88713D3740F6000039463246234650
S31508006530E84DA8470298E84908724A1C5321019871
S31508006540FDF7F8FA204603B0F0BDC046F303000095
S3150800655050020020F0B58BB0044600250A9568461F
S315080065602821FCF7E4FD204E2F4612E0B9190AAAA5
S31508006570002340F6000000F0BDFA0A98010E6A46AC
S3150800658051555119C870020C4A70000A88702D1DA1
S315080065907F1C202DEAD100200125F04E13E06F461E
S315080065A03F5C1F54471C1F2801D0824209D1C0B244
S315080065B0B0FBF1F0401C7070721C57212046FDF7A5
S315080065C0B9FA6D1C38460721B5FBF1F24A43521E4B
S315080065D0B0FBF1F30627FF435F43F3199B1C202802
S315080065E0DDD100200BB0F0BDFE03000050020020F4
S315080065F0FEB501900024029440F2104702AED64D33
S3150800660040F6000040F2104132462346A847E849C2
S3150800661002988870000A487040F210410E3140F620
S31508006620000032462346CC4DA8470298F549087122
S31508006630000AC870791C40F6000032462346C64D4B
S31508006640A8470298EF4DA871000A68710F3740F6FF
S315080066500000394632462346BF4EB0470298287294
S31508006660000AE8716A1C59210198FDF763FA204669
S3150800667003B0F0BDFEB50190002402941D4F02AE92
S31508006680B54D40F60000394632462346A847F34939
S3150800669002988870000A487039460E3140F60000A4
S315080066A032462346AC4DA8470298EC490871000AC1
S315080066B0C870791C40F6000032462346A64DA84706
S315080066C00298FD4DA871000A68710F3740F6000060
S315080066D0394632462346A04EB04702982872000A29
S315080066E0E8716A1C5A210198FDF724FA204603B07E
S315080066F0F0BDC0460A04000050020020FEB5019015
S31508006700002402941D4F02AE934D40F60000394610
S3150800671032462346A847F64902988870000A487008
S3150800672039460E3140F60000324623468A4DA847C0
S315080067300298EF490871000AC870791C40F60000F3
S3150800674032462346844DA8470298E94DA871000AA7
S3150800675068710F3740F600003946324623467E4EAA
S31508006760B04702982872000AE8716A1C5B210198F2
S31508006770FDF7E0F9204603B0F0BDC0460E04000060
S31508006780F56A000850020020FEB501900024029424
S315080067902C4EB11C02AF704D40F600003A46234617
S315080067A0A847D349029848703146103140F6000090
S315080067B03A462346684DA8470298CD498870F11C89
S315080067C040F600003A462346634DA8470298C84952
S315080067D0C8703146113140F600003A462346A847AC
S315080067E00298C349087140F6000031463A462346E6
S315080067F0A8470298BE49487131460E3140F6000056
S315080068003A462346A8470298B9498871711C40F64A
S3150800681000003A462346A8470298B54DE8710F3658
S3150800682040F6000031463A4623464B4EB04702989A
S3150800683028726A1C5C210198FDF77CF9204603B092
S31508006840F0BDC04613040000F56A00085002002097
S31508006850FEB50190002402941D4F02AE3E4D40F64F
S315080068600000394632462346A847A149029888704F
S31508006870000A487039460E3140F600003246234673
S31508006880354DA84702989A490871000AC870791CBC
S3150800689040F60000324623462F4DA8470298944DED
S315080068A0A871000A68710F3740F60000394632466B
S315080068B02346294EB04702982872000AE8716A1CD6
S315080068C05D210198FDF736F9204603B0F0BDC046B4
S315080068D00C040000F56A000850020020FEB501907D
S315080068E0002402941B4F02AE1B4D40F600003946A9
S315080068F032462346A8477E4902988870000A48709F
S3150800690039460E3140F6000032462346124DA84756
S31508006910029877490871000AC870791D40F6000088
S31508006920324623460C4DA8470298714D68711337B5
S3150800693040F60000394632462346074EB0470298CD
S31508006940A8716A1C5E210198FDF7F4F8204603B089
S31508006950F0BDC04612040000F56A00085002002087
S31508006960FEB5019000240294104E02AF40F60000D6
S3150800697031463A46234600F0BDF85D4D0298A870A8
S31508006980000A6870711C40F600003A46234600F07B
S31508006990B1F802982871000AE8706A1C5F2101980C
S315080069A0FDF7C8F8204603B0F0BDC046FA0300005C
S315080069B050020020FEB5019000240294104E02AF4A
S315080069C040F6000031463A46234600F093F8484D13
S315080069D00298A870000A6870711C40F600003A46D2
S315080069E0234600F087F802982871000AE8706A1CA6
S315080069F060210198FDF79EF8204603B0F0BDC04619
S31508006A002604000050020020F8B500900020012559
S31508006A10374E134F10E03C5C1C54441C824209D18B
S31508006A20C0B2B0FBF1F0401C7070721C6221009875
S31508006A30FDF780F86D1C20460721B5FBF1F24A43A5
S31508006A40521EB0FBF1F30624E4435C4333199B1C46
S31508006A500E28E0D1012001B0F0BDC046500200204A
S31508006A605C010020F8B5009000200125204E134F48
S31508006A7010E03C5C1C54441C824209D1C0B2B0FBF5
S31508006A80F1F0401C7070721C63210098FDF752F8F3
S31508006A906D1C20460721B5FBF1F24A43521EB0FB96
S31508006AA0F1F30624E4435C4333199B1C0E28E0D11A
S31508006AB0012001B0F0BDC046500200204E01002062
S31508006AC0BCB50446094901AA002340F6000000F0B7
S31508006AD011F807480125857001994170421C652106
S31508006AE02046FDF727F8284602B0B0BD2A04000064
S31508006AF050020020B0B50446002062B340F60005F7
S31508006B00AC420AD040F20045AC4224D1362922D8FC
S31508006B10012B20D1880018491AE00F4BCB18482BB7
S31508006B2002D89800134913E00C4BCB18262B02D831
S31508006B3098000F490CE00A4BCB18302B02D8980066
S31508006B400A4905E0074BC918232904D888000649CD
S31508006B50085810600120B0BD18FCFFFF30F8FFFF91
S31508006B6048F4FFFF60F0FFFF74130020F0100020C8
S31508006B70B411002050120020081400201CB500246F
S31508006B8001940A4901AA40F600002346FFF7B2FF1E
S31508006B9000F082FA01995539621A4A41012100B971
S31508006BA001461143084602B010BDC046F60700006C
S31508006BB070B50023064CDDB2082D08D8ED00665DD9
S31508006BC05B1C8E42F7D161194B681146984770BD18
S31508006BD0D0FA000870B50023064CDDB20F2D08D890
S31508006BE0ED00665D5B1C8E42F7D161194B68114654
S31508006BF0984770BD18FB000840F25C114118002048
S31508006C0006E00A6812B998228A581AB1091D401C6A
S31508006C102528F6D9C0B270471C30002105E0026865
S31508006C200AB942691AB1001D491C2529F7D9C8B203
S31508006C3070470000B0B5134D284607F0B5FD124859
S31508006C4000242146224642F2000307F0E2FAED3517
S31508006C50284607F0A9FD0720214607F05DFB022517
S31508006C600D21284607F014FF42F2000021462A4665
S31508006C7007F028FA42F20000B0BC02BC8E4607F0C4
S31508006C8051BAC0461305000000080048F8B5044686
S31508006C906D466970080A2870E74800F05BF94122DA
S31508006CA00126204629463346FCF7A5FE0746E24854
S31508006CB000F050F935434222204629463346FCF770
S31508006CC09AFE384001B0F0BDE8482021012207F0BD
S31508006CD093BAC04670B50C01144D2C19A45C07254F
S31508006CE02540E408AA2B10D0552B1DD101231E469A
S31508006CF096408900425832434250E8B28340E0B297
S31508006D000B490818017E19430DE001231E469640DB
S31508006D1089004258B2434250E8B28340E0B204497F
S31508006D200818017E9943017670BDC046B605002055
S31508006D30000000201CB501AC2070BF4800F00AF91D
S31508006D400020402201232146FCF755FE02B010BD63
S31508006D502348801D7047C04600487047100500202C
S31508006D600148C08D40BA704750050020CC48202104
S31508006D70002207F041BAC046FEB50025029501A8D3
S31508006D80057002AA40F6000040F2E8312B46FFF7EC
S31508006D90B1FE13491FE08C19A07805281AD3A64816
S31508006DA0104FB847A448B84701AF7022009501258F
S31508006DB0304639462B46FCF71EFE9F480949884748
S31508006DC07122304639462B46009DFCF714FE0449CD
S31508006DD00020A0706D1CEEB20298B042DBDCFEBD4E
S31508006DE0C0000020556F000806F098BDFEB502A841
S31508006DF0C02707700024019401AA40F6000040F25B
S31508006E00E8312346FFF776FE8B4D0BE0284600F067
S31508006E10A1F838462A30C2B202A901233046FCF747
S31508006E20EAFD641CE6B20198B042EFDC012003B02B
S31508006E30F0BDC046F8B5394F384607F0B5FC09200D
S31508006E40C00600250226012429463246234607F0B5
S31508006E50E0F9EF37384607F0A7FC0520294607F082
S31508006E605BFA2846294607F013FE2046294632468D
S31508006E7007F028F92046F8BC02BC8E4607F052B93E
S31508006E80B0B5264D284607F08FFC0920C006002419
S31508006E902146224641F2000307F0BBF9EF352846A2
S31508006EA007F082FC0720214607F036FA0C21204617
S31508006EB007F0EEFD022241F20000214607F002F932
S31508006EC041F20000B0BC02BC8E4607F02BB9C046A2
S31508006ED070B5124E304607F067FC0920C00600253B
S31508006EE0022429462A46234607F093F9EF36304608
S31508006EF007F05AFC0520294607F00EFA0121284614
S31508006F0007F0C6FD20462946224607F0DBF820464C
S31508006F1070BC02BC8E4607F005B9C04611050000D4
S31508006F20B0B50A4C0A4A002540F6000021462B4611
S31508006F3002F0FAFA611C40F600002A462B46039C2A
S31508006F40A646B0BC01B002F0EFBAC046D2070000B0
S31508006F503075000005214143044803E00278521CBD
S31508006F600270491E0029F9D17047C046EA10002070
S31508006F70704710B5002007210124224603F0D6FBEE
S31508006F80204603F025FC022003F0C6FB0028FAD0B1
S31508006F90022003F0BBFB10BC01BC864603F012BC02
S31508006FA07CB501A800210180FFF7E3FF01091B4E0C
S31508006FB0A52902D301A920481AE01949884202D313
S31508006FC001A91C4814E0B1B2884202D901A918489F
S31508006FD00EE01449884203D301A941F6407007E040
S31508006FE01149884202D301A9104801E001A9F348D2
S31508006FF0088081B20420002401AD22462B46FCF706
S31508007000FBFE28886421B0FBF1F20C480280BC36EE
S31508007010B0B20B49234602F087FA7CBD440700004C
S31508007020C7080000DB050000BC0400002823000098
S31508007030581B000070170000881300000614002073
S31508007040F40700000920C006012107F0DCB8092072
S31508007050C00641F2000107F0D6B80920C006022191
S3150800706007F0D1B8D748042107F0CDB80004004886
S3150800707080B5D04842F2000107F0C5F80021091A88
S31508007080484180BD80B50920C006102107F0BBF82D
S315080070900021091A484180BDCA48012107F0B3B842
S315080070A000040048F0B58BB0012668460024046049
S315080070B044608460C660BE48871CBE48BE4D44F224
S315080070C000013A4607973346A847BC48BC4DA8472F
S315080070D06846046044608460C660B64848F20001A9
S315080070E03A463346B44FB847B448A847684604609A
S315080070F044608460C460AE4D6A1C0A92B14840F28E
S3150800710000213346B847AD48AD498847684602214D
S315080071100891046041608460C4600920C706384647
S31508007120099731462A462346A34DA8476846046070
S3150800713044608460C4602025384629469C4A334604
S315080071409D4FB8476846046044608460C4609D48A3
S3150800715029460A9D2A463346B8476846046044606D
S315080071608460C460974840F200112A463346B847FF
S315080071706846046044608460C4608E4842F2000138
S31508007180079A2346B8476846046044608460C4602A
S31508007190102105910998864A2346B847684603216F
S315080071A00791046044608160C660864841F2000128
S315080071B00A9F3A463346804DA847684604604460AD
S315080071C007998160C6607F4842F200013A46334615
S315080071D0794DA847684604604460079D8560C66087
S315080071E0784844F200013A463346734FB847684632
S315080071F00460001D70C0734848F200010A9A3346BD
S315080072006D4FB84768460460446085602F46C6607F
S315080072106C4840F200410A9A3346674DA8476846CB
S31508007220046044603D468760C660664840F60001D3
S315080072300A9A3346604FB8476846046044608460DB
S31508007240C46080210691099F3846594A2B465A4DF3
S31508007250A8476846046044608460C460384641F2C2
S315080072600001534A2346544DA847684604604460C3
S315080072708460C460384640F600014D4A3346A84744
S3150800728068460460089941608460C4604D4F38467A
S3150800729031460A9D2A462346474FB8476846046042
S315080072A044608460C460474805992A463346424D7F
S315080072B0A8476846046044608460C460402107911A
S315080072C009983B4A3346A847684604604460846088
S315080072D0C46004213B480A9F3A462346364DA847D0
S315080072E06846046044608460C46009980899304A16
S315080072F02346314DA8476846046044608460C460EC
S31508007300082130483A4633462B4FB847684604604A
S3150800731044608460C660099D284640F20011244AEC
S315080073203346B8476846046044608460C6602846A9
S3150800733040F200211E4A3346B84768460460446056
S315080073408460C6601F4807990A9F3A4633461A4D15
S31508007350A8476846046044608460C6601948069970
S315080073603A463346144DA84768460460446084602C
S31508007370C660099F384640F200410D4A3346A84781
S315080073806846046044608460C460FE48089D2946D7
S315080073900A9A3346FC4EB047684630C004604460DB
S315080073A0384648F20001F64A2346B0470BB0F0BD0E
S315080073B01105000000080048C973000810270000DE
S315080073C0556F00080004004870B51E460C46054671
S315080073D0104607F0E9F9059A28463146234606F08D
S315080073E018FF012E0ED1079E069A049928462346B1
S315080073F006F02DFF28462146324670BC08BC9E463C
S3150800740006F0FABE70BD0000F0B58DB001276846DB
S315080074100024046044608460C760F34D6A1C0C92C3
S31508007420F548D94E40F200213B46B047D748D849DF
S3150800743088476846046044608460C460AD1CD548CB
S3150800744048F200012A4608953B46B047D24E3046D8
S31508007450CF4988476846046044608460C760CD4861
S3150800746044F200012A463B46C74DA8473046C8495C
S315080074708847684602210A91046041608460C460B6
S315080074800920C50628460B953946D74A2346BE4ED7
S31508007490B0476846046044608460C4602026284675
S315080074A03146D14A3B46B84DA84768460460446011
S315080074B08460C460E54831460C9D2A463B460997D8
S315080074C0B14EB0476846046044608460C460DF48D3
S315080074D040F200112A462346B047684604604460D5
S315080074E08460C460AB4842F20001089A2346B0475C
S315080074F06846046044608460C460102106910B9855
S31508007500B94A2346B0476846032604604460866045
S315080075100796C460CD4841F200010C9D2A463B46B9
S31508007520994FB8476846046044608660C460C74897
S3150800753042F200012A46099E3346934FB8476846E9
S3150800754004604460079981603746C660BF4844F2C4
S3150800755000012A4633468C4EB047684604604460AC
S31508007560079E8660C760B94848F200012A463B462E
S31508007570854DA8476846046044608660C460B34881
S3150800758040F200410C9A3B467F4FB8476846046074
S3150800759044608660C460AD4840F600010C9A099FB5
S315080075A03B46794DA8476846046044608460C460D9
S315080075B0802108910B9D28468B4A3346724EB04768
S315080075C06846046044608460C46028462E4641F2DA
S315080075D00001854A23466C4DA84768460460446006
S315080075E08460C460304640F600017F4A3B46A8479F
S315080075F0684604600A9941608460C460934E3046C8
S3150800760039460C9D2A4623465F4EB04768460460B5
S3150800761044608460C4608D4806992A463B465A4DA4
S31508007620A8476846046044608460C46040210791A6
S315080076300B9E30466C4A3B46A84768460460446041
S315080076408460C4600421069180480C9D2A4623461E
S315080076504D4FB8476846046044608460C46030464D
S315080076600A99614A2346484EB04768460460446012
S315080076708460C4600821059174482A46099F3B46E0
S31508007680B0476846046044608460C4600B9D284621
S3150800769040F20011544A3B463B4EB04768460460E8
S315080076A044608460C460284640F200214E4A3B4646
S315080076B0354EB0476846046044608460C4606348D9
S315080076C007990C9D2A463B46B047684604604460C5
S315080076D08460C4605D4808992A463B46B0476846B8
S315080076E0046044608460C4600B9840F200413E4ADE
S315080076F03B46B0476846046044608460C4605348AB
S315080077000A9E31462A463B461F4DA847684650C042
S31508007710046044600B9D284648F20001F74A234658
S31508007720194FB8476846046044608460C4602846B8
S315080077300699F24E32462346B847684604604460C6
S315080077408460C4602846059932462346B847684689
S31508007750046044608460C4603C4E304607990C9DC2
S315080077602A462346B8476846046044608460C46075
S31508007770304608992A462346B8470DB0F0BDC0469C
S315080077801105000000040048C9730008C027090055
S31508007790556F0008000800481027000070B5D74E3E
S315080077A0304607F001F80920C006002510242946AE
S315080077B02A46234606F02DFDEF36304606F0F4FF3E
S315080077C00720294606F0A8FD0421284607F060F997
S315080077D002222046294606F075FC204670BC02BCEB
S315080077E08E4606F09FBCC0461105000002461748A3
S315080077F0082106F001BDC0460004004802460920DB
S31508007800C00640F2001106F0F7BC02460920C00681
S3150800781040F2002106F0F0BC02460C48802106F032
S31508007820EBBCC04602460948402106F0E5BCC04606
S3150800783002460920C00640F2004106F0DDBC000001
S3150800784002460248102106F0D7BCC046000400488C
S3150800785002460920C006402106F0CEBC012080F36E
S315080078601088BFF34F8F034803490160BFF34F8F5A
S3150800787000BFFDE70CED00E00400FA05F0B5144979
S31508007880411889B20022134B99421FD84821002477
S3150800789091260BE09CB2AEB2371BA21B012A13D06D
S315080078A0012F11D0A11949081E462C468BB25B0040
S315080078B0094AD75A87420B4600D3334687420D46B4
S315080078C000D825468742E5D164224A4390B2F0BDE6
S315080078D0CAF5FFFFCC6F000012F9000808480949ED
S315080078E04160FF210906084A13688B43032189076B
S315080078F01943116000218160072101607047C04665
S3150800790010E000E07FBB000020ED00E07CB500241D
S315080079100194204901AA40F600002346FFF7EAF839
S315080079201D4801685A4A501A8A180199914215DA6F
S31508007930814213DDFFF78BFB80B9464D2846FCF7DD
S3150800794087FE012648B9A81DFCF782FE28B903F070
S3150800795005F810B905F0B8FF18B13446204602B04C
S3150800796070BDFFF785FB0028F8D1FFF78BFB0028D1
S31508007970F4D10A480178042902D8491C017007E0A5
S315080079800748007807490A7882423446E6D00870E4
S315080079900024E3E7D20700003C0100204D01002047
S315080079A0580C0020C8070020F8B50025009540F6B9
S315080079B00006264C6A4640F6000021462B46FFF78D
S315080079C099F8FFF7A3FF224F3968491C012800D010
S315080079D0294639601F4D2846FCF73AFE48B9A81DC6
S315080079E0FCF736FE28B902F0B9FF10B905F06CFFAE
S315080079F070B11948012101707868401C78603968AF
S31508007A00009A91420DD2062901D33C2809D2F8BD25
S31508007A101149002008707860104909780029F6D1C4
S31508007A20EDE70020386000F001FF0B48007818B930
S31508007A30B0B22C34012202E0B0B22C34A5220023C5
S31508007A40214601F071FD00F00BF8C046FD03000069
S31508007A501C040020A10F0000340C0020350C002067
S31508007A6080B50B48FFF776FA02F00CFE00F019FC19
S31508007A70FFF7CAFC0748FFF76DFA02F0E3FA064873
S31508007A8006F092FE0120002106F08EFCFEE7C046B5
S31508007A9030750000A08601001C07000010B5174CC1
S31508007AA0204606F081FEF834204606F07DFE0620C4
S31508007AB006F0AEFC0920C0060321002480232246D6
S31508007AC006F0A7FB204602F0D1FD012420462146F8
S31508007AD002F0ACFD07204104204602F003FE2046D2
S31508007AE0214602F0DFFD02F0D3FD40F2E830FFF751
S31508007AF031FA10BC01BC864602F088BD11050000AB
S31508007B00F8B5002006F070FE06F0A2FD0321CA4370
S31508007B101D4883581D4DAC1C1C43845001235C042E
S31508007B20865826406F1E15B1002E3D46F8D085585A
S31508007B30254228D0164C25680726B5431D432560DF
S31508007B400468046004680460046804600468114DED
S31508007B50254005602B2424040568254305608458C0
S31508007B601D062543855084585D062C42FBD00268C5
S31508007B708A430260016802220A43026001680822F9
S31508007B801142FBD0F8BDFEE704100240FEFF0000DC
S31508007B9000200240FFFFC077FEE7000010B50C4842
S31508007BA0143049210B4A07E00F23DB43C358046806
S31508007BB0E31808C21830491E0029F5D100200649E5
S31508007BC002E000220A50001DDC28FAD110BDC0468A
S31508007BD020F000085012002008140020F0B587B0E5
S31508007BE00024069405940494039401943C4E06AA32
S31508007BF03C4D40F6000031462346A8473A4F0698C2
S31508007C003862B11D05AA40F600002346A847059A22
S31508007C1036491531364D40F600002346A847354902
S31508007C2005980880396A414340F2E83291FBF2F13F
S31508007C30396106F0DDFE311D04AA40F60000234630
S31508007C40284DA84704983863711D03AA40F600001A
S31508007C502346A847039839693A6B7A637962B8620A
S31508007C60F862386A049991FBF0F202923146354679
S31508007C70083140F6000023461D4EB047E91C01AA0C
S31508007C8040F600002346174DA847184EB11C02AA15
S31508007C9040F600002346134DA84702980199414330
S31508007CA0642591FBF5F2029240F600003146234620
S31508007CB00F4EB047386A90FBF5F00A21029A92FBFC
S31508007CC0F1F14143029140F2E83091FBF0F20748A6
S31508007CD0411C40F600002346B04707B0F0BDC04639
S31508007CE0F1030000F56A000890020020D40700009E
S31508007CF029950008E4140020CB480178491C017036
S31508007D004178491C4170C178491CC1708178491C69
S31508007D1081700179491C01714179491C4171817948
S31508007D20491C8171C179491CC1717047FEF716B8A3
S31508007D307047000070B514460D4606460846FEF71D
S31508007D40DBFA401E042831D8810001A251188F465B
S31508007D5000F008B800F00CB800F013B800F019B835
S31508007D6000F01FB8284670BC02BC8E4606F087BED7
S31508007D700F480121017030462946224601F032FC9F
S31508007D8070BD30462946224670BC08BC9E46FEF7A2
S31508007D9021BF30462946224670BC08BC9E46FEF7DF
S31508007DA007BF30462946224601F030FC70BDC04662
S31508007DB0420C00207047FCF703BC00007CB5044663
S31508007DC000200190F24D29780A39052900D984E066
S31508007DD08A0001A39A18974600F00AB800F01BB863
S31508007DE000F024B800F033B800F047B800F057B8F0
S31508007DF0434901AA002340F60000FEF77BFED22085
S31508007E00D22C6AD1E649087028730B202870864858
S31508007E10002181717CBD102C5FD80120A040374914
S31508007E2008425AD0DE4844706C735AE0D9490A7839
S31508007E30521C0A70D2B2022A51D3EC7308700D2074
S31508007E402870088900022043D54948807CBDD1495D
S31508007E504A78521C4A70D2B2022A44D30A891202BC
S31508007E602243A023CE4EF2526C74487060003071E3
S31508007E70707810283FD10E203EE0C9480179C548E0
S31508007E80C2888A4206D2AB189C74521CC28092B22F
S31508007E908A4232D30F2129700021C1807CBDBD4A98
S31508007EA09178491C9170C9B2022920D39070BC48B8
S31508007EB043780079801D0621102B00D00846C1B2F0
S31508007EC0168928460C30FCF709FC2102711889B27C
S31508007ED0884202D1B248FBF789FE0A200CE00C81E1
S31508007EE0AC730C2008E00C812C740D2004E00F20E4
S31508007EF0287014817CBD0F2028707CBD48000100C5
S31508007F002A040000F8B50D46A54CA17221882181E6
S31508007F1000218A221F4B03E09F5DB84204D0491C0A
S31508007F20CEB29642F8D334D071001B4A515A3D2836
S31508007F300DD848197C282CD818484018002103E089
S31508007F40425C6318DA72491C8D42F9D110E0802828
S31508007F501FD3481940F2141290421AD80F484018F5
S31508007F60002103E0425C6318DA72491C8D42F9D19C
S31508007F7026460836EF1CF9B23046FCF7AFFB7119F6
S31508007F80C870020A0A719E216754E0802046FBF7F2
S31508007F9041FEF8BD10F700089AF70008DC05002036
S31508007FA070B5AAB001A8A2242146FBF7C0F8784EFE
S31508007FB07089318988420ED060430849091801AD95
S31508007FC028462246FBF79AF8284600F031F87089C9
S31508007FD00121814371812AB070BDC0465E0D002023
S31508007FE0F0B5A9B06846A2242146FBF7A0F8684E6A
S31508007FF0F088B188884214D0717891B901277770D2
S3150800800009490022CA716043084909186D4628467D
S315080080102246FBF773F8284600F01CF8F0888743D9
S31508008020F78029B0F0BDC046500C0020A20E0020F3
S315080080304178102907D0062908D0032909D10179E2
S315080080404088FFF75FBF408802F010B8408802F00A
S3150800805073B8704710B501464F4CA2222046FBF76D
S315080080604DF84B480B21817021784C4C204606F080
S3150800807079FD0721204606F0A5FD012010BDC04662
S31508008080F8B5434CA0780B38052852D8810001A2D0
S3150800809051188F4600F00AB800F04BB800F021B826
S315080080A000F00EB800F030B800F03BB83A48417816
S315080080B03A4806F057FD3748002141710D2037E050
S315080080C037484078102801D006283CD1A0203249EC
S315080080D0095A304DE87800284FD0304806F042FD5E
S315080080E03DE02F484078102801D006283AD12A4882
S315080080F04188284D6879B8BB090A284806F032FD38
S315080081006879401C687134E0224D287990B11020B6
S31508008110A0702148C1792148F8BC04BC964606F0EF
S3150800812021BD002060701D48072106F042FD0A2087
S31508008130A070F8BD1848C188184806F013FD2879BC
S31508008140401C2871F8BD134DEE7813488119C97A79
S315080081500779124806F006FD701CB84211D30F20A5
S31508008160A07011E00C4801790C4806F0FBFC0E20C3
S31508008170A07008480021C170F8BD090A074806F032
S31508008180F1FCE878401CE870024800210171F8BD4E
S3150800819040000020E40400206C0800200044004051
S315080081A0CA070020B0B5FBF735FC314C0122204642
S315080081B044F2000106F020F81E2005F037FD20469F
S315080081C048F2000106F01FF80546FBF739FC0020C7
S315080081D005B1B0BD0022204644F2000106F00CF8B5
S315080081E01E2005F023FD0120B0BDC046B0B5FBF743
S315080081F03DFC1F4C0122204641F2000105F0FCFF20
S315080082001E2005F013FD204642F2000105F0FBFF93
S315080082100546FBF743FC002005B1B0BD0022204609
S3150800822041F2000105F0E8FF1E2005F0FFFC0120E1
S31508008230B0BDC046B0B5FDF727FA0D4C0122204661
S3150800824040F2004105F0D8FF204640F6000105F04F
S31508008250DAFF0546FDF72EFA002005B1B0BD00226B
S31508008260204640F2004105F0C7FF0120B0BDC046D8
S315080082700004004810B50B189B18040A1B19040CB7
S315080082801B19000E18180B0AC0180B0CC018090E7B
S315080082904018110A4018110C4018110E4018C0B2A7
S315080082A010BD012001F0CCBE10B50124204601F016
S315080082B019FE0920C0062021224610BC08BC9E468D
S315080082C005F09ABF70B5084C207858B9012020707F
S315080082D00025064E02E0705980472D1D0C2DFAD157
S315080082E00020207070BDC046E61400204001002022
S315080082F0FEB502A8002404800194FEF729FD054670
S31508008300114901AA40F600002346FEF7F3FB15E0E3
S315080083107000295AE2B2022002AF3B46FBF76CFD19
S315080083202A4880193988782281542036CAB201230E
S3150800833040F20040314601F0F7F8641CA6B20198F5
S31508008340B042E5DCFEBDC046D7070000F0B585B0F3
S3150800835004A8002505800395FEF7FEFC019019493F
S3150800836003AA40F600002B46FEF7C4FB21E0740082
S315080083700198015B0295EAB2012704AD38462B46FF
S31508008380FBF73AFD114800190F490A7829880AB9F6
S315080083900A4600E0028F0E4B1A4052084908521846
S315080083A0028740F2004031463B4601F0BDF8029D87
S315080083B06D1CAEB20398B042D9DC012002490870A0
S315080083C005B0F0BDD60700000F09002020030020E5
S315080083D0FEFF000070470000F0B585B00023049347
S315080083E00393029301A803804D490D46203104AA40
S315080083F040F60000FEF77EFB4A4C4B4EFEF7B0FCFB
S3150800840048F20001084209D14849884213D34B492A
S3150800841041434848B1FBF0F0642118E00121090402
S31508008420081A4249884217D3444941434148B1FB97
S31508008430F0F064211AE040F60001633189B28842FF
S3150800844019D93D4941433B48B1FBF0F00A21414364
S315080084500498B1FBF0F016E021469131884214D910
S31508008460354941433348B1FBF0F00A2141430498AA
S31508008470B1FBF0F011E02E4941432E48B1FBF0F074
S315080084800499B0FBF1F0301A08E02949414329481C
S31508008490B1FBF0F00499B0FBF1F0801981B203202A
S315080084A0002701AE3A463346FBF7A6FC3488244833
S315080084B0046040F6000086B203AA304629463B46C9
S315080084C0FEF718FB691C02AA30463B46FEF712FB6C
S315080084D00398201A02994143642091FBF0F1124B4C
S315080084E0CA181848006802258142194601DD0D4C54
S315080084F008E0081A012582420A4C00DB3D46824202
S3150800850000DB0A460027304621463B4601F00CF8B8
