S31508003000201E0020E1300008E183000849820008FC
S3150800301000000000000000000000000000000000A2
S31508003020000000000000000000000000898B000876
S31508003030000000000000000065840008CDA200081A
S31508003040F3300008F3300008F3300008F3300008C6
S31508003050F3300008C1590008C5590008115A00087C
S3150800306000000000F3300008F3300008F3300008D1
S31508003070F3300008F3300008F330000800000000C1
S31508003080F3300008F330000800000000F3300008B1
S31508003090F3300008F3300008F3300008F330000876
S315080030A0F3300008F3300008F330000809A80008D8
S315080030B06DA80008000000000000000000000000E5
S315080030C0F330000800000000F33000080348854686
S315080030D000F038F800480047E1DC0008201E002010
S315080030E00448804704480047FEE7FEE7FEE7FEE798
S315080030F0FEE7FEE735A30008CD30000803460B437C
S315080031009B0703D009E008C9121F08C0042AFAD28F
S3150800311003E00B780370401C491C521EF9D2704715
S31508003120D2B201E00270401C491EFBD27047002251
S31508003130F6E710B513460A4604461946FFF7F0FFA8
S31508003140204610BD064C0125064E05E0E36807CC6F
S315080031502B430C3C98471034B442F7D3FFF7BAFF19
S3150800316068F9000888F9000830B58C180278401C00
S3150800317013071B0F01D10378401C120906D10278E8
S31508003180401C03E005780D70401C491C5B1EF9D1F4
S3150800319001E00B70491C521EFBD1A142E6D3002068
S315080031A030BD000010B504F0DFFA05490C78FE22A0
S315080031B022400123234300B11A460A7010BDC046B7
S315080031C0AD0F0020F0B585B000260496039640F6AC
S315080031D00004274940F600003246334606F058FEFA
S315080031E004AA40F6000040F2E831334603F07CFFBB
S315080031F0A0B20190204C354632E040F2E83038184B
S31508003200411D03AA00260198334603F06DFFF0B26C
S315080032100399814222DD332179434D4A51184000F2
S315080032200818C17980790002084380B204F062FE6A
S31508003230104989B2884200D30E4880B26421B0FB97
S31508003240F1F0E9B2490061184881761C6D1CE8B2B4
S315080032500228DCD3A0780028D9D006E0029E761C86
S315080032600296F7B20498B842C7DC05B0F0BDC0466E
S31508003270BB0F000074400000C0000020F0B587B006
S3150800328000260696059640F6000406AA40F60000B3
S3150800329040F2E831334603F027FFA0B200902C4FE6
S315080032A035464EE0019640F2E8302018411C05AA42
S315080032B000260098334603F017FF30460599039118
S315080032C02646029437E0049033227243BA1849001E
S315080032D05118CB7B897B0A021A43052151434B09B6
S315080032E01C4881421C4900D81946ECB263001B48A9
S315080032F0C15248F2000002431948824211D11A48C5
S315080033002E460546025D3846571C2F552A1935465E
S31508003310029EFCB207460A2C0AD31248C31899869D
S3150800332004E01048C21891860F480219002111704E
S315080033300498401C6D1CC1B2039A8A42C3DC019EE4
S31508003340761CF4B20698A042ACDC07B0F0BDC046C5
S31508003350E00500201F71020088130000A005002068
S31508003360FFFF00002005002046060020F0B5A9B0A2
S3150800337014460E46054609A88021FFF7D8FE00F038
S31508003380BFF83420029000F04BF905F06BFA0028DC
S3150800339000D1B0E0304600F043F905F063FA0028A2
S315080033A000D1A8E0204600F03BF905F05BFA0028BA
S315080033B000D1A0E000F0A4F8352000F031F905F0BE
S315080033C051FA002800D196E001960495039400204E
S315080033D01FE0049844540027A74848F200013A46DB
S315080033E0694EB0471E252846A44CA0470122A24E86
S315080033F0304644F20001644B98472846A0473046B9
S3150800340044F200013A46604B98472846A04705987B
S31508003410401C059080B2069000F0E6FA00210C46A2
S3150800342022E007910127944E304644F200013A46BD
S315080034300AF0F6FB1E2528460AF00CF9304648F233
S3150800344000010AF0F4FB04460022304644F200016B
S315080034500AF0E6FB28460AF0FDF804B92746089C58
S3150800346064003C430799491CC8B207280894D8D970
S3150800347000F0D2FA039D0699A942AAD30124E54889
S3150800348048F200012246E44B98471E273846E34E89
S31508003490B047F64844F200012246F54B98473846AD
S315080034A03C46B0470027F14844F200013A46F04B43
S315080034B098472046B04700F049F809A80199417095
S315080034C00299017085703521C170049B04E0195C6E
S315080034D009AA101801717F1CB8B2A842F7D3281D93
S315080034E0C1B209A800F0FCFE0899C9B2091A002061
S315080034F0401A484102E000F029F8002029B0F0BD42
S31508003500F8B5EB480126EB4C44F200013246A047D9
S315080035101E25E94F2846B847E54848F200013246D5
S31508003520A0472846B8470026E14848F20001324637
S31508003530A0472846B847DE4844F200013246A0476D
S3150800354028463946F8BC04BC96460847F8B5D84814
S315080035500022D84C48F20001A0471E25D64F28461F
S31508003560B8470126D24844F200013246A047284609
S31508003570B847CF4848F200013246A04728463946A0
S31508003580F8BC04BC9646084721DC0008F0B5A1B093
S3150800359014460F46054601AEB01C7E21FFF7C7FD4F
S315080035A0777034203070002004E06A5C01AB59184B
S315080035B08A70401C81B2A142F7D3A01CC1B201A8EF
S315080035C000F08EFE0646FFF79BFF342000F028F831
S315080035D005F048F9E8B1384600F022F805F042F956
S315080035E0B8B1002707E0287800F01AF805F03AF98C
S315080035F078B17F1C6D1CB8B2A042F4D3304600F0F7
S315080036000FF805F02FF9012400B90446FFF79EFFCD
S3150800361002E0FFF79BFF0024204621B0F0BD000022
S31508003620F8B50026E04C22E04100009140B200289F
S3150800363001DB002200E00122F64F384648F200017D
S315080036400AF0EEFA1E252846A0470122384644F21B
S3150800365000010AF0E5FA2846A0470022384644F257
S3150800366000010AF0DDFA2846A047761C0098F1B258
S315080036700729D9D9F8BDC0460004004855D6000820
S31508003680F0B5A9B014460E46054609A88021FFF7ED
S315080036904EFD00F0C5F83420029000F059F905F007
S315080036A005F9002800D1B0E0304600F051F905F0E0
S315080036B0FDF8002800D1A8E0204600F049F905F0F9
S315080036C0F5F8002800D1A0E000F0AAF8352000F0AF
S315080036D03FF905F0EBF8002800D196E0019604952D
S315080036E0039400201FE0049844540027EB4842F254
S315080036F000013A466F4EB0471E252846AA4CA047F9
S315080037000122E64E304641F200016A4B98472846A8
S31508003710A047304641F200013A46664B984728468C
S31508003720A0470598401C059080B2069000F08AF9DB
S3150800373000210C4622E007910127D84E304641F277
S3150800374000013A460AF06CFA1E25284609F082FF5F
S31508003750304642F200010AF06AFA04460022304670
S3150800376041F200010AF05CFA284609F073FF04B931
S315080037702746089C64003C430799491CC8B2072899
S315080037800894D8D900F074F9039D0699A942AAD3DA
S315080037900124C24842F200012246464B98471E279A
S315080037A03846814EB047BD4841F200012246414B9A
S315080037B0984738463C46B0470027B84841F20001CA
S315080037C03A463C4B98472046B04700F053F809A8BC
S315080037D0019941700299017085703521C170049B69
S315080037E004E0195C09AA101801717F1CB8B2A84236
S315080037F0F7D3281DC1B209A800F072FD0899C9B20D
S31508003800091A0020401A484102E000F033F8002067
S3150800381029B0F0BD0004004821DC000855D6000890
S31508003820F8B59E480126234C41F200013246A047CE
S315080038301E255D4F2846B847984842F20001324691
S31508003840A0472846B8470026944842F20001324667
S31508003850A0472846B847914841F200013246A0479A
S3150800386028463946F8BC04BC964608470004004872
S3150800387021DC0008F8B5894800220E4C42F2000106
S31508003880A0471E25484F2846B8470126834841F2D7
S3150800389000013246A0472846B847804842F2000150
S315080038A03246A04728463946F8BC04BC964608471F
S315080038B00004004821DC000855D60008F0B5A1B080
S315080038C014460F46054601AEB01C7E21FFF72FFCB5
S315080038D0777034203070002004E06A5C01AB591818
S315080038E08A70401C81B2A142F7D3A01CC1B201A8BC
S315080038F000F0F6FC0646FFF793FF342000F028F8A0
S3150800390004F0D4FFE8B1384600F022F804F0CEFF00
S31508003910B8B1002707E0287800F01AF804F0C6FFC7
S3150800392078B17F1C6D1CB8B2A042F4D3304600F0C3
S315080039300FF804F0BBFF012400B90446FFF79AFF0D
S3150800394002E0FFF797FF0024204621B0F0BD0000F3
S31508003950F8B50026144C22E04100009140B2002838
S3150800396001DB002200E001224C4F384642F20001FA
S315080039700AF056F91E252846A0470122384641F284
S3150800398000010AF04DF92846A0470022384641F2C0
S3150800399000010AF045F92846A047761C0098F1B2BE
S315080039A00729D9D9F8BDC04655D60008012805D03B
S315080039B048B9084611461A46FFF7D8BC08461146C4
S315080039C01A46FFF75DBE00207047012805D048B9A2
S315080039D0084611461A46FFF7D9BD084611461A4643
S315080039E0FFF76CBF00207047B0B52C4C0025204669
S315080039F029462A4648F200030AF01FF90322204600
S31508003A00294648F20003039CA646B0BC01B00AF05A
S31508003A1032B9C04600040048B0B5204C0121002543
S31508003A2020462A4648F200030AF007F903222046F0
S31508003A30294648F20003039CA646B0BC01B00AF02A
S31508003A401AB9C046B0B5154C0025204629462A465F
S31508003A5042F200030AF0F1F803222046294642F210
S31508003A600003039CA646B0BC01B00AF004B9C046E0
S31508003A70B0B50A4C0121002520462A4642F2000329
S31508003A800AF0DBF803222046294642F20003039C8B
S31508003A90A646B0BC01B00AF0EEB8C046000400481D
S31508003AA0B0B50146784CE089421C0523B2FBF3F514
S31508003AB05D43551B228A954206D00D225043034B7F
S31508003AC01818FFF71BFBE581B0BDC046E0030020D0
S31508003AD0B0B50146F64C6389581C1422B0FBF2F5C2
S31508003AE05543451BA289002095420BD0C87808B9D2
S31508003AF00820C8700D2253430348C018FFF7FEFA82
S31508003B0065810120B0BDC046CA0F002070B586B0D9
S31508003B1014460D46064602A800230373049303932E
S31508003B20029301200190264901AA40F6000003F0FD
S31508003B30DBFA012E22D0002E40D102AE0820F0700A
S31508003B40B57040F2A51030802078307160787071B9
S31508003B50A078B071E078F07120793072607970726F
S31508003B60A079B072E079F072337B02AA07CA04F032
S31508003B7039FF3073304600F06BF81FE002AE0820BC
S31508003B80F070B57040F2A5103080207830716078FA
S31508003B907071A078B071E078F07120793072607930
S31508003BA07072A079B072E079F072337B02AA07CA04
S31508003BB004F018FF30733046FFF78AFF06B070BD71
S31508003BC02A040000B0B50146144C20890125854316
S31508003BD06289954209D040F206125043034A1018EA
S31508003BE040F20612FFF78AFA2581B0BDCE100020F2
S31508003BF0B0B50146094CA28801259543E388002003
S31508003C009D420AD040F2061042430548801840F209
S31508003C100612FFF773FAA5800120B0BD4000002008
S31508003C20DA120020B0B50146B64CE088421C0523DE
S31508003C30B2FBF3F55D43551B2289954206D00D224A
S31508003C40504320181230FFF759FAE580B0BDC04638
S31508003C50B0B50146AB4C6388581C1422B0FBF2F58C
S31508003C605543451BA288002095420BD0C87808B951
S31508003C700820C8700D2253430448C018FFF73EFABF
S31508003C8065800120B0BDC04600020020E614002071
S31508003C90FEB5002702970197364C40F60000364ECF
S31508003CA085B2009750E0B8B2801E032821D881005B
S31508003CB001A251188F46C04600F006B800F00FB8AA
S31508003CC000F002B800F00BB802AA002328463146D5
S31508003CD003F00AFA68B1029802282DD009E002AA70
S31508003CE000232846314603F0FFF910B1029801284F
S31508003CF022D0A18801AA0023284603F0F5F908B3C3
S31508003D000198552802D1218802260BE0618801AA6C
S31508003D100023284603F0E8F9A0B1019855280BD1ED
S31508003D202188012600232846324606F0B1F8009875
S31508003D3030430090104E05E021880022284613469D
S31508003D4006F0A6F8A41D7F1C0C2FACD100990936E5
S31508003D50880706D4C80706D10022284631461346E6
S31508003D6005E0022200E0012200232846314606F03B
S31508003D708FF8FEBD76E80008D3070000F0B553B308
S31508003D80059C2688751C9E4200D31D46258005E0A5
S31508003D905B00D6180127FF43F65BD6526D1EABB201
S31508003DA0002BF5D11080258800242046234604E000
S31508003DB016889B19921CE41C401C8542F8D11A18D7
S31508003DC0B3FBF0F545435D1BA408A54200D81A4687
S31508003DD0B2FBF0F00880F0BDBCB5401E032830D811
S31508003DE0840001A52C19A74600F006B800F00FB804
S31508003DF000F016B800F01AB85000134C2018183006
S31508003E006C4620609000124A1258032414E05000B1
S31508003E100D4C20186C46206090000C4A12580AE097
S31508003E20084A684602600832052405E00548821CEF
S31508003E306C462260021D0224084619462346FFF7EF
S31508003E409DFFBCBDD001002080030020C0E800080B
S31508003E50F0E8000880B50AF051FC03F05DFC18B1E3
S31508003E6002480178491C017080BDC046C80F002071
S31508003E70BFB5684600210173029101910091214D59
S31508003E80288AE989884212D00D225043094909181F
S31508003E906C462046FFF732F9204600F015FA288AC4
S31508003EA0401C0521B0FBF1F24A43801A2882BFBDA7
S31508003EB000020020E0030020BFB568460021017318
S31508003EC00291019100910F4DA8896989884218D0FD
S31508003ED06978B1B9012169700D2250430A49091858
S31508003EE06C462046FFF70AF9204609F07FFA0128B2
S31508003EF007D1A889401C1421B0FBF1F24A43801A65
S31508003F00A881BFBD00020020CA0F0020FEB500240C
S31508003F10029402AD40F6000040F2E8312A462346F4
S31508003F2003F0E2F8E34EAA2030702F7801940BE0F4
S31508003F3081007118CD68A9B203F0B0F91DB15520FA
S31508003F40307001200190641CE0B28742F0D8352118
S31508003F50012340F20040019A05F09AFFFEBDC046D3
S31508003F60F0B5C1B000200F900E90F54B5989491C49
S31508003F7059810D909B4A0A40D1084B2904D39A4986
S31508003F809870481C588103E09878012800D127E1E9
S31508003F90964D29460C310EAF0024954E40F600008A
S31508003FA03A462346B04729460D3140F600000A91A5
S31508003FB03A462346B0470E980C9029460E3140F6ED
S31508003FC000003A462346B0470E980B9040F2E83177
S31508003FD0283140F600003A462346B0470FAA40F675
S31508003FE0000029462346B047D54B02200F990129E0
S31508003FF002D0597A01290AD1012002210B9A5F2A97
S3150800400000DB08467B4A0C9D954200DC0846587042
S3150800401000F076F9CA484078012800D0C7E021A800
S315080040208021FFF784F80024209440F6000085B22A
S3150800403020AF284640F2E8313A462346B04738785A
S31508004040019040F2E831123128463A462346B047F5
S315080040502098069040F2E831133128463A4623461E
S31508004060B04720980590009528460A993A4623466F
S31508004070B0473888049010AE304604F087FF18A879
S3150800408020223146FFF73AF8039487E0500018A932
S315080040900C5A40F2E8301018411C20AF0A9200234F
S315080040A000983A4603F020F80A9B38780990069853
S315080040B0A0426DD80998421E0F2A75D80398C0B237
S315080040C00C900027089210E0980121A90C180C986A
S315080040D0460004F065FF089A0A9B80196900405A51
S315080040E0A9006052601887707F1CFDB20998A84223
S315080040F0EAD8002125E00791101A0B90002219E052
S315080041009D0121A84619601C8700F05BF1190C91E6
S31508004110A100745A761884420BD921AB5B19591839
S315080041208D783080D81983788B700A9B0C990C800F
S315080041308570521CD4B20B98A042E1DC0799491C41
S31508004140089AC8B28242D6DC0998841E1CE09801F7
S3150800415021AA10188900435A049A9D1A5526F24333
S31508004160059FBD42154600D33546069E9E4200D899
S315080041702A46D3B24018827871480C300A9D2946DF
S3150800418003F0B8F82B46641CE1B209988842DED8D9
S315080041900398099940180390029C641C0294E2B2A1
S315080041A00198904200D971E7FFF7B0FE18E040F693
S315080041B0000080B20DAA40F2E831234602F094FFCF
S315080041C003E0002103F06AF8641CE0B20D9981420D
S315080041D0F7DC35210022012340F2004005F058FEA5
S315080041E041B0F0BDF8FF000057020000D3070000F9
S315080041F0E97000083F060000F0B585B004460025C2
S31508004200049504AE40F6000040F2E83132462B46EB
S3150800421002F06AFFE84304B920463678484F03E0BF
S3150800422089007918C8606D1CE9B28E42F8D800205A
S31508004230C04304B92046142101E07854491C1C29BE
S31508004240FBD1BC7044B3002140F6000080B2019057
S31508004250039100961CE040F2E83028180291411CB0
S3150800426004AA0023019802F03FFFF878039C001B7C
S3150800427080B2401E0121814089B23E46049F2846ED
S3150800428003F00CF802993C1903943746009E491C22
S31508004290CDB2AE42DFD808E0002403E0002102F0E8
S315080042A0FDFF641CE0B28642F8D80020788105B08C
S315080042B0F0BDC0460000002002480178491C017084
S315080042C07047C046381900204178402901D0802916
S315080042D004D18178021D012004F084B870470000DB
S315080042E010B50023054A05E0DBB204785C40135D8F
S315080042F0491E401C0C06F7D1D8B210BD70E900085B
S31508004300BCB50024019401AD40F6000040F2E83146
S315080043102A46234602F0E8FE2978094804E0920076
S3150800432082180023D360641CE2B29142F7D81421A4
S3150800433002E000224254491C1C29FAD1BCBDC046E1
S315080043400000002000F0AEB9FEB5002302930193E9
S3150800435040F600042E4901AA40F6000002F0C4FE09
S31508004360019800B1FEBDA4B2974902AA00232046CF
S3150800437002F0BAFE274D2878401C2870C0B21E28C5
S3150800438003D80298401C029004E0642801D3002058
S31508004390287002986978491C0A22B1FBF2F3534344
S315080043A0C91A69701C4EB04224DA371A1B4887426C
S315080043B0D8DC686840F2E03260B9E868686040F2C4
S315080043C0E03111312A4608320023204602F08CFEDD
S315080043D040F2E032A868E968424340F2E83092FBCE
S315080043E0F0F0814202DA2869C01928616869C019A3
S315080043F068610298B042B5DD43494118084A9042BF
S31508004400B0DC2869401A2861A8694018A861FEBD71
S31508004410BF0F00006002002030750000A08C00006D
S31508004420D0010100F8B50D4600240094032835D0C4
S31508004430022816D001285ED1304D00246C80314EFA
S315080044403268314810182830502854D82F4900238C
S3150800445040F6000005F01CFD01242C7030686880C9
S3150800446049E0264E3078012845D12846283825497E
S3150800447009682A46283291423DDC81423BDB2248C4
S3150800448028181F4B5A1C521B9D4200DC1046022559
S31508004490725F09B28A421DDA891A1DE0174F387809
S315080044A0022828D148496A46002440F600002346D7
S315080044B002F01AFE0099284609F0DAF8064610486E
S315080044C0411C284609F0D4F8C008864213D20020B9
S315080044D038700FE00FDD511A64224243B2FBF1F245
S315080044E00A48411C002440F60000234605F0D0FC8B
S315080044F008B135700124204601B0F0BDE401002062
S315080045002F750000A40F0020D08AFFFF07040000C3
S31508004510FEB52C4E37460A370297002501952A4CD8
S3150800452002AA40F6000021462B4602F0DDFD02985D
S31508004530B0420DDA25480189491C018189B20B2947
S3150800454003D3234901220A708271002141810EE0BA
S315080045501E494A89521C4A8192B2332A01D3002243
S315080045608A710D81B84202DD19480021017040F6B2
S31508004570000080B2173401AA0023214602F0B4FDD8
S3150800458040F2E83402F0DAF8012802D10F488079BF
S3150800459028B901F0E9FD58B10198A04208D040F2C7
S315080045A0E83005F0FBFC0948002181718160FEBDF9
S315080045B001F0F6FD20B1019810B1002005F0EEFCDF
S315080045C0FEBDC04626750000D2070000E80100209F
S315080045D00900002080B500F0EBFF80BC01BC8646D0
S315080045E000F0B6BFBCB5002401940E49224695B228
S315080045F00B2D14D806236B43CD5A521C8542F6D18F
S31508004600C818818801AA002440F60000234602F053
S315080046106BFD20B10198553800210C1A44412046FB
S3150800462002B0B0BD76E8000880B501F05DF8012853
S3150800463001D1022000E0032009F05AFB09F0F2FD3F
S3150800464008B1022000E0032080BC02BC8E4608F0B8
S3150800465091BF0000F8B500908E4C104A104B15E03B
S31508004660009909784C40002109E06608164037464B
S315080046705F4001252C4200D03E46491C3446CEB246
S31508004680072EF2D90099491C00910146481EFF26BB
S315080046903142E5D1A0B201B0F0BDC046FF7F0000AF
S315080046A001A0FFFF10B50124204600F039F9204685
S315080046B000F080F8204600F00BF800F0EFF800F064
S315080046C087F9204610BC02BC8E4600F045B90000AA
S315080046D0F0B587B00190002406946E48059001272E
S315080046E00394029430E040F2004086B22D2106AAD7
S315080046F030462B4602F0F8FC2E2105AA30462B46FA
S3150800470002F0F2FC012305980699012D01D11A46FB
S3150800471016E002465F4B1A40049DABB29A4200D39C
S3150800472028469A423A4600D3039A0B46594D2B40DF
S31508004730A5B2AB4200D82146AB423B4600D8029B05
S315080047407F1C029303920C460490FDB201988542A1
S31508004750C9D9A2B2164D00274F4C40F6000029468B
S315080047603B46A04740F2004086B20298C3B23121C8
S3150800477006AA304602F0B8FC069AA91D40F60000C3
S315080047803B46A047691C049882B240F600003B46A7
S31508004790A0470398C3B2322105AA304602F0A4FC0A
S315080047A0059AE91D40F600003B46A04707B0F0BD54
S315080047B0E1070000F0B587B001900024069435485B
S315080047C0059001270394029430E040F2004086B237
S315080047D0292106AA30462B4602F086FC2A2105AA7C
S315080047E030462B4602F080FC012305980699012DD8
S315080047F001D11A4616E00246264B1A40049DABB272
S315080048009A4200D328469A423A4600D3039A0B4660
S31508004810204D2B40A5B2AB4200D82146AB423B46C1
S3150800482000D8029B7F1C029303920C460490FDB2AB
S3150800483001988542C9D9A2B2374D0027164C40F6D1
S31508004840000029463B46A04740F2004086B202983F
S31508004850C3B22F2106AA304602F046FC069AA91DC5
S3150800486040F600003B46A047691C049882B240F611
S3150800487000003B46A0470398C3B2302105AA30463C
S3150800488002F032FC059AE91D40F600003B46A047B7
S3150800489007B0F0BDFFFF0000919E00087FB5002419
S315080048A003940294019400941B4D03AA1B4E40F6F0
S315080048B0000029462346B047691C02AA40F60000B4
S315080048C02346B047029A039B981AD11A934200DCF2
S315080048D0084682B2291D40F60000234605F0D8FA9C
S315080048E0A91C01AA40F600002346B047E91C6A46FF
S315080048F040F600002346B047009A019B981AD11A41
S31508004900934200DC084682B2691D40F60000234641
S3150800491005F0BEFA7FBDC046DF070000E970000853
S315080049207CB505460026019634460AE0761CF3B2A5
S31508004930262101AA40F2004002F0D6FB0198001990
S3150800494084B2F0B2A842F1D33249002340F60000FF
S31508004950224605F09DFA7CBDF0B585B0019000248D
S315080049600494012140F6000080B2009025461DE01F
S31508004970029140F2EC300392111804AE0027009819
S3150800498032463B4602F0B0FB36780AE0203104AAEC
S3150800499040F20040039B02F0A7FB049845197F1CD0
S315080049A0641CF9B28E42F1D80299491CCAB2019820
S315080049B08242DDD9012C06DB95FBF4F2034900237C
S315080049C0009805F065FA05B0F0BDC046DE070000A0
S315080049D0BCB50024019400940E4D01AA40F60000CF
S315080049E02946234602F080FB691D6A4640F6000008
S315080049F0234602F079FB642001994143009891FB14
S31508004A00F0F20C3540F600002946234605F040FA38
S31508004A10BCBDC046D1070000F0B58DB01E4C20467F
S31508004A2040F2F411FEF783FB1C48411D40F60007CF
S31508004A300BAA002540F6000005912B4602F054FB10
S31508004A400CA92020087040F200418EB20DE00AAA97
S31508004A5001233046294602F047FB0A986070000A8F
S31508004A602070A41C6D1C0CA80078C0B28542EED339
S31508004A70BBB20A48811D0BAA00241D4618460091A0
S31508004A80234602F031FB0CA908200870024F413773
S31508004A90E143089114E0C04694060020D1070000BF
S31508004AA0214620310AAA0123304602F01DFB0A9846
S31508004AB0010A089AB9543870641CBF1C0CA80078FF
S31508004AC0C0B28442ECD30AAA069200242846079567
S31508004AD06A4923466A4FB84751200A99694A1154C8
S31508004AE0080A502150546548411C28460291069FE1
S31508004AF03A462346624DA84763480A99401A532105
S31508004B00604B5854010A522299540A905B48014650
S31508004B101831039107983A462346594DA847552018
S31508004B200A99584A1154080A5421505453490E31C7
S31508004B3007983A462346524DA84757200A99514A9C
S31508004B401154080A562150544C4801460F31079D06
S31508004B5028463A4623464A4FB84759200A99494AA9
S31508004B601154080A58215054444910312846069FC2
S31508004B703A462346424DA8475B200A99414A1154B2
S31508004B80080A5A2150543D491131079D28463A468C
S31508004B9023463B4FB8475D200A993A4A1154080AFA
S31508004BA05C2150543548811C2846069F3A462346C0
S31508004BB0334DA8475F200A99324A1154080A5E21E4
S31508004BC0505440F2E8310931079D284601913A468A
S31508004BD023462B4FB84709AA284603992346B847C0
S31508004BE0642104910A9890FBF1F00999414340F237
S31508004BF0E83091FBF0F06121224B5854010A6022FB
S31508004C0099540A9028460599069D2A4623461C4F1C
S31508004C10B84763200A991B4A1154080A622150545E
S31508004C20079800992A462346154FB84765200A99DA
S31508004C30144A1154080A04995054134640F2E831AC
S31508004C40113107982A461D462346B84767200A9910
S31508004C502954080A662168540A940C4A107851782F
S31508004C60014390780843D178014310790843517974
S31508004C700143002920460DD00AE0C046D1070000AE
S31508004C80E97000089406002060EA0000140000207D
S31508004C9001200A906921685468202C54324801463C
S31508004CA008310AAD07982A462346304FB8476B2085
S31508004CB00A992F4A1154080A6A2150542A48C11DD4
S31508004CC007982A462346294FB8476D200A99284A45
S31508004CD01154080A6C2150542721012730462A46C8
S31508004CE03B46224EB0476F200A99214A1154080ABA
S31508004CF06E2150541C480146123107982A4623460D
S31508004D001A4EB04771200A99194A1154080A702197
S31508004D1050540798144906952A4605462346134EC5
S31508004D20B0470BAA284602992346B047114841784E
S31508004D3074220F4B9954017875229954C1787622BA
S31508004D40995481787722995441797822995401792E
S31508004D507922995408490B9B5918084E721C0292DD
S31508004D60D21AB3420DDC0BE0D1070000E970000847
S31508004D7094060020B80F0020D08AFFFF2F75000088
S31508004D8011460B910A9A4A43049992FBF1F1732250
S31508004D90154EB154090A7222B154C1797A22B15416
S31508004DA080797B2170540A947E2034520F4926312B
S31508004DB0079D2846069A23460D4EB04780200D4982
S31508004DC0094A115202980A9040F2E830411C0CAE8A
S31508004DD02846009132462346054DA8470A940648B8
S31508004DE0007831780AE0C04694060020D107000012
S31508004DF0E97000087530000014000020E2B28A420B
S31508004E0006D23B469340641C0342F7D0501C0A90D6
S31508004E1082200024104E34520A94104923310AAADB
S31508004E20079D2846234602F05FF985200A993154E2
S31508004E30080A842170540BAA28460599234602F0CD
S31508004E4053F90CA8102101700548C07FA5210291CD
S31508004E50A52811D106E0C04694060020D107000017
S31508004E60600100203046AE3002491822FEF746F9A6
S31508004E7002E0C046600100203046C6303821FF27D0
S31508004E803A46FEF74DF90AAA06920024079D2846D7
S31508004E9001992346FD4EB0470A98049990FBF1F014
S31508004EA0FB49C855FA4F010AFE22B9540A9040F246
S31508004EB0E8310C312846069E324623462F46F34DE6
S31508004EC0A84740F201100A99F14A1154080A40F21B
S31508004ED000115054384640F2E831324623463D46E2
S31508004EE0EA4FB847E94F40F203100A99E84A1154C5
S31508004EF0080A40F2021150542846009932462346C1
S31508004F00B84740F205100A99E14A1154080A40F2D6
S31508004F100411505440F2E830811C28463246234694
S31508004F20B84740F207100A99D94A1154080A40F2BC
S31508004F300611505440F2E830C11C2846324637461E
S31508004F402346D24EB04740F209100A99D04A115466
S31508004F50080A40F20811505440F2E830411D28462C
S31508004F603A462346B04740F20B100A99C84A1154EC
S31508004F70080A40F20A11505440F2E830811D2846CA
S31508004F803A462346B04740F20D100A99C04A1154D2
S31508004F90080A40F20C11505440F2E830C11D284668
S31508004FA03A462346B04740F20F100A99B84A1154B8
S31508004FB0080A40F20E11505440F2E8310B312846E7
S31508004FC03A462346B04740F211100A99B04A11549E
S31508004FD0080A40F21011505440F2E83115312846BB
S31508004FE03A462346B04740F213100A99A84A115484
S31508004FF0080A40F21211505440F2E8312831284686
S315080050003A462346B04740F215100A99A04A115469
S31508005010080A40F21411505440F2E8313631284655
S315080050203A462346B04740F217100A99984A11544F
S31508005030080A40F21611505440F2E8312931284640
S315080050403A462346B04740F219100A99904A115435
S31508005050080A40F21811505440F2E8313731284610
S315080050603A462346B04740F21B100A99884A11541B
S31508005070080A40F21A11505440F2E8312231284603
S315080050803A462346B04740F21D100A99804A115401
S31508005090080A40F21C11505440F2E83130312846D3
S315080050A03A462346B04740F21F100A99784A1154E7
S315080050B0080A40F21E11505440F2E83123312846BE
S315080050C03A462346B04740F221100A99704A1154CD
S315080050D0080A40F22011505440F2E831313128468E
S315080050E03A462346B04740F223100A99684A1154B3
S315080050F0080A40F22211505440F2E8312631284677
S315080051003A462346B04740F225100A99604A115498
S31508005110080A40F22411505440F2E8313431284646
S315080051203A462346B04740F227100A99584A11547E
S31508005130080A40F22611505440F2E8312731284631
S315080051403A462346B04740F229100A99FB4A1154B9
S31508005150080A40F22811505440F2E8313531284601
S315080051603A462346B04740F22B100A99F34A11549F
S31508005170080A40F22A11505440F2E8312D312846E7
S315080051803A462346B04740F22D100A99EB4A115485
S31508005190080A40F22C11505440F2E8313B312846B7
S315080051A03A462346B04740F22F100A99E34A11546B
S315080051B0080A40F22E11505440F2E8312E312846A2
S315080051C03A462346B04740F231100A99DB4A115451
S315080051D0080A40F23011505440F2E8313C31284672
S315080051E03A462346B04740F233100A99D34A115437
S315080051F0080A40F23211505440F2E8312B31284661
S315080052003A462346B04740F235100A99CB4A11541C
S31508005210080A40F23411505440F2E8313931284630
S315080052203A462346B04740F237100A99C34A115402
S31508005230080A40F23611505440F2E8312C3128461B
S315080052403A462346BF4EB04740F239100A99BB4A40
S315080052501154080A40F23811505440F2E8313A31F4
S3150800526028463A462346B74EB04740F23B100A99BD
S31508005270B24A1154080A40F23A11505440F2E83141
S315080052802A3128463A46234604E0C046E970000813
S3150800529094060020AB4EB04740F23D100A99A74A43
S315080052A01154080A40F23C11505440F2E8313831A2
S315080052B028463A462346A34EB04740F23F100A997D
S315080052C09E4E3154080A40F23E11705440F2E831BD
S315080052D02F3128463A4623469A4FB84740F241109E
S315080052E00A993154080A40F24011705440F2E831E4
S315080052F03D312846069F3A462346924EB04740F22D
S3150800530043100A998D4A1154080A40F24211505422
S3150800531040F2E831123128463A462346894EB047CC
S3150800532040F245100A99854A1154080A40F2441178
S31508005330505440F2E83113312846069F3A46234630
S31508005340B04740F247100A997C4A1154080A40F2BD
S31508005350461150547A4E3146243128463A46234659
S31508005360784FB84740F24810744A14540A9855388A
S31508005370411E884140F2491150540A902536284664
S315080053803146069E32462346B84740F24A106B4AD3
S3150800539014540A985538411E884140F24B1150540E
S315080053A00A902846039932462346B84740F24D10DC
S315080053B00A99624A1154080A40F24C11505413468D
S315080053C040F2E8314331284632461F4623465D4EB1
S315080053D0B04740F24F100A993954080A40F24E1164
S315080053E0785440F2501038180E21574A089E04E0A7
S315080053F053189B5D0370401C491E0029F8D140F2E2
S31508005400601038180E21514A04E053189B5D03704A
S31508005410401C491E0029F8D140F270103E18082792
S3150800542013E040F2E830211816310AAA002328466C
S3150800543001F05AFE0A98F070010C7170010E317075
S31508005440000AB070361D7F1E641C002FE9D140F299
S31508005450E83144310AAE00242846324606962346E9
S31508005460384FB84740F291100A99344F3954080A10
S3150800547040F29011785440F2E831453128463246D8
S315080054802346304EB04740F293100A993954080A19
S3150800549040F29211785440F2E83146312846069A8D
S315080054A02346284EB04740F295100A993954080AFF
S315080054B040F29411785440F2E8311E312846069A93
S315080054C02346204EB04740F299100A993954080EDF
S315080054D040F29612B854080C40F29712B854080ACB
S315080054E040F2981178540BAA284605992346154D7B
S315080054F0A84702995A3140F29C10395440F29D103F
S31508005500395440F29E103C5240F2A0100899395086
S3150800551040F2AC103C520B98010E40F29A12B95464
S31508005520000C40F29B11785440F2AE103818302126
S31508005530FF22FDF7F5FD0DB0F0BDC046940600202C
S31508005540D1070000E97000083F0100203101002062
S31508005550B0B502F0F1F82D4D90B10024EC70287921
S31508005560401C2871C0B2042809D3032028710F49AA
S3150800557040F600002246234604F08AFC6C71B0BD52
S31508005580E878401CE870C0B204280CD30320E87001
S31508005590687940B905490124002340F600002246EF
S315080055A004F076FC6C7100202871B0BDED07000090
S315080055B0B0B502F0BCF8154D90B100242C7068788F
S315080055C0401C6870C0B2042809D3032068701049CB
S315080055D040F600002246234604F05AFCAC70B0BDE3
S315080055E02878401C2870C0B204280CD303202870E1
S315080055F0A87840B906490124002340F6000022464F
S3150800560004F046FCAC7000206870B0BDE8010020CC
S31508005610EC070000B0B50446084D687803F02AFA8E
S315080056200248214600F00CF86870B0BD31560008F3
S3150800563002484FF6007101807047C046C00000203E
S3150800564070B50C460546074E3046243001F0ECFD91
S31508005650042805D88100711800228A664D654C62B7
S3150800566070BDC046000300200148642103F026BE31
S31508005670498A000880B5064840F2F41103F01EFE78
S315080056800448642180BC04BC964603F017BEC04695
S31508005690F98F0008913C000810B508486421084CA9
S315080056A0A047084840F2E831A047074840F2E831E9
S315080056B0224610BC08BC9E461047C046494300080F
S315080056C0BD92000869A60008E19F000880B5092078
S315080056D0C0062021012208F0A3FA02480021017021
S315080056E080BDC04600020020FEB500230293284E66
S315080056F031461A3140F6000402AA40F6000001F0CD
S31508005700F3FC029810B9234800210170A4B202AA3A
S315080057100025204631462B4601F0E6FC01271E48A7
S315080057200299814201DD3D462FE01A48007860BBA8
S31508005730233602AA0025204631462B4601F0D4FC22
S315080057400298552821D01548007801281DD007F061
S31508005750CFFDD0B90197002611A70BE0396802AA38
S31508005760002520462B4601F0BFFC0298552805D097
S315080057703F1D761C042EF1D9019D06E0F0B20428DF
S31508005780044902D1012008700025284603B0F0BD5F
S31508005790D20700001A1A002030750000C90F002031
S315080057A0C40B0000CA0B0000D30B0000D10B00008D
S315080057B0C80B0000FEB500230293244E31461B3168
S315080057C040F6000402AA40F6000001F08DFC02989B
S315080057D010B91F4800210170A5B202AA0024284664
S315080057E03146234601F080FC01261A480299814277
S315080057F001DA344627E01648007820BB01F0B8FCE9
S3150800580008BB1548007801281DD007F071FDD0B9EE
S315080058100196002711A60BE0316802AA0024284643
S31508005820234601F061FC0298552805D0361D7F1CD9
S31508005830042FF1D9019C06E0F8B20428044902D1E4
S31508005840012008700024204603B0F0BDD2070000EE
S315080058501B1A002030750000C90F0020C50B000078
S31508005860CB0B0000CD0B0000CE0B0000C90B0000CF
S31508005870BCB50023019340F600051D4C01AA40F66D
S315080058800000214601F030FC0198012804D102F0FD
S3150800589085FB012818D00198552815D0A5281BD0B6
S315080058A0A8B22C3C01AA0023214601F01DFC114890
S315080058B00199814202D110480121017001F080FE50
S315080058C0524801214170BCBDA8B2002221461346A8
S315080058D004F0DEFA02F01CFCA8B2002221461346A8
S315080058E004F0D6FA49480121017002F011FCC046BD
S315080058F029040000FFFF0000A00F002070B5FFF785
S3150800590059FF012806D1002008F0F2F914480121B0
S31508005910017019E0124E3078012810D10124204672
S3150800592002F0ACFA0F4D284601F03CFE204608F07E
S31508005930DFF9284601F036FE002002F09FFA002023
S315080059403070012008F0D4F908F088FC08B100206E
S3150800595000E0012070BC02BC8E4607F00BBEC046B4
S315080059608808002088130000B0B5CF4C00252046D3
S3150800597029462A4640F6000308F05FF90322204626
S31508005980294640F60003039CA646B0BC01B008F0C1
S3150800599072B9C046B0B5C44C0121002520462A4636
S315080059A040F6000308F049F903222046294640F646
S315080059B00003039CA646B0BC01B008F05CB9C0461B
S315080059C002F088BAB0B5042008F0C0F80F4D687820
S315080059D050B1E878072806D8FFF7ECFE012802D16F
S315080059E001F0AAFE28B1B0BDB0BC01BC864602F0E3
S315080059F071BA0124204602F041FA204602F064FA00
S31508005A00042007F0B7FD0520A870B0BD18010020D6
S31508005A1002F060BAF0B587B002920C46054601203E
S31508005A20059080F3108800F09DF8A027384600F00E
S31508005A3019F902F05FFF00287AD0200A00F012F95F
S31508005A4002F058FF002879D0E0B200F00BF902F016
S31508005A5051FF002878D000F085F8781CC0B200F015
S31508005A6001F902F047FF002874D00298401E019001
S31508005A70002653E003960495FFF776FF00210D46AE
S31508005A801AE00691884E304640F20041059F3A4694
S31508005A9008F0C6F8304640F6000108F0C8F8044693
S31508005AA00022304640F2004108F0BAF804B9274609
S31508005AB06D003D430699491CC8B20728E1D9FFF78E
S31508005AC069FF049805700546451C0198039EB04277
S31508005AD011D10124744F384640F6000122463C4F46
S31508005AE0B847714840F200412246B84700226E483E
S31508005AF040F2004110E000246B4F384640F60001A2
S31508005B002246334FB8470122674840F20041B8475A
S31508005B10654840F200412246B847761C02988642FC
S31508005B20A8D100F03DF8002080F31088012016E087
S31508005B3000F036F8002080F3108810E000F030F806
S31508005B40002080F310880AE000F02AF8002080F38D
S31508005B50108804E000F024F8002080F3108807B0CD
S31508005B60F0BDC04670B5504C0125194E204640F28E
S31508005B7000412A46B047204640F600012A46B0476B
S31508005B800025204640F600012A46B047204640F246
S31508005B9000412A463346039CA64670BC01B0184706
S31508005BA070B5414C00220A4E204640F60001B04727
S31508005BB00125204640F200412A46B047204640F6D5
S31508005BC000012A463346039CA64670BC01B0184716
S31508005BD021DC000870B514460E460546012080F300
S31508005BE01088FFF7BFFFA02000F03CF802F082FE05
S31508005BF0F8B1300A00F036F802F07CFEF8B1F0B2DF
S31508005C0000F030F802F076FEF8B1002607E02878B2
S31508005C1000F028F802F06EFEE8B1761C6D1CB0B2F2
S31508005C20A042F4D3FFF7BCFF002080F310880120C0
S31508005C3070BDFFF7B5FF002080F3108870BDFFF731
S31508005C40AFFF002080F3108870BDFFF7A9FF002082
S31508005C5080F3108870BDFFF7A3FF002080F310883B
S31508005C6070BD000070B500250F4C19E0460040B223
S31508005C70002801DB002200E00122204640F6000150
S31508005C8007F0CEFF0122204640F2004107F0C8FF88
S31508005C900022204640F2004107F0C2FF6D1C304644
S31508005CA0E9B20729E2D970BD00040048FEB500250F
S31508005CB0029557200190009540F60006344902AA3D
S31508005CC0344F40F600002B46B847334901AA40F640
S31508005CD000002B46B847314CA11C6A4640F6000026
S31508005CE02B46B847009870B1B0B200222146134639
S31508005CF004F0CEF82A480178DF220A40027007200D
S31508005D0007F038FCFEBD01980299814211DAC91CD8
S31508005D1081421EDC234805704178491C4170C9B28E
S31508005D201E2916D31E214170B0B200222146134601
S31508005D300DE01C4845700178491C0170C9B21E293E
S31508005D4007D31E210170B0B201220023214604F0B8
S31508005D509FF8B0B202AA0023214601F0C5F91248FD
S31508005D60017849B111490A88531C0B8010498A42A7
S31508005D7005D30021017002E002980128BAD1062055
S31508005D8007F0F8FB0648017820220A430270FEBD98
S31508005D90F4070000E97000082B040000AE0F0000AD
S31508005DA0AD0F002094020020BC000020BE00002099
S31508005DB05902000070B50446481E222800D97DE124
S31508005DC0810001A251188F4600F044B800F04EB881
S31508005DD000F058B800F05EB800F064B800F072B889
S31508005DE000F080B800F08EB800F09CB800F0AAB8B1
S31508005DF000F0B8B800F0BFB800F060B900F05EB9BE
S31508005E0000F05CB900F05AB900F058B900F056B97C
S31508005E1000F054B900F052B900F050B900F04EB98C
S31508005E2000F0B3B800F04AB900F048B900F0B6B8C7
S31508005E3000F044B900F042B900F040B900F03EB9AC
S31508005E4000F03CB900F03AB900F02BB900F0B5B84B
S31508005E5000F0BDB805F09EFA002800D1C0E09A48C7
S31508005E600268406803218A430221CCE005F0B0FAB3
S31508005E70002800D1BEE09448026840680C218A4395
S31508005E800821C0E0220130231A408F480168406883
S31508005E909943B8E08C4802684068C0218A43A1014A
S31508005EA0C9B2B0E00020C5438E4E05F0DDF90028E2
S31508005EB000D1AAE08448026840682840324040F28F
S31508005EC00021A0E00020C543854E05F0EBF9002827
S31508005ED000D1A3E07C48026840682840324040F67A
S31508005EE0000190E00020C5437C4E05F0F9F9002832
S31508005EF000D19CE07448026840682840324042F26B
S31508005F00000180E00020C543734E05F007FA00281B
S31508005F1000D195E06C48026840682840324048F253
S31508005F20000170E00020C5436A4E05F06FFA0028AC
S31508005F3000D18EE06448026840682840324001215A
S31508005F40490460E00020C543614E05F09BFA00282D
S31508005F5000D187E05C480268406828403240012149
S31508005F60C90450E003210A0557480368406893436B
S31508005F700C40210507E003218A0553480368406859
S31508005F8093430C40A105194395E04F4806C840F2D3
S31508005F90001082430120044020028BE00020C54304
S31508005FA04A4E002C6DD048480368406830402B4064
S31508005FB001210C40E10200226EE00124E50405F00F
S31508005FC0CBF9414A06CAAA432040C00472E0012020
S31508005FD002053D4B0ACB93430440200518436AE06B
S31508005FE03948016840680322002C6BD0144091435D
S31508005FF0214360E0344802684068002C5FD00C23D7
S315080060009A43A1001940114355E02F480268406899
S315080060109CB3324003210C4021022BE02A48026837
S31508006020406854B3324003210C40A10222E02648BE
S31508006030026840680CB3324003210C40210319E082
S31508006040214802684068C4B1324003210C40A103CC
S3150800605010E01D48026840687CB1324003210C40BC
S31508006060210407E018480268406834B13240032129
S315080060700C40A104114328401DE032402840114637
S3150800608019E007F017F910490A68496831402A40AB
S3150800609001230340D80200231A430B4B01431A601D
S315080060A059600124A50405F0CFF9074A06CAAA4390
S315080060B0204080041043044A1160506070BD0C21D2
S315080060C08A43DCE79143F6E7B80F0020FFF7FFFFA6
S315080060D0FFFFF3FFFFFFFCFFFF3FFFFFFFCFFFFFC1
S315080060E0FFF3FFFFFFFCFFFF10B51A4C20780A28C4
S315080060F001D3002020706078322803D304F04AFBCD
S3150800610000206070E0781E2801D30020E070A07897
S31508006110642801D30020A0702079642803D30E4890
S315080061200021017021716079642803D30B4800218E
S3150800613001706171A079642801D30020A071E0790B
S31508006140642805D3064800210170E17105480170ED
S3150800615010BDC046C00F00207A0C002000020020A7
S3150800616001020020410000201CB5002401940A49C0
S3150800617001AA40F60000234600F0B6FF0748FEF7DE
S3150800618031FA01995539621A4A41012100B9014685
S315080061901140084602B010BDB80B0000A60F00005B
S315080061A01CB5002401940A4901AA40F600002346BA
S315080061B000F09AFF0748FEF715FA01995539621A51
S315080061C04A41012100B901461140084602B010BDF6
S315080061D0B90B0000A70F0000B0B50022074B144604
S315080061E0E1B2032906D889005D58641C012185425D
S315080061F0F6D100E011460846B0BDC04670EA000870
S31508006200FEB501900025029540F2D076711C02AFCA
S31508006210AA4C40F600003A462B46A047D3490298B6
S31508006220C870000A887040F6000040F2D0713A46FD
S315080062302B46A24CA0470298CC494871000A08711F
S31508006240B11C40F600003A462B469C4CA0470E4827
S315080062500299401AC54AD071010A917114460290F2
S31508006260193640F6000031463A462B46934DA84764
S3150800627002986072000A2072A21C90210198FDF70C
S3150800628045FC012003B0F0BD60EA0000FEB50190B0
S3150800629000250295194902AE884C40F600000F46C3
S315080062A032462B46A047F14C0298E070000AA070CF
S315080062B0B91D40F6000032462B46804FB847029873
S315080062C020710E48411C40F6000032462B467B4F93
S315080062D0B8470298A071000A60710848C11D40F6C7
S315080062E0000032462B46B8470298E071A21C91215D
S315080062F00198FDF70BFC012003B0F0BDDF07000095
S31508006300FEB5019000250295174902AE6B4C40F682
S3150800631000000F4632462B46A047DF4C0298A07075
S31508006320B91D40F6000032462B46644FB84702981E
S31508006330E0700D48411C40F6000032462B465F4F80
S31508006340B847029820710848C11D40F60000324639
S315080063502B46B84702986071A21C92210198FDF756
S31508006360D5FB012003B0F0BDE1070000FEB50090A3
S31508006370002502950195244E02AF504C40F60000C8
S3150800638031463A462B46A047DD4902988870B11D2A
S3150800639040F600003A462B46484CA0470298D84992
S315080063A0C870711D40F600003A462B46434CA0477C
S315080063B00298D34908711548007848710C46144963
S315080063C040F600003A462B463C4FB847163601AA17
S315080063D040F6000031462B46B847029801994143DA
S315080063E040F2E83091FBF0F06072010EA171010CE9
S315080063F0E171010A21720290A21C93210098FDF70F
S3150800640085FB012003B0F0BDD30700003819002032
S31508006410F1030000FEB5019000250295524F02AC2B
S31508006420264E40F60000394622462B46B047B44968
S3150800643002988870791C40F6000022462B461F4EAB
S31508006440B0470298F649C8703946163140F600003A
S3150800645022462B46194EB0470298F149087139462B
S31508006460173140F60000264622462B46134CA04715
S315080064700298EB4C607112480078A071114940F6F9
S31508006480000032462B460D4CA0470298E449087294
S31508006490000AC8711E3740F60000394632462B46B8
S315080064A0064CA0470298DE4948728A1C9421019836
S315080064B0FDF72CFB012003B0F0BDC046E9700008CB
S315080064C0AD0F0020F9030000F0B595B0019005A8BE
S315080064D04021FCF72CFE002504950395224903AAC2
S315080064E040F600002B4600F0FFFD0FE004AA012746
S315080064F040F2004031463B4600F0F6FD7000049934
S315080065000A0A05AB1A54384319546D1CEEB203989F
S31508006510B042EBDC0022ED4D1EE0029205AA575C64
S315080065200626B1FBF6F2344654430C1B2C19E770C9
S315080065304C1CB4FBF6F77743E41B5B1E0CB18B428D
S3150800654008D1501CE14988708A1C95210198FDF7ED
S31508006550DDFA0398029A521C4300D1B29942DCDB59
S31508006560012015B0F0BDC046D60700005004002033
S31508006570F0B587B001900026069605960496039610
S3150800658002966920C0431430C0B20A789623009355
S315080065908242304609D18878244A9080C878D080CB
S315080065A008791081487950810120214908702149CC
S315080065B002AA40F60000334600F096FD0620029037
S315080065C00CE03946203103AA012340F2004000F0CE
S315080065D08BFD04A80399C155761C0298F7B2B842F8
S315080065E0EFDC0026D74F1BE004A98B5C0725B2FB1E
S315080065F0F5F12C464C43141B3C19E370531CB3FBB2
S31508006600F5F46C431B1B441E944200D03BB9481C4E
S31508006610B870BA1C01980099FDF778FA0298761CAA
S31508006620F2B29042E0DC012007B0F0BDCA000020BB
S31508006630C2000020D707000080B5354A1378E8491C
S315080066408B705378CB7093780B71D3784B71137921
S315080066508B715379CB7193790B72D2794A728A1CF2
S315080066609721FDF753FA012080BDC046500400204B
S3150800667080B508490A88DA4B5A804A889A808A88F7
S31508006680DA80C98819819A1C9821FDF73FFA0120FA
S3150800669080BDC046B80F002050040020F8B5044657
S315080066A0F64F0025BD70009516496E4640F6000067
S315080066B032462B4600F018FD7520F87030203871E8
S315080066C011480090114940F6000032462B4600F06A
S315080066D00BFD7D710E48007800998D4205D2012286
S315080066E0AA406D1C0242F8D07D7100207871BA1C50
S315080066F099212046FDF70AFA012001B0F0BDC046EF
S3150800670050040020F707000030750000E903000078
S3150800671014000020B0B50022074B1446E1B2032945
S3150800672006D889005D58641C01218542F6D100E02F
S3150800673011460846B0BDC04684EA0008BCB5002428
S31508006740019440F6A070801DFDF74CFF18B904F0BF
S3150800675021FE002568B10C4901AA40F6000023462F
S3150800676000F0C2FC41F2C02001250199814200DBFC
S31508006770254640F6A070FDF735FF012100B10D460C
S31508006780284602B0B0BDC046DF0700000121102828
S315080067900CD30221502809D3030903219022092B7F
S315080067A004D33032D2B20421904201D2C8B2704723
S315080067B03030C2B205200021202A00D3084670478F
S315080067C0FEB5019000240294144F02AE40F6000074
S315080067D039463246234600F087FCEB4D029868712D
S315080067E0010EA970010CE970000A2871F91C40F61F
S315080067F000003246234600F077FC02986872010EC4
S31508006800A971010CE971000A2872AA1C5021019885
S31508006810FDF77CF9204603B0F0BDC046F103000041
S3150800682050040020FEB501900024029402AEF84FF1
S3150800683040F6000040F2E83132462346B847F54DA7
S315080068400298A87040F2E830411C40F60000324633
S315080068502346B8470298E87040F2E830811C40F6B3
S31508006860000032462346B8470298287140F2E830BD
S31508006870C11C40F6000032462346B84702986871A4
S3150800688040F2E830411D40F6000032462346B8473C
S315080068900298A87140F2E830811D40F600003246A1
S315080068A02346B8470298E87140F2E830C11D40F621
S315080068B0000032462346B84702982872AA1C51217E
S315080068C00198FDF723F9204603B0F0BD50040020D7
S315080068D0FEB5019000240294194F02AE40F600005E
S315080068E039463246234600F0FFFB40F2E83102986B
S315080068F090FBF1F0F94D6871010EA970010CE97071
S31508006900010A29710290791C40F600003246234696
S3150800691000F0EAFB029840F2E83190FBF1F0687269
S31508006920010EA971010CE971010A29720290AA1CCB
S3150800693052210198FDF7EAF8204603B0F0BDC0469B
S31508006940F503000050040020FEB5019000240294CF
S31508006950224F02AEE04D40F6000039463246234645
S31508006960A847DE49029888703946093140F6000082
S3150800697032462346A8470298D849C8703946133183
S3150800698040F6000032462346A8470298010EF64D07
S315080069902971010C6971000AA87139460A3140F655
S315080069A0000032462346EF4DA8470298EE49087282
S315080069B0000AC8713D3740F600003946324623467C
S315080069C0E84DA8470298E84948728A1C532101985D
S315080069D0FDF79CF8204603B0F0BDC046F30300005F
S315080069E050040020F0B58BB0044600250A95684689
S315080069F02821FCF79CFB204E2F4612E0B9190AAA5B
S31508006A00002340F6000000F06FFB0A98010E6A4664
S31508006A1051555119C870020C4A70000A88702D1D0C
S31508006A207F1C202DEAD100200125F04E13E06F4689
S31508006A303F5C1F54471C1F2801D0824209D1C0B2AF
S31508006A40B0FBF1F0401CB070B21C57212046FDF790
S31508006A505DF86D1C38460721B5FBF1F24A43521E14
S31508006A60B0FBF1F30627FF435F43F319DB1C20282D
S31508006A70DDD100200BB0F0BDFE030000500400205D
S31508006A80FEB501900024029440F2104702AED64D9E
S31508006A9040F6000040F2104132462346A847E8492E
S31508006AA00298C870000A887040F210410E3140F60C
S31508006AB0000032462346CC4DA8470298F54948714E
S31508006AC0000A0871791C40F6000032462346C64D76
S31508006AD0A8470298EF4DE871000AA8710F3740F6EB
S31508006AE00000394632462346BF4EB04702986872C0
S31508006AF0000A2872AA1C59210198FDF707F82046B2
S31508006B0003B0F0BDFEB50190002402941D4F02AEFD
S31508006B10B54D40F60000394632462346A847F349A4
S31508006B200298C870000A887039460E3140F600008F
S31508006B3032462346AC4DA8470298EC494871000AEC
S31508006B400871791C40F6000032462346A64DA84730
S31508006B500298FD4DE871000AA8710F3740F600004B
S31508006B60394632462346A04EB04702986872000A54
S31508006B702872AA1C5A210198FCF7C8FF204603B0C0
S31508006B80F0BDC0460A04000050040020FEB501907E
S31508006B90002402941D4F02AE934D40F6000039467C
S31508006BA032462346A847F6490298C870000A8870F4
S31508006BB039460E3140F60000324623468A4DA8472C
S31508006BC00298EF494871000A0871791C40F60000DE
S31508006BD032462346844DA8470298E94DE871000AD3
S31508006BE0A8710F3740F60000394632462346FC4E58
S31508006BF0B04702986872000A2872AA1C5B2101989D
S31508006C00FCF784FF204603B0F0BDC0460E04000022
S31508006C10E970000850040020FEB501900024029493
S31508006C202C4EB11C02AFEE4D40F600003A46234604
S31508006C30A847F749029888703146103140F6000097
S31508006C403A462346E64DA8470298F149C870F11C12
S31508006C5040F600003A462346E14DA8470298EC491B
S31508006C6008713146113140F600003A462346A847D6
S31508006C700298FB49487140F6000031463A462346D9
S31508006C80A8470298F649887131460E3140F6000049
S31508006C903A462346A8470298F149C871711C40F63E
S31508006CA000003A462346A8470298ED4D28720F364B
S31508006CB040F6000031463A462346C94EB047029888
S31508006CC06872AA1C5C210198FCF720FF204603B0D5
S31508006CD0F0BDC04613040000E97000085004002007
S31508006CE0FEB50190002402941D4F02AEBC4D40F63D
S31508006CF00000394632462346A847FA490298C87022
S31508006D00000A887039460E3140F60000324623469E
S31508006D10B34DA8470298F3494871000A0871791CCF
S31508006D2040F6000032462346AD4DA8470298ED4D81
S31508006D30E871000AA8710F3740F600003946324656
S31508006D402346A74EB04702986872000A2872AA1C02
S31508006D505D210198FCF7DAFE204603B0F0BDC04677
S31508006D600C040000E970000850040020FEB50190EC
S31508006D70002402941B4F02AE994D40F60000394696
S31508006D8032462346A847D7490298C870000A887031
S31508006D9039460E3140F6000032462346904DA84744
S31508006DA00298D0494871000A0871791D40F600001A
S31508006DB0324623468A4DA8470298CA4DA87113370A
S31508006DC040F60000394632462346854EB0470298BB
S31508006DD0E871AA1C5E210198FCF798FE204603B0CC
S31508006DE0F0BDC04612040000E970000850040020F7
S31508006DF0FEB5019000240294104E02AF40F6000042
S31508006E0031463A46234600F06FF9B64D0298E870C7
S31508006E10000AA870711C40F600003A46234600F0A6
S31508006E2063F902986871000A2871AA1C5F21019803
S31508006E30FCF76CFE204603B0F0BDC046FA0300001E
S31508006E4050040020FEB5019000240294104E02AFB3
S31508006E5040F6000031463A46234600F045F9A14D72
S31508006E600298E870000AA870711C40F600003A46BD
S31508006E70234600F039F902986871000A2871AA1C9D
S31508006E8060210198FCF742FE204603B0F0BDC046DB
S31508006E902604000050040020F8B5009000200125C3
S31508006EA0904E134F10E03C5C1C54441C824209D19E
S31508006EB0C0B2B0FBF1F0401CB070B21C6221009861
S31508006EC0FCF724FE6D1C20460721B5FBF1F24A4368
S31508006ED0521EB0FBF1F30624E4435C433319DB1C72
S31508006EE00E28E0D1012001B0F0BDC04650040020B4
S31508006EF03F010020F8B5009000200125794E134F78
S31508006F0010E03C5C1C54441C824209D1C0B2B0FB60
S31508006F10F1F0401CB070B21C63210098FCF7F6FD36
S31508006F206D1C20460721B5FBF1F24A43521EB0FB01
S31508006F30F1F30624E4435C433319DB1C0E28E0D145
S31508006F40012001B0F0BDC0465004002031010020E8
S31508006F50BCB50446094901AA002340F6000000F022
S31508006F60C3F860480125C57001998170821C6521A6
S31508006F702046FCF7CBFD284602B0B0BD2A04000027
S31508006F8050040020FEB50190144DA91D02AE00273D
S31508006F90134C40F6000032463B46A047514902983A
S31508006FA0887040F60000294632463B460C4CA047FE
S31508006FB002984C490871093540F6000029463246C0
S31508006FC03B46074CA0470298464988718A1C6621A9
S31508006FD00198FCF79BFD012003B0F0BD2B040000CF
S31508006FE0E97000081CB50446084901AA002340F6C2
S31508006FF0000000F079F83B4801998170821C6721EE
S315080070002046FCF783FD012002B010BD32040000C3
S3150800701050040020FEB50190104D02AE002740F640
S315080070200000294632463B4600F05EF82D4C029891
S31508007030A0704A3540F60000294632463B4600F025
S3150800704053F802982071000AE070A21C6821019882
S31508007050FCF75CFD012003B0F0BDC046E903000063
S3150800706050040020F0B58BB0044601AD282128460F
S31508007070FCF75DF8284607F00FF9E87FA5282DD11B
S31508007080182003E001A900220A54401C2028F9D13F
S3150800709000200125134E13E001AF3F5C1F54471C27
S315080070A01F2801D0824209D1C0B2B0FBF1F0401CC2
S315080070B0B070B21C6A212046FCF728FD6D1C3846C4
S315080070C00721B5FBF1F24A43521EB0FBF1F306273E
S315080070D0FF435F43F319DB1C2028DDD100200BB0EA
S315080070E0F0BDC04650040020B0B50446002062B387
S315080070F040F60005AC420AD040F20045AC4224D125
S31508007100362922D8012B20D1880018491AE00F4BBE
S31508007110CB18542B02D89800134913E00C4BCB1804
S31508007120272B02D898000F490CE00A4BCB18302BB6
S3150800713002D898000A4905E0074BC918232904D83C
S3150800714088000649085810600120B0BD18FCFFFFEA
S3150800715030F8FFFF48F4FFFF60F0FFFFA818002093
S31508007160F0150020B4160020541700203C19002002
S315080071701CB50024019400940F4901AA40F60000AA
S315080071802346FFF7B1FF0D496A4640F6000023463D
S31508007190FFF7AAFF00F0E8FA50B90198552807D07A
S315080071A000F0CEFA28B90098A52801D05A2800D1AF
S315080071B00124204602B010BDF60700003404000082
S315080071C070B50023064CDDB2092D08D8ED00665DC2
S315080071D05B1C8E42F7D161194B681146984770BD02
S315080071E058EF000870B50023064CDDB2132D08D8F9
S315080071F0ED00665D5B1C8E42F7D161194B6811463E
S31508007200984770BD30F8000840F25C11411800201C
S3150800721006E00A6812B998228A581AB1091D401C54
S315080072202528F6D9C0B270471C30002105E002684F
S315080072300AB942691AB1001D491C2529F7D9C8B2ED
S3150800724070470000B0B5134D284606F0C1FF124836
S3150800725000242146224642F2000306F0EEFCED35F4
S31508007260284606F0B5FF0720214606F069FD0225E7
S315080072700D21284607F04CF942F2000021462A461D
S3150800728006F034FC42F20000B0BC02BC8E4606F0A2
S315080072905DBCC0461305000000080048F8B5044662
S315080072A06D466970080A28705D4940F2E8308847DB
S315080072B041220127204629463B46FCF786FB06461F
S315080072C040F2E830564988473D434222204629463F
S315080072D03B46FCF77AFB044640F2E83050498847BB
S315080072E03440204601B0F0BDC9482021012206F0ED
S315080072F097BCC04670B50C01144D2C19A45C072523
S315080073002540E408AA2B10D0552B1DD101231E4673
S3150800731096408900425832434250E8B28340E0B270
S315080073200B490818017D19430DE001231E469640B6
S3150800733089004258B2434250E8B28340E0B2044959
S315080073400818017D9943017570BDC0466606002080
S31508007350000000201CB501AC207040F2E83000F0B7
S3150800736021F90020402201232146FCF72EFB044682
S3150800737040F2E83000F016F9204602B010BD0000D1
S315080073802B480A307047C046014834307047C0461B
S31508007390200500200148808940BA7047E005002092
S315080073A0F3482021002206F03BBCC046FEB5002665
S315080073B0029601A8067005F0B7FE02AA40F600007C
S315080073C040F2E8313346FFF78FFE194923E04C199E
S315080073D0607905281ED340F2E8301149884700969F
S315080073E001AE70220127284631463B46FCF7EDFAE6
S315080073F040F2E8300A498847712228463146009EFD
S315080074003B46FCF7E2FA40F2E83005498847084966
S3150800741000206071761CF5B20298A842D7DCFEBD42
S31508007420A57500080248007800B1704705F08ABFC4
S31508007430C00000207CB501A8C02606700024009470
S315080074406A4640F6000040F2E8312346FFF74CFE54
S3150800745011E040F2E83000F0A5F8012383F3108824
S3150800746030462A30C2B201A92846FCF7AEFA0020F7
S3150800747080F31088641CE5B20098A842E9DC012074
S3150800748002B070BDF8B5394F384606F0A1FE09209E
S31508007490C00600250226012429463246234606F060
S315080074A0CCFBEF37384606F093FE0520294606F052
S315080074B047FC2846294607F02BF820462946324637
S315080074C006F014FB2046F8BC02BC8E4606F03EBB0E
S315080074D0B0B5264D284606F07BFE0920C0060024D6
S315080074E02146224641F2000306F0A7FBEF3528465F
S315080074F006F06EFE0720214606F022FC0C212046E7
S3150800750007F006F8022241F20000214606F0EEFADC
S3150800751041F20000B0BC02BC8E4606F017BBC0465E
S3150800752070B5124E304606F053FE0920C0060025F7
S31508007530022429462A46234606F07FFBEF363046C4
S3150800754006F046FE0520294606F0FAFB01212846E4
S3150800755006F0DEFF20462946224606F0C7FA2046F0
S3150800756070BC02BC8E4606F0F1BAC0461105000092
S31508007570B0B50A4C0A4A002540F6000021462B46BB
S3150800758002F086FC611C40F600002A462B46039C46
S31508007590A646B0BC01B002F07BBCC046D2070000CC
S315080075A03075000005214143044803E00278521C67
S315080075B00270491E0029F9D17047C046EA15002015
S315080075C070B5124E304606F003FE694800250424BD
S315080075D029462A46234606F030FBEE36304606F0A4
S315080075E0F7FD0620294606F0ABFB012002263146A8
S315080075F006F08EFF20462946324606F077FA2046E0
S3150800760070BC02BC8E4606F0A1BAC0461205000040
S3150800761000040048704710B50020072101242246BF
S3150800762003F0BEFD204603F00DFE022003F0AEFD7A
S315080076300028FAD0022003F0A3FD10BC01BC864640
S3150800764003F0FABDFEB502A800220280019240F6B8
S31508007650000640F6000040F6B071134602F018FC2A
S31508007660FFF7D9FF0109A52902D302A926481DE07B
S315080076701F49884202D302A9224817E040F60001B2
S31508007680BC3989B2884202D902A91D480EE01949B7
S31508007690884203D302A941F6407007E0164988429A
S315080076A002D302A9154801E002A9F148088081B26F
S315080076B00420002502AC2A462346FCF78DFB2088C9
S315080076C06421B0FBF1F0114F3880B4B201AA20460C
S315080076D040F6B0712B46FFF707FD0D49019808B132
S315080076E00C4A00E03A880023204602F0D1FBFEBD92
S315080076F0C7080000DB050000BC04000028230000C2
S31508007700581B000070170000881300003A19002063
S31508007710F4070000FFFF00000920C006012106F05B
S3150800772086BA0920C00641F2000106F080BA09208F
S31508007730C006022106F07BBACF48042106F077BAC4
S3150800774080B5C94842F2000106F071FA0021091A0B
S31508007750484180BD80B50920C006102106F067FAA9
S315080077600021091A484180BDC348012106F05FBAC5
S3150800777000040048F0B589B0012668460024046074
S3150800778044608460C660B748871CB748B74D44F262
S3150800779000013A4606973346A847B548B54DA84767
S315080077A06846046044608460C660AF4848F20001D9
S315080077B03A463346AD4FB847AD48A84768460460D1
S315080077C044608460C460A74D6A1C0892AA4840F2C7
S315080077D000213346B847A648A64988476846022185
S315080077E00591046041608460C4600920C706384674
S315080077F0079731462A4623469C4DA84768460460A3
S3150800780044608460C460202538462946954A334634
S31508007810964FB8476846046044608460C4609648DA
S315080078202946089D2A463346B84768460460446098
S315080078308460C460904840F200112A462F463346B9
S315080078408A4DA8476846046044608460C4608648D8
S3150800785042F20001069A2346A84768460460446037
S315080078608460C4601021049107987E4A2346A8477D
S31508007870684603210691046044608160C6607E48BC
S3150800788041F200013D463A463346784FB8476846C6
S315080078900460446006998160C660774842F2000138
S315080078A02F462A463346714DA84768460460446009
S315080078B0069D8560C660704844F200013A46334624
S315080078C06A4FB84768460460001D70C06A4848F2A7
S315080078D00001089D2A463346644FB8476846046047
S315080078E0446006998160C660634840F200412F46AD
S315080078F02A4633465D4DA847684604604460069D9F
S315080079008560C6605C4840F600013A463346574FE4
S31508007910B8476846046044608460C4608021079F55
S315080079203846504A2B46514DA8476846046044607D
S315080079308460C460384641F200014A4A23464B4DEA
S31508007940A8476846046044608460C460384640F6C8
S315080079500001444A3346A8476846046005994160D1
S315080079608460C460444D28463146089F3A462346FB
S315080079703E4DA8476846046044608460C4603E483B
S3150800798004993A463346394FB84768460460446016
S315080079908460C4604021079D2846324A3346B8476A
S315080079A06846046044608460C46004213248089ACA
S315080079B023462E4FB8476846046044608460C46016
S315080079C028460599274A2346B8473D46684604602F
S315080079D044608460C46008212748089A3346B8473B
S315080079E06846046044608460C660079F384640F273
S315080079F000111C4A3346A847684604604460846000
S31508007A00C660384640F20021164A3346A8476846FB
S31508007A10046044608460C660384640F20041FC4A0F
S31508007A203346A8476846046044608460C460F948E1
S31508007A3005990D46089A3346F74EB0473846294603
S31508007A402A4648F2000306F0F8F8684630C0046093
S31508007A504460384648F20001ED4A2346EE4CA047FA
S31508007A6009B0F0BD11050000000800487D7A00083D
S31508007A7010270000A57500080004004870B51E46CA
S31508007A800C460546104606F0A3FB059A28463146DD
S31508007A90234606F0D2F8012E0ED1079E069A0499BF
S31508007AA02846234606F0E7F828462146324670BCA3
S31508007AB008BC9E4606F0B4B870BD0000F0B58DB09F
S31508007AC0012668460024046044608460C660EA486B
S31508007AD0421C0C92FB48D04D40F200213346A84781
S31508007AE0CE48CF4988476846046044608460C460CD
S31508007AF0E148871CCB4848F200013A4608973346C6
S31508007B00A847C94D2846C649884768460460446060
S31508007B108460C660C34844F200013A463346099673
S31508007B20BD4FB8472846BE498847684602210A918C
S31508007B30046041608460C4600920C70638460B9714
S31508007B403146CD4A2346B44DA8476846046044608A
S31508007B508460C460202538462946C74A3346AE4F56
S31508007B60B8476846046044608460C460D54F3846A8
S31508007B7029460C9D2A463346A74EB04768460460F8
S31508007B8044608460C460384640F200112A462346A1
S31508007B90B0476846046044608460C460A14842F205
S31508007BA00001089A2346B04768460460446084602A
S31508007BB0C460102106910B98AF4A2346B047684621
S31508007BC003250460446085600895C460384641F220
S31508007BD000010C9F3A46099B8F4EB04768460460E1
S31508007BE044608560C460B74842F200013A46099D80
S31508007BF02B46894EB0476846046044600899816000
S31508007C002E46C560AF4844F200013A462B46824DDF
S31508007C10A847684604604460089D8560C660A94810
S31508007C2048F200013A46334637467B4EB047684627
S31508007C30046044608560C460A24840F200410C9A22
S31508007C403B46B0476846046044608560C4609D480A
S31508007C5040F600010C9A3B463E466F4FB8476846C9
S31508007C60046044608460C460802107910B9F384695
S31508007C70814A2B46684DA84768460460446084607C
S31508007C80C460384641F200017B4D2A462346624DC0
S31508007C90A8476846046044608460C460384640F675
S31508007CA00001754A354633465B4EB0476846046060
S31508007CB00A9941608460C460824F384629462E4638
S31508007CC00C9D2A462346544FB847684604604460CC
S31508007CD08460C4607B4806992A4633464E4DA847B9
S31508007CE06846046044608460C460402108910B9F24
S31508007CF03846614A3346A84768460460446084604B
S31508007D00C460042106916F480C9D2A462346424EBC
S31508007D10B0476846046044608460C46038460A997F
S31508007D20554A2346B0476846046044608460C46088
S31508007D300821059163482A46099E3346364DA847C9
S31508007D406846046044608460C460384640F20011A6
S31508007D50494D2A463346304DA84768460460446074
S31508007D608460C460384640F20021434A33462A4DAF
S31508007D70A8476846046044608460C460384640F298
S31508007D8000413D4A3346244DA8476846046044608E
S31508007D908460C4604B480A9F39460C9A3346A84704
S31508007DA0684690C0046044600B9F384648F200015C
S31508007DB0314A2346A8476846046044608460C46024
S31508007DC038460699F94A16462346A847684604607F
S31508007DD044608460C4603846059932462346A847FD
S31508007DE06846046044608460C460364E304608992C
S31508007DF00C9F3A462346A847684604604460846058
S31508007E00C460304607993A462346A8470DB0F0BDE8
S31508007E1011050000000400487D7A0008C027090003
S31508007E20A5750008000800481027000070B5DF4E49
S31508007E30304606F0CDF90920C0060025102429464B
S31508007E402A46234605F0F9FEEF36304606F0C0F915
S31508007E500720294605F074FF0421284606F058FB3A
S31508007E6001222046294605F041FE204670BC02BC88
S31508007E708E4605F06BBEC046110500000246114845
S31508007E80082105F0CDBEC04602460920C00640F2CC
S31508007E90001105F0C5BE02460920C00640F20021C1
S31508007EA005F0BEBE7047704702460920C00640F27C
S31508007EB0004105F0B5BE000002460248102105F053
S31508007EC0AFBEC0460004004802460920C00640214D
S31508007ED005F0A6BE012080F31088BFF34F8F034834
S31508007EE003490160BFF34F8F00BFFDE70CED00E0CB
S31508007EF00400FA05F8B51949411889B2184A914299
S31508007F0008D919490122002440F60000234601F049
S31508007F10BFFF1FE04821002491260BE09CB2AEB2B9
S31508007F20371BA21B012A13D0012F11D0A11949080A
S31508007F301E462C468BB25B000A4AD75A87420B4626
S31508007F4000D3334687420D4600D825468742E5D1F9
S31508007F5064244C43A0B201B0F0BDC046CAF5FFFF89
S31508007F60CC6F00008EEB0008BB0F000008480949DB
S31508007F704160FF210906084A13688B4303218907D4
S31508007F801943116000218160072101607047C046CE
S31508007F9010E000E07FBB000020ED00E07CB5002487
S31508007FA001941D4901AA40F600002346FFF79CF8F4
S31508007FB01A480168624A501A8A180199914215DAD4
S31508007FC0814213DDFFF7ADFB80B94F4D2846FCF71C
S31508007FD009FB012648B9A81DFCF704FB28B903F0DC
S31508007FE0F7F910B905F084F918B13446204602B0FD
S31508007FF070BDFFF7A5FB0028F8D1FFF7ABFB0028FB
S31508008000F4D10748007807490A7882423446EDD009
S3150800801008700024EAE7C046D207000020010020C5
S31508008020C80F002062090020FEB5002502950195BB
S3150800803040F60007314C02AA40F6000021462B46BE
S31508008040FFF752F8FFF7AAFF2D4E3168491C0128A1
S3150800805000D0294631602B4B187908B1401E18719B
S31508008060B8B22146373101AA002500901F462B4693
S31508008070FFF73AF8FFF764FB397901430198A52819
S3150800808003D1080601D1022002901F4F3846FCF79B
S31508008090A9FA48B9B81DFCF7A5FA28B903F098F962
S315080080A010B905F025F970B10120164B18707068E3
S315080080B0401C70603168029A91420DD2062901D39C
S315080080C03C2809D2FEBD00200E4B187070600F497F
S315080080D009780029F6D1EDE735601D4600F076FFF0
S315080080E028782C3408B9012200E0A522002300983C
S315080080F0214601F0CDFE00F00BF8C046FD03000056
S315080081009405002018010020A10F0000A00F0020F0
S3150800811080B50B48FFF746FA02F0EEFF00F079FC4F
S31508008120FFF7CCFC0748FFF73DFA02F095FC064836
S3150800813006F04EF80120002105F04AFEFEE7C0468B
S3150800814030750000A08601001C07000010B5174C0A
S31508008150204606F03DF8F834204606F039F80620A1
S3150800816005F06AFE0920C006032100248023224662
S3150800817005F063FD204602F0B3FF012420462146A0
S3150800818002F08EFF07204104204602F0E5FF204654
S31508008190214602F0C1FF02F0B5FF40F2E830FFF7D2
S315080081A001FA10BC01BC864602F06ABF1105000040
S315080081B0F8B5002006F02CF805F05EFF0321CA4347
S315080081C01D4883581D4DAC1C1C43845001235C0478
S315080081D0865826406F1E15B1002E3D46F8D08558A4
S315080081E0254228D0164C25680726B5431D43256029
S315080081F00468046004680460046804600468114D37
S31508008200254005602B242404056825430560845809
S315080082101D062543855084585D062C42FBD002680E
S315080082208A430260016802220A4302600168082242
S315080082301142FBD0F8BDFEE704100240FEFF000025
S3150800824000200240FFFFC077FEE7000010B50C488B
S31508008250143055210B4A07E00F23DB43C358046843
S31508008260E31808C21830491E0029F5D1002006492E
S3150800827002E000220A50001DDC28FAD110BDC046D3
S3150800828020F00008541700203C190020F0B587B0EC
S315080082900024069405940494039401943C4E06AA7B
S315080082A03C4D40F6000031462346A8473A4F06980B
S315080082B0F861B11D05AA40F600002346A847059AAD
S315080082C036491531364D40F600002346A84735494C
S315080082D005980880F969414340F2E83291FBF2F1CA
S315080082E0F96006F0C5F8311D04AA40F600002346D9
S315080082F0284DA8470498F862711D03AA40F60000A5
S315080083002346A8470398F968FA6A3A633962786295
S31508008310B862F869049991FBF0F202923146354643
S31508008320083140F6000023461D4EB047E91C01AA55
S3150800833040F600002346174DA847184EB11C02AA5E
S3150800834040F600002346134DA84702980199414379
S31508008350642591FBF5F2029240F600003146234669
S315080083600F4EB047F86990FBF5F00A21029A92FB86
S31508008370F1F14143029140F2E83091FBF0F20748EF
S31508008380411C40F600002346B04707B0F0BDC04682
S31508008390F1030000E970000860020020D40700001D
S315080083A0919E0008181A0020CD480178491C0170D2
S315080083B04178491C4170C178491CC1708178491CB3
S315080083C081700179491C01714179491C4171817992
S315080083D0491C8171C179491CC1717047FDF784BE7A
S315080083E07047000070B514460D4606460846FEF767
S315080083F0CDF9401E042831D8810001A251188F46B4
S3150800840000F008B800F00CB800F013B800F019B87E
S3150800841000F01FB8284670BC02BC8E4606F06FB83E
S315080084200F480121017030462946224601F08EFD8B
S3150800843070BD30462946224670BC08BC9E46FEF7EB
S31508008440D1BE30462946224670BC08BC9E46FEF779
S31508008450B7BE30462946224601F08CFD70BDC0469F
S31508008460AE0F00207047FCF753B800007CB50446F1
S3150800847000200190B04D29780A39052900D985E0F0
S315080084808A0001A39A18974600F00AB800F01BB8AC
S3150800849000F024B800F033B800F048B800F058B837
S315080084A0444901AA002340F60000FEF71DFED2202B
S315080084B0D22C6BD1EA49087028730B20287088489B
S315080084C0002181717CBD102C60D80120A04038495C
S315080084D008425BD0E24844706C735BE0DD490A7879
S315080084E0521C0A70D2B2022A52D3EC7308700D20BD
S315080084F02870088900022043D94948807CBDD5499F
S315080085004A78521C4A70D2B2022A45D30A89120204
