S31508003000F01E0020793100087D920008199000080A
S3150800301000000000000000000000000000000000A2
S31508003020000000000000000000000000A1A0000849
S3150800303000000000000000003594000805BE0008E6
S31508003040A931000800000000A9310008A9310008CC
S31508003050A9310008C9620008DD6200082963000872
S3150800306000000000A9310008A9310008A9310008AC
S31508003070A9310008A9310008A9310008000000009C
S31508003080A9310008A9310008A9310008A9310008AA
S31508003090A9310008A9310008A9310008A93100089A
S315080030A0A9310008A9310008A9310008B5C30008EC
S315080030B085C40008A931000800F002F800F030F8CD
S315080030C00CA030C8083824182D18A246671EAB462F
S315080030D054465D46AC4201D100F022F87E460F3ECA
S315080030E00FCCB6460126334200D0FB1AA246AB46A1
S315080030F033431847ECBE00000CBF00000023002431
S3150800310000250026103A01D378C1FBD8520700D310
S3150800311030C100D50B6070471FB51FBD10B510BD77
S3150800312000F075F91146FFF7F7FF0BF08AFC00F07F
S315080031308DF903B4FFF7F2FF03BC00F093F9000022
S3150800314070B505460C46164602E00FCC0FC5103E74
S31508003150102EFAD2082E02D303CC03C5083E042E3D
S3150800316007D301CC01C5361F03E021782970641CFA
S315080031706D1C761EF9D270BD0F4880F308880F487B
S315080031800168090E0E4A914205D10E480E490160A2
S315080031900E480F4901600F4880470F480047FEE771
S315080031A0FEE7FEE7FEE7FEE7FEE700000B480C49F0
S315080031B00C4A0D4B70470000F01E0020040000006A
S315080031C01F00000018100240010000000000014026
S315080031D00000000075BE0008B9300008F01600208F
S315080031E0F01E0020F01A0020F01A0020F8B5042A74
S315080031F02CD3830712D00B78491C0370401C521E2F
S3150800320083070BD00B78491C0370401C521E83079A
S3150800321004D00B78491C0370401C521E8B079B0F69
S3150800322005D0C91ADF002023DE1B08C90AE0FFF70C
S3150800323087FFF8BD1D4608C9FD401C46B4402C430F
S3150800324010C0121F042AF5D2F308C91A521EF0D468
S315080032500B78491C0370401C521EEAD40B78491C93
S315080032600370401C012AE4D409780170F8BD01E016
S3150800327004C0091F0429FBD28B0701D50280801CD4
S31508003280C90700D00270704700290BD0C30702D0C7
S315080032900270401C491E022904D3830702D5028006
S315080032A0801C891EE3E70022EEE70022DFE7002202
S315080032B003098B422CD3030A8B4211D300239C4665
S315080032C04EE003460B433CD4002243088B4231D3DD
S315080032D003098B421CD3030A8B4201D394463FE071
S315080032E0C3098B4201D3CB01C01A524183098B42D1
S315080032F001D38B01C01A524143098B4201D34B01BA
S31508003300C01A524103098B4201D30B01C01A52411C
S31508003310C3088B4201D3CB00C01A524183088B42A3
S3150800332001D38B00C01A524143088B4201D34B008C
S31508003330C01A5241411A00D20146524110467047FE
S315080033405DE0CA0F00D04942031000D34042534003
S3150800335000229C4603098B422DD3030A8B4212D3C3
S31508003360FC22890112BA030A8B420CD389019211F5
S315080033708B4208D3890192118B4204D389013AD032
S31508003380921100E08909C3098B4201D3CB01C01A07
S31508003390524183098B4201D38B01C01A524143091A
S315080033A08B4201D34B01C01A524103098B4201D308
S315080033B00B01C01A5241C3088B4201D3CB00C01A75
S315080033C0524183088B4201D38B00C01A5241D9D28D
S315080033D043088B4201D34B00C01A5241411A00D20E
S315080033E00146634652415B10104601D34042002B0A
S315080033F000D54942704763465B1000D3404201B589
S315080034000020C046C04602BD7047704770477546E3
S3150800341000F024F8AE46050069465346C008C000C9
S31508003420854618B020B5FFF7C1FE60BC00274908DD
S31508003430B6460026C0C5C0C5C0C5C0C5C0C5C0C53E
S31508003440C0C5C0C5403D49008D46704710B5044605
S31508003450C046C0462046FFF76CFE10BD00487047C0
S315080034608C16002001491820ABBEFEE72600020094
S31508003470704770B58C180578401C6B075B0F01D137
S315080034800378401C2A1106D10278401C03E006780E
S31508003490401C0E70491C5B1EF9D12B0705D400236E
S315080034A0521E0DD40B70491CFAE70378401CCB1A40
S315080034B0921C03E01D780D70491C5B1C521EF9D541
S315080034C0A142D8D3002070BD10B50B460021846AEE
S315080034D01C43846200BF0C4614432146416110BD5B
S315080034E0002904D0826801231A43826003E08268B7
S315080034F002231A438260704710B504460548844281
S3150800350007D10121401506F0C1FA0021601506F021
S31508003510BDFA10BD0024014030B501460020002246
S3150800352000238C680125ED072C438C6000BF8C684E
S31508003530E30FDB07521C0F242403A24201D0002B01
S31508003540F5D18C68E40FE407002C01D1086C00E083
S31508003550002030BD0146086C80B2704730B502467F
S3150800356000200023012424060C40002C05D0946872
S3150800357001252D06AC43234600E013681C460C4083
S31508003580002C01D0012000E0002030BD10B500223B
S31508003590C268084B1A400C7964030B6823438C688D
S315080035A02343CC6823430C6923434C6923431A43BA
S315080035B0C26010BD03D2FFFF10B504F033FF002828
S315080035C006D007480078012108430549087005E038
S315080035D003480078FE2108400149087010BD000024
S315080035E0AC030020816804221143816070470021E2
S315080035F0016001718160C16001614161704700002D
S31508003600FEB50020029001900024002500270090B6
S315080036100026002302AA7D21C9000120C00204F069
S315080036200BFB00BF33E01C482118002301AA012028
S31508003630C00204F001FB002524E03320604317494B
S3150800364041186800801D085C010233206043134A54
S3150800365082186800C01D105C09180091009988B28C
S3150800366005F0A6FA06460E498E4200DD0E4664218E
S315080036703046FFF726FE79000A4A5052781CC7B230
S31508003680681CC5B201988542D7DB601CC4B2029893
S315080036908442C8DBFEBD0000ED030000781500205B
S315080036A0744000005E160020FEB5002001900090D0
S315080036B00026002500270024002301AA7D21C90031
S315080036C00120C00204F0B8FA00BF53E02B482918BD
S315080036D000236A460120C00204F0AEFA002744E03F
S315080036E0332068432649411878000E30085C0102E9
S315080036F033206843224A821878000F30105C0E186F
S31508003700B0003018400961001E4A50526000114648
S31508003710085A1D49884202DD0846610050521B4876
S31508003720864202D01A48864212D11A48005D401CC9
S31508003730184908550846005D0A2812DB6000114939
S31508003740085A6100144A505200201249085508E0E8
S3150800375060000C49085A61000F4A505200200D4972
S315080037600855601CC4B2781CC7B200988742B7DBFC
S31508003770681CC5B201988542A8DBFEBDE9030000B6
S31508003780781500201E16002088130000FF7F000011
S31508003790FFFF00006A160020DE15002010B5002283
S315080037A00121C9030B4803F03FFA1E200AF0E2FE86
S315080037B001229103074803F037FA1E200AF0DAFEC1
S315080037C0002201218903034803F02EFA1E200AF07D
S315080037D0D1FE10BD00040048F0B5A1B006460F465C
S315080037E015460020209080216846FFF75EFD00F010
S315080037F08BF8342000F044F906F07CFA002804D14E
S3150800380000F0A8F8002021B0F0BD384600F038F9DD
S3150800381006F070FA002803D100F09CF80020F2E7C1
S31508003820284600F02DF906F065FA002803D100F0C5
S3150800383091F80020E7E700F067F8352000F020F956
S3150800384006F058FA002803D100F084F80020DAE7D9
S31508003850002406E000F02CF83055FFF79FFF601CA7
S3150800386084B2AC42F6DB00F023F8209000F090F822
S3150800387000F070F83421684601704770857035216C
S31508003880C170002405E0315D201D6A461154601C94
S3150800389084B2AC42F7DB281DC1B2684600F0E8FFE7
S315080038A02099884201D00020ADE70120ABE700004F
S315080038B070B5002400F0EEFA00251DE06006040E3F
S315080038C0012291030F4803F0AFF91E200AF052FEB9
S315080038D00121C9030B4803F09DF9012801DB0120EA
S315080038E00443002201218903064803F09DF91E209E
S315080038F00AF040FE681CC5B2082DDFDB00F0DAFAD4
S31508003900204670BD0004004810B5012291031048F6
S3150800391003F08AF91E200AF02DFE0122D1030C4875
S3150800392003F082F91E200AF025FE00220121C903B0
S31508003930074803F079F91E200AF01CFE002201212F
S315080039408903034803F070F91E200AF013FE10BD20
S315080039500004004810B500220121C9030B4803F0F2
S3150800396063F91E200AF006FE01229103074803F0B8
S315080039705BF91E200AF0FEFD0122D103034803F07D
S3150800398053F91E200AF0F6FD10BD00000004004899
S3150800399010B50122D1030C4803F046F91E200AF09F
S315080039A0E9FD01229103084803F03EF91E200AF0BA
S315080039B0E1FD002201218903034803F035F91E20A1
S315080039C00AF0D8FD10BD000000040048F0B5A1B00B
S315080039D005460F461646802101A8FFF766FC00201B
S315080039E000903421684601714771002405E0295D7D
S315080039F0A01C01AA1154601C84B2B442F7DBB01CA7
S31508003A00C1B201A800F034FF0090FFF77DFF342013
S31508003A1000F036F806F06EF9002804D1FFF79AFF91
S31508003A20002021B0F0BD384600F02AF806F062F909
S31508003A30002803D1FFF78EFF0020F2E700240DE0EF
S31508003A4028786D1C00F01CF806F054F9002803D1FC
S31508003A50FFF780FF0020E4E7601C84B2B442EFDB86
S31508003A60009800F00DF806F045F9002803D1FFF795
S31508003A7071FF0020D5E7FFF76DFF0120D1E70000B1
S31508003A8070B50446002528E08020264606406006D4
S31508003A90040E802E05D10122D103114803F0C4F883
S31508003AA005E000220121C9030D4803F0BDF81E20D8
S31508003AB00AF060FD01229103094803F0B5F81E20BB
S31508003AC00AF058FD002201218903054803F0ACF8E5
S31508003AD01E200AF04FFD681CC5B2082DD4DB70BD48
S31508003AE00004004810B50022012149030B4803F0E1
S31508003AF09BF81E200AF03EFD01221103074803F039
S31508003B0093F81E200AF036FD002201210903034816
S31508003B1003F08AF81E200AF02DFD10BD00040048A7
S31508003B20F0B5A1B006460F46154600202090802124
S31508003B306846FFF7BAFB00F08BF8342000F044F92A
S31508003B4006F0FEF8002804D100F0A8F8002021B0FD
S31508003B50F0BD384600F038F906F0F2F8002803D12F
S31508003B6000F09CF80020F2E7284600F02DF906F050
S31508003B70E7F8002803D100F091F80020E7E700F005
S31508003B8067F8352000F020F906F0DAF8002803D1A6
S31508003B9000F084F80020DAE7002406E000F02CF8AC
S31508003BA03055FFF79FFF601C84B2AC42F6DB00F08D
S31508003BB023F8209000F090F800F070F83421684659
S31508003BC00170477085703521C170002405E0315DAC
S31508003BD0201D6A461154601C84B2AC42F7DB281DCE
S31508003BE0C1B2684600F044FE2099884201D0002000
S31508003BF0ADE70120ABE7000070B5002400F06AF9D4
S31508003C0000251DE06006040E012211030F4803F08B
S31508003C100BF81E200AF0AEFC012149030B4802F0FE
S31508003C20F9FF012801DB01200443002201210903D1
S31508003C30064802F0F9FF1E200AF09CFC681CC5B273
S31508003C40082DDFDB00F056F9204670BD0004004859
S31508003C5010B501221103104802F0E6FF1E200AF0F3
S31508003C6089FC012251030C4802F0DEFF1E200AF0EF
S31508003C7081FC002201214903074802F0D5FF1E20D6
S31508003C800AF078FC002201210903034802F0CCFF60
S31508003C901E200AF06FFC10BD0004004810B5002273
S31508003CA0012149030B4802F0BFFF1E200AF062FCFF
S31508003CB001221103074802F0B7FF1E200AF05AFC3A
S31508003CC001225103034802F0AFFF1E200AF052FCFE
S31508003CD010BD00000004004810B5012251030C482D
S31508003CE002F0A2FF1E200AF045FC01221103084833
S31508003CF002F09AFF1E200AF03DFC0022012109036A
S31508003D00034802F091FF1E200AF034FC10BD0000A3
S31508003D1000040048F0B5A1B005460F4616468021B6
S31508003D2001A8FFF7C2FA0020009034216846017105
S31508003D304771002405E0295DA01C01AA1154601CE6
S31508003D4084B2B442F7DBB01CC1B201A800F090FD02
S31508003D500090FFF77DFF342000F036F805F0F0FFFD
S31508003D60002804D1FFF79AFF002021B0F0BD38469D
S31508003D7000F02AF805F0E4FF002803D1FFF78EFFCC
S31508003D800020F2E700240DE028786D1C00F01CF8EE
S31508003D9005F0D6FF002803D1FFF780FF0020E4E7EF
S31508003DA0601C84B2B442EFDB009800F00DF805F011
S31508003DB0C7FF002803D1FFF771FF0020D5E7FFF7FB
S31508003DC06DFF0120D1E7000070B50446002528E004
S31508003DD08020264606406006040E802E05D1012264
S31508003DE05103114802F020FF05E000220121490392
S31508003DF00D4802F019FF1E200AF0BCFB0122110330
S31508003E00094802F011FF1E200AF0B4FB0022012126
S31508003E100903054802F008FF1E200AF0ABFB681CE0
S31508003E20C5B2082DD4DB70BD00040048F8B50446B9
S31508003E300D4616461F4600200090002C06D13A462D
S31508003E4031462846FFF7C8FC009007E0012C05D14B
S31508003E503A4631462846FFF763FE00900098F8BDBB
S31508003E60F8B504460D4616461F4600200090002C5D
S31508003E7006D13A4631462846FFF7A8FD009007E0E6
S31508003E80012C05D13A4631462846FFF743FF0090F4
S31508003E900098F8BD1CB50120C003009003216846B0
S31508003EA04171002101716946014802F049FE1CBDB5
S31508003EB0000400481CB50120C00300900321684691
S31508003EC04171012101716946014802F039FE1CBDA4
S31508003ED0000400481CB501204003009003216846F1
S31508003EE04171002101716946014802F029FE1CBD95
S31508003EF0000400481CB501204003009003216846D1
S31508003F004171012101716946014802F019FE1CBD83
S31508003F100004004810B5044605210E480088401CD8
S31508003F20FFF7CFF90C480088814212D00949098861
S31508003F300D225143094A88180D222146FFF756F9E2
S31508003F40052104480088401CFFF7BBF988B20149DF
S31508003F50088010BD8602002088020020B3060020D3
S31508003F6010B50446142112480088401CFFF7A9F929
S31508003F7010480088814219D0E078002801D108202D
S31508003F80E0700B4909880D2251430B4A88180D2207
S31508003F902146FFF72BF9142105480088401CFFF736
S31508003FA090F988B202490880012010BD0020FCE77C
S31508003FB08202002084020020AF05002070B586B07A
S31508003FC005460E461446002002900390049005907C
S31508003FD001200190002301AA2749C00203F02CFE04
S31508003FE0002D22D1A52168460172012141728672EF
S31508003FF00821C17221780173617802A84171A178FC
S315080040008171E178C1712179017261794172A17971
S315080040108172E179C17202A80FC805F043FF6946AB
S31508004020087502A800F0A6F823E0012D21D1A521E4
S31508004030684601720121417286720821C17221788F
S315080040400173617802A84171A1788171E178C17123
S315080040502179017261794172A1798172E179C1721E
S3150800406002A80FC805F01EFF6946087502A8FFF7E3
S3150800407077FF06B070BD00002A04000010B504469C
S3150800408010490988481CC10F091849104900411AE6
S315080040900D4A1288914213D00A490988A22251432F
S315080040A00A4A8818A2222146FFF7A0F80549098876
S315080040B0481CC10F091849104900411A014A1180C4
S315080040C010BD0000D2020020D4020020000B002000
S315080040D010B5044611490988481CC10F091849102A
S315080040E04900411A0E4A1288914215D00B4909888F
S315080040F0A22251430B4A8818A2222146FFF776F8D6
S3150800410006490988481CC10F091849104900411A6F
S31508004110024A1180012010BD0020FCE7CE020020D3
S31508004120D0020020BC09002010B5044605210E481F
S315080041300088401CFFF7C5F80C480088814212D059
S31508004140094909880D225143094A88180D22214632
S31508004150FFF74CF8052104480088401CFFF7B1F822
S3150800416088B20149088010BD7C0200207E0200202A
S315080041706E05002010B50446142112480088401C1C
S31508004180FFF79FF810480088814219D0E078002888
S3150800419001D10820E0700B4909880D2251430B4ACA
S315080041A088180D222146FFF721F8142105480088B2
S315080041B0401CFFF786F888B202490880012010BD26
S315080041C00020FCE7780200207A0200206A0400201A
S315080041D07CB50024002500200190009000BFA1E0D6
S315080041E0062060436149085A6149884207D006207B
S315080041F060435E49085A5E49891C884216D10023E5
S3150800420001AA5C490120C00203F016FD002834D03B
S315080042100198022831D106206043544A115A0023D6
S315080042201A460120C00207F079FA79E006206043B1
S315080042304E49085A4E49491C884207D00620604311
S315080042404A49085A4A49C91C884216D1002301AA74
S3150800425048490120C00203F0EFFC00280DD0019860
S3150800426001280AD106206043404A115A00231A46FB
S315080042700120C00207F052FA52E0062060433B498B
S315080042804018808800281CD0062060430A468018FB
S31508004290818800236A460120C00203F0CDFC00286D
S315080042A000D13DE0009855280BD102200543062091
S315080042B060432E4A115A00230222900207F02EFA72
S315080042C02EE00620604329494018408800281CD063
S315080042D0062060430A468018418800236A46012062
S315080042E0C00203F0A9FC002800D119E0009855285F
S315080042F00BD101200543062060431C4A115A0023AE
S315080043000122D00207F00AFA0AE006206043174A9B
S31508004310115A00231A460120C00207F0FFF900BF10
S31508004320601C84B20C2C00D25AE7022028400028D0
S3150800433007D0002302220F490931900207F0EEF94F
S3150800434013E0E807C00F002807D000230122094917
S315080043500931D00207F0E2F907E000231A460549B9
S3150800436009310120C00207F0D9F97CBD40F10008E7
S31508004370A20F0000D3070000FFB583B016461F46FC
S315080043800C9C00200290002F3FD02088B84203DA08
S315080043902088401C208000E027802088401E85B2A7
S315080043A006E0681E4000305A69007052681E85B2E1
S315080043B0002DF6DC03983080002506E06800315AA7
S315080043C0029808180290681C85B22088A842F5DC75
S315080043D0208841004018019021880298FEF767FF5F
S315080043E00198C017820F019810188010814203D9CE
S315080043F0218802980818029021880298FEF757FF2C
S315080044000290029881B20498018007B0F0BD0000BE
S31508004410F8B505460E4614461F46012D06D0022D50
S3150800442011D0032D1CD0042D2CD122E06000164992
S3150800443040180090A00015490A580323394630460B
S31508004440FFF79AFF1EE06000114940180090A0008F
S3150800445010490A58022339463046FFF78DFF11E006
S315080044600D4805230D4A394600903046FFF784FF6C
S3150800447008E00B4802230B4A394600903046FFF7FE
S315080044807BFF00BF00BFF8BD14040020A401002074
S3150800449054040020240200203C020020600400206E
S315080044A0420200203E02002010B50AF005FD03F086
S315080044B073FF002804D003480078401C014908709F
S315080044C010BD0000C60000201FB500200090019016
S315080044D0029003900E4800880E490988884215D034
S315080044E00B4800880D2250430B4A81180D22684656
S315080044F0FEF77CFE684600F09FF90521044800880F
S31508004500401CFEF7DEFE88B2014908801FBD000088
S315080045108802002086020020B30600201FB500206E
S315080045200090019002900390124800881249098869
S3150800453088421ED01148007800281AD101200F4958
S3150800454008700C4800880D2250430D4A81180D2228
S315080045506846FEF74BFE684609F0E6FD012808D1D5
S31508004560142104480088401CFEF7ABFE88B20149B6
S3150800457008801FBD84020020820200208A020020D3
S31508004580AF050020F8B5002400250020009000267D
S3150800459000236A467D21C9000120C00203F04CFBB6
S315080045A00098C5B2AA201449087000BF00BF19E0D8
S315080045B0A0001249085800280BD0A0000A46105A35
S315080045C081B2204603F084FC55200B490870012669
S315080045D006E0A000094A105A81B2204603F078FC8A
S315080045E0601CC4B2AC42E3DB012332463521980293
S315080045F007F094F8F8BD0000540200204402002099
S31508004600F0B585B00020039002900027002500260B
S3150800461001900090002440480088401C80B23E4922
S3150800462008804B21C900884206DB00203B490870F8
S315080046304B20C0003849088038480078012801D145
S3150800464005B0F0BD002302AA35490120C00203F0D7
S31508004650F3FA029F002302AA3F2149010120C00262
S3150800466003F0EAFA029D002302AA2D49891C0120BB
S31508004670C00203F0E1FA029E002302AA41210901C1
S315080046800120C00203F0D8FA02980190002303AA79
S3150800469023490C390120C00203F0CEFA03980128F9
S315080046A003D02048007801280DD15F2E07DA19209B
S315080046B08001854203DB01201B49087006E00220C1
S315080046C01949087002E002201749087000F0A0F99D
S315080046D015480078012819D000236A467D21C900AB
S315080046E00120C00203F0A8FA002405E000212046B4
S315080046F003F0EEFB601CC4B200988442F6DB01238B
S3150800470000223521980207F009F899E700F0C0F869
S31508004710FFF738FF00BF93E75C020020560200202F
S31508004720DF0700005F02002055020020FEB505469F
S315080047300024002600200290002701900090002304
S3150800474002AA7D21C9000120C00203F075FA029869
S31508004750C6B200BF0DE0002D05D00020C043A10061
S315080047602B4A505003E00020A100294A5050601CF3
S31508004770C4B2B442EFDB00240AE0002D03D0FF20C8
S315080047802449085502E0002022490855601CC4B295
S31508004790082CF2DB20480570002D2BD0002426E0DB
S315080047A01E482118002302AA0120C00203F044FA79
S315080047B002983F181A480078B8420BDC1848017866
S315080047C00198814206DD164801780198081A80B2D8
S315080047D0009001E00020009001970098401E0122F9
S315080047E0824091B2204603F073FB601CC4B2B44207
S315080047F0D6DB09E0002405E00021204603F068FB2B
S31508004800601CC4B2B442F7DB002006490880FEBD2E
S31508004810440200204C02002056020020E903000052
S31508004820570200205C02002002480078401C01491B
S31508004830087070471803002010B504466078802871
S3150800484007D1012009490870A178221D04F0BEFD90
S3150800485007E06078402804D1A178221D012004F0E1
S31508004860B5FD00200149087010BD00008203002034
S3150800487010B50246002006E013784340034CE05C7E
S31508004880521C4B1ED9B20029F6DC10BDE0EE00081A
S31508004890F0B5BBB000240025002600203A903990D8
S315080048A0389037900027AA2036900020359034900B
S315080048B033903290802112A8FEF7F7FC0020119061
S315080048C01090002310AA7D21C9000120C00203F020
S315080048D0B3F91098C0B23590002310AA4A490120AE
S315080048E0C00203F0A9F910983490002310AA46498B
S315080048F0491C0120C00203F09FF910983390002349
S3150800490010AA3F2149010120C00203F095F9109829
S3150800491080B23790684605F0A3FE2022694608A8AB
S31508004920FEF70EFC00BF6AE0680008A9085A119055
S315080049303499119888425ED33348113829180023D0
S3150800494010AA0120C00203F077F91098C6B2102EFB
S3150800495001DC002E01D13BB0F0BD002414E005F0C7
S3150800496089FE790040186100405A3890A90112AAB8
S315080049708918A20038988852A80112A94018A100DF
S3150800498040188470601CC4B2B442E8DBA90112AABC
S315080049908818314609F0E0FCB01EC4B229E0A80127
S315080049A012A94018A100401880783A90A80112A9C7
S315080049B04018A100415A3798081A399033993998FE
S315080049C088420AD3A80112A94018A100415A34986E
S315080049D0814202D35520369001E0AA2036903A98B3
S315080049E0329029460948369B329A03F0A3FA601C8E
S315080049F0C4B2B442D3DBB819C7B2681CC5B235987D
S31508004A00854291DB00BFA6E7FA03000044020020B6
S31508004A1038B5002400250020009000236A467D2131
S31508004A20C9000120C00203F007F90098C5B200BF0B
S31508004A3005E00020A100084A5050601CC4B2AC42F0
S31508004A40F7DB002404E0002004490855601CC4B2C2
S31508004A50082CF8DB38BD0000440200204C02002078
S31508004A6010B500F071FA10BD7CB500200190002445
S31508004A700025009000236A463E490120C00203F043
S31508004A80DBF80098002800D07CBD002301AA3A492B
S31508004A900120C00203F0D0F838480078401C374996
S31508004AA00870084600781E2803DC0198401C01900F
S31508004AB006E032480078642802DB00202F49087097
S31508004AC02F49097889002F4A019850500A212C4805
S31508004AD00078401CFEF7F5FBC8B2294908702A4938
S31508004AE0019888422EDA01980C1A2848844201DD7A
S31508004AF00024C9E725462648006800280AD1254823
S31508004B000068234908600023234A24490120C0027B
S31508004B1003F092F8204909681F22520151430846BA
S31508004B207D21C900FEF7CDFB1A490968884204DDD4
S31508004B301B48006840191A4908601A480068001995
S31508004B401849086010490198884211DD0198441AED
S31508004B500E48844201DD002496E725461048006881
S31508004B60401B0F4908601048006800190E49086084
S31508004B7000BF89E7BF0F0000D207000058030020D6
S31508004B804C0300206C0C002030750000A08C00003F
S31508004B90500300202403002054030020F1030000E2
S31508004BA0340300204403002048030020FEB50646CF
S31508004BB00C4600250020029001900090012E04D09A
S31508004BC0022E28D0032E78D18FE000205B4908807A
S31508004BD05B4908805B4800685B49884218DC59488D
S31508004BE0006859491439884212DB012001900023D4
S31508004BF05448564902680120C00206F08FFD514804
S31508004C00008800B24D49088001205149087001E02A
S31508004C10002001908EE04E480078012802D000203E
S31508004C20019087E04748016820461430814259DCE4
S31508004C30283844490968884254DC012001904148D3
S31508004C40008800B23E4908803F480A38844202DBA1
S31508004C50201A009003E03C480A38001B00903849A7
S31508004C600020085E354900228A5E90420EDD344BEC
S31508004C7000229A5E0B460027DF5FD11B6423009A49
S31508004C805A431046FEF713FB05461AE02C49002046
S31508004C90085E2A4900228A5E90420FDA0B460022F5
S31508004CA09A5E274B0027DF5FD11B6423009A5A437D
S31508004CB01046FEF7FCFA054603E03AE000200190AC
S31508004CC038E000232A468121C9000120C00206F0E7
S31508004CD025FD002803D002201D49087004E00020A5
S31508004CE0019001E00020019024E01948007802288C
S31508004CF002D0002001901DE0002302AA15490120D8
S31508004D00C00202F099FF2046029909F03AFC0746CC
S31508004D100D490A39204609F034FCC008874205D2F5
S31508004D200120019000200A49087001E00020019046
S31508004D3000E000BF00BF0198FEBD0000640200202D
S31508004D40660200201C0300203A75000007040000D4
S31508004D5068020020D207000008B525480090002305
S31508004D606A4624490120C00202F066FF20490A3932
S31508004D700098884211DA20480088401C1E4908809D
S31508004D80084600880A2804DD01201C4908701C49C9
S31508004D90087000201B49088015E01A480088401C46
S31508004DA01849088008460088322802DD0020134981
S31508004DB008700020104908800D490098884202DDD5
S31508004DC000200F49087002F045FA01280ED10B4859
S31508004DD0007801280AD17D20C00006F007FE0020D1
S31508004DE006490870074908800349088008BD00007D
S31508004DF030750000D20700007202002076020020FB
S31508004E005F0200207402002010B501F063F801F07B
S31508004E1019F810BD38B5054600240020009000BFDB
S31508004E2040E0062060432149085AA84238D10620A6
S31508004E30604340188088002814D0062060430A463C
S31508004E408018818800236A460120C00202F0F4FE19
S31508004E50002800D138BD0098552801D10120F9E76E
S31508004E600020F7E7062060431049401840880028CC
S31508004E7014D0062060430A468018418800236A46F3
S31508004E800120C00202F0D8FE002800D1E2E700980F
S31508004E90552801D10120DDE70020DBE70020D9E70E
S31508004EA0601C84B20C2CBCD30020D3E740F1000868
S31508004EB008B50020009000236A4610490120C00268
S31508004EC002F0BAFE0098002801D10D49087001F0D9
S31508004ED09DF8012803D1022009F0BCFD02E0032059
S31508004EE009F0B8FD09F0ECFD002803D0022009F00E
S31508004EF0D7FA02E0032009F0D3FA08BDEC07000050
S31508004F005E03002030B502460B460D4811E01478C2
S31508004F10521C604000210AE0C407E40F002C03D0AD
S31508004F204010084C604000E040104C1CE1B20829D3
S31508004F30F2DB1C465D1EEBB2002CE8D130BD00004A
S31508004F40FFFF000001A0000010B5012000F03CF9A9
S31508004F50012000F079F8012000F008F800F0E2F8E6
S31508004F6000F096F9012000F051F910BDF0B587B0B0
S31508004F7007460020069005900025314E04903046DD
S31508004F8003900020029030460190012426E0234633
S31508004F9002AA2D210120800202F04EFE234601AA14
S31508004FA02E210120800202F047FE029885B2019860
S31508004FB086B2012C05D1049503960120069005902A
S31508004FC00AE00498A84201DA049506940398B042C8
S31508004FD001DD0396059400BF601CC4B2BC42D6DD51
S31508004FE0002318490120C002049A06F097FB02AA7A
S31508004FF0312101208002069B02F01EFE0023114982
S31508005000891D0120C002029A06F088FB00230D497B
S31508005010491C0120C002039A06F080FB01AA32212E
S3150800502001208002059B02F007FE0023FD21C9002E
S315080050300120C002019A06F071FB07B0F0BD00001E
S31508005040FFFF0000E1070000F0B587B00746002023
S31508005050069005900025314E0490304603900020B6
S31508005060029030460190012426E0234602AA29210F
S315080050700120800202F0E0FD234601AA2A21012030
S31508005080800202F0D9FD029885B2019886B2012CF9
S3150800509005D1049503960120069005900AE0049828
S315080050A0A84201DA049506940398B04201DD0396F6
S315080050B0059400BF601CC4B2BC42D6DD0023184963
S315080050C00120C002049A06F029FB02AA2F2101201A
S315080050D08002069B02F0B0FD00231149891D0120BC
S315080050E0C002029A06F01AFB00233F21490101205B
S315080050F0C002039A06F012FB01AA302101208002A1
S31508005100059B02F099FD00230549C91D0120C0022F
S31508005110019A06F003FB07B0F0BD0000FFFF000090
S31508005120DF0700007FB500240025002003900290C9
S3150800513001900090002303AA22490120C00202F030
S315080051407BFD002302AA3F2149010120C00202F08B
S3150800515073FD02990398884203DD02990398401A61
S3150800516002E003990298401A84B2002322461549A0
S31508005170091D0120C00206F0D1FA002301AA11492F
S31508005180891C0120C00202F057FD00236A460D491A
S31508005190C91C0120C00202F04FFD009901988842FF
S315080051A003DD00990198401A02E001990098401A17
S315080051B085B200232A460349491D0120C00206F08C
S315080051C0ADFA7FBDDF070000F8B5054600270026C3
S315080051D00020009000240DE0601CC3B26A46262118
S315080051E00120800202F028FD009887B2F01986B2E5
S315080051F0601CC4B2AC42EFDB0023324602490120F0
S31508005200C00206F08BFAF8BDD1070000F0B585B0EC
S31508005210074600200390029000260190012421E011
S3150800522019482018411E002302AA0120C00202F0D4
S3150800523003FD0298C0B2039000250EE029462031EE
S31508005240234602AA0120800202F0F6FC0299019880
S3150800525040180190761C681CC5B203988542EDDBA0
S31508005260601CC4B2BC42DBDD002E0BDD3146019862
S31508005270FEF727F800230246044900900120C002E1
S3150800528006F04CFA05B0F0BDED030000DE0700009D
S315080052901CB50020019000BF0090002301AA0F4909
S315080052A00120C00202F0C8FC00236A460B49491DCA
S315080052B00120C00202F0C0FC64220199514308464D
S315080052C00099FDF7FEFF04460023224603490C31E8
S315080052D00120C00206F022FA1CBD0000D10700001A
S315080052E0FEB5FF211531FE48FDF7DDFF002302AAB2
S315080052F0FC490120C00202F09FFC0298C5B2202595
S31508005300002412E02146012301AA980202F094FC27
S3150800531001980004010E6000F14A11540198C1B2C7
S315080053206000401C1154601CC4B2AC42EADB002386
S3150800533002AAEC49491C0120C00202F07DFC029831
S31508005340C5B20825002414E021462031012301AA0C
S31508005350980202F071FC01980004010E60004030CA
S31508005360DF4A11540198C1B2600041301154601CE3
S31508005370C4B2AC42E8DB002301AADA49491F01207E
S31508005380C00202F059FC01980004010ED4484030CE
S3150800539001740198C1B2D24840304174002301AA71
S315080053A0D049091F0120C00202F046FCCE490198E7
S315080053B0081A019001980004010EC948403081740A
S315080053C00198C1B2C6484030C174002301AAC54934
S315080053D013310120C00202F02FFC01980004010ECF
S315080053E0BF48403001750198C1B2BD48403041758B
S315080053F0002301AABB4909310120C00202F01CFCA6
S3150800540001980004010EB648403081750198C1B272
S31508005410B3484030C175002301AA3F214901012044
S31508005420C00202F009FC01980004010EAC484030A5
S3150800543001760198C1B2AA4840304176002301AAF4
S31508005440A8490B310120C00202F0F6FB01980004BE
S31508005450010EA348403081760198C1B2A048403079
S31508005460C176002301AA9F490C310120C00202F02F
S31508005470E3FB01980004010E994840300177019832
S31508005480C1B2974840304177002301AA9549C91E01
S315080054900120C00202F0D0FB01980004010E9048DA
S315080054A0403081770198C1B28D484030C1770023DA
S315080054B001AA8E490120C00202F0BEFB00236A46FB
S315080054C0884913310120C00202F0B6FB6421019815
S315080054D0FDF7F7FE0099484306467D21C900FDF70A
S315080054E0F0FE019001980004010E7D4860300170BD
S315080054F00198C1B27A4860304170002301AA7949FF
S315080055000120C00202F098FB01980004010E7448BD
S31508005510603081700198C1B271486030C170002353
S3150800552001AA7049491C0120C00202F085FB0198B6
S315080055300004010E6A48603001710198C1B26848DA
S3150800554060304171002301AA684908310120C00270
S3150800555002F072FB01980004010E61486030817107
S315080055600198C1B25E486030C17100200190604860
S3150800557000785F49497808435D49897808435C495A
S31508005580C97808435A490979084359494979084362
S31508005590002803D0012101980843019001980004CE
S315080055A0010E4F48603001720198C1B24C48603014
S315080055B04172002301AA4B49C91C0120C00202F00E
S315080055C03BFB01980004010E454860308172019842
S315080055D0C1B243486030C172002301AAFB21C90049
S315080055E00120C00202F028FB01980004010E3C4885
S315080055F0603001730198C1B23948603041730023A5
S3150800560001AA3849C91D0120C00202F015FB0198FC
S315080056100004010E3248603081730198C1B23048E7
S315080056206030C173002301AA2E490D310120C00242
S3150800563002F002FB01980004010E2948603001744B
S315080056400198C1B2264860304174002301AA254951
S31508005650491F0120C00202F0EFFA002302AA2149DD
S31508005660091F0120C00202F0E7FA2249029888427F
S3150800567003DB0298401A029003E01E490298081AB2
S315080056800290029A0199514308466421FDF719FED2
S31508005690019001980004010E114860308174019848
S315080056A0C1B20F486030C174134841780C48603065
S315080056B00175114801780A48603041750E48C1786D
S315080056C00748603081750C48817805486030C17597
S315080056D009484179024860300176074801790DE0AA
S315080056E006080020D607000060EA0000F103000063
S315080056F04C0200203075000010030020FE48417659
S31508005700FE48C179FC488176FC488179FA48C17619
S31508005710002301AAFA490120C00202F08DFA642189
S315080057200198FDF7CEFD019001980004010EF2489C
S3150800573001770198C1B2F0484177002301AAFD21FB
S3150800574089000120C00202F077FA01980004010ED0
S31508005750E94881770198C1B2E748C177002301AAD1
S315080057607D21C9000120C00202F066FA01980004F2
S31508005770010EE148203001700198C1B2DE482030A0
S315080057804170002301AADE4908390120C00202F04F
S3150800579053FA01980004010ED74820308170019809
S315080057A0C1B2D5482030C170002301AAD449C91F07
S315080057B00120C00202F040FA01980004010ECE480A
S315080057C0203001710198C1B2CB48203041710023C5
S315080057D001AACB49891F0120C00202F02DFA0198BF
S315080057E00004010EC448203081710198C1B2C24834
S315080057F02030C171002301AAC149091F0120C00236
S3150800580002F01AFA01980004010EBB482030017212
S315080058100198C1B2B84820304172002301AAB8499C
S31508005820C91E0120C00202F007FA01980004010E01
S31508005830B148203081720198C1B2AF482030C17298
S31508005840002301AAAE49891E0120C00202F0F4F91C
S3150800585001980004010EA848203001730198C1B2CE
S31508005860A54820304173002301AAA549891C0120B7
S31508005870C00202F0E1F901980004010E9E482030AA
S3150800588081730198C1B29C482030C173002301AAD4
S315080058909B490C310120C00202F0CEF901980004A0
S315080058A0010E9548203001740198C1B29248203003
S315080058B04174002301AA412109010120C00202F016
S315080058C0BBF901980004010E8B48203081740198B9
S315080058D0C1B289482030C174002301AA88492D31F4
S315080058E00120C00202F0A8F901980004010E8248BE
S315080058F0203001750198C1B27F48203041750023D8
S3150800590001AA7F4920310120C00202F095F90198C9
S315080059100004010E7848203081750198C1B2764896
S315080059202030C175002301AA75492E310120C00215
S3150800593002F082F901980004010E6F4820300176C2
S315080059400198C1B26C4820304176002301AA6C49FF
S3150800595019310120C00202F06FF901980004010E06
S315080059606548203081760198C1B263482030C176F7
S31508005970002301AA8321C9000120C00202F05CF9B4
S3150800598001980004010E5C48203001770198C1B2E5
S31508005990594820304177002301AA59491A31012074
S315080059A0C00202F049F901980004010E524820305D
S315080059B081770198C1B250482030C177002301AAE7
S315080059C04F4928310120C00202F036F90198000437
S315080059D0010E4948403001700198C1B2464840302E
S315080059E04170002301AA46491D310120C00202F078
S315080059F023F901980004010E3F4840308170019850
S31508005A00C1B23D484030C170002301AA3C492B3140
S31508005A100120C00202F010F901980004010E364870
S31508005A20403001710198C1B23348403041710023BA
S31508005A3001AA33491E310120C00202F0FDF801987F
S31508005A400004010E2C48403081710198C1B22A48E1
S31508005A504030C171002301AA29492C310120C00216
S31508005A6002F0EAF801980004010E2348403001725A
S31508005A700198C1B2204840304172002301AA20494A
S31508005A8024310120C00202F0D7F801980004010E63
S31508005A901948403081720198C1B217484030C17226
S31508005AA0002301AA164932310120C00202F0C4F8C7
S31508005AB001980004010E1048403001730198C1B2E4
S31508005AC00D4840304173002301AA0D4925310120B4
S31508005AD0C00202F0B1F801980004010E06484030F1
S31508005AE081730198C1B204484030C173002301AAEA
S31508005AF003493331012005E0660800201003002021
S31508005B00F1030000C00202F097F801980004010EA4
S31508005B10C74801740198C1B2C5484174002301AA57
S31508005B20C4490120C00202F087F801980004010E5A
S31508005B30BF4881740198C1B2BD48C174002301AA47
S31508005B40BC490E310120C00202F076F80198000423
S31508005B50010EB74801750198C1B2B54841750023D1
S31508005B6001AAB449491C0120C00202F065F801984F
S31508005B700004010EAE4881750198C1B2AC48C175E2
S31508005B80002301AAAB490F310120C00202F054F8E4
S31508005B9001980004010EA64801760198C1B2A448EE
S31508005BA04176002301AAA349491E0120C00202F03A
S31508005BB043F801980004010E9D4881760198C1B208
S31508005BC09B48C176002301AA212149010120C00270
S31508005BD002F032F801980004010E95480177019801
S31508005BE0C1B293484177002301AA9249091D0120B1
S31508005BF0C00202F021F801980004010E8C48817752
S31508005C000198C1B28A48C177002301AA894912318D
S31508005C100120C00202F010F801980004010E844821
S31508005C20203001700198C1B28148203041700023AC
S31508005C3001AA804919390120C00201F0FDFF019827
S31508005C400004010E7A48203081700198C1B2784864
S31508005C502030C170002301AA764918390120C002F4
S31508005C6001F0EAFF01980004010E71482030017125
S31508005C700198C1B26E4820304171002301AA6E49CD
S31508005C800120C00201F0D8FF0198552802D1002052
S31508005C90019001E00120019001980004010E64487A
S31508005CA0203081710198C1B261482030C17100234A
S31508005CB001AA6149491C0120C00201F0BDFF0198F3
S31508005CC0552802D10020019001E001200190019899
S31508005CD00004010E5648203001720198C1B254489A
S31508005CE020304172002301AA53490C390120C00211
S31508005CF001F0A2FF01980004010E4D482030817280
S31508005D000198C1B24A482030C172002301AA494904
S31508005D1018310120C00201F08FFF01980004010E1E
S31508005D204348203001730198C1B24148203041737D
S31508005D3000240AE00D20001B4049095C2046CE30AD
S31508005D403B4AA03A1154601CC4B20E2CF2DB002464
S31508005D500AE00D20001B3A49095C2046DE30344A29
S31508005D60A03A1154601CC4B20E2CF2DB002422E0C7
S31508005D70304815382118002301AA0120C00201F075
S31508005D805BFF0198010EA000EE30294AA03A115493
S31508005D9001980002010EA000EF301154019800048A
S31508005DA0010EA000F03011540198C1B2A000F130E4
S31508005DB01154601CC4B2082CDADB002301AA1D4961
S31508005DC019310120C00201F037FF01980004010EC5
S31508005DD01748603081730198C1B215486030C173A5
S31508005DE0002301AA13491A310120C00201F024FF39
S31508005DF001980004010E0E48603001740198C1B282
S31508005E000B4860304174002301AA0A491B3101205E
S31508005E10C00201F011FF01980004010E0448603029
S31508005E2081740198C1B202486030C174FEBD000099
S31508005E30A608002013040000F5070000FA02002057
S31508005E40EC02002010B5002402F0C6FA0446002C25
S31508005E5018D11C480078401C1A4908700846007872
S31508005E60032812DD032008701748007800280CD193
S31508005E70002301221549D00205F050FC01201249E1
S31508005E80087002E000200F490870002C15D0104851
S31508005E900078401C0E4908700846007803280FDD74
S31508005EA00320087000231A4608490120C00205F09D
S31508005EB035FC00200449087002E0002004490870F7
S31508005EC010BD00006E02002070020020ED070000E1
S31508005ED06F02002010B5002402F073FA0446002C65
S31508005EE018D11C480078401C1A49087008460078E2
S31508005EF0032812DD032008701748007800280CD103
S31508005F00002301221549D00205F008FC0120124998
S31508005F10087002E000200F490870002C15D01048C0
S31508005F200078401C0E4908700846007803280FDDE3
S31508005F300320087000231A4608490120C00205F00C
S31508005F40EDFB00200449087002E0002004490870AF
S31508005F5010BD00006B0200206D020020EC07000057
S31508005F606C02002070B506460D46094801F066FF2A
S31508005F700446052C0ADAA1000548303046500021AF
S31508005F80A20014308150A00001490D50204670BD72
S31508005F907C11002010B56421014804F099FD10BD5C
S31508005FA0399F000810B5FF21F531044804F090FD2B
S31508005FB06421034804F08CFD10BD0000C9A6000842
S31508005FC0D141000810B56421064804F081FD7D2101
S31508005FD0C900054804F07CFD7D21C900034804F08A
S31508005FE077FD10BD694A00089DC1000849BA000836
S31508005FF010B5012220210920C00600F015FE002058
S315080060000149087010BD00008002002038B5002044
S31508006010009000236A4628490120C00201F00CFEC0
S3150800602026490098884201DD012038BD24480078B9
S31508006030002801D00020F8E700236A461E492331CC
S315080060400120C00201F0F8FD0098552803D01D482C
S315080060500078012801D10020E7E707F0D1FF0028E2
S3150800606001D00020E1E7002421E06100164A505AD9
S31508006070FEF7D0FE012815D11448005D401C1349CF
S3150800608008550846005D02280FDB02200855600007
S315080060900D49085A0E49884202D10120084908705C
S315080060A00020C2E7002009490855601CC4B2052C27
S315080060B0DBD30120B9E70000D207000030750000E5
S315080060C05E03002060030020D6EE0008750300205A
S315080060D0A40F000038B50020009000236A46244922
S315080060E00120C00201F0A8FD22490098884201DA81
S315080060F0012038BD20480078002801D00020F8E7A4
S3150800610001F018FE002803D11C480078012801D1A7
S315080061100020EEE707F074FF002801D00020E8E72A
S31508006120002421E06100164A505AFEF773FE012842
S3150800613015D11448005D401C124908550846005DF3
S3150800614002280FDB0220085560000D49085A0E493F
S31508006150884202D10120084908700020C9E70020BA
S3150800616008490855601CC4B2052CDBD30120C0E7DA
S31508006170D2070000307500005D0300206003002090
S31508006180CCEE000870030020A50F000008B500201B
S31508006190009000236A4622490120C00201F04CFD06
S315080061A0009801280BD102F077FD012807D10023BA
S315080061B01A461B49C00205F0B1FA02F061FE0098C2
S315080061C0A5280BD100231A4615490120C00205F05F
S315080061D0A5FA01201349087002F052FE00985528C6
S315080061E008D100231A460E490120C00205F096FA86
S315080061F002F046FE00236A4609492C390120C002EE
S3150800620001F01AFD08490098884202D10120074981
S31508006210087002F01BF801200549087008BD000047
S3150800622029040000C0030020FFFF0000C50000206D
S31508006230C203002008B50020009000236A461049D2
S315080062400120C00201F0F8FC0098002801D10D4990
S315080062500870FFF73FFF012803D1002008F0FAFB7A
S3150800626002E0012008F0F6FB08F04CFC002803D0F9
S31508006270002008F015F902E0012008F011F908BD20
S31508006280ED0700005D0300201CB50120C002009048
S31508006290032168464171002101716946014800F0F1
S315080062A04FFC1CBD000400481CB50120C00200902C
S315080062B0032168464171012101716946014800F0D0
S315080062C03FFC1CBD0004004810B5012000F03CF856
S315080062D0022000F039F802F057FC10BD10B5042072
S315080062E000F032F80D480078002813D00C480078E2
S315080062F0042811DAFFF7EEFE01280DD102F006FC9C
S31508006300012002F037FC042008F0CAF805200549E8
S31508006310087001E002F038FC10BD0000C20300203E
S31508006320C4030020C303002010B5102000F00CF8A9
S315080063300120400300F008F80120000300F004F8EB
S3150800634002F022FC10BD00000149486170470000B8
S3150800635000040140002120498279002A35D00A46E6
S31508006360126803689A430B461A600A46526803681D
S315080063709A430B465A60027951180A6803681A4309
S315080063800A60154A926803689A43134B9A601A463C
S31508006390D26803689A43104BDA604279102A0CD106
S315080063A01A46926803681A430B4B9A601A46D268D3
S315080063B003681A43084BDA600DE007494279511819
S315080063C00A6803681A430A6005E0027951180A68E0
S315080063D003689A430A6070470004014010B500221A
S315080063E00121C902074800F01FFC01229102054855
S315080063F000F01AFC002201218902024800F014FC70
S3150800640010BD000000040048F8B505460E461746BC
S31508006410012006F004FE00F089F8A02000F004F937
S3150800642003F0B4FC002806D100F09AF8002006F024
S31508006430F6FD0020F8BD301200F0F6F803F0A6FCD1
S31508006440002806D100F08CF8002006F0E8FD0020B0
S31508006450F0E7F0B200F0E8F803F098FC002806D15F
S3150800646000F07EF8002006F0DAFD0020E2E700F0F2
S315080064705DF8A12000F0D8F803F088FC002806D1C2
S3150800648000F06EF8002006F0CAFD0020D2E70024CE
S315080064901BE000F025F828706D1C781EA04210D16C
S315080064A00122D1020D4800F0BFFB012291020B48E0
S315080064B000F0BAFB002201218902084800F0B4FB6B
S315080064C001E0FFF78BFF601C84B2BC42E1DB00F001
S315080064D047F8002006F0A3FD0120ABE700040048BA
S315080064E070B50024FFF7D0FE002517E06006040EFD
S315080064F0012291020C4800F097FB0121C9020A48C3
S3150800650000F088FB012801DB012004430022012159
S315080065108902054800F088FB681CC5B2082DE5DB32
S31508006520FFF7C2FE204670BD0004004810B50122E0
S3150800653091020A4800F078FB0122D102074800F0D0
S3150800654073FB00220121C902044800F06DFB0022FA
S3150800655001218902014800F067FB10BD00040048CC
S3150800656010B500220121C902064800F05DFB012290
S315080065709102044800F058FB0122D102014800F0BC
S3150800658053FB10BD00040048F8B504460D461746EF
S31508006590012006F044FDFFF7C9FFA02000F044F8EB
S315080065A003F0F4FB002806D1FFF7DAFF002006F017
S315080065B036FD0020F8BD281200F036F803F0E6FB99
S315080065C0002806D1FFF7CCFF002006F028FD0020A2
S315080065D0F0E7E8B200F028F803F0D8FB002806D167
S315080065E0FFF7BEFF002006F01AFD0020E2E70026AE
S315080065F010E02078641C00F017F803F0C7FB0028A9
S3150800660006D1FFF7ADFF002006F009FD0020D1E70F
S31508006610701C86B2BE42ECDBFFF7A2FF002006F034
S31508006620FEFC0120C6E7000070B5044600251FE001
S315080066308020264606406006040E802E05D10122DB
S31508006640D1020D4800F0F0FA05E000220121C90246
S31508006650094800F0E9FA01229102074800F0E4FA35
S31508006660002201218902044800F0DEFA681CC5B23E
S31508006670082DDDDB70BD0000000400481CB50020B5
S31508006680019057200090002301AA2F490120C0023B
S3150800669001F0D2FA00236A462C490120C00201F013
S315080066A0CBFA00990198884215DB29480078401CE6
S315080066B027490870002027490870254800781E28B1
S315080066C024DB1E2022490870002301222249D00219
S315080066D005F024F81AE00198C01C0099884215DCD8
S315080066E01C480078401C1B4908700020184908708F
S315080066F0184800781E2809DB1E2016490870002352
S315080067001A4615490120C00205F008F8002301AA17
S3150800671011490120C00201F08FFA0198012809D118
S31508006720062007F0BDFE0D480078202108430B49D6
S31508006730087008E009480078DF2108400749087012
S31508006740072007F0ADFE1CBDF40700002B0400006F
S315080067507C0300207D030020AE0F0000AC03002060
S3150800676070B504460D46092D71D008DC2B0006F0DD
S3150800677045FC097F193858636F95B5D57F001A2DE2
S3150800678072D008DC0A2D70D00B2D6FD00C2D6ED070
S31508006790172D6DD137E1212D6BD0222D6AD0232DEF
S315080067A0F7D16EE106F0E8FC002807D0BC4800786F
S315080067B080088000801CBA49087011E0002C09D0B6
S315080067C0B748007880088000A107890F0843B449B4
S315080067D0087005E0B248007880088000B049087063
S315080067E05BE106F0EBFC002807D0AD4800780C21E9
S315080067F088430830AA49087012E0002C0AD0A84835
S3150800680000780C218843A1000C2211400843A449B2
S31508006810087005E0A24800780C218843A049087052
S315080068203BE19F48007830218843210130221140FE
S3150800683008439B49087030E199480078C02188438D
S31508006840A101C022114008439549087025E185E059
S3150800685006F0E8FB00280ED09148407880088000B2
S31508006860801C8F49487018E0D7E096E0B5E0BFE095
S3150800687012E1ECE0F8E0002C09D08948407880085D
S315080068808000A107890F08438549487005E08448B8
S3150800689040788008800082494870FEE006F0E4FBF4
S315080068A0002807D07E4840780C21884308307C4968
S315080068B0487012E0002C0AD0794840780C218843A9
S315080068C0A1000C22114008437549487005E0744838
S315080068D040780C21884372494870DEE006F0E6FBF2
S315080068E0002807D06E4840783021884320306C490C
S315080068F0487012E0002C0AD0694840783021884355
S3150800690021013022114008436549487005E0644872
S3150800691040783021884362494870BEE006F0E8FBBB
S31508006920002807D05E484078C021884380305C49FB
S31508006930487012E0002C0AD059484078C021884394
S31508006940A101C022114008435549487005E0544842
S315080069504078C0218843524948709EE006F050FCB2
S31508006960002807D04E48807880088000801C4C4953
S31508006970887011E0002C09D049488078800880008A
S31508006980A107890F08434649887005E0444880787E
S3150800699080088000424988707FE006F075FC002870
S315080069A007D03F4880780C21884308303C498870D6
S315080069B012E0002C0AD03A4880780C218843A100BE
S315080069C00C22114008433649887005E0344880781F
S315080069D00C218843324988705FE03148807830213D
S315080069E0884321013022114008432D49887054E01C
S315080069F02B488078C0218843A101C0221140084352
S31508006A002749887049E02648407940084000E10750
S31508006A10C90F0843224948713FE0002C0AD0204894
S31508006A20407908218843E1000822114008431C499F
S31508006A3048710BE007F0C2FAC00008210840064674
S31508006A4017484079884330431549487100BF06F016
S31508006A50F9FB8000042108400646114880798843DE
S31508006A6030430F49887118E006F064FBC00008211E
S31508006A70084006460A4880798843304308498871A1
S31508006A800BE0074880791021884321011022114024
S31508006A9008430349887100E000BF00BF70BD0000CD
S31508006AA01003002010B5214800780A2802DB0020D0
S31508006AB01E4908701D484078322804DB05F02AFC78
S31508006AC000201A4948701948C0781E2802DB0020A1
S31508006AD01649C87015488078642802DB00201349D7
S31508006AE0887012480079642804DB00200F49087171
S31508006AF00F4908700D484079642804DB00200B49CB
S31508006B0048710C49087009488079642802DB00201E
S31508006B10064988710548C079642806DB00200349C0
S31508006B20C871054908700549087010BD080300209A
S31508006B3081030020800200208A020020CB02002068
S31508006B40F0B50A4600210023002400BF3DE00125D8
S31508006B508D402B4615681D402C469C4234D115792C
S31508006B60012D02D01579022D16D185684F0003260E
S31508006B70BE40B543856055794E00B54086683543B5
S31508006B808560858801268E40B543858085889679F7
S31508006B908E40B6B23543858005684F000326BE4051
S31508006BA0B543056015794E00B5400668354305605E
S31508006BB0C5684F000326BE40B543C560D5794E006B
S31508006BC0B540C6683543C560491C1029BFD3F0BD1A
S31508006BD0F0B5002300244D07EE0E1546B5402B46AA
S31508006BE0CD10AE0005462035AD594E07F70E0F26D7
S31508006BF0BE40B543CE10B60007462037BD51CD106E
S31508006C00AE003D46AD591D432C46CD10AD003E465F
S31508006C107451F0BD02460020138A0B40002B01D0A8
S31508006C20012000E000207047002A01D0816100E0C1
S31508006C30018570470246002108E08800054B185870
S31508006C40904201D101207047481CC1B20429F4D3EF
S31508006C500020F8E788F1000838B504460D460020FC
S31508006C60009000236A4622490120C00200F0E4FF92
S31508006C7000980004000E1F49087000984870002309
S31508006C806A467D2109010120C00200F0D5FF00985F
S31508006C900004000E174988700098C87000236A46D9
S31508006CA01349491C0120C00200F0C6FF124900988A
S31508006CB0081A009000980004000E0E490871009802
S31508006CC0487100236A460A4918310120C00200F0BB
S31508006CD0B3FF00980004000E064988710098C87131
S31508006CE00A4690212046FDF769F9012038BD0000C3
S31508006CF0D1070000E402002060EA000038B5044627
S31508006D000D460020009000236A461C490120C00257
S31508006D1000F092FF00980004000E194908700098C8
S31508006D20487000236A461549891D0120C00200F0F3
S31508006D3083FF13490098887000236A463F2149015A
S31508006D400120C00200F078FF00980004000E0C49EC
S31508006D50C8700098087100236A460849C91D0120B1
S31508006D60C00200F069FF0649009848710A46912159
S31508006D702046FDF723F9012038BD0000DF07000093
S31508006D80E402002038B504460D4600200090002392
S31508006D906A4618490120C00200F04EFF16490098BD
S31508006DA0087000236A461349891D0120C00200F0B5
S31508006DB043FF11490098487000236A460D49491C4B
S31508006DC00120C00200F038FF0B49009888700023A4
S31508006DD06A46FD21C9000120C00200F02DFF0649C0
S31508006DE00098C8700A4692212046FDF7E7F8012068
S31508006DF038BD0000E1070000E40200207CB5044627
S31508006E000D46002001900090002301AA2649012082
S31508006E10C00200F011FF254901980870002301AA55
S31508006E202149891D0120C00200F006FF1F4901986B
S31508006E304870002301AAFB21C9000120C00200F006
S31508006E40FBFE1A490198887019480078C870002313
S31508006E5001AA18490120C00200F0EEFE00236A4686
S31508006E60114916310120C00200F0E6FE009A019988
S31508006E70514308467D21C900FCF723FA0190019881
S31508006E80000E0A49087101980002000E487101981F
S31508006E900004000E88710198C8710A46932120469D
S31508006EA0FDF78CF801207CBDD3070000E402002022
S31508006EB018030020F103000038B504460D460020EB
S31508006EC0009000236A4626490120C00200F0B4FE5D
S31508006ED024490098087000236A462149491C012064
S31508006EE0C00200F0A9FE1F490098487000236A46B0
S31508006EF01B4916310120C00200F09EFE1949009870
S31508006F00887000236A46164917310120C00200F02E
S31508006F1093FE14490098C870134800780871002336
S31508006F206A4612490120C00200F086FE0098000455
S31508006F30000E0C4948710098887100236A46084972
S31508006F401E310120C00200F077FE06490098C8717C
S31508006F500A4694212046FDF731F8012038BD000085
S31508006F60D6070000E4020020AC030020F903000065
S31508006F7070B592B005460E46402102A8FCF795F971
S31508006F80002001900024009000236A46274901202A
S31508006F90C00200F051FE012D05D1254800780128D0
S31508006FA001D120200090002412E02146012301AAE5
S31508006FB0980200F041FE01980004000E610002AA42
S31508006FC050540198C1B26000401C1154601CC4B2F0
S31508006FD000988442E9DB002421E006212046FCF7DC
S31508006FE070F9491C134802AA125D42540621601C16
S31508006FF0FCF767F9002904D000984000401EA0421B
S315080070000BD106212046FCF75CF9401C094908709B
S315080070100A4695212846FCF7D1FF601CC4B20098A1
S315080070204000A042D9DC012012B070BDD60700008E
S3150800703082030020E40200207FB505460E460020A4
S315080070400290039001900024009000236A46234989
S315080070500120C00200F0F0FD012D04D106200090A9
S315080070601F4801F0EBF800240BE0214620310123EC
S3150800707001AA980200F0E0FD02A901980855601CD3
S31508007080C4B200988442F0DB002420E007212046A1
S31508007090FCF717F9491C134802AA125D4254072146
S315080070A0601CFCF70EF9002903D00098401EA04288
S315080070B00BD107212046FCF704F9401C0949087042
S315080070C00A4696212846FCF779FF601CC4B2009848
S315080070D08442DBDB012004B070BD0000D707000046
S315080070E0E0930400E402002070B504460D461048FB
S315080070F00078104908700E48407848700C48807827
S3150800710088700B48C078C870094800790871084823
S31508007110407948710648807988710548C079C871F0
S315080071200A4697212046FCF749FF012070BD00005A
S315080071304C020020E402002070B504460D461048B3
S315080071400078104908700E48407848700C488078D6
S3150800715088700B48C078C8700948007908710848D3
S31508007160407948710648807988710548C079C871A0
S315080071700A4698212046FCF721FF012070BD000031
S3150800718010030020E4020020F8B505460E4600204C
S315080071900090002421480078002803D001202049C7
S315080071A0087002E000201E49087000201C4908707B
S315080071B000236A461B490120C00200F03DFD1A481B
S315080071C0009000980004000E1549487000988870D1
S315080071D000236A4615490120C00200F02DFD002053
S315080071E00F49C87000240BE00C4800780121A14023
S315080071F00840002803D0601C0949C87003E0641CD5
S3150800720000988442F0D300BF00200549C8700A469A
S3150800721099212846FCF7D2FE0120F8BD4C02002031
S31508007220E4020020F707000030750000E9030000BB
S315080072300246002108E08800054B1858904201D103
S3150800724001207047481CC1B20429F4D30020F8E78E
S3150800725098F1000838B50020009000240F48FDF783
S31508007260D9FD002803D105F087FF00280CD000239C
S315080072706A460B490120C00200F0DEFC4B21890159
S315080072800098884200DA01247D204001FDF7C2FDFE
S31508007290002800D00124204638BD0000A60F0000B3
S315080072A0DF0700000146002903DB0F2901DC012066
S315080072B018E0102903DB4F2901DC022012E05029CF
S315080072C003DB8F2901DC03200CE0902903DBBF29AF
S315080072D001DC042006E0D02903DBEF2901DC0520C8
S315080072E000E0002070470000F8B504460E46002569
S315080072F00020009000236A4617490120C00200F0CA
S315080073009BFC0098000E1549087000980002000EB4
S31508007310487000980004000E88700098C870002312
S315080073206A46FD2189000120C00200F085FC00980C
S31508007330000E0A49087100980002000E487100986C
S315080073400004000E88710098C8710A46502120462C
S31508007350FCF734FE2846F8BDF1030000E4020020DD
S31508007360F8B504460E4600250020009000236A461C
S315080073707D21C9000120C00200F05EFC2549009865
S31508007380087000236A4624490120C00200F054FC14
S3150800739020490098487000236A461F49491C012065
S315080073A0C00200F049FC1B490098887000236A4611
S315080073B01949891C0120C00200F03EFC15490098B5
S315080073C0C87000236A461449091D0120C00200F04E
S315080073D033FC10490098087100236A460E49491D76
S315080073E00120C00200F028FC0A49009848710023D1
S315080073F06A460949891D0120C00200F01DFC05499D
S31508007400009888710A4651212046FCF7D7FD284680
S31508007410F8BD0000E4020020E9030000F8B50446C0
S315080074200E4600250020009000236A461D490120CB
S31508007430C00200F001FC7D21C9000098FBF741FF5E
S3150800744000900098000E1849087000980002000E77
S31508007450487000980004000E88700098C8700023D1
S315080074606A461049491C0120C00200F0E5FB7D214F
S31508007470C9000098FBF725FF00900098000E0A49FE
S31508007480087100980002000E487100980004000E6A
S3150800749088710098C8710A4652212046FCF78EFD6D
S315080074A02846F8BDF5030000E4020020F8B50446B6
S315080074B00E4600250020009000236A462349012035
S315080074C0C00200F0B9FB22490098087000236A46FA
S315080074D0FF2189000120C00200F0AEFB1C4900987C
S315080074E0487000236A46194913310120C00200F08A
S315080074F0A3FB0098000E1649887000980002000E3B
S31508007500C87000980004000E087100236A460F49E7
S315080075100A310120C00200F08FFB00980004000E1B
S315080075200B4948710098887100236A46432109016E
S315080075300120C00200F080FB05490098C8710A4680
S3150800754053212046FCF73AFD2846F8BDF303000010
S31508007550E4020020F0B58BB005460F460026002051
S315080075600A9028216846FBF7A0FE002400BF1FE00A
S315080075702348211800230AAA0120C00200F05CFB58
S315080075800A98010EA0006A4611540A980002010ED4
S31508007590A000401C11540A980004010EA000801C8B
S315080075A011540A98C1B2A000C01C1154601CC4B280
S315080075B0082CDDDB00241EE007212046FBF781FEB0
S315080075C0491C10486A46125D42540721601CFBF7A5
S315080075D078FE002901D01F2C0BD107212046FBF786
S315080075E070FE401C074908700A4657212846FCF7D2
S315080075F0E5FC601CC4B2202CDEDB30460BB0F0BDC7
S31508007600FE030000E4020020F8B504460E460025F5
S315080076100020009000236A46412109010120C0028A
S3150800762000F00AFB00980004000E1B490870009839
S31508007630487000236A4619490120C00200F0FCFA86
S3150800764000980004000E144988700098C87000233A
S315080076506A4612490D390120C00200F0EDFA009879
S315080076600004000E0C4908710098487100236A4608
S315080076700A49491C0120C00200F0DEFA00980004FD
S31508007680000E054988710098C8710A465921204696
S31508007690FCF794FC2846F8BDE40200201E0400000E
S315080076A0F8B504460E4600250020009000236A46D9
S315080076B01F490120C00200F0BFFA00980004000E1E
S315080076C01C4908700098487000236A468321C9003F
S315080076D00120C00200F0B0FA00980004000E154917
S315080076E088700098C87000236A461149491C012011
S315080076F0C00200F0A1FA00980004000E0D490871B6
S315080077000098487100236A4609490F310120C002D2
S3150800771000F092FA00980004000E06498871009855
S31508007720C8710A465A212046FCF748FC2846F8BD87
S315080077300A040000E4020020F8B504460E460025B7
S315080077400020009000236A461F490120C00200F06D
S3150800775073FA00980004000E1C49087000984870D7
S3150800776000236A4618490E310120C00200F064FA67
S3150800777000980004000E154988700098C870002308
S315080077806A461149491C0120C00200F055FA0098C2
S315080077900004000E0D4908710098487100236A46D6
S315080077A009490F310120C00200F046FA009800048A
S315080077B0000E064988710098C8710A465B21204662
S315080077C0FCF7FCFB2846F8BD0E040000E402002086
S315080077D0F8B504460E4600250020009000236A46A8
S315080077E02D490120C00200F027FA2C49009808709C
S315080077F000236A4628490E310120C00200F01CFA0F
S3150800780026490098487000236A462349491C0120E6
S31508007810C00200F011FA21490098887000236A46D0
S315080078201D490F310120C00200F006FA1B490098D5
S31508007830C87000236A461849891E0120C00200F054
S31508007840FBF916490098087100236A4612490C315B
S315080078500120C00200F0F0F9104900984871002391
S315080078606A460D49491E0120C00200F0E5F90B4998
S315080078700098887100236A4607490D310120C00225
S3150800788000F0DAF905490098C8710A465C212046D5
S31508007890FCF794FB2846F8BD15040000E402002016
S315080078A0F8B504460E4600250020009000236A46D7
S315080078B01F490120C00200F0BFF900980004000E1D
S315080078C01C4908700098487000236A4618490E310A
S315080078D00120C00200F0B0F900980004000E154916
S315080078E088700098C87000236A461149491C01200F
S315080078F0C00200F0A1F900980004000E0D490871B5
S315080079000098487100236A4609490F310120C002D0
S3150800791000F092F900980004000E06498871009854
S31508007920C8710A465D212046FCF748FB2846F8BD83
S315080079300C040000E4020020F8B504460E460025B3
S315080079400020009000236A461B490120C00200F06F
S3150800795073F900980004000E1849087000984870DA
S3150800796000236A46212149010120C00200F064F97A
S3150800797000980004000E114988700098C87000230A
S315080079806A460D49491D0120C00200F055F90B4908
S315080079900098087100236A46074913310120C0027E
S315080079A000F04AF90549009848710A465E212046C2
S315080079B0FCF704FB2846F8BD12040000E402002088
S315080079C0F8B504460E4600250020009000236A46B6
S315080079D010490120C00200F02FF900980004000E9B
S315080079E00D4908700098487000236A460949491CE1
S315080079F00120C00200F020F900980004000E064994
S31508007A0088700098C8700A465F212046FCF7D6FAA7
S31508007A102846F8BDFA030000E4020020F8B504463B
S31508007A200E4600250020009000236A4610490120D2
S31508007A30C00200F001F900980004000E0D49087014
S31508007A400098487000236A460949491C0120C0026B
S31508007A5000F0F2F800980004000E064988700098B5
S31508007A60C8700A4660212046FCF7A8FA2846F8BDE1
S31508007A7026040000E402002070B505460E460024E0
S31508007A8000BF1CE007212046FBF71BFC491C0E48DB
S31508007A900E4A125D42540721601CFBF712FC0029AE
S31508007AA00BD107212046FBF70CFC401C0649087041
S31508007AB00A4662212846FCF781FA601CC4B20E2CDD
S31508007AC0E0DB012070BD0000E4020020FA0200207D
S31508007AD070B505460E46002400BF1CE00721204667
S31508007AE0FBF7EFFB491C0E480E4A125D425407216C
S31508007AF0601CFBF7E6FB00290BD107212046FBF7A4
S31508007B00E0FB401C064908700A4663212846FCF734
S31508007B1055FA601CC4B20E2CE0DB012070BD0000D3
S31508007B20E4020020EC02002038B504460D46002386
S31508007B306A4608490120C00200F07EF80649009806
S31508007B400870012048700A4665212046FCF736FA77
S31508007B50012038BD2A040000E402002038B5044696
S31508007B600D4600236A4612490120C00200F064F857
S31508007B7010490098087000236A460D49891F01209C
S31508007B80C00200F059F80B490098887000236A462D
S31508007B900749C91C0120C00200F04EF805490098A3
S31508007BA008710A4666212046FCF708FA012038BD06
S31508007BB031040000E402002038B504460D460023CF
S31508007BC06A4607490120C00200F036F805490098C0
S31508007BD008700A4667212046FCF7F0F9012038BDEF
S31508007BE032040000E402002038B504460D4600239E
S31508007BF06A460F490120C00200F01EF80D49009898
S31508007C00087000236A460A494A310120C00200F07A
S31508007C1013F800980004000E06494870009888700A
S31508007C200A4668212046FCF7C9F9012038BD00003C
S31508007C30E9030000E402002030B50446002A01D01A
S31508007C4000D001D1002030BD01208002844205D138
S31508007C50002B01D0012B01DD0020F4E70120800272
S31508007C60201A42D00125AD02401B4ED17D20C0000E
S31508007C7081420AD32748814207D27D20C000081ACC
S31508007C808000254D285810602EE07D200001814295
S31508007C900BD3FF20C000814207D27D200001081ABD
S31508007CA080001E4D285810601EE01D4881420AD3E8
S31508007CB01B483130814206D21948081A8000194DEE
S31508007CC02858106010E07D20400181420AD31648EA
S31508007CD0814207D87D204001081A8000134D285894
S31508007CE0106001E00020AEE711E000BF362909D890
S31508007CF0581EDC2568430E4D40190D46AD00405907
S31508007D00106001E000209EE701E000209BE700BF2D
S31508007D10012098E735040000780D0020AC0E0020FD
S31508007D20B80B00004C0F0020C30F000010100020F5
S31508007D30A01000201CB5002400200190009000230C
S31508007D4001AA10490120C002FFF776FF00236A4600
S31508007D500D490120C002FFF76FFF00F063FB002802
S31508007D600CD10198552809D000F042FB002806D10D
S31508007D700098A52802D000985A2800D10124204648
S31508007D801CBD0000F607000034040000F8B50746DD
S31508007D900D461646002412E0E0000B49085CA8428E
S31508007DA00BD1E00040184078012806D1E0004018C1
S31508007DB0314642683846904703E0601CC4B20A2C34
S31508007DC0EADB00BFF8BD0000D8F40008F8B507469E
S31508007DD00D461646002412E0E0000B49085CA8424E
S31508007DE00BD1E00040184078012806D1E000401881
S31508007DF0314642683846904703E0601CC4B2132CEB
S31508007E00EADB00BFF8BD000040F400080146002088
S31508007E1010E083000A46FF325D32D258002A07D1A5
S31508007E2083000A46FF32F532D258002A00D170473D
S31508007E30421CD0B22628ECDB00BFF8E7014600203A
S31508007E400EE083000A461C32D258002A06D1830067
S31508007E500A463032D258002A00D17047421CD0B2A6
S31508007E602628EEDB00BFF8E700B585B00121C80477
S31508007E7001F0CCFD012040030390002168460174FF
S31508007E80C17403A91148FEF75BFE0121084601F0FB
S31508007E90EDFD0D21022002F005F9012040030090B6
S31508007EA00021684601711021417101218171FEF797
S31508007EB051FA072168460172002141720121817237
S31508007EC002A801F0DDF905B000BD00000008004871
S31508007ED0F8B506460C460020009000252112684693
S31508007EE0017044707D20C00000F0A8F901234122EA
S31508007EF069463046FBF7B4FF05467D20C00000F012
S31508007F009DF90123422200A901313046FBF7A8FF5B
S31508007F1005407D20C00000F091F92846F8BD000014
S31508007F2010B5012220210248FEF77EFE10BD000092
S31508007F3000040048F8B51C460023002500950E01EC
S31508007F401A4FF619B55CEE17760F7619F3100E016F
S31508007F50F619B55CEE17760F7619F610F600AE1B15
S31508007F60F6B20096552C0FD18D004559012696403C
S31508007F7035438E0085510E4DED5C0127009EB740B6
S31508007F803D430B4EF55410E0AA2C0ED18D004559F1
S31508007F9001269640B5438E008551054DED5C0127B7
S31508007FA0009EB740BD43024EF554F8BD1E0D002095
S31508007FB04C02002031B500247D20C00000F03EF9B7
S31508007FC00123402269460020FBF74AFF04467D202C
S31508007FD0C00000F033F9204638BD0000004870475D
S31508007FE05E16002000487047DE1500200020044970
S31508007FF0097B0902024A527B891888B27047000039
S315080080007815002010B5002220210248FEF70CFE44
S3150800801010BD0000000400481CB500200190002493
S31508008020009005F0F9FE002301AA7D21C900012070
S31508008030C002FFF701FE00BF20E01248005D0528D8
S315080080401ADB7D20C00000F0F9F80123702269468A
S315080080502046FBF705FF7D20C00000F0EFF801235E
S31508008060712269462046FBF7FBFE7D20C00000F022
S31508008070E5F8002003490855601CC4B201988442FB
S31508008080DBDB1CBDAF03002010B505F0E9FF10BD12
S315080080901CB513A00068019000200090002400235E
S315080080A06A467D21C9000120C002FFF7C5FD00BF51
S315080080B011E07D20C00000F0C1F8012004F0ACFFFB
S315080080C00123EA2201A92046FBF7CAFE002004F094
S315080080D0A3FF601CC4B200988442EADB01201CBDE1
S315080080E0C000000000B585B00121480401F08EFCEF
S315080080F0012003900021684601740221C17403A976
S315080081000920C006FEF71CFD0121084601F0AEFC59
S315080081100021084601F0C6FF0120009000216846AC
S3150800812001711021417101218171FEF713F90521B1
S3150800813068460172002141720121817202A801F08C
S315080081409FF805B000BD00B585B00121480401F0CF
S315080081505DFC012000030390002168460174C17488
S3150800816003A90920C006FEF7EBFC0121084601F029
S315080081707DFC0C21002001F095FF012000030090F2
S315080081800021684601711021417101218171FEF7B4
S31508008190E1F80721684601720021417201218172C6
S315080081A002A801F06DF805B000BD00B585B0012143
S315080081B0480401F02BFC0220039000216846017454
S315080081C0C17403A90920C006FEF7BAFC01210846B6
S315080081D001F04CFC0121002001F064FF0220009010
S315080081E00021684601711021417101218171FEF754
S315080081F0B1F8052168460172002141720121817298
S3150800820002A801F03DF805B000BD000070B5094CA4
S3150800821000250023224608490120C00203F07EFA01
S3150800822000232A460449491C0120C00203F076FAB5
S3150800823070BD000030750000D20700000021C000A4
S3150800824000BF00E0491C8142FCD3704700B585B0E9
S315080082500121880401F0DAFB042003900021684616
S315080082600174C17403A91148FEF76AFC0121084686
S3150800827001F0FCFB0221012001F014FF042000900C
S315080082800021684601711021417101218171FEF7B3
S3150800829061F8062168460172002141720121817246
S315080082A002A800F0EDFF05B000BD0000000400487C
S315080082B07047000010B500240748FBF793F900BF84
S315080082C004210548FBF74AF90028F9D00248FBF7CC
S315080082D041F90446204610BD0024014038B5002463
S315080082E000200090FFF7E6FF04461F48844202DD9F
S315080082F01E48009020E01E48844202DD1D4800907A
S315080083001AE01D48844202DD1C48009014E01C480F
S31508008310844203DD7D20800100900DE019488442E7
S3150800832002DD1948009007E01848844202DD184823
S31508008330009001E0164800906B46002268460188C6
S315080083400420FCF765F8642168460088FAF7B9FF47
S31508008350104908800023084602880749B0310120E1
S31508008360C00203F0DBF938BD4F0A0000881300008D
S31508008370C60800007017000044070000581B0000DC
S31508008380DA050000BB04000028230000BA03000039
S3150800839010270000BC03002010B500240121092085
S315080083A0C006FEF737FC0446204610BD10B500246B
S315080083B0012109030920C006FEF72CFC04462046C5
S315080083C010BD10B5002402210920C006FEF722FCC4
S315080083D00446204610BD000010B5002404210348B9
S315080083E0FEF718FC0446204610BD000000040048AD
S315080083F010B5012149030448FEF70CFC002801D0FA
S31508008400002010BD0120FCE70008004810B5102127
S315080084100920C006FEF7FEFB002801D0002010BD8B
S315080084200120FCE710B5002401210348FEF7F2FB02
S315080084300446204610BD0000000400481FB5012070
S315080084400021009101910346C20402910390810321
S31508008450B14800F067F9B148FFF7F0FE01200021A6
S31508008460009101910346C20402910390C103AA48F0
S3150800847000F058F9A948FFF7E1FE002000900190A6
S31508008480029001239A0451120390A54800F04AF974
S31508008490A248FFF7D3FE002002220090029003466E
S315080084A001920390120401210920C00600F03AF94E
S315080084B0002000900190029001235A042021039085
S315080084C00920C00600F02EF90020009001900290C5
S315080084D001239A0420210390914800F023F90020F3
S315080084E000900190029001239A04911203908C48FF
S315080084F000F018F90020009001900290034601222E
S31508008500D20491110390844800F00CF900200090E1
