S31508003000601E002079310008418F0008DD8C000819
S3150800301000000000000000000000000000000000A2
S31508003020000000000000000000000000699D000884
S315080030300000000000000000F9900008EDB8000844
S31508003040A931000800000000A9310008A9310008CC
S31508003050A9310008ED620008016300080F63000843
S3150800306000000000A9310008A9310008A9310008AC
S31508003070A9310008A9310008A9310008000000009C
S31508003080A9310008A9310008A9310008A9310008AA
S31508003090A9310008A9310008A9310008A93100089A
S315080030A0A9310008A9310008A931000899BE00080D
S315080030B069BF0008A931000800F002F800F030F8EE
S315080030C00CA030C8083824182D18A246671EAB462F
S315080030D054465D46AC4201D100F022F87E460F3ECA
S315080030E00FCCB6460126334200D0FB1AA246AB46A1
S315080030F033431847BCCD0000DCCD00000023002474
S3150800310000250026103A01D378C1FBD8520700D310
S3150800311030C100D50B6070471FB51FBD10B510BD77
S3150800312000F075F91146FFF7F7FF0BF008FC00F001
S315080031308DF903B4FFF7F2FF03BC00F093F9000022
S3150800314070B505460C46164602E00FCC0FC5103E74
S31508003150102EFAD2082E02D303CC03C5083E042E3D
S3150800316007D301CC01C5361F03E021782970641CFA
S315080031706D1C761EF9D270BD0F4880F308880F487B
S315080031800168090E0E4A914205D10E480E490160A2
S315080031900E480F4901600F4880470F480047FEE771
S315080031A0FEE7FEE7FEE7FEE7FEE700000B480C49F0
S315080031B00C4A0D4B70470000601E002004000000FA
S315080031C01F00000018100240010000000000014026
S315080031D00000000059B90008B93000086016002040
S315080031E0601E0020601A0020601A0020F8B5042A24
S315080031F02CD3830712D00B78491C0370401C521E2F
S3150800320083070BD00B78491C0370401C521E83079A
S3150800321004D00B78491C0370401C521E8B079B0F69
S3150800322005D0C91ADF002023DE1B08C90AE0FFF70C
S3150800323087FFF8BD1D4608C9FD401C46B4402C430F
S3150800324010C0121F042AF5D2F308C91A521EF0D468
S315080032500B78491C0370401C521EEAD40B78491C93
S315080032600370401C012AE4D409780170F8BD01E016
S3150800327004C0091F0429FBD28B0701D50280801CD4
S31508003280C90700D00270704700290BD0C30702D0C7
S315080032900270401C491E022904D3830702D5028006
S315080032A0801C891EE3E70022EEE70022DFE7002202
S315080032B003098B422CD3030A8B4211D300239C4665
S315080032C04EE003460B433CD4002243088B4231D3DD
S315080032D003098B421CD3030A8B4201D394463FE071
S315080032E0C3098B4201D3CB01C01A524183098B42D1
S315080032F001D38B01C01A524143098B4201D34B01BA
S31508003300C01A524103098B4201D30B01C01A52411C
S31508003310C3088B4201D3CB00C01A524183088B42A3
S3150800332001D38B00C01A524143088B4201D34B008C
S31508003330C01A5241411A00D20146524110467047FE
S315080033405DE0CA0F00D04942031000D34042534003
S3150800335000229C4603098B422DD3030A8B4212D3C3
S31508003360FC22890112BA030A8B420CD389019211F5
S315080033708B4208D3890192118B4204D389013AD032
S31508003380921100E08909C3098B4201D3CB01C01A07
S31508003390524183098B4201D38B01C01A524143091A
S315080033A08B4201D34B01C01A524103098B4201D308
S315080033B00B01C01A5241C3088B4201D3CB00C01A75
S315080033C0524183088B4201D38B00C01A5241D9D28D
S315080033D043088B4201D34B00C01A5241411A00D20E
S315080033E00146634652415B10104601D34042002B0A
S315080033F000D54942704763465B1000D3404201B589
S315080034000020C046C04602BD7047704770477546E3
S3150800341000F024F8AE46050069465346C008C000C9
S31508003420854618B020B5FFF7C1FE60BC00274908DD
S31508003430B6460026C0C5C0C5C0C5C0C5C0C5C0C53E
S31508003440C0C5C0C5403D49008D46704710B5044605
S31508003450C046C0462046FFF76CFE10BD00487047C0
S315080034600016002001491820ABBEFEE72600020020
S31508003470704770B58C180578401C6B075B0F01D137
S315080034800378401C2A1106D10278401C03E006780E
S31508003490401C0E70491C5B1EF9D12B0705D400236E
S315080034A0521E0DD40B70491CFAE70378401CCB1A40
S315080034B0921C03E01D780D70491C5B1C521EF9D541
S315080034C0A142D8D3002070BD10B50B460021846AEE
S315080034D01C43846200BF0C4614432146416110BD5B
S315080034E0002904D0826801231A43826003E08268B7
S315080034F002231A438260704710B504460548844281
S3150800350007D10121401506F023F90021601506F0C0
S315080035101FF910BD0024014030B5014600200022E5
S3150800352000238C680125ED072C438C6000BF8C684E
S31508003530E30FDB07521C0F242403A24201D0002B01
S31508003540F5D18C68E40FE407002C01D1086C00E083
S31508003550002030BD0146086C80B2704730B502467F
S3150800356000200023012424060C40002C05D0946872
S3150800357001252D06AC43234600E013681C460C4083
S31508003580002C01D0012000E0002030BD10B500223B
S31508003590C268084B1A400C7964030B6823438C688D
S315080035A02343CC6823430C6923434C6923431A43BA
S315080035B0C26010BD03D2FFFF10B504F001FE00285B
S315080035C006D007480078012108430549087005E038
S315080035D003480078FE2108400149087010BD000024
S315080035E0A8030020816804221143816070470021E6
S315080035F0016001718160C16001614161704700002D
S31508003600FEB50020029001900024002500270090B6
S315080036100026002302AA7D21C9000120C00204F069
S315080036202DFA00BF33E01C482118002301AA012007
S31508003630C00204F023FA002524E03320604317492A
S3150800364041186800801D085C010233206043134A54
S3150800365082186800C01D105C09180091009988B28C
S3150800366005F042F906460E498E4200DD0E466421F3
S315080036703046FFF726FE79000A4A5052781CC7B230
S31508003680681CC5B201988542D7DB601CC4B2029893
S315080036908442C8DBFEBD0000ED0300004C15002087
S315080036A074400000F2150020FEB50020019000903D
S315080036B00027002400250026002301AA7D21C90031
S315080036C00120C00204F0DAF900BF35E01C482118D1
S315080036D000236A460120C00204F0D0F9002526E03E
S315080036E0332060431749411868000E30085C010210
S315080036F033206043134A821868000F30105C0F1895
S31508003700B9007818C117C90E0918491172000E4B6D
S31508003710995270001946085A0C49884203DD084632
S3150800372071001A465052701CC6B2681CC5B2009881
S315080037308542D5DB601CC4B201988442C6DBFEBD57
S31508003740E90300004C150020B2150020881300007C
S3150800375010B500220121C9030B4803F049FA1E20BF
S315080037600AF086FE01229103074803F041FA1E205B
S315080037700AF07EFE002201218903034803F038FA85
S315080037801E200AF075FE10BD00040048F0B5A1B071
S3150800379006460F4615460020209080216846FFF70A
S315080037A084FD00F099F8342000F064F906F004F975
S315080037B0002807D100F0B6F8002009F0B6F9002075
S315080037C021B0F0BD384600F055F906F0F5F80028A6
S315080037D006D100F0A7F8002009F0A7F90020EFE7C6
S315080037E0284600F047F906F0E7F8002806D100F069
S315080037F099F8002009F099F90020E1E700F06CF843
S31508003800352000F037F906F0D7F8002806D100F081
S3150800381089F8002009F089F90020D1E7002406E09C
S3150800382000F02EF83055FFF793FF601C84B2AC42C7
S31508003830F6DB00F025F8209000F092F800F072F818
S31508003840002009F072F934216846017047708570C6
S315080038503521C170002405E0315D201D6A461154EA
S31508003860601C84B2AC42F7DB281DC1B2684601F081
S3150800387015F82099884201D00020A1E701209FE78A
S3150800388070B5002400F020FB00251DE06006040E3C
S31508003890012291030F4803F0ABF91E200AF0E8FD58
S315080038A00121C9030B4803F099F9012801DB01201E
S315080038B00443002201218903064803F099F91E20D2
S315080038C00AF0D6FD681CC5B2082DDFDB00F00CFB3C
S315080038D0204670BD0004004810B501229103104827
S315080038E003F086F91E200AF0C3FD0122D1030C4815
S315080038F003F07EF91E200AF0BBFD00220121C90350
S31508003900074803F075F91E200AF0B2FD00220121CE
S315080039108903034803F06CF91E200AF0A9FD10BDBF
S315080039200004004810B500220121C9030B4803F022
S315080039305FF91E200AF09CFD01229103074803F057
S3150800394057F91E200AF094FD0122D103034803F01B
S315080039504FF91E200AF08CFD10BD00000004004837
S3150800396010B50122D1030C4803F042F91E200AF0D3
S315080039707FFD01229103084803F03AF91E200AF058
S3150800398077FD002201218903034803F031F91E203F
S315080039900AF06EFD10BD000000040048F0B5A1B0A5
S315080039A005460F461646802101A8FFF77EFC002033
S315080039B000903421684601714771002405E0295DAD
S315080039C0A01C01AA1154601C84B2B442F7DBB01CD7
S315080039D0C1B201A800F062FF0090012009F0A5F825
S315080039E0FFF77AFF342000F045F805F0E5FF0028D8
S315080039F007D1FFF797FF002009F097F8002021B0BC
S31508003A00F0BD384600F036F805F0D6FF002806D196
S31508003A10FFF788FF002009F088F80020EFE7002468
S31508003A2010E028786D1C00F025F805F0C5FF002881
S31508003A3006D1FFF777FF002009F077F80020DEE7C8
S31508003A40601C84B2B442ECDB009800F013F805F071
S31508003A50B3FF002806D1FFF765FF002009F065F8D7
S31508003A600020CCE7FFF75EFF002009F05EF8012092
S31508003A70C5E7000070B50446002528E080202646E4
S31508003A8006406006040E802E05D10122D103114896
S31508003A9003F0AEF805E000220121C9030D4803F042
S31508003AA0A7F81E200AF0E4FC01229103094803F056
S31508003AB09FF81E200AF0DCFC002201218903054834
S31508003AC003F096F81E200AF0D3FC681CC5B2082D30
S31508003AD0D4DB70BD0004004810B50022012149035B
S31508003AE00B4803F085F81E200AF0C2FC01221103D8
S31508003AF0074803F07DF81E200AF0BAFC00220121CF
S31508003B000903034803F074F81E200AF0B1FC10BD3F
S31508003B1000040048F0B5A1B006460F461546002039
S31508003B20209080216846FFF7C0FB00F099F8342002
S31508003B3000F064F905F066FF002807D100F0B6F832
S31508003B40002008F0F2FF002021B0F0BD384600F052
S31508003B5055F905F057FF002806D100F0A7F8002010
S31508003B6008F0E3FF0020EFE7284600F047F905F0E4
S31508003B7049FF002806D100F099F8002008F0D5FF83
S31508003B800020E1E700F06CF8352000F037F905F081
S31508003B9039FF002806D100F089F8002008F0C5FF93
S31508003BA00020D1E7002406E000F02EF83055FFF794
S31508003BB093FF601C84B2AC42F6DB00F025F8209037
S31508003BC000F092F800F072F8002008F0AEFF3421F9
S31508003BD068460170477085703521C170002405E07C
S31508003BE0315D201D6A461154601C84B2AC42F7DB75
S31508003BF0281DC1B2684600F051FE2099884201D0BE
S31508003C000020A1E701209FE770B5002400F07CF9A9
S31508003C1000251DE06006040E012211030F4802F07C
S31508003C20E7FF1E200AF024FC012149030B4802F095
S31508003C30D5FF012801DB01200443002201210903E5
S31508003C40064802F0D5FF1E200AF012FC681CC5B211
S31508003C50082DDFDB00F068F9204670BD0004004837
S31508003C6010B501221103104802F0C2FF1E200AF007
S31508003C70FFFB012251030C4802F0BAFF1E200AF08E
S31508003C80F7FB002201214903074802F0B1FF1E2075
S31508003C900AF0EEFB002201210903034802F0A8FFFF
S31508003CA01E200AF0E5FB10BD0004004810B50022EE
S31508003CB0012149030B4802F09BFF1E200AF0D8FB9E
S31508003CC001221103074802F093FF1E200AF0D0FBD9
S31508003CD001225103034802F08BFF1E200AF0C8FB9D
S31508003CE010BD00000004004810B5012251030C481D
S31508003CF002F07EFF1E200AF0BBFB012211030848D2
S31508003D0002F076FF1E200AF0B3FB00220121090308
S31508003D10034802F06DFF1E200AF0AAFB10BD000042
S31508003D2000040048F0B5A1B005460F4616468021A6
S31508003D3001A8FFF7BAFA00200090342168460171FD
S31508003D404771002405E0295DA01C01AA1154601CD6
S31508003D5084B2B442F7DBB01CC1B201A800F09EFDE4
S31508003D600090012008F0E1FEFFF77AFF342000F00A
S31508003D7045F805F047FE002807D1FFF797FF002012
S31508003D8008F0D3FE002021B0F0BD384600F036F822
S31508003D9005F038FE002806D1FFF788FF002008F056
S31508003DA0C4FE0020EFE7002410E028786D1C00F020
S31508003DB025F805F027FE002806D1FFF777FF002033
S31508003DC008F0B3FE0020DEE7601C84B2B442ECDBE8
S31508003DD0009800F013F805F015FE002806D1FFF745
S31508003DE065FF002008F0A1FE0020CCE7FFF75EFF84
S31508003DF0002008F09AFE0120C5E7000070B50446C9
S31508003E00002528E08020264606406006040E802EFF
S31508003E1005D101225103114802F0EAFE05E000220D
S31508003E20012149030D4802F0E3FE1E200AF020FB9B
S31508003E3001221103094802F0DBFE1E200AF018FBD6
S31508003E40002201210903054802F0D2FE1E200AF0CD
S31508003E500FFB681CC5B2082DD4DB70BD00040048F2
S31508003E60F8B504460D4616461F4600200090002C5D
S31508003E7006D13A4631462846FFF788FC009007E007
S31508003E80012C05D13A4631462846FFF743FE0090F5
S31508003E900098F8BDF8B504460D4616461F4600209C
S31508003EA00090002C06D13A4631462846FFF776FDA3
S31508003EB0009007E0012C05D13A4631462846FFF71F
S31508003EC031FF00900098F8BD1CB50120C003009092
S31508003ED0032168464171002101716946014802F0D3
S31508003EE013FE1CBD000400481CB50120C003009049
S31508003EF0032168464171012101716946014802F0B2
S31508003F0003FE1CBD000400481CB5012040030090B8
S31508003F10032168464171002101716946014802F092
S31508003F20F3FD1CBD000400481CB5012040030090A9
S31508003F30032168464171012101716946014802F071
S31508003F40E3FD1CBD0004004810B5044605210E48D3
S31508003F500088401CFFF7B5F90C480088814212D04A
S31508003F60094909880D225143094A88180D22214614
S31508003F70FFF73CF9052104480088401CFFF7A1F922
S31508003F8088B20149088010BD880200208A020020F4
S31508003F909F06002010B50446142112480088401CCC
S31508003FA0FFF78FF910480088814219D0E078002879
S31508003FB001D10820E0700B4909880D2251430B4AAC
S31508003FC088180D222146FFF711F9142105480088A3
S31508003FD0401CFFF776F988B202490880012010BD17
S31508003FE00020FCE784020020860200209B050020B2
S31508003FF070B586B005460E4614460020029003901A
S315080040000490059001200190002301AA2849C002C6
S3150800401003F034FD002D24D1A521684601720198CC
S31508004020C1B26846417286720821C172217801734D
S31508004030617802A84171A1788171E178C17121790D
S31508004040017261794172A1798172E179C17202A81E
S315080040500FC805F089FD6946087502A800F0A6F89C
S3150800406023E0012D21D1A521684601720121417263
S3150800407086720821C17221780173617802A841719C
S31508004080A1788171E178C1712179017261794172F2
S31508004090A1798172E179C17202A80FC805F064FDA1
S315080040A06946087502A8FFF775FF06B070BD0000DF
S315080040B02A04000010B5044610490988481CC10F97
S315080040C0091849104900411A0D4A1288914213D01D
S315080040D00A490988A22251430A4A8818A222214677
S315080040E0FFF784F805490988481CC10F09184910C3
S315080040F04900411A014A118010BD0000D60200206D
S31508004100D8020020EC0A002010B504461149098897
S31508004110481CC10F091849104900411A0E4A12884D
S31508004120914215D00B490988A22251430B4A881897
S31508004130A2222146FFF75AF806490988481CC10FEA
S31508004140091849104900411A024A1180012010BD78
S315080041500020FCE7D2020020D4020020A809002093
S3150800416010B5044605210E480088401CFFF7A9F83B
S315080041700C480088814212D0094909880D2251430A
S31508004180094A88180D222146FFF730F80521044808
S315080041900088401CFFF795F888B20149088010BDD1
S315080041A07E020020800200205A05002010B5044631
S315080041B0142112480088401CFFF783F8104800882D
S315080041C0814219D0E078002801D10820E0700B4917
S315080041D009880D2251430B4A88180D222146FFF7FC
S315080041E005F8142105480088401CFFF76AF888B2CC
S315080041F002490880012010BD0020FCE77A02002051
S315080042007C020020560400207CB5002400250020EE
S315080042100190009000BFA1E00C2060436149085856
S315080042206149884207D00C2060435E4908585E49B8
S31508004230891C884216D1002301AA5C490120C002C4
S3150800424003F01CFC002834D00198022831D10C2038
S315080042506043544A115800231A460120C00207F049
S315080042603DF879E00C2060434E4908584E49491CF0
S31508004270884207D00C2060434A4908584A49C91C55
S31508004280884216D1002301AA48490120C00203F03A
S31508004290F5FB00280DD0019801280AD10C206043AF
S315080042A0404A115800231A460120C00207F016F8A2
S315080042B052E00C2060433B494018806800281CD017
S315080042C00C2060430A46801800236A46816801204C
S315080042D0C00203F0D3FB002800D13DE00098552822
S315080042E00BD1022005430C2060432E4A11580023A7
S315080042F00222900206F0F2FF2EE00C2060432949C4
S315080043004018406800281CD00C2060430A468018D4
S3150800431000236A4641680120C00203F0AFFB00286B
S3150800432000D119E0009855280BD1012005430C202F
S3150800433060431C4A115800230122D00206F0CEFF22
S315080043400AE00C206043174A115800231A46012038
S31508004350C00206F0C3FF00BF601C84B20C2C00D25A
S315080043605AE702202840002807D0002302220F49D6
S315080043700931900206F0B2FF13E0E807C00F0028E3
S3150800438007D00023012209490931D00206F0A6FF09
S3150800439007E000231A46054909310120C00206F044
S315080043A09DFF7CBD00F20008A20F0000D3070000A5
S315080043B0FFB583B016461F460C9C00200290002FBE
S315080043C03FD02088B84203DA2088401C208000E0CD
S315080043D027802088401E85B206E0681E4000305AB5
S315080043E069007052681E85B2002DF6DC039830808D
S315080043F0002506E06800315A029808180290681CE1
S3150800440085B22088A842F5DC208841004018019032
S3150800441021880298FEF74BFF0198C017820F019872
S3150800442010188010814203D9218802980818029032
S3150800443021880298FEF73BFF0290029881B2049801
S31508004440018007B0F0BD0000F8B505460E461446D3
S315080044501F46012D06D0022D11D0032D1CD0042D88
S315080044602CD122E06000164940180090A00015499A
S315080044700A58032339463046FFF79AFF1EE06000C4
S31508004480114940180090A00010490A5802233946DD
S315080044903046FFF78DFF11E00D4805230D4A3946D2
S315080044A000903046FFF784FF08E00B4802230B4ACA
S315080044B0394600903046FFF77BFF00BF00BFF8BDC6
S315080044C000040020A401002040040020240200204B
S315080044D03C0200204C040020420200203E0200203C
S315080044E010B50AF071FC03F025FE002804D0034835
S315080044F00078401C0149087010BD0000C600002065
S315080045001FB5002000900190029003900E48008885
S315080045100E490988884215D00B4800880D22504359
S315080045200B4A81180D226846FEF760FE684600F0C1
S3150800453099F9052104480088401CFEF7C2FE88B296
S31508004540014908801FBD00008A0200208802002059
S315080045509F0600201FB5002000900190029003904E
S31508004560124800881249098888421ED011480078E6
S3150800457000281AD101200F4908700C4800880D221E
S3150800458050430D4A81180D226846FEF72FFE6846ED
S3150800459009F048FD012808D1142104480088401C68
S315080045A0FEF78FFE88B2014908801FBD86020020EB
S315080045B0840200208C0200209B050020F8B5002408
S315080045C0002500200090002600236A467D21C900A8
S315080045D00120C00203F052FA0098C5B2AA20144975
S315080045E0087000BF00BF19E0A0001249085800284B
S315080045F00BD0A0000A46105A81B2204603F076FB7B
S3150800460055200B490870012606E0A000094A105AF1
S3150800461081B2204603F06AFB601CC4B2AC42E3DBFD
S31508004620012332463521980206F058FEF8BD0000EF
S315080046305402002044020020F0B585B00020039003
S3150800464002900027002500260190009000243E488D
S315080046500088401C80B23C4908804B21C90088422A
S3150800466006DB0020394908704B20C000364908800F
S3150800467036480078012801D105B0F0BD002302AA0A
S3150800468033490120C00203F0F9F9029F002302AA68
S315080046903F2149010120C00203F0F0F9029D0023E1
S315080046A002AA2B49891C0120C00203F0E7F9029EE1
S315080046B0002302AA412109010120C00203F0DEF904
S315080046C002980190002303AA21490C390120C0024F
S315080046D003F0D4F9039801280DD15F2E07DA1920C3
S315080046E08001854203DB01201A49087006E0022092
S315080046F01849087002E002201649087000F0AAF965
S3150800470014480078012819D000236A467D21C9007B
S315080047100120C00203F0B2F9002405E0002120467A
S3150800472003F0E4FA601CC4B200988442F6DB012365
S3150800473000223521980206F0D1FD9DE700F0BEF86B
S31508004740FFF73CFF00BF97E76002002056020020F3
S31508004750DF07000055020020FEB5054600240026A6
S3150800476000200290002701900090002302AA7D21D4
S31508004770C9000120C00203F081F90298C6B200BF41
S315080047800DE0002D05D00020C043A1002B4A505053
S3150800479003E00020A100294A5050601CC4B2B4426C
S315080047A0EFDB00240AE0002D03D0FF20244908553A
S315080047B002E0002022490855601CC4B2082CF2DB2E
S315080047C020480570002D2BD0002426E01E4821180D
S315080047D0002302AA0120C00203F050F902983F18EC
S315080047E01A480078B8420BDC1848017801988142CB
S315080047F006DD164801780198081A80B2009001E093
S315080048000020009001970098401E0122824091B234
S31508004810204603F06BFA601CC4B2B442D6DB09E04A
S31508004820002405E00021204603F060FA601CC4B2AB
S31508004830B442F7DB002006490880FEBD440200208A
S315080048404C02002056020020E9030000570200200F
S315080048506002002002480078401C01490870704731
S315080048601C03002010B504466078802807D1012073
S3150800487009490870A178221D04F00AFC07E060784F
S31508004880402804D1A178221D012004F001FC002053
S315080048900149087010BD00008603002010B50246C5
S315080048A0002006E013784340034CE05C521C4B1E84
S315080048B0D9B20029F6DC10BD8CFC0008F0B5BBB0F7
S315080048C000240025002600203A9039903890379029
S315080048D00027AA20369000203590349033903290E5
S315080048E0802112A8FEF7E1FC002011901090002309
S315080048F010AA7D21C9000120C00203F0BFF8109854
S31508004900C0B23590002310AA4E490120C00203F018
S31508004910B5F810983490002310AA4A49491C01207A
S31508004920C00203F0ABF810983390002310AA3F2179
S3150800493049010120C00203F0A1F8109880B237900F
S3150800494041480078012802D14048008837906846D7
S3150800495005F0E8FC2022694608A8FEF7F1FB0025C9
S315080049606AE0680008A9085A119034991198884293
S315080049705ED3344811382918002310AA0120C00232
S3150800498003F07CF81098C6B2102E01DC002E01D177
S315080049903BB0F0BD002414E005F0CEFC79004018C9
S315080049A06100405A3890A90112AA8918A2003898BD
S315080049B08852A80112A94018A10040188470601CEA
S315080049C0C4B2B442E8DBA90112AA8818314609F034
S315080049D041FCB01EC4B229E0A80112A94018A100E2
S315080049E0401880783A90A80112A94018A100415AA7
S315080049F03798081A39903399399888420AD3A80102
S31508004A0012A94018A100415A3498814202D3552070
S31508004A10369001E0AA2036903A98329029460C48FA
S31508004A20369B329A03F090F9601CC4B2B442D3DBC9
S31508004A30B819C7B2681CC5B23598854291DB00BF64
S31508004A40A6E70000FA0300005A0200205C020020D4
S31508004A504402002038B500240025002000900023D9
S31508004A606A467D21C9000120C00203F007F80098B4
S31508004A70C5B200BF05E00020A100084A5050601CDE
S31508004A80C4B2AC42F7DB002404E000200449085510
S31508004A90601CC4B2082CF8DB38BD000044020020B4
S31508004AA04C02002010B500F07FFA10BD7CB500203E
S31508004AB0019000240025009000236A463E49012003
S31508004AC0C00202F0DBFF0098002800D07CBD00235E
S31508004AD001AA3A490120C00202F0D0FF38480078FE
S31508004AE0401C3749087008460078282803DC0198D6
S31508004AF0401C019006E032480078642802DB00205A
S31508004B002F4908702F49097889002F4A0198505073
S31508004B100A212C480078401CFEF7D3FBC8B2294965
S31508004B2008702A49019888422EDA01980C1A2848F2
S31508004B30844201DD0024C9E7254626480068002886
S31508004B400AD125480068234908600023234A2449D6
S31508004B500120C00202F092FF204909681F22520173
S31508004B60514308467D21C900FEF7ABFB1A4909687F
S31508004B70884204DD1B48006840191A4908601A482B
S31508004B80006800191849086010490198884211DD23
S31508004B900198441A0E48844201DD002496E725460A
S31508004BA010480068401B0F49086010480068001943
S31508004BB00E49086000BF89E7BF0F0000D207000052
S31508004BC05C03002050030020580C002030750000BC
S31508004BD0A08C00005403002028030020580300205E
S31508004BE0F103000038030020480300204C0300208E
S31508004BF010B5002402F002F80446164884420ED87E
S31508004C00154884420BD315480088401C1349088070
S31508004C10084600880A2805DD0A20088002E00020E8
S31508004C200E4908800C480A3884420ED80C4884423B
S31508004C300BD30C480088401C0A490880084600889F
S31508004C400A2805DD0A20088002E0002005490880B8
S31508004C5010BD0000A08C0000307500006203002023
S31508004C60C05D000060030020FEB505460C46002620
S31508004C70002001900090012D04D0022D28D0032D8C
S31508004C8073D16BE000204A4908804A4908804A489F
S31508004C9000684A49884218DC4748006847493C3951
S31508004CA0884212DB012000900023434844490268E9
S31508004CB00120C00206F012FB3F48008800B23C49BA
S31508004CC0088001203F49087001E0002000906BE051
S31508004CD03C480078012802D00020009064E036485D
S31508004CE0016820461430814235DC28383249096883
S31508004CF0884230DC012000902F48008800B22D49F8
S31508004D0008800020085E2A4900228A5E90420BDD50
S31508004D10284A0020105E0A460023D35EC11A2A4894
S31508004D20FEF7CFFA06460AE0214A0020105E214A1D
S31508004D300023D35EC11A2448FEF7C3FA06460023A9
S31508004D4032468121C9000120C00206F0C7FA0220B6
S31508004D501C49087001E00020009025E019480078F9
S31508004D60022803D0002000901EE01CE0002301AAC0
S31508004D7016490120C00202F081FE2046019909F079
S31508004D807EFB07460D491E39204609F078FBC00808
S31508004D90874205D20120009000200A49087001E0E8
S31508004DA00020009000E000BF00BF0098FEBD000094
S31508004DB06602002068020020200300204E750000CD
S31508004DC0070400006A02002010270000D20700002E
S31508004DD008B52048009000236A461F490120C002F2
S31508004DE002F04CFE1B490A39009888420FDA1B4824
S31508004DF00088401C19490880084600880A2802DDF0
S31508004E000120174908700020164908800EE0154849
S31508004E100088401C1349088008460088322802DDAD
S31508004E2000200F49087000200C49088002F0ACF9F0
S31508004E3001280ED10A48007801280AD17D20C00031
S31508004E4006F0B4FB002006490870064908800349A5
S31508004E50088008BD30750000D207000074020020E3
S31508004E60780200207602002010B501F063F801F000
S31508004E7019F810BD38B5054600240020009000BF7B
S31508004E8040E00C20604321490858A84238D10C203C
S31508004E90604340188068002814D00C2060430A46F6
S31508004EA0801800236A4681680120C00202F0E6FDE8
S31508004EB0002800D138BD0098552801D10120F9E70E
S31508004EC00020F7E70C206043104940184068002886
S31508004ED014D00C2060430A46801800236A464168AD
S31508004EE00120C00202F0CAFD002800D1E2E70098BE
S31508004EF0552801D10120DDE70020DBE70020D9E7AE
S31508004F00601C84B20C2CBCD30020D3E700F2000846
S31508004F1008B50020009000236A4610490120C00207
S31508004F2002F0ACFD0098002801D10D49087001F087
S31508004F30A3F8012803D1022009F00AFD02E00320A4
S31508004F4009F006FD09F03AFD002803D0022009F011
S31508004F5025FA02E0032009F021FA08BDEC07000053
S31508004F606503002030B502460B460D4811E014785B
S31508004F70521C604000210AE0C407E40F002C03D04D
S31508004F804010084C604000E040104C1CE1B2082973
S31508004F90F2DB1C465D1EEBB2002CE8D130BD0000EA
S31508004FA0FFFF000001A0000010B5012000F03CF949
S31508004FB0012000F079F8012000F008F800F0E2F886
S31508004FC000F096F9012000F051F910BDF0B587B050
S31508004FD007460020069005900025314E049030467D
S31508004FE003900020029030460190012426E02346D3
S31508004FF002AA2D210120800202F040FD234601AAC3
S315080050002E210120800202F039FD029885B201980E
S3150800501086B2012C05D104950396012006900590C9
S315080050200AE00498A84201DA049506940398B04267
S3150800503001DD0396059400BF601CC4B2BC42D6DDF0
S31508005040002318490120C002049A06F047F902AA6B
S31508005050312101208002069B02F010FD0023114930
S31508005060891D0120C002029A06F038F900230D496D
S31508005070491C0120C002039A06F030F901AA322120
S3150800508001208002059B02F0F9FC0023FD21C900DE
S315080050900120C002019A06F021F907B0F0BD000010
S315080050A0FFFF0000E1070000F0B587B007460020C3
S315080050B0069005900025314E049030460390002056
S315080050C0029030460190012426E0234602AA2921AF
S315080050D00120800202F0D2FC234601AA2A210120DF
S315080050E0800202F0CBFC029885B2019886B2012CA8
S315080050F005D1049503960120069005900AE00498C8
S31508005100A84201DA049506940398B04201DD039695
S31508005110059400BF601CC4B2BC42D6DD0023184902
S315080051200120C002049A06F0D9F802AA2F2101200C
S315080051308002069B02F0A2FC00231149891D01206A
S31508005140C002029A06F0CAF800233F21490101204D
S31508005150C002039A06F0C2F801AA30210120800293
S31508005160059B02F08BFC00230549C91D0120C002DE
S31508005170019A06F0B3F807B0F0BD0000FFFF000083
S31508005180DF0700007FB50024002500200390029069
S3150800519001900090002303AA22490120C00202F0D0
S315080051A06DFC002302AA3F2149010120C00202F03A
S315080051B065FC02990398884203DD02990398401A10
S315080051C002E003990298401A84B200232246154940
S315080051D0091D0120C00206F081F8002301AA114921
S315080051E0891C0120C00202F049FC00236A460D49C9
S315080051F0C91C0120C00202F041FC009901988842AE
S3150800520003DD00990198401A02E001990098401AB6
S3150800521085B200232A460349491D0120C00206F02B
S315080052205DF87FBDDF070000F8B5054600270026B4
S315080052300020009000240DE0601CC3B26A462621B7
S315080052400120800202F01AFC009887B2F01986B293
S31508005250601CC4B2AC42EFDB00233246024901208F
S31508005260C00206F03BF8F8BDD1070000F0B585B0DE
S31508005270074600200390029000260190012421E0B1
S3150800528019482018411E002302AA0120C00202F074
S31508005290F5FB0298C0B2039000250EE0294620319E
S315080052A0234602AA0120800202F0E8FB029901982F
S315080052B040180190761C681CC5B203988542EDDB40
S315080052C0601CC4B2BC42DBDD002E0BDD3146019802
S315080052D0FDF7F7FF00230246044900900120C002AB
S315080052E005F0FCFF05B0F0BDED030000DE07000089
S315080052F01CB50020019000BF0090002301AA0F49A9
S315080053000120C00202F0BAFB00236A460B49491D78
S315080053100120C00202F0B2FB6422019951430846FB
S315080053200099FDF7CEFF04460023224603490C31B7
S315080053300120C00205F0D2FF1CBD0000D107000005
S31508005340FEB5FF211531FE48FDF7ADFF002302AA81
S31508005350FC490120C00202F091FB0298C5B2202543
S31508005360002412E02146012301AA980202F086FBD6
S3150800537001980004010E6000F14A11540198C1B267
S315080053806000401C1154601CC4B2AC42EADB002326
S3150800539002AAEC49491C0120C00202F06FFB0298E0
S315080053A0C5B20825002414E021462031012301AAAC
S315080053B0980202F063FB01980004010E6000403079
S315080053C0DF4A11540198C1B2600041301154601C83
S315080053D0C4B2AC42E8DB002301AADA49491F01201E
S315080053E0C00202F04BFB01980004010ED44840307D
S315080053F001740198C1B2D24840304174002301AA11
S31508005400D049091F0120C00202F038FBCE49019895
S31508005410081A019001980004010EC94840308174A9
S315080054200198C1B2C6484030C174002301AAC549D3
S3150800543013310120C00202F021FB01980004010E7D
S31508005440BF48403001750198C1B2BD48403041752A
S31508005450002301AABB4909310120C00202F00EFB54
S3150800546001980004010EB648403081750198C1B212
S31508005470B3484030C175002301AA3F2149010120E4
S31508005480C00202F0FBFA01980004010EAC48403055
S3150800549001760198C1B2AA4840304176002301AA94
S315080054A0A8490B310120C00202F0E8FA019800046D
S315080054B0010EA348403081760198C1B2A048403019
S315080054C0C176002301AA9F490C310120C00202F0CF
S315080054D0D5FA01980004010E9948403001770198E1
S315080054E0C1B2974840304177002301AA9549C91EA1
S315080054F00120C00202F0C2FA01980004010E904889
S31508005500403081770198C1B28D484030C177002379
S3150800551001AA8E490120C00202F0B0FA00236A46A9
S31508005520884913310120C00202F0A8FA64210198C3
S31508005530FDF7C7FE0099484306467D21C900FDF7D9
S31508005540C0FE019001980004010E7D48603001708C
S315080055500198C1B27A4860304170002301AA79499E
S315080055600120C00202F08AFA01980004010E74486C
S31508005570603081700198C1B271486030C1700023F3
S3150800558001AA7049491C0120C00202F077FA019865
S315080055900004010E6A48603001710198C1B268487A
S315080055A060304171002301AA684908310120C00210
S315080055B002F064FA01980004010E614860308171B6
S315080055C00198C1B25E486030C17100200190604800
S315080055D000785F49497808435D49897808435C49FA
S315080055E0C97808435A490979084359494979084302
S315080055F0002803D00121019808430190019800046E
S31508005600010E4F48603001720198C1B24C486030B3
S315080056104172002301AA4B49C91C0120C00202F0AD
S315080056202DFA01980004010E4548603081720198F0
S31508005630C1B243486030C172002301AAFB21C900E8
S315080056400120C00202F01AFA01980004010E3C4833
S31508005650603001730198C1B2394860304173002344
S3150800566001AA3849C91D0120C00202F007FA0198AB
S315080056700004010E3248603081730198C1B2304887
S315080056806030C173002301AA2E490D310120C002E2
S3150800569002F0F4F901980004010E294860300174FB
S315080056A00198C1B2264860304174002301AA2549F1
S315080056B0491F0120C00202F0E1F9002302AA21498C
S315080056C0091F0120C00202F0D9F92249029888422E
S315080056D003DB0298401A029003E01E490298081A52
S315080056E00290029A0199514308466421FDF7E9FDA3
S315080056F0019001980004010E1148603081740198E8
S31508005700C1B20F486030C174134841780C48603004
S315080057100175114801780A48603041750E48C1780C
S315080057200748603081750C48817805486030C17536
S3150800573009484179024860300176074801790DE049
S31508005740F2070020D607000060EA0000F103000017
S315080057504C0200203075000014030020FE484176F4
S31508005760FE48C179FC488176FC488179FA48C176B9
S31508005770002301AAFA490120C00202F07FF9642138
S315080057800198FDF79EFD019001980004010EF2486C
S3150800579001770198C1B2F0484177002301AAFD219B
S315080057A089000120C00202F069F901980004010E7F
S315080057B0E94881770198C1B2E748C177002301AA71
S315080057C07D21C9000120C00202F058F901980004A1
S315080057D0010EE148203001700198C1B2DE48203040
S315080057E04170002301AADE4908390120C00202F0EF
S315080057F045F901980004010ED748203081700198B8
S31508005800C1B2D5482030C170002301AAD449C91FA6
S315080058100120C00202F032F901980004010ECE48B8
S31508005820203001710198C1B2CB4820304171002364
S3150800583001AACB49891F0120C00202F01FF901986D
S315080058400004010EC448203081710198C1B2C248D3
S315080058502030C171002301AAC149091F0120C002D5
S3150800586002F00CF901980004010EBB4820300172C1
S315080058700198C1B2B84820304172002301AAB8493C
S31508005880C91E0120C00202F0F9F801980004010EB1
S31508005890B148203081720198C1B2AF482030C17238
S315080058A0002301AAAE49891E0120C00202F0E6F8CB
S315080058B001980004010EA848203001730198C1B26E
S315080058C0A54820304173002301AAA549891C012057
S315080058D0C00202F0D3F801980004010E9E48203059
S315080058E081730198C1B29C482030C173002301AA74
S315080058F09B490C310120C00202F0C0F8019800044F
S31508005900010E9548203001740198C1B292482030A2
S315080059104174002301AA412109010120C00202F0B5
S31508005920ADF801980004010E8B4820308174019867
S31508005930C1B289482030C174002301AA88492D3193
S315080059400120C00202F09AF801980004010E82486C
S31508005950203001750198C1B27F4820304175002377
S3150800596001AA7F4920310120C00202F087F8019878
S315080059700004010E7848203081750198C1B2764836
S315080059802030C175002301AA75492E310120C002B5
S3150800599002F074F801980004010E6F482030017671
S315080059A00198C1B26C4820304176002301AA6C499F
S315080059B019310120C00202F061F801980004010EB5
S315080059C06548203081760198C1B263482030C17697
S315080059D0002301AA8321C9000120C00202F04EF863
S315080059E001980004010E5C48203001770198C1B285
S315080059F0594820304177002301AA59491A31012014
S31508005A00C00202F03BF801980004010E524820300B
S31508005A1081770198C1B250482030C177002301AA86
S31508005A204F4928310120C00202F028F801980004E5
S31508005A30010E4948403001700198C1B246484030CD
S31508005A404170002301AA46491D310120C00202F017
S31508005A5015F801980004010E3F48403081700198FE
S31508005A60C1B23D484030C170002301AA3C492B31E0
S31508005A700120C00202F002F801980004010E36481F
S31508005A80403001710198C1B233484030417100235A
S31508005A9001AA33491E310120C00201F0EFFF019827
S31508005AA00004010E2C48403081710198C1B22A4881
S31508005AB04030C171002301AA29492C310120C002B6
S31508005AC001F0DCFF01980004010E23484030017202
S31508005AD00198C1B2204840304172002301AA2049EA
S31508005AE024310120C00201F0C9FF01980004010E0B
S31508005AF01948403081720198C1B217484030C172C6
S31508005B00002301AA164932310120C00201F0B6FF6E
S31508005B1001980004010E1048403001730198C1B283
S31508005B200D4840304173002301AA0D492531012053
S31508005B30C00201F0A3FF01980004010E0648403098
S31508005B4081730198C1B204484030C173002301AA89
S31508005B5003493331012005E05208002014030020D0
S31508005B60F1030000C00201F089FF01980004010E4C
S31508005B70C74801740198C1B2C5484174002301AAF7
S31508005B80C4490120C00201F079FF01980004010E02
S31508005B90BF4881740198C1B2BD48C174002301AAE7
S31508005BA0BC490E310120C00201F068FF01980004CB
S31508005BB0010EB74801750198C1B2B5484175002371
S31508005BC001AAB449491C0120C00201F057FF0198F7
S31508005BD00004010EAE4881750198C1B2AC48C17582
S31508005BE0002301AAAB490F310120C00201F046FF8C
S31508005BF001980004010EA64801760198C1B2A4488E
S31508005C004176002301AAA349491E0120C00201F0DA
S31508005C1035FF01980004010E9D4881760198C1B2AE
S31508005C209B48C176002301AA212149010120C0020F
S31508005C3001F024FF01980004010E954801770198A8
S31508005C40C1B293484177002301AA9249091D012050
S31508005C50C00201F013FF01980004010E8C488177F9
S31508005C600198C1B28A48C177002301AA894912312D
S31508005C700120C00201F002FF01980004010E8448C9
S31508005C80203001700198C1B281482030417000234C
S31508005C9001AA804919390120C00201F0EFFE0198D6
S31508005CA00004010E7A48203081700198C1B2784804
S31508005CB02030C170002301AA764918390120C00294
S31508005CC001F0DCFE01980004010E714820300171D4
S31508005CD00198C1B26E4820304171002301AA6E496D
S31508005CE00120C00201F0CAFE0198552802D1002001
S31508005CF0019001E00120019001980004010E64481A
S31508005D00203081710198C1B261482030C1710023E9
S31508005D1001AA6149491C0120C00201F0AFFE0198A1
S31508005D20552802D10020019001E001200190019838
S31508005D300004010E5648203001720198C1B2544839
S31508005D4020304172002301AA53490C390120C002B0
S31508005D5001F094FE01980004010E4D48203081722E
S31508005D600198C1B24A482030C172002301AA4949A4
S31508005D7018310120C00201F081FE01980004010ECD
S31508005D804348203001730198C1B24148203041731D
S31508005D9000240AE00D20001B4049095C2046CE304D
S31508005DA03B4AA03A1154601CC4B20E2CF2DB002404
S31508005DB00AE00D20001B3A49095C2046DE30344AC9
S31508005DC0A03A1154601CC4B20E2CF2DB002422E067
S31508005DD0304815382118002301AA0120C00201F015
S31508005DE04DFE0198010EA000EE30294AA03A115442
S31508005DF001980002010EA000EF301154019800042A
S31508005E00010EA000F03011540198C1B2A000F13083
S31508005E101154601CC4B2082CDADB002301AA1D4900
S31508005E2019310120C00201F029FE01980004010E73
S31508005E301748603081730198C1B215486030C17344
S31508005E40002301AA13491A310120C00201F016FEE7
S31508005E5001980004010E0E48603001740198C1B221
S31508005E600B4860304174002301AA0A491B310120FE
S31508005E70C00201F003FE01980004010E04486030D8
S31508005E8081740198C1B202486030C174FEBD000039
S31508005E909208002013040000F5070000FE02002007
S31508005EA0F002002010B5002402F064F90446002C24
S31508005EB018D11C480078401C1A4908700846007812
S31508005EC0032812DD032008701748007800280CD133
S31508005ED0002301221549D00205F000FA01201249D3
S31508005EE0087002E000200F490870002C15D01048F1
S31508005EF00078401C0E4908700846007803280FDD14
S31508005F000320087000231A4608490120C00205F03C
S31508005F10E5F900200449087002E0002004490870E9
S31508005F2010BD00007002002072020020ED0700007C
S31508005F307102002010B5002402F011F90446002C65
S31508005F4018D11C480078401C1A4908700846007881
S31508005F50032812DD032008701748007800280CD1A2
S31508005F60002301221549D00205F0B8F9012012498B
S31508005F70087002E000200F490870002C15D0104860
S31508005F800078401C0E4908700846007803280FDD83
S31508005F900320087000231A4608490120C00205F0AC
S31508005FA09DF900200449087002E0002004490870A1
S31508005FB010BD00006D0200206F020020EC070000F3
S31508005FC06E02002070B506460D46094801F044FEEB
S31508005FD00446052C0ADAA10005483030465000214F
S31508005FE0A20014308150A00001490D50204670BD12
S31508005FF05011002010B56421014804F0C9FB10BDFA
S31508006000FD9B000810B5FF21F531044804F0C0FBDC
S315080060106421034804F0BCFB10BD00008DA30008F2
S315080060200942000810B56421084804F0B1FB7D2137
S31508006030C900074804F0ACFB7D21C900054804F0F7
S31508006040A7FB6421044804F0A3FB10BDAD4A000871
S3150800605081BC000809B60008F14B000810B50122FA
S3150800606020210920C00600F0C3FD00200149087060
S3150800607010BD00008202002038B5002000900023E1
S315080060806A4626490120C00201F0F8FC2449009816
S31508006090884201DD012038BD22480078002801D059
S315080060A00020F8E700236A461C4923310120C00274
S315080060B001F0E4FC0098552801D10020EBE707F031
S315080060C01DFF002801D00020E5E7002421E0A100FB
S315080060D0154A5058FEF7CEFE012815D11348005D23
S315080060E0401C124908550846005D0A280FDB0A209D
S315080060F00855A0000C4908580D49884202D10120CC
S31508006100084908700020C6E7002008490855601CA1
S31508006110C4B2052CDBD30120BDE70000D20700007E
S315080061203075000065030020A0F5000879030020FB
S31508006130A40F000038B50020009000236A462249C3
S315080061400120C00201F09AFC20490098884201DA31
S31508006150012038BD1E480078002801D00020F8E745
S3150800616001F00AFD002801D00020F2E707F0C6FE7C
S31508006170002801D00020ECE7002421E0A100154A00
S315080061805058FEF777FE012815D11348005D401CCC
S31508006190114908550846005D0A280FDB0A200855EC
S315080061A0A0000C4908580D49884202D10120084927
S315080061B008700020CDE7002007490855601CC4B2C6
S315080061C0052CDBD30120C4E7D20700003075000098
S315080061D0640300208CF5000874030020A50F000056
S315080061E008B50020009000236A4617490120C0021E
S315080061F001F044FC0098012807D100231A461249E9
S31508006200C00205F06BF802F09DFC0098A5280BD19A
S3150800621000231A460C490120C00205F05FF8012048
S315080062200A49087002F08EFC00236A4606492C3992
S315080062300120C00201F022FC05490098884202D1DB
S3150800624001200449087008BD29040000BD03002088
S31508006250FFFF0000C500002008B5002000900023BD
S315080062606A4610490120C00201F008FC009800287F
S3150800627001D10D490870FFF75DFF012803D1002001
S3150800628008F066FB02E0012008F062FB08F0B8FBA4
S31508006290002803D0002008F081F802E0012008F069
S315080062A07DF808BDED070000640300201CB5012039
S315080062B0C0020090032168464171002101716946B8
S315080062C0014800F021FC1CBD000400481CB5012053
S315080062D0C002009003216846417101210171694697
S315080062E0014800F011FC1CBD0004004810B501204F
S315080062F000F01CF8022000F019F802F0E1FA10BDCF
S3150800630010B5042000F012F802F0DAFA10BD10B544
S31508006310102000F00BF80120400300F007F80120D8
S31508006320000300F003F802F0CBFA10BD01494861FA
S315080063307047000000040140002120498279002AA4
S3150800634035D00A46126803689A430B461A600A460D
S31508006350526803689A430B465A60027951180A68CC
S3150800636003681A430A60154A926803689A43134BEE
S315080063709A601A46D26803689A43104BDA604279E3
S31508006380102A0CD11A46926803681A430B4B9A6076
S315080063901A46D26803681A43084BDA600DE00749C3
S315080063A0427951180A6803681A430A6005E00279B7
S315080063B051180A6803689A430A6070470004014046
S315080063C010B500220121C902074800F011FC01227C
S315080063D09102054800F00CFC0022012189020248BE
S315080063E000F006FC10BD000000040048F8B505469C
S315080063F00E461746012006F095FB00F089F8A02006
S3150800640000F004F903F024FB002806D100F09AF8FE
S31508006410002006F087FB0020F8BD301200F0F6F8E1
S3150800642003F016FB002806D100F08CF8002006F0D1
S3150800643079FB0020F0E7F0B200F0E8F803F008FB7B
S31508006440002806D100F07EF8002006F06BFB00203D
S31508006450E2E700F05DF8A12000F0D8F803F0F8FABA
S31508006460002806D100F06EF8002006F05BFB00203D
S31508006470D2E700241BE000F025F828706D1C781E72
S31508006480A04210D10122D1020D4800F0B1FB012231
S3150800649091020B4800F0ACFB002201218902084852
S315080064A000F0A6FB01E0FFF78BFF601C84B2BC423C
S315080064B0E1DB00F047F8002006F034FB0120ABE7EB
S315080064C00004004870B50024FFF7F0FE002517E029
S315080064D06006040E012291020C4800F089FB012196
S315080064E0C9020A4800F07AFB012801DB01200443AF
S315080064F0002201218902054800F07AFB681CC5B212
S31508006500082DE5DBFFF7E2FE204670BD00040048D3
S3150800651010B5012291020A4800F06AFB0122D10255
S31508006520074800F065FB00220121C902044800F073
S315080065305FFB002201218902014800F059FB10BDCA
S315080065400004004810B500220121C902064800F0DF
S315080065504FFB01229102044800F04AFB0122D102B6
S31508006560014800F045FB10BD00040048F8B5044694
S315080065700D461746012006F0D5FAFFF7C9FFA020F9
S3150800658000F044F803F064FA002806D1FFF7DAFFB2
S31508006590002006F0C7FA0020F8BD281200F036F8E9
S315080065A003F056FA002806D1FFF7CCFF002006F0C4
S315080065B0B9FA0020F0E7E8B200F028F803F048FA44
S315080065C0002806D1FFF7BEFF002006F0ABFA002030
S315080065D0E2E7002610E02078641C00F017F803F0C4
S315080065E037FA002806D1FFF7ADFF002006F09AFA21
S315080065F00020D1E7701C86B2BE42ECDBFFF7A2FF93
S31508006600002006F08FFA0120C6E7000070B50446A0
S3150800661000251FE08020264606406006040E802ED0
S3150800662005D10122D1020D4800F0E2FA05E0002268
S315080066300121C902094800F0DBFA01229102074844
S3150800664000F0D6FA002201218902044800F0D0FAA7
S31508006650681CC5B2082DDDDB70BD000000040048CB
S315080066601CB5002001900090002301AA29490120A9
S31508006670C00201F003FA00236A4627490120C00236
S3150800668001F0FCF900990198884215DB2348007847
S31508006690401C224908700020214908701F480078CC
S315080066A01E2824DB1E201D490870002301221D49CF
S315080066B0D00204F013FE1AE00198C01C0099884223
S315080066C015DC17480078401C154908700020134946
S315080066D00870134800781E2809DB1E201049087028
S315080066E000231A460F490120C00204F0F7FD0023D3
S315080066F001AA0C490120C00201F0C0F9019801283D
S3150800670003D1062007F04AFE02E0072007F046FEFE
S315080067101CBD0000F40700002B04000080030020C5
S3150800672081030020AE0F000070B504460D46092D02
S3150800673071D008DC2B0006F0E7F9097F1938586391
S315080067406F95B5D57F001A2D72D008DC0A2D70D04A
S315080067500B2D6FD00C2D6ED0172D6DD137E1212D55
S315080067606BD0222D6AD0232DF7D16EE106F08AFA76
S31508006770002807D0BC48007880088000801CBA49E9
S31508006780087011E0002C09D0B7480078800880000E
S31508006790A107890F0843B449087005E0B248007894
S315080067A080088000B04908705BE106F08DFA002881
S315080067B007D0AD4800780C2188430830AA490870EC
S315080067C012E0002C0AD0A84800780C218843A100C2
S315080067D00C2211400843A449087005E0A248007835
S315080067E00C218843A04908703BE19F480078302176
S315080067F0884321013022114008439B49087030E143
S3150800680099480078C0218843A101C0221140084355
S315080068109549087025E185E006F08AF900280ED02A
S315080068209148407880088000801C8F49487018E09D
S31508006830D7E096E0B5E0BFE012E1ECE0F8E0002C26
S3150800684009D08948407880088000A107890F084345
S315080068508549487005E08448407880088000824968
S315080068604870FEE006F086F9002807D07E48407892
S315080068700C21884308307C49487012E0002C0AD065
S31508006880794840780C218843A1000C22114008431E
S315080068907549487005E0744840780C218843724968
S315080068A04870DEE006F088F9002807D06E48407880
S315080068B03021884320306C49487012E0002C0AD0F9
S315080068C06948407830218843210130221140084325
S315080068D06549487005E06448407830218843624934
S315080068E04870BEE006F08AF9002807D05E4840786E
S315080068F0C021884380305C49487012E0002C0AD0D9
S3150800690059484078C0218843A101C0221140084354
S315080069105549487005E054484078C0218843524993
S3150800692048709EE006F0F2F9002807D04E488078B5
S3150800693080088000801C4C49887011E0002C09D022
S315080069404948807880088000A107890F084346498E
S31508006950887005E04448807880088000424988703D
S315080069607FE006F017FA002807D03F4880780C2108
S31508006970884308303C49887012E0002C0AD03A480F
S3150800698080780C218843A1000C221140084336491F
S31508006990887005E0344880780C218843324988702D
S315080069A05FE0314880783021884321013022114048
S315080069B008432D49887054E02B488078C0218843C5
S315080069C0A101C022114008432749887049E026489A
S315080069D0407940084000E107C90F08432249487139
S315080069E03FE0002C0AD02048407908218843E1007E
S315080069F00822114008431C4948710BE007F05CFA6D
S31508006A00C0000821084006461748407988433043A5
S31508006A101549487100BF06F09BF98000042108401B
S31508006A20064611488079884330430F49887118E033
S31508006A3006F006F9C0000821084006460A4880798B
S31508006A4088433043084988710BE00748807910214C
S31508006A50884321011022114008430349887100E048
S31508006A6000BF00BF70BD00001403002010B5214808
S31508006A7000780A2802DB00201E4908701D48407865
S31508006A80322804DB05F0B8F900201A49487019487D
S31508006A90C0781E2802DB00201649C8701548807881
S31508006AA0642802DB0020134988701248007964289C
S31508006AB004DB00200F4908710F4908700D4840791A
S31508006AC0642804DB00200B4948710C490870094802
S31508006AD08079642802DB0020064988710548C07958
S31508006AE0642806DB00200349C87105490870054972
S31508006AF0087010BD0C0300208503002082020020C8
S31508006B008C020020CF020020F0B50A46002100239F
S31508006B10002400BF3DE001258D402B4615681D4029
S31508006B202C469C4234D11579012D02D01579022DB7
S31508006B3016D185684F000326BE40B5438560557952
S31508006B404E00B540866835438560858801268E40A7
S31508006B50B5438580858896798E40B6B2354385805B
S31508006B6005684F000326BE40B543056015794E00FB
S31508006B70B540066835430560C5684F000326BE4024
S31508006B80B543C560D5794E00B540C6683543C5607E
S31508006B90491C1029BFD3F0BDF0B5002300244D07CA
S31508006BA0EE0E1546B5402B46CD10AE0005462035EF
S31508006BB0AD594E07F70E0F26BE40B543CE10B600A8
S31508006BC007462037BD51CD10AE003D46AD591D4391
S31508006BD02C46CD10AD003E467451F0BD024600204D
S31508006BE0138A0B40002B01D0012000E000207047DB
S31508006BF0002A01D0816100E00185704770B5002444
S31508006C00002500BF05E0A000064908584519601C84
S31508006C10C4B20A2CF7DB0A212846FCF752FB0546C4
S31508006C20284670BD580C00200246002108E088005E
S31508006C30054B1858904201D101207047481CC1B233
S31508006C400429F4D30020F8E790F2000838B5044682
S31508006C500D460020009000236A4622490120C00202
S31508006C6000F00CFF00980004000E1F4908700098F9
S31508006C70487000236A467D2109010120C00200F000
S31508006C80FDFE00980004000E174988700098C87029
S31508006C9000236A461349491C0120C00200F0EEFE93
S31508006CA012490098081A009000980004000E0E4930
S31508006CB008710098487100236A460A49183101206C
S31508006CC0C00200F0DBFE00980004000E0649887139
S31508006CD00098C8710A4690212046FDF789F90120D7
S31508006CE038BD0000D1070000E802002060EA000075
S31508006CF038B504460D460020009000236A461C4914
S31508006D000120C00200F0BAFE00980004000E1949DE
S31508006D1008700098487000236A461549891D0120A5
S31508006D20C00200F0ABFE13490098887000236A463B
S31508006D303F2149010120C00200F0A0FE009800048E
S31508006D40000E0C49C8700098087100236A46084965
S31508006D50C91D0120C00200F091FE0649009848713D
S31508006D600A4691212046FDF743F9012038BD000067
S31508006D70DF070000E802002038B504460D4600206B
S31508006D80009000236A4618490120C00200F076FEEA
S31508006D9016490098087000236A461349891D012080
S31508006DA0C00200F06BFE11490098487000236A463D
S31508006DB00D49491C0120C00200F060FE0B490098ED
S31508006DC0887000236A46FD21C9000120C00200F030
S31508006DD055FE06490098C8700A4692212046FDF7D6
S31508006DE007F9012038BD0000E1070000E80200208D
S31508006DF07CB504460D46002001900090002301AAA8
S31508006E0026490120C00200F039FE2549019808707C
S31508006E10002301AA2149891D0120C00200F02EFE87
S31508006E201F4901984870002301AAFB21C9000120C7
S31508006E30C00200F023FE1A490198887019480078A4
S31508006E40C870002301AA18490120C00200F016FEE6
S31508006E5000236A46114916310120C00200F00EFED1
S31508006E60009A0199514308467D21C900FCF729FA81
S31508006E7001900198000E0A49087101980002000E57
S31508006E80487101980004000E88710198C8710A4675
S31508006E9093212046FDF7ACF801207CBDD3070000FE
S31508006EA0E80200201C030020F103000038B5044660
S31508006EB00D460020009000236A4620490120C002A2
S31508006EC000F0DCFD1E490098087000236A461B493D
S31508006ED0491C0120C00200F0D1FD194900984870EC
S31508006EE000236A46154916310120C00200F0C6FD86
S31508006EF013490098887000236A4610491731012003
S31508006F00C00200F0BBFD0E490098C8700D48007815
S31508006F10087100236A460C490120C00200F0AEFD44
S31508006F2000980004000E06494871009888710A46C0
S31508006F3094212046FDF75CF8012038BDD6070000ED
S31508006F40E8020020A8030020F903000070B592B0FB
S31508006F5005460E46402102A8FCF7A7F90020019035
S31508006F600024009000236A4627490120C00200F049
S31508006F7085FD012D05D125480078012801D120205D
S31508006F800090002412E02146012301AA980200F08D
S31508006F9075FD01980004000E610002AA505401987C
S31508006FA0C1B26000401C1154601CC4B200988442EF
S31508006FB0E9DB002421E006212046FCF782F9491C7A
S31508006FC0134802AA125D42540621601CFCF779F99F
S31508006FD0002904D000984000401EA0420BD106218B
S31508006FE02046FCF76EF9401C094908700A469521A7
S31508006FF02846FCF7FDFF601CC4B200984000A0427A
S31508007000D9DC012012B070BDD60700008603002027
S31508007010E80200207FB505460E4600200290039040
S3150800702001900024009000236A4623490120C002EB
S3150800703000F024FD012D04D1062000901F4800F021
S31508007040FDFF00240BE021462031012301AA980206
S3150800705000F014FD02A901980855601CC4B20098F6
S315080070608442F0DB002420E007212046FCF729F9BA
S31508007070491C134802AA125D42540721601CFCF7FA
S3150800708020F9002903D00098401EA0420BD1072101
S315080070902046FCF716F9401C094908700A4696214D
S315080070A02846FCF7A5FF601CC4B200988442DBDBC7
S315080070B0012004B070BD0000D7070000E09304006B
S315080070C0E802002070B504460D46104800781049BD
S315080070D008700E48407848700C48807888700B48CD
S315080070E0C078C8700948007908710848407948711D
S315080070F00648807988710548C079C8710A4697217B
S315080071002046FCF775FF012070BD00004C020020E8
S31508007110E802002070B504460D461048007810496C
S3150800712008700E48407848700C48807888700B487C
S31508007130C078C870094800790871084840794871CC
S315080071400648807988710548C079C8710A46982129
S315080071502046FCF74DFF012070BD000014030020F7
S31508007160E80200200246002108E08800054B18586E
S31508007170904201D101207047481CC1B20429F4D3BA
S315080071800020F8E7A0F2000838B500200090002497
S315080071900F48FDF76FFE002803D105F073FD0028A0
S315080071A00CD000236A460B490120C00200F066FC99
S315080071B04B2189010098884200DA01247D2040018C
S315080071C0FDF758FE002800D00124204638BD0000EF
S315080071D0A60F0000DF0700000146002903DB0F2980
S315080071E001DC012018E0102903DB4F2901DC02200D
S315080071F012E0502903DB8F2901DC03200CE09029DB
S3150800720003DBBF2901DC042006E0D02903DBEF29D4
S3150800721001DC052000E0002070470000F8B50446B0
S315080072200E4600250020009000236A4617490120D3
S31508007230C00200F023FC0098000E1549087000985B
S315080072400002000E487000980004000E887000982E
S31508007250C87000236A46FD2189000120C00200F09B
S315080072600DFC0098000E0A49087100980002000EED
S31508007270487100980004000E88710098C8710A4683
S3150800728050212046FCF7B4FE2846F8BDF10300005D
S31508007290E8020020F8B504460E46002500200090B6
S315080072A000236A467D21C9000120C00200F0E6FBE2
S315080072B025490098087000236A4624490120C0021F
S315080072C000F0DCFB20490098487000236A461F49F5
S315080072D0491C0120C00200F0D1FB1B4900988870A8
S315080072E000236A461949891C0120C00200F0C6FB22
S315080072F015490098C87000236A461449091D0120DB
S31508007300C00200F0BBFB10490098087100236A46CA
S315080073100E49491D0120C00200F0B0FB0A49009839
S31508007320487100236A460949891D0120C00200F0F8
S31508007330A5FB0549009888710A4651212046FCF7A5
S3150800734057FE2846F8BD0000E8020020E9030000C1
S31508007350F8B504460E4600250020009000236A462C
S315080073601D490120C00200F089FB7D21C900009853
S31508007370FBF7A7FF00900098000E184908700098C0
S315080073800002000E487000980004000E88700098ED
S31508007390C87000236A461049491C0120C00200F043
S315080073A06DFB7D21C9000098FBF78BFF00900098C4
S315080073B0000E0A49087100980002000E48710098EC
S315080073C00004000E88710098C8710A4652212046AA
S315080073D0FCF70EFE2846F8BDF5030000E80200207B
S315080073E0F8B504460E4600250020009000236A469C
S315080073F01E490120C00200F041FB1D490098087093
S3150800740000236A46FF2189000120C00200F036FBEE
S3150800741017490098487000236A4614491331012019
S31508007420C00200F02BFB0098000E114988700098E6
S315080074300002000EC87000980004000E08710023B0
S315080074406A460A490A310120C00200F017FB009873
S315080074500004000E06494871009888710A465321AF
S315080074602046FCF7C5FD2846F8BD0000F3030000DA
S31508007470E8020020F0B58BB005460F46002600202E
S315080074800A9028216846FBF710FF002400BF1FE07A
S315080074902348211800230AAA0120C00200F0EEFAA8
S315080074A00A98010EA0006A4611540A980002010EB5
S315080074B0A000401C11540A980004010EA000801C6C
S315080074C011540A98C1B2A000C01C1154601CC4B261
S315080074D0082CDDDB00241EE007212046FBF7F1FE21
S315080074E0491C10486A46125D42540721601CFBF786
S315080074F0E8FE002901D01F2C0BD107212046FBF7F7
S31508007500E0FE401C074908700A4657212846FCF742
S315080075106FFD601CC4B2202CDEDB30460BB0F0BD1C
S31508007520FE030000E8020020F8B504460E460025D2
S315080075300020009000236A46412109010120C0026B
S3150800754000F09CFA00980004000E1B490870009889
S31508007550487000236A4619490120C00200F08EFAD5
S3150800756000980004000E144988700098C87000231B
S315080075706A4612490D390120C00200F07FFA0098C8
S315080075800004000E0C4908710098487100236A46E9
S315080075900A49491C0120C00200F070FA009800044C
S315080075A0000E054988710098C8710A465921204677
S315080075B0FCF71EFD2846F8BDE80200201E04000060
S315080075C0F8B504460E4600250020009000236A46BA
S315080075D01F490120C00200F051FA00980004000E6D
S315080075E01C4908700098487000236A468321C90020
S315080075F00120C00200F042FA00980004000E154966
S3150800760088700098C87000236A461149491C0120F1
S31508007610C00200F033FA00980004000E0D49087104
S315080076200098487100236A4609490F310120C002B3
S3150800763000F024FA00980004000E064988710098A4
S31508007640C8710A465A212046FCF7D2FC2846F8BDDE
S315080076500A040000E8020020F8B504460E46002594
S315080076600020009000236A461F490120C00200F04E
S3150800767005FA00980004000E1C4908700098487026
S3150800768000236A4618490E310120C00200F0F6F9B7
S3150800769000980004000E154988700098C8700023E9
S315080076A06A461149491C0120C00200F0E7F9009812
S315080076B00004000E0D4908710098487100236A46B7
S315080076C009490F310120C00200F0D8F900980004DA
S315080076D0000E064988710098C8710A465B21204643
S315080076E0FCF786FC2846F8BD0E040000E8020020D8
S315080076F0F8B504460E4600250020009000236A4689
S315080077002D490120C00200F0B9F92C4900980870EB
S3150800771000236A4628490E310120C00200F0AEF95E
S3150800772026490098487000236A462349491C0120C7
S31508007730C00200F0A3F921490098887000236A4620
S315080077401D490F310120C00200F098F91B49009825
S31508007750C87000236A461849891E0120C00200F035
S315080077608DF916490098087100236A4612490C31AA
S315080077700120C00200F082F91049009848710023E0
S315080077806A460D49491E0120C00200F077F90B49E7
S315080077900098887100236A4607490D310120C00206
S315080077A000F06CF905490098C8710A465C21204624
S315080077B0FCF71EFC2846F8BD15040000E802002068
S315080077C0F8B504460E4600250020009000236A46B8
S315080077D01F490120C00200F051F900980004000E6C
S315080077E01C4908700098487000236A4618490E31EB
S315080077F00120C00200F042F900980004000E154965
S3150800780088700098C87000236A461149491C0120EF
S31508007810C00200F033F900980004000E0D49087103
S315080078200098487100236A4609490F310120C002B1
S3150800783000F024F900980004000E064988710098A3
S31508007840C8710A465D212046FCF7D2FB2846F8BDDA
S315080078500C040000E8020020F8B504460E46002590
S315080078600020009000236A461B490120C00200F050
S3150800787005F900980004000E184908700098487029
S3150800788000236A46212149010120C00200F0F6F8CA
S3150800789000980004000E114988700098C8700023EB
S315080078A06A460D49491D0120C00200F0E7F80B4958
S315080078B00098087100236A46074913310120C0025F
S315080078C000F0DCF80549009848710A465E21204612
S315080078D0FCF78EFB2846F8BD12040000E8020020DB
S315080078E0F8B504460E4600250020009000236A4697
S315080078F010490120C00200F0C1F800980004000EEB
S315080079000D4908700098487000236A460949491CC1
S315080079100120C00200F0B2F800980004000E0649E3
S3150800792088700098C8700A465F212046FCF760FBFD
S315080079302846F8BDFA030000E8020020F8B5044618
S315080079400E4600250020009000236A4610490120B3
S31508007950C00200F093F800980004000E0D49087064
S315080079600098487000236A460949491C0120C0024C
S3150800797000F084F800980004000E06498870009804
S31508007980C8700A4660212046FCF732FB2846F8BD37
S3150800799026040000E802002070B505460E460024BD
S315080079A000BF1CE007212046FBF78BFC491C0E484C
S315080079B00E4A125D42540721601CFBF782FC00291F
S315080079C00BD107212046FBF77CFC401C06490870B2
S315080079D00A4662212846FCF70BFB601CC4B20E2C33
S315080079E0E0DB012070BD0000E8020020FE02002056
S315080079F070B505460E46002400BF1CE00721204648
S31508007A00FBF75FFC491C0E480E4A125D42540721DB
S31508007A10601CFBF756FC00290BD107212046FBF713
S31508007A2050FC401C064908700A4663212846FCF7A4
S31508007A30DFFA601CC4B20E2CE0DB012070BD00002A
S31508007A40E8020020F002002038B504460D4600235F
S31508007A506A4608490120C00200F010F80649009855
S31508007A600870012048700A4665212046FCF7C0FACE
S31508007A70012038BD2A040000E802002030B504467B
S31508007A80002A01D000D001D1002030BD012080029B
S31508007A90844205D1002B01D0012B01DD0020F4E73B
S31508007AA001208002201A42D00125AD02401B4ED18A
S31508007AB07D20C00081420BD343200001814207D2BA
S31508007AC07D20C000081A8000234D285810602DE03C
S31508007AD07D20000181420AD32048814207D27D20B9
S31508007AE00001081A80001E4D285810601EE01D4827
S31508007AF081420AD31B483130814206D21948081AF6
S31508007B008000194D2858106010E07D204001814200
S31508007B100AD31648814207D87D204001081A8000FA
S31508007B20134D2858106001E00020AEE711E000BFB1
S31508007B30362909D8581EDC2568430E4D40190D46CE
S31508007B40AD004059106001E000209EE701E00020EA
S31508007B509BE700BF012098E7640D0020F7070000A7
S31508007B60840E0020B80B0000200F0020C30F000071
S31508007B70E40F00207410002038B50024002000907F
S31508007B8000236A4607490120C002FFF777FF00F085
S31508007B9017FB002802D10098552800D10124204659
S31508007BA038BD0000F6070000F8B507460D4616462C
S31508007BB0002412E0E0000B49085CA8420BD1E00063
S31508007BC040184078012806D1E0004018314642683E
S31508007BD03846904703E0601CC4B2092CEADB00BFB4
S31508007BE0F8BD0000D4EE0008F8B507460D4616465F
S31508007BF0002412E0E0000B49085CA8420BD1E00023
S31508007C0040184078012806D1E000401831464268FD
S31508007C103846904703E0601CC4B2102CEADB00BF6C
S31508007C20F8BD000054EE00080146002010E083006D
S31508007C300A46FF325D32D258002A07D183000A4627
S31508007C40FF32F532D258002A00D17047421CD0B212
S31508007C502628ECDB00BFF8E7014600200EE083008B
S31508007C600A461C32D258002A06D183000A46303208
S31508007C70D258002A00D17047421CD0B22628EEDB23
S31508007C8000BFF8E700B585B00121C80401F020FD62
S31508007C90012040030390002168460174C17403A9BA
S31508007CA01148FEF731FF0121084601F041FD0D217B
S31508007CB0022002F05BF8012040030090002168468C
S31508007CC001711021417101218171FEF735FB0721F0
S31508007CD068460172002141720121817202A801F0F1
S31508007CE031F905B000BD000000080048F8B50646A1
S31508007CF00C46002000900025211268460170447049
S31508007D000B4800F09BF90123412269463046FCF7EF
S31508007D10C1F80546064800F091F90123422200A958
S31508007D2001313046FCF7B6F805402846F8BD000094
S31508007D308813000010B5012220210248FEF758FFDB
S31508007D4010BD000000040048F8B51C4600230025B5
S31508007D5000950E011A4FF619B55CEE17760F7619CF
S31508007D60F3100E01F619B55CEE17760F7619F610B4
S31508007D70F600AE1BF6B20096552C0FD18D0045596C
S31508007D800126964035438E0085510E4DED5C012740
S31508007D90009EB7403D430B4EF55410E0AA2C0ED179
S31508007DA08D00455901269640B5438E008551054DEF
S31508007DB0ED5C0127009EB740BD43024EF554F8BD61
S31508007DC00A0D00204C02002031B50024054800F0B9
S31508007DD035F90123402269460020FCF75BF8044682
S31508007DE0204638BD8813000000487047F215002069
S31508007DF000487047B215002000200449897B0A0212
S31508007E000249C97B511888B2704700006C150020DA
S31508007E1010B5002220210248FEF7EAFE10BD000038
S31508007E20000400481CB5002001900024009000239F
S31508007E3001AA7D21C9000120C002FFF71FFE00BF6D
S31508007E401DE01148005D052817DB104800F0F6F81C
S31508007E500E4800F0F3F80123702269462046FCF725
S31508007E6019F80A4800F0EAF8012371226946204603
S31508007E70FCF710F8002004490855601CC4B20198A4
S31508007E808442DEDB1CBD0000AB0300208813000023
S31508007E9010B506F063F810BD1CB510A00068019077
S31508007EA000200090002400236A467D21C900012095
S31508007EB0C002FFF7E3FD00BF0AE0094800F0BEF87C
S31508007EC00123EA2201A92046FBF7E4FF601CC4B29D
S31508007ED000988442F1DB01201CBD0000C0000000B0
S31508007EE08813000000B585B00121480401F0F0FBB5
S31508007EF0012003900021684601740221C17403A978
S31508007F000920C006FEF700FE0121084601F010FC14
S31508007F100021084601F02AFF01200090002168464A
S31508007F2001711021417101218171FEF705FA0521C0
S31508007F3068460172002141720121817202A801F08E
S31508007F4001F805B000BD00B585B00121480401F06F
S31508007F50BFFB012000030390002168460174C17429
S31508007F6003A90920C006FEF7CFFD0121084601F046
S31508007F70DFFB0C21002001F0F9FE01200003009030
S31508007F800021684601711021417101218171FEF7B6
S31508007F90D3F90721684601720021417201218172D5
S31508007FA002A800F0CFFF05B000BD00B585B00121DD
S31508007FB0480401F08DFB02200390002168460174F5
S31508007FC0C17403A90920C006FEF79EFD01210846D3
S31508007FD001F0AEFB0121002001F0C8FE022000904E
S31508007FE00021684601711021417101218171FEF756
S31508007FF0A3F90521684601720021417201218172A7
S3150800800002A800F09FFF05B000BD000070B5094C3E
S3150800801000250023224608490120C00203F05EF924
S3150800802000232A460449491C0120C00203F056F9D8
S3150800803070BD000030750000D207000000BF820046
S315080080408018002100E0491C8142FCD37047704724
S3150800805010B500240748FBF7C5FA00BF04210548F8
S31508008060FBF77CFA0028F9D00248FBF773FA0446B6
S31508008070204610BD0024014038B500240020009099
S31508008080FFF7E6FF04461F48844202DD1E480090BB
S3150800809020E01E48844202DD1D4800901AE01D4873
S315080080A0844202DD1C48009014E01C48844203DD2B
S315080080B07D20800100900DE01948844202DD1948B0
S315080080C0009007E01848844202DD1848009001E055
S315080080D0164800906B460022684601880420FCF783
S315080080E0B3F9642168460088FBF7EBF81049088065
S315080080F00023084602880749B0310120C00203F070
S31508008100EDF838BD4F0A000088130000C6080000C5
S315080081107017000044070000581B0000DA0500002D
S31508008120BB04000028230000BA0300001027000043
S31508008130B803002010B5002401210920C006FEF767
S315080081404DFD0446204610BD10B500240121090343
S315080081500920C006FEF742FD0446204610BD10B5AC
S31508008160002402210920C006FEF738FD04462046F1
S3150800817010BD000010B5002404210348FEF72EFDAB
S315080081800446204610BD00000004004810B5012131
S3150800819049030448FEF722FD002801D0002010BD3F
S315080081A00120FCE70008004810B510210920C00688
S315080081B0FEF714FD002801D0002010BD0120FCE7C1
S315080081C010B5002401210348FEF708FD04462046A1
S315080081D010BD0000000400481FB5012000210091D1
S315080081E001910346C204029103908103B14800F04D
S315080081F067F9B148FFF722FF01200021009101919C
S315080082000346C20402910390C103AA4800F058F934
S31508008210A948FFF713FF0020009001900290012360
S315080082209A0451120390A54800F04AF9A248FFF7AC
S3150800823005FF002002220090029003460192039057
S31508008240120401210920C00600F03AF90020009026
S315080082500190029001235A04202103900920C006A8
S3150800826000F02EF9002000900190029001239A0454
S3150800827020210390914800F023F9002000900190F6
S31508008280029001239A04911203908C4800F018F981
S31508008290002000900190029003460122D204911119
S315080082A00390844800F00CF9002000900190029099
S315080082B0034601225204102103900920C00600F04B
S315080082C0FFF8012003210022009203460192029141
S315080082D0039082040103794800F0F2F80120032193
S315080082E00022009203460192029103908204410300
S315080082F0724800F0E5F801200321002200920346A7
S31508008300019202910390820481036C4800F0D8F828
S315080083100120032100220092034601920291039054
S315080083208204C103654800F0CBF8002003210090C1
S31508008330019001239A040291039011125F4800F0FC
S31508008340BFF8002003210090019001239A040291AE
S315080083500390D111594800F0B3F80020009001901D
S31508008360029002231A04802103900920C00600F017
S31508008370A7F80020009001900290034601225204BB
S31508008380511103900920C00600F09AF800200090C9
S315080083900190029001235A04911103900920C00606
S315080083A000F08EF80020009001900290034601220A
S315080083B0920401210390414800F082F800200090C1
S315080083C00190029001239A04102103903B4800F083
S315080083D077F8002000900190029001235A0440216A
S315080083E003900920C00600F06BF800200090019069
S315080083F00290034601229204042103902F4800F0BC
S315080084005FF8002000900190029003460122520472
S31508008410022103900920C00600F052F800200090BF
S315080084200190029001239A0408210390234800F042
S3150800843047F8012000210091019103464204029168
S31508008440039001020920C00600F03AF80120002135
S3150800845000910191034642040291039041020920CA
S31508008460C00600F02DF80120002100910191034675
S3150800847042040291039081020920C00600F020F808
S31508008480002000900190029001239A040221039093
S315080084900A4800F015F800200222009002900346D0
S315080084A001920390120491100920C00600F008F802
S315080084B01FBD0000000800481027000000040048FF
S315080084C0FFB583B00D4616461C460C9F0121304663
S315080084D001F0FEF80195684604720E99417287729A
S315080084E069460D98C87201A90398FEF70DFB012C81
S315080084F004D129460F9A0398FEF77AFB07B0F0BD18
S315080085001FB50120002100910191034682040291C2
