S31508003000981E002079310008B997000855950008E0
S3150800301000000000000000000000000000000000A2
S315080030200000000000000000000000007DAC000861
S31508003030000000000000000099990008B5C90008C2
S31508003040A93100080000000019A70008A9310008E6
S31508003050A931000895640008A9640008F564000809
S3150800306000000000A9310008A9310008A9310008AC
S31508003070A9310008A9310008A9310008000000009C
S31508003080A9310008A9310008A9310008A9310008AA
S31508003090A9310008A9310008A9310008A93100089A
S315080030A0A9310008A9310008A93100086DCF000828
S315080030B03DD00008A931000800F002F800F030F809
S315080030C00CA030C8083824182D18A246671EAB462F
S315080030D054465D46AC4201D100F022F87E460F3ECA
S315080030E00FCCB6460126334200D0FB1AA246AB46A1
S315080030F03343184764CD000084CD00000023002424
S3150800310000250026103A01D378C1FBD8520700D310
S3150800311030C100D50B6070471FB51FBD10B510BD77
S3150800312000F075F91146FFF7F7FF0BF0A6FA00F065
S315080031308DF903B4FFF7F2FF03BC00F093F9000022
S3150800314070B505460C46164602E00FCC0FC5103E74
S31508003150102EFAD2082E02D303CC03C5083E042E3D
S3150800316007D301CC01C5361F03E021782970641CFA
S315080031706D1C761EF9D270BD0F4880F308880F487B
S315080031800168090E0E4A914205D10E480E490160A2
S315080031900E480F4901600F4880470F480047FEE771
S315080031A0FEE7FEE7FEE7FEE7FEE700000B480C49F0
S315080031B00C4A0D4B70470000981E002004000000C2
S315080031C01F00000018100240010000000000014026
S315080031D00000000029CA0008B93000089816002027
S315080031E0981E0020981A0020981A0020F8B5042A7C
S315080031F02CD3830712D00B78491C0370401C521E2F
S3150800320083070BD00B78491C0370401C521E83079A
S3150800321004D00B78491C0370401C521E8B079B0F69
S3150800322005D0C91ADF002023DE1B08C90AE0FFF70C
S3150800323087FFF8BD1D4608C9FD401C46B4402C430F
S3150800324010C0121F042AF5D2F308C91A521EF0D468
S315080032500B78491C0370401C521EEAD40B78491C93
S315080032600370401C012AE4D409780170F8BD01E016
S3150800327004C0091F0429FBD28B0701D50280801CD4
S31508003280C90700D00270704700290BD0C30702D0C7
S315080032900270401C491E022904D3830702D5028006
S315080032A0801C891EE3E70022EEE70022DFE7002202
S315080032B003098B422CD3030A8B4211D300239C4665
S315080032C04EE003460B433CD4002243088B4231D3DD
S315080032D003098B421CD3030A8B4201D394463FE071
S315080032E0C3098B4201D3CB01C01A524183098B42D1
S315080032F001D38B01C01A524143098B4201D34B01BA
S31508003300C01A524103098B4201D30B01C01A52411C
S31508003310C3088B4201D3CB00C01A524183088B42A3
S3150800332001D38B00C01A524143088B4201D34B008C
S31508003330C01A5241411A00D20146524110467047FE
S315080033405DE0CA0F00D04942031000D34042534003
S3150800335000229C4603098B422DD3030A8B4212D3C3
S31508003360FC22890112BA030A8B420CD389019211F5
S315080033708B4208D3890192118B4204D389013AD032
S31508003380921100E08909C3098B4201D3CB01C01A07
S31508003390524183098B4201D38B01C01A524143091A
S315080033A08B4201D34B01C01A524103098B4201D308
S315080033B00B01C01A5241C3088B4201D3CB00C01A75
S315080033C0524183088B4201D38B00C01A5241D9D28D
S315080033D043088B4201D34B00C01A5241411A00D20E
S315080033E00146634652415B10104601D34042002B0A
S315080033F000D54942704763465B1000D3404201B589
S315080034000020C046C04602BD7047704770477546E3
S3150800341000F024F8AE46050069465346C008C000C9
S31508003420854618B020B5FFF7C1FE60BC00274908DD
S31508003430B6460026C0C5C0C5C0C5C0C5C0C5C0C53E
S31508003440C0C5C0C5403D49008D46704710B5044605
S31508003450C046C0462046FFF76CFE10BD00487047C0
S315080034603816002001491820ABBEFEE726000200E8
S31508003470704770B58C180578401C6B075B0F01D137
S315080034800378401C2A1106D10278401C03E006780E
S31508003490401C0E70491C5B1EF9D12B0705D400236E
S315080034A0521E0DD40B70491CFAE70378401CCB1A40
S315080034B0921C03E01D780D70491C5B1C521EF9D541
S315080034C0A142D8D3002070BD10B50B460021846AEE
S315080034D01C43846200BF0C4614432146416110BD5B
S315080034E0002904D0826801231A43826003E08268B7
S315080034F002231A438260704710B504460548844281
S3150800350007D10121401506F07BFD0021601506F064
S3150800351077FD10BD0024014030B501460020002289
S3150800352000238C680125ED072C438C6000BF8C684E
S31508003530E30FDB07521C0F242403A24201D0002B01
S31508003540F5D18C68E40FE407002C01D1086C00E083
S31508003550002030BD0146086C80B2704730B502467F
S3150800356000200023012424060C40002C05D0946872
S3150800357001252D06AC43234600E013681C460C4083
S31508003580002C01D0012000E0002030BD10B500223B
S31508003590C268084B1A400C7964030B6823438C688D
S315080035A02343CC6823430C6923434C6923431A43BA
S315080035B0C26010BD03D2FFFF10B505F0C5F900289B
S315080035C006D007480078012108430549087005E038
S315080035D003480078FE2108400149087010BD000024
S315080035E08802002081680422114381607047002107
S315080035F0016001718160C16001614161704700002D
S31508003600FEB50020029001900024002500270090B6
S315080036100026002302AA7D21C9000120C00204F069
S31508003620E3FB00BF33E01C482118002301AA012050
S31508003630C00204F0D9FB002524E02C20604317497A
S31508003640411868002230085C01022C206043134AA6
S31508003650821868002330105C09180091009988B216
S3150800366005F038FD06460E498E4200DD0E466421F9
S315080036703046FFF726FE79000A4A5052781CC7B230
S31508003680681CC5B201988542D7DB601CC4B2029893
S315080036908442C8DBFEBD0000ED030000F8150020DB
S315080036A0744000008C020020FEB5002002900190B4
S315080036B00026002500270024002302AA7D21C90030
S315080036C00120C00204F090FB00BF5DE030482918D5
S315080036D0002301AA0120C00204F086FB05210198F7
S315080036E0081AC0B20090002749E02C2068432949EF
S315080036F041180098C01940000E30085C01022C20C1
S315080037006843244A82180098C01940000F30105C9C
S315080037100E18214870430001000C61001F4A5052E0
S3150800372060001146085A1E49884202DD08466100B3
S3150800373050521C48864202D01B48864212D11B486A
S31508003740005D401C194908550846005D0A2812DB29
S3150800375060001249085A6100154A50520020134960
S31508003760085508E060000D49085A6100104A505291
S3150800377000200E490855601CC4B2781CC7B20198CF
S315080037808742B2DB681CC5B2029885429EDBFEBD45
S31508003790E9030000F8150020701700002E16002017
S315080037A088130000FF0F0000FFFF000094020020AE
S315080037B02416002010B500220121C9030B4803F086
S315080037C00DFB1E200AF0F2FC01229103074803F0C4
S315080037D005FB1E200AF0EAFC0022012189030348A2
S315080037E003F0FCFA1E200AF0E1FC10BD00040048B4
S315080037F0F0B5A1B006460F46154600202090802158
S315080038006846FFF752FD00F07BF8362000F034F9E1
S3150800381006F07CFD002804D100F098F8002021B0BD
S31508003820F0BD384600F028F906F070FD002803D1EF
S3150800383000F08CF80020F2E700F062F8372000F07C
S315080038401BF906F063FD002803D100F07FF800207D
S31508003850E5E7002406E000F027F83055FFF7AAFF51
S31508003860601C84B2AC42F6DB00F01EF8209000F033
S315080038708BF800F06BF8372069460870002404E0DE
S31508003880315D601C6A46115484B2AC42F8DB681C90
S31508003890C1B2684600F0F4FF2099884201D00020A2
S315080038A0BDE70120BBE7000070B5002400F0EEFA82
S315080038B000251DE06006040E012291030F4803F05F
S315080038C08DFA1E200AF072FC0121C9030B4803F089
S315080038D07BFA012801DB0120044300220121890328
S315080038E0064803F07BFA1E200AF060FC681CC5B285
S315080038F0082DDFDB00F0DAFA204670BD0004004828
S3150800390010B501229103104803F068FA1E200AF048
S315080039104DFC0122D1030C4803F060FA1E200AF080
S3150800392045FC00220121C903074803F057FA1E2067
S315080039300AF03CFC002201218903034803F04EFAF1
S315080039401E200AF033FC10BD0004004810B5002202
S315080039500121C9030B4803F041FA1E200AF026FC90
S3150800396001229103074803F039FA1E200AF01EFCCB
S315080039700122D103034803F031FA1E200AF016FC8F
S3150800398010BD00000004004810B50122D1030C4800
S3150800399003F024FA1E200AF009FC012291030848C4
S315080039A003F01CFA1E200AF001FC002201218903FB
S315080039B0034803F013FA1E200AF0F8FB10BD0000B6
S315080039C000040048F0B5A1B005460F46164680210A
S315080039D001A8FFF76AFC00200090362168460171AD
S315080039E04771002405E0295DA01C01AA1154601C3A
S315080039F084B2B442F7DBB01CC1B201A800F040FFA4
S31508003A000090FFF77DFF362000F036F806F07EFCC2
S31508003A10002804D1FFF79AFF002021B0F0BD3846F0
S31508003A2000F02AF806F072FC002803D1FFF78EFF93
S31508003A300020F2E700240DE028786D1C00F01CF841
S31508003A4006F064FC002803D1FFF780FF0020E4E7B6
S31508003A50601C84B2B442EFDB009800F00DF806F063
S31508003A6055FC002803D1FFF771FF0020D5E7FFF7C3
S31508003A706DFF0120D1E7000070B50446002528E057
S31508003A808020264606406006040E802E05D10122B7
S31508003A90D103114803F0A2F905E000220121C90368
S31508003AA00D4803F09BF91E200AF080FB01229103C2
S31508003AB0094803F093F91E200AF078FB0022012139
S31508003AC08903054803F08AF91E200AF06FFB681C73
S31508003AD0C5B2082DD4DB70BD0004004810B500221D
S31508003AE0012149030B4803F079F91E200AF05EFB11
S31508003AF001221103074803F071F91E200AF056FB4C
S31508003B00002201210903034803F068F91E200AF080
S31508003B104DFB10BD00040048F0B5A1B006460F469F
S31508003B2015460020209080216846FFF7BEFB00F06E
S31508003B308BF8362000F044F906F00EFC002804D174
S31508003B4000F0A8F8002021B0F0BD384600F038F99A
S31508003B5006F002FC002803D100F09CF80020F2E7EA
S31508003B60284600F02DF906F0F7FB002803D100F0EF
S31508003B7091F80020E7E700F067F8372000F020F911
S31508003B8006F0EAFB002803D100F084F80020DAE703
S31508003B90002406E000F02CF83055FFF79FFF601C64
S31508003BA084B2AC42F6DB00F023F8209000F090F8DF
S31508003BB000F070F836216846017047708570372125
S31508003BC0C170002405E0315D201D6A461154601C51
S31508003BD084B2AC42F7DB281DC1B2684600F050FE3D
S31508003BE02099884201D00020ADE70120ABE700000C
S31508003BF070B5002400F06AF900251DE06006040E81
S31508003C00012211030F4803F0E9F81E200AF0CEFA44
S31508003C10012149030B4803F0D7F8012801DB0120ED
S31508003C200443002201210903064803F0D7F81E20A1
S31508003C300AF0BCFA681CC5B2082DDFDB00F056F99D
S31508003C40204670BD0004004810B501221103104833
S31508003C5003F0C4F81E200AF0A9FA012251030C4801
S31508003C6003F0BCF81E200AF0A1FA0022012149033C
S31508003C70074803F0B3F81E200AF098FA002201213B
S31508003C800903034803F0AAF81E200AF08FFA10BDAC
S31508003C900004004810B50022012149030B4803F02F
S31508003CA09DF81E200AF082FA01221103074803F044
S31508003CB095F81E200AF07AFA01225103034803F008
S31508003CC08DF81E200AF072FA10BD000000040048A4
S31508003CD010B5012251030C4803F080F81E200AF0A3
S31508003CE065FA01221103084803F078F81E200AF045
S31508003CF05DFA002201210903034803F06FF81E202C
S31508003D000AF054FA10BD000000040048F0B5A1B04E
S31508003D1005460F461646802101A8FFF7C6FA002079
S31508003D2000903621684601714771002405E0295D37
S31508003D30A01C01AA1154601C84B2B442F7DBB01C63
S31508003D40C1B201A800F09CFD0090FFF77DFF362068
S31508003D5000F036F806F000FB002804D1FFF79AFFBA
S31508003D60002021B0F0BD384600F02AF806F0F4FA33
S31508003D70002803D1FFF78EFF0020F2E700240DE0AC
S31508003D8028786D1C00F01CF806F0E6FA002803D126
S31508003D90FFF780FF0020E4E7601C84B2B442EFDB43
S31508003DA0009800F00DF806F0D7FA002803D1FFF7BF
S31508003DB071FF0020D5E7FFF76DFF0120D1E700006E
S31508003DC070B50446002528E0802026460640600691
S31508003DD0040E802E05D101225103114802F0FEFF80
S31508003DE005E00022012149030D4802F0F7FF1E20D5
S31508003DF00AF0DCF901221103094802F0EFFF1E2040
S31508003E000AF0D4F9002201210903054802F0E6FF69
S31508003E101E200AF0CBF9681CC5B2082DD4DB70BD8C
S31508003E2000040048F8B504460D4616461F4600200D
S31508003E300090002C06D13A4631462846FFF7D8FCB2
S31508003E40009007E0012C05D13A4631462846FFF78F
S31508003E5063FE00900098F8BDF8B504460D46164670
S31508003E601F4600200090002C06D13A4631462846C7
S31508003E70FFF7A8FD009007E0012C05D13A46314628
S31508003E802846FFF743FF00900098F8BD1CB50120AF
S31508003E90C0030090032168464171002101716946FB
S31508003EA0014802F027FF1CBD000400481CB501208C
S31508003EB0C0030090032168464171012101716946DA
S31508003EC0014802F017FF1CBD000400481CB501207C
S31508003ED0400300900321684641710021017169463B
S31508003EE0014802F007FF1CBD000400481CB501206C
S31508003EF0400300900321684641710121017169461A
S31508003F00014802F0F7FE1CBD0004004810B504463F
S31508003F1005210E480088401CFFF7D3F90C48008895
S31508003F20814212D0094909880D225143094A881845
S31508003F300D222146FFF75AF9052104480088401C3E
S31508003F40FFF7BFF988B20149088010BD5C0100205F
S31508003F505E0100205505002010B5044614211248BC
S31508003F600088401CFFF7ADF910480088814219D037
S31508003F70E078002801D10820E0700B4909880D2255
S31508003F8051430B4A88180D222146FFF72FF91421B1
S31508003F9005480088401CFFF794F988B20249088052
S31508003FA0012010BD0020FCE7580100205A0100201E
S31508003FB05104002070B586B005460E46144600200A
S31508003FC0029003900490059001200190002301AA15
S31508003FD02749C00203F008FF002D22D1A521684613
S31508003FE001720121417286720821C172217801731A
S31508003FF0617802A84171A1788171E178C17121794E
S31508004000017261794172A1798172E179C17202A85E
S315080040100FC806F053FA6946087502A800F0AAF810
S3150800402023E0012D21D1A5216846017201214172A3
S3150800403086720821C17221780173617802A84171DC
S31508004040A1788171E178C171217901726179417232
S31508004050A1798172E179C17202A80FC806F02EFA19
S315080040606946087502A8FFF777FF06B070BD00001D
S315080040702A04000010B5044611490988481CC10FD6
S31508004080091849104900411A0E4A1288914215D05A
S315080040900B490988FF22073251430B4A8818FF2229
S315080040A007322146FFF7A2F805490988481CC10FBF
S315080040B0091849104900411A014A118010BD00002B
S315080040C0AA010020AC0100206E0B002010B50446A2
S315080040D012490988481CC10F091849104900411A94
S315080040E00F4A1288914217D00C490988FF220732D5
S315080040F051430C4A8818FF2207322146FFF776F803
S3150800410006490988481CC10F091849104900411A6F
S31508004110024A1180012010BD0020FCE7A6010020FC
S31508004120A80100206209002010B5044605210E48A2
S315080041300088401CFFF7C5F80C480088814212D059
S31508004140094909880D225143094A88180D22214632
S31508004150FFF74CF8052104480088401CFFF7B1F822
S3150800416088B20149088010BD520100205401002080
S315080041701004002010B50446142112480088401C7B
S31508004180FFF79FF810480088814219D0E078002888
S3150800419001D10820E0700B4909880D2251430B4ACA
S315080041A088180D222146FFF721F8142105480088B2
S315080041B0401CFFF786F888B202490880012010BD26
S315080041C00020FCE74E010020500100200C030020CF
S315080041D07CB50024002500200190009000BFA1E0D6
S315080041E0062060436149085A6149884207D006207B
S315080041F060435E49085A5E49891C884216D10023E5
S3150800420001AA5C490120C00203F0EEFD002834D063
S315080042100198022831D106206043544A115A0023D6
S315080042201A460120C00208F051F879E006206043DA
S315080042304E49085A4E49491C884207D00620604311
S315080042404A49085A4A49C91C884216D1002301AA74
S3150800425048490120C00203F0C7FD00280DD0019887
S3150800426001280AD106206043404A115A00231A46FB
S315080042700120C00208F02AF852E0062060433B49B4
S315080042804018808800281CD0062060430A468018FB
S31508004290818800236A460120C00203F0A5FD002894
S315080042A000D13DE0009855280BD102200543062091
S315080042B060432E4A115A00230222900208F006F89B
S315080042C02EE00620604329494018408800281CD063
S315080042D0062060430A468018418800236A46012062
S315080042E0C00203F081FD002800D119E00098552886
S315080042F00BD101200543062060431C4A115A0023AE
S315080043000122D00207F0E2FF0AE006206043174ABE
S31508004310115A00231A460120C00207F0D7FF00BF32
S31508004320601C84B20C2C00D25AE7022028400028D0
S3150800433007D0002302220F490931900207F0C6FF71
S3150800434013E0E807C00F002807D000230122094917
S315080043500931D00207F0BAFF07E000231A460549DB
S3150800436009310120C00207F0B1FF7CBD64EF0008E7
S31508004370A20F0000D3070000FFB583B016461F46FC
S315080043800C9C00200290002F3FD02088B84203DA08
S315080043902088401C208000E027802088401E85B2A7
S315080043A006E0681E4000305A69007052681E85B2E1
S315080043B0002DF6DC03983080002506E06800315AA7
S315080043C0029808180290681C85B22088A842F5DC75
S315080043D0208841004018019021880298FEF767FF5F
S315080043E00198C017820F019810188010814203D9CE
S315080043F0218802980818029021880298FEF757FF2C
S315080044000290029881B20498018007B0F0BD0000BE
S31508004410F8B505460E4614461F46012D06D0022D50
S3150800442011D0032D1CD0042D2CD122E06000164992
S3150800443040180090A00015490A580323394630460B
S31508004440FFF79AFF1EE06000114940180090A0008F
S3150800445010490A58022339463046FFF78DFF11E006
S315080044600D4805230D4A394600903046FFF784FF6C
S3150800447008E00B4802230B4A394600903046FFF7FE
S315080044807BFF00BF00BFF8BDF8020020F400002043
S31508004490100100200801002014010020020300205A
S315080044A01A0100201601002010B50AF0AFFC04F02E
S315080044B007FA002804D003480078401C0149087010
S315080044C010BD0000C60000201FB500200090019016
S315080044D0029003900E4800880E490988884215D034
S315080044E00B4800880D2250430B4A81180D22684656
S315080044F0FEF77CFE684600F0A7F905210448008807
S31508004500401CFEF7DEFE88B2014908801FBD000088
S315080045105E0100205C010020550500201FB5002023
S315080045200090019002900390124800881249098869
S3150800453088421ED01148007800281AD101200F4958
S3150800454008700C4800880D2250430D4A81180D2228
S315080045506846FEF74BFE684609F002FC012808D1BA
S31508004560142104480088401CFEF7ABFE88B20149B6
S3150800457008801FBD5A010020580100206001002054
S3150800458051040020F8B500240025002000900026DC
S3150800459000236A467D21C9000120C00203F024FCDD
S315080045A00098C5B2AA201449087000BF00BF19E0D8
S315080045B0A0001249085800280BD0A0000A46105A35
S315080045C081B2204603F05CFD55200B490870012690
S315080045D006E0A000094A105A81B2204603F050FDB1
S315080045E0601CC4B2AC42E3DB012332463521980293
S315080045F007F06CFEF8BD0000280100201C01002011
S31508004600F0B585B00020039002900027002500260B
S3150800461001900090002443480088401C80B241491C
S3150800462008804B21C900884206DB00203E490870F5
S315080046304B20C0003B4908803B480078012801D13F
S3150800464005B0F0BD39480078012800D1F8E7002305
S3150800465002AA37490120C00203F0C6FB029F0023C5
S3150800466002AA3F2149010120C00203F0BDFB029DB9
S31508004670002302AA2E49891C0120C00203F0B4FBBC
S31508004680029E002302AA412109010120C00203F06B
S31508004690ABFB02980190002303AA25490C39012097
S315080046A0C00203F0A1FB0398012803D02148007833
S315080046B001280DD15F2E07DA19208001854203DB18
S315080046C001201D49087006E002201B49087002E017
S315080046D002201949087000F0ABF91748007801283C
S315080046E019D000236A467D21C9000120C00203F0C3
S315080046F07BFB002405E00021204603F0C1FC601C7A
S31508004700C4B200988442F6DB0123002235219802C0
S3150800471007F0DCFD94E700F0C3F8FFF733FF00BFAE
S315080047208EE70000320100202A0100202E01002019
S31508004730DF0700003501002029010020FEB50546E7
S3150800474000240026002002900027019000900023F4
S3150800475002AA7D21C9000120C00203F045FB029888
S31508004760C6B200BF0DE0002D05D00020C043A10051
S315080047702B4A505003E00020A100294A5050601CE3
S31508004780C4B2B442EFDB00240AE0002D03D0FF20B8
S315080047902449085502E0002022490855601CC4B285
S315080047A0082CF2DB20480570002D2BD0002426E0CB
S315080047B01E482118002302AA0120C00203F014FB98
S315080047C002983F181A480078B8420BDC1848017856
S315080047D00198814206DD164801780198081A80B2C8
S315080047E0009001E00020009001970098401E0122E9
S315080047F0824091B2204603F043FC601CC4B2B44226
S31508004800D6DB09E0002405E00021204603F038FC49
S31508004810601CC4B2B442F7DB002006490880FEBD1E
S315080048201C010020200100202A010020E9030000C5
S315080048302B0100203201002002480078401C014963
S3150800484008707047F001002010B50446607880288B
S3150800485007D1012009490870A178221D05F068F8DA
S3150800486007E06078402804D1A178221D012005F0D0
S315080048705FF800200149087010BD00005A020020A8
S3150800488010B50246002006E013784340034CE05C6E
S31508004890521C4B1ED9B20029F6DC10BD34FC0008A8
S315080048A0F0B59BB000240025002600201A900027AA
S315080048B0199018901790AA20169000201590149019
S315080048C01390129014210DA8FEF7EFFC00200C900F
S315080048D00B9000230BAA7D21C9000120C00203F01A
S315080048E083FA0B98C0B2159000230BAA4E490120F3
S315080048F0C00203F079FA0B98149000230BAA4A49D0
S31508004900491C0120C00203F06FFA0B98139000238C
S315080049100BAA3F2149010120C00203F065FA0B9852
S3150800492080B2189001A806F073FC142201A906A803
S31508004930FEF706FC00BF71E0680006A9085A0C904D
S3150800494014990C98884263D33748113829180023DC
S315080049500BAA0120C00203F047FA0B98C6B2052E2F
S3150800496001DC002E01D11BB0F0BD002417E006F0D3
S3150800497059FC1799490040186100405A19901421AA
S3150800498069430DAA8918A200199888521420684309
S315080049900DA94018A10040188470601CC4B2B44226
S315080049A0E5DB142169430DAA8818314609F0F0FAA7
S315080049B0701EC4B22AE0142068430DA94018A1004D
S315080049C0401880781A90142068430DA94018A10051
S315080049D0415A18980F1A139887420BD31420684324
S315080049E00DA94018A100415A1498814202D35520B6
S315080049F0169001E0AA2016901A98129029460B489C
S31508004A00169B129A03F078FB601CC4B2B442D2DB40
S31508004A1017988019C0B21790681CC5B215988542B8
S31508004A208ADB00BF9FE70000FA0300001C01002094
S31508004A3038B5002400250020009000236A467D2111
S31508004A40C9000120C00203F0CFF90098C5B200BF23
S31508004A5005E00020A100084A5050601CC4B2AC42D0
S31508004A60F7DB002404E0002004490855601CC4B2A2
S31508004A70082CF8DB38BD00001C01002020010020AE
S31508004A8010B500F071FA10BD7CB500200190002425
S31508004A900025009000236A463E490120C00203F023
S31508004AA0A3F90098002800D07CBD002301AA3A4942
S31508004AB00120C00203F098F938480078401C3749AD
S31508004AC00870084600781E2803DC0198401C0190EF
S31508004AD006E032480078642802DB00202F49087077
S31508004AE02F49097889002F4A019850500A212C48E5
S31508004AF00078401CFEF7E5FBC8B2294908702A4928
S31508004B00019888422EDA01980C1A2848844201DD59
S31508004B100024C9E725462648006800280AD1254802
S31508004B200068234908600023234A24490120C0025B
S31508004B3003F05AF9204909681F22520151430846D1
S31508004B407D21C900FEF7BDFB1A490968884204DDC4
S31508004B501B48006840191A4908601A480068001975
S31508004B601849086010490198884211DD0198441ACD
S31508004B700E48844201DD002496E725461048006861
S31508004B80401B0F4908601048006800190E49086064
S31508004B9000BF89E7BF0F0000D207000030020020DF
S31508004BA024020020A40D002030750000A08C00000F
S31508004BB028020020FC0100202C020020F10300003E
S31508004BC00C0200201C02002020020020FEB506462A
S31508004BD00C4600250020029001900090012E04D07A
S31508004BE0022E28D0032E78D18FE000205B4908805A
S31508004BF05B4908805B4800685B49884218DC59486D
S31508004C00006859493C39884212DB0120019000238B
S31508004C105448564902680120C00207F057FB51481C
S31508004C20008800B24D49088001205149087001E00A
S31508004C30002001908EE04E480078012802D000201E
S31508004C40019087E04748016820461E30814259DCBA
S31508004C503C3844490968884254DC0120019041489F
S31508004C60008800B23E4908803F481E38844202DB6D
S31508004C70201A009003E03C481E38001B0090384973
S31508004C800020085E354900228A5E90420EDD344BCC
S31508004C9000229A5E0B460027DF5FD11B6423009A29
S31508004CA05A431046FEF703FB05461AE02C49002036
S31508004CB0085E2A4900228A5E90420FDA0B460022D5
S31508004CC09A5E274B0027DF5FD11B6423009A5A435D
S31508004CD01046FEF7ECFA054603E03AE0002001909C
S31508004CE038E000232A468121C9000120C00207F0C6
S31508004CF0EDFA002803D002201D49087004E00020C0
S31508004D00019001E00020019024E01948007802286B
S31508004D1002D0002001901DE0002302AA15490120B7
S31508004D20C00203F061F82046029909F046FA0746E0
S31508004D300D491E39204609F040FAC008874205D2B7
S31508004D400120019000200A49087001E00020019026
S31508004D5000E000BF00BF0198FEBD00003A01002038
S31508004D603C010020F40100204E75000007040000F5
S31508004D703E010020D207000008B525480090002310
S31508004D806A4624490120C00203F02EF820490A3950
S31508004D900098884211DA20480088401C1E4908807D
S31508004DA0084600880A2804DD01201C4908701C49A9
S31508004DB0087000201B49088015E01A480088401C26
S31508004DC01849088008460088322802DD0020134961
S31508004DD008700020104908800D490098884202DDB5
S31508004DE000200F49087002F00DFB01280ED10B4870
S31508004DF0007801280AD17D20C00007F0CFFB0020EB
S31508004E0006490870074908800349088008BD00005C
S31508004E1030750000D2070000480100204C01002030
S31508004E20350100204A01002010B501F035F901F0DE
S31508004E30EBF810BD38B5054600240020009000BFE9
S31508004E4040E0062060432149085AA84238D1062086
S31508004E50604340188088002814D0062060430A461C
S31508004E608018818800236A460120C00202F0BCFF30
S31508004E70002800D138BD0098552801D10120F9E74E
S31508004E800020F7E7062060431049401840880028AC
S31508004E9014D0062060430A468018418800236A46D3
S31508004EA00120C00202F0A0FF002800D1E2E7009826
S31508004EB0552801D10120DDE70020DBE70020D9E7EE
S31508004EC0601C84B20C2CBCD30020D3E764EF000826
S31508004ED008B50020009000236A4610490120C00248
S31508004EE002F082FF0098002801D10D49087001F0F0
S31508004EF06FF9012803D1022009F0C8FB02E003205C
S31508004F0009F0C4FB09F0F8FB002803D0022009F0D9
S31508004F10E3F802E0032009F0DFF808BDEC0700001B
S31508004F203602002030B502460B460D4811E01478CB
S31508004F30521C604000210AE0C407E40F002C03D08D
S31508004F404010084C604000E040104C1CE1B20829B3
S31508004F50F2DB1C465D1EEBB2002CE8D130BD00002A
S31508004F60FFFF000001A0000010B5012000F03CF989
S31508004F70012000F079F8012000F008F800F0E2F8C6
S31508004F8000F096F9012000F051F910BDF0B587B090
S31508004F9007460020069005900025314E04903046BD
S31508004FA003900020029030460190012426E0234613
S31508004FB002AA2D210120800202F016FF234601AA2B
S31508004FC02E210120800202F00FFF029885B2019877
S31508004FD086B2012C05D1049503960120069005900A
S31508004FE00AE00498A84201DA049506940398B042A8
S31508004FF001DD0396059400BF601CC4B2BC42D6DD31
S31508005000002318490120C002049A07F05FF902AA92
S31508005010312101208002069B02F0E6FE0023114999
S31508005020891D0120C002029A07F050F900230D4994
S31508005030491C0120C002039A07F048F901AA322147
S3150800504001208002059B02F0CFFE0023FD21C90046
S315080050500120C002019A07F039F907B0F0BD000037
S31508005060FFFF0000E1070000F0B587B00746002003
S31508005070069005900025314E049030460390002096
S31508005080029030460190012426E0234602AA2921EF
S315080050900120800202F0A8FE234601AA2A21012047
S315080050A0800202F0A1FE029885B2019886B2012C10
S315080050B005D1049503960120069005900AE0049808
S315080050C0A84201DA049506940398B04201DD0396D6
S315080050D0059400BF601CC4B2BC42D6DD0023184943
S315080050E00120C002049A07F0F1F802AA2F21012034
S315080050F08002069B02F078FE00231149891D0120D3
S31508005100C002029A07F0E2F800233F214901012074
S31508005110C002039A07F0DAF801AA302101208002BA
S31508005120059B02F061FE00230549C91D0120C00246
S31508005130019A07F0CBF807B0F0BD0000FFFF0000AA
S31508005140DF0700007FB500240025002003900290A9
S3150800515001900090002303AA22490120C00202F010
S3150800516043FE002302AA3F2149010120C00202F0A2
S315080051703BFE02990398884203DD02990398401A78
S3150800518002E003990298401A84B200232246154980
S31508005190091D0120C00207F099F8002301AA114948
S315080051A0891C0120C00202F01FFE00236A460D4931
S315080051B0C91C0120C00202F017FE00990198884216
S315080051C003DD00990198401A02E001990098401AF7
S315080051D085B200232A460349491D0120C00207F06B
S315080051E075F87FBDDF070000F8B5054600270026DD
S315080051F00020009000240DE0601CC3B26A462621F8
S315080052000120800202F0F0FD009887B2F01986B2FC
S31508005210601CC4B2AC42EFDB0023324602490120CF
S31508005220C00207F053F8F8BDD1070000F0B585B005
S31508005230074600200390029000260190012421E0F1
S3150800524019482018411E002302AA0120C00202F0B4
S31508005250CBFD0298C0B2039000250EE02946203106
S31508005260234602AA0120800202F0BEFD0299019897
S3150800527040180190761C681CC5B203988542EDDB80
S31508005280601CC4B2BC42DBDD002E0BDD3146019842
S31508005290FEF717F800230246044900900120C002D1
S315080052A007F014F805B0F0BDED030000DE070000B6
S315080052B01CB50020019000BF0090002301AA0F49E9
S315080052C00120C00202F090FD00236A460B49491DE1
S315080052D00120C00202F088FD642201995143084664
S315080052E00099FDF7EEFF04460023224603490C31D8
S315080052F00120C00206F0EAFF1CBD0000D10700002D
S315080053007FB5FF215131FE48FDF7CDFF002302AAE4
S31508005310FC490120C00202F067FD0298C1B2039160
S3150800532020210391002412E02146012301AA9802B4
S3150800533002F05AFD01980004010E6000F04A11546B
S315080053400198C1B26000401C1154601CC4B2684682
S31508005350007B8442E8DB002302AAEA49491C0120B3
S31508005360C00202F041FD0298C1B2039108210391DF
S31508005370002414E021462031012301AA980202F0F4
S3150800538033FD01980004010E60004030DC4A1154D8
S315080053900198C1B2600041301154601CC4B268461D
S315080053A0007B8442E6DB002301AAD649491F012077
S315080053B0C00202F019FD01980004010ED0484030E1
S315080053C001740198C1B2CE4840304174002301AA45
S315080053D0CC49091F0120C00202F006FDCA490198FE
S315080053E0081A019001980004010EC54840308174DE
S315080053F00198C1B2C2484030C174002301AAC1490C
S3150800540013310120C00202F0EFFC01980004010EDE
S31508005410BB48403001750198C1B2B9484030417562
S31508005420002301AAB74909310120C00202F0DCFCB9
S3150800543001980004010EB248403081750198C1B246
S31508005440AF484030C175002301AA3F214901012018
S31508005450C00202F0C9FC01980004010EA8484030B9
S3150800546001760198C1B2A64840304176002301AAC8
S31508005470A4490B310120C00202F0B6FC01980004D1
S31508005480010E9F48403081760198C1B29C48403051
S31508005490C176002301AA9B490C310120C00202F003
S315080054A0A3FC01980004010E954840300177019845
S315080054B0C1B2934840304177002301AA9149C91ED9
S315080054C00120C00202F090FC01980004010E8C48ED
S315080054D0403081770198C1B289484030C1770023AE
S315080054E001AA8A490120C00202F07EFC00236A460E
S315080054F0844913310120C00202F076FC6421019828
S31508005500FDF7DFFE0099484305467D21C900FDF7F2
S31508005510D8FE019001980004010E794860300170A8
S315080055200198C1B2764860304170002301AA7549D6
S315080055300120C00202F058FC01980004010E7048D0
S31508005540603081700198C1B26D486030C170002327
S3150800555001AA6C49491C0120C00202F045FC0198C9
S315080055600004010E6648603001710198C1B26448B2
S3150800557060304171002301AA644908310120C00244
S3150800558002F032FC01980004010E5D48603081711A
S315080055900198C1B25A486030C171002001905C4838
S315080055A000785B4949780843594989780843584936
S315080055B0C97808435649097908435549497908433A
S315080055C0002803D00121019808430190019800049E
S315080055D0010E4B48603001720198C1B248486030EC
S315080055E04172002301AA4749C91C0120C00202F0E2
S315080055F0FBFB01980004010E414860308172019856
S31508005600C1B23F486030C172002301AAFB21C9001C
S315080056100120C00202F0E8FB01980004010E384898
S31508005620603001730198C1B2354860304173002378
S3150800563001AA3449C91D0120C00202F0D5FB019810
S315080056400004010E2E48603081730198C1B22C48BF
S315080056506030C173002301AA2A490D310120C00216
S3150800566002F0C2FB01980004010E2548603001745F
S315080056700198C1B2224860304174002301AA214929
S31508005680491F0120C00202F0AFFB002302AA1D49F0
S31508005690091F0120C00202F0A7FB1E490298884292
S315080056A003DB0298401A029003E01A490298081A86
S315080056B00290029A0199514308466421FDF701FEBA
S315080056C0019001980004010E0D486030817401981C
S315080056D0C1B20B486030C1740F4841780848603041
S315080056E001750D4801780648603041750A48C17849
S315080056F003486030817508488178014860300DE0BC
S315080057000C070020D607000060EA0000F10300003D
S315080057102001002030750000E8010020C175FE4810
S315080057204179FE480176FC480179FC484176FA48F9
S31508005730C179FA488176F8488179F848C176002017
S315080057400190F7480078002802D00120019001E076
S31508005750002001900020019001980004010EEF48F6
S3150800576081770198C1B2ED48C177002301AAED49B6
S315080057700120C00202F038FBEB48019001980004B2
S31508005780010EE648203001700198C1B2E348203086
S315080057904170002303AAE5490120C00202F024FB58
S315080057A00020019000240BE0DD4800780121A1408B
S315080057B00840002802D0601C019005E0601CC4B2B5
S315080057C06846007B8442EFDB00BF00200190019809
S315080057D00004010ED148203081700198C1B2CF482B
S315080057E02030C170002302AACE4921390120C00207
S315080057F002F0FAFA0298C1B203911021039100242B
S3150800580001E0601CC4B26846007B8442F9DB0023D1
S3150800581001AAC64908310120C00202F0E5FA64214E
S315080058200198FDF74EFD019001980004010EBB4852
S31508005830403081730198C1B2B8484030C173002323
S3150800584001AAFD2189000120C00202F0CDFA0198C3
S315080058500004010EB148403001740198C1B2AF4846
S3150800586040304174002301AA7D21C9000120C002ED
S3150800587002F0BAFA01980004010EA8484030817473
S315080058800198C1B2A5484030C174002301AAA749AE
S315080058900120C00202F0A8FA01980004010E9F48F0
S315080058A0403001750198C1B29C48403041750023CB
S315080058B001AA9E49491C0120C00202F095FA0198E6
S315080058C00004010E9548403081750198C1B293488D
S315080058D04030C175002301AA9449891C0120C002E1
S315080058E002F082FA01980004010E8C4840300176D5
S315080058F00198C1B2894840304176002301AA8B49F4
S31508005900091D0120C00202F06FFA01980004010E79
S315080059108248403081760198C1B280484030C176CD
S31508005920002301AA8149491D0120C00202F05CFA40
S3150800593001980004010E7948403001770198C1B2F8
S31508005940764840304177002301AA7849891D01200D
S31508005950C00202F049FA01980004010E6F4840306F
S3150800596081770198C1B26D484030C177002301AAFA
S315080059706E490A310120C00202F036FA0198000485
S31508005980010E6648603001700198C1B26348603004
S315080059904170002301AA654914310120C00202F0B2
S315080059A023FA01980004010E5C4860308170019862
S315080059B0C1B25A486030C170002301AA41210901C9
S315080059C00120C00202F010FA01980004010E5348A3
S315080059D0603001710198C1B25048603041710023AE
S315080059E001AA524935310120C00202F0FDF9019899
S315080059F00004010E4948603081710198C1B24748D8
S31508005A006030C171002301AA484928310120C0022B
S31508005A1002F0EAF901980004010E4048603001726C
S31508005A200198C1B23D4860304172002301AA3F493E
S31508005A3036310120C00202F0D7F901980004010EA0
S31508005A403648603081720198C1B234486030C172FC
S31508005A50002301AA354921310120C00202F0C4F908
S31508005A6001980004010E2D48603001730198C1B2F7
S31508005A702A4860304173002301AA8321C900012006
S31508005A80C00202F0B1F901980004010E2348603003
S31508005A9081730198C1B221486030C173002301AAFD
S31508005AA0224922310120C00202F09EF90198000421
S31508005AB0010E1A48603001740198C1B21748603067
S31508005AC04174002301AA194930310120C00202F0AD
S31508005AD08BF901980004010E104860308174019812
S31508005AE0C1B20E486030C174002301AA0F4925319E
S31508005AF00120C00202F078F901980004010E074857
S31508005B00603001750198C1B20448603041750023C0
S31508005B1001AA064933310BE0E80100206C07002092
S31508005B2020010020F707000030750000E903000097
S31508005B300120C00202F058F901980004010EFE483F
S31508005B4081750198C1B2FC48C175002301AAFB49B9
S31508005B500120C00202F048F901980004010EF64837
S31508005B6001760198C1B2F4484176002301AAF349A7
S31508005B700E310120C00202F037F901980004010E27
S31508005B80ED4881760198C1B2EB48C176002301AA97
S31508005B90EA49891D0120C00202F026F9019800048D
S31508005BA0010EE54801770198C1B2E3484177002321
S31508005BB001AAE24914310120C00202F015F9019840
S31508005BC00004010EDC4881770198C1B2DA48C17732
S31508005BD0002301AAD949C91D0120C00202F004F90F
S31508005BE001980004010ED448203001700198C1B212
S31508005BF0D14820304170002301AAD049153101202F
S31508005C00C00202F0F1F801980004010ECA482030DB
S31508005C1081700198C1B2C8482030C170002301AA1A
S31508005C20C649091D0120C00202F0DEF801980004E9
S31508005C30010EC148203001710198C1B2BE4820301A
S31508005C404171002301AABD4912310120C00202F0A8
S31508005C50CBF801980004010EB748203081710198ED
S31508005C60C1B2B5482030C171002301AAB349491D04
S31508005C700120C00202F0B8F801980004010EAE48EF
S31508005C80203001720198C1B2AB482030417200231E
S31508005C9001AAAA4913310120C00202F0A5F8019809
S31508005CA00004010EA448203081720198C1B2A248AE
S31508005CB02030C172002301AAA049C91C0120C002D4
S31508005CC002F092F801980004010E9B4820300173F7
S31508005CD00198C1B2984820304173002301AA2121B6
S31508005CE049010120C00202F07FF801980004010E64
S31508005CF09148203081730198C1B28F482030C17312
S31508005D00002301AA8D4908310120C00202F06CF86F
S31508005D1001980004010E8848203001740198C1B228
S31508005D20854820304174002301AA84491631012090
S31508005D30C00202F059F801980004010E7E4820308E
S31508005D4081740198C1B27C482030C174002301AA2D
S31508005D507A4915390120C00202F046F80198000474
S31508005D60010E7548203001750198C1B2724820307D
S31508005D704175002301AA714914390120C00202F0B5
S31508005D8033F801980004010E6B482030817501989C
S31508005D90C1B269482030C175002301AA68490120AB
S31508005DA0C00202F021F80198552802D1002001907E
S31508005DB001E00120019001980004010E5E482030A0
S31508005DC001760198C1B25C4820304176002301AAC9
S31508005DD05B49491C0120C00202F006F801985528C3
S31508005DE002D10020019001E00120019001980004F1
S31508005DF0010E5148203081760198C1B24E482030B4
S31508005E00C176002301AA4E490C390120C00201F0CF
S31508005E10EBFF01980004010E4748203001770198EE
S31508005E20C1B2454820304177002301AA43491C31B5
S31508005E300120C00201F0D8FF01980004010E3E4877
S31508005E40203081770198C1B23B482030C1770024C1
S31508005E500AE00D20001B3B49095CE01DF930364A73
S31508005E60C03A1154601CC4B20E2CF2DB00240BE0BD
S31508005E700D20001B3449095C2046FF3011302E4A9C
S31508005E80C03A1154601CC4B20E2CF1DB002426E083
S31508005E902A4811382118002301AA0120C00201F05E
S31508005EA0A3FF0198010EA000FF302130224AC03A14
S31508005EB0115401980002010EA000FF30223011543F
S31508005EC001980004010EA000FF30233011540198F8
S31508005ED0C1B2A000FF3024301154601CC4B2082C93
S31508005EE0D6DB002301AA15491D310120C00201F0A5
S31508005EF07BFF01980004010E0F488030017001985D
S31508005F00C1B20D4880304170002301AA0B491E31E9
S31508005F100120C00201F068FF01980004010E06483E
S31508005F20803081700198C1B203488030C170002367
S31508005F3001AA02491F3109E0CC0700200F0400001E
S31508005F40F5070000D2010020C40100200120C0028C
S31508005F5001F04AFF01980004010E294801710198D1
S31508005F60C1B227484171002301AA26490120C0026F
S31508005F7001F03AFF0198010E21488171019800024B
S31508005F80010E1F48C17101980004010E1C480172D8
S31508005F900198C1B21A484172002301AA19491D394C
S31508005FA00120C00201F020FF01980004010E1448E8
S31508005FB081720198C1B21248C172002301AA11491F
S31508005FC02C310120C00201F00FFF01980004010ED8
S31508005FD00B4801730198C1B209484173002301AA0D
S31508005FE008492D310120C00201F0FEFE0198000487
S31508005FF0010E034881730198C1B20148C1737FBD80
S315080060004C0800200604000010B5002402F077FCB6
S315080060100446002C18D11C480078401C1A49087000
S3150800602008460078032812DD032008701748007810
S3150800603000280CD1002301221549D00206F046F9A2
S3150800604001201249087002E000200F490870002C50
S3150800605015D010480078401C0E490870084600788C
S3150800606003280FDD0320087000231A46084901207B
S31508006070C00206F02BF900200449087002E000204F
S315080060800449087010BD00004401002046010020A4
S31508006090ED0700004501002010B5002402F025FC9C
S315080060A00446002C18D11C480078401C1A49087070
S315080060B008460078032812DD032008701748007880
S315080060C000280CD1002301221549D00206F0FEF85B
S315080060D001201249087002E000200F490870002CC0
S315080060E015D010480078401C0E49087008460078FC
S315080060F003280FDD0320087000231A4608490120EB
S31508006100C00206F0E3F800200449087002E0002007
S315080061100449087010BD0000410100204301002019
S31508006120EC0700004201002070B506460D460948F6
S3150800613001F05CFF0446052C0ADAA1000548303058
S3150800614046500021A20014308150A00001490D508C
S31508006150204670BD4812002010B56421014805F09C
S315080061608FFA10BD15AB000810B5FF21F5310448AC
S3150800617005F086FA6421034805F082FA10BD00008E
S3150800618079B20008D141000810B56421064805F027
S3150800619077FA7D21C900054805F072FA7D21C90004
S315080061A0034805F06DFA10BD894A000855CD000868
S315080061B0F9C5000810B5012220210920C00600F003
S315080061C00DFE00200149087010BD00005601002090
S315080061D038B50020009000236A4628490120C002ED
S315080061E001F002FE26490098884201DD012038BDEB
S315080061F024480078002801D00020F8E700236A46E2
S315080062001E4923310120C00201F0EEFD00985528F1
S3150800621003D01D480078012801D10020E7E707F0E0
S3150800622061FD002801D00020E1E7002421E061009B
S31508006230164A505AFEF7FEFD012815D11448005D8E
S31508006240401C134908550846005D02280FDB02204A
S31508006250085560000D49085A0E49884202D10120A6
S31508006260084908700020C2E7002009490855601C43
S31508006270C4B2052CDBD30120B9E70000D207000021
S31508006280307500003602002038020020E2EF0008D0
S315080062904D020020A40F000038B50020009000230E
S315080062A06A4624490120C00201F09EFD2249009851
S315080062B0884201DA012038BD20480078002801D03C
S315080062C00020F8E701F00EFE002803D11C480078EC
S315080062D0012801D10020EEE707F004FD002801D0CF
S315080062E00020E8E7002421E06100164A505AFEF72C
S315080062F0A1FD012815D11448005D401C1249085516
S315080063000846005D02280FDB0220085560000D498B
S31508006310085A0E49884202D101200849087000200F
S31508006320C9E7002008490855601CC4B2052CDBD310
S315080063300120C0E7D20700003075000035020020B2
S3150800634038020020D8EF000848020020A50F0000F8
S3150800635008B50020009000236A4624490120C0029F
S3150800636001F042FD009801280DD102F027FF01280F
S3150800637009D100231A461D49C00205F0A7FF04F0FB
S31508006380E7F803F01BF80098A5280BD100231A4656
S3150800639016490120C00205F099FF0120144908702A
S315080063A003F00CF8009855280AD100231A460F491D
S315080063B00120C00205F08AFF04F0CAF802F0FEFFC9
S315080063C000236A4609492C390120C00201F00CFD58
S315080063D008490098884202D101200749087002F04E
S315080063E0C9F901200549087008BD00002904000004
S315080063F0A4020020FFFF0000C5000020A60200201E
S3150800640008B50020009000236A4610490120C00202
S3150800641001F0EAFC0098002801D10D490870FFF741
S315080064203BFF012803D1002008F030F902E00120E3
S3150800643008F02CF908F082F9002803D0002007F0AC
S315080064404BFE02E0012007F047FE08BDED070000FD
S31508006450350200201CB50120C002009003216846C1
S315080064604171002101716946014800F043FC1CBDD9
S31508006470000400481CB50120C002009003216846AC
S315080064804171012101716946014800F033FC1CBDC8
S315080064900004004810B5012000F03CF8022000F086
S315080064A039F802F003FE10BD10B5042000F032F8EA
S315080064B00D480078002813D00C480078042811DA13
S315080064C0FFF7EAFE01280DD102F0B2FD012002F025
S315080064D0E3FD042007F000FE05200549087001E0E9
S315080064E002F0E4FD10BD0000A6020020A80200206C
S315080064F0A702002010B5102000F00CF80120400378
S3150800650000F008F80120000300F004F802F0CEFDC0
S3150800651010BD0000014948617047000000040140B1
S31508006520002120498279002A35D00A461268036874
S315080065309A430B461A600A46526803689A430B4602
S315080065405A60027951180A6803681A430A60154A9C
S31508006550926803689A43134B9A601A46D26803688E
S315080065609A43104BDA604279102A0CD11A4692687F
S3150800657003681A430B4B9A601A46D26803681A4393
S31508006580084BDA600DE00749427951180A68036832
S315080065901A430A6005E0027951180A6803689A43A3
S315080065A00A6070470004014010B500220121C902A3
S315080065B0074800F013FC01229102054800F00EFC82
S315080065C0002201218902024800F008FC10BD0000E3
S315080065D000040048F8B505460E461746012007F0A0
S315080065E022FB00F089F8A02000F004F903F0DAFE97
S315080065F0002806D100F09AF8002007F014FB0020C6
S31508006600F8BD301200F0F6F803F0CCFE002806D1EB
S3150800661000F08CF8002007F006FB0020F0E7F0B247
S3150800662000F0E8F803F0BEFE002806D100F07EF878
S31508006630002007F0F8FA0020E2E700F05DF8A12054
S3150800664000F0D8F803F0AEFE002806D100F06EF888
S31508006650002007F0E8FA0020D2E700241BE000F04B
S3150800666025F828706D1C781EA04210D10122D1028F
S315080066700D4800F0B3FB012291020B4800F0AEFB77
S31508006680002201218902084800F0A8FB01E0FFF773
S315080066908BFF601C84B2BC42E1DB00F047F80020A7
S315080066A007F0C1FA0120ABE70004004870B50024E2
S315080066B0FFF7D0FE002517E06006040E01229102BE
S315080066C00C4800F08BFB0121C9020A4800F07CFB4C
S315080066D0012801DB01200443002201218902054823
S315080066E000F07CFB681CC5B2082DE5DBFFF7C2FE8F
S315080066F0204670BD0004004810B5012291020A48E0
S3150800670000F06CFB0122D102074800F067FB00226B
S315080067100121C902044800F061FB00220121890217
S31508006720014800F05BFB10BD0004004810B50022CC
S315080067300121C902064800F051FB012291020448D2
S3150800674000F04CFB0122D102014800F047FB10BDC6
S3150800675000040048F8B504460D461746012007F020
S3150800676062FAFFF7C9FFA02000F044F803F01AFE0A
S31508006770002806D1FFF7DAFF002007F054FA0020B8
S31508006780F8BD281200F036F803F00CFE002806D1F2
S31508006790FFF7CCFF002007F046FA0020F0E7E8B242
S315080067A000F028F803F0FEFD002806D1FFF7BEFF2B
S315080067B0002007F038FA0020E2E7002610E02078EB
S315080067C0641C00F017F803F0EDFD002806D1FFF76A
S315080067D0ADFF002007F027FA0020D1E7701C86B22B
S315080067E0BE42ECDBFFF7A2FF002007F01CFA0120EF
S315080067F0C6E7000070B5044600251FE0802026463F
S3150800680006406006040E802E05D10122D1020D48ED
S3150800681000F0E4FA05E000220121C902094800F067
S31508006820DDFA01229102074800F0D8FA0022012178
S315080068308902044800F0D2FA681CC5B2082DDDDBCF
S3150800684070BD0000000400481CB5002001905720C8
S315080068500090002301AA2F490120C00201F0C4FAC2
S3150800686000236A462C490120C00201F0BDFA0099AE
S315080068700198884215DB29480078401C274908708A
S31508006880002027490870254800781E2824DB1E208A
S3150800689022490870002301222249D00205F016FD7C
S315080068A01AE00198C01C0099884215DC1C4800783B
S315080068B0401C1B49087000201849087018480078C1
S315080068C01E2809DB1E201649087000231A4615499A
S315080068D00120C00205F0FAFC002301AA1149012093
S315080068E0C00201F081FA0198012809D1062007F0B3
S315080068F0F3FB0D480078202108430B49087008E08F
S3150800690009480078DF21084007490870072007F082
S31508006910E3FB1CBDF40700002B0400005402002012
S3150800692055020020AE0F00008802002070B504460C
S315080069300D46092D71D008DC2B0007F063F9097F95
S31508006940193858636F95B5D57F001A2D72D008DCB3
S315080069500A2D70D00B2D6FD00C2D6ED0172D6DD142
S3150800696037E1212D6BD0222D6AD0232DF7D162E194
S3150800697007F064F9002807D0B64800788008800038
S31508006980801CB449087011E0002C09D0B148007881
S3150800699080088000A107890F0843AE49087005E002
S315080069A0AC48007880088000AA4908704FE107F0D3
S315080069B067F9002807D0A74800780C2188430830D3
S315080069C0A449087012E0002C0AD0A24800780C21CD
S315080069D08843A1000C22114008439E49087005E02F
S315080069E09C4800780C2188439A4908702FE19948F9
S315080069F00078302188432101302211400843954907
S31508006A00087024E193480078C0218843A101C02278
S31508006A10114008438F49087019E185E007F006F927
S31508006A2000280ED08B48407880088000801C894951
S31508006A30487018E0D7E096E0B5E0BFE006E1E6E08A
S31508006A40F2E0002C09D08348407880088000A1072E
S31508006A50890F08437F49487005E07E4840788008DA
S31508006A6080007C494870F2E007F0E2F8002807D079
S31508006A70784840780C21884308307649487012E0F7
S31508006A80002C0AD0734840780C218843A1000C22B8
S31508006A90114008436F49487005E06E4840780C215C
S31508006AA088436C494870D2E007F0C4F8002807D03C
S31508006AB0684840783021884320306649487012E09B
S31508006AC0002C0AD0634840783021884321013022BF
S31508006AD0114008435F49487005E05E484078302118
S31508006AE088435C494870B2E007F0A6F8002807D04A
S31508006AF058484078C021884380305649487012E08B
S31508006B00002C0AD053484078C0218843A101C022EE
S31508006B10114008434F49487005E04E484078C02167
S31508006B2088434C49487092E007F0ACF8002807D033
S31508006B304848807880088000801C4649887011E0A3
S31508006B40002C09D04348807880088000A107890F67
S31508006B5008434049887005E03E48807880088000F0
S31508006B603C49887073E007F0B1F8002807D0394827
S31508006B7080780C21884308303649887012E0002C4A
S31508006B800AD0344880780C218843A1000C22114091
S31508006B9008433049887005E02E4880780C218843E0
S31508006BA02C49887053E02B4880783021884321018E
S31508006BB03022114008432749887048E025488078E4
S31508006BC0C0218843A101C022114008432149887089
S31508006BD03DE02048407940084000E107C90F0843D6
S31508006BE01C49487133E0002C0AD01A48407908211C
S31508006BF08843E1000822114008431649487105E018
S31508006C0014484079082188431249487100BF07F0A3
S31508006C103BF880000421084006460E4880798843E0
S31508006C2030430C49887112E00A4880790821884364
S31508006C30084988710BE007488079102188432101AB
S31508006C401022114008430349887100E000BF00BFC5
S31508006C5070BD0000E801002010B5214800780A2818
S31508006C6002DB00201E4908701D484078322804DBE4
S31508006C7006F02CF900201A4948701948C0781E28D1
S31508006C8002DB00201649C87015488078642802DBA4
S31508006C9000201349887012480079642804DB002014
S31508006CA00F4908710F4908700D484079642804DBBC
S31508006CB000200B4948710C490870094880796428F6
S31508006CC002DB0020064988710548C079642806DB7E
S31508006CD000200349C871054908700549087010BDA8
S31508006CE0E001002059020020560100206001002022
S31508006CF0A3010020F0B50A4600210023002400BFA6
S31508006D003DE001258D402B4615681D402C469C42CA
S31508006D1034D11579012D02D01579022D16D1856841
S31508006D204F000326BE40B543856055794E00B540F1
S31508006D30866835438560858801268E40B5438580FB
S31508006D40858896798E40B6B23543858005684F00AA
S31508006D500326BE40B543056015794E00B540066862
S31508006D6035430560C5684F000326BE40B543C56078
S31508006D70D5794E00B540C6683543C560491C10290B
S31508006D80BFD3F0BDF0B5002300244D07EE0E15461F
S31508006D90B5402B46CD10AE0005462035AD594E07F9
S31508006DA0F70E0F26BE40B543CE10B600074620376D
S31508006DB0BD51CD10AE003D46AD591D432C46CD10F4
S31508006DC0AD003E467451F0BD02460020138A0B40C2
S31508006DD0002B01D0012000E000207047002A01D0D6
S31508006DE0816100E0018570470246002108E08800BD
S31508006DF0054B1858904201D101207047481CC1B272
S31508006E000429F4D30020F8E7ACEF000838B50446A7
S31508006E100D460020009000236A4622490120C00240
S31508006E2000F0E2FF00980004000E1F490870009861
S31508006E30487000236A467D2109010120C00200F03E
S31508006E40D3FF00980004000E174988700098C87090
S31508006E5000236A461349491C0120C00200F0C4FFFA
S31508006E6012490098081A009000980004000E0E496E
S31508006E7008710098487100236A460A4918310120AA
S31508006E80C00200F0B1FF00980004000E06498871A0
S31508006E900098C8710A4690212046FDF78BF8012014
S31508006EA038BD0000D1070000BC01002060EA0000E0
S31508006EB038B504460D460020009000236A461C4952
S31508006EC00120C00200F090FF00980004000E194946
S31508006ED008700098487000236A461549891D0120E4
S31508006EE0C00200F081FF13490098887000236A46A3
S31508006EF03F2149010120C00200F076FF00980004F6
S31508006F00000E0C49C8700098087100236A460849A3
S31508006F10C91D0120C00200F067FF064900984871A4
S31508006F200A4691212046FDF745F8012038BD0000A4
S31508006F30DF070000BC01002038B504460D460020D6
S31508006F40009000236A4618490120C00200F04CFF51
S31508006F5016490098087000236A461349891D0120BE
S31508006F60C00200F041FF11490098487000236A46A4
S31508006F700D49491C0120C00200F036FF0B49009854
S31508006F80887000236A46FD21C9000120C00200F06E
S31508006F902BFF06490098C8700A4692212046FDF73D
S31508006FA009F8012038BD0000E1070000BC010020F7
S31508006FB07CB504460D46002001900090002301AAE6
S31508006FC026490120C00200F00FFF254901980870E4
S31508006FD0002301AA2149891D0120C00200F004FFEF
S31508006FE01F4901984870002301AAFB21C900012006
S31508006FF0C00200F0F9FE1A4901988870194800780D
S31508007000C870002301AA18490120C00200F0ECFE4E
S3150800701000236A46114916310120C00200F0E4FE39
S31508007020009A0199514308467D21C900FCF749F9A0
S3150800703001900198000E0A49087101980002000E95
S31508007040487101980004000E88710198C8710A46B3
S3150800705093212046FCF7AEFF01207CBDD307000034
S31508007060BC010020F0010020F103000038B50446F9
S315080070700D460020009000236A4626490120C002DA
S3150800708000F0B2FE24490098087000236A46214998
S31508007090491C0120C00200F0A7FE1F49009848704D
S315080070A000236A461B4916310120C00200F09CFEE7
S315080070B019490098887000236A4616491731012035
S315080070C0C00200F091FE14490098C8701348007871
S315080070D0087100236A4612490120C00200F084FEA6
S315080070E000980004000E0C49487100988871002326
S315080070F06A4608491E310120C00200F075FE06499D
S315080071000098C8710A4694212046FCF753FF0120CF
S3150800711038BD0000D6070000BC0100208802002008
S31508007120F903000070B586B005460E4600200390A8
S3150800713004900590029000240190002301AA284992
S315080071400120C00200F050FE012D05D12548007827
S31508007150012801D105200190002412E021460123CF
S3150800716002AA980200F040FE02980004000E610090
S3150800717003AA50540298C1B26000401C1154601C06
S31508007180C4B201988442E9DB002421E006212046A6
S31508007190FCF797F8491C144803AA125D42540621C5
S315080071A0601CFCF78EF8002904D001984000401EA8
S315080071B0A0420BD106212046FCF783F8401C0A4959
S315080071C008700A4695212846FCF7F4FE601CC4B2EE
S315080071D001984000A042D9DC012006B070BD00002D
S315080071E0D60700005A020020BC010020FEB505465D
S315080071F00E460020029001900024009000236A4663
S3150800720022490120C00200F0EFFD012D04D1022021
S3150800721000901F4801F0A6FA00240BE02146203111
S31508007220012301AA980200F0DFFD02A9019808557A
S31508007230601CC4B200988442F0DB002420E00721D9
S315080072402046FCF73EF8491C124802AA125D425431
S315080072500721601CFCF735F8002903D00098401E6A
S31508007260A0420BD107212046FCF72BF8401C094900
S3150800727008700A4696212846FCF79CFE601CC4B294
S3150800728000988442DBDB0120FEBD0000D707000022
S31508007290E0930400BC01002070B504460D46104872
S315080072A00078104908700E48407848700C48807875
S315080072B088700B48C078C870094800790871084872
S315080072C0407948710648807988710548C079C8713F
S315080072D00A4697212046FCF76DFE012070BD000086
S315080072E020010020BC01002070B504460D46104858
S315080072F00078104908700E48407848700C48807825
S3150800730088700B48C078C870094800790871084821
S31508007310407948710648807988710548C079C871EE
S315080073200A4698212046FCF745FE012070BD00005C
S31508007330E8010020BC010020F8B505460E460020ED
S315080073400090002421480078002803D00120204915
S31508007350087002E000201E49087000201C490870C9
S3150800736000236A461B490120C00200F03DFD1A4869
S31508007370009000980004000E15494870009888701F
S3150800738000236A4615490120C00200F02DFD0020A1
S315080073900F49C87000240BE00C4800780121A14071
S315080073A00840002803D0601C0949C87003E0641C23
S315080073B000988442F0D300BF00200549C8700A46E9
S315080073C099212846FCF7F6FD0120F8BD200100208A
S315080073D0BC010020F707000030750000E903000033
S315080073E00246002108E08800054B1858904201D152
S315080073F001207047481CC1B20429F4D30020F8E7DD
S31508007400BCEF000838B50020009000240F48FDF7AF
S3150800741011FD002803D106F011FC00280CD000232A
S315080074206A460B490120C00200F0DEFC4B218901A7
S315080074300098884200DA01247D204001FDF7FAFC15
S31508007440002800D00124204638BD0000A60F000001
S31508007450DF0700000146002903DB0F2901DC0120B4
S3150800746018E0102903DB4F2901DC022012E050291D
S3150800747003DB8F2901DC03200CE0902903DBBF29FD
S3150800748001DC042006E0D02903DBEF2901DC052016
S3150800749000E0002070470000F8B504460E460025B7
S315080074A00020009000236A4617490120C00200F018
S315080074B09BFC0098000E1549087000980002000E03
S315080074C0487000980004000E88700098C870002361
S315080074D06A46FD2189000120C00200F085FC00985B
S315080074E0000E0A49087100980002000E48710098BB
S315080074F00004000E88710098C8710A46502120467B
S31508007500FCF758FD2846F8BDF1030000BC01002031
S31508007510F8B504460E4600250020009000236A466A
S315080075207D21C9000120C00200F05EFC25490098B3
S31508007530087000236A4624490120C00200F054FC62
S3150800754020490098487000236A461F49491C0120B3
S31508007550C00200F049FC1B490098887000236A465F
S315080075601949891C0120C00200F03EFC1549009803
S31508007570C87000236A461449091D0120C00200F09C
S3150800758033FC10490098087100236A460E49491DC4
S315080075900120C00200F028FC0A490098487100231F
S315080075A06A460949891D0120C00200F01DFC0549EB
S315080075B0009888710A4651212046FCF7FBFC2846AC
S315080075C0F8BD0000BC010020E9030000F8B5044638
S315080075D00E4600250020009000236A461D4901201A
S315080075E0C00200F001FC7D21C9000098FBF769FE86
S315080075F000900098000E1849087000980002000EC6
S31508007600487000980004000E88700098C87000231F
S315080076106A461049491C0120C00200F0E5FB7D219D
S31508007620C9000098FBF74DFE00900098000E0A4925
S31508007630087100980002000E487100980004000EB8
S3150800764088710098C8710A4652212046FCF7B2FC98
S315080076502846F8BDF5030000BC010020F8B504462D
S315080076600E4600250020009000236A462349012083
S31508007670C00200F0B9FB22490098087000236A4648
S31508007680FF2189000120C00200F0AEFB1C490098CA
S31508007690487000236A46194913310120C00200F0D8
S315080076A0A3FB0098000E1649887000980002000E89
S315080076B0C87000980004000E087100236A460F4936
S315080076C00A310120C00200F08FFB00980004000E6A
S315080076D00B4948710098887100236A4643210901BD
S315080076E00120C00200F080FB05490098C8710A46CF
S315080076F053212046FCF75EFC2846F8BDF30300003C
S31508007700BC010020F0B58BB005460F4600260020C8
S315080077100A9028216846FBF7C8FD002400BF1FE031
S315080077202348211800230AAA0120C00200F05CFBA6
S315080077300A98010EA0006A4611540A980002010E22
S31508007740A000401C11540A980004010EA000801CD9
S3150800775011540A98C1B2A000C01C1154601CC4B2CE
S31508007760082CDDDB00241EE007212046FBF7A9FDD7
S31508007770491C10486A46125D42540721601CFBF7F3
S31508007780A0FD002901D01F2C0BD107212046FBF7AD
S3150800779098FD401C074908700A4657212846FCF7F9
S315080077A009FC601CC4B2202CDEDB30460BB0F0BDF1
S315080077B0FE030000BC010020F8B504460E4600256D
S315080077C00020009000236A46412109010120C002D9
S315080077D000F00AFB00980004000E1B490870009888
S315080077E0487000236A4619490120C00200F0FCFAD5
S315080077F000980004000E144988700098C870002389
S315080078006A4612490D390120C00200F0EDFA0098C7
S315080078100004000E0C4908710098487100236A4656
S315080078200A49491C0120C00200F0DEFA009800044B
S31508007830000E054988710098C8710A4659212046E4
S31508007840FCF7B8FB2846F8BDBC0100201E04000062
S31508007850F8B504460E4600250020009000236A4627
S315080078601F490120C00200F0BFFA00980004000E6C
S315080078701C4908700098487000236A468321C9008D
S315080078800120C00200F0B0FA00980004000E154965
S3150800789088700098C87000236A461149491C01205F
S315080078A0C00200F0A1FA00980004000E0D49087104
S315080078B00098487100236A4609490F310120C00221
S315080078C000F092FA00980004000E064988710098A4
S315080078D0C8710A465A212046FCF76CFB2846F8BDB3
S315080078E00A040000BC010020F8B504460E4600252F
S315080078F00020009000236A461F490120C00200F0BC
S3150800790073FA00980004000E1C4908700098487025
S3150800791000236A4618490E310120C00200F064FAB5
S3150800792000980004000E154988700098C870002356
S315080079306A461149491C0120C00200F055FA009810
S315080079400004000E0D4908710098487100236A4624
S3150800795009490F310120C00200F046FA00980004D8
S31508007960000E064988710098C8710A465B212046B0
S31508007970FCF720FB2846F8BD0E040000BC010020D9
S31508007980F8B504460E4600250020009000236A46F6
S315080079902D490120C00200F027FA2C4900980870EA
S315080079A000236A4628490E310120C00200F01CFA5D
S315080079B026490098487000236A462349491C012035
S315080079C0C00200F011FA21490098887000236A461F
S315080079D01D490F310120C00200F006FA1B49009824
S315080079E0C87000236A461849891E0120C00200F0A3
S315080079F0FBF916490098087100236A4612490C31AA
S31508007A000120C00200F0F0F91049009848710023DF
S31508007A106A460D49491E0120C00200F0E5F90B49E6
S31508007A200098887100236A4607490D310120C00273
S31508007A3000F0DAF905490098C8710A465C21204623
S31508007A40FCF7B8FA2846F8BD15040000BC0100206A
S31508007A50F8B504460E4600250020009000236A4625
S31508007A601F490120C00200F0BFF900980004000E6B
S31508007A701C4908700098487000236A4618490E3158
S31508007A800120C00200F0B0F900980004000E154964
S31508007A9088700098C87000236A461149491C01205D
S31508007AA0C00200F0A1F900980004000E0D49087103
S31508007AB00098487100236A4609490F310120C0021F
S31508007AC000F092F900980004000E064988710098A3
S31508007AD0C8710A465D212046FCF76CFA2846F8BDAF
S31508007AE00C040000BC010020F8B504460E4600252B
S31508007AF00020009000236A461B490120C00200F0BE
S31508007B0073F900980004000E184908700098487028
S31508007B1000236A46212149010120C00200F064F9C8
S31508007B2000980004000E114988700098C870002358
S31508007B306A460D49491D0120C00200F055F90B4956
S31508007B400098087100236A46074913310120C002CC
S31508007B5000F04AF90549009848710A465E21204610
S31508007B60FCF728FA2846F8BD12040000BC010020DC
S31508007B70F8B504460E4600250020009000236A4604
S31508007B8010490120C00200F02FF900980004000EE9
S31508007B900D4908700098487000236A460949491C2F
S31508007BA00120C00200F020F900980004000E0649E2
S31508007BB088700098C8700A465F212046FCF7FAF9D3
S31508007BC02846F8BDFA030000BC010020F8B50446B3
S31508007BD00E4600250020009000236A461049012021
S31508007BE0C00200F001F900980004000E0D49087063
S31508007BF00098487000236A460949491C0120C002BA
S31508007C0000F0F2F800980004000E06498870009803
S31508007C10C8700A4660212046FCF7CCF92846F8BD0C
S31508007C2026040000BC01002070B505460E46002457
S31508007C3000BF1CE007212046FBF743FB491C0E4802
S31508007C400E4A125D42540721601CFBF73AFB0029D5
S31508007C500BD107212046FBF734FB401C0649087068
S31508007C600A4662212846FCF7A5F9601CC4B20E2C08
S31508007C70E0DB012070BD0000BC010020D20100201D
S31508007C8070B505460E46002400BF1CE007212046B5
S31508007C90FBF717FB491C0E480E4A125D4254072192
S31508007CA0601CFBF70EFB00290BD107212046FBF7CA
S31508007CB008FB401C064908700A4663212846FCF75B
S31508007CC079F9601CC4B20E2CE0DB012070BD0000FF
S31508007CD0BC010020C401002038B504460D46002327
S31508007CE06A4608490120C00200F07EF80649009855
S31508007CF00870012048700A4665212046FCF75AF9A3
S31508007D00012038BD2A040000BC01002038B504460D
S31508007D100D4600236A4612490120C00200F064F8A5
S31508007D2010490098087000236A460D49891F0120EA
S31508007D30C00200F059F80B490098887000236A467B
S31508007D400749C91C0120C00200F04EF805490098F1
S31508007D5008710A4666212046FCF72CF9012038BD31
S31508007D6031040000BC01002038B504460D46002346
S31508007D706A4607490120C00200F036F8054900980E
S31508007D8008700A4667212046FCF714F9012038BD19
S31508007D9032040000BC01002038B504460D46002315
S31508007DA06A460F490120C00200F01EF80D490098E6
S31508007DB0087000236A460A494A310120C00200F0C9
S31508007DC013F800980004000E064948700098887059
S31508007DD00A4668212046FCF7EDF8012038BD000068
S31508007DE0E9030000BC01002030B50446002A01D092
S31508007DF000D001D1002030BD01208002844205D187
S31508007E00002B01D0012B01DD0020F4E701208002C0
S31508007E10201A42D00125AD02401B4ED17D20C0005C
S31508007E2081420AD32748814207D27D20C000081A1A
S31508007E308000254D285810602EE07D2000018142E3
S31508007E400BD3FF20C000814207D27D200001081A0B
S31508007E5080001E4D285810601EE01D4881420AD336
S31508007E601B483130814206D21948081A8000194D3C
S31508007E702858106010E07D20400181420AD3164838
S31508007E80814207D87D204001081A8000134D2858E2
S31508007E90106001E00020AEE711E000BF362909D8DE
S31508007EA0581EDC2568430E4D40190D46AD00405955
S31508007EB0106001E000209EE701E000209BE700BF7C
S31508007EC0012098E735040000440E0020780F0020B2
S31508007ED0B80B000018100020C30F0000DC100020AB
S31508007EE06C1100201CB5002400200190009000238E
S31508007EF001AA10490120C002FFF776FF00236A464F
S31508007F000D490120C002FFF76FFF00F01DFD002894
S31508007F100CD10198552809D000F0FCFC002806D1A0
S31508007F200098A52802D000985A2800D10124204696
S31508007F301CBD0000F607000034040000F8B507462B
S31508007F400D461646002412E0E0000B49085CA842DC
S31508007F500BD1E00040184078012806D1E00040180F
S31508007F60314642683846904703E0601CC4B20A2C82
S31508007F70EADB00BFF8BD0000B4F30008F8B5074611
S31508007F800D461646002412E0E0000B49085CA8429C
S31508007F900BD1E00040184078012806D1E0004018CF
S31508007FA0314642683846904703E0601CC4B2132C39
S31508007FB0EADB00BFF8BD00001CF3000801460020FC
S31508007FC010E083000A46FF325D32D258002A07D1F4
S31508007FD083000A46FF32F532D258002A00D170478C
S31508007FE0421CD0B22628ECDB00BFF8E70146002089
S31508007FF00EE083000A461C32D258002A06D18300B6
S315080080000A463032D258002A00D17047421CD0B2F4
S315080080102628EEDB00BFF8E700B585B00121C804C5
S3150800802001F0AEFF01204003039000216846017469
S31508008030C17403A91148FEF75DFE0121084601F047
S31508008040CFFF0D21022002F01BFE01204003009005
S315080080500021684601711021417101218171FEF7E5
S315080080605FFA072168460172002141720121817277
S3150800807002A801F0A3FB05B000BD000000080048F7
S315080080807CB505460C46002001900026009019484C
S31508008090291800236A460120C002FFF7A5FE0098AA
S315080080A0042802D16004040C04E00098032801D1D6
S315080080B0A004040CA005C10E68460171E106C90EAC
S315080080C041717D20C00000F04DFB0123072201A964
S315080080D02846FBF7C1FE06467D20C00000F042FB9D
S315080080E00123082201A901312846FBF7B5FE0640FF
S315080080F030467CBDE9030000F8B51C4600BF00BF4A
S315080081008E008E191B4FF619B55CEE17760F761989
S31508008110F3108E008E19F619B55CEE17760F7619E0
S31508008120F610F600AE1BF6B20096552C0FD18D0050
S3150800813045590126964035438E0085510E4DED5C16
S315080081400127009EB7403D430B4EF55410E0AA2C7C
S315080081500ED18D00455901269640B5438E008551AE
S31508008160054DED5C0127009EB740BD43024EF55410
S31508008170F8BD0000640200202001002031B500246B
S315080081807D20C00000F0EEFA012305226946002092
S31508008190FBF762FE0446204638BD000000487047DB
S315080081A08C0200200048704724160020002004494D
S315080081B0897A0A020249C97A511888B270470000BA
S315080081C0181600203EB5FEA0006802900020019017
S315080081D0009000240025002301AA7D21C900012062
S315080081E0C002FFF701FE00BF2BE000236A46F549EF
S315080081F00120C002FFF7F8FD0099143164225143AB
S315080082000846F149FBF75DF8009000980004000E57
S31508008210EE49087000984870084601782C2060439B
S31508008220EB4A8018C07A814207D1E84841782C2069
S3150800823060438018007B814201D0012504E0601C60
S31508008240C4B201988442D0DB00BFE2480078012816
S3150800825006D1002D04D1E0480078002800D13EBDA3
S315080082600120DC4908700020DB490870002301AAB8
S315080082707D21C9000120C002FFF7B6FD0024B8E140
S315080082807D20C00000F06EFA00210291012005F061
S31508008290C7FC0123032202A92046FBF7DDFD0020C7
S315080082A005F0BEFC6846017A0E206043CB4A80186A
S315080082B0C1706846017A0E206043C94A8018C170A9
S315080082C07D20C00000F04EFACF210291012005F072
S315080082D0A7FC0123042202A92046FBF7BDFD0020C6
S315080082E005F09EFC7D20C00000F03CFA4F2102916B
S315080082F06846017A0E206043B84A801801716846BC
S31508008300017A0E206043B64A80180171012005F0F3
S3150800831087FC0123042202A92046FBF79DFD0020C5
S3150800832005F07EFC7D20C00000F01CFA07210291B2
S31508008330FDF7B2FF012805D16946087A02210843EC
S31508008340029004E06946087AFD2108400290FDF78C
S315080083503FFF012805D16946087A012108430290A2
S3150800836004E06946087AFE21084002906846017AC8
S315080083700E206043994A801841716846017A0E209A
S315080083806043974A80184171012005F049FC012392
S31508008390052202A92046FBF75FFD002005F040FCF8
S315080083A07D20C00000F0DEF9F82102916846017AC6
S315080083B00E206043894A801881716846017A0E202A
S315080083C06043874A80188171012005F029FC012342
S315080083D0062202A92046FBF73FFD002005F020FCF7
S315080083E07D20C00000F0BEF9002102916846017A9E
S315080083F00E206043794A8018C1716846017A0E20BA
S315080084006043774A8018C171012005F009FC0123F1
S31508008410072202A92046FBF71FFD002005F000FCF5
S315080084207D20C00000F09EF9002102916846017A7D
S315080084300E206043694A801801726846017A0E2048
S315080084406043674A80180172012005F0E9FB0123A1
S31508008450082202A92046FBF7FFFC002005F0E0FBF6
S315080084607D20C00000F07EF9BA2102916846017AA3
S315080084700E206043594A801841726846017A0E20D8
S315080084806043574A80184172012005F0C9FB012351
S31508008490092202A92046FBF7DFFC002005F0C0FBF5
S315080084A07D20C00000F05EF9612102916846017ADC
S315080084B00E206043494A801881726846017A0E2068
S315080084C06043474A80188172012005F0A9FB012301
S315080084D00A2202A92046FBF7BFFC002005F0A0FBF4
S315080084E07D20C00000F03EF900236A463549012088
S315080084F0C002FFF779FC00991431642251430846FB
S315080085003149FAF7DEFE009000980004010E029148
