S31508004000504400200141000895C2000851BC000830
S3150800401091C20008D95000089D1A01080000000046
S3150800402000000000000000000000000005E600088F
S315080040300975000800000000E9C30008F9EF000848
S315080040401B4100081B4100081B410008B9D30008A2
S315080040501B4100081B410008C17900081B410008E4
S315080040601B410008457A0008537A00081B410008DE
S315080040701B4100081B4100081B4100081B410008A2
S315080040801B4100081B4100081B4100086F1A010864
S31508004090711A01081B4100081B410008617A0008D3
S315080040A01B4100081B4100081B4100081B41000872
S315080040B01B4100081B4100081B4100081B41000862
S315080040C01B4100081B4100081B4100081B41000852
S315080040D01B41000815130108C513010881140108BE
S315080040E0D1790008F5CF00081B410008DFF80CD08D
S315080040F000F03CF800480047ED370108504400201E
S315080041000648804706480047FEE7FEE7FEE7FEE763
S31508004110FEE7FEE7FEE7FEE7FEE7FEE7D50C010849
S31508004120ED40000840EA01039B0703D009E008C9EF
S31508004130121F08C0042AFAD203E011F8013B00F85E
S31508004140013B521EF9D27047D2B201E000F8012BAA
S31508004150491EFBD270470022F6E710B513460A46F9
S3150800416004461946FFF7F0FF204610BD064C074DDA
S3150800417006E0E06840F0010394E807009847103429
S31508004180AC42F6D3FFF7B6FFC4830108E4830108FF
S3150800419070B58C1810F8015B15F0070301D110F8FB
S315080041A0013B2A1106D110F8012B03E010F8016B28
S315080041B001F8016B5B1EF9D12B0705D40023521EAB
S315080041C00DD401F8013BFAE710F8013BCB1A921C13
S315080041D003E013F8015B01F8015B521EF9D5A14211
S315080041E0D8D3002070BD21B1826842F001028260F6
S315080041F003E0826822F001028260704710B5044627
S315080042001248844208D10121401508F029FC0021F2
S31508004210601508F025FC17E00D48844208D10121F5
S31508004220001508F01DFC0021201508F019FC0BE00C
S315080042300848844208D10121C80308F011FC00216E
S315080042404FF4004008F00CFC10BD000000240140AB
S3150800425000280140003C0140014600208A6802F01F
S3150800426004020AB1012000E0002070470146C86C2C
S3150800427080B270470246002013680B400BB101203C
S3150800428000E000207047014600208A6802F0080214
S315080042900AB1012000E000207047000030B5024650
S315080042A00020002350680F4C20400D790C6844EA22
S315080042B005242043506090680B4C2040D1E90254F5
S315080042C02C434D7944EA450420439060D06A20F493
S315080042D070000C7C641EE4B2234340EA0350D062AB
S315080042E030BD0000FFFEF0FFFDF7F1FF10B506F048
S315080042F0F1FB30B10E48007840F001000C49087017
S3150800430005E00B48007800F0FE000949087006F041
S31508004310EDFB30B10648007840F002000449087009
S3150800432005E00348007800F0FD000149087010BD5B
S315080043301B000020F0B504460D4600200021092D7B
S3150800434011DDE068A5F10A0606EB4607072606FA18
S3150800435007F18843A5F10A0606EB460603FA06F1B5
S315080043600843E0600CE0206905EB4507072606FAD6
S3150800437007F1884305EB450603FA06F10843206171
S31508004380072A0FDA606B561E06EB86071F2606FA03
S3150800439007F18843561E06EB860605FA06F108431A
S315080043A0606322E00D2A0FDA206BD61F06EB86071C
S315080043B01F2606FA07F18843D61F06EB860605FA76
S315080043C006F10843206310E0E06AA2F10D0606EB49
S315080043D086071F2606FA07F18843A2F10D0606EBA3
S315080043E0860605FA06F10843E062F0BD816841F0E9
S315080043F008018160704721B1826842F4A002826098
S3150800440003E0826822F4A00282607047816841F066
S31508004410040181607047000010B504461148008801
S31508004420401C142190FBF1F201FB12000E49098889
S31508004430884215D00B49098801EB810202EBC101BC
S315080044400A4A88180D222146FFF76CFE054800889F
S31508004450401C142190FBF1F201FB1200014908806F
S3150800446010BD0000B0040020B20400208420002003
S3150800447010B5044614480088401C1E2190FBF1F232
S3150800448001FB12001149098888421BD0E07808B957
S315080044900820E0700C49098801EB810202EBC10192
S315080044A00B4A88180D222146FFF73CFE064800886D
S315080044B0401C1E2190FBF1F201FB12000249088004
S315080044C0012010BD0020FCE7AC040020AE0400204B
S315080044D0FE1E002030B50F490988491C142291FB9D
S315080044E0F2F302FB13110C4A1288914211D00B49C0
S315080044F0084A128801EB021190E83C003CC10549C4
S315080045000988491C142291FBF2F302FB1311014A94
S31508004510118030BD9E040020A0040020341B00201A
S3150800452030B5014618480088401C1E2290FBF2F35D
S3150800453002FB1300154A1288904222D0087B08B95C
S31508004540082008730868B0F5006F02D9012088733F
S3150800455001E000208873002048730D480A4A128833
S3150800456000EB021091E83C003CC007480088401C5C
S315080045701E2290FBF2F302FB1300034A108001206F
S3150800458030BD0020FCE700009A0400209C040020AF
S315080045905419002010B5044611480088401C1421FF
S315080045A090FBF1F201FB12000E490988884215D0EA
S315080045B00B49098801EB810202EBC1010A4A8818F6
S315080045C00D222146FFF7AEFD05480088401C142140
S315080045D090FBF1F201FB12000149088010BD0000B2
S315080045E0BA040020BC0400200E23002010B504469F
S315080045F014480088401C1E2190FBF1F201FB1200B2
S315080046001149098888421BD0E07808B90820E0706B
S315080046100C49098801EB810202EBC1010B4A881893
S315080046200D222146FFF77EFD06480088401C1E2104
S3150800463090FBF1F201FB120002490880012010BD2F
S315080046400020FCE7B6040020B804002088210020DA
S3150800465070B58AB005460E461446002006900790A7
S31508004660089009900290039004900590012001900B
S31508004670002301AA40F24941C00205F0D5FC4DBB12
S31508004680A5208DF8180001208DF819008DF81A60FC
S3150800469008208DF81B0020788DF81C0061788DF8AD
S315080046A01D10A1788DF81E10E1788DF81F1021795C
S315080046B006A8017261794172A1798172E179C172A4
S315080046C006A80FC808F044FC8DF8240006A800F0D8
S315080046D009F97FE0022D29D1A5208DF818000120BF
S315080046E08DF819008DF81A6008208DF81B002078BF
S315080046F08DF81C0061788DF81D10A1788DF81E10B4
S31508004700E1788DF81F10217906A801726179417246
S31508004710A1798172E179C17206A80FC808F018FC60
S315080047208DF8240006A8FFF7A3FE53E0032D29D130
S31508004730A5208DF8180001208DF819008DF81A604B
S3150800474008208DF81B0020788DF81C0061788DF8FC
S315080047501D10A1788DF81E10E1788DF81F102179AB
S3150800476006A8017261794172A1798172E179C172F3
S3150800477006A80FC808F0ECFB8DF8240006A8FFF77A
S3150800478035FF27E0012D25D14FF0C05000EB06403C
S3150800479000F58040401C029008208DF8140020780F
S315080047A08DF80C0061788DF80D10A1788DF80E1033
S315080047B0E1788DF80F1021798DF8101061798DF850
S315080047C01110A1798DF81210E1798DF8131002A84D
S315080047D0FFF7A6FE0AB070BD10B50446114800885A
S315080047E0401C0A2190FBF1F201FB12000E490988D0
S315080047F0884215D00B49098801EB01110B4A02EBD7
S3150800480001104FF488722146FFF78CFC0548008892
S31508004810401C0A2190FBF1F201FB120001490880B5
S3150800482010BD0000080500200A050020AA35002052
S3150800483010B5044612480088401C0A2190FBF1F284
S3150800484001FB12000F490988884217D00C490988CC
S3150800485001EB01110C4A02EB01104FF48872214654
S31508004860FFF760FC06480088401C0A2190FBF1F21D
S3150800487001FB120002490880012010BD0020FCE758
S3150800488004050020060500200A2B002010B5044662
S3150800489011480088401C142190FBF1F201FB12001C
S315080048A00E490988884215D00B49098801EB81020F
S315080048B002EBC1010A4A88180D222146FFF732FC8D
S315080048C005480088401C142190FBF1F201FB1200F8
S315080048D00149088010BD0000A6040020A804002095
S315080048E0FA1D002010B5044614480088401C1E21F5
S315080048F090FBF1F201FB12001149098888421BD08E
S31508004900E07808B90820E0700C49098801EB8102B3
S3150800491002EBC1010B4A88180D222146FFF702FC5B
S3150800492006480088401C1E2190FBF1F201FB12008C
S3150800493002490880012010BD0020FCE7A2040020DF
S31508004940A4040020741C00207CB500240025002047
S315080049500190009000BFACE004EB4400664951F8B2
S31508004960200040F6A271884208D004EB4400624950
S3150800497051F8200040F6A471884217D1002301AAF5
S3150800498040F2D3714FF4006005F04EFBC0B30198B6
S31508004990022836D104EB4400574A52F82010002367
S315080049A01A464FF400600BF033FD80E004EB440038
S315080049B0514951F8200040F6A371884208D004EB0B
S315080049C044004D4951F8200040F6A571884218D197
S315080049D0002301AA40F2D3714FF4006005F024FBCE
S315080049E070B1019801280CD104EB4400424A52F8F0
S315080049F0201000231A464FF400600BF009FD56E01C
S31508004A00FFE704EB44003C4901EB80008068E8B10D
S31508004A1004EB44000A4602EB800000236A468168DC
S31508004A204FF4006005F000FB00B940E000985528F7
S31508004A300CD145F0020504EB44002F4A52F8201029
S31508004A400023022290020BF0E3FC30E004EB440062
S31508004A50294901EB80004068E8B104EB44000A46A6
S31508004A6002EB800000236A4641684FF4006005F0B7
S31508004A70DBFA00B91BE0009855280CD145F0010572
S31508004A8004EB44001C4A52F8201000230122D002ED
S31508004A900BF0BEFC0BE004EB4400174A52F820105A
S31508004AA000231A464FF400600BF0B2FC00BF601CEE
S31508004AB084B20E2CFFF450AF05F0020038B1002383
S31508004AC0022240F2DC7190020BF0A2FC12E005F023
S31508004AD0010038B10023012240F2DC71D0020BF04C
S31508004AE097FC07E000231A4640F2DC714FF4006099
S31508004AF00BF08EFC7CBD0000905D01082DE9F041AD
S31508004B0005460E46069C0021002B34D027889F4276
S31508004B1003DA27887F1C278000E0238027887F1EEA
S31508004B20B8B206E0471E32F8177022F81070471E12
S31508004B30B8B20028F6DC1580002004E032F81070C0
S31508004B403944471CB8B227888742F7DCB4F800C056
S31508004B500CEB4C07B1FBFCF80CFB181C4FEAE7788A
S31508004B6007EB9878BCEBA80F01D927883944278822
S31508004B70B1FBF7F13180BDE8F0810000F8B50546D4
S31508004B800E4614461F46062D39D2DFE805F03803CF
S31508004B90101D2F261B4800EB440000901A4850F8B9
S31508004BA02420032339463046FFF7A8FF27E0174895
S31508004BB000EB44000090164850F824200323394699
S31508004BC03046FFF79BFF1AE012480A23124A394675
S31508004BD000903046FFF792FF11E010480523104A6F
S31508004BE0394600903046FFF789FF08E00D4805234F
S31508004BF00D4A394600903046FFF780FF00BF00BFD8
S31508004C00F8BD00009A050020C0010020FA05002022
S31508004C1080020020C80200201E060020CC020020C8
S31508004C203C060020CA0200203206002010B50120EA
S31508004C3007F026FF002007F023FF10BD08B5014640
S31508004C4000200090034800900098084400900098BF
S31508004C50008808BD006C004008B500220092044A8E
S31508004C600092009A02440092009A116008BD000062
S31508004C70006C004010B510F0DDFC05F0E1FE20B137
S31508004C8002480078401C0149087010BD1600002033
S31508004C901FB5002000900190029003900F480088ED
S31508004CA00F490988884218D00C48008800EB800212
S31508004CB002EBC0000B4A81180D226846FFF732FA4C
S31508004CC0684600F0F5F905480088401C142190FB59
S31508004CD0F1F201FB1200014908801FBDB204002051
S31508004CE0B0040020842000201FB500200090019009
S31508004CF0029003901348008813490988884220D0F7
S31508004D0012480078E8B90120104908700D48008853
S31508004D1000EB800202EBC0000D4A81180D2268469E
S31508004D20FFF700FA68460DF04BFB012809D1054844
S31508004D300088401C1E2190FBF1F201FB120001497C
S31508004D4008801FBDAE040020AC040020B404002077
S31508004D50FE1E0020F8B5002400250020009000263D
S31508004D6000236A4640F2EF314FF4006005F05CF923
S31508004D700098C5B2AA201249087000BF00BF16E005
S31508004D80104830F8140050B10E4830F81410204678
S31508004D9006F010FC55200A490870012605E0094866
S31508004DA030F81410204606F005FC601CC4B2AC426C
S31508004DB0E6DB012332464F2198020BF029FBF8BDAA
S31508004DC0DC020020CE0200202DE9FF4100200390DE
S31508004DD002900190002700250026804600900024B6
S31508004DE04A480088401C80B248490880052801DAEC
S31508004DF0BDE8FF8105204549088045480088401CD4
S31508004E0080B243490880B0F5167F06DB0020414989
S31508004E1008704FF416703E4908803E48007801280D
S31508004E2000D1E5E7002301AA40F2DF714FF40060E4
S31508004E3005F0FAF8019F002301AA4FF4FC614FF42C
S31508004E40006005F0F1F8019D002301AA40F2E17126
S31508004E504FF4006005F0E8F8019E002301AA40F22D
S31508004E602D414FF4006005F0DFF8DDF804800023DB
S31508004E7003AA40F2FF314FF4006005F0D5F800238D
S31508004E8002AA40F2D3714FF4006005F0CDF80398FA
S31508004E9098B90298012803D01F48007801280CD138
S31508004EA05F2E06DAB5F5C86F03DB01201B490870CB
S31508004EB006E002201949087002E002201749087026
S31508004EC000F09CFC15480078012819D000236A4692
S31508004ED040F2EF314FF4006005F0A6F8002405E033
S31508004EE00021204606F066FB601CC4B20098844286
S31508004EF0F6DB012300224F2198020BF089FA77E7A7
S31508004F0000F0B8FBFFF726FF00BF71E7F0020020AC
S31508004F10E8020020DE020020EB020020DD0200206D
S31508004F202DE9F843054600240026002000900027B6
S31508004F308046814600236A4640F2EF314FF400600E
S31508004F4005F072F80098C6B200BF0CE02DB14FF616
S31508004F50FF702B4921F8140003E00020284921F8A6
S31508004F601400601CC4B2B442F0DB002409E01DB191
S31508004F70FF202449085502E0002022490855601CF4
S31508004F80C4B2082CF3DB2048057055B3002425E08D
S31508004F9004F57C7100236A464FF4006005F044F876
S31508004FA00098074419480078B8420ADC1748007880
S31508004FB0404506DD15480078A0EB08001FFA80F981
S31508004FC001E04FF00009B846A9F10100012282402C
S31508004FD091B2204606F0EEFA601CC4B2B442D7DBA2
S31508004FE009E0002405E00021204606F0E3FA601CEB
S31508004FF0C4B2B442F7DB002005490880BDE8F8834F
S31508005000CE020020D4020020DE020020DF020020AB
S31508005010E80200203EB500240020009001900023FD
S3150800502002AA4FF4FF614FF4006004F0FDFF0298F6
S31508005030C0F30720ADF800000298C0B28DF8020050
S31508005040002302AA40F2F971C81D04F0EDFF029888
S31508005050000A8DF803000298C0B28DF804000023F8
S3150800506002AA40F2FA71881D04F0DEFF0298000ACF
S315080050708DF805000298C0B28DF80600684606F05D
S31508005080FFF9044608F0C0F8034908600020034900
S31508005090086020463EBD000034000020380000208D
S315080050A002480078401C014908707047D403002064
S315080050B010B504466078802805D1A178221D022003
S315080050C007F052F907E06078402804D1A178221D3C
S315080050D0022007F049F910BD00BFFEE708B5012117
S315080050E0480607F08DFC0121052007F0A9FC4FF4BE
S315080050F00060ADF8000048208DF803006946204896
S3150800510003F0CEFA4FF48050ADF8000018208DF861
S31508005110030003208DF802006946194803F0C0FA17
S31508005120184800F035F8184800F0F1F9002016493B
S3150800513088710120C871002008724872887201209F
S31508005140C87200208870C870022008710120487152
S31508005150102008800B4800F0C4F800200B4988721C
S31508005160C872012008730020088048808880C8809B
S31508005170088101204873084600F026F808BD00009B
S3150800518000080140006400401C0500202805002096
S3150800519010B504460B48844209D10121480607F098
S315080051A03FFC00214FF0007007F03AFC08E00121AF
S315080051B0880607F035FC00214FF0806007F030FCC8
S315080051C010BD00000064004010B50021837A01225A
S315080051D002FA03F13D4A126842F001023B4B1A609B
S315080051E03A4A1C3212688A43384B1C331A60027BCF
S315080051F0CAB9364A0C3212688A43344B0C331A60E1
S315080052004288C38842EA0343304A4032847A42F8E5
S3150800521034300288838842EA03432C4A4032847A2F
S3150800522002EBC4025360027B012A19D1274A0C32C9
S3150800523012680A43254B0C331A604288038842EAEF
S315080052400343224A4032847A42F83430C28883883B
S3150800525042EA03431D4A4032847A02EBC402536091
S31508005260C27A3AB9194A121D12688A43174B1B1D8E
S315080052701A6006E0154A121D12680A43134B1B1DD5
S315080052801A60028932B9114A143212688A430F4BDE
S3150800529014331A600289012A06D10C4A143212689C
S315080052A00A430A4B14331A60427B012A06D1074A7D
S315080052B01C3212680A43054B1C331A60034A1268EB
S315080052C022F00102014B1A6010BD00000066004082
S315080052D01AB143690B43436102E043698B43436157
S315080052E0704730B5024600200023146824F00204F3
S315080052F01460146844F00104146000E05B1C5468F0
S3150800530004F001041CB94FF6FF74A342F6D15468A1
S3150800531004F001040CB900206CE08C79012C04D14E
S31508005320146844F08004146003E0146824F08004D0
S315080053301460CC79012C04D1146844F0400414603C
S3150800534003E0146824F0400414600C7A012C04D19C
S31508005350146844F02004146003E0146824F0200460
S3150800536014604C7A012C04D1146844F010041460BB
S3150800537003E0146824F0100414608C7A012C04D11C
S31508005380146844F00804146003E0146824F0080460
S315080053901460CC7A012C04D1146844F00404146017
S315080053A003E0146824F0040414608C78A407CD780C
S315080053B044EA05640D7944EA05444D7944EA0554FE
S315080053C00D886D1E2C43D461146824F00104146002
S315080053D0002300E05B1C546804F001041CB14FF67E
S315080053E0FF74A342F6D1546804F001040CB10020FE
S315080053F000E0012030BD08B54FF4C06006F084FF18
S3150800540014208DF8000000208DF801008DF80200A8
S3150800541001208DF80300684606F03EFF08BD10B56A
S3150800542000F5D87303EB01131B6803F0040313722A
S31508005430137A53B900F5D87303EB01131B6840F2CE
S31508005440FF7404EA5353136009E000F5D87303EBBD
S3150800545001131B686FF0604404EAD303536000F538
S31508005460D87303EB01131B6803F00203537200F5AC
S31508005470D87303EB01135B6803F00F03937200F50F
S31508005480D87303EB01135B681B0AD37400F5D87352
S3150800549003EB01139B68D37200F5D87303EB011372
S315080054A09B681C0A147300F5D87303EB01139B68F9
S315080054B01C0C547300F5D87303EB01139B681B0E81
S315080054C0937300F5D87303EB0113DB68D37300F508
S315080054D0D87303EB0113DB681C0A147400F5D87340
S315080054E003EB0113DB681C0C547400F5D87303EB4B
S315080054F00113DB681B0E937421B9C36843F02003BC
S31508005500C36003E0036943F02003036110BD002173
S315080055108171C171017241728172C1728170C170EB
S31508005520032101710221417101210180704710B5E3
S3150800553002460020936803F08063B3F1806F00D1C0
S3150800554010E0936803F00063B3F1006F01D1012006
S3150800555008E0936803F08053B3F1805F01D102201D
S3150800556000E00420042874D002F5C07303EB00138E
S315080055701B6803F0010402F5C07303EB00131C60FB
S315080055800B7A7BB94B7A0C8843EA445302F5C0740C
S3150800559004EB00142468234302F5C07404EB0014DA
S315080055A0236010E00B7A4C6843EAC4034C7A234321
S315080055B002F5C07404EB00142468234302F5C07492
S315080055C004EB001423608B7A03F00F038B7202F549
S315080055D0C07303EB00135B6823F00F0402F5C07376
S315080055E003EB00135C6002F5C07303EB00135B6802
S315080055F08C7A234302F5C07404EB001463608B7B3A
S315080056001C064B7B44EA03440B7B44EA0323CC7A0F
S31508005610234302F5C07404EB0014A3608B7C1C06BC
S315080056204B7C44EA03440B7C44EA0323CC7B2343A8
S3150800563002F5C07404EB0014E36002F5C07303EBD3
S3150800564000131B6843F0010402F5C07303EB001353
S315080056501C6010BD10B50246002006E013784340D2
S31508005660034CE05C521C4B1ED9B20029F6DC10BD77
S31508005670C47B01082DE9F04FD1B00024002500268F
S31508005680A146A246A346002050900027AA204F9084
S3150800569000204E9080464D904C90C0211CA8FEF7E5
S315080056A05AFD00201B901A9000231AAA40F2EF31E7
S315080056B04FF4006004F0B8FC1A98C0B24E9000236C
S315080056C01AAA4FF48061480004F0AEFCDDF8688041
S315080056D000231AAA40F201414FF4006004F0A4FC2A
S315080056E01A984D9000231AAA4FF4FC614FF40060F3
S315080056F004F09AFC1A9880B250903D480078012828
S3150800570002D13C4800885090684609F011FA3422C4
S3150800571069460DA8FEF706FD002564E00DA830F8D9
S3150800572015001B901B98404559D305F57C7100233D
S315080057301AAA4FF4006004F077FC1A98C6B2102E25
S3150800574000DC16B951B0BDE8F08F002412E009F06C
S31508005750F9F900EB470030F814B01CA800EB8510E7
S3150800576020F824B01CA800EB851000EB8400847098
S31508005770601CC4B2B442EADB1CA901EB85103146B1
S315080057800CF0E4FFB01EC4B227E01CA800EB85109D
S3150800579000EB840090F802901CA800EB851030F806
S315080057A024105098A1EB000A4D98824509D31CA8ED
S315080057B000EB851030F82400404502D355204F9061
S315080057C001E0AA204F90CDF8309129460A484F9B10
S315080057D04C9A04F05DFF601CC4B2B442D5DBB8191C
S315080057E0C7B2681CC5B24E98854297DB00BFA9E7C9
S315080057F0E2020020E4020020CE02002038B5002490
S3150800580000250020009000236A4640F2EF314FF44D
S31508005810006004F009FC0098C5B200BF05E000204E
S31508005820084921F81400601CC4B2AC42F7DB002416
S3150800583004E0002004490855601CC4B2082CF8DBB3
S3150800584038BD0000CE020020D4020020F8B549F683
S31508005850404400250026002000901E480068401C91
S315080058601C490860084600681B490968884230D305
S3150800587000201849086007F0C7FC05461748006865
S315080058802E1A00236A4640F25E414FF4006004F087
S31508005890CBFB0098704310490968B0FBF1F400236C
S315080058A0224640F25E414FF400600AF0B1FD50B165
S315080058B007F0F4FE07F0F8FB204607F0ADFE07F008
S315080058C0EDFE07F0FBFB054805604FF4167002492C
S315080058D00860F8BD380000203000002034000020A1
S315080058E010B500F047FD10BD7CB5002001900025DD
S315080058F000260090002400236A4640F6BF714FF444
S31508005900006004F091FB009800B17CBD002301AA59
S3150800591040F2D2714FF4006004F086FB5B480078D1
S31508005920401C5A490870084600781E2803DC01986E
S31508005930401C019006E055480078642802DB0020E8
S31508005940524908705249534A1278019841F8220080
S3150800595050480078401C0A2190FBF1F201FB120026
S315080059604C49087047F230510198884251DA01983B
S315080059700D1A48F6A040854201DD0025C5E72E46EA
S315080059804548007801281ED1002419E0424840887D
S3150800599004EB4401414A32F8111088420EDD04EB4B
S315080059A04400114601EB40004088684304EB44017B
S315080059B002EB4101898890FBF1F603E0601CC4B252
S315080059C0042CE3DB00BF3648006858B93548006840
S315080059D0334908600023344A40F2F6314FF4006038
S315080059E004F022FB30480068C0EB401040014FF439
S315080059F07A7190FBF1F02B490968884204DD2B483F
S31508005A00006830442949086029480068284428491C
S31508005A10086047F230510198884235DD0198451AE9
S31508005A2048F6A040854201DD00256EE72E461A4855
S31508005A30007802281ED1002419E01748408804EB94
S31508005A4044011C4A32F8111088420EDD04EB44006A
S31508005A50114601EB40004088684304EB440102EB21
S31508005A604101898890FBF1F603E0601CC4B2042C5E
S31508005A70E3DB00BF0D480068801B0C4908600E4830
S31508005A80006828440C49086000BF3EE74C04002023
S31508005A90F0070020400400201404002024630108B5
S31508005AA0440400201804002048040020280400208C
S31508005AB0380400203C6301083C04002038B5002067
S31508005AC00090002400236A4640F2FE314FF400603D
S31508005AD004F0AAFA0098322802DA4FF47A7414E02D
S31508005AE0009832280FDB40F21A41009888420ADCF7
S31508005AF0009800EB400101EB00100849081A6421E0
S31508005B0090FBF1F401E04FF448740023224640F27A
S31508005B10FD314FF400600AF07BFC38BD568A01005F
S31508005B207FB5002500240020039002900190009084
S31508005B3003F0DEF8044648F6A04084420FD847F240
S31508005B40305084420BD350480088401C4E49088088
S31508005B50084600880A2805DD0A20088002E0002099
S31508005B604949088047F2265084420FD845F6C05066
S31508005B7084420BD345480088401C4449088008469F
S31508005B8000880A2805DD0A20088002E000203F492F
S31508005B900880002303AA40F2DD714FF4006004F088
S31508005BA043FA002302AA4FF4FC614FF4006004F0A4
S31508005BB03BFA00236A4640F2DF714FF4006004F0B6
S31508005BC033FA002301AA40F2E9714FF4006004F0A9
S31508005BD02BFA40F2DC510398884200DA7FBD2A4846
S31508005BE000880A2813DBA4F5EA40303885B2029803
S31508005BF004F092FC02902946029804F03DFC0290BB
S31508005C00234A0021029804F0C1FA224908801F4855
S31508005C1000880A2813DB47F23050001B85B200982B
S31508005C2000F044FA00902946009800F0E5F9009043
S31508005C30194A0021009804F0A9FA1649088015485F
S31508005C4000880199884209DD012014490870114825
S31508005C5000880199401A1149488012E00D480088C9
S31508005C600199884209DA02200C490870094909880D
S31508005C700198401A0949488003E00020074908703E
S31508005C80488000BFAAE70000540400205204002000
S31508005C90E007002042040020D0070020140400205A
S31508005CA02DE9F84306460C4600250020009080465C
S31508005CB00027012E04D0022E2AD0032E72D188E0A6
S31508005CC0002059490880594908805948006847F210
S31508005CD04E51884219DC5648006847F212518842EC
S31508005CE013DB4FF001080023514840F224410268B3
S31508005CF04FF400600AF08CFB4D48008800B24A4910
S31508005D00088001204B49087001E04FF0000886E042
S31508005D1048480078012802D04FF000087FE0444840
S31508005D20016804F11E00814250DC3C38404909688C
S31508005D3088424BDC4FF001083D48008800B23B49D9
S31508005D40088047F23050844201DB271A02E047F206
S31508005D503050071B3548B0F900003349B1F9001037
S31508005D6088420BDD642078433049B1F900102E4A89
S31508005D70B2F90020891AB0FBF1F517E02B48B0F903
S31508005D8000002949B1F9001088420CDA64207843EA
S31508005D902549B1F90010254AB2F90020891AB0FB45
S31508005DA0F1F503E03AE04FF0000838E000232A4610
S31508005DB040F225414FF400600AF02AFB18B1022090
S31508005DC01C49087004E04FF0000801E04FF0000895
S31508005DD025E018480078022802D04FF000081EE097
S31508005DE000236A4640F2D2714FF4006004F01CF9B1
S31508005DF0204600990CF0B7FD814647F230512046FF
S31508005E000CF0B1FDB9EBD00F05D24FF00108002018
S31508005E100849087001E04FF0000800E000BF00BF25
S31508005E204046BDE8F8830000FC020020FE02002080
S31508005E30D8030020000300201FB500200090019021
S31508005E40029003900D4800880D490988884214D0AD
S31508005E500C480A49098800EB01130FCB8DE80F009F
S31508005E60684606F06BF905480088401C142190FB2B
S31508005E70F1F201FB1200014908801FBDA0040020B1
S31508005E809E040020341B00201FB5002000900190BE
S31508005E9002900390194800881949098888422CD02D
S31508005EA018481649098800EB01130FCB8DE80F0037
S31508005EB09DF80C2001A9009804F08CFC68B10F48E5
S31508005EC00088401C1E2190FBF1F201FB12000B49D1
S31508005ED0088000200C4908700FE00B480078401C29
S31508005EE009490870084600780A2806DD04F038FCD7
S31508005EF005F06EFE0020044908701FBD9C040020B2
S31508005F009A04002054190020BF0400201CB5002064
S31508005F10019047F23050009000236A4640F2D27151
S31508005F204FF4006004F080F847F226510098884242
S31508005F3011DA29480088401C274908800846008845
S31508005F400A2804DD01202549087025490870002023
S31508005F502449088016E023480088401C2149088007
S31508005F6008460088322802DD00201C4908700020F7
S31508005F701949088047F230510098884202DD00200E
S31508005F801749087001A803F0C5F9012803D1134879
S31508005F900078012802D002F07DFE68B14FF47A70CD
S31508005FA00AF06CFC00F020F800200C4908700D4936
S31508005FB00880094908800DE002F083FE18B1002028
S31508005FC00AF05CFC06E001A801F0E2FD012801D117
S31508005FD000F00AF81CBD00001C0300202003002066
S31508005FE0EB0200201E0300200120704710B501F0C7
S31508005FF0D1FA01F08BFA10BDF8B506460F46002413
S3150800600000254FF47A70009035463C4600236A46D0
S3150800601040F2F6314FF4006004F006F84FF47A7156
S31508006020009890FBF1F00090009818B144F62060B3
S31508006030864201DA2846F8BD002C2EDD04EB8400E2
S315080060404000009990FBF1F4B4F57A7F01DD28460B
S31508006050F1E7322C04DC1248006804FB10551CE0FA
S31508006060642C0BDC0E480068322101FB1055A4F1A4
S3150800607032000C49096800FB11550EE00848006813
S31508006080322101FB10550748006801FB1055A4F1A1
S3150800609064000549096800FB11552846CBE700004E
S315080060A0EC030020F0030020F403002038B5054671
S315080060B00020009000242C4600236A4640F2E27134
S315080060C04FF4006003F0B0FF44F62060844202DB20
S315080060D00098002801DA204638BD009841282BDAB6
S315080060E00098322807DB0098C0F141001349096877
S315080060F000FB114420E0009828280CDB0F480068B4
S315080061000F2101FB10440098C0F132000C490968C0
S3150800611000FB114410E0094800680F2101FB1044F8
S31508006120074800680A2101FB10440098C0F12800BE
S315080061300449096800FB11442046CDE7E003002026
S31508006140E4030020E803002038B5054600240020B3
S31508006150009000BF43E004EB4400234951F82000B7
S31508006160A8423AD104EB440001EB80008068A8B14C
S3150800617004EB44000A4602EB800000236A46816865
S315080061804FF4006003F050FF08B9002038BD0098AE
S31508006190552801D10120F9E70020F7E704EB440070
S315080061A0114901EB80004068A8B104EB44000A4697
S315080061B002EB800000236A4641684FF4006003F052
S315080061C033FF08B90020E1E70098552801D10120DE
S315080061D0DCE70020DAE70020D8E7601C84B20E2C42
S315080061E0B9D30020D2E70000905D010870B50024FD
S315080061F01EE0144901F83440002515E0C4EBC4003C
S31508006200284486B21E2E07DA0F48815D05EBC400C6
S31508006210401C0C4A115405E0FF2105EBC400401C44
S31508006220084A1154681C85B2072DE7DB601C84B246
S31508006230052CDEDB0020054908800621044801F00C
S31508006240EDF970BD66060020480600207C03002094
S31508006250E185000810B500247A2006F0B1FC08B1E3
S3150800626044F001047B2006F0ABFC08B144F00204BC
S315080062707C2006F0A5FC08B144F004047D2006F055
S315080062809FFC08B144F008047E2006F099FC08B18A
S3150800629044F010047F2006F093FC08B144F0200473
S315080062A006F0F4FB204610BD10B501F025FA0128CA
S315080062B003D102200DF0A2FA02E003200DF09EFAA7
S315080062C00DF0D0FA18B102200CF0DEFA02E0032035
S315080062D00CF0DAFA10BD014601F00F020B1103EBC0
S315080062E0830302EB4302D0B27047014664290ADAF7
S315080062F00A2091FBF0F200FB121291FBF0F002EB80
S315080063000010C0B270470020FCE730B502460B46C5
S315080063104FF6FF7011E012F8014B604000210AE0C9
S3150800632000F0010424B140104AF20104604000E084
S3150800633040104C1CE1B20829F2DB1C1EA3F1010532
S31508006340ABB2E8D130BD000000B5034603F05CFEF1
S315080063500246802A07D0054840F8223004480068DB
S31508006360401C03490860104600BD00005417002071
S315080063709404002008B50020009000236A464FF4D4
S315080063807A714FF4006003F04FFE0099C8B200F02E
S3150800639030F90099C8B200F074F80099C8B200F054
S315080063A009F800F0D5F800F07DF90099C8B200F0B8
S315080063B040F908BD2DE9FC5F07464FF0000AD346B1
S315080063C000254FF6FF76A846B146002001903046D4
S315080063D00090012423E0234601AA47214FF4806058
S315080063E003F022FE23466A4648214FF4806003F0F4
S315080063F01BFE019885B2009886B2012C04D1A846E6
S31508006400B146A246A34608E0A84501DAA846A24630
S31508006410B14501DDB146A34600BF601CC4B2BC420B
S31508006420D9DD0023424640F2E1714FF4006009F0DD
S31508006430EFFF534601AA4B214FF4806003F0F4FDA9
S31508006440002340F2E7714FF40060019A09F0E0FF7B
S3150800645000234A4640F2E2714FF4006009F0D8FF83
S315080064605B466A464C214FF4806003F0DDFD00234D
S315080064704FF4FD614FF40060009A09F0C9FFBDE8CA
S31508006480FC9F2DE9FC5F07464FF0000AD34600251E
S315080064904FF6FF76A846B146002001903046009098
S315080064A0012423E0234601AA43214FF4806003F028
S315080064B0BBFD23466A4644214FF4806003F0B4FDD1
S315080064C0019885B2009886B2012C04D1A846B14637
S315080064D0A246A34608E0A84501DAA846A246B14561
S315080064E001DDB146A34600BF601CC4B2BC42D9DD7B
S315080064F00023424640F2DF714FF4006009F088FF3E
S31508006500534601AA49214FF4806003F08DFD00230C
S3150800651040F2E5714FF40060019A09F079FF002313
S315080065204A464FF4FC614FF4006009F071FF5B4680
S315080065306A464A214FF4806003F076FD002340F254
S31508006540E6714FF40060009A09F062FFBDE8FC9F0F
S315080065507FB500240025002003900290019000904A
S31508006560002303AA40F2DF714FF4006003F05CFDDC
S31508006570002302AA4FF4FC614FF4006003F054FDB7
S31508006580DDE90210884203DDDDE90210401A02E067
S31508006590DDE90201401A84B20023224640F2E37183
S315080065A04FF4006009F034FF002301AA40F2E171BC
S315080065B04FF4006003F038FD00236A4640F2E271AA
S315080065C04FF4006003F030FDDDE90010884203DD7A
S315080065D0DDE90010401A02E0DDE90001401A85B243
S315080065E000232A4640F2E4714FF4006009F010FFD8
S315080065F07FBDF8B505460027002600200090002438
S315080066000CE0601CC3B26A464021080103F00CFD89
S31508006610009887B2F01986B2601CC4B2AC42F0DBAF
S315080066200023324640F2D1714FF4006009F0F0FEC3
S31508006630F8BD2DE9F84F07464FF0000900200090F5
S315080066400026804601241DE004F2F23100236A4642
S315080066504FF4006003F0E8FC009800F0FF090025FD
S315080066600CE005F1300123466A464FF4806003F0DA
S31508006670DBFC00988044761C681CC5B24D45F0DBEF
S31508006680601CC4B2BC42DFDD002E09DD98FBF6FAB9
S315080066900023524640F2DE714FF4006009F0B8FE5E
S315080066A0BDE8F88F1CB50020019000BF00900023BC
S315080066B001AA40F2D1714FF4006003F0B5FC002343
S315080066C06A4640F2D6714FF4006003F0ADFC6421CF
S315080066D001984843009990FBF1F40023224640F2C2
S315080066E0DD714FF4006009F093FE1CBD30B58FB024
S315080066F0282102A8FDF72FFD0020009001904FF4F5
S31508006700FA71FE48FDF727FD00230EAA40F2D6715E
S315080067104FF4006003F088FC0E98C5B220250024CB
S3150800672012E0214601230DAA980203F07DFC0D987C
S31508006730C0F30721F14A02F814100D98C1B260009F
S31508006740401C1154601CC4B2AC42EADB00230EAAFA
S3150800675040F2D7714FF4006003F066FC0E98C5B29C
S315080067600825002414E004F1300101230DAA98023B
S3150800677003F05AFC0D98C0F3072160004030DF4A49
S3150800678011540D98C1B2600041301154601CC4B256
S31508006790AC42E8DB00230DAA40F2D1714FF4006049
S315080067A003F042FC0D98000AD44981F850000D9870
S315080067B081F8510000230DAA40F2D2714FF400600F
S315080067C003F032FC4EF660210D98081A0D900D98CC
S315080067D0000ACA4981F852000D9881F8530000232F
S315080067E00DAA40F2E9714FF4006003F01DFC0D9804
S315080067F0000AC24981F854000D9881F85500002313
S315080068000DAA40F2DF714FF4006003F00DFC0D98FD
S31508006810000ABA4981F856000D9881F857000023F6
S315080068200DAA4FF4FC614FF4006003F0FDFB0D98D0
S31508006830000AB24981F858000D9881F859000023DA
S315080068400DAA40F2E1714FF4006003F0EDFB0D98DC
S31508006850000AAA4981F85A000D9881F85B000023BE
S315080068600DAA40F2E2714FF4006003F0DDFB0D98CB
S31508006870000AA24981F85C000D9881F85D000023A2
S315080068800DAA40F2D3714FF4006003F0CDFB0D98CA
S31508006890000A9A4981F85E000D9881F85F00002386
S315080068A00DAA40F2F6314FF4006003F0BDFB002359
S315080068B00CAA40F2E9714FF4006003F0B5FB6421BD
S315080068C00D9890FBF1F00C9948434FF47A7190FBC0
S315080068D0F1F00D900D98000A884981F860000D982E
S315080068E081F8610000230DAA40F2D6714FF40060CA
S315080068F003F09AFB0D98000A804981F862000D980A
S3150800690081F8630000230DAA40F2D7714FF40060A6
S3150800691003F08AFB0D98000A784981F864000D98FF
S3150800692081F8650000230DAA40F2FE314FF400609D
S3150800693003F07AFB0D98000A704981F866000D98F5
S3150800694081F8670000200D906D4800786C494978F9
S3150800695008436B49897808436949C97808436849EF
S315080069600979084366494979084318B10D9840F0F2
S3150800697001000D900D98000A604981F868000D988D
S3150800698081F8690000230DAA40F2D9714FF400601E
S3150800699003F04AFB0D98000A584981F86A000D98D9
S315080069A081F86B0000230DAA4FF4FB614FF40060D9
S315080069B003F03AFB0D98000A504981F86C000D98CF
S315080069C081F86D0001230DAA4121980203F02CFBE2
S315080069D00D98000A494981F86E000D9881F86F00F4
S315080069E000230DAA40F2E3714FF4006003F01CFB8C
S315080069F00D98000A414981F870000D9881F87100D8
S31508006A0000230DAA40F2D1714FF4006003F00CFB8D
S31508006A1000230EAA40F2D2714FF4006003F004FB83
S31508006A2047F230510E98884203DB0E98401A0E90B2
S31508006A3004E047F230510E98081A0E90DDE90D0170
S31508006A404843642190FBF1F00D900D98000A2B49FC
S31508006A5081F872000D9881F8730001F065FF0D90BA
S31508006A6028484078254981F874002648007881F836
S31508006A70750001F0D1FF0D902248C0781F4981F8B2
S31508006A8076002048807881F8770002F03BF80D9070
S31508006A901C484079194981F878001A48007981F824
S31508006AA0790002F0CFF80D901648C079134981F89D
S31508006AB07A001448807981F87B0000200D901048F0
S31508006AC0007810B101200D9001E000200D90002003
S31508006AD00D900D98000A094981F87E000D9881F8F5
S31508006AE07F0000230DAA40F2F7714FF4006003F00F
S31508006AF09BFA47F230500D900D9805E006280020C5
S31508006B00D4020020CC030020000AFE4981F8800048
S31508006B100D9881F8810000230EAA4FF47C714FF47A
S31508006B20006003F081FA0E98C5B200200D9000248B
S31508006B300AE0F54800780121A140084010B1601C20
S31508006B400D9003E0601CC4B2AC42F2DB00BF00202B
S31508006B500D900D98000AEB4981F882000D9881F88E
S31508006B60830000230EAA40F2D6714FF4006003F0AA
S31508006B705BFA0E98C5B21025002414E004F1200132
S31508006B8001230DAA980203F04FFA0D98C0F30721C6
S31508006B9060008E30DB4A11540D98C1B260008F3008
S31508006BA01154601CC4B2AC42E8DB00230DAA40F2C3
S31508006BB0F6314FF4006003F037FA64210D9890FB24
S31508006BC0F1F00D900D98000ACE4981F800010D9854
S31508006BD081F8010100230DAA40F2F9314FF4006053
S31508006BE003F022FA0D98000AC64981F802010D98A9
S31508006BF081F8030100230DAA40F2EF314FF400603B
S31508006C0003F012FA0D98000ABE4981F804010D989E
S31508006C1081F8050100230DAA4FF47C714FF400603A
S31508006C2003F002FA0D98000AB64981F806010D9894
S31508006C3081F8070100230DAA40F2F1314FF40060F4
S31508006C4003F0F2F90D98000AAE4981F808010D988B
S31508006C5081F8090100230DAA40F2F2314FF40060D1
S31508006C6003F0E2F90D98000AA64981F80A010D9881
S31508006C7081F80B0100230DAA40F2F3314FF40060AE
S31508006C8003F0D2F90D98000A9E4981F80C010D9877
S31508006C9081F80D0100230DAA4FF47D714FF40060B1
S31508006CA003F0C2F90D98000A964981F80E010D986D
S31508006CB081F80F0100230DAA40F2F5314FF4006068
S31508006CC003F0B2F90D98000A8E4981F810010D9863
S31508006CD081F8110100230DAA4FF47E714FF400606C
S31508006CE003F0A2F90D98000A864981F812010D9859
S31508006CF081F8130100230DAA40F203414FF4006006
S31508006D0003F092F90D98000A7E4981F814010D984E
S31508006D1081F8150100230DAA40F22D414FF40060B9
S31508006D2003F082F90D98000A764981F816010D9844
S31508006D3081F8170100230DAA40F23B414FF4006089
S31508006D4003F072F90D98000A6E4981F818010D983A
S31508006D5081F8190100230DAA40F22E414FF4006074
S31508006D6003F062F90D98000A664981F81A010D9830
S31508006D7081F81B0100230DAA40F23C414FF4006044
S31508006D8003F052F90D98000A5E4981F81C010D9826
S31508006D9081F81D0100230DAA40F227414FF4006037
S31508006DA003F042F90D98000A564981F81E010D981C
S31508006DB081F81F0100230DAA40F235414FF4006007
S31508006DC003F032F90D98000A4E4981F820010D9812
S31508006DD081F8210100230DAA4FF485614FF4006064
S31508006DE003F022F90D98000A464981F822010D9808
S31508006DF081F8230100230DAA40F236414FF40060C2
S31508006E0003F012F90D98000A3E4981F824010D98FD
S31508006E1081F8250100230DAA40F22B414FF40060AA
S31508006E2003F002F90D98000A364981F826010D98F3
S31508006E3081F8270100230DAA40F239414FF400607A
S31508006E4003F0F2F80D98000A2E4981F828010D98EA
S31508006E5081F8290100230DAA40F22C414FF4006065
S31508006E6003F0E2F80D98000A264981F82A010D98E0
S31508006E7081F82B0100230DAA40F23A414FF4006035
S31508006E8003F0D2F80D98000A1E4981F82C010D98D6
S31508006E9081F82D0100230DAA40F232414FF400601B
S31508006EA003F0C2F80D98000A164981F82E010D98CC
S31508006EB081F82F0100230DAA4FF488614FF4006072
S31508006EC003F0B2F80D98000A0E4981F830010D98C2
S31508006ED081F8310100230DAA40F233414FF40060D6
S31508006EE003F0A2F80D98000A064981F832010D98B8
S31508006EF081F8330100230DAA40F241414FF40060A6
S31508006F0004E0000006280020D402002003F08CF8D4
S31508006F100D98000AFE4981F834010D9881F835016B
S31508006F2000230DAA4FF486614FF4006003F07CF845
S31508006F300D98000AF64981F836010D9881F837014F
S31508006F4000230DAA40F23E414FF4006003F06CF8AE
S31508006F500D98000AEE4981F838010D9881F8390133
S31508006F6000230DAA40F231414FF4006003F05CF8AB
S31508006F700D98000AE64981F83A010D9881F83B0117
S31508006F8000230DAA40F23F414FF4006003F04CF88D
S31508006F900D98000ADE4981F83C010D9881F83D01FB
S31508006FA000230DAA40F22F414FF4006003F03CF88D
S31508006FB00D98000AD64981F83E010D9881F83F01DF
S31508006FC000230DAA40F23D414FF4006003F02CF86F
S31508006FD00D98000ACE4981F840010D9881F84101C3
S31508006FE000230DAA40F234414FF4006003F01CF868
S31508006FF00D98000AC64981F842010D9881F84301A7
S3150800700000230DAA40F242414FF4006003F00CF849
S315080070100D98000ABE4981F844010D9881F845018A
S3150800702000230DAA4FF48061480002F0FDFF0D9879
S31508007030000AB74981F846010D9881F847010023EF
S315080070400DAA40F201414FF4006002F0EDFF0D98E1
S31508007050000AAF4981F848010D9881F849010023D3
S315080070600DAA40F2F5714FF4006002F0DDFF0D98AD
S31508007070552802D100200D9001E001200D900D98B1
S31508007080000AA34981F84A010D9881F84B010023AB
S315080070900DAA40F2F6714FF4006002F0C5FF0D9894
S315080070A0552802D100200D9001E001200D900D9881
S315080070B0000A974981F84C010D9881F84D01002383
S315080070C00DAA40F2E9714FF4006002F0ADFF0D9889
S315080070D0000A8F4981F84E010D9881F84F01002367
S315080070E00DAA40F24A414FF4006002F09DFF0D9848
S315080070F0000A874981F850010D9881F8510100244A
S3150800710009E0C4F10D008349095C04F5A970804AB9
S315080071101154601CC4B20E2CF3DB002409E0C4F140
S315080071200D007D49095C04F5B170794A1154601C5B
S31508007130C4B20E2CF3DB002424E004F5836100239B
S315080071400DAA4FF4006002F06FFF0D98010EA00023
S3150800715000F5B9706E4A11540D98C0F30741A000A6
S3150800716000F2731011540D98C0F30721A00000F522
S31508007170BA7011540D98C1B2A00000F275101154DE
S31508007180601CC4B2082CD8DB00230DAA40F2554176
S315080071904FF4006002F048FF0D98000A5C4981F838
S315080071A092010D9881F8930100230DAA40F25641E9
S315080071B04FF4006002F038FF0D98000A544981F830
S315080071C094010D9881F8950100230DAA40F25741C4
S315080071D04FF4006002F028FF0D98000A4C4981F828
S315080071E096010D9881F8970100230DAA4FF4846142
S315080071F04FF4006002F018FF0D98000E444981F81C
S3150800720098010D98000C81F899010D98000A81F8EB
S315080072109A010D9881F89B0100230DAA40F20C41B2
S315080072204FF4006002F000FF0D98000E384981F80F
S315080072309C010D98000C81F89D010D98000A81F8B3
S315080072409E010D9881F89F0100230DAA40F20D4179
S315080072504FF4006002F0E8FE0D98000E2C4981F804
S31508007260A0010D98000C81F8A1010D98000A81F87B
S31508007270A2010D9881F8A30100230DAA40F20E4140
S315080072804FF4006002F0D0FE0D98000E204981F8F8
S31508007290A4010D98000C81F8A5010D98000A81F843
S315080072A0A6010D9881F8A70100230DAA40F20F4107
S315080072B04FF4006002F0B8FE0D98000E144981F8EC
S315080072C0A8010D98000C81F8A9010D98000A81F80B
S315080072D0AA010D9881F8AB0100230DAA4FF482612B
S315080072E04FF4006002F0A0FE0D98000E084981F8E0
S315080072F0AC010D98000C81F8AD010D98000A81F8D3
S31508007300AE010D9881F8AF0100230DAA06E0000032
S3150800731006280020B6030020A803002040F21141E9
S315080073204FF4006002F080FE0D98000E754981F852
S31508007330B0010D98000C81F8B1010D98000A81F88A
S31508007340B2010D9881F8B30100230DAA40F212414B
S315080073504FF4006002F068FE0D98000E694981F846
S31508007360B4010D98000C81F8B5010D98000A81F852
S31508007370B6010D9881F8B70100230DAA40F2134112
S315080073804FF4006002F050FE0D98000E5D4981F83A
S31508007390B8010D98000C81F8B9010D98000A81F81A
S315080073A0BA010D9881F8BB0100230DAA40F21441D9
S315080073B04FF4006002F038FE0D98000E514981F82E
S315080073C0BC010D98000C81F8BD010D98000A81F8E2
S315080073D0BE010D9881F8BF0100230DAA40F21541A0
S315080073E04FF4006002F020FE0D98000E454981F822
S315080073F0C0010D98000C81F8C1010D98000A81F8AA
S31508007400C2010D9881F8C30100230DAA40F2164166
S315080074104FF4006002F008FE0D98000E394981F815
S31508007420C4010D98000C81F8C5010D98000A81F871
S31508007430C6010D9881F8C70100230DAA40F217412D
S315080074404FF4006002F0F0FD0D98000E2D4981F80A
S31508007450C8010D98000C81F8C9010D98000A81F839
S31508007460CA010D9881F8CB0100230DAA4FF48C614F
S315080074704FF4006002F0D8FD0D98000A214981F802
S31508007480A4010D9881F8A50100230DAA40F25F41D9
S315080074904FF4006002F0C8FD0D98000A194981F8FA
S315080074A0A2010D9881F8A30102A80CF023FA9DF811
S315080074B02700A52805D1182202A91248AE30FCF7E4
S315080074C031FE684603F074FFBDF80000A0F5FA60C7
S315080074D00C4981F8A8019DF8020081F8A9019DF8D8
S315080074E0030081F8AA019DF8040081F8AB019DF814
S315080074F0050081F8AC019DF8060081F8AD010FB0D2
S3150800750030BD0000062800207047000010B5002492
S3150800751003F0BAFA0446C4B91B480078401C1A4955
S31508007520087008460078032812DD032008701748FB
S31508007530007868B90023012240F2ED71D00208F004
S3150800754067FF01201149087002E000200E49087003
S31508007550B4B10F480078401C0D49087008460078F9
S31508007560032810DD0320087000231A4640F2ED7147
S315080075704FF4006008F04CFF00200449087002E050
S3150800758000200349087010BD1603002018030020C8
S315080075901703002010B5002403F06AFA0446C4B99C
S315080075A01B480078401C1A490870084600780328CA
S315080075B012DD032008701748007868B900230122F5
S315080075C040F2EC71D00208F023FF0120114908703F
S315080075D002E000200E490870B4B10F480078401C3C
S315080075E00D49087008460078032810DD0320087046
S315080075F000231A4640F2EC714FF4006008F008FFC9
S3150800760000200449087002E000200349087010BDF4
S3150800761013030020150300201403002030B5054687
S315080076200C46094802F0D2FF0346302B09DA074810
S3150800763040F823500021C03040F82310024840F893
S315080076402340184630BD00002C100020DC11002015
S3150800765010B56421014807F095FB10BDD5D6000882
S3150800766010B54FF4FA71044807F08CFB64210348FF
S3150800767007F088FB10BD000021F000084949000802
S3150800768010B564210B4809F0D9F84FF47A710A4805
S3150800769007F078FB4FF47A71084807F073FB64210A
S315080076A0074807F06FFB4FF4FA61064807F06AFBD4
S315080076B010BD0000E9580008F9100108D1080108B2
S315080076C0215B0008417B000810B5012240210348D0
S315080076D001F0C3F800200249087010BD00100140EF
S315080076E0AA0400204FF4FA5200FB02F100BF0A1E5A
S315080076F0A1F10101FBD1704738B5002000900023A5
S315080077006A4640F2EC714FF4006002F08DFC009876
S3150800771010B900202549087000236A4640F2D27144
S315080077204FF4006002F080FC47F23051009888421E
S3150800773001DD012038BD1D48007808B10020F9E7B1
S3150800774000236A4640F2F5714FF4006002F06CFCC3
S315080077500098552803D016480078012801D1002042
S31508007760E8E706F01FFF08B10020E3E7002419E068
S31508007770104850F8241000236A464FF4006002F0BF
S3150800778053FC009855280BD10A4850F8240040F6B7
S31508007790C831884202D10120044908700020C9E78F
S315080077A0601CC4B2052CE3D30120C3E75A040020A9
S315080077B05C0400204070010838B5002000900023C2
S315080077C06A4640F2ED714FF4006002F02DFC009815
S315080077D010B900202149087000236A4640F2D27188
S315080077E04FF4006002F020FC47F2305100988842BE
S315080077F001DA012038BD1948007808B10020F9E7F8
S3150800780002F0CBFD18B916480078012801D10020EE
S31508007810F0E706F0C7FE08B10020EBE7002419E000
S31508007820104850F8241000236A464FF4006002F00E
S31508007830FBFB009855280BD10A4850F8240040F65F
S31508007840C931884202D10120044908700020D1E7D5
S31508007850601CC4B2052CE3D30120CBE759040020F1
S315080078605C0400202C70010808B500200090002355
S315080078706A464FF489614FF4006002F0D5FB009820
S3150800788001280CD104F054F8012808D100231A461F
S315080078904FF48961C00208F0BBFD04F025F9009891
S315080078A0A5280CD100231A464FF489614FF40060CD
S315080078B008F0AEFD01201349087004F015F9009888
S315080078C0552809D100231A464FF489614FF4006000
S315080078D008F09EFD04F008F900236A4640F20341C9
S315080078E04FF4006002F0A0FB4FF6FF710098884243
S315080078F002D101200449087003F022F80120034947
S31508007900087008BD4D000020150000204F0000201B
S3150800791010B5FFF751FF012806D100200BF06EFFC6
S3150800792001201449087019E01248007880B1012036
S3150800793003F0FEFD41F2883002F0F9FF01200BF05A
S315080079405DFF41F2883002F0F2FF002003F0F0FDFF
S3150800795000200849087001200BF050FF0BF0A6FF25
S3150800796018B100200AF090FF02E001200AF08CFF0F
S3150800797010BD00006C04002008B52020ADF80000FA
S3150800798003208DF8020004208DF80300694602489A
S3150800799000F086FE08BD00000008014008B520205A
S315080079A0ADF8000003208DF8020014208DF80300BE
S315080079B06946024800F074FE08BD00000008014050
S315080079C010B5012000F058F803F0A2FE10BD000023
S315080079D010B54FF4005000F055F828B14FF4005098
S315080079E000F04AF803F094FE4FF4004000F04AF81D
S315080079F000B34FF4004000F03FF80F480078B8B1E4
S31508007A000E480078082815DAFFF7D6FE012811D1A6
S31508007A1003F03AF870B9012003F08AFD012003F05B
S31508007A20BDFD04200AF030FF05200549087001E075
S31508007A3003F06EFE10BD00004F000020510000202C
S31508007A405000002010B5082000F016F803F060FE7C
S31508007A5010BD10B5102000F00FF803F059FE10BD48
S31508007A6010B5202000F008F84FF4807000F004F8F4
S31508007A7003F04EFE10BD0000014908607047000083
S31508007A8014040140014600200022074B1B6803EA44
S31508007A900102054B14331B680B4013B10AB10120D0
S31508007AA000E000207047000000040140002123493F
S31508007AB08279002A3AD00A46126803689A430B4626
S31508007AC01A600A1D126803689A430B1D1A60027928
S31508007AD011440A6803681A430A60184A0832126889
S31508007AE003689A43154B08331A601A1D126803680F
S31508007AF09A43124B0C331A604279102A0ED11A1F78
S31508007B00126803681A430D4B08331A601A1D126867
S31508007B1003681A43094B0C331A600DE0074942798A
S31508007B2011440A6803681A430A6005E00279114499
S31508007B300A6803689A430A60704700000004014017
S31508007B402DE9F0411048006810490968451A002DCA
S31508007B5000DA6D4201F0CCF8044647F23050844210
S31508007B6010DA071B95FBF7F6C6EB061080006421B2
S31508007B7090FBF1F60023324640F2EA714FF40060BA
S31508007B8008F046FCBDE8F0811C040020180400201B
S31508007B907CB50446002001900090002540F6A970A7
S31508007BA0FEF7D2FA40B1A07820F00300401CA0707E
S31508007BB001203A490870102540F6AA70FEF7C4FA63
S31508007BC040B1A07820F00300401CA0700120334982
S31508007BD00870112540F6AC70FEF7B6FA40B1A078E9
S31508007BE020F00300401CA07001202C4908701225C3
S31508007BF040F6AD70FEF7A8FA40B1A07820F0030071
S31508007C00401CA0700120254908701325002301AAED
S31508007C1040F2D1714FF4006002F006FA00236A467A
S31508007C204FF4FC614FF4006002F0FEF940F2DC51BB
S31508007C300098884202DB0198322814DA184800783E
S31508007C40401C17490870084600780A280EDD0A20E5
S31508007C500870E07820F00C00001DE07001200F4944
S31508007C600870172502E000200D49087040F6A47038
S31508007C70FEF76AFA18B10120084908703425074842
S31508007C800078012806D100232A4640F2EB71C0028B
S31508007C9008F0BEFB014800787CBD000019030020EF
S31508007CA01A0300200549096821F01001034A1160EA
S31508007CB01146096801431160704700000020024020
S31508007CC001460020034A106800F038000843106097
S31508007CD0704700000020024010B500222021074806
S31508007CE000F0BBFD01224021044800F0B6FD002249
S31508007CF04021024800F0B1FD10BD00000008014017
S31508007D002DE9F04105460E46174601200AF0BDFA50
S31508007D1000F084F8A02000F0FBF804F0F5FF38B96D
S31508007D2000F094F800200AF0B0FA0020BDE8F081CF
S31508007D30301200F0EDF804F0E7FF30B900F086F8ED
S31508007D4000200AF0A2FA0020F0E7F0B200F0E0F80E
S31508007D5004F0DAFF30B900F079F800200AF095FA55
S31508007D600020E3E700F05AF8A12000F0D1F804F06B
S31508007D70CBFF30B900F06AF800200AF086FA002036
S31508007D80D4E700241AE000F025F805F8010B781E60
S31508007D90A0420FD1012220210D4800F05EFD0122EC
S31508007DA040210B4800F059FD00224021084800F008
S31508007DB054FD01E0FFF790FF601C84B2BC42E2DB91
S31508007DC000F044F800200AF060FA0120AEE700004F
S31508007DD00008014070B50024FFF7CEFD002515E028
S31508007DE06006040E012240210B4800F036FD2021D2
S31508007DF0094800F029FD012801DB44F001040022AE
S31508007E004021054800F029FD681CC5B2082DE7DBAE
S31508007E10FFF7C4FD204670BD0008014010B50122D9
S31508007E204021094800F019FD01222021064800F0EA
S31508007E3014FD00222021044800F00FFD00224021F5
S31508007E40014800F00AFD10BD0008014010B50022E7
S31508007E502021074800F001FD01224021044800F0D6
S31508007E60FCFC01222021024800F0F7FC10BD0000AE
S31508007E70000801402DE9F04104460D461746012049
S31508007E800AF003FAFFF7CAFFA02000F041F804F051
S31508007E903BFF38B9FFF7DAFF00200AF0F6F90020B1
S31508007EA0BDE8F081281200F033F804F02DFF30B950
S31508007EB0FFF7CCFF00200AF0E8F90020F0E7E8B267
S31508007EC000F026F804F020FF30B9FFF7BFFF0020C6
S31508007ED00AF0DBF90020E3E700260FE014F8010BAF
S31508007EE000F016F804F010FF30B9FFF7AFFF0020D6
S31508007EF00AF0CBF90020D3E7701C86B2BE42EDDB50
S31508007F00FFF7A4FF00200AF0C0F90120C8E7000027
S31508007F1070B5044600251CE004F080066006040ED1
S31508007F20802E05D1012220210B4800F096FC04E0A2
S31508007F3000222021084800F090FC01224021064832
S31508007F4000F08BFC00224021034800F086FC681CE8
S31508007F50C5B2082DE0DB70BD000801401CB5002045
S31508007F60019057200090002301AA40F2F4714FF4C3
S31508007F70006002F059F800236A4640F24A414FF47D
S31508007F80006002F051F8DDE90010884216DB294846
S31508007F900078401C274908700020274908702548A2
S31508007FA000781E2826DB1E2022490870002301229D
S31508007FB040F6AE71D00208F02BFA1BE00198C01CFF
S31508007FC00099884216DC1C480078401C1A4908703B
S31508007FD0002018490870184800781E280ADB1E2059
S31508007FE01549087000231A4640F6AE714FF4006032
S31508007FF008F00EFA002301AA40F6AE714FF40060AD
S3150800800002F012F80198012809D106200AF03CFC72
S315080080100A48007840F020000849087008E0074838
S31508008020007800F0DF000549087007200AF02CFCEC
S315080080301CBD0000790400207A0400201B000020E3
S3150800804070B504460D46242D73D2DFE805F072128A
S31508008050304A5158738DA7C1F5F3F2F1F0EFEEED02
S31508008060ECEBEAE9E8E7E6E5E4E3E2E1E0DFDEDDBA
S31508008070DCDB0BF055FE06460BF02EFE06433EB142
S31508008080D948007820F00300801CD74908700DE015
S3150800809034B1D548007864F30100D349087005E087
S315080080A0D148007820F00300CF4908709AE10BF018
S315080080B05BFE38B1CC48007820F00C000830CA497D
S315080080C008700DE034B1C848007864F38300C649E7
S315080080D0087005E0C448007820F00C00C249087012
S315080080E080E1C148007864F30510BF49087079E15A
S315080080F0BD48007864F38710BB49087072E10BF03D
S3150800810037FD38B1B848407820F00300801CB649DE
S3150800811048700DE034B1B448407864F30100B249C0
S31508008120487005E0B048407820F00300AE49487032
S3150800813058E156E10BF040FD38B1AB48407820F0E5
S315080081400C000830A84948700DE034B1A6484078BC
S3150800815064F38300A449487005E0A348407820F0FA
S315080081600C00A14948703DE10BF04AFD38B19E4824
S31508008170407820F0300020309B4948700DE034B13B
S315080081809948407864F305109749487005E0964881
S31508008190407820F030009449487023E10BF054FDF4
S315080081A038B19148407820F0C00080308E49487038
S315080081B00DE034B18C48407864F387108A494870DA
S315080081C005E08948407820F0C0008749487009E1F1
S315080081D00BF0EEFD38B18448807820F00300801C4F
S315080081E0814988700DE034B17F48807864F30100D6
S315080081F07D49887005E07C48807820F003007A493C
S315080082008870EFE0E6E0DCE0D2E0CAE0C2E0BAE07F
S31508008210B2E0AAE0A2E090E088E080E078E070E0D2
S3150800822068E060E058E050E048E046E03EE036E0CE
S315080082302EE026E01EE0FFE70BF002FE06460BF0F6
S3150800824023FE06433EB16848807820F00C000830CB
S31508008250654988700DE034B16348807864F383001B
S315080082606149887005E06048807820F00C005E4916
S315080082708870B7E05C48807864F305105A498870BE
S31508008280B0E05948807864F3871057498870A9E0A8
S315080082905548C07864F301005349C870A2E05248B3
S315080082A0C07864F383005049C8709BE04E48007953
S315080082B064F300004C49087194E093E04A48007959
S315080082C064F38200484908718CE04748007964F3F2
S315080082D0C3004549087100BF4348007964F3041098
S315080082E0414908717EE04048007964F345103E49EB
S315080082F0087177E03C48007964F386103A490871BA
S3150800830070E03948007964F3C7103749087169E0A5
S315080083103548407964F300003349487162E03248D1
S31508008320407964F34100304948715BE02E48407952
S3150800833064F382002C49487154E034B12A484079E4
S3150800834064F3C3002849487107E00DF085F826490B
S31508008350497960F3C3012448417100BF2248407936
S3150800836064F30410204948713CE01F48407964F3DF
S3150800837045101D49487135E01B48407964F386105D
S31508008380194948712EE01848407964F3C710164910
S31508008390487127E01448807964F30000124988710F
S315080083A020E01148807964F341000F49887119E08B
S315080083B00BF022FD0C49897960F382010A48817124
S315080083C010E00BF065FC0849897960F3C30106489B
S315080083D0817107E00448807964F3041002498871C2
S315080083E000E000BF00BF70BDCC03002010B52348D5
S315080083F000780A2806DB00202049087000F048F8B3
S3150800840000F08AF81D484078322804DB08F032FF6D
S3150800841000201A4948701948C0781E2802DB002037
S315080084201649C87015488078642802DB002013496D
S31508008430887012480079642804DB00200F49087107
S315080084400F4908700D484079642804DB00200B4961
S3150800845048710C49087009488079642802DB0020B5
S31508008460064988710548C079642806DB0020034957
S31508008470C871054908700549087010BDC403002075
S31508008480C3040020AA040020B4040020010500202B
S3150800849008B500236A4640F2D1714FF4006001F036
S315080084A0C3FD0098000A1B4948710098C1B21948D3
S315080084B0817100236A4640F2D2714FF4006001F0E0
S315080084C0B3FD0098010A1348C1710098C1B211485A
S315080084D0017200236A4640F2D3714FF4006001F03E
S315080084E0A3FD0098010A0B4841720098C1B20948D9
S315080084F0817200236A4640F2E9714FF4006001F088
S3150800850093FD0098010A0348C1720098C1B2014858
S31508008510017308BDA806002008B500236A4640F284
S31508008520D1714FF4006001F07FFD0098010A1B48E5
S3150800853041750098C1B21948817500236A4640F210
S31508008540D2714FF4006001F06FFD0098010A1348DC
S31508008550C1750098C1B21148017600236A4640F2F7
S31508008560D3714FF4006001F05FFD0098010A0B48D3
S3150800857041760098C1B20948817600236A4640F2DE
S31508008580E9714FF4006001F04FFD0098010A0348B5
S31508008590C1760098C1B20148017708BDA806002037
S315080085A010B50C48007850B10B48007838B90B481C
S315080085B0007820B90AF0A4FC00200649087007488C
S315080085C00078012804D109F01DFF0020034908702E
S315080085D010BD00008D0300207F0300208E030020BD
S315080085E010B56420194908600820087318480088DF
S315080085F0052824DA17480078012820D100240AE043
S315080086001348008804EBC0001349095C0F48001D95
S315080086100155601CC4B2082CF2DB0D480088401CCA
S315080086200B49088009480178021D0C480078FCF7B8
S315080086300FF80621AFF25700FEF7F0FF04E000201E
S31508008640044908700249088010BD000098060020F9
S315080086507C0300207F0300206606002070030020AC
S3150800866030B500228B071C0F0F2303FA04F20B4BBD
S315080086708C1053F824309343084C8D1044F8253059
S3150800868023468C1053F824308C07240F00FA04F480
S315080086902343024C8D1044F8253030BD08000140B4
S315080086A02DE9F0410246002500260020002300247B
S315080086B0002791F803C00CF00F0591F803C00CF0E1
S315080086C0100CBCF1000F03D091F802C04CEA050566
S315080086D091F800C0BCF1000F31D0146800202BE0DF
S315080086E04FF0010C0CFA00F3B1F800C00CEA0306CF
S315080086F09E4220D183004FF00F0C0CFA03F7BC43BF
S3150800870005FA03FC4CEA040491F803C0BCF1280FEF
S3150800871006D14FF0010C0CFA00FCC2F814C00AE0AE
S3150800872091F803C0BCF1480F05D14FF0010C0CFAC3
S3150800873000FCC2F810C0401C0828D1D31460B1F858
S3150800874000C0BCF1FF0F34DD546800202EE000F1B4
S31508008750080C4FF0010808FA0CF3B1F800C00CEA4F
S3150800876003069E4221D183004FF00F0C0CFA03F743
S31508008770BC4305FA03FC4CEA040491F803C0BCF1B7
S31508008780280F05D100F1080C08FA0CF8C2F8148075
S3150800879091F803C0BCF1480F07D100F1080C4FF05F
S315080087A0010808FA0CF8C2F81080401C0828CED335
S315080087B05460BDE8F0810000F0B50A4600230024A5
S315080087C00021002500F00046B6F1004F02D11D4EEB
S315080087D0F16901E01B4E7168C0F3034583B200F4EA
S315080087E04016B6F5401F08D121F07061154E76681F
S315080087F026F07066134F7E6012E000F48016B6F518
S31508008800801F06D1032606FA05F4A14341F07061DC
S3150800881006E0460D360103FA06F6B14341F07061EB
S3150800882022B1460D360103FA06F6314300F000463A
S31508008830B6F1004F02D1034EF16101E0014E7160BD
S31508008840F0BD0000000001400246002093680B407E
S315080088500BB1012000E0002070470AB1016100E079
S31508008860416170471FB50020009001900290039067
S315080088700F4800880F490988884218D00C48008894
S3150800888000EB800202EBC0000B4A81180D226846F5
S31508008890FBF748FC684601F0BCFE05480088401C0A
S315080088A0142190FBF1F201FB1200014908801FBD5B
S315080088B0BC040020BA0400200E2300201FB50020A7
S315080088C00090019002900390134800881349098884
S315080088D0884220D012480078E8B90120104908706B
S315080088E00D48008800EB800202EBC0000D4A811893
S315080088F00D226846FBF716FC68460AF051FE012869
S3150800890009D105480088401C1E2190FBF1F201FBA5
S315080089101200014908801FBDB8040020B6040020D3
S31508008920BE0400208821002038B5002400200090CD
S3150800893000236A4640F6A6714FF4006001F074FB06
S315080089400098012802D144F0010404E000980228A6
S3150800895001D144F0020400236A4640F6A7714FF499
S31508008960006001F061FB0098012802D144F004047C
S3150800897004E00098022801D144F0080400236A465E
S315080089804FF47A614FF4006001F04EFB009801281D
S3150800899002D144F0100404E00098022801D144F002
S315080089A0200400236A4640F6A1714FF4006001F0E6
S315080089B03BFB0098012802D144F0400404E00098EB
S315080089C0022801D144F0800400236A4640F6AC71BF
S315080089D04FF4006001F028FB0098012802D144F406
S315080089E0807404E00098022801D144F4007400233E
S315080089F06A4640F6AD714FF4006001F015FB009829
S31508008A00012802D144F4806404E00098022801D1C8
S31508008A1044F40064204638BD38B5002400236A466D
S31508008A2040F6A4714FF4006001F0FEFA00980128A0
S31508008A3002D144F0010404E00098022801D144F070
S31508008A40020400236A4640F6A5714FF4006001F05F
S31508008A50EBFA0098012802D144F0040404E00098D7
S31508008A60022801D144F0080400236A4640F6A271A0
S31508008A704FF4006001F0D8FA0098012802D144F0BA
S31508008A80100404E00098022801D144F020040023D1
S31508008A906A4640F6A3714FF4006001F0C5FA0098E3
S31508008AA0012802D144F0400404E00098022801D1CC
S31508008AB044F0800400236A4640F6A8714FF400602B
S31508008AC001F0B2FA0098012802D144F4807404E057
S31508008AD00098022801D144F4007400236A4640F63F
S31508008AE0AB714FF4006001F09FFA0098012802D19B
S31508008AF044F4806404E00098022801D144F4006438
S31508008B00204638BD38B5002400236A4640F6AF71C2
S31508008B104FF4006001F088FA009808B144F00104A7
S31508008B2000236A4640F6AE714FF4006001F07CFA05
S31508008B30009808B144F0020400236A4640F6B17171
S31508008B404FF4006001F070FA009808B144F004048C
S31508008B5000236A464FF47B614FF4006001F064FA23
S31508008B60009808B144F0080400236A4640F6B37139
S31508008B704FF4006001F058FA009808B144F0100468
S31508008B8000236A4640F6B4714FF4006001F04CFACF
S31508008B90009808B144F0200400236A4640F6B571EF
S31508008BA04FF4006001F040FA009808B144F0400420
S31508008BB000236A4640F6B4714FF4006001F034FAB7
S31508008BC0009808B144F0800400236A4640F6B9715B
S31508008BD04FF4006001F028FA009808B144F4807454
S31508008BE000236A4640F6BA714FF4006001F01CFA99
S31508008BF0009808B144F4007400236A4640F6BB7135
S31508008C004FF4006001F010FA009808B144F480644B
S31508008C1000236A4640F6BC714FF4006001F004FA7E
S31508008C20009808B144F4006400236A4640F6BD7112
S31508008C304FF4006001F0F8F9009808B144F4805444
S31508008C40204638BD38B5002400236A4640F6BF7171
S31508008C504FF4006001F0E8F9009808B144F0010407
S31508008C6000236A464FF47C614FF4006001F0DCF99A
S31508008C70009808B144F0040400236A4640F6C1711E
S31508008C804FF4006001F0D0F9009808B144F00804E8
S31508008C90204638BD38B500200090002400236A46D7
S31508008CA040F6B8314FF4006001F0BEF940F6A67000
S31508008CB0FDF74AFA18B10098552800D10124204634
S31508008CC038BD38B500200090002400236A4640F6D7
S31508008CD0B9314FF4006001F0A7F940F6A770FDF727
S31508008CE033FA18B10098552800D10124204638BD1A
S31508008CF00021002000BF05E0054A52F82120104453
S31508008D004A1CD1B20A29F7DB0A2290FBF2F0704717
S31508008D10F00700200246002108E0064850F8210026
S31508008D20904201D101207047481CC1B20429F4D3EE
S31508008D300020F8E7705F010838B504460D460020A4
S31508008D40009000236A4640F2D1714FF4006001F0AA
S31508008D506BF90098000A1D490870009848700023AE
S31508008D606A464FF4FA614FF4006001F05DF9009825
S31508008D70000A164988700098C87000236A4640F2AF
S31508008D80D2714FF4006001F04FF94EF66021009859
S31508008D90081A00900098000A0C4908710098487152
S31508008DA000236A4640F2E9714FF4006001F03CF98D
S31508008DB00098000A054988710098C8710A469021EA
S31508008DC02046FBF745FC012038BD0000A003002023
S31508008DD038B504460D460020009000236A4640F246
S31508008DE0DF714FF4006001F01FF90098000A174977
S31508008DF008700098487000236A4640F2E5714FF4FF
S31508008E00006001F011F911490098887000236A463C
S31508008E104FF4FC614FF4006001F006F90098000A6F
S31508008E200A49C8700098087100236A4640F2E6713C
S31508008E304FF4006001F0F8F80449009848710A46B2
S31508008E4091212046FBF704FC012038BDA003002031
S31508008E5038B504460D460020009000236A4640F2C5
S31508008E60E1714FF4006001F0DFF8154900980870C9
S31508008E7000236A4640F2E7714FF4006001F0D4F827
S31508008E800F490098487000236A4640F2E2714FF491
S31508008E90006001F0C9F80A490098887000236A46FC
S31508008EA04FF4FD614FF4006001F0BEF804490098E4
S31508008EB0C8700A4692212046FBF7CAFB012038BD36
S31508008EC0A00300207CB504460D46002001900090C2
S31508008ED0002301AA40F2D3714FF4006001F0A4F810
S31508008EE0234901980870002301AA40F2D9714FF46A
S31508008EF0006001F099F81E4901984870002301AAFC
S31508008F004FF4FB614FF4006001F08EF818490198A0
S31508008F10887018480078C870002301AA40F2F63114
S31508008F204FF4006001F080F800236A4640F2E971C8
S31508008F304FF4006001F078F8DDE9001048434FF47B
S31508008F407A7190FBF1F001900198000E08490871BA
S31508008F500198000C48710198000A88710198C87137
S31508008F600A4693212046FBF773FB01207CBD0000CF
S31508008F70A0030020D403002038B504460D4600207F
S31508008F80009000236A4640F2D6714FF4006001F063
S31508008F904BF823490098087000236A4640F2D771B7
S31508008FA04FF4006001F040F81D490098487000230E
S31508008FB06A4640F2EC714FF4006001F035F8184942
S31508008FC00098887000236A4640F2ED714FF40060FD
S31508008FD001F02AF812490098C870124800780871FA
S31508008FE000236A4640F2FE314FF4006001F01CF897
S31508008FF00098000A0A4948710098887100236A4651
S3150800900040F2F4714FF4006001F00EF8044900983C
S31508009010C8710A4694212046FBF71AFB012038BD81
S31508009020A00300201B00002070B59AB005460E4626
S31508009030602102A8FBF78FF8002001900024009019
S3150800904000236A4640F2D6714FF4006000F0ECFF48
S3150800905000BF13E02146012301AA980200F0E4FFAD
S315080090600198C0F3072002A901F81400012101EBB9
S31508009070440102AA01985054601CC4B20098844264
S31508009080E8DB002423E0062094FBF0F100FB114006
S31508009090401C124902AA125D0A54601C062190FB64
S315080090A0F1F201FB120028B101210098C1EB400042
S315080090B0A0420AD1062094FBF0F0401C074908702C
S315080090C00A4695212846FBF7C3FA601CC4B20098E5
S315080090D0B4EB400FD7DB01201AB070BDA003002007
S315080090E070B588B006460D46142103A8FBF733F879
S315080090F000200290002401902878AA280CD1A8788C
S3150800910029498880E878C88028790881687948815B
S3150800911001202649087002E000202449087000232F
S3150800912001AA40F2D7714FF4006000F07DFF0620D7
S31508009130019000240BE004F13001012302AA9802F1
S3150800914000F072FF03A902980855601CC4B2019882
S315080091508442F0DB002421E0072094FBF0F100FBB9
S315080091601140401C124903AA125D0A54601C0721CB
S3150800917090FBF1F201FB120018B10198401EA042C3
S315080091800AD1072094FBF0F0401C094908700A46EA
S3150800919096213046FBF75CFA601CC4B201988442FB
S315080091A0DADB012008B070BDDA040020FE040020D6
S315080091B0A003002070B504460D46104800781049F3
S315080091C008700E48407848700C48807888700B48BC
S315080091D0C078C8700948007908710848407948710C
S315080091E00648807988710548C079C8710A4697216A
S315080091F02046FBF72DFA012070BD0000D40200209E
S31508009200A003002070B504460D46104800781049A2
S3150800921008700E48407848700C48807888700B486B
S31508009220C078C870094800790871084840794871BB
S315080092300648807988710548C079C8710A46982118
S315080092402046FBF705FA012070BD0000CC0300207C
S31508009250A0030020F8B505460E460020009000241D
S315080092602148007818B101202049087002E0002042
S315080092701E49087000201D49087000236A4640F2FE
S31508009280F7714FF4006000F0CFFE47F230500090BF
S315080092900098000A154948700098887000236A46A5
S315080092A04FF47C714FF4006000F0BEFE00200F49B9
S315080092B0C87000240AE00C4800780121A140084043
S315080092C018B1601C0949C87003E0641C0098844200
S315080092D0F1D300BF00200549C8700A4699212846DF
S315080092E0FBF7B6F90120F8BDD4020020A003002040
S315080092F00246002108E0064850F82100904201D1B4
S3150800930001207047481CC1B20429F4D30020F8E7AD
S31508009310805F010838B5044600200090002540F615
S31508009320A670FCF711FF28B90AF0FAFC10B90AF082
S31508009330D3FC88B100236A4640F2DF714FF400601F
S3150800934000F072FE0098B0F5965F05DA207820F0F6
S3150800935030001030207001254FF47A60FCF7F4FED7
S3150800936028B1207820F00C00001D20700125284621
S3150800937038BD0146002903DB0F2901DC012018E06E
S31508009380102903DB4F2901DC022012E0502903DBF8
S315080093908F2901DC03200CE0902903DBBF2901DCBF
S315080093A0042006E0D02903DBEF2901DC052000E0D4
S315080093B000207047F8B504460E46002500200090A8
S315080093C000236A4640F2F6314FF4006000F02CFEA6
S315080093D00098000E124908700098000C4870009812
S315080093E0000A88700098C87000236A4640F2F9316E
S315080093F04FF4006000F018FE0098000E0849087146
S315080094000098000C48710098000A88710098C87185
S315080094100A4650212046FBF71BF92846F8BD0000EE
S31508009420A0030020F8B504460E460025002000904B
S3150800943000236A4640F2EF314FF4006000F0F4FD75
S3150800944025490098087000236A464FF47C714FF44A
S31508009450006000F0E9FD20490098487000236A463C
S3150800946040F2F1314FF4006000F0DEFD1A49009831
S31508009470887000236A4640F2F2314FF4006000F02B
S31508009480D3FD15490098C87000236A4640F2F331A7
S315080094904FF4006000F0C8FD0F49009808710023DA
S315080094A06A464FF47D714FF4006000F0BDFD0A492D
S315080094B00098487100236A4640F2F5314FF400607F
S315080094C000F0B2FD0449009888710A4651212046E9
S315080094D0FBF7BEF82846F8BDA0030020F8B50446F9
S315080094E00E4600250020009000236A4640F2FA3115
S315080094F04FF4006000F098FD4FF47A71009890FBE5
S31508009500F1F000900098000E154908700098000CBC
