S31508004000E84000200141000805BA000839B4000854
S3150800401001BA00083550000815060108000000001E
S3150800402000000000000000000000000051D5000854
S31508004030397200080000000039BB000819F80008AA
S315080040401B4100081B4100081B4100080DC8000859
S315080040501B4100081B4100086D7600081B4100083B
S315080040601B41000893760008A17600081B4100084A
S315080040701B4100081B4100081B4100081B410008A2
S315080040801B4100081B4100081B410008E705010801
S31508004090E90501081B4100081B410008AF76000826
S315080040A01B4100081B4100081B4100081B41000872
S315080040B01B4100081B4100081B4100081B41000862
S315080040C01B4100081B4100081B4100081B41000852
S315080040D01B4100088DFE00083DFF0008F9FF000897
S315080040E07B760008C9C600081B410008DFF80CD01B
S315080040F000F03CF800480047C5200108E8400020C9
S315080041000648804706480047FEE7FEE7FEE7FEE763
S31508004110FEE7FEE7FEE7FEE7FEE7FEE78DF80008A6
S31508004120ED40000840EA01039B0703D009E008C9EF
S31508004130121F08C0042AFAD203E011F8013B00F85E
S31508004140013B521EF9D27047D2B201E000F8012BAA
S31508004150491EFBD270470022F6E710B513460A46F9
S3150800416004461946FFF7F0FF204610BD064C074DDA
S3150800417006E0E06840F0010394E807009847103429
S31508004180AC42F6D3FFF7B6FF986A0108B86A010889
S3150800419070B58C1810F8015B15F0070301D110F8FB
S315080041A0013B2A1106D110F8012B03E010F8016B28
S315080041B001F8016B5B1EF9D12B0705D40023521EAB
S315080041C00DD401F8013BFAE710F8013BCB1A921C13
S315080041D003E013F8015B01F8015B521EF9D5A14211
S315080041E0D8D3002070BD21B1826842F001028260F6
S315080041F003E0826822F001028260704710B5044627
S315080042001248844208D10121401507F0D1FF002148
S31508004210601507F0CDFF17E00D48844208D101214B
S31508004220001507F0C5FF0021201507F0C1FF0BE0B8
S315080042300848844208D10121C80307F0B9FF0021C4
S315080042404FF4004007F0B4FF10BD00000024014001
S3150800425000280140003C0140014600208A6802F01F
S3150800426004020AB1012000E0002070470146C86C2C
S3150800427080B270470246002013680B400BB101203C
S3150800428000E000207047014600208A6802F0080214
S315080042900AB1012000E000207047000030B5024650
S315080042A00020002350680F4C20400D790C6844EA22
S315080042B005242043506090680B4C2040D1E90254F5
S315080042C02C434D7944EA450420439060D06A20F493
S315080042D070000C7C641EE4B2234340EA0350D062AB
S315080042E030BD0000FFFEF0FFFDF7F1FF10B506F048
S315080042F00DF830B10E48007840F001000C490870FE
S3150800430005E00B48007800F0FE000949087006F041
S3150800431009F830B10648007840F0020004490870F0
S3150800432005E00348007800F0FD000149087010BD5B
S315080043301B000020F0B504460D4600200021092D7B
S3150800434011DDE068A5F10A0606EB4607072606FA18
S3150800435007F18843A5F10A0606EB460603FA06F1B5
S315080043600843E0600CE0206905EB4507072606FAD6
S3150800437007F1884305EB450603FA06F10843206171
S31508004380072A0FDA606B561E06EB86071F2606FA03
S3150800439007F18843561E06EB860605FA06F108431A
S315080043A0606322E00D2A0FDA206BD61F06EB86071C
S315080043B01F2606FA07F18843D61F06EB860605FA76
S315080043C006F10843206310E0E06AA2F10D0606EB49
S315080043D086071F2606FA07F18843A2F10D0606EBA3
S315080043E0860605FA06F10843E062F0BD816841F0E9
S315080043F008018160704721B1826842F4A002826098
S3150800440003E0826822F4A00282607047816841F066
S31508004410040181607047000010B504461148008801
S31508004420401C142190FBF1F201FB12000E49098889
S31508004430884215D00B49098801EB810202EBC101BC
S315080044400A4A88180D222146FFF76CFE054800889F
S31508004450401C142190FBF1F201FB1200014908806F
S3150800446010BD0000480400204A0400206C1F0020EC
S3150800447010B5044614480088401C1E2190FBF1F232
S3150800448001FB12001149098888421BD0E07808B957
S315080044900820E0700C49098801EB810202EBC10192
S315080044A00B4A88180D222146FFF73CFE064800886D
S315080044B0401C1E2190FBF1F201FB12000249088004
S315080044C0012010BD0020FCE744040020460400201B
S315080044D0E61D002030B50F490988491C142291FBB6
S315080044E0F2F302FB13110C4A1288914211D00B49C0
S315080044F0084A128801EB021190E83C003CC10549C4
S315080045000988491C142291FBF2F302FB1311014A94
S31508004510118030BD36040020380400201C1A002003
S3150800452030B5014618480088401C1E2290FBF2F35D
S3150800453002FB1300154A1288904222D0087B08B95C
S31508004540082008730868B0F5006F02D9012088733F
S3150800455001E000208873002048730D480A4A128833
S3150800456000EB021091E83C003CC007480088401C5C
S315080045701E2290FBF2F302FB1300034A108001206F
S3150800458030BD0020FCE7000032040020340400207F
S315080045903C18002010B5044611480088401C0A2122
S315080045A090FBF1F201FB12000E490988884215D0EA
S315080045B00B49098801EB810202EBC1010A4A8818F6
S315080045C00D222146FFF7AEFD05480088401C0A214A
S315080045D090FBF1F201FB12000149088010BD0000B2
S315080045E05204002054040020F220002010B504468E
S315080045F014480088401C0A2190FBF1F201FB1200C6
S315080046001149098888421BD0E07808B90820E0706B
S315080046100C49098801EB810202EBC1010B4A881893
S315080046200D222146FFF77EFD06480088401C0A2118
S3150800463090FBF1F201FB120002490880012010BD2F
S315080046400020FCE74E0400205004002070200020C3
S3150800465070B588B005460E461446002004900590AD
S3150800466006900790009001900290039065BBA520E4
S315080046708DF8100001208DF811008DF812600820C1
S315080046808DF8130020788DF8140061788DF81510D0
S31508004690A1788DF81610E1788DF8171021798DF824
S315080046A0181061798DF81910A1798DF81A10E17929
S315080046B08DF81B1004A80FC807F0BAFF8DF81C0068
S315080046C004A800F013F985E0022D2CD1A5208DF859
S315080046D0100001208DF811008DF8126008208DF861
S315080046E0130020788DF8140061788DF81510A178DC
S315080046F08DF81610E1788DF8171021798DF81810B5
S3150800470061798DF81910A1798DF81A10E1798DF86B
S315080047101B1004A80FC807F08BFF8DF81C0004A80F
S31508004720FFF7A6FE56E0032D2CD1A5208DF8100024
S3150800473001208DF811008DF8126008208DF81300FD
S3150800474020788DF8140061788DF81510A1788DF809
S315080047501610E1788DF8171021798DF818106179FF
S315080047608DF81910A1798DF81A10E1798DF81B10BA
S3150800477004A80FC807F05CFF8DF81C0004A8FFF713
S3150800478035FF27E0012D25D14FF0C05000EB06403C
S3150800479000F58040401C009008208DF80C00207819
S315080047A08DF8040061788DF80510A1788DF806104B
S315080047B0E1788DF8071021798DF8081061798DF860
S315080047C00910A1798DF80A10E1798DF80B10684661
S315080047D0FFF7A6FE08B070BD10B50446124800885B
S315080047E0401C0A2190FBF1F201FB12000F490988CF
S315080047F0884217D00C49098801EB410202EBC11126
S315080048000B4A02EB41004FF483722146FFF78AFCFC
S3150800481005480088401C0A2190FBF1F201FB1200B2
S315080048200149088010BD00007C0400207E04002099
S31508004830A632002010B5044613480088401C0A21F9
S3150800484090FBF1F201FB120010490988884219D041
S315080048500D49098801EB410202EBC1110C4A02EB32
S3150800486041004FF483722146FFF75CFC0648008836
S31508004870401C0A2190FBF1F201FB12000249088054
S31508004880012010BD0020FCE7780400207A040020EF
S315080048906A28002010B5044611480088401C1421D7
S315080048A090FBF1F201FB12000E490988884215D0E7
S315080048B00B49098801EB810202EBC1010A4A8818F3
S315080048C00D222146FFF72EFC05480088401C1421BE
S315080048D090FBF1F201FB12000149088010BD0000AF
S315080048E03E04002040040020E21C002010B50446C7
S315080048F014480088401C1E2190FBF1F201FB1200AF
S315080049001149098888421BD0E07808B90820E07068
S315080049100C49098801EB810202EBC1010B4A881890
S315080049200D222146FFF7FEFB06480088401C1E2183
S3150800493090FBF1F201FB120002490880012010BD2C
S315080049400020FCE73A0400203C0400205C1B002001
S315080049507CB50024002500200190009000BFACE043
S3150800496004EB4400664951F8200040F6A2718842DB
S3150800497008D004EB4400624951F8200040F6A471BF
S31508004980884217D1002301AA40F2D3714FF4006080
S3150800499004F0D4FFC0B30198022836D104EB4400D2
S315080049A0574A52F8201000231A464FF400600AF0BE
S315080049B069FB80E004EB4400514951F8200040F6B9
S315080049C0A371884208D004EB44004D4951F82000F1
S315080049D040F6A571884218D1002301AA40F2D37186
S315080049E04FF4006004F0AAFF70B1019801280CD1B9
S315080049F004EB4400424A52F8201000231A464FF4AA
S31508004A0000600AF03FFB56E0FFE704EB44003C4930
S31508004A1001EB80008068E8B104EB44000A4602EB2B
S31508004A20800000236A4681684FF4006004F086FF20
S31508004A3000B940E0009855280CD145F0020504EB72
S31508004A4044002F4A52F820100023022290020AF04E
S31508004A5019FB30E004EB4400294901EB800040686B
S31508004A60E8B104EB44000A4602EB800000236A46DC
S31508004A7041684FF4006004F061FF00B91BE000983C
S31508004A8055280CD145F0010504EB44001C4A52F8A0
S31508004A90201000230122D0020AF0F4FA0BE004EBFE
S31508004AA04400174A52F8201000231A464FF40060B3
S31508004AB00AF0E8FA00BF601C84B20E2CFFF450AF6F
S31508004AC005F0020038B10023022240F2DC719002A0
S31508004AD00AF0D8FA12E005F0010038B100230122E5
S31508004AE040F2DC71D0020AF0CDFA07E000231A463C
S31508004AF040F2DC714FF400600AF0C4FA7CBD000095
S31508004B00F04501082DE9F04105460E46069C0021B0
S31508004B10002B34D027889F4203DA27887F1C2780FA
S31508004B2000E0238027887F1EB8B206E0471E32F8C9
S31508004B30177022F81070471EB8B20028F6DC1580E8
S31508004B40002004E032F810703944471CB8B22788B0
S31508004B508742F7DCB4F800C00CEB4C07B1FBFCF855
S31508004B600CFB181C4FEAE77807EB9878BCEBA80F04
S31508004B7001D9278839442788B1FBF7F13180BDE888
S31508004B80F0810000F8B505460E4614461F46062D68
S31508004B9039D2DFE805F03803101D2F261B4800EB35
S31508004BA0440000901A4850F824200323394630461A
S31508004BB0FFF7A8FF27E0174800EB440000901648C7
S31508004BC050F82420032339463046FFF79BFF1AE0A6
S31508004BD012480A23124A394600903046FFF792FFD8
S31508004BE011E010480523104A394600903046FFF771
S31508004BF089FF08E00D4805230D4A394600903046DE
S31508004C00FFF780FF00BF00BFF8BD000004050020C5
S31508004C10A001002064050020600200208402002014
S31508004C2076050020880200209405002086020020D0
S31508004C308A05002010B50FF053F905F011FB20B1D5
S31508004C4002480078401C0149087010BD1600002073
S31508004C501FB5002000900190029003900F4800882D
S31508004C600F490988884218D00C48008800EB800252
S31508004C7002EBC0000B4A81180D226846FFF752FA6C
S31508004C80684600F0B5F905480088401C142190FBD9
S31508004C90F1F201FB1200014908801FBD4A040020F9
S31508004CA0480400206C1F00201FB5002000900190CA
S31508004CB0029003901348008813490988884220D037
S31508004CC012480078E8B90120104908700D48008894
S31508004CD000EB800202EBC0000D4A81180D226846DF
S31508004CE0FFF720FA68460CF077F8012809D105483D
S31508004CF00088401C1E2190FBF1F201FB12000149BD
S31508004D0008801FBD46040020440400204C040020EF
S31508004D10E61D0020F8B50024002500200090002696
S31508004D2000236A4640F2EF314FF4006004F006FEB5
S31508004D300098C5B2AA201249087000BF00BF16E045
S31508004D40104830F8140050B10E4830F814102046B8
S31508004D5006F076F855200A490870012605E0094844
S31508004D6030F81410204606F06BF8601CC4B2AC424A
S31508004D70E6DB012332464F2198020AF083F9F8BD93
S31508004D80980200208A0200202DE9FF4100200390A6
S31508004D9002900190002700250026804600900024F6
S31508004DA048480088401C80B246490880052801DA30
S31508004DB0BDE8FF8105204349088043480088401C18
S31508004DC080B241490880B0F5167F06DB00203F49CE
S31508004DD008704FF416703C4908803C480078012852
S31508004DE000D1E5E7002301AA40F2DF714FF4006025
S31508004DF004F0A4FD019F002301AA4FF4FC614FF4BF
S31508004E00006004F09BFD019D002301AA40F2E171B8
S31508004E104FF4006004F092FD019E002301AA40F2BF
S31508004E202D414FF4006004F089FDDDF8048000236D
S31508004E3003AA40F2FF314FF4006004F07FFD00231F
S31508004E4002AA40F2D3714FF4006004F077FD03988C
S31508004E5070B9029801280BD15F2E05DAB5F5C86F2F
S31508004E6002DB1B49087006E002201949087002E0B7
S31508004E7002201749087000F06FFC154800780128D1
S31508004E8019D000236A4640F2EF314FF4006004F06F
S31508004E9055FD002405E00021204605F0D1FF601CE1
S31508004EA0C4B200988442F6DB012300224F219802FF
S31508004EB00AF0E8F87CE700F08BFBFFF72BFF00BF52
S31508004EC076E70000AA020020A40200209A02002029
S31508004ED0990200202DE9F843054600240026002003
S31508004EE0009000278046814600236A4640F2EF314B
S31508004EF04FF4006004F022FD0098C6B200BF0CE033
S31508004F002DB14FF6FF702B4921F8140003E000205D
S31508004F10284921F81400601CC4B2B442F0DB00240E
S31508004F2009E01DB1FF202449085502E00020224966
S31508004F300855601CC4B2082CF3DB2048057055B32D
S31508004F40002425E004F57C7100236A464FF40060CE
S31508004F5004F0F4FC0098074419480078B8420ADCC3
S31508004F6017480078404506DD15480078A0EB08008C
S31508004F701FFA80F901E04FF00009B846A9F10100CF
S31508004F800122824091B2204605F05AFF601CC4B245
S31508004F90B442D7DB09E0002405E00021204605F0ED
S31508004FA04FFF601CC4B2B442F7DB002005490880F5
S31508004FB0BDE8F8838A020020900200209A020020A9
S31508004FC09B020020A402002002480078401C0149E8
S31508004FD008707047740300200448007820B103481D
S31508004FE00078401E0149087070470000170000202D
S31508004FF010B50446607880280BD114200B49087038
S3150800500001200B490870A178221D022006F05EFDDA
S3150800501007E06078402804D1A178221D022006F016
S3150800502055FD00200249087010BD00001700002039
S315080050305C04002000BFFEE708B50121480607F01A
S3150800504087F80121052007F0A3F84FF40060ADF8B2
S31508005050000048208DF803006946204803F014F93B
S315080050604FF48050ADF8000018208DF80300032097
S315080050708DF802006946194803F006F9184800F049
S3150800508035F8184800F0F1F9002016498871012012
S31508005090C87100200872487288720120C872002000
S315080050A08870C87002200871012048711020088095
S315080050B00B4800F0C4F800200B498872C87201201A
S315080050C008730020088048808880C88008810120ED
S315080050D04873084600F026F808BD0000000801409D
S315080050E000640040900400209C04002010B504468B
S315080050F00B48844209D10121480607F039F80021F6
S315080051004FF0007007F034F808E00121880607F030
S315080051102FF800214FF0806007F02AF810BD000034
S315080051200064004010B50021837A012202FA03F1D7
S315080051303D4A126842F001023B4B1A603A4A1C3259
S3150800514012688A43384B1C331A60027BCAB9364A3E
S315080051500C3212688A43344B0C331A604288C3886F
S3150800516042EA0343304A4032847A42F834300288AD
S31508005170838842EA03432C4A4032847A02EBC4020B
S315080051805360027B012A19D1274A0C3212680A4356
S31508005190254B0C331A604288038842EA0343224AA5
S315080051A04032847A42F83430C288838842EA03431C
S315080051B01D4A4032847A02EBC4025360C27A3AB975
S315080051C0194A121D12688A43174B1B1D1A6006E0FE
S315080051D0154A121D12680A43134B1B1D1A600289D1
S315080051E032B9114A143212688A430F4B14331A60C3
S315080051F00289012A06D10C4A143212680A430A4B5C
S3150800520014331A60427B012A06D1074A1C321268F7
S315080052100A43054B1C331A60034A126822F001023E
S31508005220014B1A6010BD0000006600401AB14369C0
S315080052300B43436102E043698B434361704730B5D2
S31508005240024600200023146824F00204146014683F
S3150800525044F00104146000E05B1C546804F0010487
S315080052601CB94FF6FF74A342F6D1546804F0010442
S315080052700CB900206CE08C79012C04D1146844F038
S315080052808004146003E0146824F080041460CC7968
S31508005290012C04D1146844F04004146003E0146837
S315080052A024F0400414600C7A012C04D1146844F0EC
S315080052B02004146003E0146824F0200414604C7A77
S315080052C0012C04D1146844F01004146003E0146837
S315080052D024F0100414608C7A012C04D1146844F06C
S315080052E00804146003E0146824F008041460CC7AF7
S315080052F0012C04D1146844F00404146003E0146813
S3150800530024F0040414608C78A407CD7844EA056474
S315080053100D7944EA05444D7944EA05540D886D1E15
S315080053202C43D461146824F001041460002300E0BF
S315080053305B1C546804F001041CB14FF6FF74A342C9
S31508005340F6D1546804F001040CB1002000E00120F5
S3150800535030BD08B54FF4C06006F08EFB14208DF8FA
S31508005360000000208DF801008DF8020001208DF85C
S315080053700300684606F048FB08BD10B500F5D8736B
S3150800538003EB01131B6803F004031372137A53B972
S3150800539000F5D87303EB01131B6840F2FF7404EAA7
S315080053A05353136009E000F5D87303EB01131B6828
S315080053B06FF0604404EAD303536000F5D87303EB37
S315080053C001131B6803F00203537200F5D87303EB4D
S315080053D001135B6803F00F03937200F5D87303EBB0
S315080053E001135B681B0AD37400F5D87303EB01132A
S315080053F09B68D37200F5D87303EB01139B681C0AEC
S31508005400147300F5D87303EB01139B681C0C5473D3
S3150800541000F5D87303EB01139B681B0E937300F515
S31508005420D87303EB0113DB68D37300F5D87303EB6A
S315080054300113DB681C0A147400F5D87303EB011317
S31508005440DB681C0C547400F5D87303EB0113DB6896
S315080054501B0E937421B9C36843F02003C36003E0AD
S31508005460036943F02003036110BD00218171C171F6
S31508005470017241728172C1728170C170032101711A
S315080054800221417101210180704710B502460020B2
S31508005490936803F08063B3F1806F00D110E09368DE
S315080054A003F00063B3F1006F01D1012008E09368AF
S315080054B003F08053B3F1805F01D1022000E004209D
S315080054C0042874D002F5C07303EB00131B6803F0BD
S315080054D0010402F5C07303EB00131C600B7A7BB959
S315080054E04B7A0C8843EA445302F5C07404EB001463
S315080054F02468234302F5C07404EB0014236010E00B
S315080055000B7A4C6843EAC4034C7A234302F5C07409
S3150800551004EB00142468234302F5C07404EB00145A
S3150800552023608B7A03F00F038B7202F5C07303EBCB
S3150800553000135B6823F00F0402F5C07303EB001336
S315080055405C6002F5C07303EB00135B688C7A234337
S3150800555002F5C07404EB001463608B7B1C064B7B5E
S3150800556044EA03440B7B44EA0323CC7A234302F53B
S31508005570C07404EB0014A3608B7C1C064B7C44EAC5
S3150800558003440B7C44EA0323CC7B234302F5C07413
S3150800559004EB0014E36002F5C07303EB00131B6809
S315080055A043F0010402F5C07303EB00131C6010BD41
S315080055B010B50246002006E013784340034CE05C31
S315080055C0521C4B1ED9B20029F6DC10BD086301082F
S315080055D02DE9F04FD1B0002400250026A146A246A9
S315080055E0A346002050900027AA204F9000204E90F6
S315080055F080464D904C90C0211CA8FEF7ACFD0020BB
S315080056001B901A9000231AAA40F2EF314FF400605B
S3150800561004F094F91A98C0B24E9000231AAA4FF4CF
S315080056208061480004F08AF9DDF8688000231AAA28
S3150800563040F201414FF4006004F080F91A984D9049
S3150800564000231AAA4FF4FC614FF4006004F076F9BF
S315080056501A9880B250903D480078012802D13C48FB
S3150800566000885090684608F007FA342269460DA863
S31508005670FEF758FD002564E00DA830F815001B90CC
S315080056801B98404559D305F57C7100231AAA4FF497
S31508005690006004F053F91A98C6B2102E00DC16B949
S315080056A051B0BDE8F08F002412E008F0EFF900EBE6
S315080056B0470030F814B01CA800EB851020F824B079
S315080056C01CA800EB851000EB84008470601CC4B233
S315080056D0B442EADB1CA901EB851031460BF08EFCBF
S315080056E0B01EC4B227E01CA800EB851000EB8400AE
S315080056F090F802901CA800EB851030F824105098FA
S31508005700A1EB000A4D98824509D31CA800EB851029
S3150800571030F82400404502D355204F9001E0AA20D6
S315080057204F90CDF8309129460A484F9B4C9A04F081
S315080057302BFC601CC4B2B442D5DBB819C7B2681CCE
S31508005740C5B24E98854297DB00BFA9E79E020020A6
S31508005750A00200208A02002038B500240025002077
S31508005760009000236A4640F2EF314FF4006004F0DF
S31508005770E5F80098C5B200BF05E00020084921F801
S315080057801400601CC4B2AC42F7DB002404E000201D
S3150800579004490855601CC4B2082CF8DB38BD000063
S315080057A08A0200209002002010B500F01BFD10BDF3
S315080057B07CB50020019000250026009000240023D7
S315080057C06A4640F6BF714FF4006004F0B7F80098D7
S315080057D000B17CBD002301AA40F2D2714FF40060EB
S315080057E004F0ACF85B480078401C5A490870084633
S315080057F00078282803DC0198401C019006E05548EB
S315080058000078642802DB0020524908705249534A3E
S315080058101278019841F8220050480078401C0A2165
S3150800582090FBF1F201FB12004C49087047F2305127
S315080058300198884251DA01980D1A48F6A040854227
S3150800584001DD0025C5E72E464548007801281ED10A
S31508005850002419E04248408804EB4401414A32F8E2
S31508005860111088420EDD04EB4400114601EB40009E
S315080058704088684304EB440102EB4101898890FBA8
S31508005880F1F603E0601CC4B2042CE3DB00BF364823
S31508005890006858B935480068334908600023344A17
S315080058A040F2F6314FF4006004F048F830480068DA
S315080058B0C0EB401040014FF47A7190FBF1F02B4990
S315080058C00968884204DD2B48006830442949086085
S315080058D02948006828442849086047F23051019849
S315080058E0884235DD0198451A48F6A040854201DD13
S315080058F000256EE72E461A48007802281ED1002495
S3150800590019E01748408804EB44011C4A32F8111084
S3150800591088420EDD04EB4400114601EB4000408846
S31508005920684304EB440102EB4101898890FBF1F6D8
S3150800593003E0601CC4B2042CE3DB00BF0D4800681A
S31508005940801B0C4908600E48006828440C4908600A
S3150800595000BF3EE7EC03002020070020E0030020FC
S31508005960B4030020284B0108E4030020B8030020F4
S31508005970E8030020C8030020D8030020404B010894
S31508005980DC03002038B500200090002400236A4676
S3150800599040F2FE314FF4006003F0D0FF0098322841
S315080059A002DA4FF47A7414E0009832280FDB40F2DA
S315080059B01A41009888420ADC009800EB400101EB86
S315080059C000100849081A642190FBF1F401E04FF42D
S315080059D048740023224640F2FD314FF4006009F076
S315080059E051FB38BD568A01007FB5002500240020EA
S315080059F0039002900190009002F040FF044648F69A
S31508005A00A04084420FD847F2305084420BD3504806
S31508005A100088401C4E490880084600880A2805DD8B
S31508005A200A20088002E000204949088047F22650EB
S31508005A3084420FD845F6C05084420BD345480088A7
S31508005A40401C44490880084600880A2805DD0A20C3
S31508005A50088002E000203F490880002303AA40F29C
S31508005A60DD714FF4006003F069FF002302AA4FF4CA
S31508005A70FC614FF4006003F061FF00236A4640F2C0
S31508005A80DF714FF4006003F059FF002301AA40F2CA
S31508005A90E9714FF4006003F051FF40F2DC510398BE
S31508005AA0884200DA7FBD2A4800880A2813DBA4F555
S31508005AB0EA40303885B2029804F0AAF902902946DD
S31508005AC0029804F055F90290234A0021029803F03F
S31508005AD0E7FF224908801F4800880A2813DB47F297
S31508005AE03050001B85B2009800F008FA009029464D
S31508005AF0009800F0A9F90090194A0021009803F0CF
S31508005B00CFFF16490880154800880199884209DDA3
S31508005B10012014490870114800880199401A114952
S31508005B20488012E00D4800880199884209DA022067
S31508005B300C490870094909880198401A094948809A
S31508005B4003E0002007490870488000BFAAE7000064
S31508005B50F4030020F203002010070020E2030020CF
S31508005B6000070020B40300202DE9F84305460C463B
S31508005B700026002000900027012D04D0022D27D0F2
S31508005B80032D77D153E000203D4908803D49088020
S31508005B903D48006847F24E51884217DC3A4800688B
S31508005BA047F21251884211DB01270023364840F29A
S31508005BB024410268F80209F065FA3348008800B201
S31508005BC02F49088001203149087000E0002752E07B
S31508005BD02E480078012801D000274CE02A480168A1
S31508005BE004F11400814220DC2838274909688842D4
S31508005BF01BDC01272448008800B222490880084691
S31508005C00B0F900001E49B1F90010401A42F21071AD
S31508005C1091FBF0F60023324640F22541F80209F0DE
S31508005C2031FA02201949087000E0002723E01748D6
S31508005C300078022801D000271DE000236A4640F2BA
S31508005C40D2714FF4006003F079FE204600990BF0FC
S31508005C50FAFA804647F2305120460BF0F4FAB8EBD0
S31508005C60D00F05D2012700200849087001E001E09D
S31508005C70002700E000BF00BF3846BDE8F8830000F3
S31508005C80AC020020AE02002078030020B0020020FB
S31508005C901FB50020009001900290039010480078EC
S31508005CA000B11FBD0F4800880F490988884214D0E3
S31508005CB00E480C49098800EB01130FCB8DE80F003D
S31508005CC0684605F017FE07480088401C142190FB1B
S31508005CD0F1F201FB12000349088000BFE1E700006A
S31508005CE01700002038040020360400201C1A002063
S31508005CF01FB5002000900190029003901948008873
S31508005D001949098888422CD018481649098800EB91
S31508005D1001130FCB8DE80F009DF80C2001A9009800
S31508005D2004F09CF968B10F480088401C1E2190FBBE
S31508005D30F1F201FB12000B49088000200C4908709B
S31508005D400FE00B480078401C09490870084600789F
S31508005D500A2806DD04F07AF905F02EFB002004492E
S31508005D6008701FBD34040020320400203C180020AF
S31508005D70570400201CB50020019047F230500090CF
S31508005D8000236A4640F2D2714FF4006003F0D6FD54
S31508005D9047F22651009888420FDA24480088401CAA
S31508005DA022490880084600880A2802DD0120204981
S31508005DB0087000201F4908800EE01E480088401C15
S31508005DC01C49088008460088322802DD0020184948
S31508005DD0087000201549088001A803F003F8012877
S31508005DE011D11348007801280DD14FF47A7009F0C3
S31508005DF083FB00F021F800200D4908700D49088042
S31508005E000A49088006E001A801F0D4FC012801D15E
S31508005E1000F012F840F6A77000F0BEF810B90CF0C2
S31508005E20FBFB10B1002009F067FB1CBDCC0200206B
S31508005E30D0020020CE0200200120704710B501F0E4
S31508005E4041FA01F0FBF910BDF8B506460F460024E5
S31508005E5000254FF47A70009035463C4600236A4682
S31508005E6040F2F6314FF4006003F068FD4FF47A71A2
S31508005E70009890FBF1F00090009818B144F6206065
S31508005E80864201DA2846F8BD002C2EDD04EB840094
S31508005E904000009990FBF1F4B4F57A7F01DD2846BD
S31508005EA0F1E7322C04DC1248006804FB10551CE0AC
S31508005EB0642C0BDC0E480068322101FB1055A4F156
S31508005EC032000C49096800FB11550EE008480068C5
S31508005ED0322101FB10550748006801FB1055A4F153
S31508005EE064000549096800FB11552846CBE7000000
S31508005EF08C030020900300209403002038B5054643
S31508005F000020009000242C4600236A4640F2E271E5
S31508005F104FF4006003F012FD44F62060844202DB71
S31508005F200098002801DA204638BD009841282BDA67
S31508005F300098322807DB0098C0F141001349096828
S31508005F4000FB114420E0009828280CDB0F48006865
S31508005F500F2101FB10440098C0F132000C49096872
S31508005F6000FB114410E0094800680F2101FB1044AA
S31508005F70074800680A2101FB10440098C0F1280070
S31508005F800449096800FB11442046CDE78003002038
S31508005F90840300208803002038B505460024002025
S31508005FA0009000BF43E004EB4400234951F8200069
S31508005FB0A8423AD104EB440001EB80008068A8B1FE
S31508005FC004EB44000A4602EB800000236A46816817
S31508005FD04FF4006003F0B2FC08B9002038BD009801
S31508005FE0552801D10120F9E70020F7E704EB440022
S31508005FF0114901EB80004068A8B104EB44000A4649
S3150800600002EB800000236A4641684FF4006003F003
S3150800601095FC08B90020E1E70098552801D1012030
S31508006020DCE70020DAE70020D8E7601C84B20E2CF3
S31508006030B9D30020D2E70000F045010870B5002466
S315080060401EE0144901F83440002515E0C4EBC400ED
S31508006050284486B21E2E07DA0F48815D05EBC40078
S31508006060401C0C4A115405E0FF2105EBC400401CF6
S31508006070084A1154681C85B2072DE7DB601C84B2F8
S31508006080052CDEDB0020054908800621044801F0BE
S315080060905DF970BDBE050020A00500202403002080
S315080060A0C981000810B500247A2006F02BF908B13A
S315080060B044F001047B2006F025F908B144F00204F7
S315080060C07C2006F01FF908B144F004047D2006F090
S315080060D019F908B144F008047E2006F013F908B14E
S315080060E044F010047F2006F00DF908B144F02004AE
S315080060F006F06EF8204610BD08B500200090002373
S315080061006A4640F2EC714FF4006003F017FC009801
S3150800611010B900200B49087001F078F9012803D15D
S3150800612002200BF0D7FF02E003200BF0D3FF0CF0A0
S3150800613005F818B102200AF0FFFF02E003200AF072
S31508006140FBFF08BDF9030020014601F00F020B1101
S3150800615003EB830302EB4302D0B27047014664297E
S315080061600ADA0A2091FBF0F200FB121291FBF0F01A
S3150800617002EB0010C0B270470020FCE730B50246BB
S315080061800B464FF6FF7011E012F8014B60400021F4
S315080061900AE000F0010424B140104AF2010460400C
S315080061A000E040104C1CE1B20829F2DB1C1EA3F1EA
S315080061B00105EBB2E8D130BD00B5034603F0AEFBEE
S315080061C00246802A07D0054840F82230044800686D
S315080061D0401C03490860104600BD00003C1600201C
S315080061E02C04002008B50020009000236A464FF4CE
S315080061F07A714FF4006003F0A1FB0099C8B200F071
S3150800620030F90099C8B200F074F80099C8B200F0E5
S3150800621009F800F0D5F800F07DF90099C8B200F049
S3150800622040F908BD2DE9FC5F07464FF0000AD34642
S3150800623000254FF6FF76A846B14600200190304665
S315080062400090012423E0234601AA47214FF48060E9
S3150800625003F074FB23466A4648214FF4806003F036
S315080062606DFB019885B2009886B2012C04D1A84628
S31508006270B146A246A34608E0A84501DAA846A246C2
S31508006280B14501DDB146A34600BF601CC4B2BC429D
S31508006290D9DD0023424640F2E1714FF4006008F070
S315080062A0F1FE534601AA4B214FF4806003F046FBEA
S315080062B0002340F2E7714FF40060019A08F0E2FE0D
S315080062C000234A4640F2E2714FF4006008F0DAFE15
S315080062D05B466A464C214FF4806003F02FFB00238F
S315080062E04FF4FD614FF40060009A08F0CBFEBDE85C
S315080062F0FC9F2DE9FC5F07464FF0000AD3460025B0
S315080063004FF6FF76A846B146002001903046009029
S31508006310012423E0234601AA43214FF4806003F0B9
S315080063200DFB23466A4644214FF4806003F006FBC2
S31508006330019885B2009886B2012C04D1A846B146C8
S31508006340A246A34608E0A84501DAA846A246B145F2
S3150800635001DDB146A34600BF601CC4B2BC42D9DD0C
S315080063600023424640F2DF714FF4006008F08AFECF
S31508006370534601AA49214FF4806003F0DFFA00234F
S3150800638040F2E5714FF40060019A08F07BFE0023A5
S315080063904A464FF4FC614FF4006008F073FE5B4612
S315080063A06A464A214FF4806003F0C8FA002340F297
S315080063B0E6714FF40060009A08F064FEBDE8FC9FA1
S315080063C07FB50024002500200390029001900090DC
S315080063D0002303AA40F2DF714FF4006003F0AEFA1F
S315080063E0002302AA4FF4FC614FF4006003F0A6FAFA
S315080063F0DDE90210884203DDDDE90210401A02E0F9
S31508006400DDE90201401A84B20023224640F2E37114
S315080064104FF4006008F036FE002301AA40F2E1714D
S315080064204FF4006003F08AFA00236A4640F2E271EC
S315080064304FF4006003F082FADDE90010884203DDBC
S31508006440DDE90010401A02E0DDE90001401A85B2D4
S3150800645000232A4640F2E4714FF4006008F012FE69
S315080064607FBDF8B5054600270026002000900024C9
S315080064700CE0601CC3B26A464021080103F05EFACC
S31508006480009887B2F01986B2601CC4B2AC42F0DB41
S315080064900023324640F2D1714FF4006008F0F2FD55
S315080064A0F8BD2DE9F84F07464FF000090020009087
S315080064B00026804601241DE004F2F23100236A46D4
S315080064C04FF4006003F03AFA009800F0FF0900253F
S315080064D00CE005F1300123466A464FF4806003F06C
S315080064E02DFA00988044761C681CC5B24D45F0DB31
S315080064F0601CC4B2BC42DFDD002E09DD98FBF6FA4B
S315080065000023524640F2DE714FF4006008F0BAFDEF
S31508006510BDE8F88F1CB50020019000BF009000234D
S3150800652001AA40F2D1714FF4006003F007FA002384
S315080065306A4640F2D6714FF4006003F0FFF9642111
S3150800654001984843009990FBF1F40023224640F253
S31508006550DD714FF4006008F095FD1CBD3EB54FF4A3
S31508006560FA71FE48FDF7F7FD002302AA40F2D6713C
S315080065704FF4006003F0E2F90298C5B22025002422
S3150800658012E02146012301AA980203F0D7F90198DF
S31508006590C0F30721F14A02F814100198C1B260004D
S315080065A0401C1154601CC4B2AC42EADB002302AAA8
S315080065B040F2D7714FF4006003F0C0F90298C5B2F3
S315080065C00825002414E004F13001012301AA9802E9
S315080065D003F0B4F90198C0F3072160004030DF4AA0
S315080065E011540198C1B2600041301154601CC4B204
S315080065F0AC42E8DB002301AA40F2D1714FF40060F7
S3150800660003F09CF90198000AD44981F850000198D2
S3150800661081F85100002301AA40F2D2714FF40060BC
S3150800662003F08CF94EF660210198081A019001983A
S31508006630000ACA4981F85200019881F853000023DC
S3150800664001AA40F2E9714FF4006003F077F9019866
S31508006650000AC24981F85400019881F855000023C0
S3150800666001AA40F2DF714FF4006003F067F9019860
S31508006670000ABA4981F85600019881F857000023A4
S3150800668001AA4FF4FC614FF4006003F057F9019832
S31508006690000AB24981F85800019881F85900002388
S315080066A001AA40F2E1714FF4006003F047F901983E
S315080066B0000AAA4981F85A00019881F85B0000236C
S315080066C001AA40F2E2714FF4006003F037F901982D
S315080066D0000AA24981F85C00019881F85D00002350
S315080066E001AA40F2D3714FF4006003F027F901982C
S315080066F0000A9A4981F85E00019881F85F00002334
S3150800670001AA40F2F6314FF4006003F017F90023AE
S315080067106A4640F2E9714FF4006003F00FF964210C
S31508006720019890FBF1F0009948434FF47A7190FB79
S31508006730F1F001900198000A884981F860000198F3
S3150800674081F86100002301AA40F2D6714FF4006077
S3150800675003F0F4F80198000A804981F8620001986C
S3150800676081F86300002301AA40F2D7714FF4006054
S3150800677003F0E4F80198000A784981F86400019862
S3150800678081F86500002301AA40F2FE314FF400604B
S3150800679003F0D4F80198000A704981F86600019858
S315080067A081F86700002001906D4800786C494978A7
S315080067B008436B49897808436949C9780843684991
S315080067C00979084366494979084318B1019840F0A0
S315080067D0010001900198000A604981F86800019853
S315080067E081F86900002301AA40F2D9714FF40060CC
S315080067F003F0A4F80198000A584981F86A0001983C
S3150800680081F86B00002301AA4FF4FB614FF4006086
S3150800681003F094F80198000A504981F86C00019831
S3150800682081F86D00002301AA40F2DD714FF4006083
S3150800683003F084F80198000A484981F86E00019827
S3150800684081F86F00002301AA40F2E3714FF400605B
S3150800685003F074F80198000A404981F8700001981D
S3150800686081F87100002301AA40F2D1714FF400604B
S3150800687003F064F8002302AA40F2D2714FF40060D4
S3150800688003F05CF847F230510298884203DB02981D
S31508006890401A029004E047F230510298081A029012
S315080068A0DDE901014843642190FBF1F0019001986C
S315080068B0000A2A4981F87200019881F8730001F0EC
S315080068C027FE019027484078244981F87400254816
S315080068D0007881F8750001F093FE01902148C07890
S315080068E01E4981F876001F48807881F8770001F004
S315080068F0FDFE01901B484079184981F8780019482F
S31508006900007981F8790001F091FF01901548C07966
S31508006910124981F87A001348807981F87B000020B3
S315080069200190002302AA40F2D6714FF4006003F0EA
S3150800693005F80298C5B2102500241BE004F12001D1
S31508006940012301AA980202F0F9FF0198C0F3072172
S3150800695060008E30014A1154019805E07025002028
S31508006960900200206C030020C1B260008F301154E1
S31508006970601CC4B2AC42E1DB002301AA40F2F63146
S315080069804FF4006002F0DAFF6421019890FBF1F001
S3150800699001900198000AFE4981F8E800019881F8FB
S315080069A0E900002301AA40F2F9314FF4006002F031
S315080069B0C5FF0198000AF64981F8EA00019881F8AE
S315080069C0EB00002301AA40F2EF314FF4006002F019
S315080069D0B5FF0198000AEE4981F8EC00019881F8A4
S315080069E0ED00002301AA4FF47C714FF4006002F019
S315080069F0A5FF0198000AE64981F8EE00019881F89A
S31508006A00EF00002301AA40F2F1314FF4006002F0D2
S31508006A1095FF0198000ADE4981F8F000019881F88F
S31508006A20F100002301AA40F2F2314FF4006002F0AF
S31508006A3085FF0198000AD64981F8F200019881F885
S31508006A40F300002301AA40F2F3314FF4006002F08C
S31508006A5075FF0198000ACE4981F8F400019881F87B
S31508006A60F500002301AA4FF47D714FF4006002F08F
S31508006A7065FF0198000AC64981F8F600019881F871
S31508006A80F700002301AA40F2F5314FF4006002F046
S31508006A9055FF0198000ABE4981F8F800019881F867
S31508006AA0F900002301AA4FF47E714FF4006002F04A
S31508006AB045FF0198000AB64981F8FA00019881F85D
S31508006AC0FB00002301AA40F203414FF4006002F0E4
S31508006AD035FF0198000AAE4981F8FC00019881F853
S31508006AE0FD00002301AA40F22D414FF4006002F098
S31508006AF025FF0198000AA64981F8FE00019881F849
S31508006B00FF00002301AA40F23B414FF4006002F067
S31508006B1015FF0198000A9E4981F80001019881F83D
S31508006B200101002301AA40F22E414FF4006002F051
S31508006B3005FF0198000A964981F80201019881F833
S31508006B400301002301AA40F23C414FF4006002F021
S31508006B50F5FE0198000A8E4981F80401019881F82A
S31508006B600501002301AA40F227414FF4006002F014
S31508006B70E5FE0198000A864981F80601019881F820
S31508006B800701002301AA40F235414FF4006002F0E4
S31508006B90D5FE0198000A7E4981F80801019881F816
S31508006BA00901002301AA4FF485614FF4006002F041
S31508006BB0C5FE0198000A764981F80A01019881F80C
S31508006BC00B01002301AA40F236414FF4006002F09F
S31508006BD0B5FE0198000A6E4981F80C01019881F802
S31508006BE00D01002301AA40F22B414FF4006002F088
S31508006BF0A5FE0198000A664981F80E01019881F8F8
S31508006C000F01002301AA40F239414FF4006002F057
S31508006C1095FE0198000A5E4981F81001019881F8ED
S31508006C201101002301AA40F22C414FF4006002F042
S31508006C3085FE0198000A564981F81201019881F8E3
S31508006C401301002301AA40F23A414FF4006002F012
S31508006C5075FE0198000A4E4981F81401019881F8D9
S31508006C601501002301AA40F232414FF4006002F0F8
S31508006C7065FE0198000A464981F81601019881F8CF
S31508006C801701002301AA4FF488614FF4006002F04F
S31508006C9055FE0198000A3E4981F81801019881F8C5
S31508006CA01901002301AA40F233414FF4006002F0B3
S31508006CB045FE0198000A364981F81A01019881F8BB
S31508006CC01B01002301AA40F241414FF4006002F083
S31508006CD035FE0198000A2E4981F81C01019881F8B1
S31508006CE01D01002301AA4FF486614FF4006002F0EB
S31508006CF025FE0198000A264981F81E01019881F8A7
S31508006D001F01002301AA40F23E414FF4006002F041
S31508006D1015FE0198000A1E4981F82001019881F89C
S31508006D202101002301AA40F231414FF4006002F02C
S31508006D3005FE0198000A164981F82201019881F892
S31508006D402301002301AA40F23F414FF4006002F0FC
S31508006D50F5FD0198000A0E4981F82401019881F889
S31508006D602501002301AA40F22F414FF4006002F0EA
S31508006D70E5FD0198000A064981F82601019881F87F
S31508006D802701002301AA40F23D414FF4006001E0CB
S31508006D907025002002F0D2FD0198000AFE4981F80C
S31508006DA02801019881F82901002301AA40F23441FB
S31508006DB04FF4006002F0C2FD0198000AF64981F816
S31508006DC02A01019881F82B01002301AA40F24241C9
S31508006DD04FF4006002F0B2FD0198000AEE4981F80E
S31508006DE02C01019881F82D01002301AA4FF4806136
S31508006DF0480002F0A3FD0198000AE74981F82E0130
S31508006E00019881F82F01002301AA40F201414FF4AD
S31508006E10006002F093FD0198000ADF4981F830010D
S31508006E20019881F83101002301AA40F2F5714FF467
S31508006E30006002F083FD0198552802D100200190D8
S31508006E4001E0012001900198000AD34981F8320136
S31508006E50019881F83301002301AA40F2F6714FF434
S31508006E60006002F06BFD0198552802D100200190C0
S31508006E7001E0012001900198000AC74981F8340110
S31508006E80019881F83501002301AA40F2E9714FF40F
S31508006E90006002F053FD0198000ABF4981F83601E7
S31508006EA0019881F83701002301AA40F24A414FF4BC
S31508006EB0006002F043FD0198000AB74981F83801DD
S31508006EC0019881F83901002409E0C4F10D00B3499D
S31508006ED0095C04F59D70B04A1154601CC4B20E2CAE
S31508006EE0F3DB002409E0C4F10D00AD49095C04F5A3
S31508006EF0A570A94A1154601CC4B20E2CF3DB0024F9
S31508006F0024E004F58361002301AA4FF4006002F02F
S31508006F1015FD0198010EA00000F5AD709E4A1154AA
S31508006F200198C0F30741A00000F25B1011540198C4
S31508006F30C0F30721A00000F5AE7011540198C1B244
S31508006F40A00000F25D101154601CC4B2082CD8DBF6
S31508006F50002301AA40F255414FF4006002F0EEFC0E
S31508006F600198000A8C4981F87A01019881F87B0119
S31508006F70002301AA40F256414FF4006002F0DEFCFD
S31508006F800198000A844981F87C01019881F87D01FD
S31508006F90002301AA40F257414FF4006002F0CEFCEC
S31508006FA00198000A7C4981F87E01019881F87F01E1
S31508006FB0002301AA4FF484614FF4006002F0BEFC7E
S31508006FC00198000E744981F880010198000C81F837
S31508006FD081010198000A81F88201019881F88301EC
S31508006FE0002301AA40F20C414FF4006002F0A6FC0F
S31508006FF00198000E684981F884010198000C81F80F
S3150800700085010198000A81F88601019881F88701AF
S31508007010002301AA40F20D414FF4006002F08EFCF5
S315080070200198000E5C4981F888010198000C81F8E6
S3150800703089010198000A81F88A01019881F88B0173
S31508007040002301AA40F20E414FF4006002F076FCDC
S315080070500198000E504981F88C010198000C81F8BE
S315080070608D010198000A81F88E01019881F88F0137
S31508007070002301AA40F20F414FF4006002F05EFCC3
S315080070800198000E444981F890010198000C81F896
S3150800709091010198000A81F89201019881F89301FB
S315080070A0002301AA4FF482614FF4006002F046FC07
S315080070B00198000E384981F894010198000C81F86E
S315080070C095010198000A81F89601019881F89701BF
S315080070D0002301AA40F211414FF4006002F02EFC91
S315080070E00198000E2C4981F898010198000C81F846
S315080070F099010198000A81F89A01019881F89B0183
S31508007100002301AA40F212414FF4006002F016FC77
S315080071100198000E204981F89C010198000C81F81D
S315080071209D010198000A81F89E01019881F89F0146
S31508007130002301AA40F213414FF4006002F0FEFB5F
S315080071400198000E144981F8A0010198000C81F8F5
S31508007150A1010198000A81F8A201019881F8A3010A
S31508007160002301AA40F214414FF4006002F0E6FB46
S315080071700198000E084981F8A4010198000C81F8CD
S31508007180A5010198000A81F8A601019881F8A701CE
S31508007190002301AA06E000007025002056030020FF
S315080071A04803002040F215414FF4006002F0C6FB88
S315080071B00198000E1F4981F8A8010198000C81F872
S315080071C0A9010198000A81F8AA01019881F8AB0182
S315080071D0002301AA40F216414FF4006002F0AEFB0C
S315080071E00198000E134981F8AC010198000C81F84A
S315080071F0AD010198000A81F8AE01019881F8AF0146
S31508007200002301AA40F217414FF4006002F096FBF2
S315080072100198000E074981F8B0010198000C81F821
S31508007220B1010198000A81F8B201019881F8B30109
S315080072303EBD0000702500207047000010B50024F0
S3150800724003F032F80446C4B91B480078401C1A49B2
S31508007250087008460078032812DD032008701748CE
S31508007260007868B90023012240F2ED71D00207F0D8
S3150800727009FF01201149087002E000200E49087034
S31508007280B4B10F480078401C0D49087008460078CC
S31508007290032810DD0320087000231A4640F2ED711A
S315080072A04FF4006007F0EEFE00200449087002E083
S315080072B000200349087010BDC6020020C80200203D
S315080072C0C702002010B5002402F0E2FF0446C4B944
S315080072D01B480078401C1A4908700846007803289D
S315080072E012DD032008701748007868B900230122C8
S315080072F040F2EC71D00207F0C5FE01201149087072
S3150800730002E000200E490870B4B10F480078401C0E
S315080073100D49087008460078032810DD0320087018
S3150800732000231A4640F2EC714FF4006007F0AAFEFB
S3150800733000200449087002E000200349087010BDC7
S31508007340C3020020C5020020C402002030B505464D
S315080073500C46094802F0B6FD0346302B09DA074801
S3150800736040F823500021C03040F82310024840F866
S315080073702340184630BD0000140F0020C41000201A
S3150800738010B56421014806F03DFF10BD55C9000837
S3150800739010B54FF4FA71044806F034FF6421034827
S315080073A006F030FF10BD000059DB000851490008FF
S315080073B010B564210B4808F07FF84FF47A710A4833
S315080073C006F020FF4FF47A71084806F01BFF642187
S315080073D0074806F017FF4FF4FA61064806F012FF51
S315080073E010BD0000B157000871FC00084DF50008F3
S315080073F0E9590008657700084FF4FA5200FB02F1D4
S3150800740000BF0A1EA1F10101FBD1704738B5002063
S31508007410009000236A4640F2D2714FF4006002F0F1
S315080074208DFA47F230510098884201DD012038BDB7
S315080074301F48007808B10020F9E700236A4640F2A1
S31508007440F5714FF4006002F079FA0098552801D1D9
S315080074500020ECE706F04CF808B10020E7E7002426
S3150800746022E0144951F82400FEF796FD012816D1AA
S315080074701148005D401C104908550846005D0A2859
S3150800748010DB0A2008550B4850F8240040F6A47172
S31508007490884202D10120064908700020C7E700206B
S315080074A005490855601CC4B2052CDAD30120BEE78D
S315080074B0F9030020445801080D04002038B50020BF
S315080074C0009000236A4640F2D2714FF4006002F041
S315080074D035FA47F230510098884201DA012038BD62
S315080074E01B48007808B10020F9E702F0E0FB08B174
S315080074F00020F4E705F0FCFF08B10020EFE70024C0
S3150800750022E0144951F82400FEF746FD012816D159
S315080075101148005D401C104908550846005D0A28B8
S3150800752010DB0A2008550B4850F8240040F6A571D0
S31508007530884202D10120064908700020CFE70020C2
S3150800754005490855601CC4B2052CDAD30120C6E7E4
S31508007550F8030020305801080804002008B5002068
S31508007560009000236A464FF489614FF4006002F0E8
S31508007570E5F90098012808D100231A464FF48961D5
S31508007580C00207F07FFD03F0A3FE0098A5280CD1E2
S3150800759000231A464FF489614FF4006007F072FD24
S315080075A001200A49087003F093FE00236A4640F258
S315080075B003414FF4006002F0C1F94FF6FF710098DD
S315080075C0884202D101200249087008BD390000200E
S315080075D01500002008B50020009000236A4640F2F6
S315080075E0ED714FF4006002F0A9F9009810B9002077
S315080075F00B490870FFF762FF012803D100200AF043
S3150800760069FD02E001200AF065FD0AF0BBFD18B12C
S31508007610002009F091FD02E0012009F08DFD08BD6A
S31508007620F803002008B52020ADF8000003208DF8E7
S31508007630020004208DF803006946024800F024FE83
S3150800764008BD00000008014008B52020ADF800007C
S3150800765003208DF8020014208DF8030069460248BD
S3150800766000F012FE08BD00000008014010B5012018
S3150800767000F028F803F08AFC10BD10B54FF400504E
S3150800768000F020F84FF4004000F01CF803F07EFCF0
S3150800769010BD10B5082000F015F803F077FC10BDF2
S315080076A010B5102000F00EF803F070FC10BD10B5F0
S315080076B0202000F007F84FF4807000F003F803F07C
S315080076C065FC10BD014908607047000014040140BC
S315080076D0002123498279002A3AD00A4612680368AB
S315080076E09A430B461A600A1D126803689A430B1DD3
S315080076F01A60027911440A6803681A430A60184A2C
S315080077000832126803689A43154B08331A601A1D23
S31508007710126803689A43124B0C331A604279102A8E
S315080077200ED11A1F126803681A430D4B08331A60E4
S315080077301A1D126803681A43094B0C331A600DE0C8
S315080077400749427911440A6803681A430A6005E042
S31508007750027911440A6803689A430A607047000070
S31508007760000401402DE9F0411048006810490968F5
S31508007770451A002D00DA6D4201F080F8044647F2FA
S315080077803050844210DA071B95FBF7F6C6EB061055
S315080077908000642190FBF1F60023324640F2EA713C
S315080077A04FF4006007F06EFCBDE8F081BC030020D2
S315080077B0B80300207CB504460020019000900025FF
S315080077C040F6A970FEF7E8FB40B1A07820F0030068
S315080077D0401CA07001203A490870102540F6AA708E
S315080077E0FEF7DAFB40B1A07820F00300401CA07039
S315080077F0012033490870112540F6AC70FEF7CCFB22
S3150800780040B1A07820F00300401CA07001202C494C
S315080078100870122540F6AD70FEF7BEFB40B1A078A1
S3150800782020F00300401CA07001202549087013258C
S31508007830002301AA40F2D1714FF4006002F07EF8ED
S3150800784000236A464FF4FC614FF4006002F076F8B4
S3150800785040F2DC510098884202DB0198322814DA9B
S3150800786018480078401C17490870084600780A2806
S315080078700EDD0A200870E07820F00C00001DE0708C
S3150800788001200F490870172502E000200D490870ED
S3150800789040F6A470FEF780FB18B10120084908706D
S315080078A0342507480078012806D100232A4640F2E5
S315080078B0EB71C00207F0E6FB014800787CBD0000CA
S315080078C0C9020020CA0200200549096821F01001F2
S315080078D0034A1160114609680143116070470000A8
S315080078E00020024001460020034A106800F03800D4
S315080078F008431060704700000020024010B50022BF
S315080079002021074800F09DFD01224021044800F08F
S3150800791098FD00224021024800F093FD10BD0000AA
S31508007920000801402DE9F04105460E46174601209C
S3150800793009F027FA00F084F8A02000F0FBF804F01C
S3150800794071FD38B900F094F8002009F01AFA002001
S31508007950BDE8F081301200F0EDF804F063FD30B9AF
S3150800796000F086F8002009F00CFA0020F0E7F0B2E3
S3150800797000F0E0F804F056FD30B900F079F8002080
S3150800798009F0FFF90020E3E700F05AF8A12000F01B
S31508007990D1F804F047FD30B900F06AF8002009F084
S315080079A0F0F90020D4E700241AE000F025F805F8DD
S315080079B0010B781EA0420FD1012220210D4800F0AC
S315080079C040FD012240210B4800F03BFD00224021EA
S315080079D0084800F036FD01E0FFF790FF601C84B20E
S315080079E0BC42E2DB00F044F8002009F0CAF90120A5
S315080079F0AEE700000008014070B50024FFF712FE4C
S31508007A00002515E06006040E012240210B4800F00F
S31508007A1018FD2021094800F00BFD012801DB44F080
S31508007A20010400224021054800F00BFD681CC5B280
S31508007A30082DE7DBFFF708FE204670BD0008014069
S31508007A4010B501224021094800F0FBFC0122202143
S31508007A50064800F0F6FC00222021044800F0F1FC5C
S31508007A6000224021014800F0ECFC10BD000801404E
S31508007A7010B500222021074800F0E3FC012240212E
S31508007A80044800F0DEFC01222021024800F0D9FC5F
S31508007A9010BD0000000801402DE9F04104460D46DE
S31508007AA01746012009F06DF9FFF7CAFFA02000F07C
S31508007AB041F804F0B7FC38B9FFF7DAFF002009F0FF
S31508007AC060F90020BDE8F081281200F033F804F0D0
S31508007AD0A9FC30B9FFF7CCFF002009F052F90020C5
S31508007AE0F0E7E8B200F026F804F09CFC30B9FFF79E
S31508007AF0BFFF002009F045F90020E3E700260FE064
S31508007B0014F8010B00F016F804F08CFC30B9FFF7F6
S31508007B10AFFF002009F035F90020D3E7701C86B2C4
S31508007B20BE42EDDBFFF7A4FF002009F02AF9012089
S31508007B30C8E7000070B5044600251CE004F080067E
S31508007B406006040E802E05D1012220210B4800F084
S31508007B5078FC04E000222021084800F072FC01228B
S31508007B604021064800F06DFC00224021034800F041
S31508007B7068FC681CC5B2082DE0DB70BD0008014032
S31508007B801CB5002001900090002301AA40F2F47170
S31508007B904FF4006001F0D2FE00236A4640F24A41E3
S31508007BA04FF4006001F0CAFEDDE90010884216DBDA
S31508007BB022480078401C2149087000202049087096
S31508007BC01E4800781E2826DB1E201C490870002344
S31508007BD0012240F6AE71D00207F054FA1BE0019874
S31508007BE0C01C0099884216DC15480078401C1449C8
S31508007BF00870002011490870114800781E280ADB11
S31508007C001E200F49087000231A4640F6AE714FF43D
S31508007C10006007F037FA002301AA40F6AE714FF468
S31508007C20006001F08BFE0198012803D1062009F0B7
S31508007C3083FA02E0072009F07FFA1CBD140400202D
S31508007C401504002070B504460D46242D73D2DFE8CE
S31508007C5005F07212304A5158738DA7C1F5F3F2F147
S31508007C60F0EFEEEDECEBEAE9E8E7E6E5E4E3E2E17E
S31508007C70E0DFDEDDDCDB0AF0ABFC06460AF084FC5E
S31508007C8006433EB1D948007820F00300801CD74946
S31508007C9008700DE034B1D548007864F30100D34983
S31508007CA0087005E0D148007820F00300CF49087035
S31508007CB09AE10AF0B1FC38B1CC48007820F00C0003
S31508007CC00830CA4908700DE034B1C848007864F332
S31508007CD08300C649087005E0C448007820F00C0007
S31508007CE0C249087080E1C148007864F30510BF49AD
S31508007CF0087079E1BD48007864F38710BB490870BD
S31508007D0072E10AF08DFB38B1B848407820F00300DC
S31508007D10801CB64948700DE034B1B448407864F325
S31508007D200100B249487005E0B048407820F00300E9
S31508007D30AE49487058E156E10AF096FB38B1AB48AF
S31508007D40407820F00C000830A84948700DE034B19E
S31508007D50A648407864F38300A449487005E0A34820
S31508007D60407820F00C00A14948703DE10AF0A0FBDC
S31508007D7038B19E48407820F0300020309B49487042
S31508007D800DE034B19948407864F305109749487076
S31508007D9005E09648407820F030009449487023E181
S31508007DA00AF0AAFB38B19148407820F0C00080302C
S31508007DB08E4948700DE034B18C48407864F38710DA
S31508007DC08A49487005E08948407820F0C00087490C
S31508007DD0487009E10AF044FC38B18448807820F0FC
S31508007DE00300801C814988700DE034B17F48807893
S31508007DF064F301007D49887005E07C48807820F0AE
S31508007E0003007A498870EFE0E6E0DCE0D2E0CAE0F9
S31508007E10C2E0BAE0B2E0AAE0A2E090E088E080E042
S31508007E2078E070E068E060E058E050E048E046E05E
S31508007E303EE036E02EE026E01EE0FFE70AF058FCBA
S31508007E4006460AF079FC06433EB16848807820F079
S31508007E500C000830654988700DE034B163488078B5
S31508007E6064F383006149887005E06048807820F0F3
S31508007E700C005E498870B7E05C48807864F30510AA
S31508007E805A498870B0E05948807864F38710574992
S31508007E908870A9E05548C07864F301005349C87052
S31508007EA0A2E05248C07864F383005049C8709BE04A
S31508007EB04E48007964F300004C49087194E093E059
S31508007EC04A48007964F38200484908718CE04748BB
S31508007ED0007964F3C3004549087100BF4348007937
S31508007EE064F30410414908717EE04048007964F360
S31508007EF045103E49087177E03C48007964F38610DE
S31508007F003A49087170E03948007964F3C71037496F
S31508007F10087169E03548407964F3000033494871CF
S31508007F2062E03248407964F34100304948715BE0C9
S31508007F302E48407964F382002C49487154E034B1E4
S31508007F402A48407964F3C3002849487107E00BF0D2
S31508007F50D9FE2649497960F3C3012448417100BF17
S31508007F602248407964F30410204948713CE01F48D0
S31508007F70407964F345101D49487135E01B4840793E
S31508007F8064F38610194948712EE01848407964F35D
S31508007F90C7101649487127E01448807964F3000031
S31508007FA01249887120E01148807964F341000F492D
S31508007FB0887119E00AF078FB0C49897960F3820127
S31508007FC00A48817110E00AF0BBFA0849897960F31A
S31508007FD0C3010648817107E00448807964F30410F8
S31508007FE00249887100E000BF00BF70BD6C03002025
S31508007FF010B5234800780A2806DB002020490870B7
S3150800800000F048F800F08AF81D484078322804DB6A
S3150800801007F0ECFE00201A4948701948C0781E2857
S3150800802002DB00201649C87015488078642802DBF0
S3150800803000201349887012480079642804DB002060
S315080080400F4908710F4908700D484079642804DB08
S3150800805000200B4948710C49087009488079642842
S3150800806002DB0020064988710548C079642806DBCA
S3150800807000200349C871054908700549087010BDF4
S31508008080640300205B040020420400204C04002006
S315080080907504002008B500236A4640F2D1714FF4F2
S315080080A0006001F04BFC0098000A1B4948710098D3
S315080080B0C1B21948817100236A4640F2D2714FF461
S315080080C0006001F03BFC0098010A1348C171009852
S315080080D0C1B21148017200236A4640F2D3714FF4C7
S315080080E0006001F02BFC0098010A0B4841720098C9
S315080080F0C1B20948817200236A4640F2E9714FF419
S31508008100006001F01BFC0098010A0348C172009840
S31508008110C1B20148017308BD0006002008B5002356
S315080081206A4640F2D1714FF4006001F007FC0098EE
S31508008130010A1B4841750098C1B219488175002388
S315080081406A4640F2D2714FF4006001F0F7FB0098DE
S31508008150010A1348C1750098C1B211480176002377
S315080081606A4640F2D3714FF4006001F0E7FB0098CD
S31508008170010A0B4841760098C1B209488176002366
S315080081806A4640F2E9714FF4006001F0D7FB0098A7
S31508008190010A0348C1760098C1B20148017708BDB3
S315080081A00006002010B50648007838B10548007862
S315080081B020B909F00BFB00200149087010BD00002A
S315080081C0340300202703002010B5642019490860ED
S315080081D00820087318480088052824DA1748007804
S315080081E0012820D100240AE01348008804EBC000C7
S315080081F01349095C0F48001D0155601CC4B2082CC0
S31508008200F2DB0D480088401C0B49088009480178B4
S31508008210021D0C480078FCF71BFA0621AFF257003E
S31508008220FFF794F804E00020044908700249088022
S3150800823010BD0000F00500202403002027030020BD
S31508008240BE0500201803002030B500228B071C0F3E
S315080082500F2303FA04F20B4B8C1053F82430934384
S31508008260084C8D1044F8253023468C1053F82430DA
S315080082708C07240F00FA04F42343024C8D1044F8AB
S31508008280253030BD080001402DE9F04102460025A1
S315080082900026002000230024002791F803C00CF0D4
S315080082A00F0591F803C00CF0100CBCF1000F03D0B9
S315080082B091F802C04CEA050591F800C0BCF1000F20
S315080082C031D0146800202BE04FF0010C0CFA00F3B3
S315080082D0B1F800C00CEA03069E4220D183004FF095
S315080082E00F0C0CFA03F7BC4305FA03FC4CEA04042A
S315080082F091F803C0BCF1280F06D14FF0010C0CFA17
S3150800830000FCC2F814C00AE091F803C0BCF1480F9B
S3150800831005D14FF0010C0CFA00FCC2F810C0401C45
S315080083200828D1D31460B1F800C0BCF1FF0F34DDC2
S31508008330546800202EE000F1080C4FF0010808FAF6
S315080083400CF3B1F800C00CEA03069E4221D1830063
S315080083504FF00F0C0CFA03F7BC4305FA03FC4CEA82
S31508008360040491F803C0BCF1280F05D100F1080CEC
S3150800837008FA0CF8C2F8148091F803C0BCF1480F4B
S3150800838007D100F1080C4FF0010808FA0CF8C2F8FA
S315080083901080401C0828CED35460BDE8F081000048
S315080083A0F0B50A46002300240021002500F0004607
S315080083B0B6F1004F02D11D4EF16901E01B4E7168FE
S315080083C0C0F3034583B200F44016B6F5401F08D142
S315080083D021F07061154E766826F07066134F7E6040
S315080083E012E000F48016B6F5801F06D1032606FAB9
S315080083F005F4A14341F0706106E0460D360103FA23
S3150800840006F6B14341F0706122B1460D360103FA12
S3150800841006F6314300F00046B6F1004F02D1034E8E
S31508008420F16101E0014E7160F0BD000000000140FD
S315080084300246002093680B400BB1012000E00020A3
S3150800844070470AB1016100E0416170471FB500201D
S3150800845000900190029003900F4800880F49098800
S31508008460884218D00C48008800EB800202EBC00056
S315080084700B4A81180D226846FBF754FE684601F040
S3150800848044FD05480088401C0A2190FBF1F201FBD7
S315080084901200014908801FBD540400205204002020
S315080084A0F22000201FB50020009001900290039052
S315080084B01348008813490988884220D01248007852
S315080084C0E8B90120104908700D48008800EB8002C1
S315080084D002EBC0000D4A81180D226846FBF722FE02
S315080084E0684609F0C9FC012809D105480088401CDE
S315080084F00A2190FBF1F201FB1200014908801FBD19
S31508008500500400204E04002056040020702000204D
S3150800851038B500240020009000236A4640F6A6716C
S315080085204FF4006001F00AFA0098012802D144F0DD
S31508008530010404E00098022801D144F00204002353
S315080085406A4640F6A7714FF4006001F0F7F9009803
S31508008550012802D144F0040404E00098022801D15D
S3150800856044F0080400236A464FF47A614FF4006029
S3150800857001F0E4F90098012802D144F0100404E05F
S315080085800098022801D144F0200400236A4640F6E8
S31508008590A1714FF4006001F0D1F90098012802D1C9
S315080085A044F0400404E00098022801D144F0800415
S315080085B000236A4640F6AC714FF4006001F0BEF93C
S315080085C00098012802D144F4807404E00098022837
S315080085D001D144F4007400236A4640F6AD714FF4A5
S315080085E0006001F0ABF90098012802D144F48064D8
S315080085F004E00098022801D144F40064204638BDFE
S3150800860038B5002400236A4640F6A4714FF400608A
S3150800861001F094F90098012802D144F0010404E01D
S315080086200098022801D144F0020400236A4640F665
S31508008630A5714FF4006001F081F90098012802D174
S3150800864044F0040404E00098022801D144F0080428
S3150800865000236A4640F6A2714FF4006001F06EF9F5
S315080086600098012802D144F0100404E0009802287A
S3150800867001D144F0200400236A4640F6A3714FF462
S31508008680006001F05BF90098012802D144F040042B
S3150800869004E00098022801D144F0800400236A46C9
S315080086A040F6A8714FF4006001F048F900980128D7
S315080086B002D144F4807404E00098022801D144F4FD
S315080086C0007400236A4640F6AB714FF4006001F06F
S315080086D035F90098012802D144F4806404E0009832
S315080086E0022801D144F40064204638BD38B5002478
S315080086F000236A4640F6AF714FF4006001F01EF998
S31508008700009808B144F0010400236A4640F6AE71A9
S315080087104FF4006001F012F9009808B144F0020421
S3150800872000236A4640F6B1714FF4006001F006F97D
S31508008730009808B144F0040400236A464FF47B61AC
S315080087404FF4006001F0FAF8009808B144F0080404
S3150800875000236A4640F6B3714FF4006001F0EEF864
S31508008760009808B144F0100400236A4640F6B47134
S315080087704FF4006001F0E2F8009808B144F02004D4
S3150800878000236A4640F6B5714FF4006001F0D6F84A
S31508008790009808B144F0400400236A4640F6B471D4
S315080087A04FF4006001F0CAF8009808B144F080045C
S315080087B000236A4640F6B9714FF4006001F0BEF82E
S315080087C0009808B144F4807400236A4640F6BA71EA
S315080087D04FF4006001F0B2F8009808B144F4007450
S315080087E000236A4640F6BB714FF4006001F0A6F814
S315080087F0009808B144F4806400236A4640F6BC71C8
S315080088004FF4006001F09AF8009808B144F4006447
S3150800881000236A4640F6BD714FF4006001F08EF8F9
S31508008820009808B144F48054204638BD38B5002471
S3150800883000236A4640F6BF714FF4006001F07EF8E7
S31508008840009808B144F0010400236A464FF47C619D
S315080088504FF4006001F072F8009808B144F004047F
S3150800886000236A4640F6C1714FF4006001F066F8CD
S31508008870009808B144F00804204638BD00210020BD
S3150800888000BF05E0054A52F8212010444A1CD1B21F
S315080088900A29F7DB0A2290FBF2F07047200700202E
S315080088A00246002108E0064850F82100904201D10E
S315080088B001207047481CC1B20429F4D30020F8E708
S315080088C0D047010838B504460D460020009000231D
S315080088D06A4640F2D1714FF4006001F02FF8009813
S315080088E0000A1D4908700098487000236A464FF42C
S315080088F0FA614FF4006001F021F80098000A164961
S3150800890088700098C87000236A4640F2D2714FF406
S31508008910006001F013F84EF660210098081A0090DE
S315080089200098000A0C4908710098487100236A46A5
S3150800893040F2E9714FF4006001F000F80098000A6F
S31508008940054988710098C8710A4690212046FBF7A8
S315080089507FFE012038BD00004003002038B50446DC
S315080089600D460020009000236A4640F2DF714FF45E
S31508008970006000F0E3FF0098000A174908700098A5
S31508008980487000236A4640F2E5714FF4006000F033
S31508008990D5FF11490098887000236A464FF4FC6198
S315080089A04FF4006000F0CAFF0098000A0A49C87030
S315080089B00098087100236A4640F2E6714FF4006099
S315080089C000F0BCFF0449009848710A4691212046E8
S315080089D0FBF73EFE012038BD4003002038B50446AB
S315080089E00D460020009000236A4640F2E1714FF4DC
S315080089F0006000F0A3FF15490098087000236A4636
S31508008A0040F2E7714FF4006000F098FF0F490098B4
S31508008A10487000236A4640F2E2714FF4006000F0A5
S31508008A208DFF0A490098887000236A464FF4FD6155
S31508008A304FF4006000F082FF04490098C8700A46A7
S31508008A4092212046FBF704FE012038BD4003002092
S31508008A507CB504460D46002001900090002301AA2B
S31508008A6040F2D3714FF4006000F068FF2349019883
S31508008A700870002301AA40F2D9714FF4006000F093
S31508008A805DFF1E4901984870002301AA4FF4FB6157
S31508008A904FF4006000F052FF184901988870184892
S31508008AA00078C870002301AA40F2F6314FF400603E
S31508008AB000F044FF00236A4640F2E9714FF4006073
S31508008AC000F03CFFDDE9001048434FF47A7190FB53
S31508008AD0F1F001900198000E084908710198000C00
S31508008AE048710198000A88710198C8710A4693214D
S31508008AF02046FBF7ADFD01207CBD000040030020A9
S31508008B007403002038B504460D4600200090002363
S31508008B106A4640F2D6714FF4006000F00FFF1E4916
S31508008B200098087000236A4640F2D7714FF4006037
S31508008B3000F004FF18490098487000236A4640F27E
S31508008B40EC714FF4006000F0F9FE13490098887044
S31508008B5000236A4640F2ED714FF4006000F0EEFE25
S31508008B600D490098C8700D480078087100236A46B8
S31508008B7040F2FE314FF4006000F0E0FE0098000A73
S31508008B8005494871009888710A4694212046FBF7E2
S31508008B905FFD012038BD0000400300201B000020B7
S31508008BA070B59AB005460E46602102A8FBF7D3FABF
S31508008BB0002001900024009000236A4640F2D671F6
S31508008BC04FF4006000F0BAFE022D05D12548007862
S31508008BD0012801D130200090002413E0214601230A
S31508008BE001AA980200F0AAFE0198C0F3072002A97C
S31508008BF001F81400012101EB440102AA019850541E
S31508008C00601CC4B200988442E8DB002423E00620F6
S31508008C1094FBF0F100FB1140401C134902AA125DB7
S31508008C200A54601C062190FBF1F201FB120028B1E0
S31508008C3001210098C1EB4000A0420AD1062094FB0E
S31508008C40F0F0401C084908700A4695212846FBF7AB
S31508008C50FFFC601CC4B20098B4EB400FD7DB0120C0
S31508008C601AB070BD5C0400204003002070B586B0C1
S31508008C7005460E46002003900490059002900024B5
S31508008C800190002301AA40F2D7714FF4006000F06A
S31508008C9055FE022D04D1092001901F4801F08BFAD8
S31508008CA000240BE004F13001012302AA980200F027
S31508008CB045FE03A902980855601CC4B2019884426F
S31508008CC0F0DB002421E0072094FBF0F100FB1140C3
S31508008CD0401C124903AA125D0A54601C072190FB26
S31508008CE0F1F201FB120018B10198401EA0420AD108
S31508008CF0072094FBF0F0401C084908700A469621A4
S31508008D002846FBF7A5FC601CC4B201988442DADB4E
S31508008D10012006B070BD0000E09304004003002067
S31508008D2070B504460D4610480078104908700E487C
S31508008D30407848700C48807888700B48C078C870AE
S31508008D4009480079087108484079487106488079C9
S31508008D5088710548C079C8710A4697212046FBF7ED
S31508008D6077FC012070BD000090020020400300201F
S31508008D7070B504460D4610480078104908700E482C
S31508008D80407848700C48807888700B48C078C8705E
S31508008D900948007908710848407948710648807979
S31508008DA088710548C079C8710A4698212046FBF79C
S31508008DB04FFC012070BD00006C030020400300201A
S31508008DC00246002108E0064850F82100904201D1E9
S31508008DD001207047481CC1B20429F4D30020F8E7E3
S31508008DE0E047010838B5044600200090002540F603
S31508008DF0A670FDF7D1F828B909F0EAFB10B909F011
S31508008E00C3FB88B100236A4640F2DF714FF4006065
S31508008E1000F094FD0098B0F5965F05DA207820F00A
S31508008E2030001030207001254FF47A60FDF7B4F851
S31508008E3028B1207820F00C00001D20700125284656
S31508008E4038BD0146002903DB0F2901DC012018E0A3
S31508008E50102903DB4F2901DC022012E0502903DB2D
S31508008E608F2901DC03200CE0902903DBBF2901DCF4
S31508008E70042006E0D02903DBEF2901DC052000E009
S31508008E8000207047F8B504460E46002500200090DD
S31508008E9000236A4640F2F6314FF4006000F04EFDBA
S31508008EA00098000E124908700098000C4870009847
S31508008EB0000A88700098C87000236A4640F2F931A3
S31508008EC04FF4006000F03AFD0098000E084908715A
S31508008ED00098000C48710098000A88710098C871BB
S31508008EE00A4650212046FBF7B3FB2846F8BD00008A
S31508008EF040030020F8B504460E46002500200090E1
S31508008F0000236A4640F2EF314FF4006000F016FD88
S31508008F1025490098087000236A464FF47C714FF47F
S31508008F20006000F00BFD20490098487000236A464F
S31508008F3040F2F1314FF4006000F000FD1A49009844
S31508008F40887000236A4640F2F2314FF4006000F060
S31508008F50F5FC15490098C87000236A4640F2F331BB
S31508008F604FF4006000F0EAFC0F49009808710023EE
S31508008F706A464FF47D714FF4006000F0DFFC0A4941
S31508008F800098487100236A4640F2F5314FF40060B4
S31508008F9000F0D4FC0449009888710A4651212046FD
S31508008FA0FBF756FB2846F8BD40030020F8B50446F3
S31508008FB00E4600250020009000236A4640F2FA314A
S31508008FC04FF4006000F0BAFC4FF47A71009890FBF9
S31508008FD0F1F000900098000E154908700098000CF2
S31508008FE048700098000A88700098C87000236A467E
S31508008FF040F2FB314FF4006000F0A0FC4FF47A71A8
S31508009000009890FBF1F000900098000E084908714E
S315080090100098000C48710098000A88710098C87179
S315080090200A4652212046FBF713FB2846F8BD0000E6
S3150800903040030020F8B504460E460025002000909F
S3150800904000236A464FF47E714FF4006000F076FC08
S315080090501A490098087000236A4640F202414FF404
S31508009060006000F06BFC15490098487000236A46BA
S315080090704FF484614FF4006000F060FC0098000E25
S315080090800E4988700098000CC8700098000A08718C
S3150800909000236A4640F203414FF4006000F04EFC9C
S315080090A00098000A05494871009888710A465321B4
S315080090B02046FBF7CDFA2846F8BD000040030020FD
S315080090C0F8B504460E4600250020009000236A469F
S315080090D040F20A414FF4006000F030FC0098000EA0
S315080090E0124908700098000C48700098000A8870A9
S315080090F00098C87000236A4640F20B414FF400609E
S3150800910000F01CFC0098000E084908710098000C35
S3150800911048710098000A88710098C8710A46542157
S315080091202046FBF795FA2846F8BD000040030020C4
S31508009130F0B587B005460F46002600200690182190
S315080091406846FBF708F8002400BF21E004F20C414A
S31508009150002306AA4FF4006000F0F0FB0698010E03
S315080091600DF824100698C0F30741A000401C0DF81E
S3150800917000100698C0F30721A000801C0DF8001007
S315080091800698C1B2A000C01C0DF80010601CC4B23D
S31508009190042CDBDB00241EE0072094FBF0F100FB27
S315080091A01140401C0E491DF804200A54601C072172
S315080091B090FBF1F201FB120008B1102C09D107202F
S315080091C094FBF0F0064908700A4655212846FBF735
S315080091D03FFA601CC4B2102CDEDB304607B0F0BD87
S315080091E040030020F0B58BB005460F460026002048
S315080091F00A9028216846FAF7AEFF002400BF21E04E
S3150800920004F5826100230AAA4FF4006000F096FB79
S315080092100A98010E0DF824100A98C0F30741A00019
S31508009220401C0DF800100A98C0F30721A000801C06
S315080092300DF800100A98C1B2A000C01C0DF8001065
S31508009240601CC4B2082CDBDB00241EE0072094FB5C
S31508009250F0F100FB1140401C0E491DF804200A5489
S31508009260601C072190FBF1F201FB120008B1202CCB
S3150800927009D1072094FBF0F0064908700A465621E2
S315080092802846FBF7E5F9601CC4B2202CDEDB304625
S315080092900BB0F0BD40030020F0B58BB005460F4675
S315080092A0002600200A9028216846FAF754FF002471
S315080092B000BF21E004F5836100230AAA4FF4006089
S315080092C000F03CFB0A98010E0DF824100A98C0F32A
S315080092D00741A000401C0DF800100A98C0F30721AA
S315080092E0A000801C0DF800100A98C1B2A000C01C8E
S315080092F00DF80010601CC4B2082CDBDB00241FE04C
S31508009300072094FBF0F100FB1140401C0F491DF8A3
S3150800931004200A54601C072190FBF1F201FB12009D
S3150800932008B11F2C0AD1072094FBF0F0401C07490E
S3150800933008700A4657212846FBF78AF9601CC4B20A
S31508009340202CDDDB30460BB0F0BD000040030020CA
S3150800935070B504460E460025034A58212046FBF7F9
S3150800936077F9284670BD000040030020F8B504468A
S315080093700E4600250020009000236A4640F22D4143
S315080093804FF4006000F0DAFA0098000A1A490870EB
S315080093900098487000236A4640F23B414FF400604B
S315080093A000F0CCFA0098000A134988700098C87033
S315080093B000236A4640F22E414FF4006000F0BEFAE0
S315080093C00098000A0C4908710098487100236A46FB
S315080093D040F23C414FF4006000F0B0FA0098000AF1
S315080093E0054988710098C8710A4659212046FBF735
S315080093F02FF92846F8BD000040030020F8B50446BA
S315080094000E4600250020009000236A4640F22741B8
S315080094104FF4006000F092FA0098000A1A490870A2
S315080094200098487000236A4640F235414FF40060C0
S3150800943000F084FA0098000A134988700098C870EA
S3150800944000236A464FF485614FF4006000F076FA0F
S315080094500098000A0C4908710098487100236A466A
S3150800946040F236414FF4006000F068FA0098000AAE
S31508009470054988710098C8710A465A212046FBF7A3
S31508009480E7F82846F8BD000040030020F8B5044672
S315080094900E4600250020009000236A4640F22B4124
S315080094A04FF4006000F04AFA0098000A1A4908705A
S315080094B00098487000236A4640F239414FF400602C
S315080094C000F03CFA0098000A134988700098C870A2
S315080094D000236A4640F22C414FF4006000F02EFA51
S315080094E00098000A0C4908710098487100236A46DA
S315080094F040F23A414FF4006000F020FA0098000A62
S31508009500054988710098C8710A465B212046FBF711
