S31508004000383C002001410008EDC20008A9BC0008A0
S31508004010E9C2000899510008591B01080000000070
S315080040200000000000000000000000008DE6000807
S31508004030D17300080000000041C400080D0D0108F6
S315080040401B4100081B4100081B41000809D4000851
S315080040501B4100081B410008C57800081B410008E1
S315080040601B41000849790008577900081B410008D8
S315080040701B4100081B4100081B4100081B410008A2
S315080040801B4100081B4100081B4100082B1B0108A7
S315080040902D1B01081B4100081B4100086579000813
S315080040A01B4100081B4100081B4100081B41000872
S315080040B01B4100081B4100081B4100081B41000862
S315080040C01B4100081B4100081B4100081B41000852
S315080040D01B410008D1130108811401083D15010888
S315080040E0D578000845D000081B410008DFF80CD039
S315080040F000F03CF800480047F9380108383C002031
S315080041000648804706480047FEE7FEE7FEE7FEE763
S31508004110FEE7FEE7FEE7FEE7FEE7FEE7890D010894
S31508004120ED40000840EA01039B0703D009E008C9EF
S31508004130121F08C0042AFAD203E011F8013B00F85E
S31508004140013B521EF9D27047D2B201E000F8012BAA
S31508004150491EFBD270470022F6E710B513460A46F9
S3150800416004461946FFF7F0FF204610BD064C074DDA
S3150800417006E0E06840F0010394E807009847103429
S31508004180AC42F6D3FFF7B6FFE084010800850108C4
S3150800419070B58C1810F8015B15F0070301D110F8FB
S315080041A0013B2A1106D110F8012B03E010F8016B28
S315080041B001F8016B5B1EF9D12B0705D40023521EAB
S315080041C00DD401F8013BFAE710F8013BCB1A921C13
S315080041D003E013F8015B01F8015B521EF9D5A14211
S315080041E0D8D3002070BD21B1826842F001028260F6
S315080041F003E0826822F001028260704710B5044627
S315080042001248844208D10121401508F051FC0021CA
S31508004210601508F04DFC17E00D48844208D10121CD
S31508004220001508F045FC0021201508F041FC0BE0BC
S315080042300848844208D10121C80308F039FC002146
S315080042404FF4004008F034FC10BD00000024014083
S3150800425000280140003C0140014600208A6802F01F
S3150800426004020AB1012000E0002070470146C86C2C
S3150800427080B270470246002013680B400BB101203C
S3150800428000E000207047014600208A6802F0080214
S315080042900AB1012000E000207047000030B5024650
S315080042A00020002350680F4C20400D790C6844EA22
S315080042B005242043506090680B4C2040D1E90254F5
S315080042C02C434D7944EA450420439060D06A20F493
S315080042D070000C7C641EE4B2234340EA0350D062AB
S315080042E030BD0000FFFEF0FFFDF7F1FF10B506F048
S315080042F0F7FB30B10E48007840F001000C49087011
S3150800430005E00B48007800F0FE000949087006F041
S31508004310F3FB30B10648007840F002000449087003
S3150800432005E00348007800F0FD000149087010BD5B
S315080043301B000020F0B504460D4600200021092D7B
S3150800434011DDE068A5F10A0606EB4607072606FA18
S3150800435007F18843A5F10A0606EB460603FA06F1B5
S315080043600843E0600CE0206905EB4507072606FAD6
S3150800437007F1884305EB450603FA06F10843206171
S31508004380072A0FDA606B561E06EB86071F2606FA03
S3150800439007F18843561E06EB860605FA06F108431A
S315080043A0606322E00D2A0FDA206BD61F06EB86071C
S315080043B01F2606FA07F18843D61F06EB860605FA76
S315080043C006F10843206310E0E06AA2F10D0606EB49
S315080043D086071F2606FA07F18843A2F10D0606EBA3
S315080043E0860605FA06F10843E062F0BD816841F0E9
S315080043F008018160704721B1826842F4A002826098
S3150800440003E0826822F4A00282607047816841F066
S31508004410040181607047000010B504461148008801
S31508004420401C142190FBF1F201FB12000E49098889
S31508004430884215D00B49098801EB810202EBC101BC
S315080044400A4A88180D222146FFF76CFE054800889F
S31508004450401C142190FBF1F201FB1200014908806F
S3150800446010BD0000B8040020BA0400200022002075
S3150800447010B5044614480088401C1E2190FBF1F232
S3150800448001FB12001149098888421BD0E07808B957
S315080044900820E0700C49098801EB810202EBC10192
S315080044A00B4A88180D222146FFF73CFE064800886D
S315080044B0401C1E2190FBF1F201FB12000249088004
S315080044C0012010BD0020FCE7B4040020B60400203B
S315080044D07A20002030B50F490988491C142291FB1F
S315080044E0F2F302FB13110C4A1288914211D00B49C0
S315080044F0084A128801EB021190E83C003CC10549C4
S315080045000988491C142291FBF2F302FB1311014A94
S31508004510118030BDA6040020A8040020B01C00208D
S3150800452030B5014618480088401C1E2290FBF2F35D
S3150800453002FB1300154A1288904222D0087B08B95C
S31508004540082008730868B0F5006F02D9012088733F
S3150800455001E000208873002048730D480A4A128833
S3150800456000EB021091E83C003CC007480088401C5C
S315080045701E2290FBF2F302FB1300034A108001206F
S3150800458030BD0020FCE70000A2040020A40400209F
S31508004590D01A002070B5174C2488641C142594FB87
S315080045A0F5F605FB1644144D2D88AC4221D0134C64
S315080045B0104D2D8804EB05142060104C0D4D2D88E8
S315080045C004EB051421710D4C0A4D2D8804EB0514D6
S315080045D0A2600A4C074D2D8804EB05142373054C7D
S315080045E02488641C142594FBF5F605FB1644014D36
S315080045F02C8070BD980300209A030020D80600205E
S3150800460010B5044611480088401C142190FBF1F2AD
S3150800461001FB12000E490988884215D00B49098802
S3150800462001EB810202EBC1010A4A88180D222146D4
S31508004630FFF778FD05480088401C142190FBF1F22D
S3150800464001FB12000149088010BD0000C2040020C9
S31508004650C40400208A24002010B5044614480088A3
S31508004660401C1E2190FBF1F201FB1200114909883A
S3150800467088421BD0E07808B90820E0700C49098800
S3150800468001EB810202EBC1010B4A88180D22214673
S31508004690FFF748FD06480088401C1E2190FBF1F2F2
S315080046A001FB120002490880012010BD0020FCE72A
S315080046B0BE040020C00400200423002070B58AB080
S315080046C005460E4614460020069007900890099065
S315080046D0029003900490059001200190002301AAFE
S315080046E040F24941C00205F089FC4DBBA5208DF872
S315080046F0180001208DF819008DF81A6008208DF829
S315080047001B0020788DF81C0061788DF81D10A178A3
S315080047108DF81E10E1788DF81F10217906A8017210
S3150800472061794172A1798172E179C17206A80FC8CF
S3150800473008F036FC8DF8240006A800F009F97FE099
S31508004740022D29D1A5208DF8180001208DF8190011
S315080047508DF81A6008208DF81B0020788DF81C004B
S3150800476061788DF81D10A1788DF81E10E1788DF806
S315080047701F10217906A8017261794172A1798172A7
S31508004780E179C17206A80FC808F00AFC8DF8240062
S3150800479006A8FFF76DFE53E0032D29D1A5208DF855
S315080047A0180001208DF819008DF81A6008208DF878
S315080047B01B0020788DF81C0061788DF81D10A178F3
S315080047C08DF81E10E1788DF81F10217906A8017260
S315080047D061794172A1798172E179C17206A80FC81F
S315080047E008F0DEFB8DF8240006A8FFF735FF27E062
S315080047F0012D25D14FF0C05000EB064000F5804052
S31508004800401C029008208DF8140020788DF80C00C2
S3150800481061788DF80D10A1788DF80E10E1788DF875
S315080048200F1021798DF8101061798DF81110A17982
S315080048308DF81210E1798DF8131002A8FFF770FEB3
S315080048400AB070BD10B5044611480088401C052101
S3150800485090FBF1F201FB12000E490988884215D037
S315080048600B49098801EB01110B4A02EB01104FF4C1
S3150800487088722146FFF756FC05480088401C05212A
S3150800488090FBF1F201FB12000149088010BD0000FF
S315080048901205002014050020D631002010B5044664
S315080048A012480088401C052190FBF1F201FB12001A
S315080048B00F490988884217D00C49098801EB01116C
S315080048C00C4A02EB01104FF488722146FFF72AFCC6
S315080048D006480088401C052190FBF1F201FB1200F6
S315080048E002490880012010BD0020FCE70E050020C3
S315080048F010050020862C002010B5044611480088B3
S31508004900401C142190FBF1F201FB12000E490988A4
S31508004910884215D00B49098801EB810202EBC101D7
S315080049200A4A88180D222146FFF7FCFB054800882D
S31508004930401C142190FBF1F201FB1200014908808A
S3150800494010BD0000AE040020B0040020761F002031
S3150800495010B5044614480088401C1E2190FBF1F24D
S3150800496001FB12001149098888421BD0E07808B972
S315080049700820E0700C49098801EB810202EBC101AD
S315080049800B4A88180D222146FFF7CCFB06480088FB
S31508004990401C1E2190FBF1F201FB1200024908801F
S315080049A0012010BD0020FCE7AA040020AC0400206A
S315080049B0F01D00207CB50024002500200190009001
S315080049C000BFACE004EB4400664951F8200040F60D
S315080049D0A271884208D004EB4400624951F82000CD
S315080049E040F6A471884217D1002301AA40F2D37178
S315080049F04FF4006005F002FBC0B30198022836D1D7
S31508004A0004EB4400574A52F8201000231A464FF484
S31508004A1000600BF04FFD80E004EB4400514951F86B
S31508004A20200040F6A371884208D004EB44004D49A3
S31508004A3051F8200040F6A571884218D1002301AA32
S31508004A4040F2D3714FF4006005F0D8FA70B10198BE
S31508004A5001280CD104EB4400424A52F820100023E6
S31508004A601A464FF400600BF025FD56E0FFE704EB0D
S31508004A7044003C4901EB80008068E8B104EB44003F
S31508004A800A4602EB800000236A4681684FF40060FC
S31508004A9005F0B4FA00B940E0009855280CD145F065
S31508004AA0020504EB44002F4A52F820100023022284
S31508004AB090020BF0FFFC30E004EB4400294901EBBF
S31508004AC080004068E8B104EB44000A4602EB800027
S31508004AD000236A4641684FF4006005F08FFA00B972
S31508004AE01BE0009855280CD145F0010504EB44005D
S31508004AF01C4A52F8201000230122D0020BF0DAFCDF
S31508004B000BE004EB4400174A52F8201000231A461B
S31508004B104FF400600BF0CEFC00BF601C84B20E2C74
S31508004B20FFF450AF05F0020038B10023022240F22C
S31508004B30DC7190020BF0BEFC12E005F0010038B102
S31508004B400023012240F2DC71D0020BF0B3FC07E02F
S31508004B5000231A4640F2DC714FF400600BF0AAFC01
S31508004B607CBD0000AC5E01082DE9F04105460E4605
S31508004B70069C0021002B34D027889F4203DA278819
S31508004B807F1C278000E0238027887F1EB8B206E0B6
S31508004B90471E32F8177022F81070471EB8B2002860
S31508004BA0F6DC1580002004E032F810703944471C02
S31508004BB0B8B227888742F7DCB4F800C00CEB4C077C
S31508004BC0B1FBFCF80CFB181C4FEAE77807EB987862
S31508004BD0BCEBA80F01D9278839442788B1FBF7F120
S31508004BE03180BDE8F0810000F8B505460E4614464A
S31508004BF01F46062D39D2DFE805F03803101D2F268B
S31508004C001B4800EB440000901A4850F82420032360
S31508004C1039463046FFF7A8FF27E0174800EB44005F
S31508004C200090164850F82420032339463046FFF7EB
S31508004C309BFF1AE012480A23124A3946009030466A
S31508004C40FFF792FF11E010480523104A39460090F5
S31508004C503046FFF789FF08E00D4805230D4A394617
S31508004C6000903046FFF780FF00BF00BFF8BD000088
S31508004C70CA050020C00100202A0600208002002064
S31508004C80C80200204E060020CC0200206C06002038
S31508004C90CA0200206206002010B5012007F018FF9E
S31508004CA0002007F015FF10BD08B50146002000904A
S31508004CB0034800900098084400900098008808BDB2
S31508004CC0006C004008B500220092044A0092009A3F
S31508004CD002440092009A116008BD0000006C004072
S31508004CE010B510F035FD05F0B1FE20B10248007888
S31508004CF0401C0149087010BD160000201FB5002091
S31508004D0000900190029003900F4800880F49098887
S31508004D10884218D00C48008800EB800202EBC000DD
S31508004D200B4A81180D226846FFF7FCF9684600F021
S31508004D301FFA05480088401C142190FBF1F201FB7C
S31508004D401200014908801FBDBA040020B8040020DB
S31508004D50002200201FB500200090019002900390C9
S31508004D601348008813490988884220D012480078D9
S31508004D70E8B90120104908700D48008800EB800248
S31508004D8002EBC0000D4A81180D226846FFF7CAF9E2
S31508004D9068460DF08BFB012809D105480088401CA0
S31508004DA01E2190FBF1F201FB1200014908801FBD8C
S31508004DB0B6040020B4040020BC0400207A20002099
S31508004DC0F8B50024002500200090002600236A4636
S31508004DD040F2EF314FF4006005F010F90098C5B2C3
S31508004DE0AA201249087000BF00BF16E0104830F824
S31508004DF0140050B10E4830F81410204606F0EAFBAD
S31508004E0055200A490870012605E0094830F81410AB
S31508004E10204606F0DFFB601CC4B2AC42E6DB012389
S31508004E2032464F2198020BF045FBF8BDDC02002004
S31508004E30CE0200202DE9FF41002003900290019048
S31508004E400027002500268046009000244A4800884E
S31508004E50401C80B248490880052801DABDE8FF8170
S31508004E6005204549088045480088401C80B24349CA
S31508004E700880B0F5167F06DB0020414908704FF41C
S31508004E8016703E4908803E480078012800D1E5E7BB
S31508004E90002301AA40F2DF714FF4006005F0AEF876
S31508004EA0019F002301AA4FF4FC614FF4006005F04E
S31508004EB0A5F8019D002301AA40F2E1714FF40060B4
S31508004EC005F09CF8019E002301AA40F22D414FF4FB
S31508004ED0006005F093F8DDF80480002303AA40F289
S31508004EE0FF314FF4006005F089F8002302AA40F26A
S31508004EF0D3714FF4006005F081F8039898B90298C9
S31508004F00012803D01F48007801280CD15F2E06DA45
S31508004F10B5F5C86F03DB01201B49087006E00220BF
S31508004F201949087002E002201749087000F0C6FC0B
S31508004F3015480078012819D000236A4640F2EF3157
S31508004F404FF4006005F05AF8002405E000212046D9
S31508004F5006F040FB601CC4B200988442F6DB0123CD
S31508004F6000224F2198020BF0A5FA77E700F0E2FB42
S31508004F70FFF726FF00BF71E7F0020020E8020020D5
S31508004F80DE020020EB020020DD0200202DE9F843B6
S31508004F90054600240026002000900027804681460A
S31508004FA000236A4640F2EF314FF4006005F026F818
S31508004FB00098C6B200BF0CE02DB14FF6FF702B4922
S31508004FC021F8140003E00020284921F81400601C89
S31508004FD0C4B2B442F0DB002409E01DB1FF20244925
S31508004FE0085502E0002022490855601CC4B2082C66
S31508004FF0F3DB2048057055B3002425E004F57C71E1
S3150800500000236A464FF4006004F0F8FF009807444E
S3150800501019480078B8420ADC17480078404506DD8A
S3150800502015480078A0EB08001FFA80F901E04FF058
S315080050300009B846A9F101000122824091B2204632
S3150800504006F0C8FA601CC4B2B442D7DB09E00024F3
S3150800505005E00021204606F0BDFA601CC4B2B44241
S31508005060F7DB002005490880BDE8F883CE0200205A
S31508005070D4020020DE020020DF020020E802002021
S315080050803EB50024002000900190002302AA4FF4A8
S31508005090FF614FF4006004F0B1FF0298C0F30720E7
S315080050A0ADF800000298C0B28DF80200002302AAEB
S315080050B040F2F971C81D04F0A1FF0298000A8DF8A4
S315080050C003000298C0B28DF80400002302AA40F239
S315080050D0FA71881D04F092FF0298000A8DF80500FF
S315080050E00298C0B28DF80600684606F0D9F904465B
S315080050F008F0B2F803490860002003490860204612
S315080051003EBD000034000020380000201CB50020F9
S315080051100190009015480078401C14490870002337
S3150800512001AA40F2FB71481D04F068FF0198AA28FD
S315080051301BD100236A4640F2FC71081D04F05EFF8D
S31508005140009800280ADD0098401E0090002340F2CF
S31508005150FC71081D009A0BF0ADF906E000235522F4
S3150800516040F2FB71481D0BF0A5F91CBDD8030020C1
S3150800517010B504466078802805D1A178221D022042
S3150800518007F01EF907E06078402804D1A178221DAF
S31508005190022007F015F910BD00BFFEE708B501218A
S315080051A0480607F055FC0121052007F071FC4FF46D
S315080051B00060ADF8000048208DF8030069462048D5
S315080051C003F05AFA4FF48050ADF8000018208DF815
S315080051D0030003208DF802006946194803F04CFACB
S315080051E0184800F035F8184800F0F1F9002016497B
S315080051F088710120C87100200872487288720120DF
S31508005200C87200208870C870022008710120487191
S31508005210102008800B4800F0C4F800200B4988725B
S31508005220C872012008730020088048808880C880DA
S31508005230088101204873084600F026F808BD0000DA
S3150800524000080140006400404C0500205805002075
S3150800525010B504460B48844209D10121480607F0D7
S3150800526007FC00214FF0007007F002FC08E001215E
S31508005270880607F0FDFB00214FF0806007F0F8FB79
S3150800528010BD00000064004010B50021837A012299
S3150800529002FA03F13D4A126842F001023B4B1A60DA
S315080052A03A4A1C3212688A43384B1C331A60027B0E
S315080052B0CAB9364A0C3212688A43344B0C331A6020
S315080052C04288C38842EA0343304A4032847A42F825
S315080052D034300288838842EA03432C4A4032847A6F
S315080052E002EBC4025360027B012A19D1274A0C3209
S315080052F012680A43254B0C331A604288038842EA2F
S315080053000343224A4032847A42F83430C28883887A
S3150800531042EA03431D4A4032847A02EBC4025360D0
S31508005320C27A3AB9194A121D12688A43174B1B1DCD
S315080053301A6006E0154A121D12680A43134B1B1D14
S315080053401A60028932B9114A143212688A430F4B1D
S3150800535014331A600289012A06D10C4A14321268DB
S315080053600A430A4B14331A60427B012A06D1074ABC
S315080053701C3212680A43054B1C331A60034A12682A
S3150800538022F00102014B1A6010BD000000660040C1
S315080053901AB143690B43436102E043698B43436196
S315080053A0704730B5024600200023146824F0020432
S315080053B01460146844F00104146000E05B1C54682F
S315080053C004F001041CB94FF6FF74A342F6D15468E1
S315080053D004F001040CB900206CE08C79012C04D18E
S315080053E0146844F08004146003E0146824F0800410
S315080053F01460CC79012C04D1146844F0400414607C
S3150800540003E0146824F0400414600C7A012C04D1DB
S31508005410146844F02004146003E0146824F020049F
S3150800542014604C7A012C04D1146844F010041460FA
S3150800543003E0146824F0100414608C7A012C04D15B
S31508005440146844F00804146003E0146824F008049F
S315080054501460CC7A012C04D1146844F00404146056
S3150800546003E0146824F0040414608C78A407CD784B
S3150800547044EA05640D7944EA05444D7944EA05543D
S315080054800D886D1E2C43D461146824F00104146041
S31508005490002300E05B1C546804F001041CB14FF6BD
S315080054A0FF74A342F6D1546804F001040CB100203D
S315080054B000E0012030BD08B54FF4C06006F050FF8B
S315080054C014208DF8000000208DF801008DF80200E8
S315080054D001208DF80300684606F00AFF08BD10B5DE
S315080054E000F5D87303EB01131B6803F0040313726A
S315080054F0137A53B900F5D87303EB01131B6840F20E
S31508005500FF7404EA5353136009E000F5D87303EBFC
S3150800551001131B686FF0604404EAD303536000F577
S31508005520D87303EB01131B6803F00203537200F5EB
S31508005530D87303EB01135B6803F00F03937200F54E
S31508005540D87303EB01135B681B0AD37400F5D87391
S3150800555003EB01139B68D37200F5D87303EB0113B1
S315080055609B681C0A147300F5D87303EB01139B6838
S315080055701C0C547300F5D87303EB01139B681B0EC0
S31508005580937300F5D87303EB0113DB68D37300F547
S31508005590D87303EB0113DB681C0A147400F5D8737F
S315080055A003EB0113DB681C0C547400F5D87303EB8A
S315080055B00113DB681B0E937421B9C36843F02003FB
S315080055C0C36003E0036943F02003036110BD0021B3
S315080055D08171C171017241728172C1728170C1702B
S315080055E0032101710221417101210180704710B523
S315080055F002460020936803F08063B3F1806F00D100
S3150800560010E0936803F00063B3F1006F01D1012045
S3150800561008E0936803F08053B3F1805F01D102205C
S3150800562000E00420042874D002F5C07303EB0013CD
S315080056301B6803F0010402F5C07303EB00131C603A
S315080056400B7A7BB94B7A0C8843EA445302F5C0744B
S3150800565004EB00142468234302F5C07404EB001419
S31508005660236010E00B7A4C6843EAC4034C7A234360
S3150800567002F5C07404EB00142468234302F5C074D1
S3150800568004EB001423608B7A03F00F038B7202F588
S31508005690C07303EB00135B6823F00F0402F5C073B5
S315080056A003EB00135C6002F5C07303EB00135B6841
S315080056B08C7A234302F5C07404EB001463608B7B79
S315080056C01C064B7B44EA03440B7B44EA0323CC7A4F
S315080056D0234302F5C07404EB0014A3608B7C1C06FC
S315080056E04B7C44EA03440B7C44EA0323CC7B2343E8
S315080056F002F5C07404EB0014E36002F5C07303EB13
S3150800570000131B6843F0010402F5C07303EB001392
S315080057101C6010BD10B50246002006E01378434011
S31508005720034CE05C521C4B1ED9B20029F6DC10BDB6
S31508005730E07C01082DE9F04FD1B0002400250026B1
S31508005740A146A246A346002050900027AA204F90C3
S3150800575000204E9080464D904C90C0211CA8FEF724
S31508005760FAFC00201B901A9000231AAA40F2EF3187
S315080057704FF4006004F042FC1A98C0B24E90002321
S315080057801AAA4FF48061480004F038FCDDF86880F6
S3150800579000231AAA40F201414FF4006004F02EFCDF
S315080057A01A984D9000231AAA4FF4FC614FF4006032
S315080057B004F024FC1A9880B250903D4800780128DD
S315080057C002D13C4800885090684609F0F5F9342221
S315080057D069460DA8FEF7A6FC002564E00DA830F87A
S315080057E015001B9005F57C7100231AAA4FF400607A
S315080057F004F004FC1A98C6B21B9840454FD3102EE5
S3150800580000DC16B951B0BDE8F08F002412E009F0AB
S31508005810DDF900EB470030F814B01CA800EB851042
S3150800582020F824B01CA800EB851000EB84008470D7
S31508005830601CC4B2B442EADB1CA901EB85103146F0
S315080058400CF0FAFFB01EC4B227E01CA800EB8510C6
S3150800585000EB840090F802901CA800EB851030F845
S3150800586024105098A1EB000A4D98824509D31CA82C
S3150800587000EB851030F82400404502D355204F90A0
S3150800588001E0AA204F90CDF8309129460A484F9B4F
S315080058904C9A04F0E7FE601CC4B2B442D5DBB819D2
S315080058A0C7B2681CC5B24E98854297DB00BFA9E708
S315080058B0E2020020E4020020CE02002038B50024CF
S315080058C000250020009000236A4640F2EF314FF48D
S315080058D0006004F093FB0098C5B200BF05E0002005
S315080058E0084921F81400601CC4B2AC42F7DB002456
S315080058F004E0002004490855601CC4B2082CF8DBF3
S3150800590038BD0000CE020020D4020020F8B549F6C2
S31508005910404400250026002000901E480068401CD0
S315080059201C490860084600681B490968884230D344
S3150800593000201849086007F08FFC054617480068DC
S315080059402E1A00236A4640F25E414FF4006004F0C6
S3150800595055FB0098704310490968B0FBF1F4002321
S31508005960224640F25E414FF400600AF0A3FD50B1B2
S3150800597007F0BCFE07F0C0FB204607F075FE07F0EF
S31508005980B5FE07F0C3FB054805604FF416700249DB
S315080059900860F8BD380000203000002034000020E0
S315080059A010B500F047FD10BD7CB50020019000251C
S315080059B000260090002400236A4640F6BF714FF483
S315080059C0006004F01BFB009800B17CBD002301AA0F
S315080059D040F2D2714FF4006004F010FB5B48007887
S315080059E0401C5A490870084600781E2803DC0198AE
S315080059F0401C019006E055480078642802DB002028
S31508005A00524908705249534A1278019841F82200BF
S31508005A1050480078401C0A2190FBF1F201FB120065
S31508005A204C49087047F230510198884251DA01987A
S31508005A300D1A48F6A040854201DD0025C5E72E4629
S31508005A404548007801281ED1002419E042484088BC
S31508005A5004EB4401414A32F8111088420EDD04EB8A
S31508005A604400114601EB40004088684304EB4401BA
S31508005A7002EB4101898890FBF1F603E0601CC4B291
S31508005A80042CE3DB00BF3648006858B9354800687F
S31508005A90334908600023344A40F2F6314FF4006077
S31508005AA004F0ACFA30480068C0EB401040014FF4EF
S31508005AB07A7190FBF1F02B490968884204DD2B487E
S31508005AC0006830442949086029480068284428495C
S31508005AD0086047F230510198884235DD0198451A29
S31508005AE048F6A040854201DD00256EE72E461A4895
S31508005AF0007802281ED1002419E01748408804EBD4
S31508005B0044011C4A32F8111088420EDD04EB4400A9
S31508005B10114601EB40004088684304EB440102EB60
S31508005B204101898890FBF1F603E0601CC4B2042C9D
S31508005B30E3DB00BF0D480068801B0C4908600E486F
S31508005B40006828440C49086000BF3EE7540400205A
S31508005B5060090020480400201C0400204064010855
S31508005B604C040020200400205004002030040020AB
S31508005B7040040020586401084404002038B5002079
S31508005B800090002400236A4640F2FE314FF400607C
S31508005B9004F034FA0098322802DA4FF47A7414E0E2
S31508005BA0009832280FDB40F21A41009888420ADC36
S31508005BB0009800EB400101EB00100849081A64211F
S31508005BC090FBF1F401E04FF448740023224640F2BA
S31508005BD0FD314FF400600AF06DFC38BD568A0100AD
S31508005BE07FB50025002400200390029001900090C4
S31508005BF003F066F8044648F6A04084420FD847F2F8
S31508005C00305084420BD350480088401C4E490880C7
S31508005C10084600880A2805DD0A20088002E00020D8
S31508005C204949088047F2265084420FD845F6C050A5
S31508005C3084420BD345480088401C444908800846DE
S31508005C4000880A2805DD0A20088002E000203F496E
S31508005C500880002303AA40F2DD714FF4006004F0C7
S31508005C60CDF9002302AA4FF4FC614FF4006004F05A
S31508005C70C5F900236A4640F2DF714FF4006004F06C
S31508005C80BDF9002301AA40F2E9714FF4006004F05F
S31508005C90B5F940F2DC510398884200DA7FBD2A48FC
S31508005CA000880A2813DBA4F5EA40303885B2029842
S31508005CB004F01CFC02902946029804F0C7FB0290E7
S31508005CC0234A0021029804F04BFA224908801F480B
S31508005CD000880A2813DB47F23050001B85B200986B
S31508005CE000F044FA00902946009800F0E5F9009083
S31508005CF0194A0021009804F033FA16490880154815
S31508005D0000880199884209DD012014490870114864
S31508005D1000880199401A1149488012E00D48008808
S31508005D200199884209DA02200C490870094909884C
S31508005D300198401A0949488003E00020074908707D
S31508005D40488000BFAAE700005C0400205A0400202F
S31508005D50500900204A040020400900201C040020A5
S31508005D602DE9F84306460C4600250020009080469B
S31508005D700027012E04D0022E2AD0032E72D188E0E5
S31508005D80002059490880594908805948006847F24F
S31508005D905851884219DC5648006847F2085188422B
S31508005DA013DB4FF001080023514840F224410268F2
S31508005DB04FF400600AF07EFB4D48008800B24A495D
S31508005DC0088001204B49087001E04FF0000886E082
S31508005DD048480078012802D04FF000087FE0444880
S31508005DE0016804F12800814250DC503840490968AE
S31508005DF088424BDC4FF001083D48008800B23B4919
S31508005E00088047F23050844201DB271A02E047F245
S31508005E103050071B3548B0F900003349B1F9001076
S31508005E2088420BDD642078433049B1F900102E4AC8
S31508005E30B2F90020891AB0FBF1F517E02B48B0F942
S31508005E4000002949B1F9001088420CDA6420784329
S31508005E502549B1F90010254AB2F90020891AB0FB84
S31508005E60F1F503E03AE04FF0000838E000232A464F
S31508005E7040F225414FF400600AF01CFB18B10220DD
S31508005E801C49087004E04FF0000801E04FF00008D4
S31508005E9025E018480078022802D04FF000081EE0D6
S31508005EA000236A4640F2D2714FF4006004F0A6F867
S31508005EB0204600990CF0CDFD814647F23051204628
S31508005EC00CF0C7FDB9EBD00F05D24FF00108002042
S31508005ED00849087001E04FF0000800E000BF00BF65
S31508005EE04046BDE8F8830000FC020020FE020020C0
S31508005EF0DC030020000300201FB50020009001905D
S31508005F00029003900D4800880D490988884214D0EC
S31508005F100C480A49098800EB01130FCB8DE80F00DE
S31508005F20684606F037F905480088401C142190FB9E
S31508005F30F1F201FB1200014908801FBDA8040020E8
S31508005F40A6040020B01C00201FB500200090019078
S31508005F5002900390194800881949098888422CD06C
S31508005F6018481649098800EB01130FCB8DE80F0076
S31508005F709DF80C2001A9009804F016FC68B10F489A
S31508005F800088401C1E2190FBF1F201FB12000B4910
S31508005F90088000200C4908700FE00B480078401C68
S31508005FA009490870084600780A2806DD04F0C2FB8D
S31508005FB005F03AFE0020044908701FBDA40400201D
S31508005FC0A2040020D01A0020C70400201CB5002017
S31508005FD0019047F23050009000236A4640F2D27191
S31508005FE04FF4006004F00AF847F2265100988842F8
S31508005FF011DA29480088401C274908800846008885
S315080060000A2804DD01202549087025490870002062
S315080060102449088016E023480088401C2149088046
S3150800602008460088322802DD00201C490870002036
S315080060301949088047F230510098884202DD00204D
S315080060401749087001A803F04DF9012803D1134830
S315080060500078012802D002F005FE68B14FF47A7084
S315080060600AF062FC00F020F800200C4908700D497F
S315080060700880094908800DE002F00BFE18B10020DF
S315080060800AF052FC06E001A801F004FD012801D13E
S3150800609000F00AF81CBD00001C03002020030020A5
S315080060A0EB0200201E0300200120704710B501F006
S315080060B0D5F901F08FF910BDF8B506460F4600244C
S315080060C000254FF47A70009035463C4600236A4610
S315080060D040F2F6314FF4006003F090FF4FF47A7106
S315080060E0009890FBF1F00090009818B144F62060F3
S315080060F0864201DA2846F8BD002C2EDD04EB840022
S315080061004000009990FBF1F4B4F57A7F01DD28464A
S31508006110F1E7322C04DC1248006804FB10551CE039
S31508006120642C0BDC0E480068322101FB1055A4F1E3
S3150800613032000C49096800FB11550EE00848006852
S31508006140322101FB10550748006801FB1055A4F1E0
S3150800615064000549096800FB11552846CBE700008D
S31508006160F4030020F8030020FC03002038B5054698
S315080061700020009000242C4600236A4640F2E27173
S315080061804FF4006003F03AFF44F62060844202DBD5
S315080061900098002801DA204638BD009841282BDAF5
S315080061A00098322807DB0098C0F1410013490968B6
S315080061B000FB114420E0009828280CDB0F480068F3
S315080061C00F2101FB10440098C0F132000C49096800
S315080061D000FB114410E0094800680F2101FB104438
S315080061E0074800680A2101FB10440098C0F12800FE
S315080061F00449096800FB11442046CDE7E80300205E
S31508006200EC030020F003002038B5054600240020E2
S31508006210009000BF43E004EB4400234951F82000F6
S31508006220A8423AD104EB440001EB80008068A8B18B
S3150800623004EB44000A4602EB800000236A468168A4
S315080062404FF4006003F0DAFE08B9002038BD009864
S31508006250552801D10120F9E70020F7E704EB4400AF
S31508006260114901EB80004068A8B104EB44000A46D6
S3150800627002EB800000236A4641684FF4006003F091
S31508006280BDFE08B90020E1E70098552801D1012094
S31508006290DCE70020DAE70020D8E7601C84B20E2C81
S315080062A0B9D30020D2E70000AC5E010870B500241F
S315080062B01EE0144901F83440002515E0C4EBC4007B
S315080062C0284486B21E2E07DA0F48815D05EBC40006
S315080062D0401C0C4A115405E0FF2105EBC400401C84
S315080062E0084A1154681C85B2072DE7DB601C84B286
S315080062F0052CDEDB0020054908800621044801F04C
S315080063000FF970BD96060020780600207C03002051
S315080063105585000810B500247A2006F079FC08B1E6
S3150800632044F001047B2006F073FC08B144F0020433
S315080063307C2006F06DFC08B144F004047D2006F0CC
S3150800634067FC08B144F008047E2006F061FC08B139
S3150800635044F010047F2006F05BFC08B144F02004EA
S3150800636006F0BCFB204610BD10B501F047F9012820
S3150800637003D102200DF0C8FA02E003200DF0C4FA9A
S315080063800DF0F6FA18B102200CF0F4FA02E0032038
S315080063900CF0F0FA10BD014601F00F020B1103EBE9
S315080063A0830302EB4302D0B27047014664290ADA36
S315080063B00A2091FBF0F200FB121291FBF0F002EBBF
S315080063C00010C0B270470020FCE730B502460B4605
S315080063D04FF6FF7011E012F8014B604000210AE009
S315080063E000F0010424B140104AF20104604000E0C4
S315080063F040104C1CE1B20829F2DB1C1EA3F1010572
S31508006400ABB2E8D130BD000000B5034603F0E6FDA7
S315080064100246802A07D0054840F82230044800681A
S31508006420401C03490860104600BD0000D018002033
S315080064309C04002008B50020009000236A464FF40B
S315080064407A714FF4006003F0D9FD0099C8B200F0E4
S3150800645030F90099C8B200F074F80099C8B200F093
S3150800646009F800F0D5F800F07DF90099C8B200F0F7
S3150800647040F908BD2DE9FC5F07464FF0000AD346F0
S3150800648000254FF6FF76A846B14600200190304613
S315080064900090012423E0234601AA47214FF4806097
S315080064A003F0ACFD23466A4648214FF4806003F0AA
S315080064B0A5FD019885B2009886B2012C04D1A8469C
S315080064C0B146A246A34608E0A84501DAA846A24670
S315080064D0B14501DDB146A34600BF601CC4B2BC424B
S315080064E0D9DD0023424640F2E1714FF4006009F01D
S315080064F0E1FF534601AA4B214FF4806003F07EFD6D
S31508006500002340F2E7714FF40060019A09F0D2FFC8
S3150800651000234A4640F2E2714FF4006009F0CAFFD0
S315080065205B466A464C214FF4806003F067FD002302
S315080065304FF4FD614FF40060009A09F0BBFFBDE817
S31508006540FC9F2DE9FC5F07464FF0000AD34600255D
S315080065504FF6FF76A846B1460020019030460090D7
S31508006560012423E0234601AA43214FF4806003F067
S3150800657045FD23466A4644214FF4806003F03EFDFC
S31508006580019885B2009886B2012C04D1A846B14676
S31508006590A246A34608E0A84501DAA846A246B145A0
S315080065A001DDB146A34600BF601CC4B2BC42D9DDBA
S315080065B00023424640F2DF714FF4006009F07AFF8B
S315080065C0534601AA49214FF4806003F017FD0023C2
S315080065D040F2E5714FF40060019A09F06BFF002361
S315080065E04A464FF4FC614FF4006009F063FF5B46CE
S315080065F06A464A214FF4806003F000FD002340F20A
S31508006600E6714FF40060009A09F054FFBDE8FC9F5C
S315080066107FB5002400250020039002900190009089
S31508006620002303AA40F2DF714FF4006003F0E6FC92
S31508006630002302AA4FF4FC614FF4006003F0DEFC6D
S31508006640DDE90210884203DDDDE90210401A02E0A6
S31508006650DDE90201401A84B20023224640F2E371C2
S315080066604FF4006009F026FF002301AA40F2E17109
S315080066704FF4006003F0C2FC00236A4640F2E27160
S315080066804FF4006003F0BAFCDDE90010884203DD30
S31508006690DDE90010401A02E0DDE90001401A85B282
S315080066A000232A4640F2E4714FF4006009F002FF25
S315080066B07FBDF8B505460027002600200090002477
S315080066C00CE0601CC3B26A464021080103F096FC40
S315080066D0009887B2F01986B2601CC4B2AC42F0DBEF
S315080066E00023324640F2D1714FF4006009F0E2FE11
S315080066F0F8BD2DE9F84F07464FF000090020009035
S315080067000026804601241DE004F2F23100236A4681
S315080067104FF4006003F072FC009800F0FF090025B2
S315080067200CE005F1300123466A464FF4806003F019
S3150800673065FC00988044761C681CC5B24D45F0DBA4
S31508006740601CC4B2BC42DFDD002E09DD98FBF6FAF8
S315080067500023524640F2DE714FF4006009F0AAFEAB
S31508006760BDE8F88F1CB50020019000BF00900023FB
S3150800677001AA40F2D1714FF4006003F03FFC0023F8
S315080067806A4640F2D6714FF4006003F037FC642184
S3150800679001984843009990FBF1F40023224640F201
S315080067A0DD714FF4006009F085FE1CBD30B585B07B
S315080067B00020009001904FF4FA71FE48FDF7CBFCDB
S315080067C0002304AA40F2D6714FF4006003F016FCC9
S315080067D00498C5B22025002412E02146012303AA05
S315080067E0980203F00BFC0398C0F30721F14A02F85C
S315080067F014100398C1B26000401C1154601CC4B246
S31508006800AC42EADB002304AA40F2D7714FF40060D9
S3150800681003F0F4FB0498C5B20825002414E004F13B
S315080068203001012303AA980203F0E8FB0398C0F39A
S31508006830072160004030DF4A11540398C1B2600056
S3150800684041301154601CC4B2AC42E8DB002303AAF1
S3150800685040F2D1714FF4006003F0D0FB0398000AB0
S31508006860D44981F85000039881F85100002303AAFF
S3150800687040F2D2714FF4006003F0C0FB4EF660217F
S315080068800398081A03900398000ACA4981F8520027
S31508006890039881F85300002303AA40F2E9714FF4E4
S315080068A0006003F0ABFB0398000AC24981F8540064
S315080068B0039881F85500002303AA40F2DF714FF4CC
S315080068C0006003F09BFB0398000ABA4981F856005A
S315080068D0039881F85700002303AA4FF4FC614FF48C
S315080068E0006003F08BFB0398000AB24981F8580050
S315080068F0039881F85900002303AA40F2E1714FF486
S31508006900006003F07BFB0398000AAA4981F85A0045
S31508006910039881F85B00002303AA40F2E2714FF462
S31508006920006003F06BFB0398000AA24981F85C003B
S31508006930039881F85D00002303AA40F2D3714FF44F
S31508006940006003F05BFB0398000A9A4981F85E0031
S31508006950039881F85F00002303AA40F2F6314FF44A
S31508006960006003F04BFB002302AA40F2E9714FF4E2
S31508006970006003F043FB6421039890FBF1F0029951
S3150800698048434FF47A7190FBF1F003900398000A9C
S31508006990884981F86000039881F86100002303AAFA
S315080069A040F2D6714FF4006003F028FB0398000A02
S315080069B0804981F86200039881F86300002303AADE
S315080069C040F2D7714FF4006003F018FB0398000AF1
S315080069D0784981F86400039881F86500002303AAC2
S315080069E040F2FE314FF4006003F008FB0398000AFA
S315080069F0704981F86600039881F8670000200390C3
S31508006A006D4800786C49497808436B49897808438A
S31508006A106949C9780843684909790843664949793B
S31508006A20084318B1039840F0010003900398000A40
S31508006A30604981F86800039881F86900002303AA71
S31508006A4040F2D9714FF4006003F0D8FA0398000AAF
S31508006A50584981F86A00039881F86B00002303AA55
S31508006A604FF4FB614FF4006003F0C8FA0398000A7C
S31508006A70504981F86C00039881F86D00012303AA38
S31508006A804121980203F0BAFA0398000A494981F8A5
S31508006A906E00039881F86F00002303AA40F2E371A1
S31508006AA04FF4006003F0AAFA0398000A414981F8F6
S31508006AB07000039881F87100002303AA40F2D1718F
S31508006AC04FF4006003F09AFA002304AA40F2D27148
S31508006AD04FF4006003F092FA47F230510498884266
S31508006AE003DB0498401A049004E047F230510498F6
S31508006AF0081A0490DDE903014843642190FBF1F08C
S31508006B0003900398000A2B4981F87200039881F8CC
S31508006B10730001F0F5FE039028484078254981F86E
S31508006B2074002648007881F8750001F061FF03902B
S31508006B302248C0781F4981F876002048807881F875
S31508006B40770001F0CBFF03901C484079194981F87A
S31508006B5078001A48007981F8790002F05BF803900A
S31508006B601648C079134981F87A001448807981F863
S31508006B707B00002003901048007810B10120039094
S31508006B8001E000200390002003900398000A0949B9
S31508006B9081F87E00039881F87F00002303AA40F25B
S31508006BA0F7714FF4006003F029FA47F2305003906A
S31508006BB0039805E082290020D4020020D003002093
S31508006BC0000AFE4981F88000039881F881000023B5
S31508006BD004AA4FF47C714FF4006003F00FFA04988E
S31508006BE0C5B20020039000240AE0F5480078012188
S31508006BF0A140084010B1601C039003E0601CC4B2B9
S31508006C00AC42F2DB00BF002003900398000AEB4970
S31508006C1081F88200039881F88300002303AA40F2D2
S31508006C20F4714FF4006003F0E9F90398000AE349A8
S31508006C3081F88400039881F88500002304AA40F2AD
S31508006C40D6714FF4006003F0D9F90498C5B210253F
S31508006C50002414E004F12001012303AA980203F09A
S31508006C60CDF90398C0F3072160008E30D34A11543A
S31508006C700398C1B260008F301154601CC4B2AC4294
S31508006C80E8DBD048C07FA52805D11822CD49CB48D6
S31508006C90AE30FDF747FAFF223821C848C630FDF75F
S31508006CA053FA002303AA40F2F6314FF4006003F0CA
S31508006CB0A5F96421039890FBF1F003900398000A64
S31508006CC0BE4981F8FE00039881F8FF00002303AA55
S31508006CD040F2F9314FF4006003F090F90398000A86
S31508006CE0B64981F80001039881F80101002303AA37
S31508006CF040F2EF314FF4006003F080F90398000A80
S31508006D00AE4981F80201039881F80301002303AA1A
S31508006D104FF47C714FF4006003F070F90398000A91
S31508006D20A64981F80401039881F80501002303AAFE
S31508006D3040F2F1314FF4006003F060F90398000A5D
S31508006D409E4981F80601039881F80701002303AAE2
S31508006D5040F2F2314FF4006003F050F90398000A4C
S31508006D60964981F80801039881F80901002303AAC6
S31508006D7040F2F3314FF4006003F040F90398000A3B
S31508006D808E4981F80A01039881F80B01002303AAAA
S31508006D904FF47D714FF4006003F030F90398000A50
S31508006DA0864981F80C01039881F80D01002303AA8E
S31508006DB040F2F5314FF4006003F020F90398000A19
S31508006DC07E4981F80E01039881F80F01002303AA72
S31508006DD04FF47E714FF4006003F010F90398000A2F
S31508006DE0764981F81001039881F81101002303AA56
S31508006DF040F203414FF4006003F000F90398000ADB
S31508006E006E4981F81201039881F81301002303AA39
S31508006E1040F22D414FF4006003F0F0F80398000AA1
S31508006E20664981F81401039881F81501002303AA1D
S31508006E3040F23B414FF4006003F0E0F80398000A83
S31508006E405E4981F81601039881F81701002303AA01
S31508006E5040F22E414FF4006003F0D0F80398000A80
S31508006E60564981F81801039881F81901002303AAE5
S31508006E7040F23C414FF4006003F0C0F80398000A62
S31508006E804E4981F81A01039881F81B01002303AAC9
S31508006E9040F227414FF4006003F0B0F80398000A67
S31508006EA0464981F81C01039881F81D01002303AAAD
S31508006EB040F235414FF4006003F0A0F80398000A49
S31508006EC03E4981F81E01039881F81F01002303AA91
S31508006ED04FF485614FF4006003F090F80398000AB8
S31508006EE0364981F82001039881F82101002303AA75
S31508006EF040F236414FF4006003F080F80398000A28
S31508006F002E4981F82201039881F82301002303AA58
S31508006F1040F22B414FF4006003F070F80398000A22
S31508006F20264981F82401039881F82501002303AA3C
S31508006F3040F239414FF4006003F060F80398000A04
S31508006F401E4981F82601039881F82701002303AA20
S31508006F5040F22C414FF4006003F050F80398000A01
S31508006F60164981F82801039881F82901002303AA04
S31508006F7040F23A414FF4006003F040F80398000AE3
S31508006F800E4981F82A01039881F82B01002303AAE8
S31508006F9040F232414FF4006003F030F80398000ADB
S31508006FA0064981F82C01039881F82D01002303AACC
S31508006FB04FF488614FF4006006E000008229002043
S31508006FC0D40200201605002003F018F80398000ADA
S31508006FD0FB4981F82E01039881F82F01002303AAA3
S31508006FE040F233414FF4006003F008F80398000AB2
S31508006FF0F34981F83001039881F83101002303AA87
S3150800700040F241414FF4006002F0F8FF0398000A8D
S31508007010EB4981F83201039881F83301002303AA6A
S315080070204FF486614FF4006002F0E8FF0398000A07
S31508007030E34981F83401039881F83501002303AA4E
S3150800704040F23E414FF4006002F0D8FF0398000A70
S31508007050DB4981F83601039881F83701002303AA32
S3150800706040F231414FF4006002F0C8FF0398000A6D
S31508007070D34981F83801039881F83901002303AA16
S3150800708040F23F414FF4006002F0B8FF0398000A4F
S31508007090CB4981F83A01039881F83B01002303AAFA
S315080070A040F22F414FF4006002F0A8FF0398000A4F
S315080070B0C34981F83C01039881F83D01002303AADE
S315080070C040F23D414FF4006002F098FF0398000A31
S315080070D0BB4981F83E01039881F83F01002303AAC2
S315080070E040F234414FF4006002F088FF0398000A2A
S315080070F0B34981F84001039881F84101002303AAA6
S3150800710040F242414FF4006002F078FF0398000A0B
S31508007110AB4981F84201039881F84301002303AA89
S315080071204FF48061480002F069FF0398000AA449F9
S3150800713081F84401039881F84501002303AA40F227
S3150800714001414FF4006002F059FF0398000A9C4978
S3150800715081F84601039881F84701002303AA40F203
S31508007160F5714FF4006002F049FF0398552802D1E3
S315080071700020039001E0012003900398000A90493B
S3150800718081F84801039881F84901002303AA40F2CF
S31508007190F6714FF4006002F031FF0398552802D1CA
S315080071A00020039001E0012003900398000A844917
S315080071B081F84A01039881F84B01002303AA40F29B
S315080071C0E9714FF4006002F019FF0398000A7C4940
S315080071D081F84C01039881F84D01002303AA40F277
S315080071E04A414FF4006002F009FF0398000A744907
S315080071F081F84E01039881F84F01002409E0C4F193
S315080072000D007049095C04F5A8706D4A1154601C9C
S31508007210C4B20E2CF3DB002409E0C4F10D006A4960
S31508007220095C04F5B070664A1154601CC4B20E2C91
S31508007230F3DB002424E004F58361002303AA4FF45A
S31508007240006002F0DBFE0398010EA00000F5B8709E
S315080072505B4A11540398C0F30741A00000F271106D
S3150800726011540398C0F30721A00000F5B970115412
S315080072700398C1B2A00000F273101154601CC4B286
S31508007280082CD8DB002303AA40F255414FF40060CE
S3150800729002F0B4FE0398000A494981F89001039860
S315080072A081F89101002303AA40F256414FF4006089
S315080072B002F0A4FE0398000A414981F89201039856
S315080072C081F89301002303AA40F257414FF4006066
S315080072D002F094FE0398000A394981F8940103984C
S315080072E081F89501002303AA4FF484614FF40060E6
S315080072F002F084FE0398000E314981F8960103983E
S31508007300000C81F897010398000A81F89801039800
S3150800731081F89901002304AA40F2D6714FF400605F
S3150800732002F06CFE049803900398000E244981F835
S315080073309A010398000C81F89B01FF2081F89C01B3
S3150800734081F89D01002081F89E0181F89F01FF20A8
S3150800735081F8A00181F8A10181F8A20181F8A301B1
S31508007360684604F035F8BDF80000A0F5FA6014493F
S3150800737081F8A6019DF8020081F8A7019DF803008F
S3150800738081F8A8019DF8040081F8A9019DF8050077
S3150800739081F8AA019DF8060081F8AB01002081F862
S315080073A0AC0181F8AD01FF2081F8AE0181F8AF018B
S315080073B0FF222E210548FCF7C7FE05B030BD0000A8
S315080073C082290020BA030020AC030020322B0020BB
S315080073D07047000010B5002403F05CFB0446C4B9EE
S315080073E01B480078401C1A4908700846007803288C
S315080073F012DD032008701748007868B900230122B7
S3150800740040F2ED71D00209F055F8012011490870D3
S3150800741002E000200E490870B4B10F480078401CFD
S315080074200D49087008460078032810DD0320087007
S3150800743000231A4640F2ED714FF4006009F03AF85D
S3150800744000200449087002E000200349087010BDB6
S3150800745016030020180300201703002010B5002487
S3150800746003F00CFB0446C4B91B480078401C1A49B3
S31508007470087008460078032812DD032008701748AC
S31508007480007868B90023012240F2EC71D00209F0B5
S3150800749011F801201149087002E000200E49087011
S315080074A0B4B10F480078401C0D49087008460078AA
S315080074B0032810DD0320087000231A4640F2EC71F9
S315080074C04FF4006008F0F6FF00200449087002E057
S315080074D000200349087010BD13030020150300207F
S315080074E01403002010B504460548007806F036F95E
S315080074F02146044800F014F80149087010BD000040
S31508007500DC04002009750008002003490870FF20E4
S315080075100249087070470000DB040020DC040020E4
S3150800752030B505460C46094803F03AF80346302BB1
S3150800753009DA074840F823500021C03040F82310E4
S31508007540024840F82340184630BD0000A811002024
S315080075505813002010B56421014807F057FC10BDE8
S3150800756025D7000810B54FF4FA71044807F04EFC09
S315080075706421034807F04AFC10BD000021F000080A
S31508007580B549000810B564210B4809F0ADF94FF468
S315080075907A710A4807F03AFC4FF47A71084807F0FE
S315080075A035FC6421074807F031FC4FF4FA610648B8
S315080075B007F02CFC10BD0000A9590008B5110108F8
S315080075C07D090108E15B0008457A000810B501222B
S315080075D04021034801F02DF900200249087010BD2A
S315080075E000100140B20400204FF4FA5200FB02F1E9
S315080075F000BF0A1EA1F10101FBD1704738B5002072
S31508007600009000236A4640F2EC714FF4006002F0E5
S31508007610F5FC009810B900202549087000236A4631
S3150800762040F2D2714FF4006002F0E8FC47F23051A4
S315080076300098884201DD012038BD1D48007808B150
S315080076400020F9E700236A4640F2F5714FF400601E
S3150800765002F0D4FC0098552803D016480078012873
S3150800766001D10020E8E706F0E1FF08B10020E3E7D2
S31508007670002419E0104850F8241000236A464FF4F5
S31508007680006002F0BBFC009855280BD10A4850F858
S31508007690240040F6C831884202D101200449087006
S315080076A00020C9E7601CC4B2052CE3D30120C3E758
S315080076B062040020640400205C71010838B50020CB
S315080076C0009000236A4640F2ED714FF4006002F024
S315080076D095FC009810B900202149087000236A46D5
S315080076E040F2D2714FF4006002F088FC47F2305144
S315080076F00098884201DA012038BD1948007808B197
S315080077000020F9E702F033FE18B916480078012878
S3150800771001D10020F0E706F089FF08B10020EBE769
S31508007720002419E0104850F8241000236A464FF444
S31508007730006002F063FC009855280BD10A4850F8FF
S31508007740240040F6C931884202D101200449087054
S315080077500020D1E7601CC4B2052CE3D30120CBE797
S3150800776061040020640400204871010808B500205F
S31508007770009000236A464FF489614FF4006002F0D6
S315080077803DFC009801280CD104F0FEF8012808D128
S3150800779000231A464FF48961C00208F08BFE04F0F4
S315080077A0CFF90098A5280CD100231A464FF4896111
S315080077B04FF4006008F07EFE01201349087004F0BB
S315080077C0BFF90098552809D100231A464FF4896154
S315080077D04FF4006008F06EFE04F0B2F900236A4622
S315080077E040F203414FF4006002F008FC4FF6FF71C7
S315080077F00098884202D101200449087003F08AF8EB
S3150800780001200349087008BD4D000020150000201E
S315080078104F00002010B5FFF751FF012806D10020C0
S315080078200CF072F801201449087019E01248007823
S3150800783080B1012003F08CFE41F2883003F061F834
S3150800784001200CF061F841F2883003F05AF8002064
S3150800785003F07EFE00200849087001200CF054F859
S315080078600CF0AAF818B100200BF084F802E0012009
S315080078700BF080F810BD00007404002008B5202025
S31508007880ADF8000003208DF8020004208DF80300EF
S315080078906946024800F0F0FE08BD000000080140F5
S315080078A008B52020ADF8000003208DF8020014204A
S315080078B08DF803006946024800F0DEFE08BD0000A8
S315080078C00008014010B5012000F058F803F036FF13
S315080078D010BD000010B54FF4005000F055F828B15F
S315080078E04FF4005000F04AF803F028FF4FF4004028
S315080078F000F04AF800B34FF4004000F03FF80F4894
S315080079000078B8B10E480078082815DAFFF7D6FED1
S31508007910012811D103F0BEF870B9012003F018FE52
S31508007920012003F04BFE04200BF024F8052005493E
S31508007930087001E003F002FF10BD00004F000020B0
S31508007940510000205000002010B5082000F016F85D
S3150800795003F0F4FE10BD10B5102000F00FF803F088
S31508007960EDFE10BD10B5202000F008F84FF4807029
S3150800797000F004F803F0E2FE10BD000001490860BB
S315080079807047000014040140014600200022074BFE
S315080079901B6803EA0102054B14331B680B4013B13D
S315080079A00AB1012000E000207047000000040140F1
S315080079B0002123498279002A3AD00A4612680368C8
S315080079C09A430B461A600A1D126803689A430B1DF0
S315080079D01A60027911440A6803681A430A60184A49
S315080079E00832126803689A43154B08331A601A1D41
S315080079F0126803689A43124B0C331A604279102AAC
S31508007A000ED11A1F126803681A430D4B08331A6001
S31508007A101A1D126803681A43094B0C331A600DE0E5
S31508007A200749427911440A6803681A430A6005E05F
S31508007A30027911440A6803689A430A60704700008D
S31508007A40000401402DE9F041104800681049096812
S31508007A50451A002D00DA6D4201F032F9044647F264
S31508007A603050844210DA071B95FBF7F6C6EB061072
S31508007A708000642190FBF1F60023324640F2EA7159
S31508007A804FF4006008F016FDBDE8F08124040020DC
S31508007A90200400207CB504460020019000900025B3
S31508007AA040F6A970FEF7B0FB40B1A07820F00300BD
S31508007AB0401CA07001203A490870102540F6AA70AB
S31508007AC0FEF7A2FB40B1A07820F00300401CA0708E
S31508007AD0012033490870112540F6AC70FEF794FB77
S31508007AE040B1A07820F00300401CA07001202C496A
S31508007AF00870122540F6AD70FEF786FB40B1A078F7
S31508007B0020F00300401CA0700120254908701325A9
S31508007B10002301AA40F2D1714FF4006002F06EFA18
S31508007B2000236A464FF4FC614FF4006002F066FADF
S31508007B3040F2DC510098884202DB0198322814DAB8
S31508007B4018480078401C17490870084600780A2823
S31508007B500EDD0A200870E07820F00C00001DE070A9
S31508007B6001200F490870172502E000200D4908700A
S31508007B7040F6A470FEF748FB18B1012008490870C2
S31508007B80342507480078012806D100232A4640F202
S31508007B90EB71C00208F08EFC014800787CBD00003D
S31508007BA0190300201A0300200549096821F010016D
S31508007BB0034A1160114609680143116070470000C5
S31508007BC00020024001460020034A106800F03800F1
S31508007BD008431060704700000020024010B50022DC
S31508007BE02021074800F025FE01224021044800F024
S31508007BF020FE00224021024800F01BFE10BD0000B6
S31508007C00000801402DE9F04105460E4617460120B9
S31508007C100AF0B1FB00F084F8A02000F0FBF805F0AC
S31508007C209BF838B900F094F800200AF0A4FB00206D
S31508007C30BDE8F081301200F0EDF805F08DF830B9A6
S31508007C4000F086F800200AF096FB0020F0E7F0B274
S31508007C5000F0E0F805F080F830B900F079F8002077
S31508007C600AF089FB0020E3E700F05AF8A12000F0AB
S31508007C70D1F805F071F830B900F06AF800200AF07A
S31508007C807AFB0020D4E700241AE000F025F805F86E
S31508007C90010B781EA0420FD1012220210D4800F0C9
S31508007CA0C8FD012240210B4800F0C3FD00224021F7
S31508007CB0084800F0BEFD01E0FFF790FF601C84B2A3
S31508007CC0BC42E2DB00F044F800200AF054FB012035
S31508007CD0AEE700000008014070B50024FFF7CEFDAE
S31508007CE0002515E06006040E012240210B4800F02D
S31508007CF0A0FD2021094800F093FD012801DB44F08E
S31508007D00010400224021054800F093FD681CC5B215
S31508007D10082DE7DBFFF7C4FD204670BD00080140CB
S31508007D2010B501224021094800F083FD01222021D7
S31508007D30064800F07EFD00222021044800F079FD67
S31508007D4000224021014800F074FD10BD00080140E2
S31508007D5010B500222021074800F06BFD01224021C2
S31508007D60044800F066FD01222021024800F061FD6A
S31508007D7010BD0000000801402DE9F04104460D46FB
S31508007D80174601200AF0F7FAFFF7CAFFA02000F00D
S31508007D9041F804F0E1FF38B9FFF7DAFF00200AF0EE
S31508007DA0EAFA0020BDE8F081281200F033F804F062
S31508007DB0D3FF30B9FFF7CCFF00200AF0DCFA002029
S31508007DC0F0E7E8B200F026F804F0C6FF30B9FFF78E
S31508007DD0BFFF00200AF0CFFA0020E3E700260FE0F5
S31508007DE014F8010B00F016F804F0B6FF30B9FFF7E7
S31508007DF0AFFF00200AF0BFFA0020D3E7701C86B256
S31508007E00BE42EDDBFFF7A4FF00200AF0B4FA01201A
S31508007E10C8E7000070B5044600251CE004F080069B
S31508007E206006040E802E05D1012220210B4800F0A1
S31508007E3000FD04E000222021084800F0FAFC012297
S31508007E404021064800F0F5FC00224021034800F0D6
S31508007E50F0FC681CC5B2082DE0DB70BD00080140C7
S31508007E600EB50020029057200190002000900023B4
S31508007E7002AA40F2F4714FF4006002F0BFF8002342
S31508007E8001AA40F24A414FF4006002F0B7F8002315
S31508007E906A464FF47B614FF4006002F0AFF8009831
S31508007EA088B100231A4640F6AE714FF4006008F018
S31508007EB001FB3D48007800F0DF003B4908700720C9
S31508007EC00AF058FD0EBDDDE90110884216DB374879
S31508007ED00078401C35490870002035490870334839
S31508007EE000781E2826DB1E20304908700023012250
S31508007EF040F6AE71D00208F0DDFA1BE00298C01C0D
S31508007F000199884216DC2A480078401C28490870DE
S31508007F10002026490870264800781E280ADB1E20FD
S31508007F202349087000231A4640F6AE714FF40060E4
S31508007F3008F0C0FA002302AA40F6AE714FF40060BA
S31508007F4002F05CF81B480078A8B11B480188008835
S31508007F50401C194A1080B1F5167F02DD002015492C
S31508007F60087006200AF006FD0F48007840F0200049
S31508007F700D49087015E00298012809D106200AF073
S31508007F80F9FC0948007840F020000749087008E025
S31508007F900548007800F0DF000349087007200AF05A
S31508007FA0E9FC00BF8EE700001B00002081040020CA
S31508007FB082040020E0030020E203002070B5044696
S31508007FC00D46242D73D2DFE805F07212304A515857
S31508007FD0738DA7C1F5F3F2F1F0EFEEEDECEBEAE9FC
S31508007FE0E8E7E6E5E4E3E2E1E0DFDEDDDCDB0BF033
S31508007FF01DFF06460BF0F6FE06433EB1D64800784E
S3150800800020F00300801CD44908700DE034B1D24832
S31508008010007864F30100D049087005E0CE4800787E
S3150800802020F00300CC49087094E10BF023FF38B127
S31508008030C948007820F00C000830C74908700DE0E0
S3150800804034B1C548007864F38300C349087005E075
S31508008050C148007820F00C00BF4908707AE1BE4894
S31508008060007864F30510BC49087073E1BA480078D3
S3150800807064F38710B84908706CE10BF0FFFD38B15E
S31508008080B548407820F00300801CB34948700DE0DD
S3150800809034B1B148407864F30100AF49487005E04F
S315080080A0AD48407820F00300AB49487052E150E1F2
S315080080B00BF008FE38B1A848407820F00C000830CC
S315080080C0A54948700DE034B1A348407864F38300AD
S315080080D0A149487005E0A048407820F00C009E4968
S315080080E0487037E10BF012FE38B19B48407820F013
S315080080F030002030984948700DE034B196484078F1
S3150800810064F305109449487005E09348407820F0D8
S315080081103000914948701DE10BF01CFE38B18E48BD
S31508008120407820F0C00080308B4948700DE034B1AB
S315080081308948407864F387108749487005E086487F
S31508008140407820F0C0008449487003E10BF0B6FE81
S3150800815038B18148807820F00300801C7E498870F9
S315080081600DE034B17C48807864F301007A49887060
S3150800817005E07948807820F0030077498870E9E0BF
S31508008180E0E0D6E0CCE0C4E0BCE0B4E0ACE0A4E0DB
S315080081909CE08AE082E07AE072E06AE062E05AE017
S315080081A052E050E048E046E03EE036E02EE026E0C9
S315080081B01EE0FFE70BF0CAFE06460BF0EBFE064391
S315080081C03EB16548807820F00C0008306249887016
S315080081D00DE034B16048807864F383005E498870A6
S315080081E005E05D48807820F00C005B498870B1E0B6
S315080081F05948807864F3051057498870AAE05648AC
S31508008200807864F3871054498870A3E05248C07890
S3150800821064F301005049C8709CE04F48C07864F385
S3150800822083004D49C87095E04B48007964F3000017
S31508008230494908718EE08DE04748007964F3820069
S315080082404549087186E000BF4348007964F3041085
S31508008250414908717EE04048007964F345103E497B
S31508008260087177E03C48007964F386103A4908714A
S3150800827070E03948007964F3C7103749087169E036
S315080082803548407964F300003349487162E0324862
S31508008290407964F34100304948715BE02E484079E3
S315080082A064F382002C49487154E034B12A48407975
S315080082B064F3C3002849487107E00DF05BF92649C5
S315080082C0497960F3C3012448417100BF22484079C7
S315080082D064F30410204948713CE01F48407964F370
S315080082E045101D49487135E01B48407964F38610EE
S315080082F0194948712EE01848407964F3C7101649A1
S31508008300487127E01448807964F30000124988719F
S3150800831020E01148807964F341000F49887119E01B
S315080083200BF0F0FD0C49897960F382010A488171E6
S3150800833010E00BF033FD0849897960F3C30106485C
S31508008340817107E00448807964F304100249887152
S3150800835000E000BF00BF70BDD003002010B5234861
S3150800836000780A2806DB00202049087000F048F843
S3150800837000F08AF81D484078322804DB08F0D8FF58
S3150800838000201A4948701948C0781E2802DB0020C8
S315080083901649C87015488078642802DB00201349FE
S315080083A0887012480079642804DB00200F49087198
S315080083B00F4908700D484079642804DB00200B49F2
S315080083C048710C49087009488079642802DB002046
S315080083D0064988710548C079642806DB00200349E8
S315080083E0C871054908700549087010BDC803002002
S315080083F0CB040020B2040020BC0400200B0500209A
S3150800840008B500236A4640F2D1714FF4006001F0C6
S31508008410F5FD0098000A1B4948710098C1B2194831
S31508008420817100236A4640F2D2714FF4006001F070
S31508008430E5FD0098010A1348C1710098C1B21148B8
S31508008440017200236A4640F2D3714FF4006001F0CE
S31508008450D5FD0098010A0B4841720098C1B2094837
S31508008460817200236A4640F2E9714FF4006001F018
S31508008470C5FD0098010A0348C1720098C1B20148B7
S31508008480017308BD1808002008B500236A4640F2A3
S31508008490D1714FF4006001F0B1FD0098010A1B4844
S315080084A041750098C1B21948817500236A4640F2A1
S315080084B0D2714FF4006001F0A1FD0098010A13483B
S315080084C0C1750098C1B21148017600236A4640F288
S315080084D0D3714FF4006001F091FD0098010A0B4832
S315080084E041760098C1B20948817600236A4640F26F
S315080084F0E9714FF4006001F081FD0098010A034814
S31508008500C1760098C1B20148017708BD1808002055
S3150800851010B50D48007850B10C48007838B90C48A9
S31508008520007820B90AF062FD00200749087000F0BB
S3150800853051F807480078012804D109F0D9FF00202E
S315080085400349087010BD00008D0300207F0300203A
S315080085508E03002010B564201949086008200873A6
S3150800856018480088052824DA17480078012820D1F9
S3150800857000240AE01348008804EBC0001349095C8C
S315080085800F48001D0155601CC4B2082CF2DB0D48CB
S315080085900088401C0B49088009480178021D0C48D0
S315080085A00078FCF78BF80621AFF25700FEF7B8FF04
S315080085B004E00020044908700249088010BD000044
S315080085C0C80600207C0300207F03002096060020B2
S315080085D07003002070B51548008815490988884237
S315080085E023D0144C114D2D8804EB0514237B114C14
S315080085F00E4D2D8804EB0514A2680E4C0B4D2D88E4
S3150800860004EB051421790B4C084D2D8804EB051451
S3150800861020680AF047FD05480088401C142190FB95
S31508008620F1F201FB12000149088070BD9A0300208F
S3150800863098030020D806002030B500228B071C0FAF
S315080086400F2303FA04F20B4B8C1053F82430934390
S31508008650084C8D1044F8253023468C1053F82430E6
S315080086608C07240F00FA04F42343024C8D1044F8B7
S31508008670253030BD080001402DE9F04102460025AD
S315080086800026002000230024002791F803C00CF0E0
S315080086900F0591F803C00CF0100CBCF1000F03D0C5
S315080086A091F802C04CEA050591F800C0BCF1000F2C
S315080086B031D0146800202BE04FF0010C0CFA00F3BF
S315080086C0B1F800C00CEA03069E4220D183004FF0A1
S315080086D00F0C0CFA03F7BC4305FA03FC4CEA040436
S315080086E091F803C0BCF1280F06D14FF0010C0CFA23
S315080086F000FCC2F814C00AE091F803C0BCF1480FA8
S3150800870005D14FF0010C0CFA00FCC2F810C0401C51
S315080087100828D1D31460B1F800C0BCF1FF0F34DDCE
S31508008720546800202EE000F1080C4FF0010808FA02
S315080087300CF3B1F800C00CEA03069E4221D183006F
S315080087404FF00F0C0CFA03F7BC4305FA03FC4CEA8E
S31508008750040491F803C0BCF1280F05D100F1080CF8
S3150800876008FA0CF8C2F8148091F803C0BCF1480F57
S3150800877007D100F1080C4FF0010808FA0CF8C2F806
S315080087801080401C0828CED35460BDE8F081000054
S31508008790F0B50A46002300240021002500F0004613
S315080087A0B6F1004F02D11D4EF16901E01B4E71680A
S315080087B0C0F3034583B200F44016B6F5401F08D14E
S315080087C021F07061154E766826F07066134F7E604C
S315080087D012E000F48016B6F5801F06D1032606FAC5
S315080087E005F4A14341F0706106E0460D360103FA2F
S315080087F006F6B14341F0706122B1460D360103FA1F
S3150800880006F6314300F00046B6F1004F02D1034E9A
S31508008810F16101E0014E7160F0BD00000000014009
S315080088200246002093680B400BB1012000E00020AF
S3150800883070470AB1016100E0416170471FB5002029
S3150800884000900190029003900F4800880F4909880C
S31508008850884218D00C48008800EB800202EBC00062
S315080088600B4A81180D226846FBF75CFC684601F046
S31508008870BAFE05480088401C142190FBF1F201FB62
S315080088801200014908801FBDC4040020C20400204C
S315080088908A2400201FB500200090019002900390C2
S315080088A01348008813490988884220D0124800785E
S315080088B0E8B90120104908700D48008800EB8002CD
S315080088C002EBC0000D4A81180D226846FBF72AFC08
S315080088D068460AF0EBFE012809D105480088401CC5
S315080088E01E2190FBF1F201FB1200014908801FBD11
S315080088F0C0040020BE040020C60400200423002073
S3150800890038B500240020009000236A4640F6A67178
S315080089104FF4006001F072FB0098012802D144F080
S31508008920010404E00098022801D144F0020400235F
S315080089306A4640F6A7714FF4006001F05FFB0098A5
S31508008940012802D144F0040404E00098022801D169
S3150800895044F0080400236A464FF47A614FF4006035
S3150800896001F04CFB0098012802D144F0100404E001
S315080089700098022801D144F0200400236A4640F6F4
S31508008980A1714FF4006001F039FB0098012802D16B
S3150800899044F0400404E00098022801D144F0800421
S315080089A000236A4640F6AC714FF4006001F026FBDE
S315080089B00098012802D144F4807404E00098022843
S315080089C001D144F4007400236A4640F6AD714FF4B1
S315080089D0006001F013FB0098012802D144F480647A
S315080089E004E00098022801D144F40064204638BD0A
S315080089F038B5002400236A4640F6A4714FF4006097
S31508008A0001F0FCFA0098012802D144F0010404E0C0
S31508008A100098022801D144F0020400236A4640F671
S31508008A20A5714FF4006001F0E9FA0098012802D117
S31508008A3044F0040404E00098022801D144F0080434
S31508008A4000236A4640F6A2714FF4006001F0D6FA98
S31508008A500098012802D144F0100404E00098022886
S31508008A6001D144F0200400236A4640F6A3714FF46E
S31508008A70006001F0C3FA0098012802D144F04004CE
S31508008A8004E00098022801D144F0800400236A46D5
S31508008A9040F6A8714FF4006001F0B0FA009801287A
S31508008AA002D144F4807404E00098022801D144F409
S31508008AB0007400236A4640F6AB714FF4006001F07B
S31508008AC09DFA0098012802D144F4806404E00098D5
S31508008AD0022801D144F40064204638BD38B5002484
S31508008AE000236A4640F6AF714FF4006001F086FA3B
S31508008AF0009808B144F0010400236A4640F6AE71B6
S31508008B004FF4006001F07AFA009808B144F00204C4
S31508008B1000236A4640F6B1714FF4006001F06EFA20
S31508008B20009808B144F0040400236A464FF47B61B8
S31508008B304FF4006001F062FA00236A4640F6B3710A
S31508008B404FF4006001F05AFA009808B144F0100496
S31508008B5000236A4640F6B4714FF4006001F04EFAFD
S31508008B60009808B144F0200400236A4640F6B5711F
S31508008B704FF4006001F042FA009808B144F040044E
S31508008B8000236A4640F6B4714FF4006001F036FAE5
S31508008B90009808B144F0800400236A4640F6B9718B
S31508008BA04FF4006001F02AFA009808B144F4807482
S31508008BB000236A4640F6BA714FF4006001F01EFAC7
S31508008BC0009808B144F4007400236A4640F6BB7165
S31508008BD04FF4006001F012FA009808B144F480647A
S31508008BE000236A4640F6BC714FF4006001F006FAAD
S31508008BF0009808B144F4006400236A4640F6BD7143
S31508008C004FF4006001F0FAF9009808B144F4805472
S31508008C10204638BD38B5002400236A4640F6BF71A1
S31508008C204FF4006001F0EAF9009808B144F0010435
S31508008C3000236A464FF47C614FF4006001F0DEF9C8
S31508008C40009808B144F0040400236A4640F6C1714E
S31508008C504FF4006001F0D2F9009808B144F0080416
S31508008C60204638BD38B500200090002400236A4607
S31508008C7040F6B8314FF4006001F0C0F940F6A6702E
S31508008C80FDF7C2FA18B10098552800D101242046EC
S31508008C9038BD38B500200090002400236A4640F607
S31508008CA0B9314FF4006001F0A9F940F6A770FDF755
S31508008CB0ABFA18B10098552800D10124204638BDD2
S31508008CC00021002000BF05E0054A52F82120104483
S31508008CD04A1CD1B20A29F7DB0A2290FBF2F0704748
S31508008CE0600900200246002108E0064850F82100E5
S31508008CF0904201D101207047481CC1B20429F4D31F
S31508008D000020F8E78C60010838B504460D460020B7
S31508008D10009000236A4640F2D1714FF4006001F0DA
S31508008D206DF90098000A1D490870009848700023DC
S31508008D306A464FF4FA614FF4006001F05FF9009853
S31508008D40000A164988700098C87000236A4640F2DF
S31508008D50D2714FF4006001F051F94EF66021009887
S31508008D60081A00900098000A0C4908710098487182
S31508008D7000236A4640F2E9714FF4006001F03EF9BB
S31508008D800098000A054988710098C8710A4690211A
S31508008D902046FBF793FC012038BD0000A403002001
S31508008DA038B504460D460020009000236A4640F276
S31508008DB0DF714FF4006001F021F90098000A1749A5
S31508008DC008700098487000236A4640F2E5714FF42F
S31508008DD0006001F013F911490098887000236A466B
S31508008DE04FF4FC614FF4006001F008F90098000A9E
S31508008DF00A49C8700098087100236A4640F2E6716D
S31508008E004FF4006001F0FAF80449009848710A46E0
S31508008E1091212046FBF752FC012038BDA40300200F
S31508008E2038B504460D460020009000236A4640F2F5
S31508008E30E1714FF4006001F0E1F8154900980870F7
S31508008E4000236A4640F2E7714FF4006001F0D6F855
S31508008E500F490098487000236A4640F2E2714FF4C1
S31508008E60006001F0CBF80A490098887000236A462A
S31508008E704FF4FD614FF4006001F0C0F80449009812
S31508008E80C8700A4692212046FBF718FC012038BD17
S31508008E90A40300207CB504460D46002001900090EE
S31508008EA0002301AA40F2D3714FF4006001F0A6F83E
S31508008EB0234901980870002301AA40F2D9714FF49A
S31508008EC0006001F09BF81E4901984870002301AA2A
S31508008ED04FF4FB614FF4006001F090F818490198CF
S31508008EE0887018480078C870002301AA40F2F63145
S31508008EF04FF4006001F082F800236A4640F2E971F7
S31508008F004FF4006001F07AF8DDE9001048434FF4A9
S31508008F107A7190FBF1F001900198000E08490871EA
S31508008F200198000C48710198000A88710198C87167
S31508008F300A4693212046FBF7C1FB01207CBD0000B1
S31508008F40A4030020D803002038B504460D460020A7
S31508008F50009000236A4640F2D6714FF4006001F093
S31508008F604DF823490098087000236A4640F2D771E5
S31508008F704FF4006001F042F81D490098487000233C
S31508008F806A4640F2EC714FF4006001F037F8184970
S31508008F900098887000236A4640F2ED714FF400602D
S31508008FA001F02CF812490098C87012480078087128
S31508008FB000236A4640F2FE314FF4006001F01EF8C5
S31508008FC00098000A0A4948710098887100236A4681
S31508008FD040F2F4714FF4006001F010F8044900986B
S31508008FE0C8710A4694212046FBF768FB012038BD64
S31508008FF0A40300201B00002070B59AB005460E4653
S31508009000602102A8FBF7A7F8002001900024009031
S3150800901000236A4640F2D6714FF4006000F0EEFF76
S3150800902000BF13E02146012301AA980200F0E6FFDB
S315080090300198C0F3072002A901F81400012101EBE9
S31508009040440102AA01985054601CC4B20098844294
S31508009050E8DB002423E0062094FBF0F100FB114036
S31508009060401C124902AA125D0A54601C062190FB94
S31508009070F1F201FB120028B101210098C1EB400072
S31508009080A0420AD1062094FBF0F0401C074908705C
S315080090900A4695212846FBF711FB601CC4B20098C6
S315080090A0B4EB400FD7DB01201AB070BDA403002033
S315080090B070B588B006460D46142103A8FBF74BF891
S315080090C000200290002401902878AA280CD1A878BC
S315080090D029498880E878C88028790881687948818C
S315080090E001202649087002E0002024490870002360
S315080090F001AA40F2D7714FF4006000F07FFF062006
S31508009100019000240BE004F13001012302AA980221
S3150800911000F074FF03A902980855601CC4B20198B0
S315080091208442F0DB002421E0072094FBF0F100FBE9
S315080091301140401C124903AA125D0A54601C0721FB
S3150800914090FBF1F201FB120018B10198401EA042F3
S315080091500AD1072094FBF0F0401C094908700A461A
S3150800916096213046FBF7AAFA601CC4B201988442DD
S31508009170DADB012008B070BDE404002008050020F1
S31508009180A403002070B504460D461048007810491F
S3150800919008700E48407848700C48807888700B48EC
S315080091A0C078C8700948007908710848407948713C
S315080091B00648807988710548C079C8710A4697219A
S315080091C02046FBF77BFA012070BD0000D402002080
S315080091D0A403002070B504460D46104800781049CF
S315080091E008700E48407848700C48807888700B489C
S315080091F0C078C870094800790871084840794871EC
S315080092000648807988710548C079C8710A46982148
S315080092102046FBF753FA012070BD0000D00300205A
S31508009220A4030020F8B505460E4600200090002449
S315080092302148007818B101202049087002E0002072
S315080092401E49087000201D49087000236A4640F22E
S31508009250F7714FF4006000F0D1FE47F230500090ED
S315080092600098000A154948700098887000236A46D5
S315080092704FF47C714FF4006000F0C0FE00200F49E7
S31508009280C87000240AE00C4800780121A140084073
S3150800929018B1601C0949C87003E0641C0098844230
S315080092A0F1D300BF00200549C8700A46992128460F
S315080092B0FBF704FA0120F8BDD4020020A40300201D
S315080092C00246002108E0064850F82100904201D1E4
S315080092D001207047481CC1B20429F4D30020F8E7DE
S315080092E09C60010838B5044600200090002540F629
S315080092F0A670FCF789FF28B90AF098FD10B90AF09C
S3150800930071FD88B100236A4640F2DF714FF40060B0
S3150800931000F074FE0098B0F5965F05DA207820F024
S3150800932030001030207001254FF47A60FCF76CFF8E
S3150800933028B1207820F00C00001D20700125284651
S3150800934038BD0146002903DB0F2901DC012018E09E
S31508009350102903DB4F2901DC022012E0502903DB28
S315080093608F2901DC03200CE0902903DBBF2901DCEF
S31508009370042006E0D02903DBEF2901DC052000E004
S3150800938000207047F8B504460E46002500200090D8
S3150800939000236A4640F2F6314FF4006000F02EFED4
S315080093A00098000E124908700098000C4870009842
S315080093B0000A88700098C87000236A4640F2F9319E
S315080093C04FF4006000F01AFE0098000E0849087174
S315080093D00098000C48710098000A88710098C871B6
S315080093E00A4650212046FBF769F92846F8BD0000D1
S315080093F0A4030020F8B504460E4600250020009078
S3150800940000236A4640F2EF314FF4006000F0F6FDA3
S3150800941025490098087000236A464FF47C714FF47A
S31508009420006000F0EBFD20490098487000236A466A
S3150800943040F2F1314FF4006000F0E0FD1A4900985F
S31508009440887000236A4640F2F2314FF4006000F05B
S31508009450D5FD15490098C87000236A4640F2F331D5
S315080094604FF4006000F0CAFD0F4900980871002308
S315080094706A464FF47D714FF4006000F0BFFD0A495B
S315080094800098487100236A4640F2F5314FF40060AF
S3150800949000F0B4FD0449009888710A465121204617
S315080094A0FBF70CF92846F8BDA4030020F8B50446D6
S315080094B00E4600250020009000236A4640F2FA3145
S315080094C04FF4006000F09AFD4FF47A71009890FB13
S315080094D0F1F000900098000E154908700098000CED
S315080094E048700098000A88700098C87000236A4679
S315080094F040F2FB314FF4006000F080FD4FF47A71C2
S31508009500009890FBF1F000900098000E0849087149
