S31508004000C83F00200141000881FB00084DF4000864
S315080040107DFB000851550008A5870108000000002F
S31508004020000000000000000000000000B54C010878
S31508004030198700080000000035230108D178010817
S315080040401B4100081B4100081B410008653A01088E
S315080040501B4100081B410008E18B00081B410008B2
S315080040601B410008658C0008738C00081B4100087A
S315080040701B4100081B4100081B4100081B410008A2
S315080040801B4100081B4100081B41000877870108EF
S31508004090798701081B4100081B410008818C00082C
S315080040A01B4100081B4100081B4100081B41000872
S315080040B01B4100081B4100081B4100081B41000862
S315080040C01B4100081B4100081B4100081B41000852
S315080040D01B410008DD7F0108CD80010889810108A0
S315080040E0F18B0008A13601081B410008DFF80CD047
S315080040F000F04CF900480047A9A20108C83F002073
S315080041000648804706480047FEE7FEE7FEE7FEE763
S31508004110FEE7FEE7FEE7FEE7FEE7FEE74D79010864
S31508004120ED40000840EA01039B0703D009E008C9EF
S31508004130121F08C0042AFAD203E011F8013B00F85E
S31508004140013B521EF9D27047D2B201E000F8012BAA
S31508004150491EFBD270470022F6E710B513460A46F9
S3150800416004461946FFF7F0FF204610BD2DE9FE4F1D
S3150800417081EA030404F0004421F0004100944FF062
S31508004180000B23F0004350EA01045ED052EA030410
S315080041905BD0C3F30A54C1F30A552C44A4F2F33492
S315080041A00194A0FB0254C1F3130141F48011C3F337
S315080041B0130343F4801301FB024400FB034E840AF5
S315080041C0970A44EA815447EA8357A4FB076802958D
S315080041D08D0A05FB07854FEA932C04FB0C5427052B
S315080041E0029D4FEA065847EA1637B5EB08056EEB07
S315080041F0070C870E920E47EA811742EA8312A7FB3D
S315080042000201B6EB0B0164EB00042B0D43EA0C33F9
S315080042105E1844EB1C50DA465146E7FB0201C5F32B
S3150800422013044FEA0B3343EA14534FEA0432019C52
S3150800423043EA0603A4F10C040294009CCDE900B4F9
S3150800424000F055F803B0BDE8F08F00200146F9E705
S315080042500EB5C10F80EAE0700844CA07002140F293
S3150800426033438DE80E000A460B4600F040F803B0CB
S3150800427000BD70B5C1F30A5201F000450024C1F330
S31508004280130140F2FF3341F480119A4201DA00200B
S3150800429070BD40F233439A42A2F2334203DC5242E3
S315080042A000F006F800E090402C43F1D0404270BD83
S315080042B0202A04DB203A21FA02F00021704721FA6D
S315080042C002F3D040C2F120029140084319467047D4
S315080042D010B5141E73F1000408DA401C41F1000100
S315080042E092185B411A4301D120F0010010BD2DE957
S315080042F0F04D92469B4611B1B1FA81F202E0B0FA4E
S3150800430080F22032904600F053F804460F4640EA01
S315080043100A0041EA0B0153465A46084313D0114690
S3150800432053EA010019D0C8F140025046FFF7C0FF12
S3150800433005460E4650465946424600F039F80843A7
S3150800434005D0012004E020463946BDE8F08D00205E
S31508004350054346EAE0762C4337430A986305E40AA0
S31508004360A0EB08000022FD0A44EA47540A3002D5A9
S3150800437000200146E9E7010510196941DDE908450C
S3150800438000196941BDE8F04DA2E70000064C074D4B
S3150800439006E0E06840F0010394E807009847103407
S315080043A0AC42F6D3FFF7A6FE94F00108B4F0010874
S315080043B0202A04DB203A00FA02F1002070479140D7
S315080043C0C2F1200320FA03F319439040704770B5F1
S315080043D08C1810F8015B15F0070301D110F8013BA2
S315080043E02A1106D110F8012B03E010F8016B01F829
S315080043F0016B5B1EF9D12B0705D40023521E0DD481
S3150800440001F8013BFAE710F8013BCB1A921C03E0CE
S3150800441013F8015B01F8015B521EF9D5A142D8D306
S31508004420002070BD21B1826842F00102826003E07B
S31508004430826822F0010282607047000010B50446C7
S315080044401248844208D1012140150EF05BFE002176
S3150800445060150EF057FE17E00D48844208D1012179
S3150800446000150EF04FFE002120150EF04BFE0BE056
S315080044700848844208D10121C8030EF043FE0021F2
S315080044804FF400400EF03EFE10BD0000002401402F
S3150800449000280140003C0140014600208A6802F0DD
S315080044A004020AB1012000E0002070470146C86CEA
S315080044B080B270470246002013680B400BB10120FA
S315080044C000E000207047014600208A6802F00802D2
S315080044D00AB1012000E000207047000030B502460E
S315080044E00020002350680F4C20400D790C6844EAE0
S315080044F005242043506090680B4C2040D1E90254B3
S315080045002C434D7944EA450420439060D06A20F450
S3150800451070000C7C641EE4B2234340EA0350D06268
S3150800452030BD0000FFFEF0FFFDF7F1FF10B509F002
S31508004530BDFE30B10E48007840F001000C49087005
S3150800454005E00B48007800F0FE000949087009F0FC
S31508004550B9FE30B10648007840F0020004490870F8
S3150800456005E00348007800F0FD000149087010BD19
S315080045701D000020F0B504460D4600200021092D37
S3150800458011DDE068A5F10A0606EB4607072606FAD6
S3150800459007F18843A5F10A0606EB460603FA06F173
S315080045A00843E0600CE0206905EB4507072606FA94
S315080045B007F1884305EB450603FA06F1084320612F
S315080045C0072A0FDA606B561E06EB86071F2606FAC1
S315080045D007F18843561E06EB860605FA06F10843D8
S315080045E0606322E00D2A0FDA206BD61F06EB8607DA
S315080045F01F2606FA07F18843D61F06EB860605FA34
S3150800460006F10843206310E0E06AA2F10D0606EB06
S3150800461086071F2606FA07F18843A2F10D0606EB60
S31508004620860605FA06F10843E062F0BD816841F0A6
S3150800463008018160704721B1826842F4A002826055
S3150800464003E0826822F4A00282607047816841F024
S31508004650040181607047000010B5044611480088BF
S31508004660401C142190FBF1F201FB12000E49098847
S31508004670884215D00B49098801EB810202EBC1017A
S315080046800A4A88180D222146FFF74CFD054800887E
S31508004690401C142190FBF1F201FB1200014908802D
S315080046A010BD0000AA040020AC04002088230020C6
S315080046B010B5044614480088401C1E2190FBF1F2F0
S315080046C001FB12001149098888421BD0E07808B915
S315080046D00820E0700C49098801EB810202EBC10150
S315080046E00B4A88180D222146FFF71CFD064800884C
S315080046F0401C1E2190FBF1F201FB120002490880C2
S31508004700012010BD0020FCE7A6040020A804002014
S315080047100222002030B50F490988491C142291FB52
S31508004720F2F302FB13110C4A1288914211D00B497D
S31508004730084A128801EB021190E83C003CC1054981
S315080047400988491C142291FBF2F302FB1311014A52
S31508004750118030BD8E04002090040020541B0020D8
S3150800476030B5014618480088401C1E2290FBF2F31B
S3150800477002FB1300154A1288904222D0087B08B91A
S31508004780082008730868B0F5006F02D901208873FD
S3150800479001E000208873002048730D480A4A1288F1
S315080047A000EB021091E83C003CC007480088401C1A
S315080047B01E2290FBF2F302FB1300034A108001202D
S315080047C030BD0020FCE700008A0400208C0400208D
S315080047D07419002010B5044611490988481C00EBD5
S315080047E0D0714910A0EB41010E4A1288914216D0A9
S315080047F00B49098801EB810202EB41110A4A02EBD7
S31508004800810094222146FFF78DFC05490988481C3A
S3150800481000EBD0714910A0EB4101014A118010BD8F
S315080048209604002098040020501E002010B5044667
S3150800483013480088401C032190FBF1F201FB12008B
S3150800484010490988884218D00D49098801EB810268
S3150800485002EB41110C4A02EB810094222146FFF734
S3150800486061FC07480088401C032190FBF1F201FB1C
S31508004870120003490880012010BD0020FCE7000053
S315080048809204002094040020941C002010B50446CD
S3150800489011480088401C142190FBF1F201FB12001C
S315080048A00E490988884215D00B49098801EB81020F
S315080048B002EBC1010A4A88180D222146FFF732FC8D
S315080048C005480088401C142190FBF1F201FB1200F8
S315080048D00149088010BD0000B4040020B604002079
S315080048E01226002010B5044614480088401C1E21D4
S315080048F090FBF1F201FB12001149098888421BD08E
S31508004900E07808B90820E0700C49098801EB8102B3
S3150800491002EBC1010B4A88180D222146FFF702FC5B
S3150800492006480088401C1E2190FBF1F201FB12008C
S3150800493002490880012010BD0020FCE7B0040020D1
S31508004940B20400208C2400202DE9F04FCFB0054694
S315080049500E46144600204B904C904D904E90479032
S31508004960489049904A90942122A8FFF7F4FB4FF00B
S315080049700008C146C246002701202190002321AA2B
S3150800498040F24941C00208F043FE3DBBA5208DF820
S315080049902C012198C0B28DF82D018DF82E610820C2
S315080049A08DF82F0120788DF8300161784BA8417178
S315080049B0A1788171E178C1712179017261794172B9
S315080049C0A1798172E179C1724BA80FC80EF016FE63
S315080049D08DF838014BA800F0E9F9FBE0042D68D101
S315080049E020788DF8880060788DF88900A17822A84B
S315080049F08170E0788DF88B00217922A801716079A1
S31508004A008DF88D00A17922A88171E0798DF88F0043
S31508004A10217A22A80172A17A8172E17AC172217B78
S31508004A200173A07A06F0BEF84FEA002BE07A06F08A
S31508004A30B9F80BEB001B207B06F0B4F8584400F0DD
S31508004A40FF09002707E007F10D00215C0DF195002D
S31508004A50C155781CC7B24F45F5DB607A8DF89100D1
S31508004A60842226A96846FFF75DFB22A80FC804F032
S31508004A7099FA80464FEA282A504600F0DFFB8DF85F
S31508004A801701504600F0CAFB8DF8180108F0FF0A16
S31508004A90504600F0D3FB8DF81901504600F0BEFBD6
S31508004AA08DF81A010D208DF81B0122A8FFF7BEFE0E
S31508004AB090E0022D26D1A5208DF82C0101208DF835
S31508004AC02D018DF82E6108208DF82F0120788DF89C
S31508004AD0300161784BA84171A1788171E178C17183
S31508004AE02179017261794172A1798172E179C17284
S31508004AF04BA80FC80EF082FD8DF838014BA8FFF7BA
S31508004B00D7FD67E0032D26D1A5208DF82C010120BD
S31508004B108DF82D018DF82E6108208DF82F0120784B
S31508004B208DF8300161784BA84171A1788171E178DF
S31508004B30C1712179017261794172A1798172E17934
S31508004B40C1724BA80FC80EF059FD8DF838014BA855
S31508004B50FFF7C8FE3EE0012D20D14FF0C05000EB14
S31508004B60064000F5804021990844479008208DF8B2
S31508004B70280120788DF82001617847A84171A1782D
S31508004B808171E178C1712179017261794172A179E6
S31508004B908172E179C172FFF7E3FD1BE0052D19D19A
S31508004BA006F54070479008208DF8280120788DF882
S31508004BB02001617847A84171A1788171E178C171B6
S31508004BC02179017261794172A1798172E179C172A3
S31508004BD0FFF7C6FD4FB0BDE8F08F000010B50446DC
S31508004BE012490988481C00EBD0714910A0EB410115
S31508004BF00F4A1288914217D00C49098801EB4102E5
S31508004C0002EBC1110B4A02EB41004FF483722146B5
S31508004C10FFF788FA05490988481C00EBD071491046
S31508004C20A0EB4101014A118010BD00001A050020C1
S31508004C301C050020B639002010B50446134909881A
S31508004C40481C00EBD0714910A0EB4101104A1288AC
S31508004C50914219D00D49098801EB410202EBC111B5
S31508004C600C4A02EB41004FF483722146FFF75AFAC9
S31508004C7006490988481C00EBD0714910A0EB410190
S31508004C80024A1180012010BD0020FCE7160500200D
S31508004C9018050020AA37002010B5044612490988CD
S31508004CA0481C00EBD0714910A0EB41010F4A12884D
S31508004CB0914217D00C49098801EB410202EBC11158
S31508004CC00B4A02EB41004FF483722146FFF72AFA9A
S31508004CD005490988481C00EBD0714910A0EB410131
S31508004CE0014A118010BD00000E05002010050020A5
S31508004CF02E31002010B5044613490988481C00EBDC
S31508004D00D0714910A0EB4101104A1288914219D07E
S31508004D100D49098801EB410202EBC1110C4A02EB6D
S31508004D2041004FF483722146FFF7FCF906490988CA
S31508004D30481C00EBD0714910A0EB4101024A1180D2
S31508004D40012010BD0020FCE70A0500200C05002004
S31508004D50222F002010B5044611480088401C142153
S31508004D6090FBF1F201FB12000E490988884215D022
S31508004D700B49098801EB810202EBC1010A4A88182E
S31508004D800D222146FFF7CEF905480088401C14215C
S31508004D9090FBF1F201FB12000149088010BD0000EA
S31508004DA0A0040020A2040020FE20002010B504461E
S31508004DB014480088401C1E2190FBF1F201FB1200EA
S31508004DC01149098888421BD0E07808B90820E070A4
S31508004DD00C49098801EB810202EBC1010B4A8818CC
S31508004DE00D222146FFF79EF906480088401C1E2121
S31508004DF090FBF1F201FB120002490880012010BD68
S31508004E000020FCE79C0400209E040020781F002058
S31508004E107CB50024002500200190009000BFACE07E
S31508004E2004EB4400664951F8200040F6A271884216
S31508004E3008D004EB4400624951F8200040F6A471FA
S31508004E40884217D1002301AA40F2D3714FF40060BB
S31508004E5008F0DEFBC0B30198022836D104EB440003
S31508004E60574A52F8201000231A464FF4006011F0F2
S31508004E7035FE80E004EB4400514951F8200040F625
S31508004E80A371884208D004EB44004D4951F820002C
S31508004E9040F6A571884218D1002301AA40F2D371C1
S31508004EA04FF4006008F0B4FB70B1019801280CD1EA
S31508004EB004EB4400424A52F8201000231A464FF4E5
S31508004EC0006011F00BFE56E0FFE704EB44003C4996
S31508004ED001EB80008068E8B104EB44000A4602EB67
S31508004EE0800000236A4681684FF4006008F090FB52
S31508004EF000B940E0009855280CD145F0020504EBAE
S31508004F0044002F4A52F8201000230222900211F082
S31508004F10E5FD30E004EB4400294901EB80004068D8
S31508004F20E8B104EB44000A4602EB800000236A4617
S31508004F3041684FF4006008F06BFB00B91BE000986D
S31508004F4055280CD145F0010504EB44001C4A52F8DB
S31508004F50201000230122D00211F0C0FD0BE004EB63
S31508004F604400174A52F8201000231A464FF40060EE
S31508004F7011F0B4FD00BF601C84B20E2CFFF450AFD4
S31508004F8005F0020038B10023022240F2DC719002DB
S31508004F9011F0A4FD12E005F0010038B1002301224A
S31508004FA040F2DC71D00211F099FD07E000231A46A1
S31508004FB040F2DC714FF4006011F090FD7CBD0000FA
S31508004FC04CC801082DE9F04105460E46069C00210D
S31508004FD0002B34D027889F4203DA27887F1C278036
S31508004FE000E0238027887F1EB8B206E0471E32F805
S31508004FF0177022F81070471EB8B20028F6DC158024
S31508005000002004E032F810703944471CB8B22788EB
S315080050108742F7DCB4F800C00CEB4C07B1FBFCF890
S315080050200CFB181C4FEAE77807EB9878BCEBA80F3F
S3150800503001D9278839442788B1FBF7F13180BDE8C3
S31508005040F0810000F8B505460E4614461F46062DA3
S3150800505039D2DFE805F03803101D2F261B4800EB70
S31508005060440000901A4850F8242003233946304655
S31508005070FFF7A8FF27E0174800EB44000090164802
S3150800508050F82420032339463046FFF79BFF1AE0E1
S3150800509012480A23124A394600903046FFF792FF13
S315080050A011E010480523104A394600903046FFF7AC
S315080050B089FF08E00D4805230D4A39460090304619
S315080050C0FFF780FF00BF00BFF8BD0000BA0500204B
S315080050D0C40100201A06002084020020CC02002009
S315080050E03E060020D00200205C060020CE020020EA
S315080050F05206002010B501200EF014F800200EF01C
S3150800510011F810BD08B5014600200090034800902C
S315080051100098084400900098008808BD006C00407C
S3150800512008B500220092044A0092009A02440092AE
S31508005130009A116008BD0000006C004010B516F01A
S31508005140D7FF09F05DF820B102480078401C0149F4
S31508005150087010BD180000201FB5002000900190AF
S31508005160029003900F4800880F490988884218D092
S315080051700C48008800EB800202EBC0000B4A81183D
S315080051800D226846FEF7CEFF684600F0CDF90548C1
S315080051900088401C142190FBF1F201FB1200014922
S315080051A008801FBDAC040020AA0400208823002024
S315080051B01FB50020009001900290039013480088C4
S315080051C013490988884220D012480078E8B9012096
S315080051D0104908700D48008800EB800202EBC000F9
S315080051E00D4A81180D226846FEF79CFF684613F0A3
S315080051F0EFFE012809D105480088401C1E2190FBB6
S31508005200F1F201FB1200014908801FBDA804002025
S31508005210A6040020AE040020022200200146002039
S3150800522001F00F02092A04DD01F00F0202F137002E
S3150800523003E001F00F0202F130007047014600203A
S315080052400922B2EB211F03DA372202EB211002E012
S31508005250302202EB21107047F8B500240025002003
S315080052600090002600236A4640F2EF314FF40060B2
S3150800527008F0CEF90098C5B2AA201249087000BFF6
S3150800528000BF16E0104830F8140050B10E4830F848
S315080052901410204609F07AFD55200A49087001269F
S315080052A005E0094830F81410204609F06FFD601C27
S315080052B0C4B2AC42E6DB012332464F21980211F014
S315080052C00DFCF8BDE0020020D20200202DE9FF41C6
S315080052D000200390029001900027002500268046B2
S315080052E0009000244A480088401C80B2484908803B
S315080052F0052801DABDE8FF810520454908804548AB
S315080053000088401C80B243490880B0F5167F06DB4A
S315080053100020414908704FF416703E4908803E48FF
S315080053200078012800D1E5E7002301AA40F2DF71E1
S315080053304FF4006008F06CF9019F002301AA4FF4AE
S31508005340FC614FF4006008F063F9019D002301AA8F
S3150800535040F2E1714FF4006008F05AF9019E00230B
S3150800536001AA40F22D414FF4006008F051F9DDF82A
S315080053700480002303AA40F2FF314FF4006008F0CE
S3150800538047F9002302AA40F2D3714FF4006008F0EF
S315080053903FF9039898B90298012803D01F48007866
S315080053A001280CD15F2E06DAB5F5C86F03DB01209C
S315080053B01B49087006E002201949087002E002201D
S315080053C01749087000F056FC15480078012819D0CE
S315080053D000236A4640F2EF314FF4006008F018F9EE
S315080053E0002405E00021204609F0D0FC601CC4B268
S315080053F000988442F6DB012300224F21980211F01F
S315080054006DFB77E700F072FBFFF726FF00BF71E739
S31508005410F4020020EC020020E2020020EF02002045
S31508005420E10200202DE9F843054600240026002065
S31508005430009000278046814600236A4640F2EF31F5
S315080054404FF4006008F0E4F80098C6B200BF0CE01C
S315080054502DB14FF6FF702B4921F8140003E0002008
S31508005460284921F81400601CC4B2B442F0DB0024B9
S3150800547009E01DB1FF202449085502E00020224911
S315080054800855601CC4B2082CF3DB2048057055B3D8
S31508005490002425E004F57C7100236A464FF4006079
S315080054A008F0B6F80098074419480078B8420ADCAC
S315080054B017480078404506DD15480078A0EB080037
S315080054C01FFA80F901E04FF00009B846A9F101007A
S315080054D00122824091B2204609F058FC601CC4B2F1
S315080054E0B442D7DB09E0002405E00021204609F094
S315080054F04DFC601CC4B2B442F7DB002005490880A5
S31508005500BDE8F883D2020020D8020020E20200207B
S31508005510E3020020EC02002002480078401C014902
S3150800552008707047C003002010B5044660788028CC
S3150800553005D1A178221D02200AF08CFB07E06078CD
S31508005540402804D1A178221D02200AF083FB10BD51
S3150800555000BFFEE708B5012148060DF0A3FD0121AD
S3150800556005200DF0BFFD4FF40060ADF8000048209F
S315080055708DF803006946204805F012F84FF480506C
S31508005580ADF8000018208DF8030003208DF80200FE
S315080055906946194805F004F8184800F035F818481F
S315080055A000F0F1F90020164988710120C871002021
S315080055B00872487288720120C87200208870C87004
S315080055C00220087101204871082008800B4800F065
S315080055D0C4F800200B498872C8720120087300209D
S315080055E0088048808880C88008810120487308465A
S315080055F000F026F808BD00000008014000640040DD
S315080056003C0500204805002010B504460B48844296
S3150800561009D1012148060DF055FD00214FF0007013
S315080056200DF050FD08E0012188060DF04BFD002124
S315080056304FF080600DF046FD10BD0000006400408C
S3150800564010B50021837A012202FA03F13D4A126855
S3150800565042F001023B4B1A603A4A1C3212688A43EE
S31508005660384B1C331A60027BCAB9364A0C321268A8
S315080056708A43344B0C331A604288C38842EA034390
S31508005680304A4032847A42F834300288838842EAC3
S3150800569003432C4A4032847A02EBC4025360027BED
S315080056A0012A19D1274A0C3212680A43254B0C33B2
S315080056B01A604288038842EA0343224A4032847ABF
S315080056C042F83430C288838842EA03431D4A40328E
S315080056D0847A02EBC4025360C27A3AB9194A121D97
S315080056E012688A43174B1B1D1A6006E0154A121DDD
S315080056F012680A43134B1B1D1A60028932B9114AF4
S31508005700143212688A430F4B14331A600289012A2D
S3150800571006D10C4A143212680A430A4B14331A602B
S31508005720427B012A06D1074A1C3212680A43054BF6
S315080057301C331A60034A126822F00102014B1A60F0
S3150800574010BD0000006600401AB143690B4343616F
S3150800575002E043698B434361704730B50246002037
S315080057600023146824F002041460146844F0010449
S31508005770146000E05B1C546804F001041CB94FF681
S31508005780FF74A342F6D1546804F001040CB9002052
S315080057906CE08C79012C04D1146844F08004146000
S315080057A003E0146824F080041460CC79012C04D139
S315080057B0146844F04004146003E0146824F04004BC
S315080057C014600C7A012C04D1146844F02004146087
S315080057D003E0146824F0200414604C7A012C04D1E8
S315080057E0146844F01004146003E0146824F01004EC
S315080057F014608C7A012C04D1146844F008041460EF
S3150800580003E0146824F008041460CC7A012C04D14F
S31508005810146844F00404146003E0146824F00404D3
S3150800582014608C78A407CD7844EA05640D7944EAB7
S3150800583005444D7944EA05540D886D1E2C43D46100
S31508005840146824F001041460002300E05B1C54680B
S3150800585004F001041CB14FF6FF74A342F6D1546854
S3150800586004F001040CB1002000E0012030BD08B5A9
S315080058704FF4C0600AF0BEF914208DF8000000202D
S315080058808DF801008DF8020001208DF803006846A6
S315080058900AF078F908BD10B500F5D87303EB0113C3
S315080058A01B6803F004031372137A53B900F5D8730F
S315080058B003EB01131B6840F2FF7404EA53531360A9
S315080058C009E000F5D87303EB01131B686FF0604419
S315080058D004EAD303536000F5D87303EB01131B687E
S315080058E003F00203537200F5D87303EB01135B68E8
S315080058F003F00F03937200F5D87303EB01135B688B
S315080059001B0AD37400F5D87303EB01139B68D37293
S3150800591000F5D87303EB01139B681C0A147300F592
S31508005920D87303EB01139B681C0C547300F5D873EA
S3150800593003EB01139B681B0E937300F5D87303EBF7
S315080059400113DB68D37300F5D87303EB0113DB6827
S315080059501C0A147400F5D87303EB0113DB681C0CDE
S31508005960547400F5D87303EB0113DB681B0E9374AC
S3150800597021B9C36843F02003C36003E0036943F019
S315080059802003036110BD00218171C171017241724A
S315080059908172C1728170C170032101710221417146
S315080059A001210180704710B502460020936803F074
S315080059B08063B3F1806F00D110E0936803F0006351
S315080059C0B3F1006F01D1012008E0936803F080531A
S315080059D0B3F1805F01D1022000E00420042874D0CE
S315080059E002F5C07303EB00131B6803F0010402F50C
S315080059F0C07303EB00131C600B7A7BB94B7A0C88D7
S31508005A0043EA445302F5C07404EB001424682343A4
S31508005A1002F5C07404EB0014236010E00B7A4C689E
S31508005A2043EAC4034C7A234302F5C07404EB00141A
S31508005A302468234302F5C07404EB001423608B7AB0
S31508005A4003F00F038B7202F5C07303EB00135B6858
S31508005A5023F00F0402F5C07303EB00135C6002F534
S31508005A60C07303EB00135B688C7A234302F5C0749A
S31508005A7004EB001463608B7B1C064B7B44EA0344EF
S31508005A800B7B44EA0323CC7A234302F5C07404EB68
S31508005A900014A3608B7C1C064B7C44EA03440B7CF5
S31508005AA044EA0323CC7B234302F5C07404EB0014B9
S31508005AB0E36002F5C07303EB00131B6843F00104AF
S31508005AC002F5C07303EB00131C6010BD10B5024647
S31508005AD0002006E013784340034CE05C521C4B1E42
S31508005AE0D9B20029F6DC10BD04E701082DE9F04F0C
S31508005AF0D1B0002400250026A146A246A3460020D0
S31508005B0050900027AA204F9000204E9080464D9036
S31508005B104C90C0211CA8FEF71EFB00201B901A9073
S31508005B2000231AAA40F2EF314FF4006007F070FD27
S31508005B301A98C0B24E9000231AAA4FF48061480002
S31508005B4007F066FDDDF8688000231AAA40F20141D5
S31508005B504FF4006007F05CFD1A984D9000231AAACE
S31508005B604FF4FC614FF4006007F052FD1A9880B2BA
S31508005B7050903D480078012802D13C480088509052
S31508005B8068460FF04FFB342269460DA8FEF7CAFA9D
S31508005B90002564E00DA830F815001B901B984045B9
S31508005BA059D305F57C7100231AAA4FF4006007F053
S31508005BB02FFD1A98C6B2102E00DC16B951B0BDE8F2
S31508005BC0F08F002412E00FF037FB00EB470030F8A7
S31508005BD014B01CA800EB851020F824B01CA800EB14
S31508005BE0851000EB84008470601CC4B2B442EADB02
S31508005BF01CA901EB8510314613F0FCFAB01EC4B29D
S31508005C0027E01CA800EB851000EB840090F80290B2
S31508005C101CA800EB851030F824105098A1EB000A58
S31508005C204D98824509D31CA800EB851030F824004E
S31508005C30404502D355204F9001E0AA204F90CDF859
S31508005C40309129460A484F9B4C9A08F001F9601C86
S31508005C50C4B2B442D5DBB819C7B2681CC5B24E98EF
S31508005C60854297DB00BFA9E7E6020020E80200208C
S31508005C70D202002038B50024002500200090002319
S31508005C806A4640F2EF314FF4006007F0C1FC009815
S31508005C90C5B200BF05E00020084921F81400601CC1
S31508005CA0C4B2AC42F7DB002404E0002004490855DE
S31508005CB0601CC4B2082CF8DB38BD0000D2020020F4
S31508005CC0D8020020F8B549F64044002500260020F1
S31508005CD000901E480068401C1C4908600846006879
S31508005CE01B490968884230D30020184908600DF01E
S31508005CF0E1FD0546174800682E1A00236A464FF448
S31508005D008C614FF4006007F083FC009870431049DB
S31508005D100968B0FBF1F4002322464FF48C614FF476
S31508005D20006010F0DBFE50B10EF00EF80DF012FD1B
S31508005D3020460DF0C7FF0EF007F80DF015FD0548D3
S31508005D4005604FF4167002490860F8BD3C00002053
S31508005D50340000203800002010B500F047FD10BDC3
S31508005D607CB5002001900025002600900024002321
S31508005D706A4640F6BF714FF4006007F049FC009888
S31508005D8000B17CBD002301AA40F2D2714FF4006035
S31508005D9007F03EFC5B480078401C5A4908700846E4
S31508005DA000781E2803DC0198401C019006E055483F
S31508005DB00078642802DB0020524908705249534A89
S31508005DC01278019841F8220050480078401C0A21B0
S31508005DD090FBF1F201FB12004C49087047F2305172
S31508005DE00198884251DA01980D1A48F6A040854272
S31508005DF001DD0025C5E72E464548007801281ED155
S31508005E00002419E04248408804EB4401414A32F82C
S31508005E10111088420EDD04EB4400114601EB4000E8
S31508005E204088684304EB440102EB4101898890FBF2
S31508005E30F1F603E0601CC4B2042CE3DB00BF36486D
S31508005E40006858B935480068334908600023344A61
S31508005E5040F2F6314FF4006007F0DAFB304800688C
S31508005E60C0EB401040014FF47A7190FBF1F02B49DA
S31508005E700968884204DD2B480068304429490860CF
S31508005E802948006828442849086047F23051019893
S31508005E90884235DD0198451A48F6A040854201DD5D
S31508005EA000256EE72E461A48007802281ED10024DF
S31508005EB019E01748408804EB44011C4A32F81110CF
S31508005EC088420EDD04EB4400114601EB4000408891
S31508005ED0684304EB440102EB4101898890FBF1F623
S31508005EE003E0601CC4B2042CE3DB00BF0D48006865
S31508005EF0801B0C4908600E48006828440C49086055
S31508005F0000BF3EE7380400201C0800202C040020AF
S31508005F100004002024CE01083004002004040020D8
S31508005F203404002014040020240400203CCE010878
S31508005F302804002038B500200090002400236A4673
S31508005F4040F2FE314FF4006007F062FB00983228F9
S31508005F5002DA4FF47A7414E0009832280FDB40F224
S31508005F601A41009888420ADC009800EB400101EBD0
S31508005F7000100849081A642190FBF1F401E04FF477
S31508005F8048740023224640F2FD314FF4006010F0B9
S31508005F90A5FD38BD568A01007FB5002500240020DE
S31508005FA0039002900190009004F0D8FD044648F64C
S31508005FB0A04084420FD847F2305084420BD3504851
S31508005FC00088401C4E490880084600880A2805DDD6
S31508005FD00A20088002E000204949088047F2265036
S31508005FE084420FD845F6C05084420BD345480088F2
S31508005FF0401C44490880084600880A2805DD0A200E
S31508006000088002E000203F490880002303AA40F2E6
S31508006010DD714FF4006007F0FBFA002302AA4FF483
S31508006020FC614FF4006007F0F3FA00236A4640F279
S31508006030DF714FF4006007F0EBFA002301AA40F283
S31508006040E9714FF4006007F0E3FA40F2DC51039877
S31508006050884200DA7FBD2A4800880A2813DBA4F59F
S31508006060EA40303885B2029807F088FD0290294642
S31508006070029807F033FD0290234A0021029807F0A0
S3150800608079FB224908801F4800880A2813DB47F253
S315080060903050001B85B2009800F03CFA0090294663
S315080060A0009800F0DDF90090194A0021009807F0E1
S315080060B061FB16490880154800880199884209DD60
S315080060C0012014490870114800880199401A11499D
S315080060D0488012E00D4800880199884209DA0220B2
S315080060E00C490870094909880198401A09494880E5
S315080060F003E0002007490870488000BFAAE70000AF
S31508006100400400203E0400200C0800202E04002035
S31508006110FC070020000400202DE9F84306460C463B
S3150800612000250020009080460027012E04D0022E6C
S315080061302AD0032E72D188E000205949088059498F
S3150800614008805948006847F26251884219DC564867
S31508006150006847F2FE41884213DB4FF0010800232E
S31508006160514840F2244102684FF4006010F0B6FC32
S315080061704D48008800B24A49088001204B490870FA
S3150800618001E04FF0000886E048480078012802D070
S315080061904FF000087FE04448016804F1320081426C
S315080061A050DC64384049096888424BDC4FF00108E6
S315080061B03D48008800B23B49088047F23050844287
S315080061C001DB271A02E047F23050071B3548B0F9C1
S315080061D000003349B1F9001088420BDD642078438A
S315080061E03049B1F900102E4AB2F90020891AB0FBDD
S315080061F0F1F517E02B48B0F900002949B1F900106C
S3150800620088420CDA642078432549B1F90010254AFA
S31508006210B2F90020891AB0FBF1F503E03AE04FF035
S31508006220000838E000232A4640F225414FF4006072
S3150800623010F054FC18B102201C49087004E04FF015
S31508006240000801E04FF0000825E018480078022809
S3150800625002D04FF000081EE000236A4640F2D271D1
S315080062604FF4006007F0D4F92046009913F0CFF8F0
S31508006270814647F23051204613F0C9F8B9EBD00FE2
S3150800628005D24FF0010800200849087001E04FF0D8
S31508006290000800E000BF00BF4046BDE8F8830000E4
S315080062A0F8020020FA020020C4030020FC020020A5
S315080062B01FB5002000900190029003900D480088B9
S315080062C00D490988884214D00C480A49098800EB08
S315080062D001130FCB8DE80F00684609F015FB05483A
S315080062E00088401C142190FBF1F201FB12000149C1
S315080062F008801FBD900400208E040020541B002037
S315080063001FB500200090019002900390194800885C
S315080063101949098888422CD018481649098800EB7B
S3150800632001130FCB8DE80F009DF80C2001A90098EA
S3150800633007F030FE68B10F480088401C1E2190FB0C
S31508006340F1F201FB12000B49088000200C49087085
S315080063500FE00B480078401C094908700846007889
S315080063600A2806DD07F0DCFD09F030F800200449AC
S3150800637008701FBD8C0400208A04002074190020B0
S31508006380B90400201CB50020019047F23050009057
S3150800639000236A4640F2D2714FF4006007F038F9DC
S315080063A047F226510098884211DA25480088401C91
S315080063B023490880084600880A2804DD0120214967
S315080063C008702149087000202049088016E01F48F7
S315080063D00088401C1D49088008460088322802DDCE
S315080063E000201849087000201549088047F23051E6
S315080063F00098884202DD00201349087001A806F0BB
S31508006400B7F901280DD14FF47A7010F0A1FD00F00C
S315080064101FF800200B4908700C49088008490880B5
S315080064200DE004F083FB18B1002010F091FD06E0A2
S3150800643001A802F0BDFC012801D100F009F81CBD35
S31508006440180300201C030020EF0200201A03002076
S315080064500120704710B502F0A5F902F05FF910BDEA
S31508006460F8B506460F46002400254FF47A700090CA
S3150800647035463C4600236A4640F2F6314FF4006042
S3150800648007F0C6F84FF47A71009890FBF1F0009087
S31508006490009818B144F62060864201DA2846F8BD0D
S315080064A0002C2EDD04EB84004000009990FBF1F4EB
S315080064B0B4F57A7F01DD2846F1E7322C04DC124870
S315080064C0006804FB10551CE0642C0BDC0E480068C1
S315080064D0322101FB1055A4F132000C49096800FB72
S315080064E011550EE008480068322101FB105507488F
S315080064F0006801FB1055A4F164000549096800FB12
S3150800650011552846CBE70000D8030020DC030020FD
S31508006510E003002038B505460020009000242C46EC
S3150800652000236A4640F2E2714FF4006007F070F803
S3150800653044F62060844202DB0098002801DA2046EF
S3150800654038BD009841282BDA0098322807DB0098D6
S31508006550C0F141001349096800FB114420E0009886
S3150800656028280CDB0F4800680F2101FB104400980F
S31508006570C0F132000C49096800FB114410E00948D3
S3150800658000680F2101FB1044074800680A2101FB37
S3150800659010440098C0F128000449096800FB11441A
S315080065A02046CDE7CC030020D0030020D4030020EA
S315080065B038B5054600240020009000BF43E004EBF0
S315080065C04400234951F82000A8423AD104EB44007C
S315080065D001EB80008068A8B104EB44000A4602EB90
S315080065E0800000236A4681684FF4006007F010F8BF
S315080065F008B9002038BD0098552801D10120F9E7CF
S315080066000020F7E704EB4400114901EB80004068DD
S31508006610A8B104EB44000A4602EB800000236A4650
S3150800662041684FF4006006F0F3FF08B90020E1E77F
S315080066300098552801D10120DCE70020DAE7002080
S31508006640D8E7601C84B20E2CB9D30020D2E700002C
S315080066504CC8010870B500241EE0144901F83440FE
S31508006660002515E0C4EBC400284486B21E2E07DABE
S315080066700F48815D05EBC400401C0C4A115405E027
S31508006680FF2105EBC400401C084A1154681C85B25A
S31508006690072DE7DB601C84B2052CDEDB00200549EC
S315080066A008800621044802F0C1F870BD860600205D
S315080066B06806002078030020E1A4000810B500242D
S315080066C07A200CF0CFFD08B144F001047B200CF0D1
S315080066D0C9FD08B144F002047C200CF0C3FD08B1E2
S315080066E044F004047D200CF0BDFD08B144F0080414
S315080066F07E200CF0B7FD08B144F010047F200CF0A2
S31508006700B1FD08B144F020040CF012FD204610BD7E
S3150800671010B502F001F901280AD10C48007818B121
S31508006720032013F0C9FD06E0022013F0C5FD02E0C0
S31508006730032013F0C1FD13F0F3FD18B1022012F087
S31508006740F7FD02E0032012F0F3FD10BD440400201B
S31508006750014601F00F020B1103EB830302EB430220
S31508006760D0B27047014664290ADA0A2091FBF0F292
S3150800677000FB121291FBF0F002EB0010C0B270475A
S315080067800020FCE730B502460B464FF6FF7011E0D5
S3150800679012F8014B604000210AE000F0010424B120
S315080067A040104AF20104604000E040104C1CE1B27F
S315080067B00829F2DB1C1EA3F10105ABB2E8D130BDF6
S315080067C000B5034606F014FF0246802A07D005489E
S315080067D040F8223004480068401C03490860104607
S315080067E000BD0000741700208404002008B50020AE
S315080067F0009000236A464FF47A714FF4006006F061
S3150800680007FF0099C8B200F030F90099C8B200F045
S3150800681074F80099C8B200F009F800F0D5F800F04D
S315080068207DF90099C8B200F040F908BD2DE9FC5F72
S3150800683007464FF0000AD34600254FF6FF76A846CE
S31508006840B1460020019030460090012423E02346FB
S3150800685001AA47214FF4806006F0DAFE23466A460D
S3150800686048214FF4806006F0D3FE019885B200985F
S3150800687086B2012C04D1A846B146A246A34608E032
S31508006880A84501DAA846A246B14501DDB146A346A8
S3150800689000BF601CC4B2BC42D9DD0023424640F2A8
S315080068A0E1714FF4006010F019F9534601AA4B2123
S315080068B04FF4806006F0ACFE002340F2E7714FF417
S315080068C00060019A10F00AF900234A4640F2E27184
S315080068D04FF4006010F002F95B466A464C214FF40B
S315080068E0806006F095FE00234FF4FD614FF40060CA
S315080068F0009A10F0F3F8BDE8FC9F2DE9FC5F074607
S315080069004FF0000AD34600254FF6FF76A846B14653
S315080069100020019030460090012423E0234601AA76
S3150800692043214FF4806006F073FE23466A464421ED
S315080069304FF4806006F06CFE019885B2009886B226
S31508006940012C04D1A846B146A246A34608E0A845AC
S3150800695001DAA846A246B14501DDB146A34600BF05
S31508006960601CC4B2BC42D9DD0023424640F2DF7146
S315080069704FF4006010F0B2F8534601AA49214FF4CB
S31508006980806006F045FE002340F2E5714FF4006092
S31508006990019A10F0A3F800234A464FF4FC614FF41D
S315080069A0006010F09BF85B466A464A214FF4806007
S315080069B006F02EFE002340F2E6714FF40060009ABE
S315080069C010F08CF8BDE8FC9F7FB500240025002058
S315080069D00390029001900090002303AA40F2DF7111
S315080069E04FF4006006F014FE002302AA4FF4FC617F
S315080069F04FF4006006F00CFEDDE90210884203DD64
S31508006A00DDE90210401A02E0DDE90201401A84B20B
S31508006A100023224640F2E3714FF4006010F05EF85E
S31508006A20002301AA40F2E1714FF4006006F0F0FD80
S31508006A3000236A4640F2E2714FF4006006F0E8FD72
S31508006A40DDE90010884203DDDDE90010401A02E0A6
S31508006A50DDE90001401A85B200232A4640F2E471B6
S31508006A604FF4006010F03AF87FBDF8B505460027E8
S31508006A7000260020009000240CE0601CC3B26A4681
S31508006A804021080106F0C4FD009887B2F01986B2C5
S31508006A90601CC4B2AC42F0DB0023324640F2D1712E
S31508006AA04FF4006010F01AF8F8BD2DE9F84F0746C4
S31508006AB04FF00009002000900026804601241DE0C2
S31508006AC004F2F23100236A464FF4006006F0A0FD96
S31508006AD0009800F0FF0900250CE005F13001234677
S31508006AE06A464FF4806006F093FD00988044761C51
S31508006AF0681CC5B24D45F0DB601CC4B2BC42DFDD84
S31508006B00002E09DD98FBF6FA0023524640F2DE71A4
S31508006B104FF400600FF0E2FFBDE8F88F1CB50020C7
S31508006B20019000BF0090002301AA40F2D1714FF4F2
S31508006B30006006F06DFD00236A4640F2D6714FF4F8
S31508006B40006006F065FD642101984843009990FBB2
S31508006B50F1F40023224640F2DD714FF400600FF095
S31508006B60BDFF1CBD1CB54FF4FA71FE48FDF7F3FADC
S31508006B70002001900198000AFA49087001984870A7
S31508006B800198000A88700198C8700198000A08716F
S31508006B90019848710198000A88710198C87101988E
S31508006BA0000E08720198000C48720198000A887253
S31508006BB00198C8720198000E08730198000C487372
S31508006BC00198000A88730198C8730198000E087422
S31508006BD00198000C48740198000A88740198C874D2
S31508006BE00198000E08750198000C48750198000A6E
S31508006BF088750198C8750198000E08760198000CEA
S31508006C0048760198000A88760198C8760198000A9D
S31508006C100877019848770198000A88770198C87715
S31508006C200198000E81F820000198000C81F82100D7
S31508006C300198000A81F82200019881F8230003F0E0
S31508006C4073FE0012C74981F8240003F06DFEC5499A
S31508006C5081F8250003F068FE0012C24981F8260073
S31508006C6003F062FEBF4981F8270003F0DDFD00123C
S31508006C70BC4981F8280003F0D7FDBA4981F82900F4
S31508006C80002301AA40F2E9714FF4006006F0C0FC47
S31508006C900A21019890FBF1F001900198000AB14988
S31508006CA081F82A00019881F82B00002301AA40F2F6
S31508006CB0D1714FF4006006F0ABFC019800EB800040
S31508006CC0400001900198000AA64981F82C00019815
S31508006CD081F82D00002301AA40F2D2714FF400601A
S31508006CE006F096FC47F230510198081A00EB80002E
S31508006CF0400001900198000A9A4981F82E000198EF
S31508006D0081F82F00002301AA40F2DE714FF40060DB
S31508006D1006F07EFC0198282803DB019828380190A4
S31508006D2005E00198C0F12800C043401C0190019875
S31508006D30000A8C4981F83000019881F83100002357
S31508006D4001AA40F22B414FF4006006F061FC47F2BD
S31508006D5030510198884203DB0198401A019004E0FB
S31508006D6047F230510198081A0190019800EB80000B
S31508006D70400001900198000A7A4981F8320001988A
S31508006D8081F83300002301AA40F2F6314FF400607F
S31508006D9006F03EFC00236A4640F2E9714FF40060B3
S31508006DA006F036FC0A21019890FBF1F00099484359
S31508006DB04FF47A7190FBF1F001900198000A694945
S31508006DC081F83400019881F83500002301AA40F2C1
S31508006DD0F6314FF4006006F01BFC0A21019890FB7F
S31508006DE0F1F001900198000A5E4981F83600019891
S31508006DF081F837000198000A81F83800019881F86F
S31508006E003900002301AA40F2DD714FF4006006F054
S31508006E10FFFB6421019890FBF1F001900198000AAC
S31508006E20504981F83A00019881F83B00002301AAED
S31508006E3040F2FE314FF4006006F0EAFB0198000AC2
S31508006E40484981F83C00019881F83D000198000AFC
S31508006E5081F83E00019881F83F00002301AA40F21C
S31508006E60FD314FF4006006F0D3FB0A21019890FB30
S31508006E70F1F001900198000A3A4981F8400001981A
S31508006E8081F84100002301AA40F235414FF4006021
S31508006E9006F0BEFB019800EB8000400001900198C7
S31508006EA0000A304981F84200019881F8430003F04E
S31508006EB07DFD00122B4981F8440003F077FD29492E
S31508006EC081F84500012301AA0021980206F0A0FBDB
S31508006ED00198000A234981F8E200019881F8E30045
S31508006EE0012301AA1946980206F092FB0198000AA6
S31508006EF01C4981F8E400019881F8E500012301AAFC
S31508006F000221480206F084FB0198000A154981F817
S31508006F10E600019881F8E700012301AA03219802F7
S31508006F2006F076FB0198000A0E4981F8E8000198F8
S31508006F3081F8E900012301AA0421080206F068FB8A
S31508006F400198000A074981F8EA00019881F8EB00E0
S31508006F50012301AA0521980206F05AFB0198000AA6
S31508006F60004901E0B034002081F8EC00019881F86E
S31508006F70ED00012301AA0621980206F049FB0198B3
S31508006F80000A424981F8EE00019881F8EF000123D2
S31508006F9001AA0721980206F03BFB0198000A3B4923
S31508006FA081F8F000019881F8F100012301AA08216F
S31508006FB0C80106F02DFB0198000A344981F8F20051
S31508006FC0019881F8F300012301AA0921980206F025
S31508006FD01FFB0198000A2D4981F8F400019881F8F1
S31508006FE0F500012301AA0A21980206F011FB01986F
S31508006FF0000A264981F8F600019881F8F70001236E
S3150800700001AA0B21980206F003FB0198000A1F4902
S3150800701081F8F800019881F8F900012301AA0C21EA
S31508007020980206F0F5FA0198000A184981F8FA005C
S31508007030019881F8FB00012301AA0D21980206F0A8
S31508007040E7FA0198000A114981F8FC00019881F8CD
S31508007050FD00012301AA0E21980206F0D9FA01982B
S31508007060000A0A4981F8FE00019881F8FF00012309
S3150800707001AA0F21980206F0CBFA0198000A0349E3
S3150800708081F80001019881F801011CBDB034002087
S315080070903EB54FF4FA71FE48FDF75DF8002302AAE3
S315080070A040F2D6714FF4006006F0B2FA0298C5B203
S315080070B02025002412E02146012301AA980206F0A1
S315080070C0A7FA0198C0F30721F14A02F814100198AB
S315080070D0C1B26000401C1154601CC4B2AC42EADB69
S315080070E0002302AA40F2D7714FF4006006F090FA26
S315080070F00298C5B20825002414E004F130010123E2
S3150800710001AA980206F084FA0198C0F307216000E4
S315080071104030DF4A11540198C1B260004130115421
S31508007120601CC4B2AC42E8DB002301AA40F2D1716C
S315080071304FF4006006F06CFA0198000AD44981F809
S315080071405000019881F85100002301AA40F2D2713B
S315080071504FF4006006F05CFA4EF660210198081AB2
S3150800716001900198000ACA4981F85200019881F8ED
S315080071705300002301AA40F2E9714FF4006006F0BB
S3150800718047FA0198000AC24981F85400019881F823
S315080071905500002301AA40F2DF714FF4006006F0A3
S315080071A037FA0198000ABA4981F85600019881F819
S315080071B05700002301AA4FF4FC614FF4006006F063
S315080071C027FA0198000AB24981F85800019881F80F
S315080071D05900002301AA40F2E1714FF4006006F05D
S315080071E017FA0198000AAA4981F85A00019881F805
S315080071F05B00002301AA40F2E2714FF4006006F03A
S3150800720007FA0198000AA24981F85C00019881F8FA
S315080072105D00002301AA40F2D3714FF4006006F026
S31508007220F7F90198000A9A4981F85E00019881F8F1
S315080072305F00002301AA40F2F6314FF4006006F021
S31508007240E7F900236A4640F2E9714FF4006006F058
S31508007250DFF96421019890FBF1F0009948434FF457
S315080072607A7190FBF1F001900198000A884981F83B
S315080072706000019881F86100002301AA40F2D671E6
S315080072804FF4006006F0C4F90198000A804981F8B5
S315080072906200019881F86300002301AA40F2D771C1
S315080072A04FF4006006F0B4F90198000A784981F8AD
S315080072B06400019881F86500002301AA40F2FE31B6
S315080072C04FF4006006F0A4F90198000A704981F8A5
S315080072D06600019881F86700002001906D480078E3
S315080072E06C49497808436B49897808436949C978DC
S315080072F0084368490979084366494979084318B132
S31508007300019840F0010001900198000A604981F84F
S315080073106800019881F86900002301AA40F2D97132
S315080073204FF4006006F074F90198000A584981F88C
S315080073306A00019881F86B00002301AA4FF4FB61EB
S315080073404FF4006006F064F90198000A504981F884
S315080073506C00019881F86D00012301AA4121980269
S3150800736006F056F90198000A494981F86E00019815
S3150800737081F86F00002301AA40F2E3714FF4006020
S3150800738006F046F90198000A414981F8700001980B
S3150800739081F87100002301AA40F2D1714FF4006010
S315080073A006F036F9002302AA40F2D2714FF40060C3
S315080073B006F02EF947F230510298884203DB02980C
S315080073C0401A029004E047F230510298081A0290D7
S315080073D0DDE901014843642190FBF1F00190019831
S315080073E0000A2B4981F87200019881F873002A482F
S315080073F0407881F874002848007881F87500264896
S31508007400C07881F876002448807881F87700224889
S31508007410407981F878002048007981F879001E487B
S31508007420C07981F87A001C48807981F87B000020B1
S3150800743001901848007810B10120019001E0002061
S315080074400190002001900198000A114981F87E00F8
S31508007450019881F87F00002301AA40F2F7714FF4E2
S31508007460006006F0D5F847F2305001900198000AFE
S31508007470074981F88000019881F88100002302AA53
S315080074804FF47C714FF4006006F0C2F8029805E0EC
S31508007490282C0020D8020020B8030020C5B20020FE
S315080074A0019000240AE0FE4800780121A140084026
S315080074B010B1601C019003E0601CC4B2AC42F2DB60
S315080074C000BF002001900198000AF64981F8820061
S315080074D0019881F88300002302AA40F2D6714FF47E
S315080074E0006006F095F80298C5B21025002414E04D
S315080074F004F12001012301AA980206F089F80198EF
S31508007500C0F3072160008E30E64A11540198C1B2D3
S3150800751060008F301154601CC4B2AC42E8DB002313
S3150800752001AA40F2F6314FF4006006F071F86421C2
S31508007530019890FBF1F001900198000AD94981F869
S315080075400001019881F80101002301AA40F2F931EE
S315080075504FF4006006F05CF80198000AD14981F8FA
S315080075600201019881F80301002301AA40F2EF31D4
S315080075704FF4006006F04CF80198000AC94981F8F2
S315080075800401019881F80501002301AA4FF47C71D2
S315080075904FF4006006F03CF80198000AC14981F8EA
S315080075A00601019881F80701002301AA40F2F1318A
S315080075B04FF4006006F02CF80198000AB94981F8E2
S315080075C00801019881F80901002301AA40F2F23165
S315080075D04FF4006006F01CF80198000AB14981F8DA
S315080075E00A01019881F80B01002301AA40F2F33140
S315080075F04FF4006006F00CF80198000AA94981F8D2
S315080076000C01019881F80D01002301AA4FF47D7140
S315080076104FF4006005F0FCFF0198000AA14981F8C3
S315080076200E01019881F80F01002301AA40F2F531F5
S315080076304FF4006005F0ECFF0198000A994981F8BB
S315080076401001019881F81101002301AA4FF47E71F7
S315080076504FF4006005F0DCFF0198000A914981F8B3
S315080076601201019881F81301002301AA40F203418F
S315080076704FF4006005F0CCFF0198000A894981F8AB
S315080076801401019881F81501002301AA40F22D4141
S315080076904FF4006005F0BCFF0198000A814981F8A3
S315080076A01601019881F81701002301AA40F23B410F
S315080076B04FF4006005F0ACFF0198000A794981F89B
S315080076C01801019881F81901002301AA40F22E41F8
S315080076D04FF4006005F09CFF0198000A714981F893
S315080076E01A01019881F81B01002301AA40F23C41C6
S315080076F04FF4006005F08CFF0198000A694981F88B
S315080077001C01019881F81D01002301AA40F22741B6
S315080077104FF4006005F07CFF0198000A614981F882
S315080077201E01019881F81F01002301AA40F2354184
S315080077304FF4006005F06CFF0198000A594981F87A
S315080077402001019881F82101002301AA4FF48561DF
S315080077504FF4006005F05CFF0198000A514981F872
S315080077602201019881F82301002301AA40F236413B
S315080077704FF4006005F04CFF0198000A494981F86A
S315080077802401019881F82501002301AA40F22B4122
S315080077904FF4006005F03CFF0198000A414981F862
S315080077A02601019881F82701002301AA40F23941F0
S315080077B04FF4006005F02CFF0198000A394981F85A
S315080077C02801019881F82901002301AA40F22C41D9
S315080077D04FF4006005F01CFF0198000A314981F852
S315080077E02A01019881F82B01002301AA40F23A41A7
S315080077F04FF4006005F00CFF0198000A294981F84A
S315080078002C01019881F82D01002301AA40F232418A
S315080078104FF4006005F0FCFE0198000A214981F842
S315080078202E01019881F82F01002301AA4FF48861DF
S315080078304FF4006005F0ECFE0198000A194981F83A
S315080078403001019881F83101002301AA40F2334141
S315080078504FF4006005F0DCFE0198000A114981F832
S315080078603201019881F83301002301AA40F241410F
S315080078704FF4006005F0CCFE0198000A094981F82A
S315080078803401019881F83501002301AA4FF4866175
S315080078904FF4006005F0BCFE0198000A014903E0B8
S315080078A0D8020020282C002081F83601019881F89A
S315080078B03701002301AA40F23E414FF4006005F06B
S315080078C0A7FE0198000AFE4981F83801019881F857
S315080078D03901002301AA40F231414FF4006005F056
S315080078E097FE0198000AF64981F83A01019881F84D
S315080078F03B01002301AA40F23F414FF4006005F026
S3150800790087FE0198000AEE4981F83C01019881F842
S315080079103D01002301AA40F22F414FF4006005F013
S3150800792077FE0198000AE64981F83E01019881F838
S315080079303F01002301AA40F23D414FF4006005F0E3
S3150800794067FE0198000ADE4981F84001019881F82E
S315080079504101002301AA40F234414FF4006005F0CA
S3150800796057FE0198000AD64981F84201019881F824
S315080079704301002301AA40F242414FF4006005F09A
S3150800798047FE0198000ACE4981F84401019881F81A
S315080079904501002301AA4FF48061480005F038FE2E
S315080079A00198000AC64981F84601019881F84701FD
S315080079B0002301AA40F201414FF4006005F028FEB9
S315080079C00198000ABE4981F84801019881F84901E1
S315080079D0002301AA40F2F5714FF4006005F018FE85
S315080079E00198552802D10020019001E0012001905C
S315080079F00198000AB24981F84A01019881F84B01B9
S31508007A00002301AA40F2F6714FF4006005F000FE6B
S31508007A100198552802D10020019001E0012001902B
S31508007A200198000AA64981F84C01019881F84D0190
S31508007A30002301AA40F2E9714FF4006005F0E8FD61
S31508007A400198000A9E4981F84E01019881F84F0174
S31508007A50002301AA40F24A414FF4006005F0D8FD20
S31508007A600198000A964981F85001019881F8510158
S31508007A70002409E0C4F10D009249095C04F5A970D7
S31508007A808F4A1154601CC4B20E2CF3DB002409E0A3
S31508007A90C4F10D008C49095C04F5B170884A11548B
S31508007AA0601CC4B20E2CF3DB002424E004F58361C9
S31508007AB0002301AA4FF4006005F0AAFD0198010E03
S31508007AC0A00000F5B9707E4A11540198C0F3074129
S31508007AD0A00000F2731011540198C0F30721A0000A
S31508007AE000F5BA7011540198C1B2A00000F27510E1
S31508007AF01154601CC4B2082CD8DB002301AA40F23A
S31508007B0055414FF4006005F083FD0198000A6C4961
S31508007B1081F89201019881F89301002301AA40F2A5
S31508007B2056414FF4006005F073FD0198000A644958
S31508007B3081F89401019881F89501002301AA40F281
S31508007B4057414FF4006005F063FD0198000A5C494F
S31508007B5081F89601019881F89701002301AA4FF44C
S31508007B6084614FF4006005F053FD0198000E5449F6
S31508007B7081F898010198000C81F899010198000A8A
S31508007B8081F89A01019881F89B01002301AA40F225
S31508007B900C414FF4006005F03BFD0198000E484982
S31508007BA081F89C010198000C81F89D010198000A52
S31508007BB081F89E01019881F89F01002301AA40F2ED
S31508007BC00D414FF4006005F023FD0198000E3C4975
S31508007BD081F8A0010198000C81F8A1010198000A1A
S31508007BE081F8A201019881F8A301002301AA40F2B5
S31508007BF00E414FF4006005F00BFD0198000E304968
S31508007C0081F8A4010198000C81F8A5010198000AE1
S31508007C1081F8A601019881F8A701002301AA40F27C
S31508007C200F414FF4006005F0F3FC0198000E24495B
S31508007C3081F8A8010198000C81F8A9010198000AA9
S31508007C4081F8AA01019881F8AB01002301AA4FF433
S31508007C5082614FF4006005F0DBFC0198000E1849BC
S31508007C6081F8AC010198000C81F8AD010198000A71
S31508007C7081F8AE01019881F8AF01002301AA40F20C
S31508007C8011414FF4006005F0C3FC0198000E0C4941
S31508007C9081F8B0010198000C81F8B1010198000A39
S31508007CA081F8B201019881F8B301002301AA40F2D4
S31508007CB012414FF4006005F0ABFC0198000E05E098
S31508007CC0282C0020AA0300209C030020434981F8A1
S31508007CD0B4010198000C81F8B5010198000A81F8F1
S31508007CE0B601019881F8B701002301AA40F21341B1
S31508007CF04FF4006005F08CFC0198000E374981F8B6
S31508007D00B8010198000C81F8B9010198000A81F8B8
S31508007D10BA01019881F8BB01002301AA40F2144177
S31508007D204FF4006005F074FC0198000E2B4981F8A9
S31508007D30BC010198000C81F8BD010198000A81F880
S31508007D40BE01019881F8BF01002301AA40F215413E
S31508007D504FF4006005F05CFC0198000E1F4981F89D
S31508007D60C0010198000C81F8C1010198000A81F848
S31508007D70C201019881F8C301002301AA40F2164105
S31508007D804FF4006005F044FC0198000E134981F891
S31508007D90C4010198000C81F8C5010198000A81F810
S31508007DA0C601019881F8C701002301AA40F21741CC
S31508007DB04FF4006005F02CFC0198000E074981F885
S31508007DC0C8010198000C81F8C9010198000A81F8D8
S31508007DD0CA01019881F8CB013EBD0000282C00207D
S31508007DE02DE9FE4F14F084F94FF4FA71FE48FCF7BA
S31508007DF0B2F9002301AA40F2D2714FF4006005F0EF
S31508007E0007FC47F230510198081A0190019800EBD7
S31508007E108000400001900198000AF3490870019813
S31508007E204870002301AA40F2D1714FF4006005F0B2
S31508007E30EFFB019800EB8000400001900198000AD2
S31508007E40E94988700198C870002301AA40F2E971CF
S31508007E504FF4006005F0DCFB0198FCF7F9F90746DA
S31508007E60E24AE34BFCF782F90546FCF702FA019071
S31508007E700198000ADC49087101984871002301AA93
S31508007E8040F2FD314FF4006005F0C2FB0198FCF7A3
S31508007E90DFF90546D54AD64BFCF768F90746FCF7DD
S31508007EA0E8F901900198000ACF4988710198C871CC
S31508007EB0002301AA40F2F6314FF4006005F0A8FB52
S31508007EC000236A4640F2E9714FF4006005F0A0FB12
S31508007ED0DDE90010484342F2107190FBF1F0019081
S31508007EE00198000AC049087201984872002301AA3D
S31508007EF040F2F6314FF4006005F08AFB0198FCF772
S31508007F00A7F90546B94ABA4BFCF730F90746FCF714
S31508007F10B0F901900198000AB34988720198C872AD
S31508007F20002301AA40F2F6314FF4006005F070FB19
S31508007F300198FCF78DF90546AC4AAD4BFCF716F9E6
S31508007F400746FCF796F901900198000AA6490873B6
S31508007F5001984873002301AA40F2FE314FF40060ED
S31508007F6005F056FB0198000A9F4988730198C87363
S31508007F7000200874487405F047FE81464FEA292018
S31508007F809949887481F8139005F07AFA81464FEA80
S31508007F9029209549087581F8159005F0F2FC814667
S31508007FA04FEA29209049887581F8179000200876AD
S31508007FB04876002302AA40F2D6714FF4006005F015
S31508007FC027FB00BF4FF0100A002413E021460123C7
S31508007FD001AA980205F01CFB0198C0F3072160006E
S31508007FE01E30814A11540198C1B260001F301154E5
S31508007FF0601CC4B25445E9DB002302AA40F2D771DB
S315080080004FF4006005F004FB029800F0FF0A4FF0F9
S31508008010040A00241CE004F13001012301AA980295
S3150800802005F0F6FA019828380190019800EB8000CF
S31508008030400001900198C0F3072160003E306A4A6B
S3150800804011540198C1B260003F301154601CC4B28B
S315080080505445E0DB002301AA40F2DE714FF40060CC
S3150800806005F0D6FA019828380190019800EB8000AF
S31508008070400001900198000A5B4981F84600019882
S3150800808081F84700002301AA40F2DE714FF4006030
S3150800809005F0BEFA019828380190019800EB800097
S315080080A0400001900198000A4F4981F8480001985C
S315080080B081F84900002301AA40F235414FF40060D7
S315080080C005F0A6FA0198000A474981F84A0001987E
S315080080D081F84B00002301AA40F239414FF40060B1
S315080080E005F096FA47F230510198081A019001985E
S315080080F0000A3D4981F84C00019881F84D0000239B
S3150800810001AA40F23A414FF4006005F081FA01985D
S31508008110A0F5EA40303801900198000A324981F802
S315080081204E00019881F84F00002301AA40F26141F0
S315080081304FF4006005F06CFA0198000A2A4981F8A4
S315080081407800019881F87900002301AA40F261417C
S315080081504FF4006005F05CFA0198000A224981F89C
S315080081607A00019881F87B00002301AA40F2614158
S315080081704FF4006005F04CFA0198000A1A4981F894
S315080081807C000198000A81F87D00002301AA40F2CC
S3150800819061414FF4006005F03BFA0198000A124964
S315080081A081F87E000198000A81F87F00002301AA61
S315080081B040F261414FF4006005F02AFA0198000A7E
S315080081C0094981F880000198000A81F88100002099
S315080081D081F8820081F8830081F8840081F885009F
S315080081E081F8860006E00000B03400209A99999933
S315080081F09999B93F81F8870081F8860081F8870048
S31508008200BDE8FE8F70B588B000260020079006905E
S31508008210059004900390029013F06AFF4FF4FA71E8
S31508008220FE48FBF798FF0198000AFC4988700198F8
S31508008230C8700198000A0871019848710198000EE3
S3150800824088710198000CC8710198000A0872019893
S3150800825048720198000E88720198000CC87201983D
S31508008260000A087301984873002301AA40F2D671E0
S315080082704FF4006005F0CCF90198000AE74981F847
S315080082802000019881F821001425002413E02146D6
S31508008290012301AA980205F0BBF90198C0F307214A
S315080082A060002230DD4A11540198C1B260002330C3
S315080082B01154601CC4B2AC42E9DB002301AA40F2A7
S315080082C0D7714FF4006005F0A3F90198001D0190DD
S315080082D00198000AD14981F84A00019881F84B00B3
S315080082E00A25002414E004F13001012301AA9802AA
S315080082F005F08EF90198C0F3072160004C30C74A93
S3150800830011540198C1B260004D301154601CC4B2BA
S31508008310AC42E8DB002301AA40F2D2714FF40060B8
S3150800832005F076F947F230510198884202DB0020C1
S31508008330019004E047F230510198081A019001981B
S31508008340000AB64981F86000019881F861000023A7
S3150800835001AA40F2D2714FF4006005F059F947F2CC
S3150800836030510198884203DB0198401A019001E0D8
S31508008370002001900198000AA84981F86200019836
S3150800838081F86300002301AA40F2D1714FF400601E
S3150800839005F03EF90198000AA04981F864000198A1
S315080083A081F86500002301AA40F2E9714FF40060E4
S315080083B005F02EF90A21019890FBF1F00190019839
S315080083C0000A964981F86600019881F8670000233B
S315080083D001AA40F2F6314FF4006005F019F9019848
S315080083E0000E8E4981F868000198000C81F8690032
S315080083F00198000A81F86A00019881F86B00002349
S3150800840001AA40F2D6714FF4006005F001F901980F
S31508008410000A824981F88000019881F881000A25BE
S3150800842000244CE02146012301AA980205F0F0F841
S31508008430002307AA40F23B414FF4006005F0E8F834
S31508008440002306AA40F23C414FF4006005F0E0F82C
S3150800845007990198884202DB0220019008E00699F4
S315080084600198884202DC0120019001E00020019079
S315080084700198C1B260008230684A1154002000EBAE
S315080084804400411C012301AA980205F0C1F8079986
S315080084900198884202DB0220019008E006990198BB
S315080084A0884202DC0120019001E000200190019839
S315080084B0C1B260008330594A1154601CC4B2AC4240
S315080084C0B0DB002301AA40F2D7714FF4006005F033
S315080084D09FF80198001D01900198000A4F4981F8FC
S315080084E0A000019881F8A10000246DE004F1300194
S315080084F0012301AA980205F08BF8002305AA40F289
S315080085003E414FF4006005F083F8002304AA4FF4B7
S3150800851088614FF4006005F07BF8002303AA40F257
S315080085203F414FF4006005F073F8002302AA40F2B9
S3150800853041414FF4006005F06BF8059901988842AF
S3150800854003DA04990198884202DB022001900CE0C4
S3150800855003990198884203DBDDE90101884202DAC2
S315080085600120019001E0002001900198C1B260004D
S31508008570A2302A4A1154302000EB4400411C012342
S3150800858001AA980205F044F805990198884203DA89
S3150800859004990198884202DB022001900CE00399B5
S315080085A00198884203DBDDE90101884202DA0120ED
S315080085B0019001E0002001900198C1B26000A3304B
S315080085C0164A1154601CC4B2052C8FDB002001909A
S315080085D00198000A114981F8C000019881F8C10084
S315080085E00198000A81F8C200019881F8C300019831
S315080085F0000A81F8C400019881F8C5000198000AAC
S3150800860081F8C600019881F8C7000198000A81F828
S31508008610C800019881F8C900019801E0B03400202B
S31508008620000A81F8CA00019881F8CB000198000A6F
S3150800863081F8CC00019881F8CD000198000A81F8EC
S31508008640CE00019881F8CF000198000A81F8D00081
S31508008650019881F8D1000198000A81F8D2000198A2
S3150800866081F8D300002301AA40F235414FF4006097
S3150800867004F0CEFF0198000A264981F8E000019827
S3150800868081F8E100002301AA40F236414FF4006068
S3150800869004F0BEFF0198000A1E4981F8E20001981D
S315080086A081F8E300002301AA40F22B414FF4006051
S315080086B004F0AEFF47F230510198081A019001986C
S315080086C0000A144981F8E400019881F8E5000023BE
S315080086D001AA40F22C414FF4006004F099FF01987A
S315080086E0A0F5EA40303801900198000A094981F856
S315080086F0E600019881F8E70010F056F800120549DF
S3150800870081F8E80010F050F8024981F8E90008B04D
S3150800871070BD0000B03400207047000010B500247A
S3150800872005F09EFD0446C4B91B480078401C1A494A
S31508008730087008460078032812DD032008701748D9
S31508008740007868B90023012240F2ED71D0020EF0DC
S31508008750C5F901201149087002E000200E49087089
S31508008760B4B10F480078401C0D49087008460078D7
S31508008770032810DD0320087000231A4640F2ED7125
S315080087804FF400600EF0AAF900200449087002E0D0
S3150800879000200349087010BD1203002014030020AE
S315080087A01303002010B5002405F042FD0446C4B9A1
S315080087B01B480078401C1A490870084600780328A8
S315080087C012DD032008701748007868B900230122D3
S315080087D040F2EC71D0020EF081F9012011490870BF
S315080087E002E000200E490870B4B10F480078401C1A
S315080087F00D49087008460078032810DD0320087024
S3150800880000231A4640F2EC714FF400600EF066F948
S3150800881000200449087002E000200349087010BDD2
S315080088200F030020110300201003002030B5054671
S315080088300C46094805F0A9FA0346302B09DA074819
S3150800884040F823500021C03040F82310024840F871
S315080088502340184630BD00004C100020FC110020B3
S3150800886010B5642101480DF009F910BD813D0108D4
S3150800887010B54FF4FA7104480DF000F96421034865
S315080088800DF0FCF810BD000005530108114E000854
S3150800889010B564210B480EF03BFB4FF47A710A4879
S315080088A00DF0ECF84FF47A7108480DF0E7F86421FA
S315080088B007480DF0E3F84FF4FA6106480DF0DEF8C4
S315080088C010BD0000615D0008C17D0108A56F0108A3
S315080088D0995F0008618D000810B5012240210548FE
S315080088E001F03BFF00200449087004490870044958
S315080088F0087010BD00100140A40400209A0400204E
S31508008900130500204FF4FA5200FB02F100BF0A1EBD
S31508008910A1F10101FBD1704738B500200090002372
S315080089206A4640F2EC714FF4006004F071FE00985C
S3150800893010B900202549087000236A4640F2D27112
S315080089404FF4006004F064FE47F230510098884204
S3150800895001DD012038BD1D48007808B10020F9E77F
S3150800896000236A4640F2F5714FF4006004F050FEA9
S315080089700098552803D016480078012801D1002010
S31508008980E8E70CF067F908B10020E3E7002419E0EE
S31508008990104850F8241000236A464FF4006004F08B
S315080089A037FE009855280BD10A4850F8240040F69F
S315080089B0C831884202D10120044908700020C9E75D
S315080089C0601CC4B2052CE3D30120C3E7460400208B
S315080089D04804002040DB010838B500200090002339
S315080089E06A4640F2ED714FF4006004F011FE0098FB
S315080089F010B900202149087000236A4640F2D27156
S31508008A004FF4006004F004FE47F2305100988842A3
S31508008A1001DA012038BD1948007808B10020F9E7C5
S31508008A2004F0EDFF18B916480078012801D1002096
S31508008A30F0E70CF00FF908B10020EBE7002419E085
S31508008A40104850F8241000236A464FF4006004F0DA
S31508008A50DFFD009855280BD10A4850F8240040F647
S31508008A60C931884202D10120044908700020D1E7A3
S31508008A70601CC4B2052CE3D30120CBE745040020D3
S31508008A80480400202CDB010808B5002000900023CC
S31508008A906A464FF489614FF4006004F0B9FD009806
S31508008AA001280CD106F042FB012808D100231A46FA
S31508008AB04FF48961C0020EF011F806F013FC009815
S31508008AC0A5280CD100231A464FF489614FF400609B
S31508008AD00EF004F801201349087006F003FC00980C
S31508008AE0552809D100231A464FF489614FF40060CE
S31508008AF00DF0F4FF06F0F6FB00236A4640F2034148
S31508008B004FF4006004F084FD4FF6FF710098884228
S31508008B1002D101200449087005F0F2FA0120034940
S31508008B20087008BD510000201500002053000020E1
S31508008B3010B5FFF751FF012806D1002011F0BCFB44
S31508008B4001201449087019E01248007880B1012004
S31508008B5006F0DAF841F2883005F0C9FA012011F07A
S31508008B60ABFB41F2883005F0C2FA002006F0CCF8DB
S31508008B70002008490870012011F09EFB11F0F4FB53
S31508008B8018B1002010F0D4FB02E0012010F0D0FB51
S31508008B9010BD00005C04002008B52020ADF80000D8
S31508008BA003208DF8020004208DF803006946024868
S31508008BB001F0F6FC08BD00000008014008B52020B9
S31508008BC0ADF8000003208DF8020014208DF803008C
S31508008BD06946024801F0E4FC08BD000000080140AF
S31508008BE010B5012000F058F806F080F910BD000015
S31508008BF010B54FF4005000F055F828B14FF4005066
S31508008C0000F04AF806F072F94FF4004000F04AF80E
S31508008C1000B34FF4004000F03FF80F480078B8B1B1
S31508008C200E480078082815DAFFF7D6FE012811D174
S31508008C3005F016FB70B9012006F066F8012006F06B
S31508008C4099F8042010F074FB05200549087001E026
S31508008C5006F04CF910BD0000530000205500002016
S31508008C605400002010B5082000F016F806F03EF96A
S31508008C7010BD10B5102000F00FF806F037F910BD3A
S31508008C8010B5202000F008F84FF4807000F004F8C2
S31508008C9006F02CF910BD0000014908607047000075
S31508008CA014040140014600200022074B1B6803EA12
S31508008CB00102054B14331B680B4013B10AB101209E
S31508008CC000E000207047000000040140002123490D
S31508008CD08279002A3AD00A46126803689A430B46F4
S31508008CE01A600A1D126803689A430B1D1A600279F6
S31508008CF011440A6803681A430A60184A0832126857
S31508008D0003689A43154B08331A601A1D12680368DC
S31508008D109A43124B0C331A604279102A0ED11A1F45
S31508008D20126803681A430D4B08331A601A1D126835
S31508008D3003681A43094B0C331A600DE00749427958
S31508008D4011440A6803681A430A6005E00279114467
S31508008D500A6803689A430A607047000000040140E5
S31508008D602DE9F0411048006810490968451A002D98
S31508008D7000DA6D4201F0F2FE044647F230508442B2
S31508008D8010DA071B95FBF7F6C6EB06108000642180
S31508008D9090FBF1F60023324640F2EA714FF4006088
S31508008DA00DF09CFEBDE8F0810804002004040020B4
S31508008DB07CB50446002001900090002540F6A97075
S31508008DC0FDF7F6FB40B1A07820F00300401CA07028
S31508008DD001203A490870102540F6AA70FDF7E8FB0D
S31508008DE040B1A07820F00300401CA0700120334950
S31508008DF00870112540F6AC70FDF7DAFB40B1A07893
S31508008E0020F00300401CA07001202C490870122590
S31508008E1040F6AD70FDF7CCFB40B1A07820F003001A
S31508008E20401CA0700120254908701325002301AABB
S31508008E3040F2D1714FF4006004F0EAFB00236A4661
S31508008E404FF4FC614FF4006004F0E2FB40F2DC51A1
S31508008E500098884202DB0198322814DA184800780C
S31508008E60401C17490870084600780A280EDD0A20B3
S31508008E700870E07820F00C00001DE07001200F4912
S31508008E800870172502E000200D49087040F6A47006
S31508008E90FDF78EFB18B101200849087034250748EC
S31508008EA00078012806D100232A4640F2EB71C00259
S31508008EB00DF014FE014800787CBD00001503002063
S31508008EC01603002000B5A5B094216846FBF743F9C0
S31508008ED01048008810490988884219D00D4800882A
S31508008EE000EB800202EB40100C4A02EB8001942250
S31508008EF06846FBF717F9684600F0A4F8054909889B
S31508008F00481C00EBD0714910A0EB4101014A1180C1
S31508008F1025B000BD9804002096040020501E0020AD
S31508008F2000B5A5B094216846FBF715F917480088DF
S31508008F3017490988884227D01648007820BB164862
S31508008F40007808BB002015494871012011490870AE
S31508008F500E48008800EB800202EB4010104A02EB34
S31508008F60800194226846FBF7DDF8684600F0A0FA0F
S31508008F70012809D105480088401C032190FBF1F21D
S31508008F8001FB12000149088025B000BD94040020A9
S31508008F90920400209A040020A40400200807002058
S31508008FA0941C00200FB470B50023002500249DF8FA
S31508008FB01A0001F0F7FD06029DF81B0001F0F2FD0C
S31508008FC006EB00169DF81C0001F0ECFD3044C5B216
S31508008FD09DF8110003449DF8120003449DF8130000
S31508008FE003449DF8140003449DF8150003449DF8B6
S31508008FF0160003449DF8170003449DF8180003441F
S315080090009DF81900184483B29DF81A00184483B2D3
S315080090109DF81B00184483B29DF81C00184483B2BF
S3150800902000BF06E00DF11D00005D184483B2601C08
S31508009030C4B2AC42F6DBD843401C83B2184670BCB7
S315080090405DF814FB2DE9F04FF1B004460027BA4647
S315080090500025A846A946AB4698214BA8FBF77BF8FE
S31508009060002600204A9049904890479013F040F80F
S3150800907094F88F0001F096FD03039021085D01F036
S3150800908091FD03EB00239121085D01F08BFD03EBB5
S3150800909000139221085D01F085FD184480B24990BD
S315080090A0842204F110016846FBF73CF89422214615
S315080090B022A8FBF737F822A80FC8FFF773FF4A90D4
S315080090C0A07A01F06FFD0346E07A01F06BFD0344D8
S315080090D0207B01F067FD1844C5B22846E91705EB61
S315080090E011710911A5EB0111CDB2E843401CC5B2B7
S315080090F005F00F05207A01F055FD0346E07901F0E9
S3150800910051FD03EB001000F0FF087E208DF82C01BE
S3150800911032208DF82D0130208DF82E01002348AA23
S3150800912040F249414FF4006004F072FA4898C7B219
S31508009130207901F037FD0346E07801F033FD03EBB3
S31508009140001000F0FF0B3846FCF778F88DF82F0171
S315080091503846FCF763F88DF8300160798DF83101EF
S31508009160A0798DF83201B9F1000F79D1B8F1610F04
S3150800917077D017DCB8F1470F60D009DCB8F1090FD2
S3150800918025D0B8F1420F2BD0B8F1440F27D13BE0D8
S31508009190B8F14F0F66D0B8F1510F7AD0B8F1600F19
S315080091A0F4D189E0B8F1930F70D009DCB8F1620FF9
S315080091B06DD0B8F1630F6BD0B8F1920FE6D1E2E04B
S315080091C0B8F1940F77D0B8F1950FDFD133E14BA8FA
S315080091D006F076FD4BAA09210420FBF7B5FB54E1FE
S315080091E0A07B01F0DFFC0346607B01F0DBFC03EBB0
S315080091F00010C6B24BA9204606F064FD4BAA4221D0
S315080092000420FBF7A1FB40E1A07B01F0CBFC034661
S31508009210607B01F0C7FC03EB0010C6B2A3480078D8
S31508009220B04201D0FF2E08D14BA9204606F04AFDD0
S315080092304BAA44210420FBF787FB26E130208DF852
S31508009240350133208DF8360130208DF837014BA8CB
S3150800925007F038FA4BAA4F210420FBF775FB14E1F7
S3150800926014E143E030208DF835018DF836013220BF
S315080092708DF837018DF8380138208DF839014BAA59
S315080092804F210420FBF760FBFFE002E08DE047E09A
S315080092905FE030208DF8350134208DF83601302016
S315080092A08DF837014BA807F083FA4BAA5121042001
S315080092B0FBF74AFBE9E098E030208DF833018DF89A
S315080092C0340136208DF8350130208DF836013820E6
S315080092D08DF8370132208DF838014BA807F0CFFA00
S315080092E04BAA60210420FBF72FFBCEE030208DF837
S315080092F033018DF8340138208DF8350130208DF88A
S31508009300360136208DF8370132208DF838014BA802
S3150800931007F06EFF4BAA61210420FBF715FBB4E0AA
S3150800932030208DF833018DF8340138208DF8350159
S3150800933030208DF836018DF8370138208DF8380140
S315080093404BA808F025FC4BAA62210420FBF7FCFA7F
S315080093509BE030208DF833018DF8340138208DF8E4
S31508009360350130208DF8360131208DF8370132204D
S315080093708DF838014BA808F0B3FD4BAA63210420E9
S31508009380FBF7E2FA81E030208DF8350131208DF8BF
S31508009390360132208DF837014BA808F097FE4BAA04
S315080093A092210420FBF7D0FA6FE0A07B01F0FAFBCC
S315080093B00346607B01F0F6FB03EB0010C6B23B48A0
S315080093C00078B04210D130208DF8350132208DF862
S315080093D0360130208DF837014BA808F0FDFE4BAA60
S315080093E093210420FBF7B0FA4FE0A07B01F0DAFBEB
S315080093F00346607B01F0D6FB03EB0010C6B220796A
S3150800940001F0D0FB0346E07801F0CCFB03EB00103B
S31508009410B0420FD130208DF835018DF836018DF820
S3150800942037014BA9204608F0FFFE4BAA94210420D9
S31508009430FBF78AFA29E0A07B01F0B4FB0346607BC0
S3150800944001F0B0FB03EB0010C6B2207901F0AAFBCD
S315080094500346E07801F0A6FB03EB0010B04213D1F7
S3150800946030208DF835018DF836018DF83701002347
S31508009470552240F2F6714FF400600DF02FFB4BAA0F
S3150800948095210420FBF760FA00BF0BE030208DF829
S3150800949035018DF836018DF837014BAA4F21042086
S315080094A0FBF752FA71B0BDE8F08F000016000020F5
S315080094B010B50446002240210B4801F04EF99422CB
S315080094C021460A48FAF72EFE01200949087007487E
S315080094D0017808480FF04BF9012240F22771054838
S315080094E00FF0AFF8012010BD00100140162700202C
S315080094F0BA0400200038014010B50446A748007891
S3150800950009287DD2DFE800F0051A386485A8F3F14A
