S31508004000F04D002001410008CFEF000895E90008AF
S31508004010CDEF0008E9530008B96601080000000062
S315080040200000000000000000000000007D310108CB
S315080040304F7F000800000000F3EF0008C75701088B
S315080040401B4100081B4100081B41000869230108A1
S315080040501B4100081B410008DD8300081B410008BE
S315080040601B41000859840008698400081B410008A0
S315080040701B4100081B4100081B4100081B410008A2
S315080040801B4100081B4100081B410008096501087F
S315080040900D6501081B4100081B41000879840008CA
S315080040A01B4100081B4100081B4100081B41000872
S315080040B01B4100081B4100081B4100081B41000862
S315080040C01B4100081B4100081B4100081B41000852
S315080040D01B410008E95D0108E55E0108AD5F0108BE
S315080040E0ED830008092001081B410008DFF80CD001
S315080040F000F04CF900480047557E0108F04D0020B5
S315080041000648804706480047FEE7FEE7FEE7FEE763
S31508004110FEE7FEE7FEE7FEE7FEE7FEE74958010889
S31508004120ED40000840EA01039B0703D009E008C9EF
S31508004130121F08C0042AFAD203E011F8013B00F85E
S31508004140013B521EF9D27047D2B201E000F8012BAA
S31508004150491EFBD270470022F6E710B513460A46F9
S3150800416004461946FFF7F0FF204610BD2DE9FE4F1D
S3150800417081EA030404F0004421F0004100944FF062
S31508004180000B23F0004350EA01045ED052EA030410
S315080041905BD0C3F30A54C1F30A552C44A4F2F33492
S315080041A00194A0FB0254C1F3130141F48011C3F337
S315080041B0130343F4801301FB024400FB034E840AF5
S315080041C0970A44EA815447EA8357A4FB076802958D
S315080041D08D0A05FB07854FEA932C04FB0C5427052B
S315080041E0029D4FEA065847EA1637B5EB08056EEB07
S315080041F0070C870E920E47EA811742EA8312A7FB3D
S315080042000201B6EB0B0164EB00042B0D43EA0C33F9
S315080042105E1844EB1C50DA465146E7FB0201C5F32B
S3150800422013044FEA0B3343EA14534FEA0432019C52
S3150800423043EA0603A4F10C040294009CCDE900B4F9
S3150800424000F055F803B0BDE8F08F00200146F9E705
S315080042500EB5C10F80EAE0700844CA07002140F293
S3150800426033438DE80E000A460B4600F040F803B0CB
S3150800427000BD70B5C1F30A5201F000450024C1F330
S31508004280130140F2FF3341F480119A4201DA00200B
S3150800429070BD40F233439A42A2F2334203DC5242E3
S315080042A000F006F800E090402C43F1D0404270BD83
S315080042B0202A04DB203A21FA02F00021704721FA6D
S315080042C002F3D040C2F120029140084319467047D4
S315080042D010B5141E73F1000408DA401C41F1000100
S315080042E092185B411A4301D120F0010010BD2DE957
S315080042F0F04D92469B4611B1B1FA81F202E0B0FA4E
S3150800430080F22032904600F053F804460F4640EA01
S315080043100A0041EA0B0153465A46084313D0114690
S3150800432053EA010019D0C8F140025046FFF7C0FF12
S3150800433005460E4650465946424600F039F80843A7
S3150800434005D0012004E020463946BDE8F08D00205E
S31508004350054346EAE0762C4337430A986305E40AA0
S31508004360A0EB08000022FD0A44EA47540A3002D5A9
S3150800437000200146E9E7010510196941DDE908450C
S3150800438000196941BDE8F04DA2E70000064C074D4B
S3150800439006E0E06840F0010394E807009847103407
S315080043A0AC42F6D3FFF7A6FEC4C00108E4C0010874
S315080043B0202A04DB203A00FA02F1002070479140D7
S315080043C0C2F1200320FA03F319439040704770B5F1
S315080043D08C1810F8015B15F0070301D110F8013BA2
S315080043E02A1106D110F8012B03E010F8016B01F829
S315080043F0016B5B1EF9D12B0705D40023521E0DD481
S3150800440001F8013BFAE710F8013BCB1A921C03E0CE
S3150800441013F8015B01F8015B521EF9D5A142D8D306
S31508004420002070BD002904D0816841F00101816037
S315080044307047816821F001018160704710B5154900
S3150800444088420AD14415012120460DF095FB2046E5
S31508004450BDE8104000210DF08FBB0F4988420AD1F4
S315080044600415012120460DF087FB2046BDE81040C3
S3150800447000210DF081BB094988420AD10121CC03EC
S3150800448020460DF079FB2046BDE8104000210DF0CE
S3150800449073BB10BD0024014000280140003C0140C8
S315080044A0014600208968490700D501207047C06C7D
S315080044B080B270470246002012680A4200D00120E6
S315080044C07047014600208968090700D50120704712
S315080044D010B542680E4B1A400C790B6842EA042262
S315080044E01343436082680B4B1A40D1E902432343C6
S315080044F04C7942EA440213438360C26A22F470028A
S31508004500097C491EC9B242EA0151C16210BD0000C8
S31508004510FFFEF0FFFDF7F1FF10B509F021FA0C4C8C
S3150800452020B1207840F00100207003E0207800F0E8
S31508004530FE00207009F01AFA20B1207840F0020037
S31508004540207010BD207800F0FD00207010BD00001E
S315080045501D00002070B5072609290AD9C568A1F1EA
S315080045600A0404EB4404A640B543A3401D43C560B2
S3150800457007E0056901EB4104A640B543A3401D4386
S3150800458005611F23072A09D2446B521E02EB8202D9
S3150800459093409C4391400C43446370BD0D2A09D255
S315080045A0046BD21F02EB820293409C4391400C435A
S315080045B0046370BDC46A0D3A02EB820293409C43C1
S315080045C091400C43C46270BD816841F00801816066
S315080045D07047002904D0816841F4A00181607047C2
S315080045E0816821F4A00181607047816841F0040167
S315080045F08160704770B501460D4D1424688C421CC5
S31508004600B2FBF4F304FB1322AB8C9A420FD000EBF7
S31508004610800202EBC000074A10440D22FFF782FD14
S31508004620688C401CB0FBF4F104FB1100688470BD73
S3150800463078040020E424002070B5124D1E24EA8B6D
S31508004640511CB1FBF4F304FB13112B8C994217D0C0
S31508004650C17809B90821C17002EB820101EBC201D8
S31508004660094A8B1801460D221846FFF75BFDE88BB1
S31508004670401CB0FBF4F104FB1100E883012070BD77
S31508004680002070BD780400205E230020F0B50D4C94
S3150800469014236289A6891146521CB2FBF3F503FB63
S315080046A01525B5420DD0084D05EB011190E8E0003F
S315080046B0C06881E8E000C860B2FBF3F003FB102095
S315080046C06081F0BD78040020B01C0020F0B5164DBE
S315080046D01E23EA882E891146521CB2FBF3F403FB0B
S315080046E01424B4421DD0047B0CB90824047304684E
S315080046F00026B4F5006F02D90127877300E0867398
S3150800470046730A4E06EB0111D0E90167C06881E8D5
S31508004710D000C860B2FBF3F003FB1020E88001204C
S31508004720F0BD0020F0BD000078040020D01A00205B
S3150800473070B501460A4C0125608AA38A25EA00025B
S315080047409A420CD000EB800202EB4010054A02EBBD
S3150800475080009422FFF7E6FC608A8543658270BD77
S3150800476078040020AC1F002070B501460F4D0324C5
S31508004770E889421CB2FBF4F304FB13222B8A9A4203
S3150800478012D000EB800202EB4010094A02EB8000CF
S315080047909422FFF7C7FCE889401CB0FBF4F104FB40
S315080047A01100E881012070BD002070BD780400204A
S315080047B0F01D00202DE9F0410D4F1426FD89B7F8AC
S315080047C010802C466D1CB5FBF6FC06FB1C5CC4452C
S315080047D00CD0DFF820C00CEB041420602171A26015
S315080047E02373B5FBF6F006FB1050F881BDE8F0819F
S315080047F064030020E806002070B501460D4D142418
S31508004800688D421CB2FBF4F304FB1322AB8D9A426B
S315080048100FD000EB800202EBC000074A10440D22BD
S31508004820FFF780FC688D401CB0FBF4F104FB110017
S31508004830688570BD780400206E27002070B5124D7B
S315080048401E24EA8C511CB1FBF4F304FB13112B8DC7
S31508004850994217D0C17809B90821C17002EB8201C3
S3150800486001EBC201094A8B1801460D221846FFF7CB
S3150800487059FCE88C401CB0FBF4F104FB1100E884F9
S31508004880012070BD002070BD78040020E8250020B6
S315080048902DE9F04FC9B080460E46144600254FF064
S315080048A0010ACDF820A10020479046904FF4006BEE
S315080048B0002348AA40F24941584608F0CFFA002397
S315080048C047AA40F26141584608F0C8FAA520A0490F
S315080048D0A04F4FF00809B8F1000F36D0B8F1040F11
S315080048E05FD0B8F1020F7CD0B8F1030F7AD007F188
S315080048F00E05B8F1010F76D0B8F1050F22D10023C5
S3150800490046AA4FF48C61584608F0A8FA469811282A
S315080049106AD006F540762E6085F80C9020782871C6
S3150800492060786871A078A871E078E87120792872B3
S3150800493060796872A079A872E079E87285480E30C5
S31508004940FFF7C4FE49B0BDE8F08F3870486B28BB46
S315080049504798012822D087F801A0BE7087F80390EF
S315080049602078387160787871A078B871E078F87135
S315080049702079387260797872A079B872E079F8721D
S315080049800E22744942A8FFF7CDFB42A80FC80DF0C6
S31508004990F3FA38736F4800F085F9D3E748987870CA
S315080049A0DBE76C4E20781E36307060787070A07821
S315080049B0B070E078F0702079307160797071A07904
S315080049C0B071E079F071207A3072A07AB072E07A2C
S315080049D0F072207B3073A07A05F0CAFA0702E07AF3
S315080049E003E042E065E088E0AFE005F0C1FA07EBD6
S315080049F00017207B05F0BCFA3844C0B205E06119FF
S31508004A007219497B51736D1CEDB28542F7D3743622
S31508004A10607A06F86B0C4F4984222E316846FFF7F8
S31508004A2081FB4C4994221E3121A8FFF77BFB21A864
S31508004A300FC803F073FE0446250A284600F022FB39
S31508004A40F076284600F016FB3077E4B2204600F0F0
S31508004A5019FB7077204600F00DFBB0770D20F07734
S31508004A603C481E30FFF780FE6CE7387087F801A0D7
S31508004A70BE7087F803902078387160787871A078CE
S31508004A80B871E078F8712079387260797872A0790F
S31508004A90B872E079F8720E222E4942A8FFF742FB57
S31508004AA042A80FC80DF068FA38732A48FFF7C4FD04
S31508004AB048E7387087F801A0BE7087F80390207819
S31508004AC0387160787871A078B871E078F8712079D3
S31508004AD0387260797872A079B872E079F8720E2225
S31508004AE01C4942A8FFF71EFB42A80FC80DF044FA5E
S31508004AF038731848FFF7A2FE24E7486BE8B94798C9
S31508004B0001281AD0144800EB0640286085F80C9056
S31508004B102078287160786871A078A871E078E871C3
S31508004B202079287260796872A079A872E079E872AB
S31508004B3008480E30FFF7CAFD04E74898064900EB17
S31508004B400640491E08442860E0E72E60E4E60000B7
S31508004B5078040020062900200140001870B5014697
S31508004B600A4C0125608AA38A25EA00029A420BD0DC
S31508004B70074A00EB001002EB00104FF48872FFF7AB
S31508004B80D1FA608A8543658270BD00003A05002027
S31508004B901246002070B501460B4C0125E089238A90
S31508004BA025EA00029A420DD0084A00EB001002EBF3
S31508004BB000104FF48872FFF7B5FAE0898543E5815E
S31508004BC0012070BD002070BD3A050020F243002088
S31508004BD070B501460D4D0524E889421CB2FBF4F375
S31508004BE004FB13222B8A9A420FD0094A00EB0010C5
S31508004BF002EB00104FF48872FFF794FAE889401C1C
S31508004C00B0FBF4F104FB1100E88170BDF20400204A
S31508004C107E38002070B501460F4D05246889421C70
S31508004C20B2FBF4F304FB1322AB899A4211D00B4A68
S31508004C3000EB001002EB00104FF48872FFF772FACF
S31508004C406889401CB0FBF4F104FB1100688101205F
S31508004C5070BD002070BD0000F20400202E33002035
S31508004C6070B501460D4D1424688B421CB2FBF4F353
S31508004C7004FB1322AB8B9A420FD000EB800202EBA7
S31508004C80C000074A10440D22FFF74CFA688B401CF7
S31508004C90B0FBF4F104FB1100688370BD78040020B2
S31508004CA05A22002070B5124D1E24EA8A511CB1FB07
S31508004CB0F4F304FB13112B8B994217D0C17809B969
S31508004CC00821C17002EB820101EBC201094A8B1867
S31508004CD001460D221846FFF725FAE88A401CB0FB64
S31508004CE0F4F104FB1100E882012070BD002070BDBC
S31508004CF078040020D420002038B5002400236A4612
S31508004D0040F6A4714FF4006008F0A8F804488078CB
S31508004D1000F00300022800D10124E0B238BD0000EB
S31508004D20A003002038B500244FF4006500236A4626
S31508004D304FF4FB61284608F091F80098012800D145
S31508004D40402400236A4640F2D971284608F086F8BE
S31508004D500098012801D144F08004204638BD00009F
S31508004D602DE9FC5F00260025002001900090484FA1
S31508004D7040F6A27A40F2D37B4FF4006806EB46046D
S31508004D8057F8240050450CD0A0F57061A43908D016
S31508004D90A0F57061A33916D0A0F57061A53912D0B7
S31508004DA01BE0002301AA5946404608F057F8A0B16F
S31508004DB00198022811D1002357F824101A464046B4
S31508004DC00FF0DAFF2AE0002301AA5946404608F008
S31508004DD045F810B1019801282FD007EB8409D9F8B6
S31508004DE0081041B100236A46404608F037F8A8B1D2
S31508004DF00098552829D0D9F8041041B100236A46ED
S31508004E00404608F02BF848B10098552827D00023CB
S31508004E1057F824101A4640460FF0AEFF761CB6B275
S31508004E200E2EABD3A80740F2DC7122D5002302224E
S31508004E3040460FF0A1FFBDE8FC9F002357F8241059
S31508004E401A4640460FF098FFE8E745F0020557F87E
S31508004E5024100023022240460FF08EFFDEE745F0BD
S31508004E60010557F824100023012240460FF084FF5D
S31508004E70D4E7E80705D00023012240460FF07CFF5F
S31508004E80D9E700231A4640460FF076FFD3E700001D
S31508004E908C970108F0B5059E0024002B29D035888B
S31508004EA09D4202D26D1C358000E0338033885B1E3C
S31508004EB09BB205E05D1E32F8157022F81370ABB28E
S31508004EC0002BF7D11080308804E032F813502C44B8
S31508004ED05B1C9BB29842F8D8B4FBF0F200FB124276
S31508004EE000EB4003B2EB930F00D90444B4FBF0F097
S31508004EF00880F0BD38B5044608461946062C0ED279
S31508004F00DFE804F00D030E1B2D24194B03EB4203B7
S31508004F100093184B53F822200323FFF7BBFF38BD35
S31508004F20134B603303EB42030093124BC03353F821
S31508004F3022200323FFF7AEFF38BD0E4A0823083A9E
S31508004F4000920B4A8432FFF7A5FF38BD094A0523AC
S31508004F50121F0092064A9E32FFF79CFF38BD054A8B
S31508004F600523921F0092024A9432FFF793FF38BD39
S31508004F70DE050020BC01002010B501200AF03AF831
S31508004F80BDE8104000200AF035B8000008B503490E
S31508004F90084400900098008808BD0000006C004096
S31508004FA008B5034A104400900098016008BD000047
S31508004FB0006C004010B514F039F808F093FC00288E
S31508004FC003D002480178491C017010BD1700002063
S31508004FD01FB5002000900190029003900D4CA08C04
S31508004FE0618C884214D000EB800101EBC0000A49AD
S31508004FF00D2201446846FFF795F8684600F0E4F983
S31508005000A08C401C1421B0FBF1F201FB1200A08415
S315080050101FBD000078040020E42400201FB50020EE
S315080050200090019002900390104C208CE18B8842EE
S315080050301BD0A178002918D10121A17000EB8001AD
S3150800504001EBC0010A480D2201446846FFF76AF8D9
S31508005050684611F013FF012807D1208C401C1E2139
S31508005060B0FBF1F201FB120020841FBD780400207A
S315080050705E23002000F00F00092801D93730704759
S31508005080303070470921B1EB101F03D2372101EBED
S3150800509010107047302101EB101070472DE9F843C6
S315080050A0002400200090002600236A4640F2EF31D3
S315080050B04FF4006007F0D2FE0098C7B2DFF84480CC
S315080050C0AA2088F8000008F112054FF055090EE0ED
S315080050D035F8141031B1204609F048F988F80090DF
S315080050E0012602E0204609F041F9641CE4B2BC42FC
S315080050F0EED3012332464F2198020FF03DFEBDE85C
S31508005100F8830000C40200202DE9FF410021039125
S3150800511002910191009100243D4D288A401C80B2DD
S31508005120288205286CD305202882E8894FF4167250
S31508005130401C80B2E881904201D3A970EA81A87820
S3150800514001285DD04FF40068002301AA40F2DF7100
S31508005150404607F083FE002301AA4FF4FC6140464F
S3150800516007F07CFE019E002301AA40F2E171404649
S3150800517007F074FE019F002301AA40F22D41404624
S3150800518007F06CFE002303AA40F2FF31404607F001
S3150800519065FE002302AA40F2D371404607F05EFE80
S315080051A00399022029B90299012910D0A97A01295F
S315080051B00DD0687000F0E0FB6878012822D0002343
S315080051C06A4640F2EF31404607F048FE0FE05F2F8F
S315080051D005DAB6F5C86F02DB01206870EAE7687081
S315080051E0E8E70021204609F0C1F8641CE4B20098FB
S315080051F08442F6DB012300224F2198020FF0BCFD02
S31508005200BDE8FF8100F024FBFFF748FFF8E7000040
S31508005210C40200202DE9F84F04464FF0000AD14693
S31508005220CDF80090002500264FF4006B00236A464F
S3150800523040F2EF31584607F011FE0098C7B2DFF882
S31508005240AC804FF6FF7009E014B128F81A0001E0A7
S3150800525028F81A900AF1010A0AF0FF0ABA45F3D3A8
S315080052600020224AFF21921D0CB1115401E002F8D8
S315080052700090401CC0B20828F6D3DFF870A0AAF147
S31508005280120A8AF802401CB300241EE000236A466C
S3150800529004F57C71584607F0E1FD009805449AF834
S315080052A00300A84204DCB04202DD801B80B200E0A5
S315080052B000202E46401E0121814089B228F814108C
S315080052C0204609F053F8641CE4B2BC42DED309E078
S315080052D0002405E00021204609F048F8641CE4B2E1
S315080052E0BC42F7D3AAF80E90BDE8F88FD602002084
S315080052F03EB50024009401944FF40065002302AAE9
S315080053004FF4FF61284607F0A9FD0299C1F307206B
S31508005310ADF800008DF80210002302AAE91F2846FE
S3150800532007F09CFD0299080A8DF803008DF8041011
S31508005330002302AAA91F284607F090FD0298010A31
S315080053408DF805108DF80600684608F077FF0546C3
S315080053500CF040FF024908600248046028463EBD3A
S315080053602C000020300000207CB500200190009021
S3150800537014480178491C017040F2FB76741D00231D
S3150800538001AA3146204607F069FD0199AA2910D1DC
S31508005390251F00236A462946204607F05FFD009A26
S315080053A0002A07DD521E00920023294620460FF0E8
S315080053B0E3FC7CBD00235522314620460FF0DCFC79
S315080053C07CBD0000900300204178802906D0402942
S315080053D009D18178021D022009F0C0BE8178021D1C
S315080053E0022009F0BBBE7047FEE70000F8B50121B0
S315080053F048060CF097FB012105200CF0AFFB4FF493
S315080054000060ADF8000048208DF803001C4C694682
S31508005410204604F09DFAA114ADF8001018218DF865
S31508005420031003218DF802106946204604F090FA0D
S31508005430144E304600F02AF8134800F08EF9124947
S3150800544000248C710125CD710C724C728C72CD7250
S315080054508C70CC70022008714D7108200880304687
S3150800546000F0A4F808480C308472C47205730480EE
S3150800547044808480C4800481457300F023F8F8BD15
S3150800548000080140006400406005002010B50C4982
S3150800549088420AD101214C0620460CF051FB2046D1
S315080054A0BDE8104000210CF04BBB01218C062046BC
S315080054B00CF046FB2046BDE8104000210CF040BB2E
S315080054C000640040F0B5827A01219140304C226890
S315080054D042F0010222602E4D1C352A688A432A6052
S315080054E02B4A067B0C322B4B002E14D116688E43A2
S315080054F016604688C78846EA0746877A03EBC707D1
S31508005500C7F840660688878846EA0746877A03EB1F
S31508005510C707C7F84466067B012E14D116680E43E2
S3150800552016604288068842EA0642867A03EBC60671
S31508005530C6F84026C288868842EA0642867A03EB7F
S31508005540C603C3F84426124AC37A121D3BB1136830
S315080055500B4313600E4A0389143223B106E013681D
S315080055608B431360F6E713688B4313600389012B9B
S3150800557002D113680B431360407B012802D12868C7
S3150800558008432860206820F001002060F0BD000074
S315080055900066004000600040002A03D042690A43C2
S315080055A04261704742698A434261704710B50022DA
S315080055B0036823F002030360036843F001030360F2
S315080055C04FF6FF7300E0521C4468E40701D19A4283
S315080055D0F9D14268D2073ED08A79012A3DD00268BD
S315080055E022F080020260CA79012A3BD0026822F0C2
S315080055F0400202600A7A012A39D0026822F02002A3
S3150800560002604A7A012A37D0026822F01002026044
S315080056108A7A012A35D0026822F008020260CA7A1C
S31508005620012A33D0026822F0040202608A78CC7814
S31508005630920742EA04620C7942EA04424C790988E4
S3150800564042EA0452491E0A43C261016821F0010177
S315080056500160002120E0002010BD026842F08002AF
S315080056600260C0E7026842F040020260C2E70268D0
S3150800567042F020020260C4E7026842F010020260AB
S31508005680C6E7026842F008020260C8E7026842F00C
S3150800569004020260CAE7491C4268D20701D099424F
S315080056A0F9D14068C00701D0002010BD012010BD07
S315080056B008B54FF4C06009F08BFC14208DF8000083
S315080056C000208DF801008DF8020001208DF80300F6
S315080056D0684609F0F7FC08BD10B500EB0113D3F8CE
S315080056E0B04104F004041472002C2CD0D3F8B04155
S315080056F0E408546003F5D8731C6804F00204547275
S315080057005C6804F00F0494725C68240AD4749C687C
S31508005710D4729C68240A14739C68240C54739C687D
S31508005720240E9473DC68D473DC68240A1474DC6869
S31508005730240C5474DB681B0E937449B1016941F05B
S315080057402001016110BDD3F8B041640D1460D1E7A2
S31508005750C16841F02001C16010BD00218171C1718D
S31508005760017241728172C1728170C1700321017127
S315080057700221417101210180704730B5024600209F
S3150800578093685B010AD49068000101D5012005E001
S315080057909068C00001D5022000E0042004283BD010
S315080057A002EB0012D2F8803103F00103C2F880310F
S315080057B00B7A93B3D2F880414D681C434B7A43EA7F
S315080057C0C5031C43C2F880418B7A03F00F038B7222
S315080057D002F5C072536823F00F03536053688C7A3E
S315080057E023435360CB7A8C7B0D7B43EA04634C7B63
S315080057F0240444EA052423439360CB7B8C7C43EA48
S3150800580004634C7C097C240444EA01210B43D360DD
S31508005810116841F00101116030BDFFE7D2F880310F
S315080058204C7A23430C8843EA4453C2F88031CBE7C9
S3150800583010B50022054B05E010F8014B54401A5DDF
S31508005840491EC9B20029F7D1104610BD80B6010815
S315080058502DE9F04FCDB00027B846C0211CA8FEF7A9
S315080058607AFC00201B904FF4006400231BAA40F228
S31508005870EF31204607F0F2FA1B98C1B24C9100238B
S315080058801BAA6110204607F0E9FADDF86C900023A0
S315080058901BAA40F20141204607F0E0FADDF86CB099
S315080058A000231BAA4FF4FC61204607F0D7FA1B9881
S315080058B01FFA80FA2F488179012901D1B0F80CA086
S315080058C001A80DF087FE342201A90EA8FEF72AFCCE
S315080058D04AE00EA830F8174000231BAA07F57C718A
S315080058E04FF4006007F0BAFA1B98C5B24C4535D399
S315080058F0102D3CD8002D3AD000241CA800EB8716A2
S315080059000CE00DF06DFE00EB480030F8140026F8A8
S31508005910240006EB84008470641CE4B2AC42F0D325
S315080059203046294611F0D4FBA81EC4B214E006EB93
S315080059308400827836F82400A0EB0A01594503D37F
S31508005940484501D3552300E0AA230A4839461230B0
S3150800595007F0FAFD641CE4B2AC42E8D308EB050094
S3150800596000F0FF087F1CFFB24C988742B1D34DB0B8
S31508005970BDE8F08FC402002038B500240025009544
S3150800598000236A4640F2EF314FF4006007F066FAEA
S315080059900098C0B2084903E021F81450641CE4B228
S315080059A08442F9D300200449891D0D54401CC0B215
S315080059B00828FAD338BD0000D60200202DE9F8439E
S315080059C000210091194C2069401C2061A268904270
S315080059D02AD321610CF0FEFB0546E0682E1A40F238
S315080059E05E474FF4006800236A463946404607F08A
S315080059F035FA0098A1687043B0FBF1F600233246E9
S31508005A00394640460FF0B8F950B10CF02DFE0CF0AF
S31508005A1053FB30460CF0E4FD0CF026FE0CF054FB6C
S31508005A20E5604FF41670A060BDE8F88320000020FA
S31508005A3000F01CBD2DE9FC5F0025019500950024AA
S31508005A404FF4006B00236A4640F6BF71584607F0CC
S31508005A5005FA009900297CD1002301AA40F2D271E7
S31508005A60584607F0FBF9484FB878401CC0B2B870E2
S31508005A701E2803D80198401C019002E0642800D330
S31508005A80BD70424A3978019842F82100491C0A2219
S31508005A90B1FBF2F302FB13113970DFF8EC9047F211
S31508005AA0305848F6A04A09F1540940453CDAA8EBB3
S31508005AB00005554566DC2E4699F80000012816D1E2
S31508005AC03349B9F8020004EB440231F81220904237
S31508005AD009D904EB440001EB4000418880886943FA
S31508005AE091FBF0F603E0641CE4B2042CEBD3F86CEB
S31508005AF008B9786AF864244A0023503240F26441AF
S31508005B00584607F0ABF9386D4FF47A71C0EB401080
S31508005B10400190FBF1F0796A884202DD786B3044E7
S31508005B207863786C28447864019941452ADDA1F5A3
S31508005B30EA413039514525DC0D4699F8000002281E
S31508005B401AD10020124AB9F80230183200EB400484
S31508005B5000E017E032F81440A34209D900EB4000F0
S31508005B6002EB4000428880884A4392FBF0F503E046
S31508005B70401CC0B20428E9D3786B401B7863B86C24
S31508005B800844B864BDE8FC9FC80300202C0900201F
S31508005B90389D010838B5002000904FF400640023B2
S31508005BA06A4640F2FE31204607F058F900994FF44C
S31508005BB07A7232290FDBA1F13200904209D86FF0D0
S31508005BC01200414301F5C5315631642091FBF0F2CC
S31508005BD001E04FF44872002340F2FD3120460FF0F1
S31508005BE0CBF838BD2DE9FF410026039602960196AB
S31508005BF0009604F09DF90446A4F5EA40303841F2CF
S31508005C0070720A213E4D0746904207D86889401CA3
S31508005C1080B268810A2802D9698100E06E81A4F5FC
S31508005C20BA40C03841F26672904207D82889401CAB
S31508005C3080B228810A2802D9298100E02E814FF4F2
S31508005C400068002303AA40F2DD71404607F006F912
S31508005C50002302AA4FF4FC61404607F0FFF8002330
S31508005C606A4640F2DF71404607F0F8F8002301AAB9
S31508005C7040F2E971404607F0F1F80398B0F57A7FEB
S31508005C8031DB68890A280DD3BFB2029807F01CFBDE
S31508005C900290394607F0D0FA02901A4A002107F016
S31508005CA05DF9A88028890A2811D347F23050001BCD
S31508005CB084B2009800F0F8F90090214600F0A8F99F
S31508005CC00090104A0021103A07F048F9A8800C4ABB
S31508005CD0A88801995432884207DD4FF001031370F2
S31508005CE0A0EB01005080BDE8FF8106DA4FF0020301
S31508005CF01370A1EB00005080F5E716705680F2E7A6
S31508005D00C8030020640900202DE9F8430C46002743
S31508005D1000970025DFF8F0803C4E4FF4006CD8F869
S31508005D200020012808D0314647F230580978022861
S31508005D3016D0032864D14CE07780B780A2F5E840F6
S31508005D40FE3864285CD80125002340F224416046C9
S31508005D500FF012F8B8F800007080012030704FE09C
S31508005D6001294DD104F13200824249DC643882426D
S31508005D7046DB012510B2B080444503DBA4F5EA44AE
S31508005D80303C01E0A8EB0404B6F90210884208DDAD
S31508005D904FF0640204FB02F4A0EB0100B4FBF0F23E
S31508005DA008E012DA4FF0640204FB02F4A1EB0000EB
S31508005DB0B4FBF0F24FF0000340F2254160460EF0C6
S31508005DC0DBFF20B1022030701AE0002518E000251C
S31508005DD016E0022914D100236A4640F2D2716046C1
S31508005DE007F03CF82046009911F0A7FA814641468B
S31508005DF0204611F0A2FAB9EBD00F01D2012537706F
S31508005E002846BDE8F8830000C4030020F0020020FD
S31508005E101FB5002000900190029003900C4CA089B9
S31508005E206189884213D00B4901EB001090E80E00F7
S31508005E30C0688DE80E000390684608F0AFFFA08999
S31508005E40401C1421B0FBF1F201FB1200A0811FBD1A
S31508005E5078040020B01C00207FB50024009401942B
S31508005E6002940394144D2889E988884217D0134967
S31508005E7001EB001191E80D00C9688DE80D0003914A
S31508005E809DF80C2001A907F0E7FB48B12889401CBA
S31508005E901E21B0FBF1F201FB120028812C717FBD97
S31508005EA02879401CC0B228710A28F8D907F09EFB49
S31508005EB008F032FD2C717FBD78040020D01A00202E
S31508005EC02DE9FF470025039547F2305602960195BE
S31508005ED000954FF40069002302AA40F2D2714846A1
S31508005EE006F0BCFF029943480127434CB14209DA40
S31508005EF0A189491C89B2A1810A2901D9A77207700B
S31508005F00E5810BE0E289521C92B2E281322A00D97D
S31508005F10A572A581B14201DD05706570002301AA4D
S31508005F2040F2E971484606F099FF03A806F02CF9F5
S31508005F3040F2FA3A4FF47A78012802D1A07A012879
S31508005F4002D003F0BDFFA0B340460FF097F800F06B
S31508005F5055F8A572E581A5812770607840B365700C
S31508005F6000236A465146484606F078FF009821699C
S31508005F70401A206100236A4640F2F631484606F088
S31508005F806DFF009901EB410082000A2092FBF0F3B5
S31508005F902269934225DBC90091FBF0F0904220DC90
S31508005FA0002340F2644148460EF0E6FE08F08EFDF6
S31508005FB017E0FFE703F0A1FF60B100200FF05EF8DD
S31508005FC000236A465146484606F048FF0098206175
S31508005FD0677006E003A802F0CFFA012801D100F0A5
S31508005FE00DF80198404502DB0298B04200DD2570A5
S31508005FF0BDE8FF87CE020020040300200120704779
S3150800600010B501F0DBFFBDE8104001F0A1BF0000AC
S31508006010F8B504460D464FF47A76009600236A468C
S3150800602040F264414FF4006006F018FF009890FBB8
S31508006030F6F200920AB1B44201DA2046F8BD002D04
S315080060402EDD05EB8500400090FBF2F0B04201DD45
S315080060502046F8BD1349322803DC896900FB114440
S315080060601EE064280BDC8A696FF018035A4304EBB8
S315080060704202C969C0F1320000FB012410E08A69B6
S315080060806FF018035A4304EB4202CB696FF0180409
S31508006090634302EB4302096AC0F1640000FB012472
S315080060A02046F8BDC803002038B5044600210091F3
S315080060B000236A4640F2E2714FF4006006F0CEFE15
S315080060C0B4F57A7F02DB0098002801DA204638BD4D
S315080060D0412820DA114A322804DBD168413800FB0E
S315080060E0014418E0282808DBD168A1EB01112144F6
S315080060F01269323800FB02140DE0D168A1EB0111D8
S315080061000B191169494201EB810103EB41015269FF
S31508006110283800FB0214204638BD0000C8030020BA
S3150800612008B50021002200921A4A01EB410352F8F1
S315080061302330834227D101EB410002EB80024FF462
S315080061400060916869B100236A4606F087FE20B1AF
S315080061500098552803D0002008BD002008BD01205E
S3150800616008BD516869B100236A4606F077FE20B17A
S315080061700098552803D0002008BD002008BD01203E
S3150800618008BD002008BD491C89B20E29CDD30020C0
S3150800619008BD00008C970108F0B40021134E06F8DC
S315080061A031100020114BC1EBC1051E3BFF242A18F4
S315080061B092B21E2A05D200EBC10737449A5C7A7060
S315080061C003E000EBC10232445470401C80B2072839
S315080061D0EDD3491C89B20529E1D3054900208881F8
S315080061E0F0BC0621034801F037BF0000A6060020D0
S315080061F0640300209198000810B500247A200BF05B
S3150800620047FD00B101247B200BF042FD08B144F0A4
S3150800621002047C200BF03CFD08B144F004047D2008
S315080062200BF036FD08B144F008047E200BF030FD73
S3150800623008B144F010047F200BF02AFD08B144F0A1
S3150800624020040BF0A7FC204610BD000008B500206E
S31508006250009001F06FFF012809D0032011F002FE1B
S3150800626011F046FEE8B1022010F0F6FF08BD002343
S315080062706A4640F261414FF4006006F0EFFD00986F
S31508006280012803D0022011F0EDFDE9E70748007860
S3150800629018B1032011F0E6FDE2E7022011F0E2FD55
S315080062A0DEE7032010F0D8FF08BD00003C040020FC
S315080062B070B501460E4D0524E88D421CB2FBF4F379
S315080062C004FB13222B8E9A4210D000EB400202EBFD
S315080062D0C000084A02EB40001622FDF723FFE88DAE
S315080062E0401CB0FBF4F104FB1100E88570BD00000A
S315080062F078040020B829002010B586B00E4CE18D30
S31508006300208E814215D000EB400101EBC0000B49FD
S31508006310162201EB40016846FDF704FF684600F0C7
S315080063201FF8208E401C0521B0FBF1F201FB12007C
S31508006330208606B010BD000078040020B829002089
S315080063400020064A102100EB400302EB430383F8C2
S315080063505810401CC0B20428F5D37047742A002090
S315080063603CB400211AA20CCACDE900234288A2F542
S315080063707062013A27D0042A28D1174A6B46057855
S315080063805C5C02EB85156C54491CC9B20829F6D326
S315080063900378012102EB830383F8021103780821AD
S315080063A002EB8303A3F800110378002102EB8302B2
S315080063B082F803110078094900EB400051F82000E3
S315080063C002B030BC00473CBC10F02EBD3CBC704748
S315080063D051100F05AAAA2193E42A002050B60108F5
S315080063E000F00F01000900EB800001EB4000C0B28D
S315080063F0704764280AD20A21B0FBF1F201FB1202A7
S31508006400B0FBF1F002EB0010C0B2704700207047F5
S3150800641030B503464FF6FF704AF201040DE013F853
S31508006420012B50400022C50702D04008604000E01A
S315080064304008521CD2B2082AF5D3491E89B2EED2B8
S3150800644030BD000000B5034606F0F8FC802807D0EA
S31508006450044901EB80014B6003498A68521C8A6033
S3150800646000BD0000CC1800206804002008B50020F4
S31508006470009000236A464FF47A714FF4006006F0E4
S31508006480EDFC0098C0B200F012F90098C0B200F016
S315080064906DF80098C0B200F009F800F0C7F800F0EF
S315080064A05CF90098C0B200F021F908BD2DE9FC5F3F
S315080064B083464FF00008C1464FF6FF7700260020B6
S315080064C00190009701244FF4806A1BE0234601AA35
S315080064D04721504606F0C2FC23466A4648215046E4
S315080064E006F0BCFC019880B200998DB2012C37D019
S315080064F0864201D20646A046AF4201D92F46A1469A
S31508006500641CE4B25C45E1D94FF4006400233246CA
S3150800651040F2E17120460EF02FFC434601AA4B21BA
S31508006520504606F09BFC002340F2E7712046019A8C
S315080065300EF022FC00233A4640F2E27120460EF0A5
S315080065401BFC4B466A464C21504606F087FC002346
S315080065504FF4FD612046009A0EF00EFCBDE8FC9F44
S3150800656006462F464FF00108C146C9E72DE9FC5FEC
S3150800657083464FF00008C1464FF6FF7700260020F5
S315080065800190009701244FF4806A1BE0234601AA74
S315080065904321504606F062FC23466A46442150468B
S315080065A006F05CFC019880B200998DB2012C37D0B8
S315080065B0864201D20646A046AF4201D92F46A146D9
S315080065C0641CE4B25C45E1D94FF40064002332460A
S315080065D040F2DF7120460EF0CFFB434601AA49215F
S315080065E0504606F03BFC002340F2E5712046019A2E
S315080065F00EF0C2FB00233A464FF4FC6120460EF02B
S31508006600BBFB4B466A464A21504606F027FC002348
S3150800661040F2E6712046009A0EF0AEFBBDE8FC9FFC
S3150800662006462F464FF00108C146C9E71FB50020A8
S3150800663003900290019000904FF40064002303AA8F
S3150800664040F2DF71204606F009FC002302AA4FF447
S31508006650FC61204606F002FCDDE90221914201DDDB
S31508006660891A00E0511A8AB2002340F2E3712046E3
S315080066700EF082FB002301AA40F2E171204606F0E3
S31508006680EDFB00236A4640F2E271204606F0E6FB7F
S31508006690DDE90021914201DD891A00E0511A8AB22A
S315080066A0002340F2E47120460EF066FB1FBDF8B5E4
S315080066B0064600250020009000244FF480670AE073
S315080066C0641CE3B26A464021384606F0C7FB0099C7
S315080066D0681885B2E4B2B442F2D300232A4640F2DF
S315080066E0D1714FF400600EF047FBF8BD2DE9F84F65
S315080066F08146002000900026002701254FF4006BF4
S315080067004FF4806A1BE000236A4605F2F2315846C8
S3150800671006F0A4FB009800F0FF0800240BE02B46C7
S315080067206A4604F13001504606F098FB0098074483
S31508006730761C641CE4B24445F1D36D1CEDB24D459C
S31508006740E1D9002E07DD97FBF6F2002340F2DE7151
S3150800675058460EF011FBBDE8F88F1CB500200190D5
S3150800676000904FF40064002301AA40F2D17120463C
S3150800677006F074FB00236A4640F2D671204606F0FE
S315080067806DFB019964225143009A91FBF2F20023B2
S3150800679040F2DD7120460EF0EFFA1CBD2DE9FC41F2
S315080067A04FF4FA71CE48FDF7D6FC0020019003F0AD
S315080067B009FACB4C000A2634207003F003FA6070FD
S315080067C003F0A8F9000AA07003F0A4F9E07040F2FB
S315080067D0E9774FF40066002301AA3946304606F0E9
S315080067E03DFB01980A2590FBF5F20192100A2071EB
S315080067F06271002301AA40F2D171304606F02EFBE1
S31508006800019800EB800040000190010AA171E07137
S31508006810002301AA40F2D271304606F01FFB019808
S3150800682047F23058A8EB000000EB800042000192C6
S31508006830100A20726272263C002301AA40F2DE7119
S31508006840304606F00BFB0198282802DB2838019011
S3150800685004E0C0F12800C043401C01900198010AD9
S3150800686084F8301084F83100002301AA40F22B4145
S31508006870304606F0F3FA019A424504DBA2F5EA42ED
S31508006880303A019202E0A8EB02000190019800EB71
S31508006890800041000191080AE23404F8B00C04F8BB
S315080068A0AF1C40F2F638002301AA4146304606F0EE
S315080068B0D5FA00236A463946304606F0CFFA0198DB
S315080068C0009990FBF5F048434FF47A7190FBF1F18B
S315080068D00191080A04F8AE0C04F8AD1C002301AABD
S315080068E04146304606F0BAFA019890FBF5F1019157
S315080068F0080A04F8AC0C04F8AB1C04F8AA0C04F853
S31508006900A91C002301AA40F2DD71304606F0A6FA5A
S315080069100198642190FBF1F10191080A04F8A80C8A
S3150800692004F8A71C002301AA40F2FE31304606F0FF
S3150800693095FA0198010A04F8A61C04F8A50C04F8AF
S31508006940A41C04F8A30C002301AA40F2FD3130462A
S3150800695006F084FA019890FBF5F10191080A04F80B
S31508006960A20C04F8A11C002301AA40F235413046C6
S3150800697006F074FA019800EB800040000190010AC5
S3150800698004F8A01C04F89F0C03F054F9000A04F854
S315080069909E0C03F04FF904F89D0C01239D0201AAF1
S315080069A00021284606F05AFA0199080A20706170F3
S315080069B0012301AA1946284606F050FA0199080A41
S315080069C0A070E170012301AA0221284606F046FAC2
S315080069D00199080A20716171012301AA0321284639
S315080069E006F03CFA0199080AA071E171012301AA8F
S315080069F00421284606F032FA0199080A20726172C3
S31508006A00012301AA0521284606F028FA0199080A51
S31508006A10A072E172012301AA0621284606F01EFA91
S31508006A200198010A21736073012301AA07212846E8
S31508006A3006F014FA0198010AA173E073012301AA6A
S31508006A400821284606F00AFA0198010A217460749A
S31508006A50012301AA0921284606F000FA0198010A2D
S31508006A60A174E074012301AA0A21284606F0F6F962
S31508006A700198010A21756075012301AA0B21284690
S31508006A8006F0ECF90198010AA175E075012301AA3F
S31508006A900C21284606F0E2F90198010A217660766B
S31508006AA0012301AA0D21284606F0D8F90198010A02
S31508006AB0A176E076012301AA0E21284606F0CEF932
S31508006AC00198010A21776077012301AA0F21284638
S31508006AD006F0C4F90198010AA177E077BDE8FC81C0
S31508006AE0EE4000202DE9F04F85B000240094019473
S31508006AF04FF4FA71FE48FDF72EFB4FF400680023A9
S31508006B0004AA40F2D671404606F0A8F94FF02009CB
S31508006B1000274FF4806BF64D0EE0012303AA394691
S31508006B20584606F09BF90398010A05F8171005EB75
S31508006B30470148707F1CFFB24F45EED340F2D77924
S31508006B40002304AA4946404606F088F94FF0080A89
S31508006B5000270FE0012303AA07F13001584606F083
S31508006B607DF9039805EB4701020A01F8402F4870A2
S31508006B707F1CFFB25745EDD3002303AA40F2D1711B
S31508006B80404606F06BF90398010A05F8501F68702D
S31508006B90002303AA40F2D271404606F05FF9039833
S31508006BA04EF66021081A0390010AA970E87040F2AF
S31508006BB0E977002303AA3946404606F04FF90398B9
S31508006BC0010A29716871002303AA40F2DF71404661
S31508006BD006F044F90398010AA971E871002303AA8B
S31508006BE04FF4FC61404606F039F90398010A297208
S31508006BF06872002303AA40F2E171404606F02EF9B6
S31508006C000398010AA972E872002303AAF91F4046ED
S31508006C1006F024F90398010A29736873002303AA66
S31508006C2040F2D371404606F019F90398010AA97390
S31508006C30E873002303AA40F2F631404606F00EF93F
S31508006C40002302AA3946404606F008F903984FF091
S31508006C50640A90FBFAF0029948434FF47A7190FB64
S31508006C60F1F00390010A29746874002303AA40F21C
S31508006C70D671404606F0F2F80398010AA974E8743A
S31508006C80002303AA4946404606F0E8F80398010A95
S31508006C9029756875002303AA40F2FE31404606F0BE
S31508006CA0DDF80398010AA975E875503D0394DFF8E5
S31508006CB044924FF0010699F8000099F8011099F8E6
S31508006CC00320084399F802101143084399F8041061
S31508006CD0084399F80510084300D003960398010A5B
S31508006CE005F8681F6870002303AA40F2D971404668
S31508006CF006F0B4F80398010AA970E870002303AAFD
S31508006D004FF4FB61404606F0A9F80398010A297179
S31508006D106871012303AA4121584606F09FF8039893
S31508006D20010AA971E871002303AA40F2E3714046FB
S31508006D3006F094F80398010A29726872683D0023E0
S31508006D4003AA40F2D171404606F088F8002304AA47
S31508006D5040F2D271404606F081F8049847F230575F
S31508006D60B84202DBC01B049001E0381A0490DDE942
S31508006D700301484390FBFAF0010A05F8721F687090
S31508006D805D484178A9700178E970C17829718178E0
S31508006D9069714179A9710179E971C1792972807995
S31508006DA06872723D039499F8000000B10396039443
S31508006DB005F87E4F6C70002303AA40F2F77140462F
S31508006DC006F04CF803977520A8703020E8707E3DD1
S31508006DD0002304AA4FF47C71404606F03FF8049855
S31508006DE0C2B20394002099F8001008E006FA00F3EE
S31508006DF0194202D0401C039003E0401CC0B29042E6
S31508006E00F4D3039405F8824F6C70002303AA40F26A
S31508006E10F471404606F022F80398010AA970E87052
S31508006E20823D002304AA40F2D671404606F016F8C1
S31508006E304FF0100900270FE0012303AA07F12001EC
S31508006E40584606F00BF8039805EB4701020A01F8C5
S31508006E508E2F48707F1CFFB24F45EDD32748C07F61
S31508006E60A52805D1224818222449AE30FDF75AF93B
S31508006E701F48FF223821C630FDF766F9002303AA0A
S31508006E8040F2F631404605F0E9FF039890FBFAF028
S31508006E90039005F58075010A29706870002303AA16
S31508006EA040F2F931404605F0D9FF0398010AA97066
S31508006EB0E870002303AA40F2EF31404605F0CEFF02
S31508006EC00398010A29716871002303AA4FF47C719B
S31508006ED0404605F0C3FF0398010AA971E87100232B
S31508006EE003AA40F2F131404605F0B8FF039807E0DF
S31508006EF02A300020DC020020A00300200A0500201A
S31508006F00010A29726872002303AA40F2F231404648
S31508006F1005F0A4FF0398010AA972E872002303AAE0
S31508006F2040F2F331404605F099FF0398010A2973A8
S31508006F306873002303AA4FF47D71404605F08EFF5F
S31508006F400398010AA973E873002303AA40F2F531EE
S31508006F50404605F083FF0398010A297468740023E4
S31508006F6003AA4FF47E71404605F078FF0398010A9C
S31508006F70A974E874002303AA40F20341404605F0C9
S31508006F806DFF0398010A29756875002303AA40F264
S31508006F902D41404605F062FF0398010AA975E87578
S31508006FA0002303AA40F23B41404605F057FF0398E9
S31508006FB0010A29766876002303AA40F22E41404644
S31508006FC005F04CFF0398010AA976E876002303AA80
S31508006FD040F23C41404605F041FF0398010A2977F3
S31508006FE06877002303AA40F22741404605F036FF9A
S31508006FF00398010AA977E877002303AA40F23541E6
S31508007000404605F02BFF0398010A85F8201085F8FD
S315080070102100002303AA4FF48561404605F01EFFB0
S315080070200398010A85F8221085F82300002303AA8D
S3150800703040F23641404605F011FF0398010A85F8EB
S31508007040241085F82500002303AA40F22B41404668
S3150800705005F004FF0398010A85F8261085F827002D
S31508007060002303AA40F23941404605F0F7FE03988B
S31508007070010A85F8281085F82900002303AA40F29A
S315080070802C41404605F0EAFE0398010A85F82A10C5
S3150800709085F82B00002303AA40F23A41404605F042
S315080070A0DDFE0398010A85F82C1085F82D000023CB
S315080070B003AA40F23241404605F0D0FE0398010A81
S315080070C085F82E1085F82F00002303AA4FF488614F
S315080070D0404605F0C3FE0398010A85F8301085F886
S315080070E03100002303AA40F23341404605F0B6FEBC
S315080070F00398010A85F8321085F83300002303AA9D
S3150800710040F24141404605F0A9FE0398010A85F878
S31508007110341085F83500002303AA4FF486614046EB
S3150800712005F09CFE0398010A85F8361085F83700A5
S31508007130002303AA40F23E41404605F08FFE03981D
S31508007140010A85F8381085F83900002303AA40F2A9
S315080071503141404605F082FE0398010A85F83A1047
S3150800716085F83B00002303AA40F23F41404605F05C
S3150800717075FE0398010A85F83C1085F83D00002342
S3150800718003AA40F22F41404605F068FE0398010A1B
S3150800719085F83E1085F83F00002303AA40F23D41DA
S315080071A0404605F05BFE0398010A85F8401085F80D
S315080071B04100002303AA40F23441404605F04EFE42
S315080071C00398010A85F8421085F84300002303AAAC
S315080071D040F24241404605F041FE0398010A85F80F
S315080071E0441085F84500002303AA5946404605F091
S315080071F035FE0398010A85F8461085F847000023EE
S3150800720003AA40F20141404605F028FE0398010A08
S3150800721085F8481085F84900A5F58075002303AA66
S3150800722040F2F571404605F019FE039855287DD0C1
S3150800723003960398010A85F84A1185F84B0100233D
S3150800724003AA40F2F671404605F008FE0398552851
S315080072506DD00396039905F5A675080A2870697016
S31508007260002303AA40F2E971404605F0F7FD0399A9
S31508007270080AA870E970002303AA40F24A4140466A
S3150800728005F0ECFD0398010A29716871A5F5A67544
S3150800729000215948C1F10D026B18825C83F852210E
S315080072A0491CC9B20E29F5D300215448C1F10D0273
S315080072B06B18825C83F86221491CC9B20E29F5D382
S315080072C00026002303AA06F58361404605F0C6FD9D
S315080072D0039905EB860202F5B972080E1070080CC0
S315080072E05070080A9070D170761CF6B2082EE8D352
S315080072F0002303AA40F25541404605F0AFFD039925
S3150800730005F5C975080A28706970002303AA40F2B2
S315080073105641404605F0A2FD0398010AA970E87097
S31508007320002303AA40F25741404601E060E061E0CD
S3150800733005F094FD0398010A29716871002303AAD0
S315080073404FF48461404605F089FD0399080EA8713B
S31508007350080CE871080A28726972002304AA40F228
S31508007360D671404605F07AFD04990391080EA87275
S31508007370080CE872FF262E736E73AC73EC73002349
S3150800738003AA40F25F41404605F068FD0398010AEA
S3150800739029746874002303AA4FF48C61404605F0EB
S315080073A05DFD0398010AA974E874684606F0E8FECC
S315080073B0BDF80000A0F5FA60A8759DF80200E8750A
S315080073C09DF8030028769DF8040068769DF8050068
S315080073D0A8769DF80600E8762C776C77AE77EE7778
S315080073E0FF222E210648FCF7AFFE05B0BDE8F08F58
S315080073F003941EE703942DE7B6030020A803002094
S31508007400DC3100202DE9FE4F11F010FE4FF4FA7121
S31508007410C448FCF7A0FE4FF40065002301AA40F219
S31508007420D271284605F01AFD019847F23056301AEF
S3150800743000EB800040000190BA4C010A2170607090
S31508007440002301AA40F2D171284605F007FD0198EC
S3150800745000EB800040000190010AA170E07040F244
S31508007460E978002301AA4146284605F0F7FC019869
S31508007470FCF7EEFEDFF8B092DFF8B0A24A465346B4
S31508007480FCF774FEFCF7F5FE0190010A21716071A4
S31508007490002301AA40F2FD31284605F0DFFC0198D9
S315080074A0FCF7D6FE4A465346FCF760FEFCF7E1FEBB
S315080074B00190010AA171E07140F2F637002301AA92
S315080074C03946284605F0CAFC00236A46414628463E
S315080074D005F0C4FCDDE90010484342F2107190FB48
S315080074E0F1F00190010A21726072002301AA39465F
S315080074F0284605F0B3FC0198FCF7AAFE4A4653460F
S31508007500FCF734FEFCF7B5FE0190010AA172E072A1
S31508007510002301AA3946284605F0A0FC0198FCF785
S3150800752097FE4A465346FCF721FEFCF7A2FE019059
S31508007530010A21736073002301AA40F2FE3128462E
S3150800754005F08CFC0198010AA173E0734FF000085E
S3150800755084F8108084F8118005F0ECFE010AA17405
S31508007560E07405F0BFFB010A2175607505F0C8FDDA
S31508007570010AA175E07584F8188084F8198000233B
S3150800758002AA40F2D671284605F068FC4FF0100AA8
S3150800759000274FF480690DE0012301AA39464846C1
S315080075A005F05CFC019804EB4701020A8A77C87764
S315080075B07F1CFFB25745EFD3002302AA40F2D771CA
S315080075C0284605F04BFC4FF0040A002714E0012377
S315080075D001AA07F13001484605F040FC0198283811
S315080075E000EB80004000019004EB4701020A01F815
S315080075F03E2F48707F1CFFB25745E8D340F2DE772E
S31508007600002301AA3946284605F028FC019828389F
S3150800761000EB800042000192100A04F8460F6270DF
S31508007620002301AA3946284605F018FC019828388F
S3150800763000EB800041000191080AA070E170002368
S3150800764001AA40F23541284605F008FC0198010ACE
S3150800765021716071002301AA40F23941284605F0DC
S31508007660FDFB0198301A0190010AA171E07100230F
S3150800767001AA40F23A41284605F0F0FB0199A1F526
S31508007680EA4130390191080A2072617240F2664671
S31508007690002301AA3146284605F0E0FB0198010AB5
S315080076A084F8321084F83300002301AA31462846AC
S315080076B005F0D4FB0198010A84F8341084F83500E3
S315080076C0002301AA3146284605F0C8FB0198000A9E
S315080076D084F8360084F83700002301AA3146284684
S315080076E005F0BCFB0198000A84F8380084F83900D4
S315080076F0002301AA3146284605F0B0FB0198000A86
S3150800770084F83A0084F83B0084F83C8084F83D808D
S3150800771084F83E8084F83F8084F8408084F841806D
S31508007720BDE8FE8FEE4000209A9999999999B93F3C
S315080077302DE9FF5F0025039502950195009540F216
S31508007740D17B4FF40068002303AA5946404605F04A
S3150800775085FB03980A2690FBF6F00390A34C010AD2
S315080077602170607040F2D27A002303AA514640463F
S3150800777005F074FB039847F23057381A90FBF6F079
S315080077800390010A2171607140F2E979002303AA86
S315080077904946404605F062FB039890FBF6F00390D5
S315080077A0010A21726072002301AA5946404605F073
S315080077B055FB00236A465146404605F04FFB0198A3
S315080077C090FBF6F001900099791A91FBF6F1009179
S315080077D04843010A2173607303952577657784F812
S315080077E0205084F8215084F8245084F8255084F8D1
S315080077F0285084F82950002303AA40F2DE71404637
S3150800780005F02CFB0398282802DB2838039004E0AF
S31508007810C0F12800C043401C03900398010ACA34EB
S3150800782004F8561C04F8550C039504F8525C04F841
S31508007830515C04F84E5C04F84D5C04F84A5C04F8A4
S31508007840495C04F8465C04F8455C002303AA4946EB
S31508007850404605F003FB039890FBF6F00390010AF7
S3150800786004F80E1C04F80D0C002303AA4FF47E71CD
S31508007870404605F0F3FA0398010AA172E072012066
S315080078800390A573E073002303AA40F2F63140463D
S3150800789005F0E4FA002302AA4946404605F0DEFA56
S315080078A0DDE902104843524990FBF1F0010AA17440
S315080078B0E0740395A575E575002303AA40F2FD312A
S315080078C0404605F0CBFA039890FBF6F00390010AC0
S315080078D0A176E076002303AA4946404605F0BEFA9B
S315080078E0039890FBF6F00390010AA177E07700234E
S315080078F003AA40F23541404605F0B0FA039890FBDA
S31508007900F6F00390010A84F82A1084F82B00002365
S3150800791003AA40F23641404605F0A0FA039890FBC8
S31508007920F6F00390010A84F82E1084F82F0000233D
S3150800793003AA40F23941404605F090FA0398381AEE
S3150800794090FBF6F00390010A84F8321084F83300AD
S31508007950002303AA40F23A41404605F07FFA03980D
S31508007960A0F5EA40303890FBF6F00390010A84F857
S31508007970361084F83700002303AA40F22B4140460C
S3150800798005F06CFA0398381A90FBF6F00390010A92
S3150800799084F83A1084F83B00002303AA40F22C41ED
S315080079A0404605F05BFA0398A0F5EA40303890FBAC
S315080079B0F6F00390010A84F83E1084F83F00CA3CAA
S315080079C0002303AA4FF48C61404605F047FA039852
S315080079D0012808D003950398010A84F80C1184F845
S315080079E00D01BDE8FF9F02200390F4E7EE4000205A
S315080079F040420F002DE9F04F87B0002606960596FF
S31508007A00049603960296019611F010FB4FF4FA714C
S31508007A10FA48FCF7A0FB0098DFF8E093010A89F81A
S31508007A20021089F8030089F8041089F80500020E87
S31508007A3089F80620030C89F8073089F8081089F8B0
S31508007A40090089F80A2089F80B3089F80C1089F89A
S31508007A500D0040F2D6774FF4006A00236A4639468D
S31508007A60504605F0FBF90098010A89F8201089F8B4
S31508007A702100142500244FF4806B0EE001236A468A
S31508007A802146584605F0EAF9009809EB4401020A2E
S31508007A9001F8222F4870641CE4B2AC42EED30023EE
S31508007AA06A4640F2D771504605F0D8F90098010A9F
S31508007AB089F84A1089F84B000A25002416E00123A4
S31508007AC06A4604F13001584605F0C8F90098283886
S31508007AD000EB8000400000F6AB20009009EB440163
S31508007AE0020A01F84C2F4870641CE4B2AC42E6D393
S31508007AF040F2D27500236A462946504605F0AEF98B
S31508007B00009847F23054A04201DB009601E0201AA3
S31508007B1000900098010A89F8601089F8610000232E
S31508007B206A462946504605F099F9009847F23051B9
S31508007B30884202DB401A009000E000960098010A8D
S31508007B4089F8621089F8630000236A4640F2D17109
S31508007B50504605F083F90098010A89F8641089F8F7
S31508007B60650000236A4640F2E971504605F076F949
S31508007B7000980A2190FBF1F00090010A89F8661036
S31508007B8089F8670000236A4640F2F631504605F048
S31508007B9065F90098010E89F86810010C89F86910D2
S31508007BA0010A89F86A1089F86B0000236A46394683
S31508007BB0504605F053F90098010A89F8801089F8AB
S31508007BC081004FF00A080024022701253CE0012322
S31508007BD06A462146980205F041F9002306AA40F2B2
S31508007BE03B41504605F03AF9002305AA40F23C41CC
S31508007BF0504605F033F906990098884201DB00974C
S31508007C0005E00599884201DC009500E0009609EB3D
S31508007C10440B00988BF88200012305EB44016A4661
S31508007C20980205F01BF906990098884201DB00972F
S31508007C3005E00599884201DC009500E00096009869
S31508007C408BF88300641CE4B24445C0D300236A461B
S31508007C5040F2D771504605F001F90099091D0091C7
S31508007C60080A89F8A00089F8A11000244FF4806852
S31508007C7001236A4604F13001404605F0EFF8002377
S31508007C8004AA40F23E41504605F0E8F8002303AA4C
S31508007C904FF48861504605F0E1F8002302AA40F245
S31508007CA03F41504605F0DAF8002301AA40F2414167
S31508007CB0504605F0D3F804990098884202DA0399E9
S31508007CC0884201DB009708E00299884202DB0199A5
S31508007CD0884201DA009500E0009609EB440B00980B
S31508007CE08BF8A200312000EB440101236A46404686
S31508007CF005F0B4F804990098884202DA0399884294
S31508007D0001DB009708E00299884202DB0199884264
S31508007D1001DA009500E0009600988BF8A300641C31
S31508007D20E4B2052CA4D30096354BF0201978C1F39C
S31508007D300112022A0FD011F0300F00D00090009ADD
S31508007D40140A89F8C04089F8C1200096B7EB911F3C
S31508007D5003D1009504E00097F1E78A0900D0009066
S31508007D60009A140A89F8C24089F8C320009601F0DF
S31508007D700302022A46D08A0700D00090009A140A05
S31508007D8089F8C44089F8C5200096C1F38102022A01
S31508007D903AD011F00C0F00D0009000990A0A89F821
S31508007DA0C62089F8C7100096997801F00302022ABE
S31508007DB02CD08A0700D00090009A140A89F8C84087
S31508007DC089F8C9200096C1F38102022A20D011F051
S31508007DD00C0F00D0009000990A0A89F8CA2089F881
S31508007DE0CB100096597801F00303022B12D0C1F389
S31508007DF08102022A10D08A0710D012E0EE40002035
S31508007E00A00300200097B9E70095C6E70097D3E7D7
S31508007E100097E0E7009705E0009503E011F00C0FE6
S31508007E2000D00090009A140A89F8CC4089F8CD2031
S31508007E300096C1F30114022C04D0B7EB911F03D1AD
S31508007E40009507E0009705E011F0300F01D18A0987
S31508007E5000D00090009A4FEA122C89F8CEC089F813
S31508007E60CF200096022B06D0C1F38102022A04D045
S31508007E708A0704D006E0009705E0009503E011F0B4
S31508007E800C0F00D00090009A130A89F8D03089F8B0
S31508007E90D1200096022C04D0B7EB911F03D1009590
S31508007EA007E0009705E011F0300F01D1890900D0ED
S31508007EB000900098010A89F8D21089F8D3000023A7
S31508007EC06A4640F23541504604F0C8FF0099080A50
S31508007ED089F8E00089F8E11000236A4640F2364145
S31508007EE0504604F0BBFF0099080A89F8E20089F8B1
S31508007EF0E31000236A4640F22B41504604F0AEFFD9
S31508007F00009947F23050411A0091080A89F8E400AE
S31508007F1089F8E51000236A4640F22C41504604F0E1
S31508007F209DFF0098A0F5EA4030380090010A89F8CC
S31508007F30E61089F8E7000EF0C1FB000A89F8E800A8
S31508007F400EF0BCFB89F8E90007B0BDE8F08F704772
S31508007F502DE9F04705F0E2FC04460327164D40F2EA
S31508007F60ED784FF4006900268CB16E7114B3A879C8
S31508007F70401CC0B2A871032807D9AF7100231A465E
S31508007F80414648460CF0F8FEEE71BDE8F087687980
S31508007F90401CC0B268710328E8D96F71E8790028D7
S31508007FA0E4D100230122414648460CF0E5FE0120B3
S31508007FB0E871DBE7AE71E8E7040300202DE9F04736
S31508007FC005F09CFC04460327164D40F2EC784FF466
S31508007FD0006900268CB1AE7014B3E878401CC0B2B4
S31508007FE0E870032807D9EF7000231A464146484629
S31508007FF00CF0C2FE2E71BDE8F087A878401CC0B20E
S31508008000A8700328E8D9AF7028790028E4D100239E
S315080080100122414648460CF0AFFE01202871DBE7F5
S31508008020EE70E8E70403002070B50546044C607856
S315080080300AF044FB2946034800F00EF8607070BD4C
S31508008040C004002049800008024800210170FF2171
S3150800805041707047C004002030B504460D460848F4
S3150800806005F019FA302809D2054B03EB8002C2F84D
S31508008070B0410021C2F8701243F8205030BD00000C
S31508008080A8110020642101480BF0FCBD91260108C7
S3150800809010B5C82104480BF0F5FDBDE81040642171
S315080080A002480BF0EFBD0000AD360108614D00082F
S315080080B010B564210B480CF0C5FF4FF47A742146BD
S315080080C009480BF0DFFD214608480BF0DBFD64216B
S315080080D007480BF0D7FD6100BDE8104005480BF0D6
S315080080E0D1BD0000355A00085D5C0108C55001087D
S315080080F0E55B00083185000810B5012240210548D6
S3150800810001F0AFFC044900200870044908700449CE
S31508008110087010BD00100140790400207804002082
S315080081203B0500204FF4FA514843401E411CFCD140
S3150800813070470000F8B5002400944FF40067002348
S315080081406A4640F2EC71384604F088FE234E0099E0
S3150800815001B9B47000236A4640F2D271384604F079
S315080081607DFE009947F23052914201DD0120F8BDAB
S31508008170B17809B10020F8BD00236A4640F2F571CE
S31508008180384604F06BFE0098552807D03079012848
S3150800819004D00AF0C7FF18B10020F8BD0020F8BDCA
S315080081A000240F4D00236A4655F82410384604F07B
S315080081B055FE0098552805D0641CE4B2052CF1D369
S315080081C00120F8BD55F82400A0F53061C83903D15F
S315080081D0307808B90120B0700020F8BD3C040020B2
S315080081E054AA0108F8B5002400944FF40067002348
S315080081F06A4640F2ED71384604F030FE1F4E00998B
S3150800820001B9747000236A4640F2D271384604F008
S3150800821025FE009847F23051884201DA0120F8BD60
S31508008220707808B10020F8BD04F0A7FF38B9307996
S31508008230012804D00AF076FF18B10020F8BD002006
S31508008240F8BD00240E4D00236A4655F8241038461A
S3150800825004F004FE0098552805D0641CE4B2052CE9
S31508008260F1D30120F8BD55F82400A0F53061C939CD
S3150800827001D1012070700020F8BD00003C040020E8
S3150800828040AA0108F8B5002000904FF489674FF41A
S31508008290006600236A463946304604F0DFFD00983A
S315080082A0012803D106F014FA012822D000981D4DA2
S315080082B00124A52825D055282CD000236A4640F24B
S315080082C00341304604F0CAFD0099A1F57F42FF3A02
S315080082D001D115490C7000236A4640F263413046C5
S315080082E004F0BCFD0098012802D105F061FAEC7093
S315080082F0F8BD00231A46394630460CF03DFD06F017
S3150800830099FA00231A46394630460CF035FD6C704A
S3150800831006F090FA00231A46394630460CF02CFD32
S3150800832006F088FA480000201500002070B5FFF70F
S3150800833059FF174C607101281FD0A07980B1012020
S3150800834005F0C6FF41F28835284605F028FA0120CF
S315080083500FF088FD284605F022FA002005F0B8FF40
S315080083600020A07101200FF07DFD0FF0E3FD50B154
S31508008370BDE8704000200EF06FBF00200FF072FDC0
S315080083800120A071F1E7BDE8704001200EF064BF3E
S315080083903C04002008B52020ADF8000003208DF825
S315080083A0020004208DF803006946024801F0D0FA5D
S315080083B008BD00000008014008B52020ADF80000FF
S315080083C003208DF8020014208DF803006946024840
S315080083D001F0BEFA08BD00000008014010B50120F2
S315080083E000F056F8BDE8104006F082B870B54FF4B4
S315080083F00045284600F052F8D0B1154CE07890B107
S315080084006079082811D21348007801280DD105F0A3
S3150800841085FA50B9012005F05BFF012005F082FFBF
S315080084200520207101E006F063F8284600F030F8D0
S315080084304FF40054204600F031F8002806D02046B4
S3150800844000F026F8BDE8704006F052B870BD00008E
S31508008450480000204104002010B5082000F018F854
S31508008460BDE8104006F044B810B5102000F010F82A
S31508008470BDE8104006F03CB810B5202000F008F81A
S315080084804FF4807000F004F8BDE8104006F030B8EC
S3150800849001490860704700001404014001460020A5
S315080084A0054A12680A40044B14331B680B4202D073
S315080084B0002A00D0012070470004014030B51B4A4D
S315080084C083790168002B2AD013688B431360111D2A
S315080084D00B680468A3430B60017911440B680468B0
S315080084E023430B60114C08342168036899432160C3
S315080084F0231D19680568A94319604179102905D013
S3150800850011440A68006802430A6030BD216802689F
S3150800851011432160196800680143196030BD00796C
S31508008520104402688A43026030BD0000000401401E
S3150800853010B51048816A406A0C1A002C00DA6442A9
S3150800854001F0F6FC47F23051884211DA081A94FB1A
S31508008550F0F0C0EB00108000642190FBF1F2BDE85A
S315080085601040002340F2EA714FF400600CF004BC9E
S3150800857010BD0000C80300202DE9FC4704464FF053
S315080085800009CDF80490CDF80090002540F6A970B2
S31508008590FDF7C6FD354E012730B1A07820F003005F
S315080085A0401CA0703772102540F6AA70FDF7B8FD7A
S315080085B030B1A07820F00300401CA0703772112556
S315080085C040F6AC70FDF7ACFD30B1A07820F00300A2
S315080085D0401CA0703772122540F6AD70FDF7A0FD5D
S315080085E030B1A07820F00300401CA0703772132524
S315080085F04FF40068002301AA40F2D171404604F006
S315080086002DFC00236A464FF4FC61404604F026FC24
S31508008610009840F2DC51884202DB019832280FDAD2
S31508008620707A401CC0B270720A280BD90A20707280
S31508008630E07820F00C00001DE0703772172501E085
S3150800864086F8099040F6A470FDF76AFD08B13772FE
S315080086503425307A012806D100232A4640F2EB71E8
S3150800866040460CF089FB307ABDE8FC8704030020FD
S3150800867010B50C4CA08A618A884211D000EB8001A3
S3150800868001EB40100849942201EB80010748FBF7EB
S3150800869049FD064800F088F8A18A01208843A0828F
S315080086A010BD000078040020AC1F002072280020AE
S315080086B010B5A6B0942101A8FBF74DFD144C208AED
S315080086C0E189884221D0217800291ED161780029C4
S315080086D01BD1104A51710121217000EB800101EB79
S315080086E040110D48942200EB810101A8FBF71AFD01
S315080086F001A800F0FBF9012807D1208A401C0321B4
S31508008700B0FBF1F201FB1200208226B010BD00007A
S315080087107804002038080020F01D00200FB470B53A
S3150800872000219DF81A40204601F022FC9DF81B50B6
S315080087300202284601F01CFC9DF81C6002EB0012A0
S31508008740304601F015FC1044C2B29DF811309DF870
S31508008750120018449DF8133018449DF81430184434
S315080087609DF8153018449DF8163018449DF81730B2
S3150800877018449DF8183018449DF8193018442044B8
S315080087802844304480B204AB05E05C18647B20447E
S3150800879080B2491CC9B29142F7D3C043401C80B28B
S315080087A070BC5DF814FB00002DE9F043C7B0044621
S315080087B00020469010F03AFC14F88F0F01F0D8FB11
S315080087C0607801F0D5FBA07801F0D2FBE0788F3C09
S315080087D001F0CEFB842204F110016846FBF7A2FCE7
S315080087E09422214621A8FBF79DFC21A80FC8FFF774
S315080087F095FFA07A01F0BCFBE07A01F0B9FB207B7B
S3150800880001F0B6FB207A01F0B3FB0146E07901F0EE
S31508008810AFFB01EB0010C5B2B14E7E2030704FF0B1
S31508008820320886F801803027B7704FF400690023B4
S3150800883046AA40F24941484604F010FB4698C2B29F
S31508008840207901F095FBE07801F092FB1046FCF7E1
S3150800885019FCF0701046FCF70DFC307160797071E8
S31508008860A079B0719F4A382036239F49612D7CD064
S315080088703ADC472D7AD021DC092D7AD0422D77D0E3
S31508008880442D18D1A07B01F073FB0346607B01F0F1
S315080088906FFB03EB0010C0B248731178814201D018
S315080088A0FF2808D18E49204606F092FC8C4A4421BE
S315080088B00420FBF7EDFF47B0BDE8F0834F2D75D0D8
S315080088C0512D74D0602DF6D1F77137727372B77265
S315080088D0F07286F80C80824807F0C9F9804A602150
S315080088E00420FBF7D5FFE6E7932D6ED013DC622D47
S315080088F06CD03121632D6AD0922DDCD17772B1729A
S3150800890086F80B80764808F0B3FA754A9221042057
S31508008910FBF7BEFFCFE7942D74D0952DCBD1A07B66
S3150800892001F026FB0246607B01F022FB02EB0010F9
S315080089304873207901F01CFB0246E07801F018FB29
S31508008940497B02EB00108842B5D17772B772F7728D
S315080089500023552240F2F67148460CF00DFA604A9B
S3150800896095210420FBF794FFA5E74CE020E000E002
S3150800897008E05B4806F03CFB594A09210420FBF74E
S3150800898087FF98E7A07B01F0F3FA0246607B01F0C7
S31508008990EFFA02EB001048735149204606F018FC1E
S315080089A04F4A42210420FBF773FF84E710E01CE0DE
S315080089B077723320B072F772494807F087F8484A49
S315080089C04F210420FBF764FF75E74BE02BE039E005
S315080089D07772B77286F80B8086F80C807073404AF7
S315080089E04F210420FBF754FF65E777723420B072F5
S315080089F0F7723B4807F0D6F8394A51210420FBF7AD
S31508008A0047FF58E749E0F77137727072B772F37229
S31508008A1086F80C80324807F0AAFC314A6121042006
S31508008A20FBF736FF47E7F77137727072B772F7725E
S31508008A3030732B4808F006F8294A62210420FBF710
S31508008A4027FF38E7F77137727072B772F17286F8D6
S31508008A500C80234808F060F9214A63210420FBF7BB
S31508008A6017FF28E7A07B01F083FA0346607B01F035
S31508008A707FFA03EB0010C0B248731178814294D193
S31508008A80777286F80A80F772154808F06DFA144A64
S31508008A9093210420FBF7FCFE0DE7A07B01F068FAA2
S31508008AA00246607B01F064FA02EB001048732079F5
S31508008AB001F05EFA0246E07801F05AFA497B02EBC9
S31508008AC00010884290D17772B772F772044920462F
S31508008AD008F070FA024A94210420FBF7D9FEEAE668
S31508008AE05A4900201C0000203A05002010B504460B
S31508008AF0002240210D4800F0B4FF0A2004F04FFE82
S31508008B00942221460A48FBF70DFB0A490120C87042
S31508008B100748094C017820460DF0F2FC012240F284
S31508008B20277120460DF06FFC012010BD0010014092
S31508008B30324800203A050020003801402DE9F05F50
S31508008B405D4C5E4E214694F804B04B8C897A0344FA
S31508008B50C1F102029519C1F104074A1E07EB060C7A
S31508008B6000274FF007094FF004084FF0020AD2B267
S31508008B709BB2BBF1090F6ED2DFE80BF005131F3568
S31508008B80414E7585920067847E2802D02771BDE81C
S31508008B90F09F30700120207184F80AA048480771B8
S31508008BA0F5E70029F3D06870A2726384002AEED133
S31508008BB084F804A084F80AA0E9E70029E7D0E87059
S31508008BC0A2726384002AE2D1307901F0D1F9014614
S31508008BD0F07801F0CDF901EB001020840320207114
S31508008BE084F80AA0D3E70029D1D06871A2726384F9
S31508008BF0002ACCD184F8048084F80AA0C7E749B1D2
S31508008C00E871A2726384002AC1D10520207184F814
S31508008C100A80BCE72771BAE719B38CF80900A27273
S31508008C206384002AB3D1B07A01F0A2F90102F07A7E
S31508008C3001F09EF901EB0011307B01F099F9084427
S31508008C4080B2E083822801D92771A0E720B10621E6
S31508008C502171A0729BE72DE084F8049084F80A80BD
S31508008C6095E7277193E761B1E58B691A3144487333
S31508008C70A2726384002A8AD184F8049084F80A8050
S31508008C8085E7277183E7002981D08CF88F00A272C7
S31508008C906384002A84D10820207184F80AA076E724
S31508008CA086F8930084F80AA02771BDE8F05F0348A8
S31508008CB0FBF73EBD27716AE73A050020C648002043
S31508008CC0380800202DE9F047574C594D214694F8AD
S31508008CD003C0097B072704265448C1F10202C1F1E3
S31508008CE004034FF002082A442B44BCF1090F15D29D
S31508008CF0DFE80CF014051626354466778800002947
S31508008D000CD051780DF0FCFB207B401EC0B22073BE
S31508008D10002803D184F8038084F80C80BDE8F08726
S31508008D200029FBD0D1780DF0EBFB207B401EC0B2AA
S31508008D3020730028F2D10320E07084F80C80EDE758
S31508008D400029EBD051790DF0DBFB207B401EC0B229
S31508008D5020730028E2D1E67084F80C80DEE700294B
S31508008D60DCD0D1790DF0CCFB207B401EC0B220733D
S31508008D700028D3D10520E0702673CFE70029CDD08F
S31508008D80597A0DF0BDFB207B401EC0B22073002827
S31508008D90C4D1A87A01F0ECF80102E87A01F0E8F803
S31508008DA001EB0011287B01F0E3F80844C0B2E07239
S31508008DB018B10621E1702073B0E7E7702673ADE7B6
S31508008DC00029ABD0E27A511A2944497B0DF098FB69
S31508008DD0207B401EC0B2207300289FD1E7702673FF
S31508008DE09CE700299AD093F88F100DF089FB207B19
S31508008DF0401EC0B22073002890D10820E07084F885
S31508008E000C808BE795F8931005460DF079FB052144
S31508008E100848FFF721F9002240F2277128460DF08D
S31508008E20F2FA0020E07079E73A05002000380140A0
S31508008E3032480020F980000804490A6822F0100226
S31508008E400A600A6802430A60704700000020024070
S31508008E50034A116801F038010143116070470000A8
S31508008E600020024010B5094C00222021204600F0BF
S31508008E70F8FD01224021204600F0F3FD204600229D
S31508008E80BDE81040402100F0ECBD0000000801409C
S31508008E902DE9F04105460C461646012080F3108858
S31508008EA000F082F8A02000F0F7F808F079FFC0B1CA
S31508008EB0200A00F0F1F808F073FFC8B1E0B200F03C
S31508008EC0EBF808F06DFFC8B100F06EF8A12000F0CD
S31508008ED0E3F808F065FFB8B10024771EDFF87C8058
S31508008EE032E000F07BF8002080F31088BDE8F081BE
S31508008EF000F074F8002080F31088F7E700F06EF8A9
S31508008F00002080F31088F1E700F068F8002080F36D
S31508008F101088EBE700F024F805F8010BBC420FD1E6
S31508008F2001222021404600F09CFD012240214046B6
S31508008F3000F097FD00224021404600F092FD01E036
S31508008F40FFF790FF641CA4B2B442E3D300F046F8DE
S31508008F50002080F310880120C8E7000000080140BF
S31508008F6070B50024FFF716FA00250E4E6006040EAB
S31508008F7001224021304600F074FD2021304600F0E1
S31508008F8069FD08B144F0010400224021304600F092
S31508008F9068FD6D1CEDB2082DE8D3FFF70DFA2046E3
S31508008FA070BD00000008014010B50B4C012240219D
S31508008FB0204600F056FD01222021204600F051FDF2
S31508008FC000222021204600F04CFD20460022BDE864
S31508008FD01040402100F045BD0008014010B5094C7D
S31508008FE000222021204600F03CFD01224021204697
S31508008FF000F037FD20460122BDE81040202100F090
S3150800900030BD00000008014070B505460C461646FE
S31508009010012080F31088FFF7C7FFA02000F03CF876
S3150800902008F0BEFE68B1200A00F036F808F0B8FE6F
S3150800903068B1E0B200F030F808F0B2FE68B100247A
S315080090401AE0FFF7CBFF002080F3108870BDFFF70A
S31508009050C5FF002080F3108870BDFFF7BFFF002012
S3150800906080F3108870BD15F8010B00F015F808F0AC
S3150800907097FE50B1641CA4B2B442F4D3FFF7AEFF16
S31508009080002080F31088012070BDFFF7A7FF00209D
S3150800909080F3108870BD000070B505460024104E98
S315080090A005F0800069060D0E802813D000222021C5
S315080090B0304600F0D6FC01224021304600F0D1FCB3
S315080090C000224021304600F0CCFC641CE4B2082C97
S315080090D0E6D370BD01222021304600F0C2FCEAE743
S315080090E000080140FEB5002502955720019000951D
S315080090F04FF40066002302AA40F2F471304603F0EA
S31508009100ADFE002301AA40F24A41304603F0A6FE0E
S3150800911000236A464FF47B61304603F09FFE324CCB
S31508009120009840F6AE7768B100231A4639463046AD
S315080091300BF022FE207800F0DF00207007200EF0EA
S315080091408BF8FEBDDDE901321E2128489A420EDB66
S31508009150827A521CD2B28272C5721E2A18D38172C2
S3150800916000230122394630460BF006FE10E0D21CD9
S315080091709A420DDCC27A521CD2B2C27285721E2A7B
S3150800918006D3C17200231A46394630460BF0F4FD61
S31508009190002302AA3946304603F060FE144A1078C6
S315080091A078B114490888431C0B80B0F5167F00D99E
S315080091B0157006200EF050F8207840F02000207038
S315080091C0FEBD0298012807D0207800F0DF00207045
S315080091D007200EF041F8FEBD06200EF03DF8207877
S315080091E040F020002070FEBD1D0000203C04002039
S315080091F091030020960300202DE9F0410446A94D6D
S3150800920024292E78AF7895F803C02A79AB7968793E
S315080092101FD2DFE801F01E122B3F43475B6F83978F
S31508009220ABC3C7CBD0D51ED9DDDDF1F5F9FDECEB27
S31508009230EAE9E8E7E6E5E4E3E2E10FF0A5F8064641
S315080092400FF080F8064306D0287820F00300801C2B
S315080092502870BDE8F08124B1287864F301002870ED
S31508009260F7E7287820F003002870F2E70FF0AEF849
S3150800927028B1287820F00C0008302870E9E724B1D6
S31508009280287864F383002870E3E7287820F00C0038
S315080092902870DEE764F305162E70DAE764F387169E
S315080092A02E70D6E70EF0A4FF28B1687820F00300E8
S315080092B0801C6870CDE724B1687864F30100687093
S315080092C0C7E7687820F003006870C2E70EF0B2FFBF
S315080092D028B1687820F00C0008306870B9E724B126
S315080092E0687864F383006870B3E7687820F00C0048
S315080092F06870AEE70EF0C0FF28B1687820F030003D
S3150800930020306870A5E724B1687864F305106870A2
S315080093109FE7687820F0300068709AE70EF0CEFF75
S3150800932028B1687820F0C0008030687091E724B1D1
S31508009330687864F3871068708BE7687820F0C00057
S31508009340687086E70FF064F828B1A87820F0030063
S31508009350801CA8707DE724B1A87864F30100A87082
S3150800936077E7A87820F00300A87072E70FF0B8F83E
S3150800937006460FF0D7F8064305D0A87820F00C006B
S315080093800830A87065E724B1A87864F38300A8704C
S315080093905FE7A87820F00C00A8705AE764F3051771
S315080093A0AF7056E764F38717AF7052E764F3010CA2
S315080093B085F803C04DE764F3830C85F803C048E7D6
S315080093C064F300022A7144E764F382022A7140E7D3
S315080093D064F304122A713CE75FE057E048E043E093
S315080093E03EE039E034E02FE029E01DE018E013E024
S315080093F00EE009E004E0FFE764F345122A7128E766
S3150800940064F386122A7124E764F3C7122A7120E7E7
S3150800941064F3000068711CE764F34100687118E79B
S3150800942064F38200687114E71CB164F3C3006871C1
S3150800943005E00FF01BFD697960F3C301697168796E
S3150800944020F01000687104E764F34510687100E7BE
S3150800945064F386106871FCE664F3C7106871F8E671
S3150800946064F30003AB71F4E664F34103AB71F0E611
S315080094700EF0F0FF00B924B1A87940F00400A871F5
S31508009480E7E6A87920F00400A871E2E60EF038FFB6
S31508009490A97960F3C301A971DBE664F30413AB7120
S315080094A0D7E60000A00300201FB500200290039015
S315080094B0019000904FF4006400236A4640F25F4131
S315080094C0204603F0CBFC009901292CD1002301AAE0
S315080094D04FF48C61204603F0C1FC0198122822D271
S315080094E0DFE800F021094364210909798EC709E4F8
S315080094F043090909092202A9052001F047F902A929
S31508009500052001F085F902A9052001F0D5F902A97F
