S315080040005043002001410008DDC00008C9BA000875
S31508004010D9C00008555000087918010800000000AA
S3150800402000000000000000000000000029E400086D
S31508004030DD730008000000001DC20008350A0108EB
S315080040401B4100081B4100081B410008DDD1000880
S315080040501B4100081B410008957800081B41000811
S315080040601B41000819790008277900081B41000838
S315080040701B4100081B4100081B4100081B410008A2
S315080040801B4100081B4100081B410008FDEF000802
S315080040904D1801081B4100081B4100083579000826
S315080040A01B4100081B4100081B4100081B41000872
S315080040B01B4100081B4100081B4100081B41000862
S315080040C01B4100081B4100081B4100081B41000852
S315080040D01B410008F1100108A11101085D12010831
S315080040E0A578000819CE00081B410008DFF80CD097
S315080040F000F03CF8004800471533010850430020FB
S315080041000648804706480047FEE7FEE7FEE7FEE763
S31508004110FEE7FEE7FEE7FEE7FEE7FEE7B10A01086F
S31508004120ED40000840EA01039B0703D009E008C9EF
S31508004130121F08C0042AFAD203E011F8013B00F85E
S31508004140013B521EF9D27047D2B201E000F8012BAA
S31508004150491EFBD270470022F6E710B513460A46F9
S3150800416004461946FFF7F0FF204610BD064C074DDA
S3150800417006E0E06840F0010394E807009847103429
S31508004180AC42F6D3FFF7B6FF3C7E01085C7E010819
S3150800419070B58C1810F8015B15F0070301D110F8FB
S315080041A0013B2A1106D110F8012B03E010F8016B28
S315080041B001F8016B5B1EF9D12B0705D40023521EAB
S315080041C00DD401F8013BFAE710F8013BCB1A921C13
S315080041D003E013F8015B01F8015B521EF9D5A14211
S315080041E0D8D3002070BD21B1826842F001028260F6
S315080041F003E0826822F001028260704710B5044627
S315080042001248844208D10121401508F03BFB0021E1
S31508004210601508F037FB17E00D48844208D10121E4
S31508004220001508F02FFB0021201508F02BFB0BE0EA
S315080042300848844208D10121C80308F023FB00215D
S315080042404FF4004008F01EFB10BD0000002401409A
S3150800425000280140003C0140014600208A6802F01F
S3150800426004020AB1012000E0002070470146C86C2C
S3150800427080B270470246002013680B400BB101203C
S3150800428000E000207047014600208A6802F0080214
S315080042900AB1012000E000207047000030B5024650
S315080042A00020002350680F4C20400D790C6844EA22
S315080042B005242043506090680B4C2040D1E90254F5
S315080042C02C434D7944EA450420439060D06A20F493
S315080042D070000C7C641EE4B2234340EA0350D062AB
S315080042E030BD0000FFFEF0FFFDF7F1FF10B506F048
S315080042F02DFB30B10E48007840F001000C490870DB
S3150800430005E00B48007800F0FE000949087006F041
S3150800431029FB30B10648007840F0020004490870CD
S3150800432005E00348007800F0FD000149087010BD5B
S315080043301B000020F0B504460D4600200021092D7B
S3150800434011DDE068A5F10A0606EB4607072606FA18
S3150800435007F18843A5F10A0606EB460603FA06F1B5
S315080043600843E0600CE0206905EB4507072606FAD6
S3150800437007F1884305EB450603FA06F10843206171
S31508004380072A0FDA606B561E06EB86071F2606FA03
S3150800439007F18843561E06EB860605FA06F108431A
S315080043A0606322E00D2A0FDA206BD61F06EB86071C
S315080043B01F2606FA07F18843D61F06EB860605FA76
S315080043C006F10843206310E0E06AA2F10D0606EB49
S315080043D086071F2606FA07F18843A2F10D0606EBA3
S315080043E0860605FA06F10843E062F0BD816841F0E9
S315080043F008018160704721B1826842F4A002826098
S3150800440003E0826822F4A00282607047816841F066
S31508004410040181607047000010B504461148008801
S31508004420401C142190FBF1F201FB12000E49098889
S31508004430884215D00B49098801EB810202EBC101BC
S315080044400A4A88180D222146FFF76CFE054800889F
S31508004450401C142190FBF1F201FB1200014908806F
S3150800446010BD0000A0040020A20400206020002047
S3150800447010B5044614480088401C1E2190FBF1F232
S3150800448001FB12001149098888421BD0E07808B957
S315080044900820E0700C49098801EB810202EBC10192
S315080044A00B4A88180D222146FFF73CFE064800886D
S315080044B0401C1E2190FBF1F201FB12000249088004
S315080044C0012010BD0020FCE79C0400209E0400206B
S315080044D0DA1E002030B50F490988491C142291FBC1
S315080044E0F2F302FB13110C4A1288914211D00B49C0
S315080044F0084A128801EB021190E83C003CC10549C4
S315080045000988491C142291FBF2F302FB1311014A94
S31508004510118030BD8E04002090040020101B00205E
S3150800452030B5014618480088401C1E2290FBF2F35D
S3150800453002FB1300154A1288904222D0087B08B95C
S31508004540082008730868B0F5006F02D9012088733F
S3150800455001E000208873002048730D480A4A128833
S3150800456000EB021091E83C003CC007480088401C5C
S315080045701E2290FBF2F302FB1300034A108001206F
S3150800458030BD0020FCE700008A0400208C040020CF
S315080045903019002010B5044611480088401C142123
S315080045A090FBF1F201FB12000E490988884215D0EA
S315080045B00B49098801EB810202EBC1010A4A8818F6
S315080045C00D222146FFF7AEFD05480088401C142140
S315080045D090FBF1F201FB12000149088010BD0000B2
S315080045E0AA040020AC040020EA22002010B50446E4
S315080045F014480088401C1E2190FBF1F201FB1200B2
S315080046001149098888421BD0E07808B90820E0706B
S315080046100C49098801EB810202EBC1010B4A881893
S315080046200D222146FFF77EFD06480088401C1E2104
S3150800463090FBF1F201FB120002490880012010BD2F
S315080046400020FCE7A6040020A8040020642100201E
S3150800465070B58AB005460E461446002006900790A7
S31508004660089009900290039004900590012001900B
S31508004670002301AA40F24941C00205F011FC4DBBD6
S31508004680A5208DF8180001208DF819008DF81A60FC
S3150800469008208DF81B0020788DF81C0061788DF8AD
S315080046A01D10A1788DF81E10E1788DF81F1021795C
S315080046B006A8017261794172A1798172E179C172A4
S315080046C006A80FC808F056FB8DF8240006A800F0C7
S315080046D00DF97FE0022D29D1A5208DF818000120BB
S315080046E08DF819008DF81A6008208DF81B002078BF
S315080046F08DF81C0061788DF81D10A1788DF81E10B4
S31508004700E1788DF81F10217906A801726179417246
S31508004710A1798172E179C17206A80FC808F02AFB4F
S315080047208DF8240006A8FFF7A3FE53E0032D29D130
S31508004730A5208DF8180001208DF819008DF81A604B
S3150800474008208DF81B0020788DF81C0061788DF8FC
S315080047501D10A1788DF81E10E1788DF81F102179AB
S3150800476006A8017261794172A1798172E179C172F3
S3150800477006A80FC808F0FEFA8DF8240006A8FFF769
S3150800478035FF27E0012D25D14FF0C05000EB06403C
S3150800479000F58040401C029008208DF8140020780F
S315080047A08DF80C0061788DF80D10A1788DF80E1033
S315080047B0E1788DF80F1021798DF8101061798DF850
S315080047C01110A1798DF81210E1798DF8131002A84D
S315080047D0FFF7A6FE0AB070BD10B504461248008859
S315080047E0401C0A2190FBF1F201FB12000F490988CF
S315080047F0884217D00C49098801EB410202EBC11126
S315080048000B4A02EB41004FF483722146FFF78AFCFC
S3150800481005480088401C0A2190FBF1F201FB1200B2
S315080048200149088010BD0000F8040020FA040020A1
S315080048300E35002010B5044613480088401C0A218E
S3150800484090FBF1F201FB120010490988884219D041
S315080048500D49098801EB410202EBC1110C4A02EB32
S3150800486041004FF483722146FFF75CFC0648008836
S31508004870401C0A2190FBF1F201FB12000249088054
S31508004880012010BD0020FCE7F4040020F6040020F7
S31508004890D22A002010B5044611480088401C14216D
S315080048A090FBF1F201FB12000E490988884215D0E7
S315080048B00B49098801EB810202EBC1010A4A8818F3
S315080048C00D222146FFF72EFC05480088401C1421BE
S315080048D090FBF1F201FB12000149088010BD0000AF
S315080048E09604002098040020D61D002010B5044622
S315080048F014480088401C1E2190FBF1F201FB1200AF
S315080049001149098888421BD0E07808B90820E07068
S315080049100C49098801EB810202EBC1010B4A881890
S315080049200D222146FFF7FEFB06480088401C1E2183
S3150800493090FBF1F201FB120002490880012010BD2C
S315080049400020FCE79204002094040020501C00205C
S315080049507CB50024002500200190009000BFACE043
S3150800496004EB4400664951F8200040F6A2718842DB
S3150800497008D004EB4400624951F8200040F6A471BF
S31508004980884217D1002301AA40F2D3714FF4006080
S3150800499005F086FAC0B30198022836D104EB440024
S315080049A0574A52F8201000231A464FF400600BF0BD
S315080049B019FC80E004EB4400514951F8200040F608
S315080049C0A371884208D004EB44004D4951F82000F1
S315080049D040F6A571884218D1002301AA40F2D37186
S315080049E04FF4006005F05CFA70B1019801280CD10B
S315080049F004EB4400424A52F8201000231A464FF4AA
S31508004A0000600BF0EFFB56E0FFE704EB44003C497F
S31508004A1001EB80008068E8B104EB44000A4602EB2B
S31508004A20800000236A4681684FF4006005F038FA72
S31508004A3000B940E0009855280CD145F0020504EB72
S31508004A4044002F4A52F820100023022290020BF04D
S31508004A50C9FB30E004EB4400294901EB80004068BB
S31508004A60E8B104EB44000A4602EB800000236A46DC
S31508004A7041684FF4006005F013FA00B91BE000988E
S31508004A8055280CD145F0010504EB44001C4A52F8A0
S31508004A90201000230122D0020BF0A4FB0BE004EB4C
S31508004AA04400174A52F8201000231A464FF40060B3
S31508004AB00BF098FB00BF601C84B20E2CFFF450AFBD
S31508004AC005F0020038B10023022240F2DC719002A0
S31508004AD00BF088FB12E005F0010038B10023012233
S31508004AE040F2DC71D0020BF07DFB07E000231A468A
S31508004AF040F2DC714FF400600BF074FB7CBD0000E3
S31508004B00B85801082DE9F04105460E46069C0021D5
S31508004B10002B34D027889F4203DA27887F1C2780FA
S31508004B2000E0238027887F1EB8B206E0471E32F8C9
S31508004B30177022F81070471EB8B20028F6DC1580E8
S31508004B40002004E032F810703944471CB8B22788B0
S31508004B508742F7DCB4F800C00CEB4C07B1FBFCF855
S31508004B600CFB181C4FEAE77807EB9878BCEBA80F04
S31508004B7001D9278839442788B1FBF7F13180BDE888
S31508004B80F0810000F8B505460E4614461F46062D68
S31508004B9039D2DFE805F03803101D2F261B4800EB35
S31508004BA0440000901A4850F824200323394630461A
S31508004BB0FFF7A8FF27E0174800EB440000901648C7
S31508004BC050F82420032339463046FFF79BFF1AE0A6
S31508004BD012480A23124A394600903046FFF792FFD8
S31508004BE011E010480523104A394600903046FFF771
S31508004BF089FF08E00D4805230D4A394600903046DE
S31508004C00FFF780FF00BF00BFF8BD00008A0500203F
S31508004C10C0010020EA05002080020020C80200200A
S31508004C200E060020CC0200202C060020CA02002016
S31508004C302206002010B5012007F034FE002007F0F8
S31508004C4031FE10BD08B501460020009003480090CB
S31508004C500098084400900098008808BD006C004041
S31508004C6008B500220092044A0092009A0244009273
S31508004C70009A116008BD0000006C004010B510F0E5
S31508004C806DFA05F019FE20B102480078401C01496A
S31508004C90087010BD160000201FB500200090019076
S31508004CA0029003900F4800880F490988884218D057
S31508004CB00C48008800EB800202EBC0000B4A811802
S31508004CC00D226846FFF72EFA684600F0AFF9054848
S31508004CD00088401C142190FBF1F201FB12000149E7
S31508004CE008801FBDA2040020A00400206020002028
S31508004CF01FB5002000900190029003901348008889
S31508004D0013490988884220D012480078E8B901205A
S31508004D10104908700D48008800EB800202EBC000BD
S31508004D200D4A81180D226846FFF7FCF968460DF012
S31508004D308DF9012809D105480088401C1E2190FBE1
S31508004D40F1F201FB1200014908801FBD9E040020F4
S31508004D509C040020A4040020DA1E0020F8B50024D4
S31508004D60002500200090002600236A4640F2EF3115
S31508004D704FF4006005F094F80098C5B2AA201249CD
S31508004D80087000BF00BF16E0104830F8140050B194
S31508004D900E4830F81410204606F048FB55200A49FC
S31508004DA00870012605E0094830F81410204606F078
S31508004DB03DFB601CC4B2AC42E6DB012332464F2100
S31508004DC098020BF00FFAF8BDDC020020CE02002094
S31508004DD02DE9FF410020039002900190002700254D
S31508004DE000268046009000244A480088401C80B26D
S31508004DF048490880052801DABDE8FF8105204549AC
S31508004E00088045480088401C80B243490880B0F5B0
S31508004E10167F06DB0020414908704FF416703E499C
S31508004E2008803E480078012800D1E5E7002301AA5A
S31508004E3040F2DF714FF4006005F032F8019F00235D
S31508004E4001AA4FF4FC614FF4006005F029F8019DB2
S31508004E50002301AA40F2E1714FF4006005F020F842
S31508004E60019E002301AA40F22D414FF4006005F08F
S31508004E7017F8DDF80480002303AA40F2FF314FF447
S31508004E80006005F00DF8002302AA40F2D3714FF432
S31508004E90006005F005F8039898B90298012803D030
S31508004EA01F48007801280CD15F2E06DAB5F5C86FC1
S31508004EB003DB01201B49087006E002201949087027
S31508004EC002E002201749087000F056FC15480078E1
S31508004ED0012819D000236A4640F2EF314FF40060EA
S31508004EE004F0DEFF002405E00021204606F09EFAC5
S31508004EF0601CC4B200988442F6DB012300224F21CD
S31508004F0098020BF06FF977E700F072FBFFF726FFC0
S31508004F1000BF71E7F0020020E8020020DE02002050
S31508004F20EB020020DD0200202DE9F84305460024A7
S31508004F3000260020009000278046814600236A4606
S31508004F4040F2EF314FF4006004F0AAFF0098C6B2B1
S31508004F5000BF0CE02DB14FF6FF702B4921F8140065
S31508004F6003E00020284921F81400601CC4B2B442AA
S31508004F70F0DB002409E01DB1FF202449085502E0B2
S31508004F80002022490855601CC4B2082CF3DB2048CF
S31508004F90057055B3002425E004F57C7100236A46A4
S31508004FA04FF4006004F07CFF009807441948007825
S31508004FB0B8420ADC17480078404506DD15480078EF
S31508004FC0A0EB08001FFA80F901E04FF00009B84687
S31508004FD0A9F101000122824091B2204606F026FA84
S31508004FE0601CC4B2B442D7DB09E0002405E0002106
S31508004FF0204606F01BFA601CC4B2B442F7DB002058
S3150800500005490880BDE8F883CE020020D4020020B6
S31508005010DE020020DF020020E802002002480078B5
S31508005020401C014908707047C403002010B50446A7
S315080050306078802805D1A178221D022007F0B8F8EB
S3150800504007E06078402804D1A178221D022007F0E5
S31508005050AFF810BD00BFFEE708B50121480607F006
S31508005060E1FB0121052007F0FDFB4FF40060ADF8D8
S31508005070000048208DF803006946204803F06CFAC2
S315080050804FF48050ADF8000018208DF80300032077
S315080050908DF802006946194803F05EFA184800F0D0
S315080050A035F8184800F0F1F90020164988710120F2
S315080050B0C87100200872487288720120C8720020E0
S315080050C08870C87002200871012048711020088075
S315080050D00B4800F0C4F800200B498872C8720120FA
S315080050E008730020088048808880C88008810120CD
S315080050F04873084600F026F808BD0000000801407D
S31508005100006400400C0500201805002010B5044670
S315080051100B48844209D10121480607F093FB002178
S315080051204FF0007007F08EFB08E00121880607F0B3
S3150800513089FB00214FF0806007F084FB10BD00005A
S315080051400064004010B50021837A012202FA03F1B7
S315080051503D4A126842F001023B4B1A603A4A1C3239
S3150800516012688A43384B1C331A60027BCAB9364A1E
S315080051700C3212688A43344B0C331A604288C3884F
S3150800518042EA0343304A4032847A42F8343002888D
S31508005190838842EA03432C4A4032847A02EBC402EB
S315080051A05360027B012A19D1274A0C3212680A4336
S315080051B0254B0C331A604288038842EA0343224A85
S315080051C04032847A42F83430C288838842EA0343FC
S315080051D01D4A4032847A02EBC4025360C27A3AB955
S315080051E0194A121D12688A43174B1B1D1A6006E0DE
S315080051F0154A121D12680A43134B1B1D1A600289B1
S3150800520032B9114A143212688A430F4B14331A60A2
S315080052100289012A06D10C4A143212680A430A4B3B
S3150800522014331A60427B012A06D1074A1C321268D7
S315080052300A43054B1C331A60034A126822F001021E
S31508005240014B1A6010BD0000006600401AB14369A0
S315080052500B43436102E043698B434361704730B5B2
S31508005260024600200023146824F00204146014681F
S3150800527044F00104146000E05B1C546804F0010467
S315080052801CB94FF6FF74A342F6D1546804F0010422
S315080052900CB900206CE08C79012C04D1146844F018
S315080052A08004146003E0146824F080041460CC7948
S315080052B0012C04D1146844F04004146003E0146817
S315080052C024F0400414600C7A012C04D1146844F0CC
S315080052D02004146003E0146824F0200414604C7A57
S315080052E0012C04D1146844F01004146003E0146817
S315080052F024F0100414608C7A012C04D1146844F04C
S315080053000804146003E0146824F008041460CC7AD6
S31508005310012C04D1146844F00404146003E01468F2
S3150800532024F0040414608C78A407CD7844EA056454
S315080053300D7944EA05444D7944EA05540D886D1EF5
S315080053402C43D461146824F001041460002300E09F
S315080053505B1C546804F001041CB14FF6FF74A342A9
S31508005360F6D1546804F001040CB1002000E00120D5
S3150800537030BD08B54FF4C06006F0EAFE14208DF87B
S31508005380000000208DF801008DF8020001208DF83C
S315080053900300684606F0A4FE08BD10B500F5D873EC
S315080053A003EB01131B6803F004031372137A53B952
S315080053B000F5D87303EB01131B6840F2FF7404EA87
S315080053C05353136009E000F5D87303EB01131B6808
S315080053D06FF0604404EAD303536000F5D87303EB17
S315080053E001131B6803F00203537200F5D87303EB2D
S315080053F001135B6803F00F03937200F5D87303EB90
S3150800540001135B681B0AD37400F5D87303EB011309
S315080054109B68D37200F5D87303EB01139B681C0ACB
S31508005420147300F5D87303EB01139B681C0C5473B3
S3150800543000F5D87303EB01139B681B0E937300F5F5
S31508005440D87303EB0113DB68D37300F5D87303EB4A
S315080054500113DB681C0A147400F5D87303EB0113F7
S31508005460DB681C0C547400F5D87303EB0113DB6876
S315080054701B0E937421B9C36843F02003C36003E08D
S31508005480036943F02003036110BD00218171C171D6
S31508005490017241728172C1728170C17003210171FA
S315080054A00221417101210180704710B50246002092
S315080054B0936803F08063B3F1806F00D110E09368BE
S315080054C003F00063B3F1006F01D1012008E093688F
S315080054D003F08053B3F1805F01D1022000E004207D
S315080054E0042874D002F5C07303EB00131B6803F09D
S315080054F0010402F5C07303EB00131C600B7A7BB939
S315080055004B7A0C8843EA445302F5C07404EB001442
S315080055102468234302F5C07404EB0014236010E0EA
S315080055200B7A4C6843EAC4034C7A234302F5C074E9
S3150800553004EB00142468234302F5C07404EB00143A
S3150800554023608B7A03F00F038B7202F5C07303EBAB
S3150800555000135B6823F00F0402F5C07303EB001316
S315080055605C6002F5C07303EB00135B688C7A234317
S3150800557002F5C07404EB001463608B7B1C064B7B3E
S3150800558044EA03440B7B44EA0323CC7A234302F51B
S31508005590C07404EB0014A3608B7C1C064B7C44EAA5
S315080055A003440B7C44EA0323CC7B234302F5C074F3
S315080055B004EB0014E36002F5C07303EB00131B68E9
S315080055C043F0010402F5C07303EB00131C6010BD21
S315080055D010B50246002006E013784340034CE05C11
S315080055E0521C4B1ED9B20029F6DC10BDAC76010858
S315080055F02DE9F04FD1B0002400250026A146A24689
S31508005600A346002050900027AA204F9000204E90D5
S3150800561080464D904C90C0211CA8FEF79CFD0020AA
S315080056201B901A9000231AAA40F2EF314FF400603B
S3150800563004F036FC1A98C0B24E9000231AAA4FF40A
S315080056408061480004F02CFCDDF8688000231AAA63
S3150800565040F201414FF4006004F022FC1A984D9084
S3150800566000231AAA4FF4FC614FF4006004F018FCFA
S315080056701A9880B250903D480078012802D13C48DB
S3150800568000885090684609F065F9342269460DA8E5
S31508005690FEF748FD002564E00DA830F815001B90BC
S315080056A01B98404559D305F57C7100231AAA4FF477
S315080056B0006004F0F5FB1A98C6B2102E00DC16B985
S315080056C051B0BDE8F08F002412E009F04DF900EB67
S315080056D0470030F814B01CA800EB851020F824B059
S315080056E01CA800EB851000EB84008470601CC4B213
S315080056F0B442EADB1CA901EB851031460CF0B8FD73
S31508005700B01EC4B227E01CA800EB851000EB84008D
S3150800571090F802901CA800EB851030F824105098D9
S31508005720A1EB000A4D98824509D31CA800EB851009
S3150800573030F82400404502D355204F9001E0AA20B6
S315080057404F90CDF8309129460A484F9B4C9A04F061
S31508005750DBFE601CC4B2B442D5DBB819C7B2681CFC
S31508005760C5B24E98854297DB00BFA9E7E202002042
S31508005770E4020020CE02002038B5002400250020CF
S31508005780009000236A4640F2EF314FF4006004F0BF
S3150800579087FB0098C5B200BF05E00020084921F83C
S315080057A01400601CC4B2AC42F7DB002404E00020FD
S315080057B004490855601CC4B2082CF8DB38BD000043
S315080057C0CE020020D4020020F8B549F64044002550
S315080057D00026002000901E480068401C1C490860EE
S315080057E0084600681B490968884230D300201849D2
S315080057F0086007F01BFC0546174800682E1A0023A8
S315080058006A4640F25E414FF4006004F049FB009896
S31508005810704310490968B0FBF1F40023224640F2B0
S315080058205E414FF400600AF0DDFC50B107F048FE17
S3150800583007F04CFB204607F001FE07F041FE07F093
S315080058404FFB054805604FF4167002490860F8BD1D
S3150800585038000020300000203400002010B500F089
S3150800586047FD10BD7CB5002001900025002600905C
S31508005870002400236A4640F6BF714FF4006004F026
S315080058800FFB009800B17CBD002301AA40F2D2713B
S315080058904FF4006004F004FB5B480078401C5A494A
S315080058A00870084600781E2803DC0198401C019001
S315080058B006E055480078642802DB00205249087043
S315080058C05249534A1278019841F822005048007804
S315080058D0401C0A2190FBF1F201FB12004C490870AA
S315080058E047F230510198884251DA01980D1A48F664
S315080058F0A040854201DD0025C5E72E4645480078CB
S3150800590001281ED1002419E04248408804EB4401CE
S31508005910414A32F8111088420EDD04EB4400114664
S3150800592001EB40004088684304EB440102EB410167
S31508005930898890FBF1F603E0601CC4B2042CE3DB13
S3150800594000BF3648006858B93548006833490860CA
S315080059500023344A40F2F6314FF4006004F0A0FA0E
S3150800596030480068C0EB401040014FF47A7190FB54
S31508005970F1F02B490968884204DD2B480068304459
S31508005980294908602948006828442849086047F2D8
S3150800599030510198884235DD0198451A48F6A040ED
S315080059A0854201DD00256EE72E461A480078022852
S315080059B01ED1002419E01748408804EB44011C4A0C
S315080059C032F8111088420EDD04EB4400114601EB53
S315080059D040004088684304EB440102EB4101898892
S315080059E090FBF1F603E0601CC4B2042CE3DB00BFB5
S315080059F00D480068801B0C4908600E48006828445A
S31508005A000C49086000BF3EE73C040020E007002080
S31508005A1030040020040400203C5E01083404002001
S31508005A200804002038040020180400202804002058
S31508005A30545E01082C04002038B50020009000248C
S31508005A4000236A4640F2FE314FF4006004F028FA5B
S31508005A500098322802DA4FF47A7414E00098322853
S31508005A600FDB40F21A41009888420ADC009800EBE6
S31508005A70400101EB00100849081A642190FBF1F473
S31508005A8001E04FF448740023224640F2FD314FF4FA
S31508005A9000600AF0A7FB38BD568A01007FB50025CD
S31508005AA000240020039002900190009003F07CF8F7
S31508005AB0044648F6A04084420FD847F23050844244
S31508005AC00BD350480088401C4E4908800846008879
S31508005AD00A2805DD0A20088002E0002049490880D6
S31508005AE047F2265084420FD845F6C05084420BD35D
S31508005AF045480088401C44490880084600880A280A
S31508005B0005DD0A20088002E000203F4908800023BE
S31508005B1003AA40F2DD714FF4006004F0C1F90023D6
S31508005B2002AA4FF4FC614FF4006004F0B9F90023AF
S31508005B306A4640F2DF714FF4006004F0B1F90023C1
S31508005B4001AA40F2E9714FF4006004F0A9F940F2A5
S31508005B50DC510398884200DA7FBD2A4800880A2863
S31508005B6013DBA4F5EA40303885B2029804F010FC3D
S31508005B7002902946029804F0BBFB0290234A0021B2
S31508005B80029804F03FFA224908801F4800880A282C
S31508005B9013DB47F23050001B85B2009800F044FA38
S31508005BA000902946009800F0E5F90090194A00216E
S31508005BB0009804F027FA16490880154800880199C4
S31508005BC0884209DD012014490870114800880199A6
S31508005BD0401A1149488012E00D4800880199884208
S31508005BE009DA02200C490870094909880198401AFF
S31508005BF00949488003E0002007490870488000BF2B
S31508005C00AAE700004404002042040020D007002030
S31508005C1032040020C0070020040400202DE9F843C0
S31508005C2006460C4600250020009080460027012ED7
S31508005C3004D0022E2AD0032E72D188E000205949BA
S31508005C400880594908805948006847F24E518842E9
S31508005C5019DC5648006847F21251884213DB4FF0A8
S31508005C6001080023514840F2244102684FF40060BD
S31508005C700AF0B8FA4D48008800B24A49088001205F
S31508005C804B49087001E04FF0000886E04848007864
S31508005C90012802D04FF000087FE04448016804F16B
S31508005CA01E00814250DC3C384049096888424BDC7A
S31508005CB04FF001083D48008800B23B49088047F28A
S31508005CC03050844201DB271A02E047F23050071BA6
S31508005CD03548B0F900003349B1F9001088420BDDA8
S31508005CE0642078433049B1F900102E4AB2F90020F1
S31508005CF0891AB0FBF1F517E02B48B0F900002949DD
S31508005D00B1F9001088420CDA642078432549B1F9C4
S31508005D100010254AB2F90020891AB0FBF1F503E014
S31508005D203AE04FF0000838E000232A4640F22541C1
S31508005D304FF400600AF056FA18B102201C490870A0
S31508005D4004E04FF0000801E04FF0000825E018488D
S31508005D500078022802D04FF000081EE000236A46A9
S31508005D6040F2D2714FF4006004F09AF82046009988
S31508005D700CF08BFB814647F2305120460CF085FB30
S31508005D80B9EBD00F05D24FF001080020084908707A
S31508005D9001E04FF0000800E000BF00BF4046BDE844
S31508005DA0F8830000F4020020F6020020C803002051
S31508005DB0F80200201FB50020009001900290039081
S31508005DC00D4800880D490988884214D00C480A49AC
S31508005DD0098800EB01130FCB8DE80F00684606F023
S31508005DE0D1F805480088401C142190FBF1F201FB0C
S31508005DF01200014908801FBD900400208E0400206F
S31508005E00101B00201FB500200090019002900390FF
S31508005E10194800881949098888422CD01848164913
S31508005E20098800EB01130FCB8DE80F009DF80C20B5
S31508005E3001A9009804F00AFC68B10F480088401CC4
S31508005E401E2190FBF1F201FB12000B49088000208D
S31508005E500C4908700FE00B480078401C0949087087
S31508005E60084600780A2806DD04F0B6FB05F0ECFDC6
S31508005E700020044908701FBD8C0400208A040020F5
S31508005E8030190020AF0400201CB50020019047F20D
S31508005E903050009000236A4640F2D2714FF40060F9
S31508005EA003F0FEFF47F226510098884211DA294886
S31508005EB00088401C27490880084600880A2804DD0F
S31508005EC001202549087025490870002024490880C2
S31508005ED016E023480088401C2149088008460088A7
S31508005EE0322802DD00201C49087000201949088064
S31508005EF047F230510098884202DD002017490870A1
S31508005F0001A803F063F9012803D113480078012892
S31508005F1002D002F01BFE68B14FF47A700AF098FBC3
S31508005F2000F020F800200C4908700D49088009493E
S31508005F3008800DE002F021FE18B100200AF088FB67
S31508005F4006E001A801F08EFD012801D100F00AF84B
S31508005F501CBD00001403002018030020EB020020DB
S31508005F60160300200120704710B501F07DFA01F0F4
S31508005F7037FA10BDF8B506460F46002400254FF43B
S31508005F807A70009035463C4600236A4640F2F63160
S31508005F904FF4006003F084FF4FF47A71009890FB89
S31508005FA0F1F00090009818B144F62060864201DAB4
S31508005FB02846F8BD002C2EDD04EB8400400000992D
S31508005FC090FBF1F4B4F57A7F01DD2846F1E7322C2F
S31508005FD004DC1248006804FB10551CE0642C0BDC3A
S31508005FE00E480068322101FB1055A4F132000C4915
S31508005FF0096800FB11550EE008480068322101FBCC
S3150800600010550748006801FB1055A4F164000549BE
S31508006010096800FB11552846CBE70000DC03002081
S31508006020E0030020E403002038B505460020009070
S3150800603000242C4600236A4640F2E2714FF40060C1
S3150800604003F02EFF44F62060844202DB0098002805
S3150800605001DA204638BD009841282BDA0098322804
S3150800606007DB0098C0F141001349096800FB114499
S3150800607020E0009828280CDB0F4800680F2101FB58
S3150800608010440098C0F132000C49096800FB11441D
S3150800609010E0094800680F2101FB10440748006812
S315080060A00A2101FB10440098C0F128000449096838
S315080060B000FB11442046CDE7D0030020D40300207E
S315080060C0D803002038B5054600240020009000BFFC
S315080060D043E004EB4400234951F82000A8423AD192
S315080060E004EB440001EB80008068A8B104EB44008F
S315080060F00A4602EB800000236A4681684FF4006076
S3150800610003F0CEFE08B9002038BD0098552801D105
S315080061100120F9E70020F7E704EB4400114901EBF9
S3150800612080004068A8B104EB44000A4602EB8000F0
S3150800613000236A4641684FF4006003F0B1FE08B9CF
S315080061400020E1E70098552801D10120DCE700206E
S31508006150DAE70020D8E7601C84B20E2CB9D30020F9
S31508006160D2E70000B858010870B500241EE01449AB
S3150800617001F83440002515E0C4EBC400284486B273
S315080061801E2E07DA0F48815D05EBC400401C0C4A39
S31508006190115405E0FF2105EBC400401C084A1154C0
S315080061A0681C85B2072DE7DB601C84B2052CDEDB94
S315080061B00020054908800621044801F099F970BDB8
S315080061C0560600203806002074030020998400082B
S315080061D010B500247A2006F005FC08B144F0010445
S315080061E07B2006F0FFFB08B144F002047C2006F091
S315080061F0F9FB08B144F004047D2006F0F3FB08B16E
S3150800620044F008047E2006F0EDFB08B144F01004C3
S315080062107F2006F0E7FB08B144F0200406F048FBAF
S31508006220204610BD10B501F0D1F9012803D102208E
S315080062300DF078F802E003200DF074F80DF0A6F8DA
S3150800624018B102200CF0B2F802E003200CF0AEF808
S3150800625010BD014601F00F020B1103EB830302EB9D
S315080062604302D0B27047014664290ADA0A2091FB34
S31508006270F0F200FB121291FBF0F002EB0010C0B234
S3150800628070470020FCE730B502460B464FF6FF7014
S3150800629011E012F8014B604000210AE000F0010409
S315080062A024B140104AF20104604000E040104C1C42
S315080062B0E1B20829F2DB1C1EA3F10105EBB2E8D115
S315080062C030BD000000B5034603F0DAFD0246802A19
S315080062D007D0054840F8223004480068401C0349A6
S315080062E00860104600BD0000301700208404002016
S315080062F008B50020009000236A464FF47A714FF4DF
S31508006300006003F0CDFD0099C8B200F030F900999D
S31508006310C8B200F074F80099C8B200F009F800F0A5
S31508006320D5F800F07DF90099C8B200F040F908BD2B
S315080063302DE9FC5F07464FF0000AD34600254FF6C5
S31508006340FF76A846B1460020019030460090012409
S3150800635023E0234601AA47214FF4806003F0A0FDFD
S3150800636023466A4648214FF4806003F099FD019858
S3150800637085B2009886B2012C04D1A846B146A24639
S31508006380A34608E0A84501DAA846A246B14501DDBC
S31508006390B146A34600BF601CC4B2BC42D9DD002387
S315080063A0424640F2E1714FF4006009F01BFF534684
S315080063B001AA4B214FF4806003F072FD002340F2DE
S315080063C0E7714FF40060019A09F00CFF00234A4672
S315080063D040F2E2714FF4006009F004FF5B466A463A
S315080063E04C214FF4806003F05BFD00234FF4FD6100
S315080063F04FF40060009A09F0F5FEBDE8FC9F2DE910
S31508006400FC5F07464FF0000AD34600254FF6FF7695
S31508006410A846B1460020019030460090012423E0AA
S31508006420234601AA43214FF4806003F039FD234631
S315080064306A4644214FF4806003F032FD019885B224
S31508006440009886B2012C04D1A846B146A246A346B6
S3150800645008E0A84501DAA846A246B14501DDB146DD
S31508006460A34600BF601CC4B2BC42D9DD0023424625
S3150800647040F2DF714FF4006009F0B4FE534601AAFA
S3150800648049214FF4806003F00BFD002340F2E571CB
S315080064904FF40060019A09F0A5FE00234A464FF41E
S315080064A0FC614FF4006009F09DFE5B466A464A218E
S315080064B04FF4806003F0F4FC002340F2E6714FF4D9
S315080064C00060009A09F08EFEBDE8FC9F7FB50024A7
S315080064D0002500200390029001900090002303AA53
S315080064E040F2DF714FF4006003F0DAFC002302AAE1
S315080064F04FF4FC614FF4006003F0D2FCDDE90210B2
S31508006500884203DDDDE90210401A02E0DDE90201F6
S31508006510401A84B20023224640F2E3714FF4006029
S3150800652009F060FE002301AA40F2E1714FF4006011
S3150800653003F0B6FC00236A4640F2E2714FF40060AD
S3150800654003F0AEFCDDE90010884203DDDDE900104A
S31508006550401A02E0DDE90001401A85B200232A4606
S3150800656040F2E4714FF4006009F03CFE7FBDF8B5D7
S315080065700546002700260020009000240CE0601C39
S31508006580C3B26A464021080103F08AFC009887B224
S31508006590F01986B2601CC4B2AC42F0DB0023324666
S315080065A040F2D1714FF4006009F01CFEF8BD2DE9E8
S315080065B0F84F07464FF00009002000900026804655
S315080065C001241DE004F2F23100236A464FF400600C
S315080065D003F066FC009800F0FF0900250CE005F1C1
S315080065E0300123466A464FF4806003F059FC009850
S315080065F08044761C681CC5B24D45F0DB601CC4B2ED
S31508006600BC42DFDD002E09DD98FBF6FA0023524670
S3150800661040F2DE714FF4006009F0E4FDBDE8F88F42
S315080066201CB50020019000BF0090002301AA40F28B
S31508006630D1714FF4006003F033FC00236A4640F240
S31508006640D6714FF4006003F02BFC6421019848438F
S31508006650009990FBF1F40023224640F2DD714FF4D5
S31508006660006009F0BFFD1CBD3EB54FF4FA71FE4847
S31508006670FDF771FD002302AA40F2D6714FF40060BF
S3150800668003F00EFC0298C5B22025002412E021462C
S31508006690012301AA980203F003FC0198C0F307211D
S315080066A0F14A02F814100198C1B26000401C115456
S315080066B0601CC4B2AC42EADB002302AA40F2D771DE
S315080066C04FF4006003F0ECFB0298C5B208250024DD
S315080066D014E004F13001012301AA980203F0E0FB5B
S315080066E00198C0F3072160004030DF4A1154019831
S315080066F0C1B2600041301154601CC4B2AC42E8DB40
S31508006700002301AA40F2D1714FF4006003F0C8FBE0
S315080067100198000AD44981F85000019881F851007F
S31508006720002301AA40F2D2714FF4006003F0B8FBCF
S315080067304EF660210198081A01900198000ACA4984
S3150800674081F85200019881F85300002301AA40F20B
S31508006750E9714FF4006003F0A3FB0198000AC249EF
S3150800676081F85400019881F85500002301AA40F2E7
S31508006770DF714FF4006003F093FB0198000ABA49F1
S3150800678081F85600019881F85700002301AA4FF4B2
S31508006790FC614FF4006003F083FB0198000AB249DC
S315080067A081F85800019881F85900002301AA40F29F
S315080067B0E1714FF4006003F073FB0198000AAA49DF
S315080067C081F85A00019881F85B00002301AA40F27B
S315080067D0E2714FF4006003F063FB0198000AA249D6
S315080067E081F85C00019881F85D00002301AA40F257
S315080067F0D3714FF4006003F053FB0198000A9A49DD
S3150800680081F85E00019881F85F00002301AA40F232
S31508006810F6314FF4006003F043FB00236A4640F26A
S31508006820E9714FF4006003F03BFB6421019890FB8B
S31508006830F1F0009948434FF47A7190FBF1F001901A
S315080068400198000A884981F86000019881F861007A
S31508006850002301AA40F2D6714FF4006003F020FB32
S315080068600198000A804981F86200019881F863005E
S31508006870002301AA40F2D7714FF4006003F010FB21
S315080068800198000A784981F86400019881F8650042
S31508006890002301AA40F2FE314FF4006003F000FB2A
S315080068A00198000A704981F86600019881F8670026
S315080068B0002001906D4800786C49497808436B4977
S315080068C0897808436949C9780843684909790843B2
S315080068D066494979084318B1019840F001000190CA
S315080068E00198000A604981F86800019881F86900F2
S315080068F0002301AA40F2D9714FF4006003F0D0FAE0
S315080069000198000A584981F86A00019881F86B00D5
S31508006910002301AA4FF4FB614FF4006003F0C0FAAC
S315080069200198000A504981F86C00019881F86D00B9
S31508006930012301AA4121980203F0B2FA0198000A3C
S31508006940494981F86E00019881F86F00002301AA71
S3150800695040F2E3714FF4006003F0A2FA0198000ACE
S31508006960414981F87000019881F87100002301AA55
S3150800697040F2D1714FF4006003F092FA002302AAA4
S3150800698040F2D2714FF4006003F08AFA47F23051B0
S315080069900298884203DB0298401A029004E047F204
S315080069A030510298081A0290DDE901014843642132
S315080069B090FBF1F001900198000A2B4981F87200CA
S315080069C0019881F8730001F00BFF01902848407880
S315080069D0254981F874002648007881F8750001F089
S315080069E077FF01902248C0781F4981F87600204831
S315080069F0807881F8770001F0E1FF01901C48407922
S31508006A00194981F878001A48007981F8790002F066
S31508006A1075F801901648C079134981F87A00144828
S31508006A20807981F87B00002001901048007810B129
S31508006A300120019001E000200190002001900198BA
S31508006A40000A094981F87E00019881F87F00002331
S31508006A5001AA40F2F7714FF4006003F021FA47F2F9
S31508006A6030500190019805E0D8270020D402002074
S31508006A70BC030020000AFE4981F88000019881F8CD
S31508006A808100002302AA4FF47C714FF4006003F0E2
S31508006A9007FA0298C5B20020019000240AE0F548DA
S31508006AA000780121A140084010B1601C019003E064
S31508006AB0601CC4B2AC42F2DB00BF00200190019812
S31508006AC0000AEB4981F88200019881F883000023C7
S31508006AD002AA40F2D6714FF4006003F0E1F9029879
S31508006AE0C5B21025002414E004F12001012301AAEF
S31508006AF0980203F0D5F90198C0F3072160008E309B
S31508006B00DB4A11540198C1B260008F301154601CE1
S31508006B10C4B2AC42E8DB002301AA40F2F6314FF4D6
S31508006B20006003F0BDF96421019890FBF1F0019033
S31508006B300198000ACE4981F8E800019881F8E90031
S31508006B40002301AA40F2F9314FF4006003F0A8F9D6
S31508006B500198000AC64981F8EA00019881F8EB0015
S31508006B60002301AA40F2EF314FF4006003F098F9D0
S31508006B700198000ABE4981F8EC00019881F8ED00F9
S31508006B80002301AA4FF47C714FF4006003F088F9E2
S31508006B900198000AB64981F8EE00019881F8EF00DD
S31508006BA0002301AA40F2F1314FF4006003F078F9AE
S31508006BB00198000AAE4981F8F000019881F8F100C1
S31508006BC0002301AA40F2F2314FF4006003F068F99D
S31508006BD00198000AA64981F8F200019881F8F300A5
S31508006BE0002301AA40F2F3314FF4006003F058F98C
S31508006BF00198000A9E4981F8F400019881F8F50089
S31508006C00002301AA4FF47D714FF4006003F048F9A0
S31508006C100198000A964981F8F600019881F8F7006C
S31508006C20002301AA40F2F5314FF4006003F038F969
S31508006C300198000A8E4981F8F800019881F8F90050
S31508006C40002301AA4FF47E714FF4006003F028F97F
S31508006C500198000A864981F8FA00019881F8FB0034
S31508006C60002301AA40F203414FF4006003F018F92B
S31508006C700198000A7E4981F8FC00019881F8FD0018
S31508006C80002301AA40F22D414FF4006003F008F9F1
S31508006C900198000A764981F8FE00019881F8FF00FC
S31508006CA0002301AA40F23B414FF4006003F0F8F8D4
S31508006CB00198000A6E4981F80001019881F80101DE
S31508006CC0002301AA40F22E414FF4006003F0E8F8D1
S31508006CD00198000A664981F80201019881F80301C2
S31508006CE0002301AA40F23C414FF4006003F0D8F8B3
S31508006CF00198000A5E4981F80401019881F80501A6
S31508006D00002301AA40F227414FF4006003F0C8F8B7
S31508006D100198000A564981F80601019881F8070189
S31508006D20002301AA40F235414FF4006003F0B8F899
S31508006D300198000A4E4981F80801019881F809016D
S31508006D40002301AA4FF485614FF4006003F0A8F808
S31508006D500198000A464981F80A01019881F80B0151
S31508006D60002301AA40F236414FF4006003F098F878
S31508006D700198000A3E4981F80C01019881F80D0135
S31508006D80002301AA40F22B414FF4006003F088F873
S31508006D900198000A364981F80E01019881F80F0119
S31508006DA0002301AA40F239414FF4006003F078F855
S31508006DB00198000A2E4981F81001019881F81101FD
S31508006DC0002301AA40F22C414FF4006003F068F852
S31508006DD00198000A264981F81201019881F81301E1
S31508006DE0002301AA40F23A414FF4006003F058F834
S31508006DF00198000A1E4981F81401019881F81501C5
S31508006E00002301AA40F232414FF4006003F048F82B
S31508006E100198000A164981F81601019881F81701A8
S31508006E20002301AA4FF488614FF4006003F038F894
S31508006E300198000A0E4981F81801019881F819018C
S31508006E40002301AA40F233414FF4006003F028F80A
S31508006E500198000A064981F81A01019881F81B0170
S31508006E60002301AA40F241414FF4006004E000000B
S31508006E70D8270020D402002003F012F80198000A4F
S31508006E80FE4981F81C01019881F81D01002301AA19
S31508006E904FF486614FF4006003F002F80198000A87
S31508006EA0F64981F81E01019881F81F01002301AAFD
S31508006EB040F23E414FF4006002F0F2FF0198000AEA
S31508006EC0EE4981F82001019881F82101002301AAE1
S31508006ED040F231414FF4006002F0E2FF0198000AE7
S31508006EE0E64981F82201019881F82301002301AAC5
S31508006EF040F23F414FF4006002F0D2FF0198000AC9
S31508006F00DE4981F82401019881F82501002301AAA8
S31508006F1040F22F414FF4006002F0C2FF0198000AC8
S31508006F20D64981F82601019881F82701002301AA8C
S31508006F3040F23D414FF4006002F0B2FF0198000AAA
S31508006F40CE4981F82801019881F82901002301AA70
S31508006F5040F234414FF4006002F0A2FF0198000AA3
S31508006F60C64981F82A01019881F82B01002301AA54
S31508006F7040F242414FF4006002F092FF0198000A85
S31508006F80BE4981F82C01019881F82D01002301AA38
S31508006F904FF48061480002F083FF0198000AB74960
S31508006FA081F82E01019881F82F01002301AA40F2E9
S31508006FB001414FF4006002F073FF0198000AAF49DF
S31508006FC081F83001019881F83101002301AA40F2C5
S31508006FD0F5714FF4006002F063FF0198552802D15D
S31508006FE00020019001E0012001900198000AA349C0
S31508006FF081F83201019881F83301002301AA40F291
S31508007000F6714FF4006002F04BFF0198552802D143
S315080070100020019001E0012001900198000A97499B
S3150800702081F83401019881F83501002301AA40F25C
S31508007030E9714FF4006002F033FF0198000A8F49A6
S3150800704081F83601019881F83701002301AA40F238
S315080070504A414FF4006002F023FF0198000A87496D
S3150800706081F83801019881F83901002409E0C4F152
S315080070700D008349095C04F59D70804A1154601C13
S31508007080C4B20E2CF3DB002409E0C4F10D007D49DF
S31508007090095C04F5A570794A1154601CC4B20E2C1B
S315080070A0F3DB002424E004F58361002301AA4FF4EE
S315080070B0006002F0F5FE0198010EA00000F5AD7023
S315080070C06E4A11540198C0F30741A00000F25B1004
S315080070D011540198C0F30721A00000F5AE701154B1
S315080070E00198C1B2A00000F25D101154601CC4B230
S315080070F0082CD8DB002301AA40F255414FF4006062
S3150800710002F0CEFE0198000A5C4981F87A010198DE
S3150800711081F87B01002301AA40F256414FF4006032
S3150800712002F0BEFE0198000A544981F87C010198D4
S3150800713081F87D01002301AA40F257414FF400600F
S3150800714002F0AEFE0198000A4C4981F87E010198CA
S3150800715081F87F01002301AA4FF484614FF400608F
S3150800716002F09EFE0198000E444981F880010198BC
S31508007170000C81F881010198000A81F882010198C2
S3150800718081F88301002301AA40F20C414FF4006004
S3150800719002F086FE0198000E384981F884010198AC
S315080071A0000C81F885010198000A81F8860101988A
S315080071B081F88701002301AA40F20D414FF40060CF
S315080071C002F06EFE0198000E2C4981F8880101989C
S315080071D0000C81F889010198000A81F88A01019852
S315080071E081F88B01002301AA40F20E414FF400609A
S315080071F002F056FE0198000E204981F88C0101988C
S31508007200000C81F88D010198000A81F88E01019819
S3150800721081F88F01002301AA40F20F414FF4006064
S3150800722002F03EFE0198000E144981F8900101987B
S31508007230000C81F891010198000A81F892010198E1
S3150800724081F89301002301AA4FF482614FF400608C
S3150800725002F026FE0198000E084981F8940101986B
S31508007260000C81F895010198000A81F896010198A9
S3150800727081F89701002301AA06E00000D82700201C
S31508007280A60300209803002040F211414FF4006045
S3150800729002F006FE0198000E4F4981F89801019800
S315080072A0000C81F899010198000A81F89A01019861
S315080072B081F89B01002301AA40F212414FF40060B5
S315080072C002F0EEFD0198000E434981F89C010198F1
S315080072D0000C81F89D010198000A81F89E01019829
S315080072E081F89F01002301AA40F213414FF4006080
S315080072F002F0D6FD0198000E374981F8A0010198E1
S31508007300000C81F8A1010198000A81F8A2010198F0
S3150800731081F8A301002301AA40F214414FF400604A
S3150800732002F0BEFD0198000E2B4981F8A4010198D0
S31508007330000C81F8A5010198000A81F8A6010198B8
S3150800734081F8A701002301AA40F215414FF4006015
S3150800735002F0A6FD0198000E1F4981F8A8010198C0
S31508007360000C81F8A9010198000A81F8AA01019880
S3150800737081F8AB01002301AA40F216414FF40060E0
S3150800738002F08EFD0198000E134981F8AC010198B0
S31508007390000C81F8AD010198000A81F8AE01019848
S315080073A081F8AF01002301AA40F217414FF40060AB
S315080073B002F076FD0198000E074981F8B0010198A0
S315080073C0000C81F8B1010198000A81F8B201019810
S315080073D081F8B3013EBD0000D827002070470000A1
S315080073E010B5002403F08CFA0446C4B91B4800788B
S315080073F0401C1A49087008460078032812DD032045
S3150800740008701748007868B90023012240F2ED7128
S31508007410D00208F0E7FE01201149087002E00020BA
S315080074200E490870B4B10F480078401C0D49087021
S3150800743008460078032810DD0320087000231A4642
S3150800744040F2ED714FF4006008F0CCFE00200449CC
S31508007450087002E000200349087010BD0E030020E2
S31508007460100300200F03002010B5002403F03CFA97
S315080074700446C4B91B480078401C1A4908700846D7
S315080074800078032812DD032008701748007868B9C9
S315080074900023012240F2EC71D00208F0A3FE01207D
S315080074A01149087002E000200E490870B4B10F486F
S315080074B00078401C0D49087008460078032810DD3E
S315080074C00320087000231A4640F2EC714FF400605E
S315080074D008F088FE00200449087002E000200349ED
S315080074E0087010BD0B0300200D0300200C030020BC
S315080074F030B505460C46094802F0A4FF0346302B72
S3150800750009DA074840F823500021C03040F8231014
S31508007510024840F82340184630BD000008100020F5
S31508007520B811002010B56421014807F03DFB10BDD5
S31508007530F9D4000810B54FF4FA71044807F034FB83
S315080075406421034807F030FB10BD000021F0000855
S315080075505149000810B564210B4809F059F84FF451
S315080075607A710A4807F020FB4FF47A71084807F049
S315080075701BFB6421074807F017FB4FF4FA6106481E
S3150800758007F012FB10BD000065580008D50E01086B
S31508007590A50601089D5A0008157A000810B50122AB
S315080075A04021034801F0B5F800200249087010BDD3
S315080075B0001001409A0400204FF4FA5200FB02F131
S315080075C000BF0A1EA1F10101FBD1704738B50020A2
S315080075D0009000236A4640F2EC714FF4006002F016
S315080075E05FFC009810B900202549087000236A46F8
S315080075F040F2D2714FF4006002F052FC47F230516B
S315080076000098884201DD012038BD1D48007808B180
S315080076100020F9E700236A4640F2F5714FF400604E
S3150800762002F03EFC0098552803D016480078012839
S3150800763001D10020E8E706F0C7FE08B10020E3E71D
S31508007640002419E0104850F8241000236A464FF425
S31508007650006002F025FC009855280BD10A4850F81E
S31508007660240040F6C831884202D101200449087036
S315080076700020C9E7601CC4B2052CE3D30120C3E788
S315080076804A0400204C040020586B010838B5002035
S31508007690009000236A4640F2ED714FF4006002F054
S315080076A0FFFB009810B900202149087000236A469C
S315080076B040F2D2714FF4006002F0F2FB47F230510B
S315080076C00098884201DA012038BD1948007808B1C7
S315080076D00020F9E702F09DFD18B916480078012840
S315080076E001D10020F0E706F06FFE08B10020EBE7B5
S315080076F0002419E0104850F8241000236A464FF475
S31508007700006002F0CDFB009855280BD10A4850F8C6
S31508007710240040F6C931884202D101200449087084
S315080077200020D1E7601CC4B2052CE3D30120CBE7C7
S31508007730490400204C040020446B010808B50020C9
S31508007740009000236A464FF489614FF4006002F006
S31508007750A7FB009801280CD104F026F8012808D1C7
S3150800776000231A464FF48961C00208F03BFD04F075
S31508007770F7F80098A5280CD100231A464FF489611A
S315080077804FF4006008F02EFD01201349087004F03C
S31508007790E7F80098552809D100231A464FF489615D
S315080077A04FF4006008F01EFD04F0DAF800236A467C
S315080077B040F203414FF4006002F072FB4FF6FF718E
S315080077C00098884202D101200449087002F0F4FFAB
S315080077D001200349087008BD4D000020150000204F
S315080077E04F00002010B5FFF751FF012806D10020F1
S315080077F00BF098FD01201449087019E0124800782A
S3150800780080B1012003F0D0FD41F2883002F0CBFFB1
S3150800781001200BF087FD41F2883002F0C4FF0020FA
S3150800782003F0C2FD00200849087001200BF07AFD1C
S315080078300BF0D0FD18B100200AF0B8FD02E00120D7
S315080078400AF0B4FD10BD00005C04002008B5202035
S31508007850ADF8000003208DF8020004208DF803001F
S315080078606946024800F078FE08BD0000000801409D
S3150800787008B52020ADF8000003208DF8020014207A
S315080078808DF803006946024800F066FE08BD000050
S315080078900008014010B5012000F058F803F074FE06
S315080078A010BD000010B54FF4005000F055F828B18F
S315080078B04FF4005000F04AF803F066FE4FF400401B
S315080078C000F04AF800B34FF4004000F03FF80F48C4
S315080078D00078B8B10E480078082815DAFFF7D6FE02
S315080078E0012811D103F00CF870B9012003F05CFDF2
S315080078F0012003F08FFD04200AF058FD05200549F4
S31508007900087001E003F040FE10BD00004F000020A3
S31508007910510000205000002010B5082000F016F88D
S3150800792003F032FE10BD10B5102000F00FF803F07A
S315080079302BFE10BD10B5202000F008F84FF480701B
S3150800794000F004F803F020FE10BD000001490860AD
S315080079507047000014040140014600200022074B2E
S315080079601B6803EA0102054B14331B680B4013B16D
S315080079700AB1012000E00020704700000004014021
S31508007980002123498279002A3AD00A4612680368F8
S315080079909A430B461A600A1D126803689A430B1D20
S315080079A01A60027911440A6803681A430A60184A79
S315080079B00832126803689A43154B08331A601A1D71
S315080079C0126803689A43124B0C331A604279102ADC
S315080079D00ED11A1F126803681A430D4B08331A6032
S315080079E01A1D126803681A43094B0C331A600DE016
S315080079F00749427911440A6803681A430A6005E090
S31508007A00027911440A6803689A430A6070470000BD
S31508007A10000401402DE9F041104800681049096842
S31508007A20451A002D00DA6D4201F0BEF8044647F209
S31508007A303050844210DA071B95FBF7F6C6EB0610A2
S31508007A408000642190FBF1F60023324640F2EA7189
S31508007A504FF4006008F0C6FBBDE8F0810C04002076
S31508007A60080400207CB504460020019000900025FB
S31508007A7040F6A970FEF726FB40B1A07820F0030077
S31508007A80401CA07001203A490870102540F6AA70DB
S31508007A90FEF718FB40B1A07820F00300401CA07048
S31508007AA0012033490870112540F6AC70FEF70AFB31
S31508007AB040B1A07820F00300401CA07001202C499A
S31508007AC00870122540F6AD70FEF7FCFA40B1A078B2
S31508007AD020F00300401CA0700120254908701325DA
S31508007AE0002301AA40F2D1714FF4006002F0D8F9E0
S31508007AF000236A464FF4FC614FF4006002F0D0F9A7
S31508007B0040F2DC510098884202DB0198322814DAE8
S31508007B1018480078401C17490870084600780A2853
S31508007B200EDD0A200870E07820F00C00001DE070D9
S31508007B3001200F490870172502E000200D4908703A
S31508007B4040F6A470FEF7BEFA18B10120084908707D
S31508007B50342507480078012806D100232A4640F232
S31508007B60EB71C00208F03EFB014800787CBD0000BE
S31508007B7011030020120300200549096821F01001AD
S31508007B80034A1160114609680143116070470000F5
S31508007B900020024001460020034A106800F0380021
S31508007BA008431060704700000020024010B500220C
S31508007BB02021074800F0ADFD01224021044800F0CD
S31508007BC0A8FD00224021024800F0A3FD10BD0000D8
S31508007BD0000801402DE9F04105460E4617460120EA
S31508007BE00AF00AFA00F084F8A02000F0FBF804F086
S31508007BF09DFF38B900F094F800200AF0FDF900203E
S31508007C00BDE8F081301200F0EDF804F08FFF30B9CE
S31508007C1000F086F800200AF0EFF90020F0E7F0B24D
S31508007C2000F0E0F804F082FF30B900F079F800209F
S31508007C300AF0E2F90020E3E700F05AF8A12000F084
S31508007C40D1F804F073FF30B900F06AF800200AF0A2
S31508007C50D3F90020D4E700241AE000F025F805F847
S31508007C60010B781EA0420FD1012220210D4800F0F9
S31508007C7050FD012240210B4800F04BFD0022402117
S31508007C80084800F046FD01E0FFF790FF601C84B24B
S31508007C90BC42E2DB00F044F800200AF0ADF901200E
S31508007CA0AEE700000008014070B50024FFF7CEFDDE
S31508007CB0002515E06006040E012240210B4800F05D
S31508007CC028FD2021094800F01BFD012801DB44F0AE
S31508007CD0010400224021054800F01BFD681CC5B2BE
S31508007CE0082DE7DBFFF7C4FD204670BD00080140FC
S31508007CF010B501224021094800F00BFD0122202180
S31508007D00064800F006FD00222021044800F001FD87
S31508007D1000224021014800F0FCFC10BD000801408B
S31508007D2010B500222021074800F0F3FC012240216B
S31508007D30044800F0EEFC01222021024800F0E9FC8C
S31508007D4010BD0000000801402DE9F04104460D462B
S31508007D50174601200AF050F9FFF7CAFFA02000F0E5
S31508007D6041F804F0E3FE38B9FFF7DAFF00200AF01D
S31508007D7043F90020BDE8F081281200F033F804F03A
S31508007D80D5FE30B9FFF7CCFF00200AF035F9002000
S31508007D90F0E7E8B200F026F804F0C8FE30B9FFF7BD
S31508007DA0BFFF00200AF028F90020E3E700260FE0CD
S31508007DB014F8010B00F016F804F0B8FE30B9FFF716
S31508007DC0AFFF00200AF018F90020D3E7701C86B22E
S31508007DD0BE42EDDBFFF7A4FF00200AF00DF90120F3
S31508007DE0C8E7000070B5044600251CE004F08006CC
S31508007DF06006040E802E05D1012220210B4800F0D2
S31508007E0088FC04E000222021084800F082FC0122B8
S31508007E104021064800F07DFC00224021034800F07E
S31508007E2078FC681CC5B2082DE0DB70BD000801406F
S31508007E301CB50020019057200090002301AA40F2AB
S31508007E40F4714FF4006002F02BF800236A4640F202
S31508007E504A414FF4006002F023F8DDE90010884239
S31508007E6016DB29480078401C274908700020274956
S31508007E700870254800781E2826DB1E20224908702F
S31508007E800023012240F6AE71D00208F0ABF91BE0E0
S31508007E900198C01C0099884216DC1C480078401CD2
S31508007EA01A490870002018490870184800781E28D2
S31508007EB00ADB1E201549087000231A4640F6AE71E3
S31508007EC04FF4006008F08EF9002301AA40F6AE715F
S31508007ED04FF4006001F0E4FF0198012809D106205B
S31508007EE00AF064FA0A48007840F020000849087049
S31508007EF008E00748007800F0DF0005490870072009
S31508007F000AF054FA1CBD0000690400206A04002027
S31508007F101B00002070B504460D46242D73D2DFE8F9
S31508007F2005F07212304A5158738DA7C1F5F3F2F174
S31508007F30F0EFEEEDECEBEAE9E8E7E6E5E4E3E2E1AB
S31508007F40E0DFDEDDDCDB0BF07FFC06460BF058FCE1
S31508007F5006433EB1D948007820F00300801CD74973
S31508007F6008700DE034B1D548007864F30100D349B0
S31508007F70087005E0D148007820F00300CF49087062
S31508007F809AE10BF085FC38B1CC48007820F00C005B
S31508007F900830CA4908700DE034B1C848007864F35F
S31508007FA08300C649087005E0C448007820F00C0034
S31508007FB0C249087080E1C148007864F30510BF49DA
S31508007FC0087079E1BD48007864F38710BB490870EA
S31508007FD072E10BF061FB38B1B848407820F0030035
S31508007FE0801CB64948700DE034B1B448407864F353
S31508007FF00100B249487005E0B048407820F0030017
S31508008000AE49487058E156E10BF06AFB38B1AB4807
S31508008010407820F00C000830A84948700DE034B1CB
S31508008020A648407864F38300A449487005E0A3484D
S31508008030407820F00C00A14948703DE10BF074FB34
S3150800804038B19E48407820F0300020309B4948706F
S315080080500DE034B19948407864F3051097494870A3
S3150800806005E09648407820F030009449487023E1AE
S315080080700BF07EFB38B19148407820F0C000803084
S315080080808E4948700DE034B18C48407864F3871007
S315080080908A49487005E08948407820F0C000874939
S315080080A0487009E10BF018FC38B18448807820F054
S315080080B00300801C814988700DE034B17F488078C0
S315080080C064F301007D49887005E07C48807820F0DB
S315080080D003007A498870EFE0E6E0DCE0D2E0CAE027
S315080080E0C2E0BAE0B2E0AAE0A2E090E088E080E070
S315080080F078E070E068E060E058E050E048E046E08C
S315080081003EE036E02EE026E01EE0FFE70BF02CFC12
S3150800811006460BF04DFC06433EB16848807820F0D1
S315080081200C000830654988700DE034B163488078E2
S3150800813064F383006149887005E06048807820F020
S315080081400C005E498870B7E05C48807864F30510D7
S315080081505A498870B0E05948807864F387105749BF
S315080081608870A9E05548C07864F301005349C8707F
S31508008170A2E05248C07864F383005049C8709BE077
S315080081804E48007964F300004C49087194E093E086
S315080081904A48007964F38200484908718CE04748E8
S315080081A0007964F3C3004549087100BF4348007964
S315080081B064F30410414908717EE04048007964F38D
S315080081C045103E49087177E03C48007964F386100B
S315080081D03A49087170E03948007964F3C71037499D
S315080081E0087169E03548407964F3000033494871FD
S315080081F062E03248407964F34100304948715BE0F7
S315080082002E48407964F382002C49487154E034B111
S315080082102A48407964F3C3002849487107E00CF0FE
S31508008220AFFE2649497960F3C3012448417100BF6E
S315080082302248407964F30410204948713CE01F48FD
S31508008240407964F345101D49487135E01B4840796B
S3150800825064F38610194948712EE01848407964F38A
S31508008260C7101649487127E01448807964F300005E
S315080082701249887120E01148807964F341000F495A
S31508008280887119E00BF04CFB0C49897960F382017F
S315080082900A48817110E00BF08FFA0849897960F372
S315080082A0C3010648817107E00448807964F3041025
S315080082B00249887100E000BF00BF70BDBC03002002
S315080082C010B5234800780A2806DB002020490870E4
S315080082D000F048F800F08AF81D484078322804DB98
S315080082E008F0B6FE00201A4948701948C0781E28BA
S315080082F002DB00201649C87015488078642802DB1E
S3150800830000201349887012480079642804DB00208D
S315080083100F4908710F4908700D484079642804DB35
S3150800832000200B4948710C4908700948807964286F
S3150800833002DB0020064988710548C079642806DBF7
S3150800834000200349C871054908700549087010BD21
S31508008350B4030020B30400209A040020A4040020DB
S31508008360F104002008B500236A4640F2D1714FF4A3
S31508008370006001F095FD0098000A1B4948710098B5
S31508008380C1B21948817100236A4640F2D2714FF48E
S31508008390006001F085FD0098010A1348C171009834
S315080083A0C1B21148017200236A4640F2D3714FF4F4
S315080083B0006001F075FD0098010A0B4841720098AB
S315080083C0C1B20948817200236A4640F2E9714FF446
S315080083D0006001F065FD0098010A0348C172009823
S315080083E0C1B20148017308BD9806002008B50023EC
S315080083F06A4640F2D1714FF4006001F051FD0098D1
S31508008400010A1B4841750098C1B2194881750023B5
S315080084106A4640F2D2714FF4006001F041FD0098BF
S31508008420010A1348C1750098C1B2114801760023A4
S315080084306A4640F2D3714FF4006001F031FD0098AE
S31508008440010A0B4841760098C1B209488176002393
S315080084506A4640F2E9714FF4006001F021FD009888
S31508008460010A0348C1760098C1B20148017708BDE0
S315080084709806002010B50648007838B105480078F7
S3150800848020B90AF0D1FA00200149087010BD000091
S31508008490840300207703002010B56420194908607A
S315080084A00820087318480088052824DA1748007831
S315080084B0012820D100240AE01348008804EBC000F4
S315080084C01349095C0F48001D0155601CC4B2082CED
S315080084D0F2DB0D480088401C0B49088009480178E2
S315080084E0021D0C480078FCF7B3F80621AFF25700D6
S315080084F0FEF7FEFF04E000200449087002490880E0
S3150800850010BD0000880600207403002077030020B1
S31508008510560600206803002030B500228B071C0F82
S315080085200F2303FA04F20B4B8C1053F824309343B1
S31508008530084C8D1044F8253023468C1053F8243007
S315080085408C07240F00FA04F42343024C8D1044F8D8
S31508008550253030BD080001402DE9F04102460025CE
S315080085600026002000230024002791F803C00CF001
S315080085700F0591F803C00CF0100CBCF1000F03D0E6
S3150800858091F802C04CEA050591F800C0BCF1000F4D
S3150800859031D0146800202BE04FF0010C0CFA00F3E0
S315080085A0B1F800C00CEA03069E4220D183004FF0C2
S315080085B00F0C0CFA03F7BC4305FA03FC4CEA040457
S315080085C091F803C0BCF1280F06D14FF0010C0CFA44
S315080085D000FCC2F814C00AE091F803C0BCF1480FC9
S315080085E005D14FF0010C0CFA00FCC2F810C0401C73
S315080085F00828D1D31460B1F800C0BCF1FF0F34DDF0
S31508008600546800202EE000F1080C4FF0010808FA23
S315080086100CF3B1F800C00CEA03069E4221D1830090
S315080086204FF00F0C0CFA03F7BC4305FA03FC4CEAAF
S31508008630040491F803C0BCF1280F05D100F1080C19
S3150800864008FA0CF8C2F8148091F803C0BCF1480F78
S3150800865007D100F1080C4FF0010808FA0CF8C2F827
S315080086601080401C0828CED35460BDE8F081000075
S31508008670F0B50A46002300240021002500F0004634
S31508008680B6F1004F02D11D4EF16901E01B4E71682B
S31508008690C0F3034583B200F44016B6F5401F08D16F
S315080086A021F07061154E766826F07066134F7E606D
S315080086B012E000F48016B6F5801F06D1032606FAE6
S315080086C005F4A14341F0706106E0460D360103FA50
S315080086D006F6B14341F0706122B1460D360103FA40
S315080086E006F6314300F00046B6F1004F02D1034EBC
S315080086F0F16101E0014E7160F0BD0000000001402B
S315080087000246002093680B400BB1012000E00020D0
S3150800871070470AB1016100E0416170471FB500204A
S3150800872000900190029003900F4800880F4909882D
S31508008730884218D00C48008800EB800202EBC00083
S315080087400B4A81180D226846FBF7ECFC684601F0D7
S315080087509CFE05480088401C142190FBF1F201FBA1
S315080087601200014908801FBDAC040020AA0400209D
S31508008770EA2200201FB50020009001900290039085
S315080087801348008813490988884220D0124800787F
S31508008790E8B90120104908700D48008800EB8002EE
S315080087A002EBC0000D4A81180D226846FBF7BAFC99
S315080087B068460AF089FC012809D105480088401C4A
S315080087C01E2190FBF1F201FB1200014908801FBD32
S315080087D0A8040020A6040020AE040020642100207E
S315080087E038B500240020009000236A4640F6A6719A
S315080087F04FF4006001F054FB0098012802D144F0C0
S31508008800010404E00098022801D144F00204002380
S315080088106A4640F6A7714FF4006001F041FB0098E4
S31508008820012802D144F0040404E00098022801D18A
S3150800883044F0080400236A464FF47A614FF4006056
S3150800884001F02EFB0098012802D144F0100404E040
S315080088500098022801D144F0200400236A4640F615
S31508008860A1714FF4006001F01BFB0098012802D1AA
S3150800887044F0400404E00098022801D144F0800442
S3150800888000236A4640F6AC714FF4006001F008FB1D
S315080088900098012802D144F4807404E00098022864
S315080088A001D144F4007400236A4640F6AD714FF4D2
S315080088B0006001F0F5FA0098012802D144F48064BA
S315080088C004E00098022801D144F40064204638BD2B
S315080088D038B5002400236A4640F6A4714FF40060B8
S315080088E001F0DEFA0098012802D144F0010404E000
S315080088F00098022801D144F0020400236A4640F693
S31508008900A5714FF4006001F0CBFA0098012802D156
S3150800891044F0040404E00098022801D144F0080455
S3150800892000236A4640F6A2714FF4006001F0B8FAD7
S315080089300098012802D144F0100404E000980228A7
S3150800894001D144F0200400236A4640F6A3714FF48F
S31508008950006001F0A5FA0098012802D144F040040D
S3150800896004E00098022801D144F0800400236A46F6
S3150800897040F6A8714FF4006001F092FA00980128B9
S3150800898002D144F4807404E00098022801D144F42A
S31508008990007400236A4640F6AB714FF4006001F09C
S315080089A07FFA0098012802D144F4806404E0009814
S315080089B0022801D144F40064204638BD38B50024A5
S315080089C000236A4640F6AF714FF4006001F068FA7A
S315080089D0009808B144F0010400236A4640F6AE71D7
S315080089E04FF4006001F05CFA009808B144F0020404
S315080089F000236A4640F6B1714FF4006001F050FA60
S31508008A00009808B144F0040400236A464FF47B61D9
S31508008A104FF4006001F044FA009808B144F00804E5
S31508008A2000236A4640F6B3714FF4006001F038FA45
S31508008A30009808B144F0100400236A4640F6B47161
S31508008A404FF4006001F02CFA009808B144F02004B5
S31508008A5000236A4640F6B5714FF4006001F020FA2B
S31508008A60009808B144F0400400236A4640F6B47101
S31508008A704FF4006001F014FA009808B144F080043D
S31508008A8000236A4640F6B9714FF4006001F008FA0F
S31508008A90009808B144F4807400236A4640F6BA7117
S31508008AA04FF4006001F0FCF9009808B144F4007432
S31508008AB000236A4640F6BB714FF4006001F0F0F9F6
S31508008AC0009808B144F4806400236A4640F6BC71F5
S31508008AD04FF4006001F0E4F9009808B144F400642A
S31508008AE000236A4640F6BD714FF4006001F0D8F9DC
S31508008AF0009808B144F48054204638BD38B500249F
S31508008B0000236A4640F6BF714FF4006001F0C8F9C9
S31508008B10009808B144F0010400236A464FF47C61CA
S31508008B204FF4006001F0BCF9009808B144F0040461
S31508008B3000236A4640F6C1714FF4006001F0B0F9AF
S31508008B40009808B144F00804204638BD38B500201E
S31508008B500090002400236A4640F6B8314FF40060BE
S31508008B6001F09EF940F6A670FDF7ACFA18B1009828
S31508008B70552800D10124204638BD38B5002000907C
S31508008B80002400236A4640F6B9314FF4006001F02C
S31508008B9087F940F6A770FDF795FA18B10098552899
S31508008BA000D10124204638BD0021002000BF05E081
S31508008BB0054A52F8212010444A1CD1B20A29F7DB8B
S31508008BC00A2290FBF2F07047E007002002460021D7
S31508008BD008E0064850F82100904201D1012070476C
S31508008BE0481CC1B20429F4D30020F8E7985A0108B2
S31508008BF038B504460D460020009000236A4640F228
S31508008C00D1714FF4006001F04BF90098000A1D4934
S31508008C1008700098487000236A464FF4FA614FF4CA
S31508008C20006001F03DF90098000A1649887000981E
S31508008C30C87000236A4640F2D2714FF4006001F012
S31508008C402FF94EF660210098081A00900098000A3D
S31508008C500C4908710098487100236A4640F2E97188
S31508008C604FF4006001F01CF90098000A0549887164
S31508008C700098C8710A4690212046FBF7E9FC0120B6
S31508008C8038BD00009003002038B504460D46002084
S31508008C90009000236A4640F2DF714FF4006001F04D
S31508008CA0FFF80098000A17490870009848700023D2
S31508008CB06A4640F2E5714FF4006001F0F1F8114997
S31508008CC00098887000236A464FF4FC614FF40060F0
S31508008CD001F0E6F80098000A0A49C8700098087179
S31508008CE000236A4640F2E6714FF4006001F0D8F8B6
S31508008CF00449009848710A4691212046FBF7A8FCCA
S31508008D00012038BD9003002038B504460D460020E2
S31508008D10009000236A4640F2E1714FF4006001F0CA
S31508008D20BFF815490098087000236A4640F2E771B3
S31508008D304FF4006001F0B4F80F490098487000231A
S31508008D406A4640F2E2714FF4006001F0A9F80A4958
S31508008D500098887000236A464FF4FD614FF400605E
S31508008D6001F09EF804490098C8700A4692212046E8
S31508008D70FBF76EFC012038BD900300207CB5044645
S31508008D800D46002001900090002301AA40F2D371FD
S31508008D904FF4006001F084F8234901980870002315
S31508008DA001AA40F2D9714FF4006001F079F81E4922
S31508008DB001984870002301AA4FF4FB614FF4006044
S31508008DC001F06EF818490198887018480078C8703C
S31508008DD0002301AA40F2F6314FF4006001F060F872
S31508008DE000236A4640F2E9714FF4006001F058F832
S31508008DF0DDE9001048434FF47A7190FBF1F00190D9
S31508008E000198000E084908710198000C48710198EC
S31508008E10000A88710198C8710A4693212046FBF713
S31508008E2017FC01207CBD000090030020C40300202D
S31508008E3038B504460D460020009000236A4640F2E5
S31508008E40D6714FF4006001F02BF82349009808709A
S31508008E5000236A4640F2D7714FF4006001F020F80B
S31508008E601D490098487000236A4640F2EC714FF499
S31508008E70006001F015F818490098887000236A46C2
S31508008E8040F2ED714FF4006001F00AF812490098BB
S31508008E90C87012480078087100236A4640F2FE310D
S31508008EA04FF4006000F0FCFF0098000A0A49487178
S31508008EB00098887100236A4640F2F4714FF4006006
S31508008EC000F0EEFF04490098C8710A46942120462E
S31508008ED0FBF7BEFB012038BD900300201B000020D5
S31508008EE070B59AB005460E46602102A8FBF733F91D
S31508008EF0002001900024009000236A4640F2D671B3
S31508008F004FF4006000F0CCFF00BF13E021460123B8
S31508008F1001AA980200F0C4FF0198C0F3072002A92D
S31508008F2001F81400012101EB440102AA01985054EA
S31508008F30601CC4B200988442E8DB002423E00620C3
S31508008F4094FBF0F100FB1140401C124902AA125D85
S31508008F500A54601C062190FBF1F201FB120028B1AD
S31508008F6001210098C1EB4000A0420AD1062094FBDB
S31508008F70F0F0401C074908700A4695212846FBF779
S31508008F8067FB601CC4B20098B4EB400FD7DB012026
S31508008F901AB070BD9003002070B588B006460D461D
S31508008FA0142103A8FBF7D7F80020029000240190AB
S31508008FB02878AA280CD1A87829498880E878C88012
S31508008FC0287908816879488101202649087002E0D5
S31508008FD0002024490870002301AA40F2D7714FF4F3
S31508008FE0006000F05DFF0620019000240BE004F10C
S31508008FF03001012302AA980200F052FF03A9029841
S315080090000855601CC4B201988442F0DB002421E0B4
S31508009010072094FBF0F100FB1140401C124903AAFB
S31508009020125D0A54601C072190FBF1F201FB120045
S3150800903018B10198401EA0420AD1072094FBF0F00F
S31508009040401C094908700A4696213046FBF700FB82
S31508009050601CC4B201988442DADB012008B070BDF6
S31508009060CA040020EE0400209003002070B50446D0
S315080090700D4610480078104908700E484078487028
S315080090800C48807888700B48C078C8700948007901
S3150800909008710848407948710648807988710548FA
S315080090A0C079C8710A4697212046FBF7D1FA0120F4
S315080090B070BD0000D40200209003002070B504465D
S315080090C00D4610480078104908700E4840784870D8
S315080090D00C48807888700B48C078C87009480079B1
S315080090E008710848407948710648807988710548AA
S315080090F0C079C8710A4698212046FBF7A9FA0120CB
S3150800910070BD0000BC03002090030020F8B505469A
S315080091100E460020009000242148007818B101204E
S315080091202049087002E000201E49087000201D49E9
S31508009130087000236A4640F2F7714FF4006000F0A9
S31508009140AFFE47F2305000900098000A1549487063
S315080091500098887000236A464FF47C714FF40060CB
S3150800916000F09EFE00200F49C87000240AE00C4853
S3150800917000780121A140084018B1601C0949C8704F
S3150800918003E0641C00988442F1D300BF002005491F
S31508009190C8700A4699212846FBF75AFA0120F8BDF5
S315080091A0D4020020900300200246002108E0064869
S315080091B050F82100904201D101207047481CC1B2E5
S315080091C00429F4D30020F8E7A85A010838B504465C
S315080091D000200090002540F6A670FCF773FF28B91A
S315080091E00AF032FB10B90AF00BFB88B100236A4675
S315080091F040F2DF714FF4006000F052FE0098B0F5BF
S31508009200965F05DA207820F03000103020700125AE
S315080092104FF47A60FCF756FF28B1207820F00C004E
S31508009220001D20700125284638BD0146002903DBAC
S315080092300F2901DC012018E0102903DB4F2901DC86
S31508009240022012E0502903DB8F2901DC03200CE001
S31508009250902903DBBF2901DC042006E0D02903DBC3
S31508009260EF2901DC052000E000207047F8B5044628
S315080092700E4600250020009000236A4640F2F6318B
S315080092804FF4006000F00CFE0098000E12490870BA
S315080092900098000C48700098000A88700098C870FA
S315080092A000236A4640F2F9314FF4006000F0F8FDF9
S315080092B00098000E084908710098000C487100983B
S315080092C0000A88710098C8710A4650212046FBF7A3
S315080092D0BFF92846F8BD000090030020F8B50446FB
S315080092E00E4600250020009000236A4640F2EF3122
S315080092F04FF4006000F0D4FD25490098087000235B
S315080093006A464FF47C714FF4006000F0C9FD2049AD
S315080093100098487000236A4640F2F1314FF4006025
S3150800932000F0BEFD1A490098887000236A4640F28C
S31508009330F2314FF4006000F0B3FD15490098C8708B
S3150800934000236A4640F2F3314FF4006000F0A8FDAE
S315080093500F490098087100236A464FF47D714FF44F
S31508009360006000F09DFD0A490098487100236A468E
S3150800937040F2F5314FF4006000F092FD0449009880
S3150800938088710A4651212046FBF762F92846F8BD3E
S3150800939090030020F8B504460E46002500200090EC
S315080093A000236A4640F2FA314FF4006000F078FD77
S315080093B04FF47A71009890FBF1F000900098000E37
S315080093C0154908700098000C48700098000A8870C3
S315080093D00098C87000236A4640F2FB314FF40060DB
S315080093E000F05EFD4FF47A71009890FBF1F0009062
S315080093F00098000E084908710098000C48710098FA
S31508009400000A88710098C8710A4652212046FBF75F
S315080094101FF92846F8BD000090030020F8B5044659
S315080094200E4600250020009000236A464FF47E7100
S315080094304FF4006000F034FD1F49009808700023BF
S315080094406A4640F202414FF4006000F029FD1A49CD
S315080094500098487000236A464FF484614FF4006010
S3150800946000F01EFD0098000E134988700098000C45
S31508009470C8700098000A087100236A4640F2034142
S315080094804FF4006000F00CFD0098000A0A49487184
S315080094900098887100236A4640F259414FF40060EB
S315080094A000F0FEFC04490098C8710A46532120467C
S315080094B0FBF7CEF82846F8BD90030020F8B5044619
S315080094C00E4600250020009000236A4640F20A4115
S315080094D04FF4006000F0E4FC0098000E1249087092
S315080094E00098000C48700098000A88700098C870A8
S315080094F000236A4640F20B414FF4006000F0D0FCAE
S315080095000098000E084908710098000C48710098E8
