S31508004000B83E002001410008A1C90008D1C1000836
S315080040109DC90008FD510008F928010800000000A4
S3150800402000000000000000000000000079ED000814
S315080040308976000800000000F5CA00081117010873
S315080040401B4100081B4100081B410008BDDA000897
S315080040501B4100081B410008A97B00081B410008FA
S315080040601B410008297C0008377C00081B41000812
S315080040701B4100081B4100081B4100081B410008A2
S315080040801B4100081B4100081B4100086F25010859
S31508004090712501081B4100081B410008457C0008E2
S315080040A01B4100081B4100081B4100081B41000872
S315080040B01B4100081B4100081B4100081B41000862
S315080040C01B4100081B4100081B4100081B41000852
S315080040D01B410008ED1D0108AD1E0108751F0108EA
S315080040E0B97B0008F9D600081B410008DFF80CD098
S315080040F000F03CF80048004765470108B83E002034
S315080041000648804706480047FEE7FEE7FEE7FEE763
S31508004110FEE7FEE7FEE7FEE7FEE7FEE79117010882
S31508004120ED40000840EA01039B0703D009E008C9EF
S31508004130121F08C0042AFAD203E011F8013B00F85E
S31508004140013B521EF9D27047D2B201E000F8012BAA
S31508004150491EFBD270470022F6E710B513460A46F9
S3150800416004461946FFF7F0FF204610BD064C074DDA
S3150800417006E0E06840F0010394E807009847103429
S31508004180AC42F6D3FFF7B6FF80950108A095010863
S3150800419070B58C1810F8015B15F0070301D110F8FB
S315080041A0013B2A1106D110F8012B03E010F8016B28
S315080041B001F8016B5B1EF9D12B0705D40023521EAB
S315080041C00DD401F8013BFAE710F8013BCB1A921C13
S315080041D003E013F8015B01F8015B521EF9D5A14211
S315080041E0D8D3002070BD21B1826842F001028260F6
S315080041F003E0826822F001028260704710B5044627
S315080042001248844208D10121401508F0ABFF00216D
S31508004210601508F0A7FF17E00D48844208D1012170
S31508004220001508F09FFF0021201508F09BFF0BE002
S315080042300848844208D10121C80308F093FF0021E9
S315080042404FF4004008F08EFF10BD00000024014026
S3150800425000280140003C0140014600208A6802F01F
S3150800426004020AB1012000E0002070470146C86C2C
S3150800427080B270470246002013680B400BB101203C
S3150800428000E000207047014600208A6802F0080214
S315080042900AB1012000E000207047000030B5024650
S315080042A00020002350680F4C20400D790C6844EA22
S315080042B005242043506090680B4C2040D1E90254F5
S315080042C02C434D7944EA450420439060D06A20F493
S315080042D070000C7C641EE4B2234340EA0350D062AB
S315080042E030BD0000FFFEF0FFFDF7F1FF10B506F048
S315080042F0B5FD30B10E48007840F001000C49087051
S3150800430005E00B48007800F0FE000949087006F041
S31508004310B1FD30B10648007840F002000449087043
S3150800432005E00348007800F0FD000149087010BD5B
S315080043301B000020F0B504460D4600200021092D7B
S3150800434011DDE068A5F10A0606EB4607072606FA18
S3150800435007F18843A5F10A0606EB460603FA06F1B5
S315080043600843E0600CE0206905EB4507072606FAD6
S3150800437007F1884305EB450603FA06F10843206171
S31508004380072A0FDA606B561E06EB86071F2606FA03
S3150800439007F18843561E06EB860605FA06F108431A
S315080043A0606322E00D2A0FDA206BD61F06EB86071C
S315080043B01F2606FA07F18843D61F06EB860605FA76
S315080043C006F10843206310E0E06AA2F10D0606EB49
S315080043D086071F2606FA07F18843A2F10D0606EBA3
S315080043E0860605FA06F10843E062F0BD816841F0E9
S315080043F008018160704721B1826842F4A002826098
S3150800440003E0826822F4A00282607047816841F066
S31508004410040181607047000010B504461148008801
S31508004420401C142190FBF1F201FB12000E49098889
S31508004430884215D00B49098801EB810202EBC101BC
S315080044400A4A88180D222146FFF76CFE054800889F
S31508004450401C142190FBF1F201FB1200014908806F
S3150800446010BD0000CA040020CC040020FC21002056
S3150800447010B5044614480088401C1E2190FBF1F232
S3150800448001FB12001149098888421BD0E07808B957
S315080044900820E0700C49098801EB810202EBC10192
S315080044A00B4A88180D222146FFF73CFE064800886D
S315080044B0401C1E2190FBF1F201FB12000249088004
S315080044C0012010BD0020FCE7C6040020C804002017
S315080044D07620002030B50F490988491C142291FB23
S315080044E0F2F302FB13110C4A1288914211D00B49C0
S315080044F0084A128801EB021190E83C003CC10549C4
S315080045000988491C142291FBF2F302FB1311014A94
S31508004510118030BDB8040020BA040020AC1C00206D
S3150800452030B5014618480088401C1E2290FBF2F35D
S3150800453002FB1300154A1288904222D0087B08B95C
S31508004540082008730868B0F5006F02D9012088733F
S3150800455001E000208873002048730D480A4A128833
S3150800456000EB021091E83C003CC007480088401C5C
S315080045701E2290FBF2F302FB1300034A108001206F
S3150800458030BD0020FCE70000B4040020B60400207B
S31508004590CC1A002070B5174C2488641C142594FB8B
S315080045A0F5F605FB1644144D2D88AC4221D0134C64
S315080045B0104D2D8804EB05142060104C0D4D2D88E8
S315080045C004EB051421710D4C0A4D2D8804EB0514D6
S315080045D0A2600A4C074D2D8804EB05142373054C7D
S315080045E02488641C142594FBF5F605FB1644014D36
S315080045F02C8070BDA0030020A2030020F006002036
S3150800460010B5044611480088401C142190FBF1F2AD
S3150800461001FB12000E490988884215D00B49098802
S3150800462001EB810202EBC1010A4A88180D222146D4
S31508004630FFF778FD05480088401C142190FBF1F22D
S3150800464001FB12000149088010BD0000D4040020B7
S31508004650D60400208624002010B504461448008895
S31508004660401C1E2190FBF1F201FB1200114909883A
S3150800467088421BD0E07808B90820E0700C49098800
S3150800468001EB810202EBC1010B4A88180D22214673
S31508004690FFF748FD06480088401C1E2190FBF1F2F2
S315080046A001FB120002490880012010BD0020FCE72A
S315080046B0D0040020D20400200023002070B58AB060
S315080046C006460D4614460020069007900890099065
S315080046D0029003900490059001200190002000901C
S315080046E0002301AA40F249414FF4006005F024FE78
S315080046F000236A4640F261414FF4006005F01CFE53
S31508004700002E34D1A5208DF818006248006810B92B
S315080047100098012804D10198C0B28DF8190002E06A
S3150800472001208DF819008DF81A5008208DF81B0005
S3150800473020788DF81C0061788DF81D10A1788DF809
S315080047401E10E1788DF81F10217906A8017261798B
S315080047504172A1798172E179C17206A80FC808F081
S3150800476079FF8DF8240006A800F01CF98FE0022EC8
S3150800477029D1A5208DF8180001208DF819008DF88B
S315080047801A5008208DF81B0020788DF81C006178D7
S315080047908DF81D10A1788DF81E10E1788DF81F1080
S315080047A0217906A8017261794172A1798172E1794C
S315080047B0C17206A80FC808F04DFF8DF8240006A898
S315080047C0FFF756FE63E0032E29D1A5208DF81800C1
S315080047D001208DF819008DF81A5008208DF81B0055
S315080047E020788DF81C0061788DF81D10A1788DF859
S315080047F01E10E1788DF81F10217906A801726179DB
S315080048004172A1798172E179C17206A80FC808F0D0
S3150800481021FF8DF8240006A8FFF71EFF37E0012EBA
S3150800482035D11C48006810B90098012809D14FF005
S31508004830C05000EB054000F58040019908440290FD
S3150800484007E04FF0C05000EB054000F58040401CE3
S31508004850029008208DF8140020788DF80C006178F5
S315080048608DF80D10A1788DF80E10E1788DF80F10DF
S3150800487021798DF8101061798DF81110A1798DF8CC
S315080048801210E1798DF8131002A8FFF749FE0AB055
S3150800489070BD0000B004002010B504461148008819
S315080048A0401C052190FBF1F201FB12000E49098814
S315080048B0884215D00B49098801EB01110B4A02EB16
S315080048C001104FF488722146FFF72CFC0548008832
S315080048D0401C052190FBF1F201FB120001490880FA
S315080048E010BD0000280500202A05002052340020AB
S315080048F010B5044612480088401C052190FBF1F2C9
S3150800490001FB12000F490988884217D00C4909880B
S3150800491001EB01110C4A02EB01104FF48872214693
S31508004920FFF700FC06480088401C052190FBF1F2C1
S3150800493001FB120002490880012010BD0020FCE797
S315080049402405002026050020022F002010B5044665
S3150800495011480088401C142190FBF1F201FB12005B
S315080049600E490988884215D00B49098801EB81024E
S3150800497002EBC1010A4A88180D222146FFF7D2FB2D
S3150800498005480088401C142190FBF1F201FB120037
S315080049900149088010BD0000C0040020C2040020A0
S315080049A0721F002010B5044614480088401C1E21BA
S315080049B090FBF1F201FB12001149098888421BD0CD
S315080049C0E07808B90820E0700C49098801EB8102F3
S315080049D002EBC1010B4A88180D222146FFF7A2FBFC
S315080049E006480088401C1E2190FBF1F201FB1200CC
S315080049F002490880012010BD0020FCE7BC04002005
S31508004A00BE040020EC1D00207CB5002400250020F3
S31508004A100190009000BFACE004EB4400664951F8F1
S31508004A20200040F6A271884208D004EB440062498F
S31508004A3051F8200040F6A471884217D1002301AA34
S31508004A4040F2D3714FF4006005F076FCC0B30198CC
S31508004A50022836D104EB4400574A52F820100023A6
S31508004A601A464FF400600CF019FA80E004EB440093
S31508004A70514951F8200040F6A371884208D004EB4A
S31508004A8044004D4951F8200040F6A571884218D1D6
S31508004A90002301AA40F2D3714FF4006005F04CFCE4
S31508004AA070B1019801280CD104EB4400424A52F82F
S31508004AB0201000231A464FF400600CF0EFF956E078
S31508004AC0FFE704EB44003C4901EB80008068E8B14D
S31508004AD004EB44000A4602EB800000236A4681681C
S31508004AE04FF4006005F028FC00B940E0009855280E
S31508004AF00CD145F0020504EB44002F4A52F8201069
S31508004B000023022290020CF0C9F930E004EB4400BD
S31508004B10294901EB80004068E8B104EB44000A46E5
S31508004B2002EB800000236A4641684FF4006005F0F6
S31508004B3003FC00B91BE0009855280CD145F0010587
S31508004B4004EB44001C4A52F8201000230122D0022C
S31508004B500CF0A4F90BE004EB4400174A52F82010B5
S31508004B6000231A464FF400600CF098F900BF601C49
S31508004B7084B20E2CFFF450AF05F0020038B10023C2
S31508004B80022240F2DC7190020CF088F912E005F07E
S31508004B90010038B10023012240F2DC71D0020CF08A
S31508004BA07DF907E000231A4640F2DC714FF40060F5
S31508004BB00CF074F97CBD00004C6E01082DE9F0413B
S31508004BC005460E46069C0021002B34D027889F42B6
S31508004BD003DA27887F1C278000E0238027887F1E2A
S31508004BE0B8B206E0471E32F8177022F81070471E52
S31508004BF0B8B20028F6DC1580002004E032F8107000
S31508004C003944471CB8B227888742F7DCB4F800C095
S31508004C100CEB4C07B1FBFCF80CFB181C4FEAE778C9
S31508004C2007EB9878BCEBA80F01D927883944278861
S31508004C30B1FBF7F13180BDE8F0810000F8B5054613
S31508004C400E4614461F46062D39D2DFE805F038030E
S31508004C50101D2F261B4800EB440000901A4850F8F8
S31508004C602420032339463046FFF7A8FF27E01748D4
S31508004C7000EB44000090164850F8242003233946D8
S31508004C803046FFF79BFF1AE012480A23124A3946B4
S31508004C9000903046FFF792FF11E010480523104AAE
S31508004CA0394600903046FFF789FF08E00D4805238E
S31508004CB00D4A394600903046FFF780FF00BF00BF17
S31508004CC0F8BD0000E2050020C001002042060020D1
S31508004CD080020020C802002066060020CC020020C0
S31508004CE084060020CA0200207A06002010B501209A
S31508004CF008F048FA002008F045FA10BD08B5014644
S31508004D0000200090034800900098084400900098FE
S31508004D10008808BD006C004008B500220092044ACD
S31508004D200092009A02440092009A116008BD0000A1
S31508004D30006C004010B511F0D3FC06F039F820B12C
S31508004D4002480078401C0149087010BD1600002072
S31508004D501FB5002000900190029003900F4800882C
S31508004D600F490988884218D00C48008800EB800251
S31508004D7002EBC0000B4A81180D226846FFF7D2F9EC
S31508004D80684600F027FA05480088401C142190FB65
S31508004D90F1F201FB1200014908801FBDCC04002076
S31508004DA0CA040020FC2100201FB5002000900190B5
S31508004DB0029003901348008813490988884220D036
S31508004DC012480078E8B90120104908700D48008893
S31508004DD000EB800202EBC0000D4A81180D226846DE
S31508004DE0FFF7A0F968460EF053FA012809D10548DD
S31508004DF00088401C1E2190FBF1F201FB12000149BC
S31508004E0008801FBDC8040020C6040020CE04002068
S31508004E1076200020F8B50024002500200090002602
S31508004E2000236A4640F2EF314FF4006005F084FA39
S31508004E300098C5B2AA201249087000BF00BF16E044
S31508004E40104830F8140050B10E4830F814102046B7
S31508004E5006F0CCFD55200A490870012605E00948E8
S31508004E6030F81410204606F0C1FD601CC4B2AC42EE
S31508004E70E6DB012332464F2198020CF00FF8F8BD05
S31508004E80DC020020CE0200202DE9FF41002003901D
S31508004E9002900190002700250026804600900024F5
S31508004EA04A480088401C80B248490880052801DA2B
S31508004EB0BDE8FF8105204549088045480088401C13
S31508004EC080B243490880B0F5167F06DB00204149C9
S31508004ED008704FF416703E4908803E48007801284D
S31508004EE000D1E5E7002301AA40F2DF714FF4006024
S31508004EF005F022FA019F002301AA4FF4FC614FF442
S31508004F00006005F019FA019D002301AA40F2E1713B
S31508004F104FF4006005F010FA019E002301AA40F242
S31508004F202D414FF4006005F007FADDF804800023F0
S31508004F3003AA40F2FF314FF4006005F0FDF90023A3
S31508004F4002AA40F2D3714FF4006005F0F5F9039810
S31508004F5098B90298012803D01F48007801280CD177
S31508004F605F2E06DAB5F5C86F03DB01201B4908700A
S31508004F7006E002201949087002E002201749087065
S31508004F8000F0CEFC15480078012819D000236A469F
S31508004F9040F2EF314FF4006005F0CEF9002405E049
S31508004FA00021204606F022FD601CC4B20098844207
S31508004FB0F6DB012300224F2198020BF06FFF77E7FB
S31508004FC000F0EAFBFFF726FF00BF71E7F0020020BA
S31508004FD0E8020020DE020020EB020020DD020020AD
S31508004FE02DE9F843054600240026002000900027F6
S31508004FF08046814600236A4640F2EF314FF400604E
S3150800500005F09AF90098C6B200BF0CE02DB14FF62C
S31508005010FF702F4921F8140003E000202C4921F8DD
S315080050201400601CC4B2B442F0DB002409E01DB1D0
S31508005030FF202849085502E0002026490855601C2B
S31508005040C4B2082CF3DB2448057085B300242BE092
S3150800505004F57C7100236A464FF4006005F06CF98C
S31508005060009807441D480078B8420ADC1B480078B7
S31508005070404506DD19480078A0EB08001FFA80F9BC
S3150800508001E04FF00009B846A9F10100012181406D
S3150800509088B20F4921F81400084630F81410204643
S315080050A006F0A4FC601CC4B2B442D1DB0AE0FFE7F8
S315080050B0002405E00021204606F098FC601CC4B2D6
S315080050C0B442F7DB002006490880BDE8F8830000F3
S315080050D0CE020020D4020020DE020020DF020020DB
S315080050E0E80200203EB5002400200090019000232D
S315080050F002AA4FF4FF614FF4006005F01DF902980B
S31508005100C0F30720ADF800000298C0B28DF802007F
S31508005110002302AA40F2F971C81D05F00DF902989C
S31508005120000A8DF803000298C0B28DF80400002327
S3150800513002AA40F2FA71881D05F0FEF80298000AE4
S315080051408DF805000298C0B28DF80600684606F08C
S3150800515097FB044608F0DAFB034908600020034978
S31508005160086020463EBD00003400002038000020BC
S315080051701CB500200190009015480078401C144981
S315080051800870002301AA40F2FB71481D05F0D4F807
S315080051900198AA281BD100236A4640F2FC71081D13
S315080051A005F0CAF8009800280ADD0098401E00900D
S315080051B0002340F2FC71081D009A0BF06FFE06E012
S315080051C00023552240F2FB71481D0BF067FE1CBDFB
S315080051D0E003002010B504466078802805D1A17840
S315080051E0221D022007F046FC07E06078402804D11B
S315080051F0A178221D022007F03DFC10BD00BFFEE786
S3150800520008B50121480607F07DFF0121052007F0B2
S3150800521099FF4FF40060ADF8000048208DF80300B0
S315080052206946204803F056FB4FF48050ADF800005D
S3150800523018208DF8030003208DF8020069461948E6
S3150800524003F048FB184800F035F8184800F0F1F963
S315080052500020164988710120C8710020087248721A
S3150800526088720120C87200208870C87002200871F0
S3150800527001204871102008800B4800F0C4F800206F
S315080052800B498872C872012008730020088048807C
S315080052908880C880088101204873084600F026F8EF
S315080052A008BD0000000801400064004064050020B5
S315080052B07005002010B504460B48844209D1012127
S315080052C0480607F02FFF00214FF0007007F02AFF6D
S315080052D008E00121880607F025FF00214FF08060CD
S315080052E007F020FF10BD00000064004010B5002143
S315080052F0837A012202FA03F13D4A126842F001025A
S315080053003B4B1A603A4A1C3212688A43384B1C33A4
S315080053101A60027BCAB9364A0C3212688A43344B81
S315080053200C331A604288C38842EA0343304A403243
S31508005330847A42F834300288838842EA03432C4A46
S315080053404032847A02EBC4025360027B012A19D1E7
S31508005350274A0C3212680A43254B0C331A604288D6
S31508005360038842EA0343224A4032847A42F83430B8
S31508005370C288838842EA03431D4A4032847A02EB94
S31508005380C4025360C27A3AB9194A121D12688A438E
S31508005390174B1B1D1A6006E0154A121D12680A43B0
S315080053A0134B1B1D1A60028932B9114A143212684E
S315080053B08A430F4B14331A600289012A06D10C4A14
S315080053C0143212680A430A4B14331A60427B012AC4
S315080053D006D1074A1C3212680A43054B1C331A6069
S315080053E0034A126822F00102014B1A6010BD000040
S315080053F0006600401AB143690B43436102E0436902
S315080054008B434361704730B5024600200023146879
S3150800541024F002041460146844F00104146000E0E7
S315080054205B1C546804F001041CB94FF6FF74A342D0
S31508005430F6D1546804F001040CB900206CE08C79AC
S31508005440012C04D1146844F08004146003E0146845
S3150800545024F080041460CC79012C04D1146844F03B
S315080054604004146003E0146824F0400414600C7AC5
S31508005470012C04D1146844F02004146003E0146875
S3150800548024F0200414604C7A012C04D1146844F0EA
S315080054901004146003E0146824F0100414608C7A75
S315080054A0012C04D1146844F00804146003E014685D
S315080054B024F008041460CC7A012C04D1146844F052
S315080054C00404146003E0146824F0040414608C785F
S315080054D0A407CD7844EA05640D7944EA05444D7974
S315080054E044EA05540D886D1E2C43D461146824F0D3
S315080054F001041460002300E05B1C546804F00104F6
S315080055001CB14FF6FF74A342F6D1546804F00104A7
S315080055100CB1002000E0012030BD08B54FF4C06092
S3150800552007F078FA14208DF8000000208DF80100A5
S315080055308DF8020001208DF80300684607F032FA5C
S3150800554008BD10B500F5D87303EB01131B6803F00B
S3150800555004031372137A53B900F5D87303EB0113D6
S315080055601B6840F2FF7404EA5353136009E000F520
S31508005570D87303EB01131B686FF0604404EAD30386
S31508005580536000F5D87303EB01131B6803F002039D
S31508005590537200F5D87303EB01135B6803F00F032E
S315080055A0937200F5D87303EB01135B681B0AD37477
S315080055B000F5D87303EB01139B68D37200F5D87313
S315080055C003EB01139B681C0A147300F5D87303EBED
S315080055D001139B681C0C547300F5D87303EB011375
S315080055E09B681B0E937300F5D87303EB0113DB68F6
S315080055F0D37300F5D87303EB0113DB681C0A147424
S3150800560000F5D87303EB0113DB681C0C547400F522
S31508005610D87303EB0113DB681B0E937421B9C368B7
S3150800562043F02003C36003E0036943F020030361EA
S3150800563010BD00218171C171017241728172C172FE
S315080056408170C1700321017102214171012101801C
S31508005650704710B502460020936803F08063B3F1E3
S31508005660806F00D110E0936803F00063B3F1006F18
S3150800567001D1012008E0936803F08053B3F1805FFD
S3150800568001D1022000E00420042874D002F5C0737A
S3150800569003EB00131B6803F0010402F5C07303EB68
S315080056A000131C600B7A7BB94B7A0C8843EA445387
S315080056B002F5C07404EB00142468234302F5C07491
S315080056C004EB0014236010E00B7A4C6843EAC40329
S315080056D04C7A234302F5C07404EB00142468234370
S315080056E002F5C07404EB001423608B7A03F00F03F1
S315080056F08B7202F5C07303EB00135B6823F00F048B
S3150800570002F5C07303EB00135C6002F5C07303EB8C
S3150800571000135B688C7A234302F5C07404EB00140B
S3150800572063608B7B1C064B7B44EA03440B7B44EA91
S315080057300323CC7A234302F5C07404EB0014A36058
S315080057408B7C1C064B7C44EA03440B7C44EA03230B
S31508005750CC7B234302F5C07404EB0014E36002F526
S31508005760C07303EB00131B6843F0010402F5C07312
S3150800577003EB00131C6010BD10B50246002006E0BE
S3150800578013784340034CE05C521C4B1ED9B20029E7
S31508005790F6DC10BD808D01082DE9F04FD1B000244C
S315080057A000250026A146A246A346002050900027C1
S315080057B0AA204F9000204E9080464D904C90C021D4
S315080057C01CA8FEF7C8FC00201B901A9000231AAAF2
S315080057D040F2EF314FF4006004F0AEFD1A98C0B203
S315080057E04E9000231AAA4FF48061480004F0A4FDE5
S315080057F0DDF8688000231AAA40F201414FF40060E0
S3150800580004F09AFD1A984D9000231AAA4FF4FC61E9
S315080058104FF4006004F090FD1A9880B250903D480D
S315080058200078012802D13C4800885090684609F063
S31508005830B7FB342269460DA8FEF774FC002564E020
S315080058400DA830F815001B9005F57C7100231AAADF
S315080058504FF4006004F070FD1A98C6B21B984045D4
S315080058604FD3102E00DC16B951B0BDE8F08F0024D6
S3150800587012E009F09FFB00EB470030F814B01CA8B3
S3150800588000EB851020F824B01CA800EB851000EB6F
S3150800589084008470601CC4B2B442EADB1CA901EB24
S315080058A0851031460DF0BAFEB01EC4B227E01CA81A
S315080058B000EB851000EB840090F802901CA800EB22
S315080058C0851030F824105098A1EB000A4D988245AF
S315080058D009D31CA800EB851030F82400404502D3F4
S315080058E055204F9001E0AA204F90CDF830912946D7
S315080058F00A484F9B4C9A05F053F8601CC4B2B44250
S31508005900D5DBB819C7B2681CC5B24E98854297DB75
S3150800591000BFA9E7E2020020E4020020CE02002030
S3150800592038B5002400250020009000236A4640F27E
S31508005930EF314FF4006004F0FFFC0098C5B200BFD9
S3150800594005E00020084921F81400601CC4B2AC42E6
S31508005950F7DB002404E0002004490855601CC4B2A3
S31508005960082CF8DB38BD0000CE020020D402002047
S31508005970F8B549F6404400250026002000901E4848
S315080059800068401C1C490860084600681B490968ED
S31508005990884230D300201849086007F0B7FF05464B
S315080059A0174800682E1A00236A4640F25E414FF4F3
S315080059B0006004F0C1FC0098704310490968B0FB08
S315080059C0F1F40023224640F25E414FF400600BF0EA
S315080059D065FA50B108F0E4F907F0E8FE204608F049
S315080059E09DF908F0DDF907F0EBFE054805604FF470
S315080059F0167002490860F8BD380000203000002003
S31508005A003400002010B500F071FE10BD7CB50020F2
S31508005A100190002500260090002400236A4640F6DF
S31508005A20BF714FF4006004F087FC009800B17CBD9C
S31508005A30002301AA40F2D2714FF4006004F07CFC06
S31508005A405B480078401C5A490870084600781E28AA
S31508005A5003DC0198401C019006E05548007864284C
S31508005A6002DB0020524908705249534A12780198BD
S31508005A7041F8220050480078401C0A2190FBF1F2B8
S31508005A8001FB12004C49087047F2305101988842D0
S31508005A9051DA01980D1A48F6A040854201DD002525
S31508005AA0C5E72E464548007801281ED1002419E08E
S31508005AB04248408804EB4401414A32F811108842B2
S31508005AC00EDD04EB4400114601EB400040886843B4
S31508005AD004EB440102EB4101898890FBF1F603E0EF
S31508005AE0601CC4B2042CE3DB00BF3648006818B952
S31508005AF035480068334908600023344A40F2644157
S31508005B004FF4006004F018FC30480068C0EB401001
S31508005B1040014FF47A7190FBF1F02B4909688842ED
S31508005B2004DD2B4800683044294908602948006884
S31508005B3028442849086047F230510198884235DDE3
S31508005B400198451A48F6A040854201DD00256EE712
S31508005B502E461A48007802281ED1002419E0174854
S31508005B60408804EB44011C4A32F8111088420EDDC5
S31508005B7004EB4400114601EB40004088684304EBFF
S31508005B80440102EB4101898890FBF1F603E0601CB1
S31508005B90C4B2042CE3DB00BF0D480068801B0C4927
S31508005BA008600E48006828440C49086000BF3EE7B4
S31508005BB06004002048090020500400202404002026
S31508005BC0F873010858040020280400205C0400200B
S31508005BD03804002048040020107401084C040020F2
S31508005BE038B500200090002400236A4640F2FE31B2
S31508005BF04FF4006004F0A0FB0098322802DA4FF454
S31508005C007A7414E0009832280FDB40F21A410098A3
S31508005C1088420ADC009800EB400101EB00100849B5
S31508005C20081A642190FBF1F401E04FF4487400234C
S31508005C30224640F2FD314FF400600BF02FF938BDD3
S31508005C40568A01007FB500250024002003900290A3
S31508005C500190009003F06CF9044648F6A04084428F
S31508005C600FD847F2305084420BD34F480088401C67
S31508005C704D490880084600880A2805DD0A2008805C
S31508005C8002E000204849088047F2265084420FD88F
S31508005C9045F6C05084420BD344480088401C43490B
S31508005CA00880084600880A2805DD0A20088002E0E0
S31508005CB000203E490880002303AA40F2DD714FF414
S31508005CC0006004F039FB002302AA4FF4FC614FF48C
S31508005CD0006004F031FB00236A4640F2DF714FF49E
S31508005CE0006004F029FB002301AA40F2E9714FF491
S31508005CF0006004F021FB0398B0F57A7F00DA7FBDD7
S31508005D00294800880A2813DBA4F5EA40303885B20A
S31508005D10029804F089FD02902946029804F034FDA1
S31508005D200290234A0021029804F0B8FB2149088012
S31508005D301E4800880A2813DB47F23050001B85B23C
S31508005D40009800F0ADFA00902946009800F050FA45
S31508005D500090194A0021009804F0A0FB1549088014
S31508005D60144800880199884209DD01201349087002
S31508005D70104800880199401A1049488012E00D48D9
S31508005D8000880199884209DA02200C4908700949F5
S31508005D9009880198401A0949488003E00020074904
S31508005DA00870488000BFAAE768040020660400203F
S31508005DB03809002052040020280900202404002065
S31508005DC02DE9F84306460C4600250020009080463B
S31508005DD00027012E04D0022E2AD0032E72D188E085
S31508005DE0002059490880594908805948006847F2EF
S31508005DF05851884219DC5648006847F208518842CB
S31508005E0013DB4FF001080023514840F22441026891
S31508005E104FF400600BF042F84D48008800B24A493A
S31508005E20088001204B49087001E04FF0000886E021
S31508005E3048480078012802D04FF000087FE044481F
S31508005E40016804F12800814250DC5038404909684D
S31508005E5088424BDC4FF001083D48008800B23B49B8
S31508005E60088047F23050844201DB271A02E047F2E5
S31508005E703050071B3548B0F900003349B1F9001016
S31508005E8088420BDD642078433049B1F900102E4A68
S31508005E90B2F90020891AB0FBF1F517E02B48B0F9E2
S31508005EA000002949B1F9001088420CDA64207843C9
S31508005EB02549B1F90010254AB2F90020891AB0FB24
S31508005EC0F1F503E03AE04FF0000838E000232A46EF
S31508005ED040F225414FF400600AF0E0FF18B10220B5
S31508005EE01C49087004E04FF0000801E04FF0000874
S31508005EF025E018480078022802D04FF000081EE076
S31508005F0000236A4640F2D2714FF4006004F014FA96
S31508005F10204600990DF0D3FC814647F230512046C1
S31508005F200DF0CDFCB9EBD00F05D24FF001080020DB
S31508005F300849087001E04FF0000800E000BF00BF04
S31508005F404046BDE8F8830000FC020020FE0200205F
S31508005F50E4030020000300201FB5002000900190F4
S31508005F60029003900D4800880D490988884214D08C
S31508005F700C480A49098800EB01130FCB8DE80F007E
S31508005F80684606F0BBFB05480088401C142190FBB8
S31508005F90F1F201FB1200014908801FBDBA04002076
S31508005FA0B8040020AC1C00201FB50020009001900A
S31508005FB002900390194800881949098888422CD00C
S31508005FC018481649098800EB01130FCB8DE80F0016
S31508005FD09DF80C2001A9009804F084FD68B10F48CB
S31508005FE00088401C1E2190FBF1F201FB12000B49B0
S31508005FF0088000200C4908700FE00B480078401C08
S3150800600009490870084600780A2806DD04F030FDBC
S3150800601006F09EF80020044908701FBDB60400204B
S31508006020B4040020CC1A0020DE0400201FB500208E
S31508006030039047F230500290002001900090002310
S3150800604002AA40F2D2714FF4006004F075F947F2E3
S3150800605030510298884211DA5A480088401C59493A
S315080060600880084600880A2804DD01205649087079
S315080060705649087000205649088018E05448008898
S31508006080401C5349088008460088322802DD002053
S315080060904D49087000204B49088047F23051029854
S315080060A0884204DD0020494908704A4908700023DF
S315080060B001AA40F2E9714FF4006004F03DF903A823
S315080060C003F0A2FA012803D13F480078012803D03B
S315080060D002F0F6FE00284CD04FF47A700BF01AF94D
S315080060E000F07EF80020384908703949088035499B
S315080060F0088001203849087036480078002854D0AE
S3150800610000203449087000236A4640F2FA314FF4F9
S31508006110006004F011F9314900980968401A2F49BE
S31508006120086000236A4640F2F6314FF4006004F036
S3150800613003F9009800EB400080000A2190FBF1F07B
S3150800614026490968884230DB0098C0000A2190FB7E
S31508006150F1F022490968884227DC00231F4840F2EB
S31508006160644102684FF400600AF098FE06F0E0F811
S315080061701BE002F0C2FE88B100200BF0CBF800232A
S315080061806A4640F2FA314FF4006004F0D5F8134934
S315080061900098086001200F49087006E003A801F07E
S315080061A0E9FD012801D100F01BF80198B0F57A7FC6
S315080061B004DB47F230510298884202DD0020064986
S315080061C008701FBD260300202A030020EB020020CA
S315080061D0280300201C0300201403002018030020B5
S315080061E00120704710B501F095FA01F04FFA10BD7D
S315080061F0F8B506460F46002400254FF47A7000903D
S3150800620035463C4600236A4640F264414FF4006036
S3150800621004F092F84FF47A71009890FBF1F0009030
S31508006220009810B1B6F57A7F01DA2846F8BD002C39
S315080062302EDD04EB84004000009990FBF1F4B4F5E0
S315080062407A7F01DD2846F1E7322C04DC1148006824
S3150800625004FB10551CE0642C0BDC0E480068322148
S3150800626001FB1055A4F132000B49096800FB1155D2
S315080062700EE008480068322101FB10550648006800
S3150800628001FB1055A4F164000449096800FB115587
S315080062902846CBE7FC030020000400200404002065
S315080062A038B505460020009000242C4600236A468F
S315080062B040F2E2714FF4006004F03EF8B4F57A7FDC
S315080062C002DB0098002801DA204638BD00984128EC
S315080062D02BDA0098322807DB0098C0F141001449F0
S315080062E0096800FB114420E0009828280CDB1048B8
S315080062F000680F2101FB10440098C0F132000D49D7
S31508006300096800FB114410E0094800680F2101FBE9
S315080063101044084800680A2101FB10440098C0F19F
S3150800632028000549096800FB11442046CDE700000E
S31508006330F0030020F4030020F803002038B50546D2
S3150800634000240020009000BF43E004EB44002349EA
S3150800635051F82000A8423AD104EB440001EB800032
S315080063608068A8B104EB44000A4602EB80000023CB
S315080063706A4681684FF4006003F0DEFF08B9002022
S3150800638038BD0098552801D10120F9E70020F7E724
S3150800639004EB4400114901EB80004068A8B104EB06
S315080063A044000A4602EB800000236A4641684FF41F
S315080063B0006003F0C1FF08B90020E1E700985528FE
S315080063C001D10120DCE70020DAE70020D8E7601CCD
S315080063D084B20E2CB9D30020D2E700004C6E010817
S315080063E070B500241EE0144901F83440002515E074
S315080063F0C4EBC400284486B21E2E07DA0F48815D16
S3150800640005EBC400401C0C4A115405E0FF2105EBBE
S31508006410C400401C084A1154681C85B2072DE7DBE6
S31508006420601C84B2052CDEDB0020054908800621A5
S31508006430044801F0D1F970BDAE0600209006002090
S3150800644084030020B187000810B500247A2006F0DE
S3150800645039FF08B144F001047B2006F033FF08B188
S3150800646044F002047C2006F02DFF08B144F0040431
S315080064707D2006F027FF08B144F008047E2006F0C8
S3150800648021FF08B144F010047F2006F01BFF08B175
S3150800649044F0200406F07CFE204610BD08B5002016
S315080064A0009001F005FA012818D100236A4640F247
S315080064B06141C00203F040FF009801280AD10E4846
S315080064C0007818B103200EF055F90AE002200EF004
S315080064D051F906E002200EF04DF902E003200EF015
S315080064E049F90EF09FF918B102200DF079F902E08A
S315080064F003200DF075F908BD6C04002010B504469C
S3150800650011480088401C052190FBF1F201FB12009E
S315080065100E490988884216D00B49098801EB4102C1
S3150800652002EBC1010A4A02EB410016222146FDF799
S31508006530F9FD05480088401C052190FBF1F201FB96
S3150800654012000149088010BDDA040020DC0400208E
S315080065508A25002000B587B01048008810490988A8
S31508006560884219D00E48008800EB400202EBC000B2
S315080065700C4A02EB4001162201A8FDF7D3FD01A83B
S3150800658000F022F806480088401C052190FBF1F22D
S3150800659001FB12000249088007B000BDDA0400209A
S315080065A0DC0400208A250020002007E0102200EBEA
S315080065B04003044901F81320411CC8B20428F5DB3E
S315080065C070470000782600207CB5044600251BA1EC
S315080065D003C9CDE900016088A0F6017010B104284E
S315080065E028D102E00CF028FE25E0002508E01DF879
S315080065F005002178134A02EB81114855681CC5B27B
S31508006600082DF4DB012122780F4800EB8200817007
S31508006610082122780C4820F822100021227800EB65
S315080066208200C170217801EB4101084A52F8210025
S31508006630804700E000BF00BF7CBD000051100F0579
S31508006640AAAA21939026002090270020508D0108A1
S31508006650014601F00F020B1103EB830302EB430221
S31508006660D0B27047014664290ADA0A2091FBF0F293
S3150800667000FB121291FBF0F002EB0010C0B270475B
S315080066800020FCE730B502460B464FF6FF7011E0D6
S3150800669012F8014B604000210AE000F0010424B121
S315080066A040104AF20104604000E040104C1CE1B280
S315080066B00829F2DB1C1EA3F10105ABB2E8D130BDF7
S315080066C000B5034603F028FE0246802A07D005488F
S315080066D040F8223004480068401C03490860104608
S315080066E000BD0000CC180020A804002008B5002032
S315080066F0009000236A464FF47A714FF4006003F065
S315080067001BFE0099C8B200F030F90099C8B200F033
S3150800671074F80099C8B200F009F800F0D5F800F04E
S315080067207DF90099C8B200F040F908BD2DE9FC5F73
S3150800673007464FF0000AD34600254FF6FF76A846CF
S31508006740B1460020019030460090012423E02346FC
S3150800675001AA47214FF4806003F0EEFD23466A46FE
S3150800676048214FF4806003F0E7FD019885B2009850
S3150800677086B2012C04D1A846B146A246A34608E033
S31508006780A84501DAA846A246B14501DDB146A346A9
S3150800679000BF601CC4B2BC42D9DD0023424640F2A9
S315080067A0E1714FF400600AF079FB534601AA4B21C8
S315080067B04FF4806003F0C0FD002340F2E7714FF408
S315080067C00060019A0AF06AFB00234A4640F2E27129
S315080067D04FF400600AF062FB5B466A464C214FF4B0
S315080067E0806003F0A9FD00234FF4FD614FF40060BB
S315080067F0009A0AF053FBBDE8FC9F2DE9FC5F0746AB
S315080068004FF0000AD34600254FF6FF76A846B14654
S315080068100020019030460090012423E0234601AA77
S3150800682043214FF4806003F087FD23466A464421DE
S315080068304FF4806003F080FD019885B2009886B217
S31508006840012C04D1A846B146A246A34608E0A845AD
S3150800685001DAA846A246B14501DDB146A34600BF06
S31508006860601CC4B2BC42D9DD0023424640F2DF7147
S315080068704FF400600AF012FB534601AA49214FF46F
S31508006880806003F059FD002340F2E5714FF4006083
S31508006890019A0AF003FB00234A464FF4FC614FF4C1
S315080068A000600AF0FBFA5B466A464A214FF48060AC
S315080068B003F042FD002340F2E6714FF40060009AAF
S315080068C00AF0ECFABDE8FC9F7FB5002400250020FD
S315080068D00390029001900090002303AA40F2DF7112
S315080068E04FF4006003F028FD002302AA4FF4FC6170
S315080068F04FF4006003F020FDDDE90210884203DD55
S31508006900DDE90210401A02E0DDE90201401A84B20C
S315080069100023224640F2E3714FF400600AF0BEFA03
S31508006920002301AA40F2E1714FF4006003F004FD70
S3150800693000236A4640F2E2714FF4006003F0FCFC63
S31508006940DDE90010884203DDDDE90010401A02E0A7
S31508006950DDE90001401A85B200232A4640F2E471B7
S315080069604FF400600AF09AFA7FBDF8B5054600278D
S3150800697000260020009000240CE0601CC3B26A4682
S315080069804021080103F0D8FC009887B2F01986B2B6
S31508006990601CC4B2AC42F0DB0023324640F2D1712F
S315080069A04FF400600AF07AFAF8BD2DE9F84F074669
S315080069B04FF00009002000900026804601241DE0C3
S315080069C004F2F23100236A464FF4006003F0B4FC87
S315080069D0009800F0FF0900250CE005F13001234678
S315080069E06A464FF4806003F0A7FC00988044761C42
S315080069F0681CC5B24D45F0DB601CC4B2BC42DFDD85
S31508006A00002E09DD98FBF6FA0023524640F2DE71A5
S31508006A104FF400600AF042FABDE8F88F1CB5002072
S31508006A20019000BF0090002301AA40F2D1714FF4F3
S31508006A30006003F081FC00236A4640F2D6714FF4E9
S31508006A40006003F079FC642101984843009990FBA3
S31508006A50F1F40023224640F2DD714FF400600AF09B
S31508006A601DFA1CBD30B585B00020009001904FF48A
S31508006A70FA71FE48FDF76FFB002304AA40F2D671AF
S31508006A804FF4006003F058FC0498C5B22025002492
S31508006A9012E02146012303AA980203F04DFC03984D
S31508006AA0C0F30721F14A02F814100398C1B2600036
S31508006AB0401C1154601CC4B2AC42EADB002304AA91
S31508006AC040F2D7714FF4006003F036FC0498C5B263
S31508006AD00825002414E004F13001012303AA9802D2
S31508006AE003F02AFC0398C0F3072160004030DF4A10
S31508006AF011540398C1B2600041301154601CC4B2ED
S31508006B00AC42E8DB002303AA40F2D1714FF40060DF
S31508006B1003F012FC0398000AD44981F85000039840
S31508006B2081F85100002303AA40F2D2714FF40060A5
S31508006B3003F002FC4EF660210398081A03900398A6
S31508006B40000ACA4981F85200039881F853000023C5
S31508006B5003AA40F2E9714FF4006003F0EDFB0398D5
S31508006B60000AC24981F85400039881F855000023A9
S31508006B7003AA40F2DF714FF4006003F0DDFB0398CF
S31508006B80000ABA4981F85600039881F8570000238D
S31508006B9003AA4FF4FC614FF4006003F0CDFB0398A1
S31508006BA0000AB24981F85800039881F85900002371
S31508006BB003AA40F2E1714FF4006003F0BDFB0398AD
S31508006BC0000AAA4981F85A00039881F85B00002355
S31508006BD003AA40F2E2714FF4006003F0ADFB03989C
S31508006BE0000AA24981F85C00039881F85D00002339
S31508006BF003AA40F2D3714FF4006003F09DFB03989B
S31508006C00000A9A4981F85E00039881F85F0000231C
S31508006C1003AA40F2F6314FF4006003F08DFB00231F
S31508006C2002AA40F2E9714FF4006003F085FB642183
S31508006C30039890FBF1F0029948434FF47A7190FB60
S31508006C40F1F003900398000A884981F860000398D8
S31508006C5081F86100002303AA40F2D6714FF4006060
S31508006C6003F06AFB0398000A804981F862000398DA
S31508006C7081F86300002303AA40F2D7714FF400603D
S31508006C8003F05AFB0398000A784981F864000398D0
S31508006C9081F86500002303AA40F2FE314FF4006034
S31508006CA003F04AFB0398000A704981F866000398C6
S31508006CB081F86700002003906D4800786C49497890
S31508006CC008436B49897808436949C978084368497C
S31508006CD00979084366494979084318B1039840F089
S31508006CE0010003900398000A604981F86800039838
S31508006CF081F86900002303AA40F2D9714FF40060B5
S31508006D0003F01AFB0398000A584981F86A000398A9
S31508006D1081F86B00002303AA4FF4FB614FF400606F
S31508006D2003F00AFB0398000A504981F86C0003989F
S31508006D3081F86D00012303AA4121980203F0FCFAA9
S31508006D400398000A494981F86E00039881F86F0094
S31508006D50002303AA40F2E3714FF4006003F0ECFA53
S31508006D600398000A414981F87000039881F8710078
S31508006D70002303AA40F2D1714FF4006003F0DCFA55
S31508006D80002304AA40F2D2714FF4006003F0D4FA4B
S31508006D9047F230510498884203DB0498401A04905D
S31508006DA004E047F230510498081A0490DDE903011B
S31508006DB04843642190FBF1F003900398000A2B499D
S31508006DC081F87200039881F8730001F0C7FE0390FA
S31508006DD028484078254981F874002648007881F8C3
S31508006DE0750001F033FF03902248C0781F4981F8E7
S31508006DF076002048807881F8770001F09DFF03909F
S31508006E001C484079194981F878001A48007981F8B0
S31508006E10790002F02DF803901648C079134981F8D5
S31508006E207A001448807981F87B0000200390104886
S31508006E30007810B10120039001E0002003900020A3
S31508006E4003900398000A094981F87E00039881F89F
S31508006E507F00002303AA40F2F7714FF4006003F0A5
S31508006E606BFA47F230500390039805E0FE2B00209A
S31508006E70D4020020D8030020000AFE4981F88000C9
S31508006E80039881F88100002304AA4FF47C714FF41B
S31508006E90006003F051FA0498C5B20020039000245C
S31508006EA00AE0F54800780121A140084010B1601CAD
S31508006EB0039003E0601CC4B2AC42F2DB00BF0020C2
S31508006EC003900398000AEB4981F88200039881F839
S31508006ED08300002303AA40F2F4714FF4006003F024
S31508006EE02BFA0398000AE34981F88400039881F88D
S31508006EF08500002304AA40F2D6714FF4006003F01F
S31508006F001BFA0498C5B21025002414E004F12001E8
S31508006F10012303AA980203F00FFA0398C0F3072186
S31508006F2060008E30D34A11540398C1B260008F3086
S31508006F301154601CC4B2AC42E8DBD048C07FA52817
S31508006F4005D11822CD49CB48AE30FDF7EBF8FF2224
S31508006F503821C848C630FDF7F7F8002303AA40F2DF
S31508006F60F6314FF4006003F0E7F96421039890FBCB
S31508006F70F1F003900398000ABE4981F8FE000398D1
S31508006F8081F8FF00002303AA40F2F9314FF40060AC
S31508006F9003F0D2F90398000AB64981F8000103986C
S31508006FA081F80101002303AA40F2EF314FF4006093
S31508006FB003F0C2F90398000AAE4981F80201039862
S31508006FC081F80301002303AA4FF47C714FF4006093
S31508006FD003F0B2F90398000AA64981F80401039858
S31508006FE081F80501002303AA40F2F1314FF400604D
S31508006FF003F0A2F90398000A9E4981F8060103984E
S3150800700081F80701002303AA40F2F2314FF4006029
S3150800701003F092F90398000A964981F80801039843
S3150800702081F80901002303AA40F2F3314FF4006006
S3150800703003F082F90398000A8E4981F80A01039839
S3150800704081F80B01002303AA4FF47D714FF4006009
S3150800705003F072F90398000A864981F80C0103982F
S3150800706081F80D01002303AA40F2F5314FF40060C0
S3150800707003F062F90398000A7E4981F80E01039825
S3150800708081F80F01002303AA4FF47E714FF40060C4
S3150800709003F052F90398000A764981F8100103981B
S315080070A081F81101002303AA40F203414FF400605E
S315080070B003F042F90398000A6E4981F81201039811
S315080070C081F81301002303AA40F22D414FF4006012
S315080070D003F032F90398000A664981F81401039807
S315080070E081F81501002303AA40F23B414FF40060E2
S315080070F003F022F90398000A5E4981F816010398FD
S3150800710081F81701002303AA40F22E414FF40060CC
S3150800711003F012F90398000A564981F818010398F2
S3150800712081F81901002303AA40F23C414FF400609C
S3150800713003F002F90398000A4E4981F81A010398E8
S3150800714081F81B01002303AA40F227414FF400608F
S3150800715003F0F2F80398000A464981F81C010398DF
S3150800716081F81D01002303AA40F235414FF400605F
S3150800717003F0E2F80398000A3E4981F81E010398D5
S3150800718081F81F01002303AA4FF485614FF40060BC
S3150800719003F0D2F80398000A364981F820010398CB
S315080071A081F82101002303AA40F236414FF400601A
S315080071B003F0C2F80398000A2E4981F822010398C1
S315080071C081F82301002303AA40F22B414FF4006003
S315080071D003F0B2F80398000A264981F824010398B7
S315080071E081F82501002303AA40F239414FF40060D3
S315080071F003F0A2F80398000A1E4981F826010398AD
S3150800720081F82701002303AA40F22C414FF40060BD
S3150800721003F092F80398000A164981F828010398A2
S3150800722081F82901002303AA40F23A414FF400608D
S3150800723003F082F80398000A0E4981F82A01039898
S3150800724081F82B01002303AA40F232414FF4006073
S3150800725003F072F80398000A064981F82C0103988E
S3150800726081F82D01002303AA4FF488614FF40060CA
S3150800727006E00000FE2B0020D40200202C0500208A
S3150800728003F05AF80398000AFB4981F82E0103987F
S3150800729081F82F01002303AA40F233414FF400601E
S315080072A003F04AF80398000AF34981F83001039875
S315080072B081F83101002303AA40F241414FF40060EE
S315080072C003F03AF80398000AEB4981F8320103986B
S315080072D081F83301002303AA4FF486614FF4006056
S315080072E003F02AF80398000AE34981F83401039861
S315080072F081F83501002303AA40F23E414FF40060AD
S3150800730003F01AF80398000ADB4981F83601039856
S3150800731081F83701002303AA40F231414FF4006097
S3150800732003F00AF80398000AD34981F8380103984C
S3150800733081F83901002303AA40F23F414FF4006067
S3150800734002F0FAFF0398000ACB4981F83A0103983C
S3150800735081F83B01002303AA40F22F414FF4006055
S3150800736002F0EAFF0398000AC34981F83C01039832
S3150800737081F83D01002303AA40F23D414FF4006025
S3150800738002F0DAFF0398000ABB4981F83E01039828
S3150800739081F83F01002303AA40F234414FF400600C
S315080073A002F0CAFF0398000AB34981F8400103981E
S315080073B081F84101002303AA40F242414FF40060DC
S315080073C002F0BAFF0398000AAB4981F84201039814
S315080073D081F84301002303AA4FF48061480002F0B4
S315080073E0ABFF0398000AA44981F84401039881F881
S315080073F04501002303AA40F201414FF4006002F060
S315080074009BFF0398000A9C4981F84601039881F876
S315080074104701002303AA40F2F5714FF4006002F019
S315080074208BFF0398552802D10020039001E0012024
S3150800743003900398000A904981F84801039881F857
S315080074404901002303AA40F2F6714FF4006002F0E6
S3150800745073FF0398552802D10020039001E001200C
S3150800746003900398000A844981F84A01039881F831
S315080074704B01002303AA40F2E9714FF4006002F0C1
S315080074805BFF0398000A7C4981F84C01039881F850
S315080074904D01002303AA40F24A414FF4006002F06E
S315080074A04BFF0398000A744981F84E01039881F846
S315080074B04F01002409E0C4F10D007049095C04F588
S315080074C0A8706D4A1154601CC4B20E2CF3DB00245C
S315080074D009E0C4F10D006A49095C04F5B070664A12
S315080074E01154601CC4B20E2CF3DB002424E004F50E
S315080074F08361002303AA4FF4006002F01DFF03987E
S31508007500010EA00000F5B8705B4A11540398C0F349
S315080075100741A00000F2711011540398C0F3072127
S31508007520A00000F5B97011540398C1B2A00000F28A
S3150800753073101154601CC4B2082CD8DB002303AAAC
S3150800754040F255414FF4006002F0F6FE0398000A37
S31508007550494981F89001039881F89101002303AA0B
S3150800756040F256414FF4006002F0E6FE0398000A26
S31508007570414981F89201039881F89301002303AAEF
S3150800758040F257414FF4006002F0D6FE0398000A15
S31508007590394981F89401039881F89501002303AAD3
S315080075A04FF484614FF4006002F0C6FE0398000EA3
S315080075B0314981F896010398000C81F897010398E0
S315080075C0000A81F89801039881F89901002304AA12
S315080075D040F2D6714FF4006002F0AEFE04980390B4
S315080075E00398000E244981F89A010398000C81F843
S315080075F09B01FF2081F89C0181F89D01002081F8FC
S315080076009E0181F89F01FF2081F8A00181F8A10160
S3150800761081F8A20181F8A301684604F0C9F8BDF80B
S315080076200000A0F5FA60144981F8A6019DF8020049
S3150800763081F8A7019DF8030081F8A8019DF80400C8
S3150800764081F8A9019DF8050081F8AA019DF80600B0
S3150800765081F8AB01002081F8AC0181F8AD01FF206B
S3150800766081F8AE0181F8AF01FF222E210548FCF70B
S315080076706BFD05B030BD0000FE2B0020C2030020C4
S31508007680B4030020AE2D00207047000010B500247A
S3150800769003F0BEFB0446C4B91B480078401C1A49CF
S315080076A0087008460078032812DD0320087017487A
S315080076B0007868B90023012240F2ED71D00209F082
S315080076C0EDFB01201149087002E000200E49087000
S315080076D0B4B10F480078401C0D4908700846007878
S315080076E0032810DD0320087000231A4640F2ED71C6
S315080076F04FF4006009F0D2FB00200449087002E04C
S3150800770000200349087010BD200300202203002032
S315080077102103002010B5002403F062FB0446C4B917
S315080077201B480078401C1A49087008460078032848
S3150800773012DD032008701748007868B90023012273
S3150800774040F2EC71D00209F0A9FB0120114908703A
S3150800775002E000200E490870B4B10F480078401CBA
S315080077600D49087008460078032810DD03200870C4
S3150800777000231A4640F2EC714FF4006009F08EFBC4
S3150800778000200449087002E000200349087010BD73
S315080077901D0300201F0300201E03002010B5044609
S315080077A00548007806F034FB2146044800F014F832
S315080077B00149087010BD0000F2040020C1770008D6
S315080077C0002003490870FF2002490870704700002E
S315080077D0F1040020F204002030B505460C4609489D
S315080077E003F07CF80346302B09DA074840F82350A3
S315080077F00021C03040F82310024840F823401846BC
S3150800780030BD0000A41100205413002010B56421D7
S31508007810014808F0E1F910BDD9DD000810B5C82106
S31508007820034808F0D9F96421024808F0D5F910BDD3
S3150800783031F40008094A000810B564210B4809F01C
S3150800784049FD4FF47A710A4808F0C6F94FF47A717F
S31508007850084808F0C1F96421074808F0BDF94FF453
S31508007860FA61064808F0B8F910BD00000D5A00087C
S31508007870D11B010869130108455C0008257D00082D
S3150800788010B501224021034801F001F90020024900
S31508007890087010BD00100140C40400204FF4FA52CD
S315080078A000FB02F100BF0A1EA1F10101FBD17047DE
S315080078B038B50020009000236A4640F2EC714FF478
S315080078C0006002F039FD009810B9002027490870B9
S315080078D000236A4640F2D2714FF4006002F02CFD94
S315080078E047F230510098884201DD012038BD1F4813
S315080078F0007808B10020F9E700236A4640F2F571DE
S315080079004FF4006002F018FD0098552803D0184877
S315080079100078012801D10020E8E707F0FDF908B151
S315080079200020E3E700241CE0124850F82410002346
S315080079306A464FF4006002F0FFFC009855280ED105
S315080079400C4850F8240040F6C831884205D10A4848
S31508007950007810B90120054908700020C6E7601CA8
S31508007960C4B2052CE0D30120C0E700006E04002055
S3150800797070040020148101086C04002038B500202A
S31508007980009000236A4640F2ED714FF4006002F061
S31508007990D3FC009810B900202149087000236A46D4
S315080079A040F2D2714FF4006002F0C6FC47F2305143
S315080079B00098884201DA012038BD1948007808B1D4
S315080079C00020F9E702F071FE18B916480078012878
S315080079D001D10020F0E707F09FF908B10020EBE796
S315080079E0002419E0104850F8241000236A464FF482
S315080079F0006002F0A1FC009855280BD10A4850F8FF
S31508007A00240040F6C931884202D101200449087091
S31508007A100020D1E7601CC4B2052CE3D30120CBE7D4
S31508007A206D040020700400200081010808B50020BC
S31508007A30009000236A464FF489614FF4006002F013
S31508007A407BFC009801280CD104F030FA012808D1F3
S31508007A5000231A464FF48961C00209F01FFA04F0A0
S31508007A6001FB0098A5280CD100231A464FF489611A
S31508007A704FF4006009F012FA01201949087004F061
S31508007A80F1FA0098552809D100231A464FF489615E
S31508007A904FF4006009F002FA04F0E4FA00236A469B
S31508007AA040F203414FF4006002F046FC4FF6FF71C6
S31508007AB00098884202D101200A49087000236A46C4
S31508007AC040F263414FF4006002F036FC009801284A
S31508007AD004D103F0C3F801200349087008BD00006B
S31508007AE04D000020150000204F00002010B5FFF7BC
S31508007AF045FF1949087008460078012806D1002074
S31508007B000CF038FE01201549087019E01348007872
S31508007B1080B1012003F00CFF41F2883003F095F89C
S31508007B2001200CF027FE41F2883003F08EF8002081
S31508007B3003F0FEFE00200949087001200CF01AFE29
S31508007B400CF094FE18B100200BF04AFE02E001206A
S31508007B500BF046FE10BD00007104002084040020CE
S31508007B6008B52020ADF8000003208DF80200042097
S31508007B708DF803006946024800F0ACFE08BD000017
S31508007B800008014008B52020ADF8000003208DF854
S31508007B90020014208DF803006946024800F09AFE98
S31508007BA008BD00000008014010B5012000F056F895
S31508007BB003F0E8FF10BD000010B54FF4004000F0D8
S31508007BC053F8E8B114480078A0B11448007808289A
S31508007BD012DA1348007801280ED103F019F958B9BA
S31508007BE0012003F0A5FE012003F0D8FE05200D496B
S31508007BF0087001E003F0C6FF4FF4004000F02EF8CD
S31508007C004FF4005000F030F828B14FF4005000F05F
S31508007C1025F803F0B7FF10BD4F00002051000020E3
S31508007C20710400205000002010B5082000F016F856
S31508007C3003F0A8FF10BD10B5102000F00FF803F0F0
S31508007C40A1FF10BD10B5202000F008F84FF4807091
S31508007C5000F004F803F096FF10BD00000149086023
S31508007C607047000014040140014600200022074B1B
S31508007C701B6803EA0102054B14331B680B4013B15A
S31508007C800AB1012000E0002070470000000401400E
S31508007C90002123498279002A3AD00A4612680368E5
S31508007CA09A430B461A600A1D126803689A430B1D0D
S31508007CB01A60027911440A6803681A430A60184A66
S31508007CC00832126803689A43154B08331A601A1D5E
S31508007CD0126803689A43124B0C331A604279102AC9
S31508007CE00ED11A1F126803681A430D4B08331A601F
S31508007CF01A1D126803681A43094B0C331A600DE003
S31508007D000749427911440A6803681A430A6005E07C
S31508007D10027911440A6803689A430A6070470000AA
S31508007D20000401402DE9F04110480068104909682F
S31508007D30451A002D00DA6D4201F0FAF8044647F2BA
S31508007D403050844210DA071B95FBF7F6C6EB06108F
S31508007D508000642190FBF1F60023324640F2EA7176
S31508007D604FF4006009F09AF8BDE8F0812C04002071
S31508007D70280400207CB504460020019000900025C8
S31508007D8040F6A970FEF7DAFA40B1A07820F00300B1
S31508007D90401CA07001203A490870102540F6AA70C8
S31508007DA0FEF7CCFA40B1A07820F00300401CA07082
S31508007DB0012033490870112540F6AC70FEF7BEFA6B
S31508007DC040B1A07820F00300401CA07001202C4987
S31508007DD00870122540F6AD70FEF7B0FA40B1A078EB
S31508007DE020F00300401CA0700120254908701325C7
S31508007DF0002301AA40F2D1714FF4006002F09CFA08
S31508007E0000236A464FF4FC614FF4006002F094FACE
S31508007E1040F2DC510098884202DB0198322814DAD5
S31508007E2018480078401C17490870084600780A2840
S31508007E300EDD0A200870E07820F00C00001DE070C6
S31508007E4001200F490870172502E000200D49087027
S31508007E5040F6A470FEF772FA18B1012008490870B6
S31508007E60342507480078012806D100232A4640F21F
S31508007E70EB71C00209F012F8014800787CBD0000D9
S31508007E8023030020240300200549096821F0100176
S31508007E90034A1160114609680143116070470000E2
S31508007EA00020024001460020034A106800F038000E
S31508007EB008431060704700000020024010B50022F9
S31508007EC02021074800F0E3FD01224021044800F084
S31508007ED0DEFD00224021024800F0D9FD10BD000059
S31508007EE0000801402DE9F04105460E4617460120D7
S31508007EF00BF02DF900F084F8A02000F0FBF805F04F
S31508007F0085FA38B900F094F800200BF020F9002023
S31508007F10BDE8F081301200F0EDF805F077FA30B9D7
S31508007F2000F086F800200BF012F90020F0E7F0B216
S31508007F3000F0E0F805F06AFA30B900F079F80020A8
S31508007F400BF005F90020E3E700F05AF8A12000F04D
S31508007F50D1F805F05BFA30B900F06AF800200BF0AA
S31508007F60F6F80020D4E700241AE000F025F805F812
S31508007F70010B781EA0420FD1012220210D4800F0E6
S31508007F8086FD012240210B4800F081FD0022402198
S31508007F90084800F07CFD01E0FFF790FF601C84B202
S31508007FA0BC42E2DB00F044F800200BF0D0F80120D8
S31508007FB0AEE700000008014070B50024FFF7D0FDC9
S31508007FC0002515E06006040E012240210B4800F04A
S31508007FD05EFD2021094800F051FD012801DB44F02F
S31508007FE0010400224021054800F051FD681CC5B275
S31508007FF0082DE7DBFFF7C6FD204670BD00080140E7
S3150800800010B501224021094800F041FD0122202136
S31508008010064800F03CFD00222021044800F037FD08
S3150800802000224021014800F032FD10BD0008014041
S3150800803010B500222021074800F029FD0122402121
S31508008040044800F024FD01222021024800F01FFD0B
S3150800805010BD0000000801402DE9F04104460D4618
S31508008060174601200BF073F8FFF7CAFFA02000F0AF
S3150800807041F805F0CBF938B9FFF7DAFF00200BF025
S3150800808066F80020BDE8F081281200F033F805F004
S31508008090BDF930B9FFF7CCFF00200BF058F80020E7
S315080080A0F0E7E8B200F026F805F0B0F930B9FFF7C6
S315080080B0BFFF00200BF04BF80020E3E700260FE097
S315080080C014F8010B00F016F805F0A0F930B9FFF71F
S315080080D0AFFF00200BF03BF80020D3E7701C86B2F8
S315080080E0BE42EDDBFFF7A4FF00200BF030F80120BD
S315080080F0C8E7000070B5044600251CE004F08006B9
S315080081006006040E802E05D1012220210B4800F0BE
S31508008110BEFC04E000222021084800F0B8FC012239
S315080081204021064800F0B3FC00224021034800F035
S31508008130AEFC681CC5B2082DE0DB70BD0008014026
S315080081400EB50020029057200190002000900023D1
S3150800815002AA40F2F4714FF4006002F0EDF8002331
S3150800816001AA40F24A414FF4006002F0E5F8002304
S315080081706A464FF47B614FF4006002F0DDF8009820
S3150800818088B100231A4640F6AE714FF4006008F035
S3150800819085FE3D48007800F0DF003B49087007205F
S315080081A00BF01EFB0EBDDDE90110884216DB3748D1
S315080081B00078401C35490870002035490870334856
S315080081C000781E2826DB1E2030490870002301226D
S315080081D040F6AE71D00208F061FE1BE00298C01CA2
S315080081E00199884216DC2A480078401C28490870FC
S315080081F0002026490870264800781E280ADB1E201B
S315080082002349087000231A4640F6AE714FF4006001
S3150800821008F044FE002302AA40F6AE714FF400604F
S3150800822002F08AF81B480078A8B11B480188008824
S31508008230401C194A1080B1F5167F02DD0020154949
S31508008240087006200BF0CCFA0F48007840F02000A2
S315080082500D49087015E00298012809D106200BF08F
S31508008260BFFA0948007840F020000749087008E07E
S315080082700548007800F0DF000349087007200BF076
S31508008280AFFA00BF8EE700001B0000208B04002019
S315080082908C040020E8030020EA03002070B5044699
S315080082A00D46242D73D2DFE805F07212304A515874
S315080082B0738DA7C1F5F3F2F1F0EFEEEDECEBEAE919
S315080082C0E8E7E6E5E4E3E2E1E0DFDEDDDCDB0CF04F
S315080082D04BFD06460CF024FD06433EB1DB4800780C
S315080082E020F00300801CD94908700DE034B1D74846
S315080082F0007864F30100D549087005E0D348007892
S3150800830020F00300D14908709EE10CF051FD38B108
S31508008310CE48007820F00C000830CC4908700DE0F3
S3150800832034B1CA48007864F38300C849087005E088
S31508008330C648007820F00C00C449087084E1C34898
S31508008340007864F30510C14908707DE1BF480078DC
S3150800835064F38710BD49087076E10CF02DFC38B13E
S31508008360BA48407820F00300801CB84948700DE0F0
S3150800837034B1B648407864F30100B449487005E062
S31508008380B248407820F00300B04948705CE15AE1F1
S315080083900CF036FC38B1AD48407820F00C000830B7
S315080083A0AA4948700DE034B1A848407864F38300C0
S315080083B0A649487005E0A548407820F00C00A34976
S315080083C0487041E10CF040FC38B1A048407820F0F4
S315080083D0300020309D4948700DE034B19B48407804
S315080083E064F305109949487005E09848407820F0EC
S315080083F030009649487027E10CF04AFC38B193489A
S31508008400407820F0C0008030904948700DE034B1C3
S315080084108E48407864F387108C49487005E08B488D
S31508008420407820F0C000894948700DE10CF0E4FC62
S3150800843038B18648807820F00300801C834988700C
S315080084400DE034B18148807864F301007F49887073
S3150800845005E07E48807820F003007C498870F3E0C8
S31508008460EAE0E0E0CCE0C4E0BCE0B4E0ACE0A4E0E4
S315080084709CE08AE082E07AE072E06AE062E05AE034
S3150800848052E050E048E046E03EE036E02EE026E0E6
S315080084901EE0FFE70CF022FD06460CF043FD0643FE
S315080084A03EB16A48807820F00C0008306749887029
S315080084B00DE034B16548807864F3830063498870B9
S315080084C005E06248807820F00C0060498870BBE0BF
S315080084D05E48807864F305105C498870B4E05B48B0
S315080084E0807864F3871059498870ADE05748C0789A
S315080084F064F301005549C870A6E05448C07864F38F
S3150800850083005249C8709FE05048007964F3000020
S315080085104E49087198E097E04C48007964F3820068
S315080085204A49087190E000BF4848007964F304108E
S315080085304649087188E04548007964F3451043497F
S31508008540087181E04148007964F386103F49087153
S315080085507AE03E48007964F3C7103C49087173E035
S315080085603A48407964F30000384948716CE0374866
S31508008570407964F341003549487165E033484079EC
S3150800858064F38200314948715EE034B12F4840797E
S3150800859064F3C3002D49487107E00DF0B3FF2B497A
S315080085A0497960F3C3012948417100BF27484079DA
S315080085B020F010002549487146E02448407964F3C4
S315080085C04510224948713FE02048407964F38610F7
S315080085D01E49487138E01D48407964F3C7101B49A5
S315080085E0487131E01948807964F3000017498871A9
S315080085F02AE01648807964F341001449887123E01B
S315080086000CF01EFC00B93CB11048807920F004003B
S31508008610001D0E49887105E00C48807920F0040099
S315080086200A49887110E00CF057FB0849897960F30C
S31508008630C3010648817107E00448807964F3041091
S315080086400249887100E000BF00BF70BDD803002052
S3150800865010B5224800780A2804DB00201F49087054
S3150800866000F046F81D484078322804DB09F06EFB16
S3150800867000201A4948701948C0781E2802DB0020D5
S315080086801649C87015488078642802DB002013490B
S31508008690887012480079642804DB00200F490871A5
S315080086A00F4908700D484079642804DB00200B49FF
S315080086B048710C49087009488079642802DB002053
S315080086C0064988710548C079642806DB00200349F5
S315080086D0C871054908700549087010BDD003002007
S315080086E0E2040020C4040020CE0400202105002056
S315080086F008B500236A4640F235414FF4006001F0A0
S315080087001BFE0098000A174948710098C1B215481F
S31508008710817100236A4640F239414FF4006001F046
S315080087200BFE47F230510098081A00900098010A8B
S315080087300C48C1710098C1B20A480172FFF7B8F82F
S31508008740012806D10848007818B900210548417261
S3150800875002E0012103484172002102488172C17278
S31508008760017308BD300800201403002010B50D4819
S31508008770007850B10C48007838B90C48007820B910
S315080087800BF06CFB00200749087000F051F8074809
S315080087900078012804D10AF09DFD002003490870DD
S315080087A010BD0000950300208703002096030020D3
S315080087B010B564201949086008200873184800880D
S315080087C0052824DA17480078012820D100240AE071
S315080087D01348008804EBC0001349095C0F48001DC4
S315080087E00155601CC4B2082CF2DB0D480088401CF9
S315080087F00B49088009480178021D0C480078FBF7E8
S315080088005DFF0621AFF25700FEF7E6FF04E0002001
S31508008810044908700249088010BD0000E0060020DF
S315080088208403002087030020AE060020780300207A
S3150800883070B51548008815490988884223D0144C14
S31508008840114D2D8804EB0514237B114C0E4D2D88F4
S3150800885004EB0514A2680E4C0B4D2D8804EB051489
S3150800886021790B4C084D2D8804EB051420680BF074
S3150800887051FB05480088401C142190FBF1F201FBCE
S3150800888012000149088070BDA2030020A003002041
S31508008890F006002030B500228B071C0F0F2303FAC1
S315080088A004F20B4B8C1053F824309343084C8D106C
S315080088B044F8253023468C1053F824308C07240FAF
S315080088C000FA04F42343024C8D1044F8253030BDD9
S315080088D0080001402DE9F041024600250026002047
S315080088E000230024002791F803C00CF00F0591F827
S315080088F003C00CF0100CBCF1000F03D091F802C0B5
S315080089004CEA050591F800C0BCF1000F31D0146897
S3150800891000202BE04FF0010C0CFA00F3B1F800C070
S315080089200CEA03069E4220D183004FF00F0C0CFA86
S3150800893003F7BC4305FA03FC4CEA040491F803C0A8
S31508008940BCF1280F06D14FF0010C0CFA00FCC2F856
S3150800895014C00AE091F803C0BCF1480F05D14FF0E6
S31508008960010C0CFA00FCC2F810C0401C0828D1D330
S315080089701460B1F800C0BCF1FF0F34DD5468002064
S315080089802EE000F1080C4FF0010808FA0CF3B1F8D4
S3150800899000C00CEA03069E4221D183004FF00F0C5B
S315080089A00CFA03F7BC4305FA03FC4CEA040491F8F5
S315080089B003C0BCF1280F05D100F1080C08FA0CF821
S315080089C0C2F8148091F803C0BCF1480F07D100F132
S315080089D0080C4FF0010808FA0CF8C2F81080401C81
S315080089E00828CED35460BDE8F0810000F0B50A46E9
S315080089F0002300240021002500F00046B6F1004FB0
S31508008A0002D11D4EF16901E01B4E7168C0F30345A2
S31508008A1083B200F44016B6F5401F08D121F0706104
S31508008A20154E766826F07066134F7E6012E000F4E5
S31508008A308016B6F5801F06D1032606FA05F4A1436B
S31508008A4041F0706106E0460D360103FA06F6B143B9
S31508008A5041F0706122B1460D360103FA06F631433C
S31508008A6000F00046B6F1004F02D1034EF16101E075
S31508008A70014E7160F0BD0000000001400246002072
S31508008A8093680B400BB1012000E0002070470AB143
S31508008A90016100E0416170471FB500200090019018
S31508008AA0029003900F4800880F490988884218D019
S31508008AB00C48008800EB800202EBC0000B4A8118C4
S31508008AC00D226846FBF72EFB684601F02AFF05488B
S31508008AD00088401C142190FBF1F201FB12000149A9
S31508008AE008801FBDD6040020D40400208624002058
S31508008AF01FB500200090019002900390134800884B
S31508008B0013490988884220D012480078E8B901201C
S31508008B10104908700D48008800EB800202EBC0007F
S31508008B200D4A81180D226846FBF7FCFA68460BF0D9
S31508008B30F3FC012809D105480088401C1E2190FB3A
S31508008B40F1F201FB1200014908801FBDD204002082
S31508008B50D0040020D80400200023002038B50024C3
S31508008B600020009000236A4640F6A6714FF4006084
S31508008B7001F0E2FB0098012802D144F0010404E068
S31508008B800098022801D144F0020400236A4640F600
S31508008B90A7714FF4006001F0CFFB0098012802D1BD
S31508008BA044F0040404E00098022801D144F00804C3
S31508008BB000236A464FF47A614FF4006001F0BCFB6B
S31508008BC00098012802D144F0100404E00098022815
S31508008BD001D144F0200400236A4640F6A1714FF4FF
S31508008BE0006001F0A9FB0098012802D144F0400476
S31508008BF004E00098022801D144F0800400236A4664
S31508008C0040F6AC714FF4006001F096FB009801281D
S31508008C1002D144F4807404E00098022801D144F497
S31508008C20007400236A4640F6AD714FF4006001F007
S31508008C3083FB0098012802D144F4806404E000987C
S31508008C40022801D144F40064204638BD38B5002412
S31508008C5000236A4640F6A4714FF4006001F06CFBED
S31508008C600098012802D144F0010404E00098022883
S31508008C7001D144F0020400236A4640F6A5714FF478
S31508008C80006001F059FB0098012802D144F0040461
S31508008C9004E00098022801D144F0080400236A463B
S31508008CA040F6A2714FF4006001F046FB00980128D7
S31508008CB002D144F0100404E00098022801D144F0DF
S31508008CC0200400236A4640F6A3714FF4006001F0C1
S31508008CD033FB0098012802D144F0400404E00098D0
S31508008CE0022801D144F0800400236A4640F6A871A0
S31508008CF04FF4006001F020FB0098012802D144F4EB
S31508008D00807404E00098022801D144F4007400231A
S31508008D106A4640F6AB714FF4006001F00DFB00980F
S31508008D20012802D144F4806404E00098022801D1A5
S31508008D3044F40064204638BD38B5002400236A464A
S31508008D4040F6AF714FF4006001F0F6FA009808B1EA
S31508008D5044F0010400236A4640F6AE714FF4006001
S31508008D6001F0EAFA009808B144F0020400236A46C2
S31508008D7040F6B1714FF4006001F0DEFA009808B1D0
S31508008D8044F0040400236A464FF47B614FF4006004
S31508008D9001F0D2FA00236A4640F6B3714FF4006038
S31508008DA001F0CAFA009808B144F0100400236A4694
S31508008DB040F6B4714FF4006001F0BEFA009808B1AD
S31508008DC044F0200400236A4640F6B5714FF400606B
S31508008DD001F0B2FA009808B144F0400400236A464C
S31508008DE040F6B4714FF4006001F0A6FA009808B195
S31508008DF044F0800400236A4640F6B9714FF40060D7
S31508008E0001F09AFA009808B144F4807400236A467F
S31508008E1040F6BA714FF4006001F08EFA009808B176
S31508008E2044F4007400236A4640F6BB714FF40060B0
S31508008E3001F082FA009808B144F4806400236A4677
S31508008E4040F6BC714FF4006001F076FA009808B15C
S31508008E5044F4006400236A4640F6BD714FF400608E
S31508008E6001F06AFA009808B144F48054204638BDE7
S31508008E7038B5002400236A4640F6BF714FF40060F7
S31508008E8001F05AFA009808B144F0010400236A4632
S31508008E904FF47C614FF4006001F04EFA009808B177
S31508008EA044F0040400236A4640F6C1714FF400609A
S31508008EB001F042FA009808B144F00804204638BD8B
S31508008EC038B500200090002400236A4640F6B831E1
S31508008ED04FF4006001F030FA40F6A670FDF72EFA5E
S31508008EE028B90BF041FF10B90BF01AFF18B100981A
S31508008EF0552800D10124204638BD38B500200090F9
S31508008F00002400236A4640F6B9314FF4006001F0A8
S31508008F1013FA40F6A770FDF711FA10B90BF048FFDF
S31508008F2018B10098552800D10124204638BD000004
S31508008F300021002000BF05E0054A52F82120104410
S31508008F404A1CD1B20A29F7DB0A2290FBF2F07047D5
S31508008F50480900200246002108E0064850F821008A
S31508008F60904201D101207047481CC1B20429F4D3AC
S31508008F700020F8E72C70010838B504460D46002095
S31508008F80009000236A4640F2D1714FF4006001F068
S31508008F90D3F90098000A1D49087000984870002304
S31508008FA06A464FF4FA614FF4006001F0C5F900987B
S31508008FB0000A164988700098C87000236A4640F26D
S31508008FC0D2714FF4006001F0B7F94EF660210098AF
S31508008FD0081A00900098000A0C4908710098487110
S31508008FE000236A4640F2E9714FF4006001F0A4F9E3
S31508008FF00098000A054988710098C8710A469021A8
S315080090002046FBF75BFB012038BD0000AC030020BF
S3150800901038B504460D460020009000236A4640F203
S31508009020DF714FF4006001F087F90098000A1749CC
S3150800903008700098487000236A4640F2E5714FF4BC
S31508009040006001F079F911490098887000236A4692
S315080090504FF4FC614FF4006001F06EF90098000AC5
S315080090600A49C8700098087100236A4640F2E671FA
S315080090704FF4006001F060F90449009848710A4607
S3150800908091212046FBF71AFB012038BDAC030020CE
S3150800909038B504460D460020009000236A4640F283
S315080090A0E1714FF4006001F047F91549009808701E
S315080090B000236A4640F2E7714FF4006001F03CF97C
S315080090C00F490098487000236A4640F2E2714FF44F
S315080090D0006001F031F90A490098887000236A4651
S315080090E04FF4FD614FF4006001F026F90449009839
S315080090F0C8700A4692212046FBF7E0FA012038BDDF
S31508009100AC0300207CB504460D4600200190009073
S31508009110002301AA40F2D3714FF4006001F00CF964
S31508009120234901980870002301AA40F2D9714FF427
S31508009130006001F001F91E4901984870002301AA50
S315080091404FF4FB614FF4006001F0F6F818490198F6
S31508009150887018480078C870002301AA40F2F631D2
S315080091604FF4006001F0E8F800236A4640F2E9711E
S315080091704FF4006001F0E0F8DDE9001048434FF4D1
S315080091807A7190FBF1F001900198000E0849087178
S315080091900198000C48710198000A88710198C871F5
S315080091A00A4693212046FBF789FA01207CBD000078
S315080091B0AC030020E003002038B504460D46002025
S315080091C0009000236A4640F2D6714FF4006001F021
S315080091D0B3F823490098087000236A4640F2D7710D
S315080091E04FF4006001F0A8F81D4900984870002364
S315080091F06A4640F2EC714FF4006001F09DF8184998
S315080092000098887000236A4640F2ED714FF40060BA
S3150800921001F092F812490098C8701248007808714F
S3150800922000236A4640F2FE314FF4006001F084F8EC
S315080092300098000A0A4948710098887100236A460E
S3150800924040F2F4714FF4006001F076F80449009892
S31508009250C8710A4694212046FBF730FA012038BD2A
S31508009260AC0300201B00002070B59AB005460E46D8
S31508009270602102A8FAF76FFF0020019000240090F1
S3150800928000236A4640F2D6714FF4006001F054F8A4
S3150800929000BF13E02146012301AA980201F04CF809
S315080092A00198C0F3072002A901F81400012101EB77
S315080092B0440102AA01985054601CC4B20098844222
S315080092C0E8DB002423E0062094FBF0F100FB1140C4
S315080092D0401C124902AA125D0A54601C062190FB22
S315080092E0F1F201FB120028B101210098C1EB400000
S315080092F0A0420AD1062094FBF0F0401C07490870EA
S315080093000A4695212846FBF7D9F9601CC4B200988D
S31508009310B4EB400FD7DB01201AB070BDAC030020B8
S3150800932070B588B006460D46142103A8FAF713FF50
S3150800933000200290002401902878AA280CD1A87849
S3150800934029498880E878C880287908816879488119
S3150800935001202649087002E00020244908700023ED
S3150800936001AA40F2D7714FF4006000F0E5FF06202D
S31508009370019000240BE004F13001012302AA9802AF
S3150800938000F0DAFF03A902980855601CC4B20198D8
S315080093908442F0DB002421E0072094FBF0F100FB77
S315080093A01140401C124903AA125D0A54601C072189
S315080093B090FBF1F201FB120018B10198401EA04281
S315080093C00AD1072094FBF0F0401C094908700A46A8
S315080093D096213046FBF772F9601CC4B201988442A4
S315080093E0DADB012008B070BDFA0400201E05002053
S315080093F0AC03002070B504460D46104800781049A5
S3150800940008700E48407848700C48807888700B4879
S31508009410C078C870094800790871084840794871C9
S315080094200648807988710548C079C8710A46972127
S315080094302046FBF743F9012070BD0000D402002046
S31508009440AC03002070B504460D4610480078104954
S3150800945008700E48407848700C48807888700B4829
S31508009460C078C87009480079087108484079487179
S315080094700648807988710548C079C8710A469821D6
S315080094802046FBF71BF9012070BD0000D803002019
S31508009490AC030020F8B505460E46002000900024CF
S315080094A02348007818B101202249087002E00020FC
S315080094B02049087000201F49087000236A4640F2B8
S315080094C0F7714FF4006000F037FF47F23050009014
S315080094D00098000A174948700098887000236A4661
S315080094E04FF47C714FF4006000F026FF002011490C
S315080094F0C87000240AE00E4800780121A1400840FF
S3150800950018B1601C0B49C87003E0641C00988442BB
