S31508004000F0420020014100087DCD000869C700087C
S3150800401079CD0008815900081D1801080000000024
S31508004020000000000000000000000000EDE30008AA
S31508004030097D000800000000BDCE0008D50901086A
S315080040401B4100081B4100081B41000889DE0008C7
S315080040501B4100081B410008918100081B4100080C
S315080040601B41000815820008238200081B4100082E
S315080040701B4100081B4100081B4100081B410008A2
S315080040801B4100081B4100081B410008FDEF000802
S31508004090F11701081B4100081B410008318200087E
S315080040A01B4100081B4100081B4100081B41000872
S315080040B01B4100081B4100081B4100081B41000862
S315080040C01B4100081B4100081B4100081B41000852
S315080040D01B41000895100108451101080112010845
S315080040E0A18100086DDA00081B410008DFF80CD032
S315080040F000F03CF800480047D1330108F0420020A0
S315080041000648804706480047FEE7FEE7FEE7FEE763
S31508004110FEE7FEE7FEE7FEE7FEE7FEE7510A0108CF
S31508004120ED40000840EA01039B0703D009E008C9EF
S31508004130121F08C0042AFAD203E011F8013B00F85E
S31508004140013B521EF9D27047D2B201E000F8012BAA
S31508004150491EFBD270470022F6E710B513460A46F9
S3150800416004461946FFF7F0FF204610BD064C074DDA
S3150800417006E0E06840F0010394E807009847103429
S31508004180AC42F6D3FFF7B6FF5C6801087C68010805
S3150800419070B58C1810F8015B15F0070301D110F8FB
S315080041A0013B2A1106D110F8012B03E010F8016B28
S315080041B001F8016B5B1EF9D12B0705D40023521EAB
S315080041C00DD401F8013BFAE710F8013BCB1A921C13
S315080041D003E013F8015B01F8015B521EF9D5A14211
S315080041E0D8D3002070BD21B1826842F001028260F6
S315080041F003E0826822F001028260704710B5044627
S315080042001248844208D10121401509F08BF9002192
S31508004210601509F087F917E00D48844208D1012195
S31508004220001509F07FF90021201509F07BF90BE04C
S315080042300848844208D10121C80309F073F900210E
S315080042404FF4004009F06EF910BD0000002401404B
S3150800425000280140003C0140014600208A6802F01F
S3150800426004020AB1012000E0002070470146C86C2C
S3150800427080B270470246002013680B400BB101203C
S3150800428000E000207047014600208A6802F0080214
S315080042900AB1012000E000207047000030B5024650
S315080042A00020002350680F4C20400D790C6844EA22
S315080042B005242043506090680B4C2040D1E90254F5
S315080042C02C434D7944EA450420439060D06A20F493
S315080042D070000C7C641EE4B2234340EA0350D062AB
S315080042E030BD0000FFFEF0FFFDF7F1FF10B507F047
S315080042F025FA30B10E48007840F001000C490870E4
S3150800430005E00B48007800F0FE000949087007F040
S3150800431021FA30B10648007840F0020004490870D6
S3150800432005E00348007800F0FD000149087010BD5B
S315080043301B000020F0B504460D4600200021092D7B
S3150800434011DDE068A5F10A0606EB4607072606FA18
S3150800435007F18843A5F10A0606EB460603FA06F1B5
S315080043600843E0600CE0206905EB4507072606FAD6
S3150800437007F1884305EB450603FA06F10843206171
S31508004380072A0FDA606B561E06EB86071F2606FA03
S3150800439007F18843561E06EB860605FA06F108431A
S315080043A0606322E00D2A0FDA206BD61F06EB86071C
S315080043B01F2606FA07F18843D61F06EB860605FA76
S315080043C006F10843206310E0E06AA2F10D0606EB49
S315080043D086071F2606FA07F18843A2F10D0606EBA3
S315080043E0860605FA06F10843E062F0BD816841F0E9
S315080043F008018160704721B1826842F4A002826098
S3150800440003E0826822F4A00282607047816841F066
S3150800441004018160704700002DE9FC4100200190ED
S3150800442000900025002400278046002600231A460F
S3150800443040F6BB714FF400600BF0A0FE002301AA02
S3150800444040F2EF314FF4006006F09EF900BF42E0FB
S3150800445005F2F33100236A464FF4006006F094F93A
S31508004460002433E005EB450000EBC5001C4901EBD1
S315080044708001222000EB4400401C085C05EB450146
S3150800448001EBC501164A02EB8101222202EB440226
S31508004490895C00EB01281FFA88F007F0D7FE06466C
S315080044A044F27400864200DD0646642096FBF0F06E
S315080044B00C4921F81700781CC7B20B48007818B1C8
S315080044C0022F01DBBDE8FC81601CC4B2009884425F
S315080044D0C8DB681CC5B201988542B9DB00BFF1E7A5
S315080044E0783D0020E0040020040500202DE9FC4169
S315080044F000200190009000260025002700240023B4
S3150800450001AA40F2EF314FF4006006F03DF900BF12
S315080045106BE005F57C7100236A464FF4006006F0EF
S3150800452033F90098C0F1050000F0FF08002757E0AE
S3150800453005EB450000EBC5002E4901EB800108EBB1
S3150800454007000E2202EB4000401C095C05EB450003
S3150800455000EBC500274A02EB800208EB07000E2392
S3150800456003EB4000105C01EB002641F270707043CB
S31508004570C0F30F30204921F81400084630F814001B
S3150800458041F28831884203DD08461B4921F81400A8
S3150800459040F6FF70864203D04FF6FF70864212D16E
S315080045A01648005D401C154908550846005D0A284E
S315080045B012DB114830F81400114921F814000020C4
S315080045C00E49085508E00C4830F814000C4921F843
S315080045D01400002009490855601CC4B2781CC7B2EB
S315080045E000988742A4DB681CC5B20198854290DB17
S315080045F0BDE8FC81783D00205C3E0020BC3E0020E2
S31508004600FC3D002010B5002202210B4804F0F7FCFF
S3150800461027200DF087FF01220421074804F0EFFC4C
S3150800462027200DF07FFF00220421034804F0E7FC51
S3150800463027200DF077FF10BD001001402DE9F0414D
S31508004640A0B006460F4615464FF00008802168467A
S31508004650FFF781FD00F076F8362000F027F909F01B
S31508004660B5F828B900F092F8002020B0BDE8F0812E
S31508004670384600F01BF909F0A9F818B900F086F8D1
S315080046800020F2E700F05EF8372000F00FF909F095
S315080046909DF818B900F07AF80020E6E7002406E04D
S315080046A000F026F83055FFF7ADFF601C84B2AC4227
S315080046B0F6DB00F01DF8804600F084F800F066F896
S315080046C037208DF80000002404E0315D601C0DF8E9
S315080046D0001084B2AC42F8DB681CC1B2684601F02F
S315080046E00DFC404501D00020BFE70120BDE70000D2
S315080046F070B5002400F0D6FA00251BE06006040E0B
S31508004700012204210E4804F07AFC27200DF00AFF46
S3150800471002210B4804F06AFC012801DB44F001047D
S3150800472000220421064804F06AFC27200DF0FAFE50
S31508004730681CC5B2082DE1DB00F0C6FA204670BD3C
S315080047400010014010B5012204210F4804F057FC5F
S3150800475027200DF0E7FE012202210B4804F04FFC4A
S3150800476027200DF0DFFE00220221074804F047FC4F
S3150800477027200DF0D7FE00220421034804F03FFC51
S3150800478027200DF0CFFE10BD0010014010B5002205
S3150800479002210B4804F033FC27200DF0C3FE01224A
S315080047A00421074804F02BFC27200DF0BBFE01224C
S315080047B00221034804F023FC27200DF0B3FE10BDA8
S315080047C00010014010B5012202210B4804F017FC25
S315080047D027200DF0A7FE01220421074804F00FFC4C
S315080047E027200DF09FFE00220421034804F007FC51
S315080047F027200DF097FE10BD001001402DE9F0416D
S31508004800A0B005460F46164680216846FFF7A3FC6A
S315080048104FF0000836208DF800008DF8017000244E
S3150800482005E0295DA01C0DF80010601C84B2B44296
S31508004830F7DBB01CC1B2684601F060FB8046FFF7A3
S3150800484081FF362000F032F808F0C0FF28B9FFF7DC
S315080048509DFF002020B0BDE8F081384600F026F81C
S3150800486008F0B4FF18B9FFF791FF0020F2E700241B
S315080048700CE015F8010B00F019F808F0A7FF18B9B5
S31508004880FFF784FF0020E5E7601C84B2B442F0DB42
S31508004890404600F00BF808F099FF18B9FFF776FFC5
S315080048A00020D7E7FFF772FF0120D3E770B504466B
S315080048B0002525E004F080066006040E802E05D14A
S315080048C001220221104804F09AFB04E0002202218A
S315080048D00D4804F094FB27200DF024FE0122042144
S315080048E0094804F08CFB27200DF01CFE0022042149
S315080048F0054804F084FB27200DF014FE681CC5B299
S31508004900082DD7DB70BD00000010014010B500224D
S3150800491080210B4804F073FB27200DF003FE0122CB
S315080049204021074804F06BFB27200DF0FBFD002211
S315080049304021034804F063FB27200DF0F3FD10BD6A
S31508004940000C01402DE9F041A0B006460F46154679
S315080049504FF0000880216846FFF7FDFB00F088F855
S31508004960362000F039F908F055FF28B900F0A4F808
S31508004970002020B0BDE8F081384600F02DF908F097
S3150800498049FF18B900F098F80020F2E7284600F029
S3150800499023F908F03FFF18B900F08EF80020E8E781
S315080049A000F066F8372000F017F908F033FF18B959
S315080049B000F082F80020DCE7002406E000F02EF87C
S315080049C03055FFF7A3FF601C84B2AC42F6DB00F05B
S315080049D025F8804600F08CF800F06EF836208DF841
S315080049E000008DF801708DF8025037208DF803000D
S315080049F0002405E0315D201D0DF80010601C84B20E
S31508004A00AC42F7DB281DC1B2684601F077FA40458B
S31508004A1001D00020ADE70120ABE7000070B5002407
S31508004A2000F064F900251BE06006040E012240210F
S31508004A300E4804F0E4FA27200DF074FD80210B4897
S31508004A4004F0D4FA012801DB44F0010400224021D5
S31508004A50064804F0D4FA27200DF064FD681CC5B298
S31508004A60082DE1DB00F054F9204670BD000C01402A
S31508004A7010B5012240210F4804F0C1FA27200DF095
S31508004A8051FD012280210B4804F0B9FA27200DF0C8
S31508004A9049FD00228021074804F0B1FA27200DF0CD
S31508004AA041FD00224021034804F0A9FA27200DF011
S31508004AB039FD10BD000C014010B5002280210B48BD
S31508004AC004F09DFA27200DF02DFD0122402107480C
S31508004AD004F095FA27200DF025FD012280210348D0
S31508004AE004F08DFA27200DF01DFD10BD000C0140C5
S31508004AF010B5012280210B4804F081FA27200DF019
S31508004B0011FD01224021074804F079FA27200DF00B
S31508004B1009FD00224021034804F071FA27200DF010
S31508004B2001FD10BD000C01402DE9F041A0B005467D
S31508004B300F46164680216846FFF70DFB4FF0000822
S31508004B4036208DF800008DF80170002405E0295DF7
S31508004B50A01C0DF80010601C84B2B442F7DBB01C30
S31508004B60C1B2684601F0CAF98046FFF781FF3620D0
S31508004B7000F032F808F04EFE28B9FFF79DFF002036
S31508004B8020B0BDE8F081384600F026F808F042FE6D
S31508004B9018B9FFF791FF0020F2E700240CE015F89A
S31508004BA0010B00F019F808F035FE18B9FFF784FF75
S31508004BB00020E5E7601C84B2B442F0DB404600F012
S31508004BC00BF808F027FE18B9FFF776FF0020D7E79D
S31508004BD0FFF772FF0120D3E770B50446002525E0EC
S31508004BE004F080066006040E802E05D1012280217D
S31508004BF0104804F004FA04E0002280210D4804F06D
S31508004C00FEF927200DF08EFC01224021094804F008
S31508004C10F6F927200DF086FC00224021054804F00D
S31508004C20EEF927200DF07EFC681CC5B2082DD7DBEF
S31508004C3070BD0000000C01402DE9F04104460D4608
S31508004C4016461F464FF0000834B93A4631462846FC
S31508004C50FFF7F4FC804607E0012C05D13A463146B9
S31508004C602846FFF76FFE80464046BDE8F0812DE9ED
S31508004C70F04104460D4616461F464FF0000834B963
S31508004C803A4631462846FFF7B9FD804607E0012C2B
S31508004C9005D13A4631462846FFF746FF8046404644
S31508004CA0BDE8F08108B50220ADF8000003208DF8B4
S31508004CB0020004208DF803006946024804F0C2F891
S31508004CC008BD00000010014008B50220ADF800003C
S31508004CD003208DF8020014208DF803006946024867
S31508004CE004F0B0F808BD00000010014008B58020A7
S31508004CF0ADF8000003208DF8020004208DF80300AB
S31508004D006946024804F09EF808BD0000000C014000
S31508004D1008B58020ADF8000003208DF802001420A5
S31508004D208DF803006946024804F08CF808BD0000B7
S31508004D30000C014010B5044611480088401C142197
S31508004D4090FBF1F201FB12000E490988884215D042
S31508004D500B49098801EB810202EBC1010A4A88184E
S31508004D600D222146FFF7DEF905480088401C14216C
S31508004D7090FBF1F201FB12000149088010BD00000A
S31508004D80A0040020A20400206020002010B50446DC
S31508004D9014480088401C1E2190FBF1F201FB12000A
S31508004DA01149098888421BD0E07808B90820E070C4
S31508004DB00C49098801EB810202EBC1010B4A8818EC
S31508004DC00D222146FFF7AEF906480088401C1E2131
S31508004DD090FBF1F201FB120002490880012010BD88
S31508004DE00020FCE79C0400209E040020DA1E002018
S31508004DF030B50F490988491C142291FBF2F302FBCE
S31508004E0013110C4A1288914211D00B49084A12888C
S31508004E1001EB021190E83C003CC105490988491C90
S31508004E20142291FBF2F302FB1311014A118030BDE3
S31508004E308E04002090040020101B002030B5014687
S31508004E4018480088401C1E2290FBF2F302FB130050
S31508004E50154A1288904222D0087B08B908200873A0
S31508004E600868B0F5006F02D90120887301E00020B8
S31508004E708873002048730D480A4A128800EB02100E
S31508004E8091E83C003CC007480088401C1E2290FB65
S31508004E90F2F302FB1300034A1080012030BD002004
S31508004EA0FCE700008A0400208C040020301900204A
S31508004EB010B5044611480088401C142190FBF1F2F5
S31508004EC001FB12000E490988884215D00B4909884A
S31508004ED001EB810202EBC1010A4A88180D2221461C
S31508004EE0FFF720F905480088401C142190FBF1F2D1
S31508004EF001FB12000149088010BD0000AA04002029
S31508004F00AC040020EA22002010B5044614480088A4
S31508004F10401C1E2190FBF1F201FB12001149098881
S31508004F2088421BD0E07808B90820E0700C49098847
S31508004F3001EB810202EBC1010B4A88180D222146BA
S31508004F40FFF7F0F806480088401C1E2190FBF1F296
S31508004F5001FB120002490880012010BD0020FCE771
S31508004F60A6040020A80400206421002070B58AB099
S31508004F7005460E46144600200690079008900990AC
S31508004F80029003900490059001200190002301AA45
S31508004F9040F24941C00205F0F7FB4DBBA5208DF84C
S31508004FA0180001208DF819008DF81A6008208DF870
S31508004FB01B0020788DF81C0061788DF81D10A178EB
S31508004FC08DF81E10E1788DF81F10217906A8017258
S31508004FD061794172A1798172E179C17206A80FC817
S31508004FE008F0F2FC8DF8240006A800F00DF97FE021
S31508004FF0022D29D1A5208DF8180001208DF8190059
S315080050008DF81A6008208DF81B0020788DF81C0092
S3150800501061788DF81D10A1788DF81E10E1788DF84D
S315080050201F10217906A8017261794172A1798172EE
S31508005030E179C17206A80FC808F0C6FC8DF82400ED
S3150800504006A8FFF7A3FE53E0032D29D1A5208DF866
S31508005050180001208DF819008DF81A6008208DF8BF
S315080050601B0020788DF81C0061788DF81D10A1783A
S315080050708DF81E10E1788DF81F10217906A80172A7
S3150800508061794172A1798172E179C17206A80FC866
S3150800509008F09AFC8DF8240006A8FFF735FF27E0EC
S315080050A0012D25D14FF0C05000EB064000F5804099
S315080050B0401C029008208DF8140020788DF80C000A
S315080050C061788DF80D10A1788DF80E10E1788DF8BD
S315080050D00F1021798DF8101061798DF81110A179CA
S315080050E08DF81210E1798DF8131002A8FFF7A6FEC5
S315080050F00AB070BD10B5044612480088401C0A2143
S3150800510090FBF1F201FB12000F490988884217D07B
S315080051100C49098801EB410202EBC1110B4A02EB6B
S3150800512041004FF483722146FEF7FCFF05480088CC
S31508005130401C0A2190FBF1F201FB1200014908808C
S3150800514010BD0000C8040020CA040020E832002070
S3150800515010B5044613480088401C0A2190FBF1F25A
S3150800516001FB120010490988884219D00D4909889F
S3150800517001EB410202EBC1110C4A02EB41004FF46C
S3150800518083722146FEF7CEFF06480088401C0A2196
S3150800519090FBF1F201FB120002490880012010BDC4
S315080051A00020FCE7C4040020C6040020AC28002028
S315080051B010B5044611480088401C142190FBF1F2F2
S315080051C001FB12000E490988884215D00B49098847
S315080051D001EB810202EBC1010A4A88180D22214619
S315080051E0FEF7A0FF05480088401C142190FBF1F249
S315080051F001FB12000149088010BD0000960400203A
S3150800520098040020D61D002010B5044614480088CE
S31508005210401C1E2190FBF1F201FB1200114909887E
S3150800522088421BD0E07808B90820E0700C49098844
S3150800523001EB810202EBC1010B4A88180D222146B7
S31508005240FEF770FF06480088401C1E2190FBF1F20D
S3150800525001FB120002490880012010BD0020FCE76E
S315080052609204002094040020501C00207CB50024E1
S31508005270002500200190009000BFACE004EB44003C
S31508005280664951F8200040F6A271884208D004EB1E
S315080052904400624951F8200040F6A471884217D1AB
S315080052A0002301AA40F2D3714FF4006005F06CFAAE
S315080052B0C0B30198022836D104EB4400574A52F885
S315080052C0201000231A464FF400600AF057FF80E0CA
S315080052D004EB4400514951F8200040F6A371884276
S315080052E008D004EB44004D4951F8200040F6A5715A
S315080052F0884218D1002301AA40F2D3714FF4006006
S3150800530005F042FA70B1019801280CD104EB44006B
S31508005310424A52F8201000231A464FF400600AF059
S315080053202DFF56E0FFE704EB44003C4901EB800003
S315080053308068E8B104EB44000A4602EB80000023CB
S315080053406A4681684FF4006005F01EFA00B940E02D
S31508005350009855280CD145F0020504EB44002F4A65
S3150800536052F820100023022290020AF007FF30E0CC
S3150800537004EB4400294901EB80004068E8B104EBDE
S3150800538044000A4602EB800000236A4641684FF44F
S31508005390006005F0F9F900B91BE0009855280CD112
S315080053A045F0010504EB44001C4A52F8201000237E
S315080053B00122D0020AF0E2FE0BE004EB4400174A91
S315080053C052F8201000231A464FF400600AF0D6FE61
S315080053D000BF601C84B20E2CFFF450AF05F002002B
S315080053E038B10023022240F2DC7190020AF0C6FEB0
S315080053F012E005F0010038B10023012240F2DC7109
S31508005400D0020AF0BBFE07E000231A4640F2DC7120
S315080054104FF400600AF0B2FE7CBD0000D8420108D5
S315080054202DE9F04105460E46069C0021002B34D096
S3150800543027889F4203DA27887F1C278000E023807D
S3150800544027887F1EB8B206E0471E32F8177022F882
S315080054501070471EB8B20028F6DC1580002004E05C
S3150800546032F810703944471CB8B227888742F7DCEF
S31508005470B4F800C00CEB4C07B1FBFCF80CFB181C8D
S315080054804FEAE77807EB9878BCEBA80F01D927888D
S3150800549039442788B1FBF7F13180BDE8F081000077
S315080054A0F8B505460E4614461F46062D39D2DFE8DE
S315080054B005F03803101D2F261B4800EB440000900A
S315080054C01A4850F82420032339463046FFF7A8FF28
S315080054D027E0174800EB44000090164850F82420AF
S315080054E0032339463046FFF79BFF1AE012480A2382
S315080054F0124A394600903046FFF792FF11E01048ED
S315080055000523104A394600903046FFF789FF08E020
S315080055100D4805230D4A394600903046FFF780FFAF
S3150800552000BF00BFF8BD00008A050020C0010020AA
S31508005530EA05002080020020C80200200E0600208E
S31508005540CC0200202C060020CA02002022060020D9
S3150800555010B5012007F0F6FF002007F0F3FF10BD95
S3150800556008B50146002000900348009000980844BA
S3150800557000900098008808BD006C004008B500221D
S315080055800092044A0092009A02440092009A11601E
S3150800559008BD0000006C004010B50EF0EFFA06F0EA
S315080055A07BF820B102480078401C0149087010BDFC
S315080055B0160000201FB5002000900190029003906D
S315080055C00F4800880F490988884218D00C48008877
S315080055D000EB800202EBC0000B4A81180D226846D8
S315080055E0FEF7A0FD684600F0B7F905480088401C9C
S315080055F0142190FBF1F201FB1200014908801FBD3E
S31508005600A2040020A0040020602000201FB500206E
S315080056100090019002900390134800881349098866
S31508005620884220D012480078E8B90120104908704D
S315080056300D48008800EB800202EBC0000D4A811875
S315080056400D226846FEF76EFD68460CF053FD0128EC
S3150800565009D105480088401C1E2190FBF1F201FB88
S315080056601200014908801FBD9E0400209C040020EA
S31508005670A4040020DA1E0020F8B500240025002026
S315080056800090002600236A4640F2EF314FF400608E
S3150800569005F07AF80098C5B2AA201249087000BF2A
S315080056A000BF16E0104830F8140050B10E4830F824
S315080056B01410204605F09CFB55200A49087001265F
S315080056C005E0094830F81410204605F091FB601CE7
S315080056D0C4B2AC42E6DB012332464F2198020AF0F7
S315080056E04DFDF8BDDC020020CE0200202DE9FF4169
S315080056F0002003900290019000270025002680468E
S31508005700009000244D480088401C80B24B49088010
S31508005710052801DABDE8FF81052048490880484880
S315080057200088401C80B246490880B0F5167F06DB23
S315080057300020444908704FF41670414908804148D2
S315080057400078012800D1E5E73F480078012800D114
S31508005750E0E7002301AA40F2DF714FF4006005F08C
S3150800576013F8019F002301AA4FF4FC614FF400606F
S3150800577005F00AF8019D002301AA40F2E1714FF4F1
S31508005780006005F001F8019E002301AA40F22D41B0
S315080057904FF4006004F0F8FFDDF80480002303AA44
S315080057A040F2FF314FF4006004F0EEFF002302AA36
S315080057B040F2D3714FF4006004F0E6FF039898B9FD
S315080057C00298012803D02148007801280CD15F2EC1
S315080057D006DAB5F5C86F03DB01201D49087006E037
S315080057E002201B49087002E002201949087000F0DF
S315080057F059FC17480078012819D000236A4640F258
S31508005800EF314FF4006004F0BFFF002405E00021EB
S31508005810204605F0EDFA601CC4B200988442F6DB17
S31508005820012300224F2198020AF0A8FC72E700F033
S3150800583075FBFFF721FF00BF6CE70000F0020020B0
S31508005840E8020020DE020020E2020020EB0200202F
S31508005850DD0200202DE9F843054600240026002035
S31508005860009000278046814600236A4640F2EF31C1
S315080058704FF4006004F088FF0098C6B200BF0CE041
S315080058802DB14FF6FF702B4921F8140003E00020D4
S31508005890284921F81400601CC4B2B442F0DB002485
S315080058A009E01DB1FF202449085502E000202249DD
S315080058B00855601CC4B2082CF3DB2048057055B3A4
S315080058C0002425E004F57C7100236A464FF4006045
S315080058D004F05AFF0098074419480078B8420ADCD1
S315080058E017480078404506DD15480078A0EB080003
S315080058F01FFA80F901E04FF00009B846A9F1010046
S315080059000122824091B2204605F072FA601CC4B2A8
S31508005910B442D7DB09E0002405E00021204605F063
S3150800592067FA601CC4B2B442F7DB00200549088058
S31508005930BDE8F883CE020020D4020020DE02002053
S31508005940DF020020E802002002480078401C0149D6
S3150800595008707047C403002010B504466078802894
S3150800596005D1A178221D022007F072FA07E06078B7
S31508005970402804D1A178221D022007F069FA10BD3B
S3150800598000BFFEE708B50121480607F09BFD012187
S31508005990052007F0B7FD4FF40060ADF80000482079
S315080059A08DF803006946204803F04CFA4FF48050FE
S315080059B0ADF8000018208DF8030003208DF80200CA
S315080059C06946194803F03EFA184800F035F81848B1
S315080059D000F0F1F90020164988710120C8710020ED
S315080059E00872487288720120C87200208870C870D0
S315080059F00220087101204871102008800B4800F029
S31508005A00C4F800200B498872C87201200873002068
S31508005A10088048808880C880088101204873084625
S31508005A2000F026F808BD00000008014000640040A8
S31508005A300C0500201805002010B504460B488442C2
S31508005A4009D10121480607F04DFD00214FF00070ED
S31508005A5007F048FD08E00121880607F043FD00210C
S31508005A604FF0806007F03EFD10BD00000064004066
S31508005A7010B50021837A012202FA03F13D4A126821
S31508005A8042F001023B4B1A603A4A1C3212688A43BA
S31508005A90384B1C331A60027BCAB9364A0C32126874
S31508005AA08A43344B0C331A604288C38842EA03435C
S31508005AB0304A4032847A42F834300288838842EA8F
S31508005AC003432C4A4032847A02EBC4025360027BB9
S31508005AD0012A19D1274A0C3212680A43254B0C337E
S31508005AE01A604288038842EA0343224A4032847A8B
S31508005AF042F83430C288838842EA03431D4A40325A
S31508005B00847A02EBC4025360C27A3AB9194A121D62
S31508005B1012688A43174B1B1D1A6006E0154A121DA8
S31508005B2012680A43134B1B1D1A60028932B9114ABF
S31508005B30143212688A430F4B14331A600289012AF9
S31508005B4006D10C4A143212680A430A4B14331A60F7
S31508005B50427B012A06D1074A1C3212680A43054BC2
S31508005B601C331A60034A126822F00102014B1A60BC
S31508005B7010BD0000006600401AB143690B4343613B
S31508005B8002E043698B434361704730B50246002003
S31508005B900023146824F002041460146844F0010415
S31508005BA0146000E05B1C546804F001041CB94FF64D
S31508005BB0FF74A342F6D1546804F001040CB900201E
S31508005BC06CE08C79012C04D1146844F080041460CC
S31508005BD003E0146824F080041460CC79012C04D105
S31508005BE0146844F04004146003E0146824F0400488
S31508005BF014600C7A012C04D1146844F02004146053
S31508005C0003E0146824F0200414604C7A012C04D1B3
S31508005C10146844F01004146003E0146824F01004B7
S31508005C2014608C7A012C04D1146844F008041460BA
S31508005C3003E0146824F008041460CC7A012C04D11B
S31508005C40146844F00404146003E0146824F004049F
S31508005C5014608C78A407CD7844EA05640D7944EA83
S31508005C6005444D7944EA05540D886D1E2C43D461CC
S31508005C70146824F001041460002300E05B1C5468D7
S31508005C8004F001041CB14FF6FF74A342F6D1546820
S31508005C9004F001040CB1002000E0012030BD08B575
S31508005CA04FF4C06007F0A4F814208DF80000002017
S31508005CB08DF801008DF8020001208DF80300684672
S31508005CC007F05EF808BD10B500F5D87303EB0113AD
S31508005CD01B6803F004031372137A53B900F5D873DB
S31508005CE003EB01131B6840F2FF7404EA5353136075
S31508005CF009E000F5D87303EB01131B686FF06044E5
S31508005D0004EAD303536000F5D87303EB01131B6849
S31508005D1003F00203537200F5D87303EB01135B68B3
S31508005D2003F00F03937200F5D87303EB01135B6856
S31508005D301B0AD37400F5D87303EB01139B68D3725F
S31508005D4000F5D87303EB01139B681C0A147300F55E
S31508005D50D87303EB01139B681C0C547300F5D873B6
S31508005D6003EB01139B681B0E937300F5D87303EBC3
S31508005D700113DB68D37300F5D87303EB0113DB68F3
S31508005D801C0A147400F5D87303EB0113DB681C0CAA
S31508005D90547400F5D87303EB0113DB681B0E937478
S31508005DA021B9C36843F02003C36003E0036943F0E5
S31508005DB02003036110BD00218171C1710172417216
S31508005DC08172C1728170C170032101710221417112
S31508005DD001210180704710B502460020936803F040
S31508005DE08063B3F1806F00D110E0936803F000631D
S31508005DF0B3F1006F01D1012008E0936803F08053E6
S31508005E00B3F1805F01D1022000E00420042874D099
S31508005E1002F5C07303EB00131B6803F0010402F5D7
S31508005E20C07303EB00131C600B7A7BB94B7A0C88A2
S31508005E3043EA445302F5C07404EB00142468234370
S31508005E4002F5C07404EB0014236010E00B7A4C686A
S31508005E5043EAC4034C7A234302F5C07404EB0014E6
S31508005E602468234302F5C07404EB001423608B7A7C
S31508005E7003F00F038B7202F5C07303EB00135B6824
S31508005E8023F00F0402F5C07303EB00135C6002F500
S31508005E90C07303EB00135B688C7A234302F5C07466
S31508005EA004EB001463608B7B1C064B7B44EA0344BB
S31508005EB00B7B44EA0323CC7A234302F5C07404EB34
S31508005EC00014A3608B7C1C064B7C44EA03440B7CC1
S31508005ED044EA0323CC7B234302F5C07404EB001485
S31508005EE0E36002F5C07303EB00131B6843F001047B
S31508005EF002F5C07303EB00131C6010BD10B5024613
S31508005F00002006E013784340034CE05C521C4B1E0D
S31508005F10D9B20029F6DC10BDCC6001082DE9F04F96
S31508005F20D1B0002400250026A146A246A34600209B
S31508005F3050900027AA204F9000204E9080464D9002
S31508005F404C90C0211CA8FEF706F900201B901A9059
S31508005F5000231AAA40F2EF314FF4006004F014FC53
S31508005F601A98C0B24E9000231AAA4FF480614800CE
S31508005F7004F00AFCDDF8688000231AAA40F2014101
S31508005F804FF4006004F000FC1A984D9000231AAAFA
S31508005F904FF4FC614FF4006004F0F6FB1A9880B2E7
S31508005FA050903D480078012802D13C48008850901E
S31508005FB0684608F09FFC342269460DA8FEF7B2F839
S31508005FC0002564E00DA830F815001B901B98404585
S31508005FD059D305F57C7100231AAA4FF4006004F022
S31508005FE0D3FB1A98C6B2102E00DC16B951B0BDE81C
S31508005FF0F08F002412E008F087FC00EB470030F829
S3150800600014B01CA800EB851020F824B01CA800EBDF
S31508006010851000EB84008470601CC4B2B442EADBCD
S315080060201CA901EB851031460CF076F9701EC4B236
S3150800603027E01CA800EB851000EB840090F802907E
S315080060401CA800EB851030F824105098A1EB000A24
S315080060504D98824509D31CA800EB851030F824001A
S31508006060404502D355204F9001E0AA204F90CDF825
S31508006070309129460A484F9B4C9A04F0F9FE601C59
S31508006080C4B2B442D5DBB819C7B2681CC5B24E98BB
S31508006090854297DB00BFA9E7E3020020E40200205F
S315080060A0CE02002038B500240025002000900023E9
S315080060B06A4640F2EF314FF4006004F065FB009841
S315080060C0C5B200BF05E00020084921F81400601C8D
S315080060D0C4B2AC42F7DB002404E0002004490855AA
S315080060E0601CC4B2082CF8DB38BD0000CE020020C4
S315080060F0D4020020F8B549F64044002500260020C1
S3150800610000901E480068401C1C4908600846006844
S315080061101B490968884230D300201849086007F0EF
S31508006120DBFD0546174800682E1A00236A4640F22A
S315080061305E414FF4006004F027FB00987043104955
S315080061400968B0FBF1F40023224640F25E414FF4A1
S3150800615000600AF013F850B108F036F807F00CFDA5
S31508006160204607F0EFFF08F02FF807F00FFD054867
S3150800617005604FF4167002490860F8BD3800002023
S31508006180300000203400002010B500F047FD10BD97
S315080061907CB50020019000250026009000240023ED
S315080061A06A4640F6BF714FF4006004F0EDFA0098B5
S315080061B000B17CBD002301AA40F2D2714FF4006001
S315080061C004F0E2FA5B480078401C5A490870084611
S315080061D000781E2803DC0198401C019006E055480B
S315080061E00078642802DB0020524908705249534A55
S315080061F01278019841F8220050480078401C0A217C
S3150800620090FBF1F201FB12004C49087047F230513D
S315080062100198884251DA01980D1A48F6A04085423D
S3150800622001DD0025C5E72E464548007801281ED120
S31508006230002419E04248408804EB4401414A32F8F8
S31508006240111088420EDD04EB4400114601EB4000B4
S315080062504088684304EB440102EB4101898890FBBE
S31508006260F1F603E0601CC4B2042CE3DB00BF364839
S31508006270006858B935480068334908600023344A2D
S3150800628040F2F6314FF4006004F07EFA30480068B8
S31508006290C0EB401040014FF47A7190FBF1F02B49A6
S315080062A00968884204DD2B4800683044294908609B
S315080062B02948006828442849086047F2305101985F
S315080062C0884235DD0198451A48F6A040854201DD29
S315080062D000256EE72E461A48007802281ED10024AB
S315080062E019E01748408804EB44011C4A32F811109B
S315080062F088420EDD04EB4400114601EB400040885D
S31508006300684304EB440102EB4101898890FBF1F6EE
S3150800631003E0601CC4B2042CE3DB00BF0D48006830
S31508006320801B0C4908600E48006828440C49086020
S3150800633000BF3EE73C040020E007002030040020B0
S31508006340040400205C4801083404002008040020E6
S315080063503804002018040020280400207448010886
S315080063602C04002038B500200090002400236A463B
S3150800637040F2FE314FF4006004F006FA0098322825
S3150800638002DA4FF47A7414E0009832280FDB40F2F0
S315080063901A41009888420ADC009800EB400101EB9C
S315080063A000100849081A642190FBF1F401E04FF443
S315080063B048740023224640F2FD314FF4006009F08C
S315080063C0DDFE38BD568A01007FB500250024002071
S315080063D0039002900190009003F05CF8044648F69A
S315080063E0A04084420FD847F2305084420BD350481D
S315080063F00088401C4E490880084600880A2805DDA2
S315080064000A20088002E000204949088047F2265001
S3150800641084420FD845F6C05084420BD345480088BD
S31508006420401C44490880084600880A2805DD0A20D9
S31508006430088002E000203F490880002303AA40F2B2
S31508006440DD714FF4006004F09FF9002302AA4FF4AF
S31508006450FC614FF4006004F097F900236A4640F2A5
S31508006460DF714FF4006004F08FF9002301AA40F2AF
S31508006470E9714FF4006004F087F940F2DC510398A3
S31508006480884200DA7FBD2A4800880A2813DBA4F56B
S31508006490EA40303885B2029804F0EEFB02902946AD
S315080064A0029804F099FB0290234A0021029804F00E
S315080064B01DFA224908801F4800880A2813DB47F27C
S315080064C03050001B85B2009800F044FA0090294627
S315080064D0009800F0E5F90090194A0021009804F0A8
S315080064E005FA16490880154800880199884209DD89
S315080064F0012014490870114800880199401A114969
S31508006500488012E00D4800880199884209DA02207D
S315080065100C490870094909880198401A09494880B0
S3150800652003E0002007490870488000BFAAE700007A
S315080065304404002042040020D00700203204002032
S31508006540C0070020040400202DE9F84306460C463F
S3150800655000250020009080460027012E04D0022E38
S315080065602AD0032E72D188E000205949088059495B
S3150800657008805948006847F24E51884219DC564847
S31508006580006847F21251884213DB4FF001080023D6
S31508006590514840F2244102684FF4006009F0EEFDCC
S315080065A04D48008800B24A49088001204B490870C6
S315080065B001E04FF0000886E048480078012802D03C
S315080065C04FF000087FE04448016804F11E0081424C
S315080065D050DC3C384049096888424BDC4FF00108DA
S315080065E03D48008800B23B49088047F23050844253
S315080065F001DB271A02E047F23050071B3548B0F98D
S3150800660000003349B1F9001088420BDD6420784355
S315080066103049B1F900102E4AB2F90020891AB0FBA8
S31508006620F1F517E02B48B0F900002949B1F9001037
S3150800663088420CDA642078432549B1F90010254AC6
S31508006640B2F90020891AB0FBF1F503E03AE04FF001
S31508006650000838E000232A4640F225414FF400603E
S3150800666009F08CFD18B102201C49087004E04FF0AF
S31508006670000801E04FF0000825E0184800780228D5
S3150800668002D04FF000081EE000236A4640F2D2719D
S315080066904FF4006004F078F8204600990BF049FFA3
S315080066A0814647F2305120460BF043FFB9EBD00F35
S315080066B005D24FF0010800200849087001E04FF0A4
S315080066C0000800E000BF00BF4046BDE8F8830000B0
S315080066D0F4020020F6020020C8030020F802002079
S315080066E01FB5002000900190029003900D48008885
S315080066F00D490988884214D00C480A49098800EBD4
S3150800670001130FCB8DE80F00684606F08BFA054893
S315080067100088401C142190FBF1F201FB120001498C
S3150800672008801FBD900400208E040020101B002046
S315080067301FB5002000900190029003901948008828
S315080067401949098888422CD018481649098800EB47
S3150800675001130FCB8DE80F009DF80C2001A90098B6
S3150800676004F064FE68B10F480088401C1E2190FBA7
S31508006770F1F201FB12000B49088000200C49087051
S315080067800FE00B480078401C094908700846007855
S315080067900A2806DD04F010FE05F0A6FF00200449CD
S315080067A008701FBD8C0400208A04002030190020C0
S315080067B0AF0400201CB50020019047F2305000902D
S315080067C000236A4640F2D2714FF4006003F0DCFF02
S315080067D047F226510098884211DA29480088401C59
S315080067E027490880084600880A2804DD012025492B
S315080067F008702549087000202449088016E02348B7
S315080068000088401C2149088008460088322802DD95
S3150800681000201C49087000201949088047F23051A9
S315080068200098884202DD00201749087001A803F085
S3150800683043F9012803D113480078012802D002F051
S31508006840FBFD68B14FF47A7009F0D2FE00F020F82B
S3150800685000200C4908700D490880094908800DE098
S3150800686002F001FE18B1002009F0C2FE06E001A8F8
S3150800687001F076FD012801D100F00AF81CBD0000E0
S315080068801403002018030020EB0200201603002042
S315080068900120704710B501F07DFA01F037FA10BDF6
S315080068A0F8B506460F46002400254FF47A70009086
S315080068B035463C4600236A4640F2F6314FF40060FE
S315080068C003F062FF4FF47A71009890FBF1F00090A4
S315080068D0009818B144F62060864201DA2846F8BDC9
S315080068E0002C2EDD04EB84004000009990FBF1F4A7
S315080068F0B4F57A7F01DD2846F1E7322C04DC12482C
S31508006900006804FB10551CE0642C0BDC0E4800687C
S31508006910322101FB1055A4F132000C49096800FB2D
S3150800692011550EE008480068322101FB105507484A
S31508006930006801FB1055A4F164000549096800FBCD
S3150800694011552846CBE70000DC030020E0030020B1
S31508006950E403002038B505460020009000242C46A4
S3150800696000236A4640F2E2714FF4006003F00CFF20
S3150800697044F62060844202DB0098002801DA2046AB
S3150800698038BD009841282BDA0098322807DB009892
S31508006990C0F141001349096800FB114420E0009842
S315080069A028280CDB0F4800680F2101FB10440098CB
S315080069B0C0F132000C49096800FB114410E009488F
S315080069C000680F2101FB1044074800680A2101FBF3
S315080069D010440098C0F128000449096800FB1144D6
S315080069E02046CDE7D0030020D4030020D80300209A
S315080069F038B5054600240020009000BF43E004EBAC
S31508006A004400234951F82000A8423AD104EB440037
S31508006A1001EB80008068A8B104EB44000A4602EB4B
S31508006A20800000236A4681684FF4006003F0ACFEDC
S31508006A3008B9002038BD0098552801D10120F9E78A
S31508006A400020F7E704EB4400114901EB8000406899
S31508006A50A8B104EB44000A4602EB800000236A460C
S31508006A6041684FF4006003F08FFE08B90020E1E7A3
S31508006A700098552801D10120DCE70020DAE700203C
S31508006A80D8E7601C84B20E2CB9D30020D2E70000E8
S31508006A90D842010870B500241EE0144901F83440B4
S31508006AA0002515E0C4EBC400284486B21E2E07DA7A
S31508006AB00F48815D05EBC400401C0C4A115405E0E3
S31508006AC0FF2105EBC400401C084A1154681C85B216
S31508006AD0072DE7DB601C84B2052CDEDB00200549A8
S31508006AE008800621044801F099F970BD5606002071
S31508006AF03806002074030020858D000810B5002490
S31508006B007A2006F0BFFD08B144F001047B2006F0A8
S31508006B10B9FD08B144F002047C2006F0B3FD08B1C3
S31508006B2044F004047D2006F0ADFD08B144F00804E5
S31508006B307E2006F0A7FD08B144F010047F2006F079
S31508006B40A1FD08B144F0200406F002FD204610BD60
S31508006B5010B501F0D1F9012803D102200CF040FC50
S31508006B6002E003200CF03CFC0CF06EFC18B102208D
S31508006B700BF070FC02E003200BF06CFC10BD014624
S31508006B8001F00F020B1103EB830302EB4302D0B2B1
S31508006B907047014664290ADA0A2091FBF0F200FBE5
S31508006BA0121291FBF0F002EB0010C0B27047002001
S31508006BB0FCE730B502460B464FF6FF7011E012F8B7
S31508006BC0014B604000210AE000F0010424B14010A6
S31508006BD04AF20104604000E040104C1CE1B208296A
S31508006BE0F2DB1C1EA3F10105EBB2E8D130BD0000B3
S31508006BF000B5034603F0B8FD0246802A07D00548CB
S31508006C0040F8223004480068401C034908601046D2
S31508006C1000BD0000301700208404002008B50020BD
S31508006C20009000236A464FF47A714FF4006003F02F
S31508006C30ABFD0099C8B200F030F90099C8B200F06F
S31508006C4074F80099C8B200F009F800F0D5F800F019
S31508006C507DF90099C8B200F040F908BD2DE9FC5F3E
S31508006C6007464FF0000AD34600254FF6FF76A8469A
S31508006C70B1460020019030460090012423E02346C7
S31508006C8001AA47214FF4806003F07EFD23466A4639
S31508006C9048214FF4806003F077FD019885B200988B
S31508006CA086B2012C04D1A846B146A246A34608E0FE
S31508006CB0A84501DAA846A246B14501DDB146A34674
S31508006CC000BF601CC4B2BC42D9DD0023424640F274
S31508006CD0E1714FF4006009F051FA534601AA4B21BD
S31508006CE04FF4806003F050FD002340F2E7714FF443
S31508006CF00060019A09F042FA00234A4640F2E2711E
S31508006D004FF4006009F03AFA5B466A464C214FF4A4
S31508006D10806003F039FD00234FF4FD614FF40060F5
S31508006D20009A09F02BFABDE8FC9F2DE9FC5F07469F
S31508006D304FF0000AD34600254FF6FF76A846B1461F
S31508006D400020019030460090012423E0234601AA42
S31508006D5043214FF4806003F017FD23466A46442119
S31508006D604FF4806003F010FD019885B2009886B252
S31508006D70012C04D1A846B146A246A34608E0A84578
S31508006D8001DAA846A246B14501DDB146A34600BFD1
S31508006D90601CC4B2BC42D9DD0023424640F2DF7112
S31508006DA04FF4006009F0EAF9534601AA49214FF465
S31508006DB0806003F0E9FC002340F2E5714FF40060BF
S31508006DC0019A09F0DBF900234A464FF4FC614FF4B7
S31508006DD0006009F0D3F95B466A464A214FF48060A1
S31508006DE003F0D2FC002340F2E6714FF40060009AEB
S31508006DF009F0C4F9BDE8FC9F7FB5002400250020F2
S31508006E000390029001900090002303AA40F2DF71DC
S31508006E104FF4006003F0B8FC002302AA4FF4FC61AB
S31508006E204FF4006003F0B0FCDDE90210884203DD90
S31508006E30DDE90210401A02E0DDE90201401A84B2D7
S31508006E400023224640F2E3714FF4006009F096F9F8
S31508006E50002301AA40F2E1714FF4006003F094FCAC
S31508006E6000236A4640F2E2714FF4006003F08CFC9E
S31508006E70DDE90010884203DDDDE90010401A02E072
S31508006E80DDE90001401A85B200232A4640F2E47182
S31508006E904FF4006009F072F97FBDF8B50546002782
S31508006EA000260020009000240CE0601CC3B26A464D
S31508006EB04021080103F068FC009887B2F01986B2F1
S31508006EC0601CC4B2AC42F0DB0023324640F2D171FA
S31508006ED04FF4006009F052F9F8BD2DE9F84F07465E
S31508006EE04FF00009002000900026804601241DE08E
S31508006EF004F2F23100236A464FF4006003F044FCC2
S31508006F00009800F0FF0900250CE005F13001234642
S31508006F106A464FF4806003F037FC00988044761C7C
S31508006F20681CC5B24D45F0DB601CC4B2BC42DFDD4F
S31508006F30002E09DD98FBF6FA0023524640F2DE7170
S31508006F404FF4006009F01AF9BDE8F88F1CB5002067
S31508006F50019000BF0090002301AA40F2D1714FF4BE
S31508006F60006003F011FC00236A4640F2D6714FF424
S31508006F70006003F009FC642101984843009990FBDE
S31508006F80F1F40023224640F2DD714FF4006009F067
S31508006F90F5F81CBD3EB54FF4FA71FE48FDF7DBF86F
S31508006FA0002302AA40F2D6714FF4006003F0ECFB0E
S31508006FB00298C5B22025002412E02146012301AA21
S31508006FC0980203F0E1FB0198C0F30721F14A02F8A1
S31508006FD014100198C1B26000401C1154601CC4B260
S31508006FE0AC42EADB002302AA40F2D7714FF40060F4
S31508006FF003F0CAFB0298C5B20825002414E004F180
S315080070003001012301AA980203F0BEFB0198C0F3E0
S31508007010072160004030DF4A11540198C1B2600070
S3150800702041301154601CC4B2AC42E8DB002301AA0B
S3150800703040F2D1714FF4006003F0A6FB0198000AF4
S31508007040D44981F85000019881F85100002301AA1B
S3150800705040F2D2714FF4006003F096FB4EF66021C1
S315080070600198081A01900198000ACA4981F8520045
S31508007070019881F85300002301AA40F2E9714FF400
S31508007080006003F081FB0198000AC24981F85400A8
S31508007090019881F85500002301AA40F2DF714FF4E8
S315080070A0006003F071FB0198000ABA4981F856009E
S315080070B0019881F85700002301AA4FF4FC614FF4A8
S315080070C0006003F061FB0198000AB24981F8580094
S315080070D0019881F85900002301AA40F2E1714FF4A2
S315080070E0006003F051FB0198000AAA4981F85A008A
S315080070F0019881F85B00002301AA40F2E2714FF47F
S31508007100006003F041FB0198000AA24981F85C007F
S31508007110019881F85D00002301AA40F2D3714FF46B
S31508007120006003F031FB0198000A9A4981F85E0075
S31508007130019881F85F00002301AA40F2F6314FF466
S31508007140006003F021FB00236A4640F2E9714FF420
S31508007150006003F019FB6421019890FBF1F0009997
S3150800716048434FF47A7190FBF1F001900198000AB8
S31508007170884981F86000019881F86100002301AA16
S3150800718040F2D6714FF4006003F0FEFA0198000A47
S31508007190804981F86200019881F86300002301AAFA
S315080071A040F2D7714FF4006003F0EEFA0198000A36
S315080071B0784981F86400019881F86500002301AADE
S315080071C040F2FE314FF4006003F0DEFA0198000A3F
S315080071D0704981F86600019881F8670000200190DF
S315080071E06D4800786C49497808436B4989780843A3
S315080071F06949C97808436849097908436649497954
S31508007200084318B1019840F0010001900198000A5E
S31508007210604981F86800019881F86900002301AA8D
S3150800722040F2D9714FF4006003F0AEFA0198000AF3
S31508007230584981F86A00019881F86B00002301AA71
S315080072404FF4FB614FF4006003F09EFA0198000AC0
S31508007250504981F86C00019881F86D00012301AA54
S315080072604121980203F090FA0198000A494981F8E9
S315080072706E00019881F86F00002301AA40F2E371BD
S315080072804FF4006003F080FA0198000A414981F83A
S315080072907000019881F87100002301AA40F2D171AB
S315080072A04FF4006003F070FA002302AA40F2D2718C
S315080072B04FF4006003F068FA47F2305102988842AA
S315080072C003DB0298401A029004E047F23051029814
S315080072D0081A0290DDE901014843642190FBF1F0A8
S315080072E001900198000A2B4981F87200019881F8EB
S315080072F0730001F0EBFE019028484078254981F893
S3150800730074002648007881F8750001F057FF01904F
S315080073102248C0781F4981F876002048807881F88D
S31508007320770001F0C1FF01901C484079194981F89E
S3150800733078001A48007981F8790002F055F801902A
S315080073401648C079134981F87A001448807981F87B
S315080073507B00002001901048007810B101200190B0
S3150800736001E000200190002001900198000A0949D7
S3150800737081F87E00019881F87F00002301AA40F277
S31508007380F7714FF4006003F0FFF947F230500190AF
S31508007390019805E0B2250020D4020020BC03002095
S315080073A0000AFE4981F88000019881F881000023CF
S315080073B002AA4FF47C714FF4006003F0E5F90298D5
S315080073C0C5B20020019000240AE0F54800780121A2
S315080073D0A140084010B1601C019003E0601CC4B2D3
S315080073E0AC42F2DB00BF002001900198000AEB498D
S315080073F081F88200019881F88300002302AA40F2EE
S31508007400D6714FF4006003F0BFF90298C5B2102593
S31508007410002414E004F12001012301AA980203F0D4
S31508007420B3F90198C0F3072160008E30DB4A115486
S315080074300198C1B260008F301154601CC4B2AC42CE
S31508007440E8DB002301AA40F2F6314FF4006003F0AE
S315080074509BF96421019890FBF1F001900198000ACC
S31508007460CE4981F8E800019881F8E900002301AACD
S3150800747040F2F9314FF4006003F086F90198000AEA
S31508007480C64981F8EA00019881F8EB00002301AAB1
S3150800749040F2EF314FF4006003F076F90198000AE4
S315080074A0BE4981F8EC00019881F8ED00002301AA95
S315080074B04FF47C714FF4006003F066F90198000AF6
S315080074C0B64981F8EE00019881F8EF00002301AA79
S315080074D040F2F1314FF4006003F056F90198000AC2
S315080074E0AE4981F8F000019881F8F100002301AA5D
S315080074F040F2F2314FF4006003F046F90198000AB1
S31508007500A64981F8F200019881F8F300002301AA40
S3150800751040F2F3314FF4006003F036F90198000A9F
S315080075209E4981F8F400019881F8F500002301AA24
S315080075304FF47D714FF4006003F026F90198000AB4
S31508007540964981F8F600019881F8F700002301AA08
S3150800755040F2F5314FF4006003F016F90198000A7D
S315080075608E4981F8F800019881F8F900002301AAEC
S315080075704FF47E714FF4006003F006F90198000A93
S31508007580864981F8FA00019881F8FB00002301AAD0
S3150800759040F203414FF4006003F0F6F80198000A40
S315080075A07E4981F8FC00019881F8FD00002301AAB4
S315080075B040F22D414FF4006003F0E6F80198000A06
S315080075C0764981F8FE00019881F8FF00002301AA98
S315080075D040F23B414FF4006003F0D6F80198000AE8
S315080075E06E4981F80001019881F80101002301AA7A
S315080075F040F22E414FF4006003F0C6F80198000AE5
S31508007600664981F80201019881F80301002301AA5D
S3150800761040F23C414FF4006003F0B6F80198000AC6
S315080076205E4981F80401019881F80501002301AA41
S3150800763040F227414FF4006003F0A6F80198000ACB
S31508007640564981F80601019881F80701002301AA25
S3150800765040F235414FF4006003F096F80198000AAD
S315080076604E4981F80801019881F80901002301AA09
S315080076704FF485614FF4006003F086F80198000A1C
S31508007680464981F80A01019881F80B01002301AAED
S3150800769040F236414FF4006003F076F80198000A8C
S315080076A03E4981F80C01019881F80D01002301AAD1
S315080076B040F22B414FF4006003F066F80198000A87
S315080076C0364981F80E01019881F80F01002301AAB5
S315080076D040F239414FF4006003F056F80198000A69
S315080076E02E4981F81001019881F81101002301AA99
S315080076F040F22C414FF4006003F046F80198000A66
S31508007700264981F81201019881F81301002301AA7C
S3150800771040F23A414FF4006003F036F80198000A47
S315080077201E4981F81401019881F81501002301AA60
S3150800773040F232414FF4006003F026F80198000A3F
S31508007740164981F81601019881F81701002301AA44
S315080077504FF488614FF4006003F016F80198000AA8
S315080077600E4981F81801019881F81901002301AA28
S3150800777040F233414FF4006003F006F80198000A1E
S31508007780064981F81A01019881F81B01002301AA0C
S3150800779040F241414FF4006004E00000B2250020A9
S315080077A0D402002002F0F0FF0198000AFE4981F891
S315080077B01C01019881F81D01002301AA4FF4866176
S315080077C04FF4006002F0E0FF0198000AF64981F8DC
S315080077D01E01019881F81F01002301AA40F23E41CB
S315080077E04FF4006002F0D0FF0198000AEE4981F8D4
S315080077F02001019881F82101002301AA40F23141B4
S315080078004FF4006002F0C0FF0198000AE64981F8CB
S315080078102201019881F82301002301AA40F23F4181
S315080078204FF4006002F0B0FF0198000ADE4981F8C3
S315080078302401019881F82501002301AA40F22F416D
S315080078404FF4006002F0A0FF0198000AD64981F8BB
S315080078502601019881F82701002301AA40F23D413B
S315080078604FF4006002F090FF0198000ACE4981F8B3
S315080078702801019881F82901002301AA40F2344120
S315080078804FF4006002F080FF0198000AC64981F8AB
S315080078902A01019881F82B01002301AA40F24241EE
S315080078A04FF4006002F070FF0198000ABE4981F8A3
S315080078B02C01019881F82D01002301AA4FF480615B
S315080078C0480002F061FF0198000AB74981F82E01C5
S315080078D0019881F82F01002301AA40F201414FF4D3
S315080078E0006002F051FF0198000AAF4981F83001A3
S315080078F0019881F83101002301AA40F2F5714FF48D
S31508007900006002F041FF0198552802D1002001903D
S3150800791001E0012001900198000AA34981F832018B
S31508007920019881F83301002301AA40F2F6714FF459
S31508007930006002F029FF0198552802D10020019025
S3150800794001E0012001900198000A974981F8340165
S31508007950019881F83501002301AA40F2E9714FF434
S31508007960006002F011FF0198000A8F4981F836017C
S31508007970019881F83701002301AA40F24A414FF4E1
S31508007980006002F001FF0198000A874981F8380172
S31508007990019881F83901002409E0C4F10D008349F2
S315080079A0095C04F59D70804A1154601CC4B20E2C03
S315080079B0F3DB002409E0C4F10D007D49095C04F5F8
S315080079C0A570794A1154601CC4B20E2CF3DB00244E
S315080079D024E004F58361002301AA4FF4006002F055
S315080079E0D3FE0198010EA00000F5AD706E4A115441
S315080079F00198C0F30741A00000F25B1011540198EA
S31508007A00C0F30721A00000F5AE7011540198C1B269
S31508007A10A00000F25D101154601CC4B2082CD8DB1B
S31508007A20002301AA40F255414FF4006002F0ACFE73
S31508007A300198000A5C4981F87A01019881F87B016E
S31508007A40002301AA40F256414FF4006002F09CFE62
S31508007A500198000A544981F87C01019881F87D0152
S31508007A60002301AA40F257414FF4006002F08CFE51
S31508007A700198000A4C4981F87E01019881F87F0136
S31508007A80002301AA4FF484614FF4006002F07CFEE3
S31508007A900198000E444981F880010198000C81F88C
S31508007AA081010198000A81F88201019881F8830111
S31508007AB0002301AA40F20C414FF4006002F064FE74
S31508007AC00198000E384981F884010198000C81F864
S31508007AD085010198000A81F88601019881F88701D5
S31508007AE0002301AA40F20D414FF4006002F04CFE5B
S31508007AF00198000E2C4981F888010198000C81F83C
S31508007B0089010198000A81F88A01019881F88B0198
S31508007B10002301AA40F20E414FF4006002F034FE41
S31508007B200198000E204981F88C010198000C81F813
S31508007B308D010198000A81F88E01019881F88F015C
S31508007B40002301AA40F20F414FF4006002F01CFE28
S31508007B500198000E144981F890010198000C81F8EB
S31508007B6091010198000A81F89201019881F8930120
S31508007B70002301AA4FF482614FF4006002F004FE6C
S31508007B800198000E084981F894010198000C81F8C3
S31508007B9095010198000A81F89601019881F89701E4
S31508007BA0002301AA06E00000B2250020A603002053
S31508007BB09803002040F211414FF4006002F0E4FD02
S31508007BC00198000E4F4981F898010198000C81F838
S31508007BD099010198000A81F89A01019881F89B0198
S31508007BE0002301AA40F212414FF4006002F0CCFDD6
S31508007BF00198000E434981F89C010198000C81F810
S31508007C009D010198000A81F89E01019881F89F015B
S31508007C10002301AA40F213414FF4006002F0B4FDBC
S31508007C200198000E374981F8A0010198000C81F8E7
S31508007C30A1010198000A81F8A201019881F8A3011F
S31508007C40002301AA40F214414FF4006002F09CFDA3
S31508007C500198000E2B4981F8A4010198000C81F8BF
S31508007C60A5010198000A81F8A601019881F8A701E3
S31508007C70002301AA40F215414FF4006002F084FD8A
S31508007C800198000E1F4981F8A8010198000C81F897
S31508007C90A9010198000A81F8AA01019881F8AB01A7
S31508007CA0002301AA40F216414FF4006002F06CFD71
S31508007CB00198000E134981F8AC010198000C81F86F
S31508007CC0AD010198000A81F8AE01019881F8AF016B
S31508007CD0002301AA40F217414FF4006002F054FD58
S31508007CE00198000E074981F8B0010198000C81F847
S31508007CF0B1010198000A81F8B201019881F8B3012F
S31508007D003EBD0000B22500207047000010B50024D3
S31508007D1003F0E6FC0446C4B91B480078401C1A491F
S31508007D20087008460078032812DD032008701748F3
S31508007D30007868B90023012240F2ED71D00208F0FC
S31508007D401DFA01201149087002E000200E4908704A
S31508007D50B4B10F480078401C0D49087008460078F1
S31508007D60032810DD0320087000231A4640F2ED713F
S31508007D704FF4006008F002FA00200449087002E097
S31508007D8000200349087010BD0E03002010030020D0
S31508007D900F03002010B5002403F096FC0446C4B96E
S31508007DA01B480078401C1A490870084600780328C2
S31508007DB012DD032008701748007868B900230122ED
S31508007DC040F2EC71D00208F0D9F901201149087087
S31508007DD002E000200E490870B4B10F480078401C34
S31508007DE00D49087008460078032810DD032008703E
S31508007DF000231A4640F2EC714FF4006008F0BEF911
S31508007E0000200449087002E000200349087010BDEC
S31508007E100B0300200D0300200C03002030B5054697
S31508007E200C46094802F082FF0346302B09DA074858
S31508007E3040F823500021C03040F82310024840F88B
S31508007E402340184630BD000008100020B811002055
S31508007E5010B56421014807F09DF910BD01E200083C
S31508007E6010B54FF4FA71044807F094F964210348F1
S31508007E7007F090F910BD0000D5E900086D5200081A
S31508007E8010B564210B4808F093FB4FF47A710A4841
S31508007E9007F080F94FF47A71084807F07BF96421F6
S31508007EA0074807F077F94FF4FA61064807F072F9C0
S31508007EB010BD000091610008790E01084506010809
S31508007EC0C96300081183000810B501224021034840
S31508007ED001F095F800200249087010BD0010014015
S31508007EE09A0400204FF4FA5200FB02F100BF0A1E62
S31508007EF0A1F10101FBD1704738B50020009000239D
S31508007F006A4640F2EC714FF4006002F03DFC0098BE
S31508007F1010B900202549087000236A4640F2D2713C
S31508007F204FF4006002F030FC47F230510098884266
S31508007F3001DD012038BD1D48007808B10020F9E7A9
S31508007F4000236A4640F2F5714FF4006002F01CFC0B
S31508007F500098552803D016480078012801D100203A
S31508007F60E8E70AF083F808B10020E3E7002419E0FF
S31508007F70104850F8241000236A464FF4006002F0B7
S31508007F8003FC009855280BD10A4850F8240040F6FF
S31508007F90C831884202D10120044908700020C9E787
S31508007FA0601CC4B2052CE3D30120C3E74A040020B1
S31508007FB04C0400207855010838B5002000900023AD
S31508007FC06A4640F2ED714FF4006002F0DDFB00985E
S31508007FD010B900202149087000236A4640F2D27180
S31508007FE04FF4006002F0D0FB47F230510098884207
S31508007FF001DA012038BD1948007808B10020F9E7F0
S3150800800002F07BFD18B916480078012801D1002036
S31508008010F0E70AF02BF808B10020EBE7002419E096
S31508008020104850F8241000236A464FF4006002F006
S31508008030ABFB009855280BD10A4850F8240040F6A7
S31508008040C931884202D10120044908700020D1E7CD
S31508008050601CC4B2052CE3D30120CBE749040020F9
S315080080604C0400206455010808B500200090002340
S315080080706A464FF489614FF4006002F085FB009868
S3150800808001280ED104F0DAF901280AD100231A468C
S315080080904FF48961C00208F071F805F039FD04F063
S315080080A0AFFA0098A5280CD100231A464FF4896127
S315080080B04FF4006008F062F801201449087004F0D3
S315080080C09FFA009855280BD100231A464FF4896168
S315080080D04FF4006008F052F805F01AFD04F090FA23
S315080080E000236A4640F203414FF4006002F04CFB5D
S315080080F04FF6FF710098884202D1012004490870A2
S3150800810003F04AFA01200349087008BD4D00002013
S31508008110150000204F00002010B5FFF74DFF01287D
S3150800812003D100200BF05CF902E001200BF058F9AE
S315080081300BF0AEF918B100200AF08CF902E0012024
S315080081400AF088F910BD000008B52020ADF8000037
S3150800815003208DF8020004208DF8030069460248C2
S3150800816000F070FE08BD00000008014008B5202098
S31508008170ADF8000003208DF8020014208DF80300E6
S315080081806946024800F05EFE08BD0000000801408E
S3150800819010B5012000F058F804F040F810BD0000B2
S315080081A010B54FF4005000F055F828B14FF40050C0
S315080081B000F04AF804F032F84FF4004000F04AF8AC
S315080081C000B34FF4004000F03FF80F480078B8B10C
S315080081D00E480078082815DAFFF7EEFE012811D1B7
S315080081E003F07EFA70B9012003F0D6FF012004F0EF
S315080081F009F804200AF02EF905200549087001E05F
S3150800820004F00CF810BD00004F00002051000020BB
S315080082105000002010B5082000F016F803F0FEFF05
S3150800822010BD10B5102000F00FF803F0F7FF10BDD1
S3150800823010B5202000F008F84FF4807000F004F81C
S3150800824003F0ECFF10BD000001490860704700000C
S3150800825014040140014600200022074B1B6803EA6C
S315080082600102054B14331B680B4013B10AB10120F8
S3150800827000E0002070470000000401400021234967
S315080082808279002A3AD00A46126803689A430B464E
S315080082901A600A1D126803689A430B1D1A60027950
S315080082A011440A6803681A430A60184A08321268B1
S315080082B003689A43154B08331A601A1D1268036837
S315080082C09A43124B0C331A604279102A0ED11A1FA0
S315080082D0126803681A430D4B08331A601A1D126890
S315080082E003681A43094B0C331A600DE007494279B3
S315080082F011440A6803681A430A6005E002791144C2
S315080083000A6803689A430A6070470000000401403F
S315080083102DE9F0411048006810490968451A002DF2
S3150800832000DA6D4201F0B6F8044647F2305084424E
S3150800833010DA071B95FBF7F6C6EB061080006421DA
S3150800834090FBF1F60023324640F2EA714FF40060E2
S3150800835007F014FFBDE8F0810C0400200804002093
S315080083607CB50446002001900090002540F6A970CF
S31508008370FEF73EFB40B1A07820F00300401CA07039
S3150800838001203A490870102540F6AA70FEF730FB1E
S3150800839040B1A07820F00300401CA07001203349AA
S315080083A00870112540F6AC70FEF722FB40B1A078A4
S315080083B020F00300401CA07001202C4908701225EB
S315080083C040F6AD70FEF714FB40B1A07820F003002C
S315080083D0401CA0700120254908701325002301AA16
S315080083E040F2D1714FF4006002F0CEF900236A46DC
S315080083F04FF4FC614FF4006002F0C6F940F2DC511C
S315080084000098884202DB0198322814DA1848007866
S31508008410401C17490870084600780A280EDD0A200D
S315080084200870E07820F00C00001DE07001200F496C
S315080084300870172502E000200D49087040F6A47060
S31508008440FEF7D6FA18B101200849087034250748FE
S315080084500078012806D100232A4640F2EB71C002B3
S3150800846007F08CFE014800787CBD0000110300204F
S31508008470120300200549096821F01001034A11601A
S315080084801146096801431160704700000020024048
S3150800849001460020034A106800F0380008431060BF
S315080084A0704700000020024010B50022202107482E
S315080084B000F0A5FD01224021044800F0A0FD00229D
S315080084C04021024800F09BFD10BD00000008014055
S315080084D02DE9F04105460E461746012009F05EFDD6
S315080084E000F084F8A02000F0FBF805F0B7F938B9D9
S315080084F000F094F8002009F051FD0020BDE8F08155
S31508008500301200F0EDF805F0A9F930B900F086F858
S31508008510002009F043FD0020F0E7F0B200F0E0F893
S3150800852005F09CF930B900F079F8002009F036FD1D
S315080085300020E3E700F05AF8A12000F0D1F805F092
S315080085408DF930B900F06AF8002009F027FD0020FF
S31508008550D4E700241AE000F025F805F8010B781E88
S31508008560A0420FD1012220210D4800F048FD01222A
S3150800857040210B4800F043FD00224021084800F046
S315080085803EFD01E0FFF790FF601C84B2BC42E2DBCF
S3150800859000F044F8002009F001FD0120AEE70000D4
S315080085A00008014070B50024FFF7CEFD002515E050
S315080085B06006040E012240210B4800F020FD202110
S315080085C0094800F013FD012801DB44F001040022EC
S315080085D04021054800F013FD681CC5B2082DE7DBED
S315080085E0FFF7C4FD204670BD0008014010B5012202
S315080085F04021094800F003FD01222021064800F029
S31508008600FEFC00222021044800F0F9FC002240214B
S31508008610014800F0F4FC10BD0008014010B5002226
S315080086202021074800F0EBFC01224021044800F015
S31508008630E6FC01222021024800F0E1FC10BD000002
S31508008640000801402DE9F04104460D461746012071
S3150800865009F0A4FCFFF7CAFFA02000F041F805F0D6
S31508008660FDF838B9FFF7DAFF002009F097FC00207B
S31508008670BDE8F081281200F033F805F0EFF830B9BC
S31508008680FFF7CCFF002009F089FC0020F0E7E8B2EC
S3150800869000F026F805F0E2F830B9FFF7BFFF002032
S315080086A009F07CFC0020E3E700260FE014F8010B34
S315080086B000F016F805F0D2F830B9FFF7AFFF002042
S315080086C009F06CFC0020D3E7701C86B2BE42EDDBD5
S315080086D0FFF7A4FF002009F061FC0120C8E70000AD
S315080086E070B5044600251CE004F080066006040EFA
S315080086F0802E05D1012220210B4800F080FC04E0E1
S3150800870000222021084800F07AFC01224021064870
S3150800871000F075FC00224021034800F070FC681C3C
S31508008720C5B2082DE0DB70BD000801401CB500206D
S31508008730019057200090002301AA40F2F4714FF4EB
S31508008740006002F021F800236A4640F24A414FF4DD
S31508008750006002F019F8DDE90010884216DB2948A6
S315080087600078401C274908700020274908702548CA
S3150800877000781E2826DB1E202249087000230122C5
S3150800878040F6AE71D00207F0F9FC1BE00198C01C58
S315080087900099884216DC1C480078401C1A49087063
S315080087A0002018490870184800781E280ADB1E2081
S315080087B01549087000231A4640F6AE714FF400605A
S315080087C007F0DCFC002301AA40F6AE714FF4006006
S315080087D001F0DAFF0198012809D1062009F03AFECE
S315080087E00A48007840F020000849087008E0074861
S315080087F0007800F0DF0005490870072009F02AFE16
S315080088001CBD000068040020690400201B0000202D
S3150800881070B504460D46242D6FD2DFE805F06E12BA
S315080088202C464D546F89A3BDF1EFEEEDECEBEAE96A
S31508008830E8E7E6E5E4E3E2E1E0DFDEDDDCDBDAD922
S31508008840D8D709F0B9FB38B1D748007820F003002B
S31508008850801CD54908700DE034B1D348007864F31C
S315080088600100D149087005E0CF48007820F00300E0
S31508008870CD49087096E109F0C3FB38B1CA480078BB
S3150800888020F00C000830C84908700DE034B1C6481D
S31508008890007864F38300C449087005E0C24800788C
S315080088A020F00C00C04908707CE1BF48007864F3EA
S315080088B00510BD49087075E1BB48007864F3871058
S315080088C0B94908706EE109F06FFB38B1B6484078CF
S315080088D020F00300801CB44948700DE034B1B2485A
S315080088E0407864F30100B049487005E0AE48407826
S315080088F020F00300AC49487054E152E109F056FBF8
S3150800890038B1A948407820F00C000830A6494870CC
S315080089100DE034B1A448407864F38300A249487056
S3150800892005E0A148407820F00C009F49487039E1DD
S3150800893009F03EFB38B19C48407820F030002030E2
S31508008940994948700DE034B19748407864F30510AA
S315080089509549487005E09448407820F030009249DF
S3150800896048701FE109F026FB38B18F48407820F09F
S31508008970C00080308C4948700DE034B18A48407890
S3150800898064F387108849487005E08748407820F0E6
S31508008990C0008549487005E109F034FB38B18248C2
S315080089A0807820F00300801C7F4988700DE034B180
S315080089B07D48807864F301007B49887005E07A4831
S315080089C0807820F0030078498870EBE0E2E0DAE08E
S315080089D0D0E0C8E0C0E0B8E0B0E0A8E0A0E090E0F1
S315080089E088E080E078E070E068E060E058E050E019
S315080089F048E046E03EE036E02EE026E01EE0FFE7EF
S31508008A0009F026FB064609F025FB06433EB16648F3
S31508008A10807820F00C000830634988700DE034B186
S31508008A206148807864F383005F49887005E05E4892
S31508008A30807820F00C005C498870B3E05A4880784A
S31508008A4064F3051058498870ACE05748807864F399
S31508008A50871055498870A5E05348C07864F301002B
S31508008A605149C8709EE05048C07864F383004E4967
S31508008A70C87097E04C48007964F300004A490871C9
S31508008A8090E08FE04848007964F38200464908710F
S31508008A9088E04548007964F3C3004349087100BF7C
S31508008AA04148007964F304103F4908717AE03E486A
S31508008AB0007964F345103C49087173E03A48007937
S31508008AC064F38610384908716CE03748007964F316
S31508008AD0C7103549087165E03348407964F30000EA
S31508008AE0314948715EE03048407964F341002E49C7
S31508008AF0487157E02C48407964F382002A49487146
S31508008B0050E034B12848407964F3C30026494871D7
S31508008B1005E02548407920F008002349487100BF40
S31508008B202148407964F304101F4948713AE01E4809
S31508008B30407964F345101C49487133E01A48407976
S31508008B4064F38610184948712CE01748407964F395
S31508008B50C7101549487125E01348807964F3000069
S31508008B60114988711EE01048807964F341000E4966
S31508008B70887117E009F048FA0B49897960F3820190
S31508008B80094881710EE00848807920F008000649F6
S31508008B90887107E00448807964F3041002498871F3
S31508008BA000E000BF00BF70BDBC03002010B523481D
S31508008BB000780A2806DB00202049087000F048F8EB
S31508008BC000F08AF81D484078322804DB08F012FACB
S31508008BD000201A4948701948C0781E2802DB002070
S31508008BE01649C87015488078642802DB00201349A6
S31508008BF0887012480079642804DB00200F49087140
S31508008C000F4908700D484079642804DB00200B4999
S31508008C1048710C49087009488079642802DB0020ED
S31508008C20064988710548C079642806DB002003498F
S31508008C30C871054908700549087010BDB4030020BD
S31508008C40B30400209A040020A4040020C1040020D4
S31508008C5008B500236A4640F2D1714FF4006001F06E
S31508008C6093FD0098000A1B4948710098C1B219483B
S31508008C70817100236A4640F2D2714FF4006001F018
S31508008C8083FD0098010A1348C1710098C1B21148C2
S31508008C90017200236A4640F2D3714FF4006001F076
S31508008CA073FD0098010A0B4841720098C1B2094841
S31508008CB0817200236A4640F2E9714FF4006001F0C0
S31508008CC063FD0098010A0348C1720098C1B20148C1
S31508008CD0017308BD9806002008B500236A4640F2CD
S31508008CE0D1714FF4006001F04FFD0098010A1B484E
S31508008CF041750098C1B21948817500236A4640F249
S31508008D00D2714FF4006001F03FFD0098010A134844
S31508008D10C1750098C1B21148017600236A4640F22F
S31508008D20D3714FF4006001F02FFD0098010A0B483B
S31508008D3041760098C1B20948817600236A4640F216
S31508008D40E9714FF4006001F01FFD0098010A03481D
S31508008D50C1760098C1B20148017708BD980600207F
S31508008D6010B50648007838B10548007820B909F0EA
S31508008D70AFFE00200149087010BD000084030020E2
S31508008D807703002010B56420194908600820087385
S31508008D9018480088052824DA17480078012820D1C1
S31508008DA000240AE01348008804EBC0001349095C54
S31508008DB00F48001D0155601CC4B2082CF2DB0D4893
S31508008DC00088401C0B49088009480178021D0C4898
S31508008DD00078FCF7CBF80621AFF25700FFF71EF82C
S31508008DE004E00020044908700249088010BD00000C
S31508008DF0880600207403002077030020560600200A
S31508008E006803002030B500228B071C0F0F2303FAD6
S31508008E1004F20B4B8C1053F824309343084C8D10F6
S31508008E2044F8253023468C1053F824308C07240F39
S31508008E3000FA04F42343024C8D1044F8253030BD63
S31508008E40080001402DE9F0410246002500260020D1
S31508008E5000230024002791F803C00CF00F0591F8B1
S31508008E6003C00CF0100CBCF1000F03D091F802C03F
S31508008E704CEA050591F800C0BCF1000F31D0146822
S31508008E8000202BE04FF0010C0CFA00F3B1F800C0FB
S31508008E900CEA03069E4220D183004FF00F0C0CFA11
S31508008EA003F7BC4305FA03FC4CEA040491F803C033
S31508008EB0BCF1280F06D14FF0010C0CFA00FCC2F8E1
S31508008EC014C00AE091F803C0BCF1480F05D14FF071
S31508008ED0010C0CFA00FCC2F810C0401C0828D1D3BB
S31508008EE01460B1F800C0BCF1FF0F34DD54680020EF
S31508008EF02EE000F1080C4FF0010808FA0CF3B1F85F
S31508008F0000C00CEA03069E4221D183004FF00F0CE5
S31508008F100CFA03F7BC4305FA03FC4CEA040491F87F
S31508008F2003C0BCF1280F05D100F1080C08FA0CF8AB
S31508008F30C2F8148091F803C0BCF1480F07D100F1BC
S31508008F40080C4FF0010808FA0CF8C2F81080401C0B
S31508008F500828CED35460BDE8F0810000F0B50A4673
S31508008F60002300240021002500F00046B6F1004F3A
S31508008F7002D11D4EF16901E01B4E7168C0F303452D
S31508008F8083B200F44016B6F5401F08D121F070618F
S31508008F90154E766826F07066134F7E6012E000F470
S31508008FA08016B6F5801F06D1032606FA05F4A143F6
S31508008FB041F0706106E0460D360103FA06F6B14344
S31508008FC041F0706122B1460D360103FA06F63143C7
S31508008FD000F00046B6F1004F02D1034EF16101E000
S31508008FE0014E7160F0BD00000000014002460020FD
S31508008FF093680B400BB1012000E0002070470AB1CE
S31508009000016100E0416170471FB5002000900190A2
S31508009010029003900F4800880F490988884218D0A3
S315080090200C48008800EB800202EBC0000B4A81184E
S315080090300D226846FBF776F8684601F09AFE054861
S315080090400088401C142190FBF1F201FB1200014933
S3150800905008801FBDAC040020AA040020EA220020D4
S315080090601FB50020009001900290039013480088D5
S3150800907013490988884220D012480078E8B90120A7
S31508009080104908700D48008800EB800202EBC0000A
S315080090900D4A81180D226846FBF744F868460AF01F
S315080090A071F8012809D105480088401C1E2190FB4B
S315080090B0F1F201FB1200014908801FBDA804002037
S315080090C0A6040020AE0400206421002038B5002440
S315080090D00020009000236A4640F6A6714FF400600F
S315080090E001F052FB0098012802D144F0010404E083
S315080090F00098022801D144F0020400236A4640F68B
S31508009100A7714FF4006001F03FFB0098012802D1D7
S3150800911044F0040404E00098022801D144F008044D
S3150800912000236A464FF47A614FF4006001F02CFB85
S315080091300098012802D144F0100404E0009802289F
S3150800914001D144F0200400236A4640F6A1714FF489
S31508009150006001F019FB0098012802D144F0400490
S3150800916004E00098022801D144F0800400236A46EE
S3150800917040F6AC714FF4006001F006FB0098012838
S3150800918002D144F4807404E00098022801D144F422
S31508009190007400236A4640F6AD714FF4006001F092
S315080091A0F3FA0098012802D144F4806404E0009898
S315080091B0022801D144F40064204638BD38B500249D
S315080091C000236A4640F6A4714FF4006001F0DCFA09
S315080091D00098012802D144F0010404E0009802280E
S315080091E001D144F0020400236A4640F6A5714FF403
S315080091F0006001F0C9FA0098012802D144F004047D
S3150800920004E00098022801D144F0080400236A46C5
S3150800921040F6A2714FF4006001F0B6FA00980128F2
S3150800922002D144F0100404E00098022801D144F069
S31508009230200400236A4640F6A3714FF4006001F04B
S31508009240A3FA0098012802D144F0400404E00098EB
S31508009250022801D144F0800400236A4640F6A8712A
S315080092604FF4006001F090FA0098012802D144F406
S31508009270807404E00098022801D144F400740023A5
S315080092806A4640F6AB714FF4006001F07DFA00982B
S31508009290012802D144F4806404E00098022801D130
S315080092A044F40064204638BD38B5002400236A46D5
S315080092B040F6AF714FF4006001F066FA009808B105
S315080092C044F0010400236A4640F6AE714FF400608C
S315080092D001F05AFA009808B144F0020400236A46DD
S315080092E040F6B1714FF4006001F04EFA009808B1EB
S315080092F044F0040400236A464FF47B614FF400608F
S3150800930001F042FA009808B144F0080400236A46BE
S3150800931040F6B3714FF4006001F036FA009808B1D0
S3150800932044F0100400236A4640F6B4714FF4006016
S3150800933001F02AFA009808B144F0200400236A468E
S3150800934040F6B5714FF4006001F01EFA009808B1B6
S3150800935044F0400400236A4640F6B4714FF40060B6
S3150800936001F012FA009808B144F0800400236A4616
S3150800937040F6B9714FF4006001F006FA009808B19A
S3150800938044F4807400236A4640F6BA714FF40060CC
S3150800939001F0FAF9009808B144F4007400236A460B
S315080093A040F6BB714FF4006001F0EEF9009808B181
S315080093B044F4806400236A4640F6BC714FF40060AA
S315080093C001F0E2F9009808B144F4006400236A4603
S315080093D040F6BD714FF4006001F0D6F9009808B167
S315080093E044F48054204638BD38B5002400236A4624
S315080093F040F6BF714FF4006001F0C6F9009808B155
S3150800940044F0010400236A464FF47C614FF400607F
S3150800941001F0BAF9009808B144F0040400236A463A
S3150800942040F6C1714FF4006001F0AEF9009808B13A
S3150800943044F00804204638BD38B5002000900024C2
S3150800944000236A4640F6B8314FF4006001F09CF9F3
S3150800945040F6A670FDF7CCFA18B10098552800D149
S315080094600124204638BD38B500200090002400238A
S315080094706A4640F6B9314FF4006001F085F940F6C6
S31508009480A770FDF7B5FA18B10098552800D1012440
S31508009490204638BD0021002000BF05E0054A52F8E5
S315080094A0212010444A1CD1B20A29F7DB0A2290FB74
S315080094B0F2F07047E00700200246002108E006485F
S315080094C050F82100904201D101207047481CC1B2D2
S315080094D00429F4D30020F8E7B844010838B504464F
S315080094E00D460020009000236A4640F2D1714FF4E1
S315080094F0006001F049F90098000A1D4908700098B3
S31508009500487000236A464FF4FA614FF4006001F090
