S31508004000384100200141000845D7000871CF000853
S3150800401041D70008295B0008E12C010800000000D0
S3150800402000000000000000000000000041EE00084B
S31508004030F57F00080000000099D80008F5EF000891
S315080040401B4100081B4100081B4100086DE80008D9
S315080040501B4100081B410008318500081B41000868
S315080040601B410008B1850008BF8500081B410008F0
S315080040701B4100081B4100081B4100081B410008A2
S315080040801B4100081B4100081B410008FDEF000802
S31508004090592901081B4100081B410008CD85000865
S315080040A01B4100081B4100081B4100081B41000872
S315080040B01B4100081B4100081B4100081B41000862
S315080040C01B4100081B4100081B4100081B41000852
S315080040D01B410008D5210108952201085D23010826
S315080040E04185000851E400081B410008DFF80CD0A0
S315080040F000F03CF800480047A14C01083841002070
S315080041000648804706480047FEE7FEE7FEE7FEE763
S31508004110FEE7FEE7FEE7FEE7FEE7FEE7751B01089A
S31508004120ED40000840EA01039B0703D009E008C9EF
S31508004130121F08C0042AFAD203E011F8013B00F85E
S31508004140013B521EF9D27047D2B201E000F8012BAA
S31508004150491EFBD270470022F6E710B513460A46F9
S3150800416004461946FFF7F0FF204610BD064C074DDA
S3150800417006E0E06840F0010394E807009847103429
S31508004180AC42F6D3FFF7B6FFD8830108F8830108D7
S3150800419070B58C1810F8015B15F0070301D110F8FB
S315080041A0013B2A1106D110F8012B03E010F8016B28
S315080041B001F8016B5B1EF9D12B0705D40023521EAB
S315080041C00DD401F8013BFAE710F8013BCB1A921C13
S315080041D003E013F8015B01F8015B521EF9D5A14211
S315080041E0D8D3002070BD21B1826842F001028260F6
S315080041F003E0826822F001028260704710B5044627
S315080042001248844208D10121401509F07DFE00219B
S31508004210601509F079FE17E00D48844208D101219E
S31508004220001509F071FE0021201509F06DFE0BE05E
S315080042300848844208D10121C80309F065FE002117
S315080042404FF4004009F060FE10BD00000024014054
S3150800425000280140003C0140014600208A6802F01F
S3150800426004020AB1012000E0002070470146C86C2C
S3150800427080B270470246002013680B400BB101203C
S3150800428000E000207047014600208A6802F0080214
S315080042900AB1012000E000207047000030B5024650
S315080042A00020002350680F4C20400D790C6844EA22
S315080042B005242043506090680B4C2040D1E90254F5
S315080042C02C434D7944EA450420439060D06A20F493
S315080042D070000C7C641EE4B2234340EA0350D062AB
S315080042E030BD0000FFFEF0FFFDF7F1FF10B507F047
S315080042F049FD30B10E48007840F001000C490870BD
S3150800430005E00B48007800F0FE000949087007F040
S3150800431045FD30B10648007840F0020004490870AF
S3150800432005E00348007800F0FD000149087010BD5B
S3150800433021000020F0B504460D4600200021092D75
S3150800434011DDE068A5F10A0606EB4607072606FA18
S3150800435007F18843A5F10A0606EB460603FA06F1B5
S315080043600843E0600CE0206905EB4507072606FAD6
S3150800437007F1884305EB450603FA06F10843206171
S31508004380072A0FDA606B561E06EB86071F2606FA03
S3150800439007F18843561E06EB860605FA06F108431A
S315080043A0606322E00D2A0FDA206BD61F06EB86071C
S315080043B01F2606FA07F18843D61F06EB860605FA76
S315080043C006F10843206310E0E06AA2F10D0606EB49
S315080043D086071F2606FA07F18843A2F10D0606EBA3
S315080043E0860605FA06F10843E062F0BD816841F0E9
S315080043F008018160704721B1826842F4A002826098
S3150800440003E0826822F4A00282607047816841F066
S3150800441004018160704700002DE9FC4100200190ED
S3150800442000900025002400278046002600231A460F
S3150800443040F6BB714FF400600CF02AFF002301AA76
S3150800444040F2EF314FF4006006F054FC00BF42E042
S3150800445005F2F33100236A464FF4006006F04AFC81
S31508004460002433E005EB450000EBC5001C4901EBD1
S315080044708001222000EB4400401C085C05EB450146
S3150800448001EBC501164A02EB8101222202EB440226
S31508004490895C00EB01281FFA88F008F053FA0646F3
S315080044A044F27400864200DD0646642096FBF0F06E
S315080044B00C4921F81700781CC7B20B48007818B1C8
S315080044C0022F01DBBDE8FC81601CC4B2009884425F
S315080044D0C8DB681CC5B201988542B9DB00BFF1E7A5
S315080044E0C43B0020CC050020F00500202DE9FC4146
S315080044F000200190009000260025002700240023B4
S3150800450001AA40F2EF314FF4006006F0F3FB00BF5A
S315080045106BE005F57C7100236A464FF4006006F0EF
S31508004520E9FB0098C0F1050000F0FF08002757E0F6
S3150800453005EB450000EBC5002E4901EB800108EBB1
S3150800454007000E2202EB4000401C095C05EB450003
S3150800455000EBC500274A02EB800208EB07000E2392
S3150800456003EB4000105C01EB002641F270707043CB
S31508004570C0F30F30204921F81400084630F814001B
S3150800458041F28831884203DD08461B4921F81400A8
S3150800459040F6FF70864203D04FF6FF70864212D16E
S315080045A01648005D401C154908550846005D0A284E
S315080045B012DB114830F81400114921F814000020C4
S315080045C00E49085508E00C4830F814000C4921F843
S315080045D01400002009490855601CC4B2781CC7B2EB
S315080045E000988742A4DB681CC5B20198854290DB17
S315080045F0BDE8FC81C43B0020A83C0020083D002003
S31508004600483C002010B5002202210B4804F00DFF9B
S3150800461027200FF0EBFB01220421074804F005FFD1
S3150800462027200FF0E3FB00220421034804F0FDFED7
S3150800463027200FF0DBFB10BD001001402DE9F041EB
S31508004640A0B006460F4615464FF00008802168467A
S31508004650FFF781FD00F076F8362000F027F909F01B
S31508004660A7FD28B900F092F8002020B0BDE8F08137
S31508004670384600F01BF909F09BFD18B900F086F8DA
S315080046800020F2E700F05EF8372000F00FF909F095
S315080046908FFD18B900F07AF80020E6E7002406E056
S315080046A000F026F83055FFF7ADFF601C84B2AC4227
S315080046B0F6DB00F01DF8804600F084F800F066F896
S315080046C037208DF80000002404E0315D601C0DF8E9
S315080046D0001084B2AC42F8DB681CC1B2684601F02F
S315080046E0E1FC404501D00020BFE70120BDE70000FE
S315080046F070B5002400F0D6FA00251BE06006040E0B
S31508004700012204210E4804F090FE27200FF06EFBCC
S3150800471002210B4804F080FE012801DB44F0010465
S3150800472000220421064804F080FE27200FF05EFBD5
S31508004730681CC5B2082DE1DB00F0C6FA204670BD3C
S315080047400010014010B5012204210F4804F06DFE47
S3150800475027200FF04BFB012202210B4804F065FECF
S3150800476027200FF043FB00220221074804F05DFED4
S3150800477027200FF03BFB00220421034804F055FED6
S3150800478027200FF033FB10BD0010014010B50022A2
S3150800479002210B4804F049FE27200FF027FB0122CF
S315080047A00421074804F041FE27200FF01FFB0122D1
S315080047B00221034804F039FE27200FF017FB10BD2D
S315080047C00010014010B5012202210B4804F02DFE0D
S315080047D027200FF00BFB01220421074804F025FED1
S315080047E027200FF003FB00220421034804F01DFED6
S315080047F027200FF0FBFA10BD001001402DE9F0410B
S31508004800A0B005460F46164680216846FFF7A3FC6A
S315080048104FF0000836208DF800008DF8017000244E
S3150800482005E0295DA01C0DF80010601C84B2B44296
S31508004830F7DBB01CC1B2684601F034FC8046FFF7CE
S3150800484081FF362000F032F809F0B2FC28B9FFF7EC
S315080048509DFF002020B0BDE8F081384600F026F81C
S3150800486009F0A6FC18B9FFF791FF0020F2E700242B
S315080048700CE015F8010B00F019F809F099FC18B9C5
S31508004880FFF784FF0020E5E7601C84B2B442F0DB42
S31508004890404600F00BF809F08BFC18B9FFF776FFD5
S315080048A00020D7E7FFF772FF0120D3E770B504466B
S315080048B0002525E004F080066006040E802E05D14A
S315080048C001220221104804F0B0FD04E00022022172
S315080048D00D4804F0AAFD27200FF088FA01220421CA
S315080048E0094804F0A2FD27200FF080FA00220421CF
S315080048F0054804F09AFD27200FF078FA681CC5B21F
S31508004900082DD7DB70BD00000010014010B500224D
S3150800491080210B4804F089FD27200FF067FA012251
S315080049204021074804F081FD27200FF05FFA002296
S315080049304021034804F079FD27200FF057FA10BDEF
S31508004940000C01402DE9F041A0B006460F46154679
S315080049504FF0000880216846FFF7FDFB00F088F855
S31508004960362000F039F909F047FC28B900F0A4F818
S31508004970002020B0BDE8F081384600F02DF909F096
S315080049803BFC18B900F098F80020F2E7284600F03A
S3150800499023F909F031FC18B900F08EF80020E8E791
S315080049A000F066F8372000F017F909F025FC18B969
S315080049B000F082F80020DCE7002406E000F02EF87C
S315080049C03055FFF7A3FF601C84B2AC42F6DB00F05B
S315080049D025F8804600F08CF800F06EF836208DF841
S315080049E000008DF801708DF8025037208DF803000D
S315080049F0002405E0315D201D0DF80010601C84B20E
S31508004A00AC42F7DB281DC1B2684601F04BFB4045B6
S31508004A1001D00020ADE70120ABE7000070B5002407
S31508004A2000F064F900251BE06006040E012240210F
S31508004A300E4804F0FAFC27200FF0D8F980210B481D
S31508004A4004F0EAFC012801DB44F0010400224021BD
S31508004A50064804F0EAFC27200FF0C8F9681CC5B21E
S31508004A60082DE1DB00F054F9204670BD000C01402A
S31508004A7010B5012240210F4804F0D7FC27200FF07B
S31508004A80B5F9012280210B4804F0CFFC27200FF04E
S31508004A90ADF900228021074804F0C7FC27200FF053
S31508004AA0A5F900224021034804F0BFFC27200FF097
S31508004AB09DF910BD000C014010B5002280210B485D
S31508004AC004F0B3FC27200FF091F901224021074892
S31508004AD004F0ABFC27200FF089F901228021034856
S31508004AE004F0A3FC27200FF081F910BD000C01404B
S31508004AF010B5012280210B4804F097FC27200FF0FF
S31508004B0075F901224021074804F08FFC27200FF091
S31508004B106DF900224021034804F087FC27200FF096
S31508004B2065F910BD000C01402DE9F041A0B005461D
S31508004B300F46164680216846FFF70DFB4FF0000822
S31508004B4036208DF800008DF80170002405E0295DF7
S31508004B50A01C0DF80010601C84B2B442F7DBB01C30
S31508004B60C1B2684601F09EFA8046FFF781FF3620FB
S31508004B7000F032F809F040FB28B9FFF79DFF002046
S31508004B8020B0BDE8F081384600F026F809F034FB7D
S31508004B9018B9FFF791FF0020F2E700240CE015F89A
S31508004BA0010B00F019F809F027FB18B9FFF784FF85
S31508004BB00020E5E7601C84B2B442F0DB404600F012
S31508004BC00BF809F019FB18B9FFF776FF0020D7E7AD
S31508004BD0FFF772FF0120D3E770B50446002525E0EC
S31508004BE004F080066006040E802E05D1012280217D
S31508004BF0104804F01AFC04E0002280210D4804F055
S31508004C0014FC27200FF0F2F801224021094804F08D
S31508004C100CFC27200FF0EAF800224021054804F092
S31508004C2004FC27200FF0E2F8681CC5B2082DD7DB74
S31508004C3070BD0000000C01402DE9F04104460D4608
S31508004C4016461F464FF0000834B93A4631462846FC
S31508004C50FFF7F4FC804607E0012C05D13A463146B9
S31508004C602846FFF76FFE80464046BDE8F0812DE9ED
S31508004C70F04104460D4616461F464FF0000834B963
S31508004C803A4631462846FFF7B9FD804607E0012C2B
S31508004C9005D13A4631462846FFF746FF8046404644
S31508004CA0BDE8F08108B50220ADF8000003208DF8B4
S31508004CB0020004208DF803006946024804F0D8FA79
S31508004CC008BD00000010014008B50220ADF800003C
S31508004CD003208DF8020014208DF803006946024867
S31508004CE004F0C6FA08BD00000010014008B580208F
S31508004CF0ADF8000003208DF8020004208DF80300AB
S31508004D006946024804F0B4FA08BD0000000C0140E8
S31508004D1008B58020ADF8000003208DF802001420A5
S31508004D208DF803006946024804F0A2FA08BD00009F
S31508004D30000C014010B5044611480088401C142197
S31508004D4090FBF1F201FB12000E490988884215D042
S31508004D500B49098801EB810202EBC1010A4A88184E
S31508004D600D222146FFF7DEF905480088401C14216C
S31508004D7090FBF1F201FB12000149088010BD00000A
S31508004D805E05002060050020E024002010B50446DA
S31508004D9014480088401C1E2190FBF1F201FB12000A
S31508004DA01149098888421BD0E07808B90820E070C4
S31508004DB00C49098801EB810202EBC1010B4A8818EC
S31508004DC00D222146FFF7AEF906480088401C1E2131
S31508004DD090FBF1F201FB120002490880012010BD88
S31508004DE00020FCE75A0500205C0500205A23002015
S31508004DF030B50F490988491C142291FBF2F302FBCE
S31508004E0013110C4A1288914211D00B49084A12888C
S31508004E1001EB021190E83C003CC105490988491C90
S31508004E20142291FBF2F302FB1311014A118030BDE3
S31508004E304C0500204E050020901F002030B5014685
S31508004E4018480088401C1E2290FBF2F302FB130050
S31508004E50154A1288904222D0087B08B908200873A0
S31508004E600868B0F5006F02D90120887301E00020B8
S31508004E708873002048730D480A4A128800EB02100E
S31508004E8091E83C003CC007480088401C1E2290FB65
S31508004E90F2F302FB1300034A1080012030BD002004
S31508004EA0FCE70000480500204A050020B01D002048
S31508004EB070B5174C2488641C142594FBF5F605FB7D
S31508004EC01644144D2D88AC4221D0134C104D2D8814
S31508004ED004EB05142060104C0D4D2D8804EB0514C9
S31508004EE021710D4C0A4D2D8804EB0514A2600A4C5D
S31508004EF0074D2D8804EB05142373054C2488641C80
S31508004F00142594FBF5F605FB1644014D2C8070BD5F
S31508004F1034040020360400201009002010B5044689
S31508004F2011480088401C142190FBF1F201FB120085
S31508004F300E490988884215D00B49098801EB810278
S31508004F4002EBC1010A4A88180D222146FFF7EAF842
S31508004F5005480088401C142190FBF1F201FB120061
S31508004F600149088010BD0000680500206A05002078
S31508004F706A27002010B5044614480088401C1E21E4
S31508004F8090FBF1F201FB12001149098888421BD0F7
S31508004F90E07808B90820E0700C49098801EB81021D
S31508004FA002EBC1010B4A88180D222146FFF7BAF811
S31508004FB006480088401C1E2190FBF1F201FB1200F6
S31508004FC002490880012010BD0020FCE76405002086
S31508004FD066050020E425002070B58AB006460D4611
S31508004FE014460020069007900890099002900390B6
S31508004FF0049005900120019000200090002301AA4A
S3150800500040F249414FF4006005F074FE00236A46F9
S3150800501040F261414FF4006005F06CFE002E34D179
S31508005020A5208DF818006248006810B90098012874
S3150800503004D10198C0B28DF8190002E001208DF85C
S3150800504019008DF81A5008208DF81B0020788DF865
S315080050501C0061788DF81D10A1788DF81E10E17876
S315080050608DF81F10217906A8017261794172A1791C
S315080050708172E179C17206A80FC809F097F98DF80F
S31508005080240006A800F01CF98FE0022E29D1A520DD
S315080050908DF8180001208DF819008DF81A5008208F
S315080050A08DF81B0020788DF81C0061788DF81D108E
S315080050B0A1788DF81E10E1788DF81F10217906A8C1
S315080050C0017261794172A1798172E179C17206A88A
S315080050D00FC809F06BF98DF8240006A8FFF756FEED
S315080050E063E0032E29D1A5208DF8180001208DF83C
S315080050F019008DF81A5008208DF81B0020788DF8B5
S315080051001C0061788DF81D10A1788DF81E10E178C5
S315080051108DF81F10217906A8017261794172A1796B
S315080051208172E179C17206A80FC809F03FF98DF8B6
S31508005130240006A8FFF71EFF37E0012E35D11C48CC
S31508005140006810B90098012809D14FF0C05000EB4B
S31508005150054000F5804001990844029007E04FF0A9
S31508005160C05000EB054000F58040401C0290082026
S315080051708DF8140020788DF80C0061788DF80D10E4
S31508005180A1788DF80E10E1788DF80F1021798DF839
S31508005190101061798DF81110A1798DF81210E17946
S315080051A08DF8131002A8FFF749FE0AB070BD00007B
S315080051B04405002010B5044611480088401C052106
S315080051C090FBF1F201FB12000E490988884215D0BE
S315080051D00B49098801EB01110B4A02EB01104FF448
S315080051E088722146FEF79EFF05480088401C052167
S315080051F090FBF1F201FB12000149088010BD000086
S315080052008A0500208C0500201035002010B50446BC
S3150800521012480088401C052190FBF1F201FB1200A0
S315080052200F490988884217D00C49098801EB0111F2
S315080052300C4A02EB01104FF488722146FEF772FF02
S3150800524006480088401C052190FBF1F201FB12007C
S3150800525002490880012010BD0020FCE786050020D1
S3150800526088050020C02F002010B504461148008884
S31508005270401C142190FBF1F201FB12000E4909882B
S31508005280884215D00B49098801EB810202EBC1015E
S315080052900A4A88180D222146FEF744FF0548008869
S315080052A0401C142190FBF1F201FB12000149088011
S315080052B010BD000054050020560500205622002087
S315080052C010B5044614480088401C1E2190FBF1F2D4
S315080052D001FB12001149098888421BD0E07808B9F9
S315080052E00820E0700C49098801EB810202EBC10134
S315080052F00B4A88180D222146FEF714FF0648008837
S31508005300401C1E2190FBF1F201FB120002490880A5
S31508005310012010BD0020FCE75005002052050020A2
S31508005320D02000207CB500240025002001900090A4
S3150800533000BFACE004EB4400664951F8200040F693
S31508005340A271884208D004EB4400624951F8200053
S3150800535040F6A471884217D1002301AA40F2D371FE
S315080053604FF4006005F0C6FCC0B30198022836D198
S3150800537004EB4400574A52F8201000231A464FF40B
S3150800538000600BF085FF80E004EB4400514951F8BA
S31508005390200040F6A371884208D004EB44004D492A
S315080053A051F8200040F6A571884218D1002301AAB9
S315080053B040F2D3714FF4006005F09CFC70B101987F
S315080053C001280CD104EB4400424A52F8201000236D
S315080053D01A464FF400600BF05BFF56E0FFE704EB5C
S315080053E044003C4901EB80008068E8B104EB4400C6
S315080053F00A4602EB800000236A4681684FF4006083
S3150800540005F078FC00B940E0009855280CD145F025
S31508005410020504EB44002F4A52F82010002302220A
S3150800542090020BF035FF30E004EB4400294901EB0C
S3150800543080004068E8B104EB44000A4602EB8000AD
S3150800544000236A4641684FF4006005F053FC00B932
S315080054501BE0009855280CD145F0010504EB4400E3
S315080054601C4A52F8201000230122D0020BF010FF2C
S315080054700BE004EB4400174A52F8201000231A46A2
S315080054804FF400600BF004FF00BF601C84B20E2CC2
S31508005490FFF450AF05F0020038B10023022240F2B3
S315080054A0DC7190020BF0F4FE12E005F0010038B151
S315080054B00023012240F2DC71D0020BF0E9FE07E07E
S315080054C000231A4640F2DC714FF400600BF0E0FE50
S315080054D07CBD0000745C01082DE9F04105460E46C6
S315080054E0069C0021002B34D027889F4203DA2788A0
S315080054F07F1C278000E0238027887F1EB8B206E03D
S31508005500471E32F8177022F81070471EB8B20028E6
S31508005510F6DC1580002004E032F810703944471C88
S31508005520B8B227888742F7DCB4F800C00CEB4C0702
S31508005530B1FBFCF80CFB181C4FEAE77807EB9878E8
S31508005540BCEBA80F01D9278839442788B1FBF7F1A6
S315080055503180BDE8F0810000F8B505460E461446D0
S315080055601F46062D39D2DFE805F03803101D2F2611
S315080055701B4800EB440000901A4850F824200223E8
S3150800558039463046FFF7A8FF27E0174800EB4400E6
S315080055900090164850F82420042339463046FFF771
S315080055A09BFF1AE012480523124A394600903046F6
S315080055B0FFF792FF11E010480523104A394600907C
S315080055C03046FFF789FF08E00D4805230D4A39469E
S315080055D000903046FFF780FF00BF00BFF8BD00000F
S315080055E00E080020540200206E0800201403002034
S315080055F05C0300209208002060030020A608002013
S315080056005E0300209C08002010B5012008F08CFCE1
S31508005610002008F089FC10BD08B50146002000905E
S31508005620034800900098084400900098008808BD38
S31508005630006C004008B500220092044A0092009AC5
S3150800564002440092009A116008BD0000006C0040F8
S3150800565010B50FF059FF06F037FB20B10248007865
S31508005660401C0149087010BD1C0000201FB5002011
S3150800567000900190029003900F4800880F4909880E
S31508005680884218D00C48008800EB800202EBC00064
S315080056900B4A81180D226846FEF744FD684600F05D
S315080056A02FFA05480088401C142190FBF1F201FBF3
S315080056B01200014908801FBD600500205E05002014
S315080056C0E02400201FB5002000900190029003906E
S315080056D01548008815490988884223D01448007857
S315080056E000BB01201249087000201249C8710E48F3
S315080056F0008800EB800202EBC0000F4A81180D22D9
S315080057006846FEF70FFD68460EF060F8012809D1D5
S3150800571005480088401C1E2190FBF1F201FB12008F
S31508005720014908801FBD00005C0500205A050020BD
S3150800573062050020640400205A23002070470000F8
S31508005740F8B50024002500200090002600236A46AC
S3150800575040F2EF314FF4006005F0CCFA0098C5B27C
S31508005760AA201249087000BF00BF16E0104830F89A
S31508005770140050B10E4830F81410204605F0EEFD1E
S3150800578055200A490870012605E0094830F8141022
S31508005790204605F0E3FD601CC4B2AC42E6DB0123FB
S315080057A032464F2198020BF073FDF8BD70030020B6
S315080057B0620300201FB5002003900290019000901C
S315080057C0002447480088401C80B2454908800528BF
S315080057D000DA1FBD05204249088042480088401C5F
S315080057E080B240490880B0F5167F06DB00203E49A6
S315080057F008704FF416703B4908803B48007801282A
S3150800580000D1E6E739480078012800D1E1E700230E
S3150800581003AA40F2FF314FF4006005F06BFA00234B
S3150800582002AA40F2D3714FF4006005F063FA002330
S3150800583001AA4FF4FB614FF4006005F05BFA039888
S3150800584020BB0298022821D02948407800F003009E
S3150800585090B927484078C0F3810068B92448407851
S31508005860C0F3011040B922484078800920B9204881
S31508005870807800F0030008B1012000E0002028B974
S315080058800198012802D11B49087002E00220194933
S31508005890087000F0DBFC17480078012819D00023AF
S315080058A06A4640F2EF314FF4006005F023FA00240F
S315080058B005E00021204605F051FD601CC4B20098A1
S315080058C08442F6DB012300224F2198020BF0E0FC0C
S315080058D07FE700F0F7FBFFF733FF00BF79E700002B
S315080058E0820300207C030020720300207603002038
S315080058F06C040020710300202DE9F84305460024B6
S3150800590000260020009000278046814600236A462C
S3150800591040F2EF314FF4006005F0ECF90098C6B29A
S3150800592000BF0CE02DB14FF6FF702F4921F8140087
S3150800593003E000202C4921F81400601CC4B2B442CC
S31508005940F0DB002409E01DB1FF202849085502E0D4
S31508005950002026490855601CC4B2082CF3DB2448ED
S31508005960057085B300242BE004F57C7100236A4694
S315080059704FF4006005F0BEF9009807441D4800780A
S31508005980B8420ADC1B480078404506DD194800780D
S31508005990A0EB08001FFA80F901E04FF00009B846AD
S315080059A0A9F101000121814088B20F4921F81400AC
S315080059B0084630F81410204605F0D0FC601CC4B226
S315080059C0B442D1DB0AE0FFE7002405E000212046C7
S315080059D005F0C4FC601CC4B2B442F7DB00200649DB
S315080059E00880BDE8F88300006203002068030020F1
S315080059F072030020730300207C0300203EB50024B8
S31508005A00002000900190002302AA4FF4FF614FF492
S31508005A10006005F06FF90298C0F30720ADF80000A2
S31508005A200298C0B28DF80200002302AA40F2F9716A
S31508005A30C81D05F05FF90298000A8DF80300029860
S31508005A40C0B28DF80400002302AA40F2FA71881D3C
S31508005A5005F050F90298000A8DF805000298C0B2C0
S31508005A608DF80600684606F09FFE044608F026FEF6
S31508005A700349086000200349086020463EBD00002F
S31508005A803C000020400000201CB50020019000903A
S31508005A9019480078401C18490870002301AA40F2EA
S31508005AA0FB71481D05F026F90198AA281BD1002389
S31508005AB06A4640F2FC71081D05F01CF9009800289A
S31508005AC00ADD0098401E0090002340F2FC71081D74
S31508005AD0009A0BF0DDFB06E00023552240F2FB712D
S31508005AE0481D0BF0D5FB0548006820B1034800683F
S31508005AF0401E024908601CBD7404002018000020DE
S31508005B0010B504466078802805D1A178221D0220A8
S31508005B1007F082FE07E06078402804D1A178221DAC
S31508005B20022007F079FE10BD00BFFEE708B5012187
S31508005B30480608F0B9F90121052008F0D5F94FF40F
S31508005B400060ADF8000048208DF80300694620483B
S31508005B5003F08EFB4FF48050ADF8000018208DF846
S31508005B60030003208DF802006946194803F080FBFC
S31508005B70184800F035F8184800F0F1F900201649E1
S31508005B8088710120C8710020087248728872012045
S31508005B90C87200208870C8700220087101204871F8
S31508005BA0102008800B4800F0C4F800200B498872C2
S31508005BB0C872012008730020088048808880C88041
S31508005BC0088101204873084600F026F808BD000041
S31508005BD00008014000640040F80500200406002083
S31508005BE010B504460B48844209D10121480608F03D
S31508005BF06BF900214FF0007008F066F908E0012102
S31508005C00880608F061F900214FF0806008F05CF919
S31508005C1010BD00000064004010B50021837A0122FF
S31508005C2002FA03F13D4A126842F001023B4B1A6040
S31508005C303A4A1C3212688A43384B1C331A60027B74
S31508005C40CAB9364A0C3212688A43344B0C331A6086
S31508005C504288C38842EA0343304A4032847A42F88B
S31508005C6034300288838842EA03432C4A4032847AD5
S31508005C7002EBC4025360027B012A19D1274A0C326F
S31508005C8012680A43254B0C331A604288038842EA95
S31508005C900343224A4032847A42F83430C2888388E1
S31508005CA042EA03431D4A4032847A02EBC402536037
S31508005CB0C27A3AB9194A121D12688A43174B1B1D34
S31508005CC01A6006E0154A121D12680A43134B1B1D7B
S31508005CD01A60028932B9114A143212688A430F4B84
S31508005CE014331A600289012A06D10C4A1432126842
S31508005CF00A430A4B14331A60427B012A06D1074A23
S31508005D001C3212680A43054B1C331A60034A126890
S31508005D1022F00102014B1A6010BD00000066004027
S31508005D201AB143690B43436102E043698B434361FC
S31508005D30704730B5024600200023146824F0020498
S31508005D401460146844F00104146000E05B1C546895
S31508005D5004F001041CB94FF6FF74A342F6D1546847
S31508005D6004F001040CB900206CE08C79012C04D1F4
S31508005D70146844F08004146003E0146824F0800476
S31508005D801460CC79012C04D1146844F040041460E2
S31508005D9003E0146824F0400414600C7A012C04D142
S31508005DA0146844F02004146003E0146824F0200406
S31508005DB014604C7A012C04D1146844F01004146061
S31508005DC003E0146824F0100414608C7A012C04D1C2
S31508005DD0146844F00804146003E0146824F0080406
S31508005DE01460CC7A012C04D1146844F004041460BD
S31508005DF003E0146824F0040414608C78A407CD78B2
S31508005E0044EA05640D7944EA05444D7944EA0554A3
S31508005E100D886D1E2C43D461146824F001041460A7
S31508005E20002300E05B1C546804F001041CB14FF623
S31508005E30FF74A342F6D1546804F001040CB10020A3
S31508005E4000E0012030BD08B54FF4C06007F0B4FC8F
S31508005E5014208DF8000000208DF801008DF802004E
S31508005E6001208DF80300684607F06EFC08BD10B5E2
S31508005E7000F5D87303EB01131B6803F004031372D0
S31508005E80137A53B900F5D87303EB01131B6840F274
S31508005E90FF7404EA5353136009E000F5D87303EB63
S31508005EA001131B686FF0604404EAD303536000F5DE
S31508005EB0D87303EB01131B6803F00203537200F552
S31508005EC0D87303EB01135B6803F00F03937200F5B5
S31508005ED0D87303EB01135B681B0AD37400F5D873F8
S31508005EE003EB01139B68D37200F5D87303EB011318
S31508005EF09B681C0A147300F5D87303EB01139B689F
S31508005F001C0C547300F5D87303EB01139B681B0E26
S31508005F10937300F5D87303EB0113DB68D37300F5AD
S31508005F20D87303EB0113DB681C0A147400F5D873E5
S31508005F3003EB0113DB681C0C547400F5D87303EBF0
S31508005F400113DB681B0E937421B9C36843F0200361
S31508005F50C36003E0036943F02003036110BD002119
S31508005F608171C171017241728172C1728170C17091
S31508005F70032101710221417101210180704710B589
S31508005F8002460020936803F08063B3F1806F00D166
S31508005F9010E0936803F00063B3F1006F01D10120AC
S31508005FA008E0936803F08053B3F1805F01D10220C3
S31508005FB000E00420042874D002F5C07303EB001334
S31508005FC01B6803F0010402F5C07303EB00131C60A1
S31508005FD00B7A7BB94B7A0C8843EA445302F5C074B2
S31508005FE004EB00142468234302F5C07404EB001480
S31508005FF0236010E00B7A4C6843EAC4034C7A2343C7
S3150800600002F5C07404EB00142468234302F5C07437
S3150800601004EB001423608B7A03F00F038B7202F5EE
S31508006020C07303EB00135B6823F00F0402F5C0731B
S3150800603003EB00135C6002F5C07303EB00135B68A7
S315080060408C7A234302F5C07404EB001463608B7BDF
S315080060501C064B7B44EA03440B7B44EA0323CC7AB5
S31508006060234302F5C07404EB0014A3608B7C1C0662
S315080060704B7C44EA03440B7C44EA0323CC7B23434E
S3150800608002F5C07404EB0014E36002F5C07303EB79
S3150800609000131B6843F0010402F5C07303EB0013F9
S315080060A01C6010BD10B50246002006E01378434078
S315080060B0034CE05C521C4B1ED9B20029F6DC10BD1D
S315080060C0D87B01082DE9F04FD1B000240025002621
S315080060D0A146A246A346002050900027AA204F902A
S315080060E000204E9080464D904C90C0211CA8FEF78B
S315080060F032F800201B901A9000231AAA40F2EF31BA
S315080061004FF4006004F0F6FD1A98C0B24E900023D2
S315080061101AAA4FF48061480004F0ECFDDDF86880A7
S3150800612000231AAA40F201414FF4006004F0E2FD90
S315080061301A984D9000231AAA4FF4FC614FF4006098
S3150800614004F0D8FD1A9880B250903D48007801288E
S3150800615002D13C4800885090684608F029FF34224E
S3150800616069460DA8FDF7DEFF002564E00DA830F8A6
S3150800617015001B9005F57C7100231AAA4FF40060E0
S3150800618004F0B8FD1A98C6B21B9840454FD3102E96
S3150800619000DC16B951B0BDE8F08F002412E008F013
S315080061A011FF00EB470030F814B01CA800EB85106F
S315080061B020F824B01CA800EB851000EB840084703E
S315080061C0601CC4B2B442EADB1CA901EB8510314657
S315080061D00DF0C2FC701EC4B227E01CA800EB8510A7
S315080061E000EB840090F802901CA800EB851030F8AC
S315080061F024105098A1EB000A4D98824509D31CA893
S3150800620000EB851030F82400404502D355204F9006
S3150800621001E0AA204F90CDF8309129460A484F9BB5
S315080062204C9A05F0DBF8601CC4B2B442D5DBB81949
S31508006230C7B2681CC5B24E98854297DB00BFA9E76E
S3150800624077030020780300206203002038B5002475
S3150800625000250020009000236A4640F2EF314FF4F3
S31508006260006004F047FD0098C5B200BF05E00020B5
S31508006270084921F81400601CC4B2AC42F7DB0024BC
S3150800628004E0002004490855601CC4B2082CF8DB59
S3150800629038BD00006203002068030020F8B549F6FF
S315080062A0404400250026002000901E480068401C37
S315080062B01C490860084600681B490968884230D3AB
S315080062C000201849086008F0F9F9054617480068DB
S315080062D02E1A00236A4640F25E414FF4006004F02D
S315080062E009FD0098704310490968B0FBF1F40023D2
S315080062F0224640F25E414FF400600AF0C9FF50B1F1
S3150800630008F054FC08F02AF9204608F00DFC08F0BD
S315080063104DFC08F02DF9054805604FF41670024942
S315080063200860F8BD40000020380000203C0000202E
S3150800633010B500F091FE10BDFEB5002002900025B4
S315080063400026019000900024002301AA40F6BF71A0
S315080063504FF4006004F0CEFC019800B1FEBD0023A6
S3150800636002AA40F2D2714FF4006004F0C3FC002385
S315080063706A4640F266414FF4006004F0BBFC6421B3
S31508006380009890FBF1F00299084402906421009865
S3150800639090FBF1F201FB120000905C480078401C6B
S315080063A05A490870084600780099884203DC029822
S315080063B0401C029006E055480078642802DB00205D
S315080063C0524908705249534A1278029841F82200F5
S315080063D050480078401C0A2190FBF1F201FB12009C
S315080063E04C49087047F230510298884251DA0298AF
S315080063F00D1A48F6A040854201DD0025AEE72E4677
S315080064004548007801281ED1002419E042484088F2
S3150800641004EB4401414A32F8111088420EDD04EBC0
S315080064204400114601EB40004088684304EB4401F0
S3150800643002EB4101898890FBF1F603E0601CC4B2C7
S31508006440042CE3DB00BF3648006818B935480068F5
S31508006450334908600023344A40F264414FF400602F
S3150800646004F048FC30480068C0EB401040014FF487
S315080064707A7190FBF1F02B490968884204DD2B48B4
S315080064800068304429490860294800682844284992
S31508006490086047F230510298884235DD0298451A5D
S315080064A048F6A040854201DD002557E72E461A48E2
S315080064B0007802281ED1002419E01748408804EB0A
S315080064C044011C4A32F8111088420EDD04EB4400E0
S315080064D0114601EB40004088684304EB440102EB97
S315080064E04101898890FBF1F603E0601CC4B2042CD4
S315080064F0E3DB00BF0D480068801B0C4908600E48A6
S31508006500006828440C49086000BF27E7F404002007
S31508006510680B0020E4040020B80400203862010853
S31508006520EC040020BC040020F0040020CC04002069
S31508006530DC04002050620108E004002038B5002081
S315080065400090002400236A4640F2FE314FF40060B2
S3150800655004F0D0FB0098322802DA4FF47A7414E07B
S31508006560009832280FDB40F21A41009888420ADC6C
S31508006570009800EB400101EB00100849081A642155
S3150800658090FBF1F401E04FF448740023224640F2F0
S31508006590FD314FF400600AF07BFE38BD568A0100D3
S315080065A07FB50025002400200390029001900090FA
S315080065B003F090F9044648F6A04084420FD847F203
S315080065C0305084420BD34F480088401C4D49088000
S315080065D0084600880A2805DD0A20088002E000200F
S315080065E04849088047F2265084420FD845F6C050DD
S315080065F084420BD344480088401C43490880084617
S3150800660000880A2805DD0A20088002E000203E49A5
S315080066100880002303AA40F2DD714FF4006004F0FD
S3150800662069FB002302AA4FF4FC614FF4006004F0F2
S3150800663061FB00236A4640F2DF714FF4006004F004
S3150800664059FB002301AA40F2E9714FF4006004F0F7
S3150800665051FB0398B0F57A7F00DA7FBD2948008898
S315080066600A2813DBA4F5EA40303885B2029804F00C
S31508006670B9FD02902946029804F064FD0290234A67
S315080066800021029804F0E8FB214908801E4800888A
S315080066900A2813DB47F23050001B85B2009800F039
S315080066A0B5FA00902946009800F058FA0090194A61
S315080066B00021009804F0D0FB15490880144800888A
S315080066C00199884209DD012013490870104800889D
S315080066D00199401A1049488012E00D48008801992E
S315080066E0884209DA02200C49087009490988019884
S315080066F0401A0949488003E0002007490870488085
S3150800670000BFAAE7FC040020FA040020580B00206A
S31508006710E6040020480B0020B80400202DE9F843C1
S3150800672006460C4600250020009080460027012ECC
S3150800673004D0022E2AD0032E72D188E000205949AF
S315080067400880594908805948006847F258518842D4
S3150800675019DC5648006847F20851884213DB4FF0A7
S3150800676001080023514840F2244102684FF40060B2
S315080067700AF08EFD4D48008800B24A49088001207B
S315080067804B49087001E04FF0000886E04848007859
S31508006790012802D04FF000087FE04448016804F160
S315080067A02800814250DC50384049096888424BDC51
S315080067B04FF001083D48008800B23B49088047F27F
S315080067C03050844201DB271A02E047F23050071B9B
S315080067D03548B0F900003349B1F9001088420BDD9D
S315080067E0642078433049B1F900102E4AB2F90020E6
S315080067F0891AB0FBF1F517E02B48B0F900002949D2
S31508006800B1F9001088420CDA642078432549B1F9B9
S315080068100010254AB2F90020891AB0FBF1F503E009
S315080068203AE04FF0000838E000232A4640F22541B6
S315080068304FF400600AF02CFD18B102201C490870BC
S3150800684004E04FF0000801E04FF0000825E0184882
S315080068500078022802D04FF000081EE000236A469E
S3150800686040F2D2714FF4006004F044FA20460099D1
S315080068700DF0C3FA814647F2305120460DF0BDFAB5
S31508006880B9EBD00F05D24FF001080020084908706F
S3150800689001E04FF0000800E000BF00BF4046BDE839
S315080068A0F88300009003002092030020780400205B
S315080068B0940300201FB500200090019002900390D9
S315080068C00D4800880D490988884214D00C480A49A1
S315080068D0098800EB01130FCB8DE80F00684606F018
S315080068E0DFFD05480088401C142190FBF1F201FBEE
S315080068F01200014908801FBD4E0500204C050020E6
S31508006900901F00201FB50020009001900290039070
S31508006910194800881949098888422CD01848164908
S31508006920098800EB01130FCB8DE80F009DF80C20AA
S3150800693001A9009805F062F868B10F480088401C64
S315080069401E2190FBF1F201FB12000B490880002082
S315080069500C4908700FE00B480078401C094908707C
S31508006960084600780A2806DD05F00EF806F0C0FA93
S315080069700020044908701FBD4A050020480500206C
S31508006980B01D0020720500201FB50020039047F2B5
S3150800699030500290002001900090002302AA40F295
S315080069A0D2714FF4006004F0A5F947F2305102980D
S315080069B088420FDA5E480088401C5D490880084610
S315080069C000880A2802DD01205A49087000205A4921
S315080069D008801EE058480088401C57490880084629
S315080069E00088322802DD00205249087000205049EC
S315080069F0088047F23051029888420ADD4F480178EC
S31508006A000078401C4D4A10700A2902DD00204C49C6
S31508006A100870002301AA40F2E9714FF4006004F0FF
S31508006A2069F903A803F0C2FA012803D1414800789E
S31508006A30012803D002F012FF00284CD04FF47A70D8
S31508006A400AF05EFE00F082F800203A4908703A49DA
S31508006A5008803749088001203A4908703848007884
S31508006A60002857D000203649087000236A4640F2AD
S31508006A70FA314FF4006004F03DF93349009809688B
S31508006A80401A3149086000236A4640F2F6314FF44D
S31508006A90006004F02FF9009800EB400080000A21FE
S31508006AA090FBF1F028490968884233DB0098C0005A
S31508006AB00A2190FBF1F02449096888422ADC002360
S31508006AC0214840F2644102684FF400600AF0E0FB96
S31508006AD006F000FB1EE002F0E2FEA0B100200AF07C
S31508006AE00FFE00236A4640F2FA314FF4006004F0C4
S31508006AF001F915490098086001201149087000201D
S31508006B000E49087006E003A801F0F8FD012801D136
S31508006B1000F01CF80198B0F57A7F04DB47F2305193
S31508006B200298884202DD0020064908701FBD000051
S31508006B30BA030020BE030020BC030020BF030020C8
S31508006B40B0030020A8030020AC03002001207047F2
S31508006B5010B501F095FA01F04FFA10BDF8B50646E2
S31508006B600F46002400254FF47A70009035463C46BF
S31508006B7000236A4640F264414FF4006004F0BAF814
S31508006B804FF47A71009890FBF1F00090009810B1DC
S31508006B90B6F57A7F01DA2846F8BD002C2EDD04EB1F
S31508006BA084004000009990FBF1F4B4F57A7F01DD8A
S31508006BB02846F1E7322C04DC1148006804FB10551E
S31508006BC01CE0642C0BDC0E480068322101FB1055D2
S31508006BD0A4F132000B49096800FB11550EE008487C
S31508006BE00068322101FB10550648006801FB105564
S31508006BF0A4F164000449096800FB11552846CBE74F
S31508006C0090040020940400209804002038B5054616
S31508006C100020009000242C4600236A4640F2E271C8
S31508006C204FF4006004F066F8B4F57A7F02DB00984A
S31508006C30002801DA204638BD009841282BDA00984A
S31508006C40322807DB0098C0F141001449096800FBA7
S31508006C50114420E0009828280CDB104800680F2112
S31508006C6001FB10440098C0F132000D49096800FB89
S31508006C70114410E0094800680F2101FB1044084838
S31508006C8000680A2101FB10440098C0F12800054954
S31508006C90096800FB11442046CDE700008404002063
S31508006CA0880400208C04002038B5054600240020FE
S31508006CB0009000BF43E004EB4400234951F820004C
S31508006CC0A8423AD104EB440001EB80008068A8B1E1
S31508006CD004EB44000A4602EB800000236A468168FA
S31508006CE04FF4006004F006F808B9002038BD009893
S31508006CF0552801D10120F9E70020F7E704EB440005
S31508006D00114901EB80004068A8B104EB44000A462B
S31508006D1002EB800000236A4641684FF4006003F0E6
S31508006D20E9FF08B90020E1E70098552801D10120BC
S31508006D30DCE70020DAE70020D8E7601C84B20E2CD6
S31508006D40B9D30020D2E70000745C010870B50024AE
S31508006D501EE0144901F83440002515E0C4EBC400D0
S31508006D60284486B21E2E07DA0F48815D05EBC4005B
S31508006D70401C0C4A115405E0FF2105EBC400401CD9
S31508006D80084A1154681C85B2072DE7DB601C84B2DB
S31508006D90052CDEDB0020054908800621044801F0A1
S31508006DA0D1F970BDCE080020B008002018040020D4
S31508006DB04D91000810B500247A2007F055F908B15E
S31508006DC044F001047B2007F04FF908B144F00204AF
S31508006DD07C2007F049F908B144F004047D2007F047
S31508006DE043F908B144F008047E2007F03DF908B1DC
S31508006DF044F010047F2007F037F908B144F0200466
S31508006E0007F098F8204610BD08B50020009001F05C
S31508006E100DFA012818D100236A4640F26141C002E2
S31508006E2003F068FF009801280AD10E48007818B1C7
S31508006E3003200DF03DFF0AE002200DF039FF06E0C1
S31508006E4002200DF035FF02E003200DF031FF0DF0B2
S31508006E5063FF18B102200CF061FF02E003200CF07A
S31508006E605DFF08BD0005002010B5044611480088DE
S31508006E70401C052190FBF1F201FB12000E4909881E
S31508006E80884216D00B49098801EB410202EBC10181
S31508006E900A4A02EB410016222146FDF743F9054846
S31508006EA00088401C052190FBF1F201FB1200014904
S31508006EB0088010BD6E050020700500206E28002091
S31508006EC000B587B01048008810490988884219D04B
S31508006ED00E48008800EB400202EBC0000C4A02EBA9
S31508006EE04001162201A8FDF71DF901A800F022F8B5
S31508006EF006480088401C052190FBF1F201FB1200B0
S31508006F000249088007B000BD6E0500207005002004
S31508006F106E280020002007E0102200EB40030449F9
S31508006F2001F81320411CC8B20428F5DB704700009D
S31508006F305C2900207CB5044600251BA103C9CDE9C0
S31508006F4000016088A0F6017010B1042828D102E07B
S31508006F500CF010FC25E0002508E01DF80500217856
S31508006F60134A02EB81114855681CC5B2082DF4DB9B
S31508006F70012122780F4800EB8200817008212278CF
S31508006F800C4820F822100021227800EB8200C170FC
S31508006F90217801EB4101084A52F82100804700E0B8
S31508006FA000BF00BF7CBD000051100F05AAAA21939F
S31508006FB074290020742A0020A87B0108014601F0E4
S31508006FC00F020B1103EB830302EB4302D0B27047A7
S31508006FD0014664290ADA0A2091FBF0F200FB121234
S31508006FE091FBF0F002EB0010C0B270470020FCE7FE
S31508006FF030B502460B464FF6FF7011E012F8014B0A
S31508007000604000210AE000F0010424B140104AF271
S315080070100104604000E040104C1CE1B20829F2DB94
S315080070201C1EA3F10105ABB2E8D130BD00B503467D
S3150800703003F050FE0246802A07D0054840F8223061
S3150800704004480068401C03490860104600BD00005B
S31508007050B01B00203C05002008B500200090002346
S315080070606A464FF47A714FF4006003F043FE0099C4
S31508007070C8B200F030F90099C8B200F074F8009967
S31508007080C8B200F009F800F0D5F800F07DF90099CB
S31508007090C8B200F040F908BD2DE9FC5F07464FF07D
S315080070A0000AD34600254FF6FF76A846B1460020CB
S315080070B0019030460090012423E0234601AA472187
S315080070C04FF4806003F016FE23466A4648214FF4C3
S315080070D0806003F00FFE019885B2009886B2012CF5
S315080070E004D1A846B146A246A34608E0A84501DA57
S315080070F0A846A246B14501DDB146A34600BF601CBD
S31508007100C4B2BC42D9DD0023424640F2E1714FF4D5
S3150800711000600AF0BDF8534601AA4B214FF480607F
S3150800712003F0E8FD002340F2E7714FF40060019A8E
S315080071300AF0AEF800234A4640F2E2714FF40060C6
S315080071400AF0A6F85B466A464C214FF4806003F0C5
S31508007150D1FD00234FF4FD614FF40060009A0AF058
S3150800716097F8BDE8FC9F2DE9FC5F07464FF0000A3B
S31508007170D34600254FF6FF76A846B1460020019073
S3150800718030460090012423E0234601AA43214FF408
S31508007190806003F0AFFD23466A4644214FF48060C1
S315080071A003F0A8FD019885B2009886B2012C04D197
S315080071B0A846B146A246A34608E0A84501DAA8466D
S315080071C0A246B14501DDB146A34600BF601CC4B264
S315080071D0BC42D9DD0023424640F2DF714FF400601D
S315080071E00AF056F8534601AA49214FF4806003F085
S315080071F081FD002340F2E5714FF40060019A0AF020
S3150800720047F800234A464FF4FC614FF400600AF041
S315080072103FF85B466A464A214FF4806003F06AFDF0
S31508007220002340F2E6714FF40060009A0AF030F845
S31508007230BDE8FC9F7FB5002400250020039002903E
S3150800724001900090002303AA40F2DF714FF400601A
S3150800725003F050FD002302AA4FF4FC614FF40060CE
S3150800726003F048FDDDE90210884203DDDDE902107E
S31508007270401A02E0DDE90201401A84B200232246E0
S3150800728040F2E3714FF400600AF002F8002301AA05
S3150800729040F2E1714FF4006003F02CFD00236A46CA
S315080072A040F2E2714FF4006003F024FDDDE90010BE
S315080072B0884203DDDDE90010401A02E0DDE900013D
S315080072C0401A85B200232A4640F2E4714FF4006062
S315080072D009F0DEFF7FBDF8B5054600270026002029
S315080072E0009000240CE0601CC3B26A4640210801E5
S315080072F003F000FD009887B2F01986B2601CC4B28C
S31508007300AC42F0DB0023324640F2D1714FF4006004
S3150800731009F0BEFFF8BD2DE9F84F07464FF0000902
S31508007320002000900026804601241DE004F2F23178
S3150800733000236A464FF4006003F0DCFC009800F076
S31508007340FF0900250CE005F1300123466A464FF493
S31508007350806003F0CFFC00988044761C681CC5B298
S315080073604D45F0DB601CC4B2BC42DFDD002E09DDF2
S3150800737098FBF6FA0023524640F2DE714FF400609D
S3150800738009F086FFBDE8F88F1CB50020019000BF04
S315080073900090002301AA40F2D1714FF4006003F077
S315080073A0A9FC00236A4640F2D6714FF4006003F048
S315080073B0A1FC642101984843009990FBF1F400234D
S315080073C0224640F2DD714FF4006009F061FF1CBDF2
S315080073D030B585B00020009001904FF4FA71FE4850
S315080073E0FCF7B9FE002304AA40F2D6714FF40060F8
S315080073F003F080FC0498C5B22025002412E021463B
S31508007400012303AA980203F075FC0398C0F3072129
S31508007410F14A02F814100398C1B26000401C1154D6
S31508007420601CC4B2AC42EADB002304AA40F2D7715E
S315080074304FF4006003F05EFC0498C5B208250024EA
S3150800744014E004F13001012303AA980203F052FC68
S315080074500398C0F3072160004030DF4A11540398AF
S31508007460C1B2600041301154601CC4B2AC42E8DBC2
S31508007470002303AA40F2D1714FF4006003F03AFCEE
S315080074800398000AD44981F85000039881F85100FE
S31508007490002303AA40F2D2714FF4006003F02AFCDD
S315080074A04EF660210398081A03900398000ACA4901
S315080074B081F85200039881F85300002303AA40F28A
S315080074C0E9714FF4006003F015FC0398000AC249FD
S315080074D081F85400039881F85500002303AA40F266
S315080074E0DF714FF4006003F005FC0398000ABA49FF
S315080074F081F85600039881F85700002303AA4FF431
S31508007500FC614FF4006003F0F5FB0398000AB249EA
S3150800751081F85800039881F85900002303AA40F21D
S31508007520E1714FF4006003F0E5FB0398000AAA49ED
S3150800753081F85A00039881F85B00002303AA40F2F9
S31508007540E2714FF4006003F0D5FB0398000AA249E4
S3150800755081F85C00039881F85D00002303AA40F2D5
S31508007560D3714FF4006003F0C5FB0398000A9A49EB
S3150800757081F85E00039881F85F00002303AA40F2B1
S31508007580F6314FF4006003F0B5FB002302AA40F27F
S31508007590E9714FF4006003F0ADFB6421039890FB9A
S315080075A0F1F0029948434FF47A7190FBF1F0039099
S315080075B00398000A884981F86000039881F86100F9
S315080075C0002303AA40F2D6714FF4006003F092FB41
S315080075D00398000A804981F86200039881F86300DD
S315080075E0002303AA40F2D7714FF4006003F082FB30
S315080075F00398000A784981F86400039881F86500C1
S31508007600002303AA40F2FE314FF4006003F072FB38
S315080076100398000A704981F86600039881F86700A4
S31508007620002003906D4800786C49497808436B49F7
S31508007630897808436949C978084368490979084334
S3150800764066494979084318B1039840F00100039048
S315080076500398000A604981F86800039881F8690070
S31508007660002303AA40F2D9714FF4006003F042FBED
S315080076700398000A584981F86A00039881F86B0054
S31508007680002303AA4FF4FB614FF4006003F032FBBA
S315080076900398000A504981F86C00039881F86D0038
S315080076A0012303AA4121980203F024FB0398000A48
S315080076B0494981F86E00039881F86F00002303AAF0
S315080076C040F2E3714FF4006003F014FB0398000ADC
S315080076D0414981F87000039881F87100002303AAD4
S315080076E040F2D1714FF4006003F004FB002304AAB2
S315080076F040F2D2714FF4006003F0FCFA47F23051C1
S315080077000498884203DB0498401A049004E047F280
S3150800771030510498081A0490DDE9030148436421AE
S3150800772090FBF1F003900398000A2B4981F8720048
S31508007730039881F8730001F0DFFE0390284840782B
S31508007740254981F874002648007881F8750001F00B
S315080077504BFF03902248C0781F4981F876002048DD
S31508007760807881F8770001F0B5FF03901C484079CE
S31508007770194981F878001A48007981F8790002F0E9
S3150800778045F803901648C079134981F87A001448D9
S31508007790807981F87B00002003901048007810B1AA
S315080077A00120039001E00020039000200390039835
S315080077B0000A094981F87E00039881F87F000023B2
S315080077C003AA40F2F7714FF4006003F093FA47F208
S315080077D030500390039805E0BC2C00206803002075
S315080077E06C040020000AFE4981F88000039881F89D
S315080077F08100002304AA4FF47C714FF4006003F063
S3150800780079FA0498C5B20020039000240AE0F548E6
S3150800781000780121A140084010B1601C039003E0E4
S31508007820601CC4B2AC42F2DB00BF00200390039890
S31508007830000AEB4981F88200039881F88300002347
S3150800784003AA40F2F4714FF4006003F053FA039868
S31508007850000AE34981F88400039881F8850000232B
S3150800786004AA40F2D6714FF4006003F043FA049874
S31508007870C5B21025002414E004F12001012303AA4F
S31508007880980203F037FA0398C0F3072160008E3098
S31508007890D34A11540398C1B260008F301154601C4A
S315080078A0C4B2AC42E8DBD048C07FA52805D118226F
S315080078B0CD49CB48AE30FCF735FCFF223821C84805
S315080078C0C630FCF741FC002303AA40F2F6314FF418
S315080078D0006003F00FFA6421039890FBF1F003901F
S315080078E00398000ABE4981F8FE00039881F8FF0054
S315080078F0002303AA40F2F9314FF4006003F0FAF9C5
S315080079000398000AB64981F80001039881F8010135
S31508007910002303AA40F2EF314FF4006003F0EAF9BE
S315080079200398000AAE4981F80201039881F8030119
S31508007930002303AA4FF47C714FF4006003F0DAF9D0
S315080079400398000AA64981F80401039881F80501FD
S31508007950002303AA40F2F1314FF4006003F0CAF99C
S315080079600398000A9E4981F80601039881F80701E1
S31508007970002303AA40F2F2314FF4006003F0BAF98B
S315080079800398000A964981F80801039881F80901C5
S31508007990002303AA40F2F3314FF4006003F0AAF97A
S315080079A00398000A8E4981F80A01039881F80B01A9
S315080079B0002303AA4FF47D714FF4006003F09AF98F
S315080079C00398000A864981F80C01039881F80D018D
S315080079D0002303AA40F2F5314FF4006003F08AF958
S315080079E00398000A7E4981F80E01039881F80F0171
S315080079F0002303AA4FF47E714FF4006003F07AF96E
S31508007A000398000A764981F81001039881F8110154
S31508007A10002303AA40F203414FF4006003F06AF919
S31508007A200398000A6E4981F81201039881F8130138
S31508007A30002303AA40F22D414FF4006003F05AF9DF
S31508007A400398000A664981F81401039881F815011C
S31508007A50002303AA40F23B414FF4006003F04AF9C1
S31508007A600398000A5E4981F81601039881F8170100
S31508007A70002303AA40F22E414FF4006003F03AF9BE
S31508007A800398000A564981F81801039881F81901E4
S31508007A90002303AA40F23C414FF4006003F02AF9A0
S31508007AA00398000A4E4981F81A01039881F81B01C8
S31508007AB0002303AA40F227414FF4006003F01AF9A5
S31508007AC00398000A464981F81C01039881F81D01AC
S31508007AD0002303AA40F235414FF4006003F00AF987
S31508007AE00398000A3E4981F81E01039881F81F0190
S31508007AF0002303AA4FF485614FF4006003F0FAF8F7
S31508007B000398000A364981F82001039881F8210173
S31508007B10002303AA40F236414FF4006003F0EAF866
S31508007B200398000A2E4981F82201039881F8230157
S31508007B30002303AA40F22B414FF4006003F0DAF861
S31508007B400398000A264981F82401039881F825013B
S31508007B50002303AA40F239414FF4006003F0CAF843
S31508007B600398000A1E4981F82601039881F827011F
S31508007B70002303AA40F22C414FF4006003F0BAF840
S31508007B800398000A164981F82801039881F8290103
S31508007B90002303AA40F23A414FF4006003F0AAF822
S31508007BA00398000A0E4981F82A01039881F82B01E7
S31508007BB0002303AA40F232414FF4006003F09AF81A
S31508007BC00398000A064981F82C01039881F82D01CB
S31508007BD0002303AA4FF488614FF4006006E0000012
S31508007BE0BC2C0020680300208E05002003F082F8D4
S31508007BF00398000AFB4981F82E01039881F82F01A2
S31508007C00002303AA40F233414FF4006003F072F8F0
S31508007C100398000AF34981F83001039881F8310185
S31508007C20002303AA40F241414FF4006003F062F8D2
S31508007C300398000AEB4981F83201039881F8330169
S31508007C40002303AA4FF486614FF4006003F052F84C
S31508007C500398000AE34981F83401039881F835014D
S31508007C60002303AA40F23E414FF4006003F042F8B5
S31508007C700398000ADB4981F83601039881F8370131
S31508007C80002303AA40F231414FF4006003F032F8B2
S31508007C900398000AD34981F83801039881F8390115
S31508007CA0002303AA40F23F414FF4006003F022F894
S31508007CB00398000ACB4981F83A01039881F83B01F9
S31508007CC0002303AA40F22F414FF4006003F012F894
S31508007CD00398000AC34981F83C01039881F83D01DD
S31508007CE0002303AA40F23D414FF4006003F002F876
S31508007CF00398000ABB4981F83E01039881F83F01C1
S31508007D00002303AA40F234414FF4006002F0F2FF68
S31508007D100398000AB34981F84001039881F84101A4
S31508007D20002303AA40F242414FF4006002F0E2FF4A
S31508007D300398000AAB4981F84201039881F8430188
S31508007D40002303AA4FF48061480002F0D3FF03988A
S31508007D50000AA44981F84401039881F845010023E3
S31508007D6003AA40F201414FF4006002F0C3FF0398F2
S31508007D70000A9C4981F84601039881F847010023C7
S31508007D8003AA40F2F5714FF4006002F0B3FF0398BE
S31508007D90552802D10020039001E0012003900398A2
S31508007DA0000A904981F84801039881F8490100239F
S31508007DB003AA40F2F6714FF4006002F09BFF0398A5
S31508007DC0552802D10020039001E001200390039872
S31508007DD0000A844981F84A01039881F84B01002377
S31508007DE003AA40F2E9714FF4006002F083FF03989A
S31508007DF0000A7C4981F84C01039881F84D0100235B
S31508007E0003AA40F24A414FF4006002F073FF039858
S31508007E10000A744981F84E01039881F84F0100243D
S31508007E2009E0C4F10D007049095C04F5A8706D4AB3
S31508007E301154601CC4B20E2CF3DB002409E0C4F113
S31508007E400D006A49095C04F5B070664A1154601C55
S31508007E50C4B20E2CF3DB002424E004F5836100236E
S31508007E6003AA4FF4006002F045FF0398010EA00034
S31508007E7000F5B8705B4A11540398C0F30741A00097
S31508007E8000F2711011540398C0F30721A00000F501
S31508007E90B97011540398C1B2A00000F273101154BE
S31508007EA0601CC4B2082CD8DB002303AA40F2554153
S31508007EB04FF4006002F01EFF0398000A494981F852
S31508007EC09001039881F89101002303AA40F25641D4
S31508007ED04FF4006002F00EFF0398000A414981F84A
S31508007EE09201039881F89301002303AA40F25741AF
S31508007EF04FF4006002F0FEFE0398000A394981F843
S31508007F009401039881F89501002303AA4FF484612C
S31508007F104FF4006002F0EEFE0398000E314981F836
S31508007F2096010398000C81F897010398000A81F8D6
S31508007F309801039881F89901002304AA40F2D671A2
S31508007F404FF4006002F0D6FE049803900398000EE2
S31508007F50244981F89A010398000C81F89B01FF20B7
S31508007F6081F89C0181F89D01002081F89E0181F825
S31508007F709F01FF2081F8A00181F8A10181F8A201E3
S31508007F8081F8A301684604F0A7FBBDF80000A0F538
S31508007F90FA60144981F8A6019DF8020081F8A70144
S31508007FA09DF8030081F8A8019DF8040081F8A9014D
S31508007FB09DF8050081F8AA019DF8060081F8AB0135
S31508007FC0002081F8AC0181F8AD01FF2081F8AE01EF
S31508007FD081F8AF01FF222E210548FCF7B5F805B058
S31508007FE030BD0000BC2C00205604002048040020A8
S31508007FF06C2E00207047000010B5002403F094FE94
S315080080000446C4B91B480078401C1A49087008463B
S315080080100078032812DD032008701748007868B92D
S315080080200023012240F2ED71D00209F031F9012056
S315080080301149087002E000200E490870B4B10F48D3
S315080080400078401C0D49087008460078032810DDA2
S315080080500320087000231A4640F2ED714FF40060C1
S3150800806009F016F900200449087002E000200349C7
S31508008070087010BDB4030020B6030020B503002025
S3150800808010B5002403F038FE0446C4B91B4800782E
S31508008090401C1A49087008460078032812DD032098
S315080080A008701748007868B90023012240F2EC717D
S315080080B0D00209F0EDF801201149087002E000200D
S315080080C00E490870B4B10F480078401C0D49087075
S315080080D008460078032810DD0320087000231A4696
S315080080E040F2EC714FF4006009F0D2F80020044920
S315080080F0087002E000200349087010BDB103002093
S31508008100B3030020B203002010B5044605480078E2
S3150800811006F084FD2146044800F014F80149087069
S3150800812010BD0000C50500202D8100080020034968
S315080081300870FF200249087070470000C405002037
S31508008140C505002030B505460C46094803F0A4F8D5
S315080081500346302B09DA074840F823500021C0307F
S3150800816040F82310024840F82340184630BD000066
S31508008170881400203816002010B56421014807F03D
S31508008180DBFE10BDE5EB000810B54FF47A71064822
S3150800819007F0D2FEC821054807F0CEFE6421044840
S315080081A007F0CAFE10BD000039FC0008B1F400084B
S315080081B02553000810B564210B4809F081FA4FF4DD
S315080081C07A710A4807F0B8FE4FF47A71084807F042
S315080081D0B3FE6421074807F0AFFE4FF4FA6106487C
S315080081E007F0AAFE10BD000039630008B91F010890
S315080081F055170108A1650008AD86000810B50122CB
S315080082004021034801F011F900200249087010BD09
S3150800821000100140580500204FF4FA5200FB02F105
S3150800822000BF0A1EA1F10101FBD1704738B5002035
S31508008230009000236A4640F2EC714FF4006002F0A9
S3150800824059FD009810B900202F49087000236A4686
S3150800825040F2D2714FF4006002F04CFD47F2305103
S315080082600098884201DD012038BD2748007808B10A
S315080082700020F9E700236A4640F2F5714FF40060E2
S3150800828002F038FD0098552807D0204800780128C4
S3150800829003D01F480078012801D10020E4E70BF03D
S315080082A0DBF908B10020DFE700241CE0194850F884
S315080082B0241000236A464FF4006002F01BFD009864
S315080082C055280ED1134850F8240040F6C831884284
S315080082D005D11148007810B901200B490870002013
S315080082E0C2E7601CC4B2052CE0D300236A4640F6F8
S315080082F0C3714FF4006002F0FDFC009808B100203D
S31508008300B2E70120B0E700000205002004050020BE
S3150800831005050020546F01080005002038B5002027
S31508008320009000236A4640F2ED714FF4006002F0B7
S31508008330E1FC009810B900202749087000236A4616
S3150800834040F2D2714FF4006002F0D4FC47F230518B
S315080083500098884201DA012038BD1F48007808B124
S315080083600020F9E702F07FFE18B91C4800780128BA
S3150800837001D10020F0E70BF06FF908B10020EBE718
S31508008380002419E0164850F8241000236A464FF4D2
S31508008390006002F0AFFC009855280BD1104850F841
S315080083A0240040F6C931884202D101200A490870E2
S315080083B00020D1E7601CC4B2052CE3D300236A462B
S315080083C040F6C3714FF4006002F094FC009808B1BF
S315080083D00020C1E70120BFE70105002004050020B1
S315080083E0406F010808B50020009000236A464FF444
S315080083F089614FF4006002F07DFC009801280ED1D7
S3150800840004F01CFC01280AD100231A464FF489619E
S31508008410C00208F03DFF06F06DF804F0F1FC009884
S31508008420A5280CD100231A464FF489614FF4006041
S3150800843008F02EFF01201A49087004F0E1FC0098A4
S3150800844055280BD100231A464FF489614FF4006072
S3150800845008F01EFF06F04EF804F0D2FC00236A4628
S3150800846040F203414FF4006002F044FC4FF6FF71FE
S315080084700098884202D101200A49087000236A46FA
S3150800848040F263414FF4006002F034FC0098012882
S3150800849004D103F06FFB01200349087008BD0000F2
S315080084A055000020150000205700002010B5FFF7E2
S315080084B035FF0C49087008460078012803D10020CA
S315080084C00CF0F6FB02E001200CF0F2FB0CF048FC85
S315080084D018B100200BF022FC02E001200BF01EFC74
S315080084E010BD00000605002008B52020ADF80000E4
S315080084F003208DF8020004208DF80300694602481F
S3150800850000F0B6FE08BD00000008014008B52020AE
S31508008510ADF8000003208DF8020014208DF8030042
S315080085206946024800F0A4FE08BD000000080140A4
S3150800853010B5012000F056F804F0ECF910BD000063
S3150800854010B54FF4004000F053F8E8B1144800782D
S31508008550A0B114480078082812DA134800780128D0
S315080085600ED103F0E1FB58B9012004F075F901209A
S3150800857004F0A8F905200D49087001E004F0CAF9CD
S315080085804FF4004000F02EF84FF4005000F030F899
S3150800859028B14FF4005000F025F804F0BBF910BDDF
S315080085A0570000205900002006050020580000202A
S315080085B010B5082000F016F804F0ACF910BD10B597
S315080085C0102000F00FF804F0A5F910BD10B5202012
S315080085D000F008F84FF4807000F004F804F09AF9F7
S315080085E010BD0000014908607047000014040140EE
S315080085F0014600200022074B1B6803EA0102054BCF
S3150800860014331B680B4013B10AB1012000E00020A7
S315080086107047000000040140002123498279002A9E
S315080086203AD00A46126803689A430B461A600A1D2E
S31508008630126803689A430B1D1A60027911440A6886
S3150800864003681A430A60184A0832126803689A438C
S31508008650154B08331A601A1D126803689A43124BA1
S315080086600C331A604279102A0ED11A1F1268036851
S315080086701A430D4B08331A601A1D126803681A4309
S31508008680094B0C331A600DE00749427911440A6810
S3150800869003681A430A6005E0027911440A68036808
S315080086A09A430A6070470000000401402DE9F04132
S315080086B01048006810490968451A002D00DA6D420D
S315080086C001F008F9044647F23050844210DA071BD5
S315080086D095FBF7F6C6EB06108000642190FBF1F6D1
S315080086E00023324640F2EA714FF4006008F0D0FDEC
S315080086F0BDE8F081C0040020BC0400207CB5044617
S31508008700002001900090002540F6A970FEF7CCFAEB
S3150800871040B1A07820F00300401CA07001203A491F
S315080087200870102540F6AA70FEF7BEFA40B1A07888
S3150800873020F00300401CA070012033490870112561
S3150800874040F6AC70FEF7B0FA40B1A07820F003000E
S31508008750401CA07001202C490870122540F6AD7007
S31508008760FEF7A2FA40B1A07820F00300401CA070E2
S315080087700120254908701325002301AA40F2D1716A
S315080087804FF4006002F0B6FA00236A464FF4FC6123
S315080087904FF4006002F0AEFA40F2DC5100988842CD
S315080087A002DB0198322814DA18480078401C174969
S315080087B00870084600780A280EDD0A200870E07856
S315080087C020F00C00001DE07001200F4908701725E5
S315080087D002E000200D49087040F6A470FEF764FA1E
S315080087E018B101200849087034250748007801287F
S315080087F006D100232A4640F2EB71C00208F048FD74
S31508008800014800787CBD0000B7030020B8030020AB
S315080088100549096821F01001034A116011460968E3
S315080088200143116070470000002002400146002005
S31508008830034A106800F038000843106070470000CB
S315080088400020024010B500222021074800F0EDFD67
S3150800885001224021044800F0E8FD00224021024898
S3150800886000F0E3FD10BD0000000801402DE9F041CD
S3150800887005460E46174601200AF05CFE00F084F80D
S31508008880A02000F0FBF805F0DBFC38B900F094F8FE
S3150800889000200AF04FFE0020BDE8F081301200F0FB
S315080088A0EDF805F0CDFC30B900F086F800200AF0A6
S315080088B041FE0020F0E7F0B200F0E0F805F0C0FC59
S315080088C030B900F079F800200AF034FE0020E3E71A
S315080088D000F05AF8A12000F0D1F805F0B1FC30B943
S315080088E000F06AF800200AF025FE0020D4E70024EC
S315080088F01AE000F025F805F8010B781EA0420FD102
S31508008900012220210D4800F090FD012240210B484C
S3150800891000F08BFD00224021084800F086FD01E0AA
S31508008920FFF790FF601C84B2BC42E2DB00F044F81B
S3150800893000200AF0FFFD0120AEE700000008014014
S3150800894070B50024FFF7D0FD002515E06006040E7B
S31508008950012240210B4800F068FD2021094800F05B
S315080089605BFD012801DB44F0010400224021054893
S3150800897000F05BFD681CC5B2082DE7DBFFF7C6FDF6
S31508008980204670BD0008014010B501224021094863
S3150800899000F04BFD01222021064800F046FD00228A
S315080089A02021044800F041FD00224021014800F042
S315080089B03CFD10BD0008014010B5002220210748E3
S315080089C000F033FD01224021044800F02EFD01226B
S315080089D02021024800F029FD10BD000000080140D2
S315080089E02DE9F04104460D46174601200AF0A2FD7E
S315080089F0FFF7CAFFA02000F041F805F021FC38B9BE
S31508008A00FFF7DAFF00200AF095FD0020BDE8F081A7
S31508008A10281200F033F805F013FC30B9FFF7CCFF45
S31508008A2000200AF087FD0020F0E7E8B200F026F8FB
S31508008A3005F006FC30B9FFF7BFFF00200AF07AFD03
S31508008A400020E3E700260FE014F8010B00F016F803
S31508008A5005F0F6FB30B9FFF7AFFF00200AF06AFD14
S31508008A600020D3E7701C86B2BE42EDDBFFF7A4FFF9
S31508008A7000200AF05FFD0120C8E7000070B5044633
S31508008A8000251CE004F080066006040E802E05D141
S31508008A90012220210B4800F0C8FC04E00022202116
S31508008AA0084800F0C2FC01224021064800F0BDFC3F
S31508008AB000224021034800F0B8FC681CC5B2082D06
S31508008AC0E0DB70BD000801400EB50020029057207B
S31508008AD0019000200090002302AA40F2F4714FF49E
S31508008AE0006002F007F9002301AA40F24A414FF458
S31508008AF0006002F0FFF800236A464FF47B614FF4EA
S31508008B00006002F0F7F8009888B100231A4640F68C
S31508008B10AE714FF4006008F0BBFB3D48007800F0EA
S31508008B20DF003B49087007200BF0F8F80EBDDDE9B9
S31508008B300110884216DB37480078401C3549087012
S31508008B40002035490870334800781E2826DB1E2089
S31508008B50304908700023012240F6AE71D00208F0B1
S31508008B6097FB1BE00298C01C0199884216DC2A482C
S31508008B700078401C284908700020264908702648B5
S31508008B8000781E280ADB1E202349087000231A468F
S31508008B9040F6AE714FF4006008F07AFB002302AA93
S31508008BA040F6AE714FF4006002F0A4F81B48007856
S31508008BB0A8B11B4801880088401C194A1080B1F5E5
S31508008BC0167F02DD00201549087006200BF0A6F86E
S31508008BD00F48007840F020000D49087015E002980B
S31508008BE0012809D106200BF099F80948007840F0C9
S31508008BF020000749087008E00548007800F0DF0003
S31508008C000349087007200BF089F800BF8EE70000BB
S31508008C102100002020050020210500207C040020DA
S31508008C207E04002070B504460D46262D70D2DFE876
S31508008C3005F06F132D474E55708AA4BEF4F2F1F075
S31508008C40EFEEEDECEBEAE9E8E7E6E5E4E3E2E1E09E
S31508008C50DFDEDDDCDBDAD9D80AF07AFC38B1E248A7
S31508008C60007820F00300801CDF4908700DE034B15D
S31508008C70DD48007864F30100DB49087005E0DA484E
S31508008C80007820F00300D8490870AAE10AF084FCAD
S31508008C9038B1D548007820F00C000830D249087061
S31508008CA00DE034B1D048007864F38300CE490870EB
S31508008CB005E0CD48007820F00C00CB49087090E11B
S31508008CC0C948007864F30510C749087089E1C648A1
S31508008CD0007864F38710C449087082E10AF030FC12
S31508008CE038B1C148407820F00300801CBE4948705E
S31508008CF00DE034B1BC48407864F30100BA494870C5
S31508008D0005E0B948407820F00300B749487068E1A3
S31508008D1066E10AF017FC38B1B348407820F00C0039
S31508008D200830B14948700DE034B1AF48407864F373
S31508008D308300AD49487005E0AB48407820F00C0048
S31508008D40A94948704DE10AF0FFFB38B1A6484078BA
S31508008D5020F030002030A44948700DE034B1A24814
S31508008D60407864F30510A049487005E09E484078AD
S31508008D7020F030009C49487033E10AF0E7FB38B12F
S31508008D809948407820F0C0008030974948700DE037
S31508008D9034B19548407864F387109349487005E0E4
S31508008DA09148407820F0C0008F49487019E10AF0D0
S31508008DB0F5FB38B18C48807820F00300801C8A497E
S31508008DC088700DE034B18848807864F301008649DC
S31508008DD0887005E08448807820F00300824988700E
S31508008DE0FFE0F6E0EEE0E6E0DEE0CAE0C2E0BAE088
S31508008DF0B2E0AAE0A2E09AE08AE082E07AE072E0D5
S31508008E006AE062E05AE052E050E048E046E03EE0C0
S31508008E1036E02EE026E01EE0FFE70AF00FFC0646E5
S31508008E200AF00EFC06433EB16F48807820F00C002D
S31508008E3008306D4988700DE034B16B48807864F36A
S31508008E4083006949887005E06748807820F00C003F
S31508008E5065498870C5E06448807864F305106249FE
S31508008E608870BEE06048807864F387105E49887031
S31508008E70B7E05D48C07864F301005B49C870B0E0AC
S31508008E805948C07864F383005749C870A9E0564822
S31508008E90007964F3000054490871A2E0A1E0524841
S31508008EA0007964F38200504908719AE000BF4E4881
S31508008EB0007964F304104C49087192E04A48007935
S31508008EC064F34510484908718BE04748007964F314
S31508008ED086104549087184E04348007964F3C71051
S31508008EE0414908717DE04048407964F300003E49F5
S31508008EF0487176E03C48407964F341003A49487144
S31508008F006FE03948407964F382003749487168E070
S31508008F1034B13548407964F3C3003349487105E0F4
S31508008F203148407920F008002F49487100BF2E4883
S31508008F30407920F010002C49487152E02A484079BF
S31508008F4064F34510284948714BE02748407964F393
S31508008F5086102549487144E02348407964F3C710D0
S31508008F60214948713DE02048807964F300001E4994
S31508008F70887136E01C48807964F341001A49887183
S31508008F802FE00AF00DFB00B93CB11748807920F0B4
S31508008F900400001D1449887105E01348807920F003
S31508008FA00400114988711CE00F48807920F00800F8
S31508008FB00D49887115E00C48807964F304100A4954
S31508008FC088710EE00848807964F38610064988712E
S31508008FD007E00548807964F3C7100349887100E003
S31508008FE000BF00BF70BD00006C04002010B5224809
S31508008FF000780A2804DB00201F49087000F046F8AC
S315080090001D484078322804DB09F094F800201A49F4
S3150800901048701948C0781E2802DB00201649C87017
S3150800902015488078642802DB0020134988701248A6
S315080090300079642804DB00200F4908710F4908707D
S315080090400D484079642804DB00200B4948710C4917
S31508009050087009488079642802DB0020064988716F
S315080090600548C079642806DB00200349C87105490C
S3150800907008700549087010BD6404002076050020B4
S3150800908058050020620500208305002008B5002346
S315080090906A4640F235414FF4006001F02BFE009815
S315080090A0000A174948710098C1B215488171002312
S315080090B06A4640F239414FF4006001F01BFE47F260
S315080090C030510098081A00900098010A0C48C1719E
S315080090D00098C1B20A480172FFF7A8F8012806D11C
S315080090E00848007818B900210548417202E00121B4
S315080090F003484172002102488172C172017308BD9A
S31508009100500A0020A803002010B50D48007850B179
S315080091100C48007838B90C48007820B90BF03CF9AF
S3150800912000200749087000F051F807480078012820
S3150800913004D10AF06DFB00200349087010BD000039
S31508009140290400201B0400202A04002010B56420EE
S31508009150194908600820087318480088052824DA81
S3150800916017480078012820D100240AE0134800880F
S3150800917004EBC0001349095C0F48001D0155601C2B
S31508009180C4B2082CF2DB0D480088401C0B49088045
S3150800919009480178021D0C480078FBF71DFF0621D7
S315080091A0AFF25700FEF7CEFF04E00020044908702E
S315080091B00249088010BD000000090020180400209C
S315080091C01B040020CE0800200C04002070B51548AA
S315080091D0008815490988884223D0144C114D2D88DA
S315080091E004EB0514237B114C0E4D2D8804EB051456
S315080091F0A2680E4C0B4D2D8804EB051421790B4CF7
S31508009200084D2D8804EB051420680BF021F9054854
S315080092100088401C142190FBF1F201FB1200014961
S31508009220088070BD36040020340400201009002090
S3150800923030B500228B071C0F0F2303FA04F20B4BE1
S315080092408C1053F824309343084C8D1044F825307D
S3150800925023468C1053F824308C07240F00FA04F4A4
S315080092602343024C8D1044F8253030BD08000140D8
S315080092702DE9F0410246002500260020002300249F
S31508009280002791F803C00CF00F0591F803C00CF005
S31508009290100CBCF1000F03D091F802C04CEA05058A
S315080092A091F800C0BCF1000F31D0146800202BE003
S315080092B04FF0010C0CFA00F3B1F800C00CEA0306F3
S315080092C09E4220D183004FF00F0C0CFA03F7BC43E3
S315080092D005FA03FC4CEA040491F803C0BCF1280F14
S315080092E006D14FF0010C0CFA00FCC2F814C00AE0D3
S315080092F091F803C0BCF1480F05D14FF0010C0CFAE8
S3150800930000FCC2F810C0401C0828D1D31460B1F87C
S3150800931000C0BCF1FF0F34DD546800202EE000F1D8
S31508009320080C4FF0010808FA0CF3B1F800C00CEA73
S3150800933003069E4221D183004FF00F0C0CFA03F767
S31508009340BC4305FA03FC4CEA040491F803C0BCF1DB
S31508009350280F05D100F1080C08FA0CF8C2F8148099
S3150800936091F803C0BCF1480F07D100F1080C4FF083
S31508009370010808FA0CF8C2F81080401C0828CED359
S315080093805460BDE8F0810000F0B50A4600230024C9
S315080093900021002500F00046B6F1004F02D11D4E0F
S315080093A0F16901E01B4E7168C0F3034583B200F40E
S315080093B04016B6F5401F08D121F07061154E766843
S315080093C026F07066134F7E6012E000F48016B6F53C
S315080093D0801F06D1032606FA05F4A14341F0706101
S315080093E006E0460D360103FA06F6B14341F0706110
S315080093F022B1460D360103FA06F6314300F000465F
S31508009400B6F1004F02D1034EF16101E0014E7160E1
S31508009410F0BD0000000001400246002093680B40A2
S315080094200BB1012000E0002070470AB1016100E09D
S31508009430416170471FB5002000900190029003908B
S315080094400F4800880F490988884218D00C480088B8
S3150800945000EB800202EBC0000B4A81180D22684619
S31508009460FAF760FE684601F03AFF05480088401C96
S31508009470142190FBF1F201FB1200014908801FBD7F
S315080094806A050020680500206A2700201FB500200D
S3150800949000900190029003901348008813490988A8
S315080094A0884220D012480078E8B90120104908708F
S315080094B00D48008800EB800202EBC0000D4A8118B7
S315080094C00D226846FAF72EFE68460BF0C3FA012805
S315080094D009D105480088401C1E2190FBF1F201FBCA
S315080094E01200014908801FBD66050020640500209A
S315080094F06C050020E425002038B5002400200090E3
S3150800950000236A4640F6A6714FF4006001F0F2FBAC
