S31508003000301E00208D310008D1850008398400085B
S3150800301000000000000000000000000000000000A2
S315080030200000000000000000000000002D8E0008CF
S31508003030000000000000000055860008CDA5000825
S315080030409F3100089F310008518C00089F31000805
S315080030509F310008C5590008C9590008155A0008C3
S31508003060000000009F3100089F3100089F310008CA
S315080030709F3100089F3100089F31000800000000BA
S315080030809F3100089F310008000000009F310008AA
S315080030909F3100089F3100089F3100089F310008C2
S315080030A09F3100089F3100089F31000801AB0008D6
S315080030B065AB0008000000000000000000000000EA
S315080030C09F310008000000009F31000800F002F858
S315080030D000F030F80CA030C8083824182D18671EE0
S315080030E0A246AB4654465D46AC4201D100F022F8F2
S315080030F07E460F3EB6460FCC0126334200D0FB1A59
S315080031003343A246AB46184750AF000070AF0000E5
S315080031100023002400250026103A01D378C1FBD8E5
S31508003120520700D330C100D50B6070471FB51FBDCD
S3150800313010B510BD00F0AAF81146FFF7F7FF08F022
S3150800314027FF00F0C2F803B4FFF7F2FF03BC00F054
S31508003150C9F8000070B505460C46164602E00FCCC5
S315080031600FC5103E102EFAD2082E02D303CC03C583
S31508003170083E042E07D301CC01C5361F03E021788B
S315080031802970641C6D1C761EF9D270BD07488047ED
S3150800319007480047FEE7FEE7FEE7FEE7FEE7FEE72D
S315080031A004480549054A064B7047000031A6000841
S315080031B0CD30000830160020301E0020301A0020BE
S315080031C0301A0020F8B5042A2CD3830712D00B78BE
S315080031D0491C0370401C521E83070BD00B78491CF0
S315080031E00370401C521E830704D00B78491C0370D9
S315080031F0401C521E8B079B0F05D0C91ADF002023DF
S31508003200DE1B08C90AE0FFF7A5FFF8BD1D4608C979
S31508003210FD401C46B4402C4310C0121F042AF5D2A8
S31508003220F308C91A521EF0D40B78491C0370401CC7
S31508003230521EEAD40B78491C0370401C012AE4D4B8
S3150800324009780170F8BD01E004C0091F0429FBD202
S315080032508B0701D50280801CC90700D00270704711
S3150800326000290BD0C30702D00270401C491E022950
S3150800327004D3830702D50280801C891EE3E7002257
S31508003280EEE70022DFE7704770477047754600F0A3
S3150800329025F8AE46050069465346C008C00085466F
S315080032A018B020B5FFF77CFF60BCB646002600279D
S315080032B0C0C5C0C5C0C5C0C5C0C5C0C5C0C5C0C5D8
S315080032C0403D490849008D46704710B50446C0463A
S315080032D0C0462046FFF737FF10BD0000004870477C
S315080032E07001002001491820ABBEFEE72600020047
S315080032F0704730B58C180278401C13071B0F01D194
S315080033000378401C120906D10278401C03E00578B0
S31508003310401C0D70491C5B1EF9D101E00B70491C5D
S31508003320521EFBD1A142E6D3002030BD10B504F0F1
S3150800333017FB05490C78FE2222400123234300B1DE
S315080033401A460A7010BDC046C10B0020F0B585B0FC
S3150800335000260496039640F60004274940F6000026
S315080033603246334606F006FF04AA40F6000040F24D
S31508003370E831334603F08AFEA0B20190584D344630
S3150800338033E040F2E8303818411D03AA00260198B8
S31508003390334603F07BFEF0B20399814223DD2C21EC
S315080033A079436918400008185521415C5422805C0D
S315080033B00002084380B204F091FE104989B288429F
S315080033C000D30E4880B26421B0FBF1F0E1B24900A7
S315080033D069180883761C641CE0B20228DBD3E878F7
S315080033E00028D8D006E0029E761C0296F7B204980A
S315080033F0B842C6DC05B0F0BDBB0F00007440000043
S31508003400F0B587B000260696059640F6000406AA8B
S3150800341040F6000040F2E831334603F037FEA0B22A
S315080034200090344655E0019640F2E8303818411CC1
S3150800343005AA00260098334603F028FE05210598BC
S315080034400490091AC8B20390204602973AE02C2243
S315080034507A43234B9A18039B59184900511841225D
S315080034608A5C4023C95C0B0213431E4A5A43110B5C
S315080034701D4C22401D4CA2421D4A00D80A4605464C
S31508003480C7B27C0016490919CA811A48834202D074
S31508003490194883420DD11948C15D491CC155C31944
S315080034A0C9B20A29029F28460AD30D4909198A80F2
S315080034B004E08A801148C319029F28460021197022
S315080034C0761C401CF1B2049A8A42C0DC0446019E6E
S315080034D0761CF7B20698B842A5DC07B0F0BDC04620
S315080034E0C00000207017000000F0FF0F00803801B0
S315080034F088130000FFFF0000FF0F0000D80400201B
S31508003500F0B5A7B001920E46049007A88021FFF7F0
S31508003510B8FE00F0AFF8362000F03CF905F09EFA48
S31508003520002800D1A0E0304600F034F905F096FAFC
S31508003530002800D198E000F09DF8372000F02AF91D
S3150800354005F08CFA002800D18EE000201FE00498D0
S3150800355044540027A54848F200013A46674EB0474A
S315080035601E252846A24CA0470122A04E304644F20A
S315080035700001624B98472846A047304644F20001AE
S315080035803A465E4B98472846A0470298401C029048
S3150800359080B2039000F0E2FA00210C4622E0059181
S315080035A00127924E304644F200013A4608F090FC54
S315080035B01E25284608F092F9304648F2000108F020
S315080035C08EFC04460022304644F2000108F080FCD6
S315080035D0284608F083F904B92746069C64003C434C
S315080035E00599491CC8B207280694D8D900F0CEFA1E
S315080035F0019D0399A942AAD30124E34848F2000190
S315080036002246E24B98471E273846F64EB047F348FF
S3150800361044F200012246F24B984738463C46B047EA
S315080036200027EE4844F200013A46ED4B98472046FB
S31508003630B04700F045F807A83721017005E004995E
S31508003640095C07AA101841707F1CB8B2A842F6D3C5
S31508003650681CC1B207A800F0F7FE0699C9B2091A94
S315080036600020401A484102E000F02AF8002027B05E
S31508003670F0BDC046F8B5EB480126EB4C44F2000114
S315080036803246A0471E25E94F2846B847E54848F27E
S3150800369000013246A0472846B8470026E14848F2C6
S315080036A000013246A0472846B847DE4844F20001E2
S315080036B03246A04728463946F8BC04BC9646084711
S315080036C0F8B5D8480022D84C48F20001A0471E2574
S315080036D0D64F2846B8470126D24844F2000132465A
S315080036E0A0472846B847CF4848F200013246A047C7
S315080036F028463946F8BC04BC96460847D1BE000899
S31508003700F0B5A1B014460F46054601AEB01C7E21A1
S31508003710FFF7B5FD777036203070002004E06A5C4C
S3150800372001AB59188A70401C81B2A142F7D3A01C7C
S31508003730C1B201A800F088FE0646FFF79BFF3620B7
S3150800374000F028F805F08AF9E8B1384600F022F8C2
S3150800375005F084F9B8B1002707E0287800F01AF8D0
S3150800376005F07CF978B17F1C6D1CB8B2A042F4D381
S31508003770304600F00FF805F071F9012400B9044647
S31508003780FFF79EFF02E0FFF79BFF0024204621B0CB
S31508003790F0BD0000F8B50026E04C22E0410000919B
S315080037A040B2002801DB002200E00122F64F38462D
S315080037B048F2000108F08CFB1E252846A047012286
S315080037C0384644F2000108F083FB2846A047002249
S315080037D0384644F2000108F07BFB2846A047761CD1
S315080037E00098F1B20729D9D9F8BDC04600040048A7
S315080037F0DDB80008F0B5A9B014460E46054609A876
S315080038008021FFF73EFD00F0C3F83620029000F055
S3150800381059F905F047F9002800D1B0E0304600F024
S3150800382051F905F03FF9002800D1A8E0204600F03C
S3150800383049F905F037F9002800D1A0E000F0A8F80A
S31508003840372000F03FF905F02DF9002800D196E061
S3150800385001960495039400201FE004984454002719
S31508003860EB4842F200013A466F4EB0471E252846FD
S31508003870AA4CA0470122E64E304641F200016A4BA7
S3150800388098472846A047304641F200013A46664B1B
S3150800389098472846A0470598401C059080B2069090
S315080038A000F08AF900210C4622E007910127D84E3C
S315080038B0304641F200013A4608F00AFB1E25284622
S315080038C008F00CF8304642F2000108F008FB0446FE
S315080038D00022304641F2000108F0FAFA284607F0BD
S315080038E0FDFF04B92746089C64003C430799491C18
S315080038F0C8B207280894D8D900F074F9039D069928
S31508003900A942AAD30124C24842F200012246464BE4
S3150800391098471E273846814EB047BD4841F20001F8
S315080039202246414B984738463C46B0470027B84898
S3150800393041F200013A463C4B98472046B04700F012
S3150800394053F809A8019941700299017085703721C9
S31508003950C170049B04E0195C09AA101801717F1C48
S31508003960B8B2A842F7D3281DC1B209A800F06CFD69
S315080039700899C9B2091A0020401A484102E000F025
S3150800398033F8002029B0F0BD00040048D1BE000875
S31508003990F8B59F480126244C41F200013246A0475B
S315080039A01E255E4F2846B847994842F2000132461E
S315080039B0A0472846B8470026954842F200013246F5
S315080039C0A0472846B847924841F200013246A04728
S315080039D028463946F8BC04BC964608470004004801
S315080039E0D1BE0008DDB80008F8B5894800220E4C9B
S315080039F042F20001A0471E25484F2846B84701262F
S31508003A00834841F200013246A0472846B847804815
S31508003A1042F200013246A04728463946F8BC04BCA3
S31508003A209646084700040048D1BE0008DDB80008DD
S31508003A30F0B5A1B014460F46054601AEB01C7E216E
S31508003A40FFF71DFC777036203070002004E06A5CB2
S31508003A5001AB59188A70401C81B2A142F7D3A01C49
S31508003A60C1B201A800F0F0FC0646FFF791FF362028
S31508003A7000F028F805F016F8E8B1384600F022F804
S31508003A8005F010F8B8B1002707E0287800F01AF812
S31508003A9005F008F878B17F1C6D1CB8B2A042F4D3C3
S31508003AA0304600F00FF804F0FDFF012400B9044683
S31508003AB0FFF79AFF02E0FFF797FF0024204621B0A0
S31508003AC0F0BD0000F8B50026144C22E04100009134
S31508003AD040B2002801DB002200E001224C4F3846A4
S31508003AE042F2000108F0F4F91E252846A0470122F3
S31508003AF0384641F2000108F0EBF92846A0470022B3
S31508003B00384641F2000108F0E3F92846A047761C3A
S31508003B100098F1B20729D9D9F8BDC046DDB8000822
S31508003B20012805D048B9084611461A46FFF7E8BCE9
S31508003B30084611461A46FFF75DBE00207047012861
S31508003B4005D048B9084611461A46FFF7D9BD0846B2
S31508003B5011461A46FFF76CBF00207047B0B52C4CCB
S31508003B600025204629462A4648F2000308F0BDF9F2
S31508003B7003222046294648F20003039CA646B0BC09
S31508003B8001B008F0D0B9C04600040048B0B5204CD2
S31508003B900121002520462A4648F2000308F0A5F927
S31508003BA003222046294648F20003039CA646B0BCD9
S31508003BB001B008F0B8B9C046B0B5154C0025204686
S31508003BC029462A4642F2000308F08FF903222046C6
S31508003BD0294642F20003039CA646B0BC01B008F091
S31508003BE0A2B9C046B0B50A4C0121002520462A468E
S31508003BF042F2000308F079F903222046294642F2E8
S31508003C000003039CA646B0BC01B008F08CB9C046B8
S31508003C1000040048B0B50146784CE089421C0523EB
S31508003C20B2FBF3F55D43551B228A954206D00D2259
S31508003C305043034B1818FFF7C5FAE581B0BDC046D7
S31508003C4040040020B0B50146F64C6389581C14227E
S31508003C50B0FBF2F55543451BA289002095420BD0CF
S31508003C60C87808B90820C8700D2253430348C018FD
S31508003C70FFF7A8FA65810120B0BDC046DA0B00201F
S31508003C8070B586B014460D46064602A8002303738F
S31508003C9004930393029301200190264901AA40F652
S31508003CA0000003F0F3F9012E22D0002E40D102AE17
S31508003CB00820F070B57040F2A51030802078307179
S31508003CC060787071A078B071E078F0712079307200
S31508003CD060797072A079B072E079F072337B02AACB
S31508003CE007CA04F079FF3073304600F06BF81FE01E
S31508003CF002AE0820F070B57040F2A510308020782A
S31508003D00307160787071A078B071E078F0712079C0
S31508003D10307260797072A079B072E079F072337B94
S31508003D2002AA07CA04F058FF30733046FFF78AFF25
S31508003D3006B070BD2A040000B0B50146144C2089AF
S31508003D40012585436289954209D040F206125043FF
S31508003D50034A101840F20612FFF734FA2581B0BD5F
S31508003D60DE0C0020B0B50146094CA2880125954312
S31508003D70E38800209D420AD040F2061042430548D7
S31508003D80801840F20612FFF71DFAA5800120B0BD83
S31508003D9040000020EA0E0020B0B50146B64CE08887
S31508003DA0421C0523B2FBF3F55D43551B2289954258
S31508003DB006D00D22504320181230FFF703FAE5808B
S31508003DC0B0BDC046B0B50146AB4C6388581C14223A
S31508003DD0B0FBF2F55543451BA288002095420BD04F
S31508003DE0C87808B90820C8700D2253430448C0187B
S31508003DF0FFF7E8F965800120B0BDC0464002002003
S31508003E00F6100020FEB5002702970197364C40F6BB
S31508003E100000364E85B2009750E0B8B2801E0328DF
S31508003E2021D8810001A251188F46C04600F006B875
S31508003E3000F00FB800F002B800F00BB802AA002391
S31508003E402846314603F022F968B1029802282DD097
S31508003E5009E002AA00232846314603F017F910B1F3
S31508003E600298012822D0A18801AA0023284603F037
S31508003E700DF908B30198552802D1218802260BE0CE
S31508003E80618801AA0023284603F000F9A0B1019829
S31508003E9055280BD12188012600232846324606F0EC
S31508003EA069F9009830430090104E05E021880022F9
S31508003EB02846134606F05EF9A41D7F1C0C2FACD1CC
S31508003EC000990936880706D4C80706D1002228466D
S31508003ED03146134605E0022200E001220023284667
S31508003EE0314606F047F9FEBD10D10008D307000099
S31508003EF0F0B553B3059C2688751C9E4200D31D4613
S31508003F00258005E05B00D6180127FF43F65BD652ED
S31508003F106D1EABB2002BF5D11080258800242046F3
S31508003F20234604E016889B19921CE41C401C854213
S31508003F30F8D11A18B3FBF0F545435D1BA408A54252
S31508003F4000D81A46B2FBF0F00880F0BDBCB5401E9A
S31508003F50032830D8840001A52C19A74600F006B816
S31508003F6000F00EB800F016B800F01AB85000134C5E
S31508003F7020186C4620609000124A1258032415E057
S31508003F8050000E4C20180A306C46206090000C4AEF
S31508003F9012580AE0084A684602600832052405E015
S31508003FA00548821C6C462260021D022408461946F2
S31508003FB02346FFF79DFFBCBD100200202004002009
S31508003FC058D1000870D1000880B508F0DBFF03F06F
S31508003FD093FC18B102480178491C017080BDC0469F
S31508003FE0D80B0020BFB568460021017302910191E4
S31508003FF00091214D288AE989884212D00D22504322
S31508004000094909186C462046FFF7DCF8204600F0F7
S315080040100FFA288A401C0521B0FBF1F24A43801AA0
S315080040202882BFBD4002002040040020BFB5684674
S31508004030002101730291019100910F4DA8896989A8
S31508004040884218D06978B1B9012169700D225043A8
S315080040500A4909186C462046FFF7B4F8204607F0C7
S3150800406009FB012807D1A889401C1421B0FBF1F2ED
S315080040704A43801AA881BFBD40020020DA0B0020FF
S31508004080FEB50024029402AD40F6000040F2E83185
S315080040902A46234602F0FAFFE04EAA2030702F780F
S315080040A001940BE0810071180D69A9B203F0C8F8F4
S315080040B01DB15520307001200190641CE0B2874282
S315080040C0F0D83521012340F20040019A06F052F853
S315080040D0FEBDC046F0B5A1B0002010900F90F24B7F
S315080040E09989491C99810E90984A0A40D1084B290A
S315080040F004D397499870481C988103E0987801285A
S3150800410000D120E19879012800D11CE1914D29467A
S315080041100C310FAF0024904E40F600003A46234675
S31508004120B04729460D3140F600000B913A46234622
S31508004130B0470F980D9029460E3140F600003A46D2
S315080041402346B0470F980C9040F2E831283140F6E4
S3150800415000003A462346B04710AA40F60000294612
S315080041602346B047D04B02201099012902D0997AEC
S3150800417001290AD1012002210C9A5F2A00DB084690
S31508004180764A0D9D954200DC0846587000F06CF999
S31508004190C5484078012800D0BCE01CA814210D9120
S315080041A0FFF76FF800241B9440F6000085B21BAF9A
S315080041B0284640F2E8313A462346B0473878029016
S315080041C040F2E831123128463A462346B0471B9852
S315080041D0079040F2E831133128463A462346B0475D
S315080041E01B980590009528460B993A462346B047F2
S315080041F03888049011AE304605F02EF816A83146D8
S315080042000D9AFEF7DFFF0A9403947BE0500016A987
S31508004210085A0799814270D840F2E8301018411CB4
S315080042201BAD0023009806922A4602F02FFF287835
S315080042300A90411E04296AD801940398C7B2002639
S3150800424009910CE07C0005F00FF800196900405A46
S31508004250A9001CAA5052501809998670761CF5B206
S315080042600A98A842EED8002223E00892091A0022EA
S315080042700B9118E0A5001CAF7B5B7E19601C8400BF
S31508004280385B3F1983420DD91CA94D190C96AE7897
S315080042900D960C9E308008198178A9700B993B8081
S315080042A00D9B8370521CD4B2A142E3DC089A521CBF
S315080042B00999D0B28142D8DC0A98441E18E08000D9
S315080042C01CA90B5A049A9D1A5526F243059FBD420E
S315080042D0154600D33546079E9E4200D82A46D3B2D5
S315080042E00818827870481030069902F0E5FF641CB9
S315080042F0E0B20A998142E2D8019C03980A99081803
S315080043000390641CE2B20298904200D97EE7FFF758
S31508004310B7FE18E040F6000080B20EAA40F2E83177
S31508004320234602F0B3FE03E0002102F089FF641C75
S31508004330E0B20E998142F7DC35210022012340F2D2
S31508004340004005F017FF21B0F0BDC046F8FF000099
S3150800435057020000D30700008D7000083F060000D2
S31508004360F0B585B004460025049504AE40F6000075
S3150800437040F2E83132462B4602F088FEE84304B99B
S3150800438020463678484F03E08900791808616D1C85
S31508004390E9B28E42F8D80020C04304B92046142159
S315080043A001E07854491C1C29FBD1BC7044B3002198
S315080043B040F6000080B20190039100961CE040F29E
S315080043C0E83028180291411C04AA0023019802F03B
S315080043D05DFEF878039C001B80B2401E01218140D7
S315080043E089B23E46049F284602F02AFF02993C19E4
S315080043F003943746009E491CCDB2AE42DFD808E08A
S31508004400002403E0002102F01BFF641CE0B2864290
S31508004410F8D80020B88105B0F0BDC04600000020DD
S3150800442002480178491C01707047C04648150020AB
S315080044304178402901D0802904D18178021D0120C4
S3150800444004F0C8B87047000010B50023054A05E017
S31508004450DBB204785C40135D491E401C0C06F7D19C
S31508004460D8B210BD84D10008BCB50024019401ADB2
S3150800447040F6000040F2E8312A46234602F006FEDE
S315080044802978094804E09200821800231361641C05
S31508004490E2B29142F7D8142102E000224254491CA4
S315080044A01C29FAD1BCBDC0460000002000F09CB90A
S315080044B0FEB500230293019340F600042E4901AA93
S315080044C040F6000002F0E2FD019800B1FEBDA4B27C
S315080044D08E4902AA0023204602F0D8FD274D2878E7
S315080044E0401C2870C0B21E2803D80298401C0290AF
S315080044F004E0642801D30020287002986978491CD2
S315080045000A22B1FBF2F35343C91A69701C4EB04232
S3150800451024DA371A1B488742D8DC686840F2E0324A
S3150800452060B9E868686040F2E03111312A4608321D
S315080045300023204602F0AAFD40F2E032A868E968A6
S31508004540424340F2E83092FBF0F0814202DA2869F1
S31508004550C01928616869C01968610298B042B5DD5A
S3150800456043494118084A9042B0DC2869401A286134
S31508004570A8694018A861FEBDBF0F0000000300200F
S3150800458030750000A08C0000D0010100F8B50D467A
S3150800459000240094032835D0022816D001285ED1BD
S315080045A0304D00246C80314E3268314810181E3068
S315080045B03C2854D82F49002340F6000005F0DAFDC0
S315080045C001242C703068688049E0264E307801282E
S315080045D045D128461E38254909682A461E32914281
S315080045E03DDC81423BDB224828181F4B5A1C521BD4
S315080045F09D4200DC10460225725F09B28A421DDA26
S31508004600891A1DE0174F3878022828D13F496A468B
S31508004610002440F60000234602F038FD009928469B
S3150800462007F06AF906461048411C284607F064F95F
S31508004630C008864213D2002038700FE00FDD511AE9
S3150800464064224243B2FBF1F20A48411C002440F6B8
S315080046500000234605F08EFD08B13570012420467A
S3150800466001B0F0BD240200202F750000B80B002011
S31508004670D08AFFFF070400007CB5234E35460A356D
S315080046800195224901AA002440F60000234602F0BB
S31508004690FDFC0198B0420DDA1D480189491C0181CB
S315080046A089B20B2903D31B4901220A7082710021A2
S315080046B041810EE016494A89521C4A8192B2332A30
S315080046C001D300228A710C81A84202DD114800211B
S315080046D0017002F005F8012802D10D48807910B959
S315080046E001F014FD40B140F2E83005F0C9FD084874
S315080046F00021817181607CBD01F024FD10B100208C
S3150800470005F0BEFD7CBDC04626750000D207000038
S31508004710280200200A00002080B500F07FFF80BC38
S3150800472001BC864600F04ABFBCB5002401940E4978
S31508004730224695B20B2D14D806236B43CD5A521C2C
S315080047408542F6D1C818818801AA002440F60000DF
S31508004750234602F09BFC20B10198553800210C1A1B
S315080047604441204602B0B0BD10D1000880B500F023
S31508004770DBFF012801D1022000E0032007F010FC2E
S3150800478007F0BCFE08B1022000E0032080BC02BC92
S315080047908E4607F033B80000F8B500908E4C104AE4
S315080047A0104B15E0009909784C40002109E066088D
S315080047B0164037465F4001252C4200D03E46491C2C
S315080047C03446CEB2072EF2D90099491C009101460B
S315080047D0481EFF263142E5D1A0B201B0F0BDC04661
S315080047E0FF7F000001A0FFFF10B50124204600F05E
S315080047F039F9204600F080F8204600F00BF800F062
S31508004800EFF800F087F9204610BC02BC8E4600F08F
S3150800481045B90000F0B587B00190002406946E48AB
S31508004820059001270394029430E040F2004086B2D6
S315080048302D2106AA30462B4602F028FC2E2105AA71
S3150800484030462B4602F022FC012305980699012DD5
S3150800485001D11A4616E002465F4B1A40049DABB2D8
S315080048609A4200D328469A423A4600D3039A0B4600
S31508004870594D2B40A5B2AB4200D82146AB423B4628
S3150800488000D8029B7F1C029303920C460490FDB24B
S3150800489001988542C9D9A2B2164D00274F4C40F659
S315080048A0000029463B46A04740F2004086B20298DF
S315080048B0C3B2312106AA304602F0E8FB069AA91DC2
S315080048C040F600003B46A047691C049882B240F6B1
S315080048D000003B46A0470398C3B2322105AA3046DA
S315080048E002F0D4FB059AE91D40F600003B46A047B6
S315080048F007B0F0BDE1070000F0B587B001900024CD
S3150800490006943548059001270394029430E040F256
S31508004910004086B2292106AA30462B4602F0B6FB8D
S315080049202A2105AA30462B4602F0B0FB012305983A
S315080049300699012D01D11A4616E00246264B1A4061
S31508004940049DABB29A4200D328469A423A4600D30F
S31508004950039A0B46204D2B40A5B2AB4200D8214600
S31508004960AB423B4600D8029B7F1C029303920C463F
S315080049700490FDB201988542C9D9A2B2374D0027E5
S31508004980164C40F6000029463B46A04740F2004038
S3150800499086B20298C3B22F2106AA304602F076FBE9
S315080049A0069AA91D40F600003B46A047691C0498D4
S315080049B082B240F600003B46A0470398C3B23021B6
S315080049C005AA304602F062FB059AE91D40F600008A
S315080049D03B46A04707B0F0BDFFFF000075A10008E1
S315080049E07FB5002403940294019400941B4D03AAF6
S315080049F01B4E40F6000029462346B047691C02AA0A
S31508004A0040F600002346B047029A039B981AD11A2B
S31508004A10934200DC084682B2291D40F60000234670
S31508004A2005F0A8FBA91C01AA40F600002346B047DA
S31508004A30E91C6A4640F600002346B047009A019BE7
S31508004A40981AD11A934200DC084682B2691D40F6CC
S31508004A500000234605F08EFB7FBDC046DF07000039
S31508004A608D7000087CB505460026019634460AE096
S31508004A70761CF3B2262101AA40F2004002F006FB9A
S31508004A800198001984B2F0B2A842F1D33249002342
S31508004A9040F60000224605F06DFB7CBDF0B585B0FA
S31508004AA0019000240494012140F6000080B2009091
S31508004AB025461DE0029140F2EC300392111804AE2F
S31508004AC00027009832463B4602F0E0FA36780AE0BC
S31508004AD0203104AA40F20040039B02F0D7FA04985A
S31508004AE045197F1C641CF9B28E42F1D80299491CFB
S31508004AF0CAB201988242DDD9012C06DB95FBF4F295
S31508004B0003490023009805F035FB05B0F0BDC04603
S31508004B10DE070000BCB50024019400940E4D01AADE
S31508004B2040F600002946234602F0B0FA691D6A4697
S31508004B3040F60000234602F0A9FA64200199414391
S31508004B40009891FBF0F20C3540F600002946234602
S31508004B5005F010FBBCBDC046D1070000F0B58DB00E
S31508004B601D4C204640F25011FEF78BFB1B48411D99
S31508004B7040F600070BAA002540F6000004912B46D4
S31508004B8002F084FA0CA92020087040F200418EB287
S31508004B900DE00AAA01233046294602F077FA0A9858
S31508004BA06070000A2070A41C6D1C0CA80078C0B2A6
S31508004BB08542EED3B8B20949891D0BAA002507908C
S31508004BC001912B4602F062FA0CA908200870024FE0
S31508004BD04137EC4313E0C046E8040020D107000043
S31508004BE0294620310AAA0123304602F04FFA0A98CC
S31508004BF0010A395538706D1CBF1C0CA80078C0B264
S31508004C008542EDD300940AAA08920027079C2046FD
S31508004C1068493B46684DA84751200A99674A115486
S31508004C20080A502150546348411C20460291089DA9
S31508004C302A463B46604CA04761480A99401A5321C8
S31508004C405E4B5854010A522299540A905948014613
S31508004C501831059107982A463B46574CA0475520D8
S31508004C600A99564A1154080A5421505451490E318A
S31508004C70079D2846089A3B464F4CA04757200A9955
S31508004C804E4A1154080A562150544A4801460F31D3
S31508004C902846089C22463B46474DA84759200A996C
S31508004CA0464A1154080A58215054424801461031C0
S31508004CB0079822463B46404DA8475B200A993F4A3B
S31508004CC01154080A5A2150543A491131079D284669
S31508004CD022463B46384CA0475D200A99374A11546C
S31508004CE0080A5C21505414463248811C2846089A02
S31508004CF03B46314DA8475F200A992154080A5E2190
S31508004D00605430490831079C20460391089A3B466F
S31508004D10294DA84709AA2546204605993B46264C0B
S31508004D20A047642106910A9890FBF1F0099941433E
S31508004D3040F2E83091FBF0F06121204B5854010A0B
S31508004D40602299540A9028460499089A3B461A4CB8
S31508004D50A04763200A99194A1154080A6221505437
S31508004D6028460199089A3B46A04765200A99134A9E
S31508004D701154080A06995054124910312846154606
S31508004D80089A3B46A04767200A992954080A6621CB
S31508004D9068540A970C4A107851780143907808436A
S31508004DA0D1780143107908435179014300293846DF
S31508004DB00ED00BE0D10700008D700008E804002033
S31508004DC060EA0000E90300001400002001200A90B0
S31508004DD06921685468202F543248014608310AACC4
S31508004DE0079822463B46304DA8476B200A992F4A1A
S31508004DF01154080A6A2150542A48C11D07982246A8
S31508004E003B46A8476D200A99284A1154080A6C217E
S31508004E105054272101253046224608942B46224E17
S31508004E20B0476F200A99214A1154080A6E21505436
S31508004E301C4801461231079E304622463B461A4C0C
S31508004E40A04771200A99194A1154080A702150542A
S31508004E5030461449089A3B46134CA0470BAA3046DD
S31508004E6002993B46A0471248417874220F4B995441
S31508004E70017875229954C1787622995481787722D7
S31508004E809954417978229954017979229954094992
S31508004E900B9B5918084E721C0292D21AB3420EDCAA
S31508004EA00CE0C046D10700008D700008E804002019
S31508004EB0C80B0020D08AFFFF2F75000011460B9102
S31508004EC00A9A4A43069992FBF1F17322144EB15499
S31508004ED0090A7222B154C1797A22B15480797B21A8
S31508004EE070540A977E2037520E492631079C204671
S31508004EF0089A3B460C4EB04780200C49084A115286
S31508004F0002980A900CAE2046094932463B46064CA2
S31508004F10A0470A97074800783178009C0CE0C046FD
S31508004F20E8040020D10700008D70000875300000E5
S31508004F30E903000014000020FAB28A4206D22B4682
S31508004F4093407F1C0342F7D0501C0A90822000270A
S31508004F50FC490F520A970BAA079D284604993B4617
S31508004F60F94EB0470CA8102101700AAA08922846E3
S31508004F7003993B46B0470A98069990FBF1F0AF2192
S31508004F80F04B5854010AAE2299540A90EF4801464C
S31508004F900B312846089D2A463B46EB4EB047B120C2
S31508004FA00A99E84A1154080AB0215054E748411EA4
S31508004FB007982A462E463B46E34DA847B3200A994A
S31508004FC0E04A1154080AB2215054079D2846DF4981
S31508004FD032463B46DC4EB047B5200A99D94A1154A9
S31508004FE0080AB4215054D948411C2846089D2A4627
S31508004FF03B46D54EB047B7200A99D24A1154080AFB
S31508005000B6215054D148811C07982A462E463B465D
S31508005010CD4DA847B9200A99CA4A1154080AB82199
S315080050205054CA48011D079D284632463B46C64E7F
S31508005030B047BB200A99C34A1154080ABA215054EA
S31508005040C248411D2846089E32463B46BE4DA847E3
S31508005050BD200A99BB4A1154080ABC215054BB48C2
S31508005060811D0798324635463B46B74EB047BF20A6
S315080050700A99B44A1154080ABE215054B3490A3150
S31508005080079E30462A463B46AF4DA847C1200A9997
S31508005090AC4A1154080AC0215054AC491431304660
S315080050A0089A3B46A84DA847C3200A99A54A115411
S315080050B0080AC2215054A548014627313046089AA5
S315080050C03B46A14DA847C5200A999E4A1154080A8D
S315080050D0C42150549D4935313046089A3B469A4D6D
S315080050E0A847C7200A99974A1154080AC621505456
S315080050F09648014628313046089A3B46924DA847BD
S31508005100C9200A998F4A1154080AC82150548F4950
S3150800511036313046089A3B468B4DA847CB200A992C
S31508005120884A1154080ACA21505488480146213130
S315080051303046089A3B46844DA847CD200A99814AAD
S315080051401154080ACC21505480492F313046089A08
S315080051503B467D4DA847CF200A997A4A1154080A3A
S31508005160CE2150547948014622313046089A3B46AA
S31508005170754DA847D1200A99724A1154080AD021B8
S315080051805054724930313046089A3B466E4DA8470E
S31508005190D3200A996B4A1154080AD22150546B48F5
S315080051A0014625313046089A3B46674DA847D52023
S315080051B00A99FC4A1154080AD4215054FC4933313F
S315080051C03046089A3B46F94DA847D7200A99F54A2A
S315080051D01154080AD6215054F5480146263130465E
S315080051E0089A3B46F14DA847D9200A99ED4A115429
S315080051F0080AD8215054EE4934313046089A3B46BD
S31508005200EA4DA847DB200A99E64A1154080ADA212A
S315080052105054E74801462C313046089A3B46E34D40
S31508005220A847DD200A99DF4A1154080ADC215054A0
S31508005230DF493A313046089A3B46DC4DA847DF201D
S315080052400A99D84A1154080ADE215054D84801460A
S315080052502D313046089A3B46D44DA847E1200A9995
S31508005260D04A1154080AE0215054D1493B313046FE
S31508005270089A3B46CD4DA847E3200A99C94A1154D6
S31508005280080AE2215054CA4801462A313046089A8B
S315080052903B46C64DA847E5200A99C24A1154080A52
S315080052A0E4215054C24938313046089A3B46BF4D2E
S315080052B0A847E7200A99BB4A1154080AE621505420
S315080052C0BB4801462B313046089A3B46B74DA8479E
S315080052D0E9200A99B34A1154080AE8215054B449F6
S315080052E039313046089A3B46B04DA847EB200A9913
S315080052F0AC4A1154080AEA215054AD4801462931EE
S315080053003046089A3B46A94DA847ED200A99A54A72
S315080053101154080AEC215054A54937313046089AE9
S315080053203B46A24DA847EF200A999E4A1154080AFF
S31508005330EE2150549E4801462E313046089A3B4687
S3150800534006E0C046E80400208D700008E903000066
S31508005350964DA847F1200A99924A1154080AF02155
S31508005360505493493C313046089A3B468F4DA847DE
S31508005370F3200A998B4A1154080AF22150548C4892
S31508005380014611313046089A3B46884DA847F52014
S315080053900A99844A1154080AF4215054844912314E
S315080053A03046089D2A463B46804EB047F7200A9964
S315080053B07C4A1154080AF62150547B4E3146243152
S315080053C007982A463B46794DA847F820754A175448
S315080053D00A985538411E8841F92150540A902536B5
S315080053E007983146089E32463B46704DA847FA2034
S315080053F06C4A17540A985538411E8841FB21505467
S315080054000A90079D2846059932463B46674EB0479F
S31508005410FD200A99634A1154080AFC21505464492C
S31508005420423128461546089A3B46B047FF200A9956
S315080054302954080AFE2168545E480D3040F20011CE
S3150800544005E07A1C0F430378EB55001917460E2F13
S31508005450F7D140F2101028180E21574A079F04E08A
S3150800546053181B5D0370401C491E0029F8D140F2F1
S3150800547020102C180025082612E04D482918153149
S315080054800AAA0023384601F001FE0A98E070010CCA
S315080054906170010E2170000AA070241D761E6D1C15
S315080054A0002EEAD1424D294643310AAE002308931D
S315080054B0384632463D4CA04740F241100A99394CCD
S315080054C02154080A40F240116054294644313846AE
S315080054D006963246089B354CA04740F243100A9977
S315080054E0304A1154080A40F24211505429464531AF
S315080054F038463246089E33462C4CA04740F24510A3
S315080055000A99284A1154080A40F244115054294667
S315080055101D313846069A3346A04740F249100A9983
S31508005520204C2154080E40F24612A054080C40F2B2
S315080055304712A054080A40F24811605438462946D2
S31508005540069E3246089C2346184DA84740F24B1043
S315080055500A99144A1154080A40F24A115054144D33
S3150800556029464931384632462346104EB04740F25E
S315080055704D100A990B4E3154080A40F24C117054DA
S3150800558029464A313846069A2346084CA04740F22F
S315080055904F100A993154080A40F24E1170540DB052
S315080055A0F0BDC046E8040020D10700008D70000851
S315080055B0E90300004701002039010020B0B502F0D8
S315080055C0ABF92D4D90B10024EC702879401C287158
S315080055D0C0B2042809D3032028710F4940F60000F9
S315080055E02246234604F0C6FD6C71B0BDE878401C1F
S315080055F0E870C0B204280CD30320E870687940B973
S3150800560005490124002340F60000224604F0B2FDB5
S315080056106C7100202871B0BDED070000B0B502F02E
S3150800562076F9154D90B100242C706878401C687086
S31508005630C0B2042809D303206870104940F6000058
S315080056402246234604F096FDAC70B0BD2878401C6F
S315080056502870C0B204280CD303202870A87840B953
S3150800566006490124002340F60000224604F082FD84
S31508005670AC7000206870B0BD28020020EC0700005E
S3150800568070B50C460546074E3046243001F09EFD9F
S31508005690042805D88100711800228A664D654C6277
S315080056A070BDC046A00300200148642103F080BFF6
S315080056B01D8D000880B5064840F2F41103F078FF06
S315080056C00448642180BC04BC964603F071BFC046FA
S315080056D0C5920008053E000810B508486421084C24
S315080056E0A047084840F2E831A047074840F2E831A9
S315080056F0224610BC08BC9E461047C046B144000866
S31508005700B195000861A90008C5A2000880B509205E
S31508005710C0062021012206F0DBFB024800210170A9
S3150800572080BDC04640020020FEB500230293284EE5
S3150800573031461A3140F6000402AA40F6000001F08C
S31508005740A5FC029810B9234800210170A4B202AA48
S315080057500025204631462B4601F098FC01271E48B5
S315080057600299814201DD3D462FE01A48007860BB68
S31508005770233602AA0025204631462B4601F086FC30
S315080057800298552821D01548007801281DD005F023
S315080057903DFFD0B90197002611A70BE0396802AA88
S315080057A0002520462B4601F071FC0298552805D0A5
S315080057B03F1D761C042EF1D9019D06E0F0B204289F
S315080057C0044902D1012008700025284603B0F0BD1F
S315080057D0D20700002A16002030750000D90B0020D9
S315080057E0C40B0000CA0B0000D30B0000D10B00004D
S315080057F0C80B0000FEB500230293244E31461B3128
S3150800580040F6000402AA40F6000001F03FFC0298A8
S3150800581010B91F4800210170A5B202AA0024284623
S315080058203146234601F032FC01261A480299814284
S3150800583001DA344627E01648007820BB01F06AFCF6
S3150800584008BB1548007801281DD005F0DFFED0B941
S315080058500196002711A60BE0316802AA0024284603
S31508005860234601F013FC0298552805D0361D7F1CE7
S31508005870042FF1D9019C06E0F8B20428044902D1A4
S31508005880012008700024204603B0F0BDD2070000AE
S315080058902B16002030750000D90B0020C50B000020
S315080058A0CB0B0000CD0B0000CE0B0000C90B00008F
S315080058B0BCB50023019340F600051E4C01AA40F62C
S315080058C00000214601F0E2FB0198012804D102F00C
S315080058D059FC012818D00198552815D0A5281DD09F
S315080058E0A8B22C3C01AA0023214601F0CFFB12489E
S315080058F00199814202D111480121017001F06AFF24
S31508005900434801218170BCBDA8B200222146134636
S3150800591004F030FC03F092F902F0F2FCA8B200227F
S315080059202146134604F026FC39480121017002F08D
S31508005930E7FCC04629040000FFFF0000B40B002066
S3150800594080B5FFF757FF012801D1002000E00120AC
S3150800595006F026FB06F0F0FD08B1002000E0012065
S3150800596080BC02BC8E4605F049BF0000B0B5CF4CDE
S315080059700025204629462A4640F6000306F0B5FAD1
S3150800598003222046294640F60003039CA646B0BCDF
S3150800599001B006F0C8BAC046B0B5C44C012100250E
S315080059A020462A4640F6000306F09FFA03222046C0
S315080059B0294640F60003039CA646B0BC01B006F093
S315080059C0B2BAC04602F07ABBB0B5042006F016FAA1
S315080059D00F4DA87850B12879072806D8FFF70AFF8F
S315080059E0012802D101F098FF28B1B0BDB0BC01BCB6
S315080059F0864602F063BB0124204602F033FB2046AC
S31508005A0002F056FB042005F0F9FE0520E870B0BD4B
S31508005A102001002002F052BBF0B587B002920C4676
S31508005A2005460120059080F3108800F09DF8A02710
S31508005A30384600F019F903F059F800287AD0200AF8
S31508005A4000F012F903F052F8002879D0E0B200F01D
S31508005A500BF903F04BF8002878D000F085F8781C8D
S31508005A60C0B200F001F903F041F8002874D002989A
S31508005A70401E0190002653E003960495FFF776FF33
S31508005A8000210D461AE00691884E304640F2004144
S31508005A90059F3A4606F01CFA304640F6000106F025
S31508005AA01EFA04460022304640F2004106F010FA7B
S31508005AB004B927466D003D430699491CC8B2072814
S31508005AC0E1D9FFF769FF049805700546451C01985A
S31508005AD0039EB04211D10124744F384640F60001A6
S31508005AE022463C4FB847714840F200412246B84723
S31508005AF000226E4840F2004110E000246B4F384601
S31508005B0040F600012246334FB8470122674840F263
S31508005B100041B847654840F200412246B847761C1E
S31508005B2002988642A8D100F03DF8002080F310883C
S31508005B30012016E000F036F8002080F3108810E007
S31508005B4000F030F8002080F310880AE000F02AF808
S31508005B50002080F3108804E000F024F8002080F389
S31508005B60108807B0F0BDC04670B5504C0125194ED7
S31508005B70204640F200412A46B047204640F600013A
S31508005B802A46B0470025204640F600012A46B04777
S31508005B90204640F200412A463346039CA64670BC7E
S31508005BA001B0184770B5414C00220A4E204640F60F
S31508005BB00001B0470125204640F200412A46B04779
S31508005BC0204640F600012A463346039CA64670BC8A
S31508005BD001B01847D1BE000870B514460E460546F2
S31508005BE0012080F31088FFF7BFFFA02000F03CF8E3
S31508005BF002F07CFFF8B1300A00F036F802F076FFC2
S31508005C00F8B1F0B200F030F802F070FFF8B10026F3
S31508005C1007E0287800F028F802F068FFE8B1761C5B
S31508005C206D1CB0B2A042F4D3FFF7BCFF002080F38E
S31508005C301088012070BDFFF7B5FF002080F310889B
S31508005C4070BDFFF7AFFF002080F3108870BDFFF727
S31508005C50A9FF002080F3108870BDFFF7A3FF00207E
S31508005C6080F3108870BD000070B500250F4C19E050
S31508005C70460040B2002801DB002200E0012220464F
S31508005C8040F6000106F024F90122204640F20041C0
S31508005C9006F01EF90022204640F2004106F018F9E7
S31508005CA06D1C3046E9B20729E2D970BD00040048E8
S31508005CB07CB5002501955720009040F60006284936
S31508005CC001AA40F600002B4601F0E0F925496A468C
S31508005CD040F600002B4601F0D9F9234C00980199AB
S31508005CE0814211DAC91C81421EDC204805704178C0
S31508005CF0491C4170C9B21E2916D31E214170B0B283
S31508005D000022214613460DE0184845700178491CC3
S31508005D100170C9B21E2907D31E210170B0B2012233
S31508005D200023214604F026FAB0B201AA0023214630
S31508005D3001F0ACF90198012808D1062005F05EFDAE
S31508005D400B48017820220A4302707CBD0848017876
S31508005D50DF220A400270072005F050FD7CBDC046D0
S31508005D60F40700002B040000AE0F000034030020E7
S31508005D70C10B002070B50446481E222800D96EE1E2
S31508005D80810001A251188F4600F044B800F04EB8C1
S31508005D9000F058B800F05EB800F064B800F072B8C9
S31508005DA000F080B800F08EB800F09CB800F0AAB8F1
S31508005DB000F0B8B800F0BFB800F051B900F04FB91C
S31508005DC000F04DB900F04BB900F049B900F047B9F9
S31508005DD000F045B900F043B900F041B900F03FB909
S31508005DE000F0B3B800F03BB900F039B900F0B6B826
S31508005DF000F035B900F033B900F031B900F02FB929
S31508005E0000F02DB900F02BB900F01CB900F0B5B8B8
S31508005E1000F0BAB805F0ACFB002800D1BDE0934805
S31508005E200268406803218A430221C9E005F0C0FBE5
S31508005E30002800D1BBE08D48026840680C218A43DF
S31508005E400821BDE0220130231A40884801684068CD
S31508005E509943B5E0854802684068C0218A43A10194
S31508005E60C9B2ADE00020C543874E05F079FB00288E
S31508005E7000D1A7E07D48026840682840324040F2D9
S31508005E8000219DE00020C5437E4E05F06BFB0028EF
S31508005E9000D1A0E07548026840682840324040F6C4
S31508005EA000018DE00020C543754E05F05DFB002816
S31508005EB000D199E06D48026840682840324042F2B5
S31508005EC000017DE00020C5436C4E05F04FFB00281D
S31508005ED000D192E06548026840682840324048F29E
S31508005EE000016DE00020C543634E05F063FB002802
S31508005EF000D18BE05D4802684068284032400121A5
S31508005F0049045DE00020C5435A4E05F075FB00289C
S31508005F1000D184E055480268406828403240012193
S31508005F20C9044DE003210A055048036840689343B5
S31508005F300C40210507E003218A054C4803684068A0
S31508005F4093430C40A105194386E0484806C840F229
S31508005F50001082430120044020027CE0434806C822
S31508005F600023DB43424D0838002C67D02A40012520
S31508005F702C40E4021443194063E00120C2043B4864
S31508005F8001684068904367E001200205374B0ACB59
S31508005F9093430440200518435EE03448016840688E
S31508005FA00322002C5FD014409143214354E02F482C
S31508005FB002684068002C53D00C239A43A10019406C
S31508005FC0114349E02948026840689CB332400321DE
S31508005FD00C4021022BE025480268406854B3324041
S31508005FE003210C40A10222E02048026840680CB355
S31508005FF0324003210C40210319E01C48026840681E
S31508006000C4B1324003210C40A10310E017480268CE
S3150800601040687CB1324003210C40210407E0134854
S315080060200268406834B1324003210C40A104114390
S31508006030284011E03240284011460DE019402A4018
S31508006040144612C00124A50405F0B6FA074A06CA82
S31508006050AA43204080041043044A1160506070BD72
S315080060600C218A43E8E79143F6E7C046C80B0020AF
S31508006070FFF7FFFFFFFFF3FFFFFFFCFFFF3FFFFFF9
S31508006080FFCFFFFFFFF3FFFFFFFCFFFF10B51A4C22
S3150800609020780A2801D3002020706078322803D39C
S315080060A004F0F4FC00206070E0781E2801D300207C
S315080060B0E070A078642801D30020A07020796428B5
S315080060C003D30E480021017021716079642803D337
S315080060D00B48002101706171A079642801D3002062
S315080060E0A071E079642805D3064800210170E171A2
S315080060F00548017010BDC046D00B00207E08002060
S315080061004002002041020020410000201CB5002466
S3150800611001940A4901AA40F60000234600F0B6FF9A
S315080061200748FEF701FB01995539621A4A410121D0
S3150800613000B901461140084602B010BDB80B000070
S31508006140A60F00001CB5002401940A4901AA40F6CE
S315080061500000234600F09AFF0748FEF7E5FA019982
S315080061605539621A4A41012100B9014611400846CB
S3150800617002B010BDB90B0000A70F0000B0B5002291
S31508006180074B1446E1B2032906D889005D58641CFA
S3150800619001218542F6D100E011460846B0BDC04649
S315080061A084D20008FEB501900025029540F2D0760B
S315080061B0711C02AFAA4C40F600003A462B46A0478F
S315080061C0D3490298C870000A887040F6000040F269
S315080061D0D0713A462B46A24CA0470298CC49487142
S315080061E0000A0871B11C40F600003A462B469C4C42
S315080061F0A0470E480299401AC54AD071010A917102
S3150800620014460290193640F6000031463A462B46A7
S31508006210934DA84702986072000A2072A21C90212A
S315080062200198FDF72DFD012003B0F0BD60EA0000DE
S31508006230FEB5019000250295194902AE884C40F634
S3150800624000000F4632462B46A047F14C0298E070F4
S31508006250000AA070B91D40F6000032462B46804F52
S31508006260B847029820710E48411C40F60000324695
S315080062702B467B4FB8470298A071000A6071084800
S31508006280C11D40F6000032462B46B8470298E07119
S31508006290A21C91210198FDF7F3FC012003B0F0BD83
S315080062A0DF070000FEB5019000250295174902AEEA
S315080062B06B4C40F600000F4632462B46A047DF4C93
S315080062C00298A070B91D40F6000032462B46644F6E
S315080062D0B8470298E0700D48411C40F60000324667
S315080062E02B465F4FB847029820710848C11D40F6F3
S315080062F0000032462B46B84702986071A21C9221CC
S315080063000198FDF7BDFC012003B0F0BDE1070000D0
S31508006310FEB50090002502950195244E02AF504C1B
S3150800632040F6000031463A462B46A047DD4902981A
S315080063308870B11D40F600003A462B46484CA047E7
S315080063400298D849C870711D40F600003A462B4697
S31508006350434CA0470298D3490871154800784871FC
S315080063600C46144940F600003A462B463C4FB847BF
S31508006370163601AA40F6000031462B46B847029861
S315080063800199414340F2E83091FBF0F06072010E4A
S31508006390A171010CE171010A21720290A21C9321DC
S315080063A00098FDF76DFC012003B0F0BDD30700008F
S315080063B048150020F1030000FEB50190002502955E
S315080063C0524F02AC264E40F60000394622462B466E
S315080063D0B047B44902988870791C40F600002246F6
S315080063E02B461F4EB0470298F649C87039461631F3
S315080063F040F6000022462B46194EB0470298F1494E
S3150800640008713946173140F60000264622462B46C3
S31508006410134CA0470298EB4C607112480078A071A3
S31508006420114940F6000032462B460D4CA04702980B
S31508006430E4490872000AC8711E3740F6000039465A
S3150800644032462B46064CA0470298DE4948728A1CFB
S3150800645094210198FDF714FC012003B0F0BDC04655
S315080064608D700008C10B0020F9030000F0B587B055
S31508006470009004A8002505810595049503950295C5
S31508006480224902AA40F600002B4600F0FFFD0FE065
S3150800649003AA012740F2004031463B4600F0F6FDCC
S315080064A0700003990A0A04AB1A54384319546D1C30
S315080064B0EEB20298B042EBDC0022ED4D1EE00192EE
S315080064C004AA575C0626B1FBF6F2344654430C1B65
S315080064D02C19E7704C1CB4FBF6F77743E41B5B1EDC
S315080064E00CB18B4208D1501CE14988708A1C952151
S315080064F00098FDF7C5FB0298019A521C4300D1B2D9
S315080065009942DCDB012007B0F0BDC046D607000083
S31508006510A0020020F0B587B0029005A80026868064
S315080065200596049603966920C0431430C0B20A78CB
S31508006530962301938242304609D18878244A90806E
S31508006540C878D0800879108148795081012021497E
S315080065500870214903AA40F60000334600F096FD6C
S31508006560062003900CE03946203104AA012340F2A4
S31508006570004000F08BFD05A80499C155761C0398C8
S31508006580F7B2B842EFDC0026D74F1BE005A98B5CB3
S315080065900725B2FBF5F12C464C43141B3C19E37056
S315080065A0531CB3FBF5F46C431B1B441E944200D0EA
S315080065B03BB9481CB870BA1C02980199FDF760FBF4
S315080065C00398761CF2B29042E0DC012007B0F0BDD9
S315080065D0D8000020C3000020D707000080B5354A40
S315080065E01378E8498B705378CB7093780B71D3780E
S315080065F04B7113798B715379CB7193790B72D2796D
S315080066004A728A1C9721FDF73BFB012080BDC046D4
S31508006610A002002080B508490A88DA4B5A804A88C1
S315080066209A808A88DA80C98819819A1C9821FDF788
S3150800663027FB012080BDC046C80B0020A002002011
S31508006640F8B50446F64F0025BD70009516496E4606
S3150800665040F6000032462B4600F018FD7520F8700B
S315080066603020387111480090114940F60000324632
S315080066702B4600F00BFD7D710E48007800998D427F
S3150800668005D20122AA406D1C0242F8D07D71002075
S315080066907871BA1C99212046FDF7F2FA012001B05B
S315080066A0F0BDC046A0020020F707000030750000C4
S315080066B0E903000014000020B0B50022074B144679
S315080066C0E1B2032906D889005D58641C0121854278
S315080066D0F6D100E011460846B0BDC04698D200087B
S315080066E0BCB50024019440F6A070801DFEF71CF886
S315080066F018B904F03DFF002568B10C4901AA40F617
S315080067000000234600F0C2FC41F2C0200125019991
S31508006710814200DB254640F6A070FEF705F8012108
S3150800672000B10D46284602B0B0BDC046DF070000DE
S31508006730012110280CD30221502809D3030903216B
S315080067409022092B04D33032D2B20421904201D2CE
S31508006750C8B270473030C2B205200021202A00D3C3
S3150800676008467047FEB5019000240294144F02AE05
S3150800677040F6000039463246234600F087FCEB4DCA
S3150800678002986871010EA970010CE970000A287157
S31508006790F91C40F600003246234600F077FC0298C2
S315080067A06872010EA971010CE971000A2872AA1C07
S315080067B050210198FDF764FA204603B0F0BDC046A3
S315080067C0F1030000A0020020FEB501900024029407
S315080067D002AEF84F40F6000040F2E8313246234652
S315080067E0B847F54D0298A87040F2E830411C40F6CB
S315080067F0000032462346B8470298E87040F2E8306F
S31508006800811C40F6000032462346B8470298287194
S3150800681040F2E830C11C40F6000032462346B8472D
S315080068200298687140F2E830411D40F60000324691
S315080068302346B8470298A87140F2E830811D40F611
S31508006840000032462346B8470298E87140F2E8301D
S31508006850C11D40F6000032462346B8470298287202
S31508006860AA1C51210198FDF70BFA204603B0F0BD8A
S31508006870A0020020FEB5019000240294194F02AE32
S3150800688040F6000039463246234600F0FFFB40F248
S31508006890E831029890FBF1F0F94D6871010EA97084
S315080068A0010CE970010A29710290791C40F6000072
S315080068B03246234600F0EAFB029840F2E83190FBA4
S315080068C0F1F06872010EA971010CE971010A2972C9
S315080068D00290AA1C52210198FDF7D2F9204603B06E
S315080068E0F0BDC046F5030000A0020020FEB50190E9
S315080068F000240294224F02AEE04D40F600003946CD
S3150800690032462346A847DE49029888703946093137
S3150800691040F6000032462346A8470298D849C87070
S315080069203946133140F6000032462346A8470298F6
S31508006930010EF64D2971010C6971000AA8713946D4
S315080069400A3140F6000032462346EF4DA847029822
S31508006950EE490872000AC8713D3740F6000039460C
S3150800696032462346E84DA8470298E84948728A1CE9
S3150800697053210198FDF784F9204603B0F0BDC046BF
S31508006980F3030000A0020020F0B58BB004460025F2
S315080069900A9568462821FCF774FC204E2F4612E01B
S315080069A0B9190AAA002340F6000000F06FFB0A98FE
S315080069B0010E6A4651555119C870020C4A70000AF0
S315080069C088702D1D7F1C202DEAD100200125F04E50
S315080069D013E06F463F5C1F54471C1F2801D08242B4
S315080069E009D1C0B2B0FBF1F0401CB070B21C5721FF
S315080069F02046FDF745F96D1C38460721B5FBF1F22F
S31508006A004A43521EB0FBF1F30627FF435F43F319CF
S31508006A10DB1C2028DDD100200BB0F0BDFE030000F2
S31508006A20A0020020FEB501900024029440F210470F
S31508006A3002AED64D40F6000040F2104132462346DB
S31508006A40A847E8490298C870000A887040F21041C1
S31508006A500E3140F6000032462346CC4DA847029830
S31508006A60F5494871000A0871791C40F6000032465B
S31508006A702346C64DA8470298EF4DE871000AA8714B
S31508006A800F3740F60000394632462346BF4EB04718
S31508006A9002986872000A2872AA1C59210198FDF703
S31508006AA0EFF8204603B0F0BDFEB50190002402942D
S31508006AB01D4F02AEB54D40F6000039463246234614
S31508006AC0A847F3490298C870000A887039460E31FB
S31508006AD040F6000032462346AC4DA8470298EC49DA
S31508006AE04871000A0871791C40F6000032462346B0
S31508006AF0A64DA8470298FD4DE871000AA8710F3700
S31508006B0040F60000394632462346A04EB047029862
S31508006B106872000A2872AA1C5A210198FDF7B0F873
S31508006B20204603B0F0BDC0460A040000A0020020BB
S31508006B30FEB50190002402941D4F02AE934D40F617
S31508006B400000394632462346A847F6490298C870D7
S31508006B50000A887039460E3140F600003246234650
S31508006B608A4DA8470298EF494871000A0871791CAE
S31508006B7040F6000032462346844DA8470298E94D60
S31508006B80E871000AA8710F3740F600003946324608
S31508006B902346FC4EB04702986872000A2872AA1C5F
S31508006BA05B210198FDF76CF8204603B0F0BDC0469E
S31508006BB00E0400008D700008A0020020FEB50190AA
S31508006BC0002402942C4EB11C02AFEE4D40F6000094
S31508006BD03A462346A847F749029888703146103145
S31508006BE040F600003A462346E64DA8470298F14982
S31508006BF0C870F11C40F600003A462346E14DA84706
S31508006C000298EC4908713146113140F600003A46BF
S31508006C102346A8470298FB49487140F600003146CA
S31508006C203A462346A8470298F649887131460E31F6
S31508006C3040F600003A462346A8470298F149C8712B
S31508006C40711C40F600003A462346A8470298ED4DC7
S31508006C5028720F3640F6000031463A462346C94E9A
S31508006C60B04702986872AA1C5C210198FDF708F8DB
S31508006C70204603B0F0BDC046130400008D7000081E
S31508006C80A0020020FEB50190002402941D4F02AE1A
S31508006C90BC4D40F60000394632462346A847FA4915
S31508006CA00298C870000A887039460E3140F600000E
S31508006CB032462346B34DA8470298F3494871000A5D
S31508006CC00871791C40F6000032462346AD4DA847A8
S31508006CD00298ED4DE871000AA8710F3740F60000DA
S31508006CE0394632462346A74EB04702986872000ACC
S31508006CF02872AA1C5D210198FCF7C2FF204603B042
S31508006D00F0BDC0460C0400008D700008A0020020EB
S31508006D10FEB50190002402941B4F02AE994D40F631
S31508006D200000394632462346A847D7490298C87014
S31508006D30000A887039460E3140F60000324623466E
S31508006D40904DA8470298D0494871000A0871791DE4
S31508006D5040F60000324623468A4DA8470298CA4D97
S31508006D60A871133740F60000394632462346854E49
S31508006D70B0470298E871AA1C5E210198FCF780FFCB
S31508006D80204603B0F0BDC046120400008D7000080E
S31508006D90A0020020FEB5019000240294104E02AF16
S31508006DA040F6000031463A46234600F06FF9B64DE4
S31508006DB00298E870000AA870711C40F600003A466E
S31508006DC0234600F063F902986871000A2871AA1C24
S31508006DD05F210198FCF754FF204603B0F0BDC0467A
S31508006DE0FA030000A0020020FEB5019000240294D8
S31508006DF0104E02AF40F6000031463A46234600F0F0
S31508006E0045F9A14D0298E870000AA870711C40F671
S31508006E1000003A46234600F039F902986871000ADC
S31508006E202871AA1C60210198FCF72AFF204603B0A6
S31508006E30F0BDC04626040000A0020020F8B5009068
S31508006E4000200125904E134F10E03C5C1C54441C56
S31508006E50824209D1C0B2B0FBF1F0401CB070B21C3E
S31508006E6062210098FCF70CFF6D1C20460721B5FB34
S31508006E70F1F24A43521EB0FBF1F30624E4435C43A5
S31508006E803319DB1C0E28E0D1012001B0F0BDC04645
S31508006E90A002002047010020F8B500900020012537
S31508006EA0794E134F10E03C5C1C54441C824209D1B5
S31508006EB0C0B2B0FBF1F0401CB070B21C6321009860
S31508006EC0FCF7DEFE6D1C20460721B5FBF1F24A43AE
S31508006ED0521EB0FBF1F30624E4435C433319DB1C72
S31508006EE00E28E0D1012001B0F0BDC046A002002066
S31508006EF039010020BCB50446094901AA002340F619
S31508006F00000000F0C3F860480125C570019981703A
S31508006F10821C65212046FCF7B3FE284602B0B0BDA8
S31508006F202A040000A0020020FEB50190144DA91DF8
S31508006F3002AE0027134C40F6000032463B46A047F7
S31508006F4051490298887040F60000294632463B4669
S31508006F500C4CA04702984C490871093540F60000C8
S31508006F60294632463B46074CA0470298464988714F
S31508006F708A1C66210198FCF783FE012003B0F0BD48
S31508006F802B0400008D7000081CB50446084901AAA8
S31508006F90002340F6000000F079F83B48019981701B
S31508006FA0821C67212046FCF76BFE012002B010BD4B
S31508006FB032040000A0020020FEB50190104D02AE7A
S31508006FC0002740F60000294632463B4600F05EF8A8
S31508006FD02D4C0298A0704A3540F6000029463246E4
S31508006FE03B4600F053F802982071000AE070A21C94
S31508006FF068210198FCF744FE012003B0F0BDC046A5
S31508007000E9030000A0020020F0B58BB0044601ADEC
S3150800701028212846FCF735F9284605F0CBFAE87FFB
S31508007020A5282DD1182003E001A900220A54401CE6
S315080070302028F9D100200125134E13E001AF3F5C4B
S315080070401F54471C1F2801D0824209D1C0B2B0FB89
S31508007050F1F0401CB070B21C6A212046FCF710FE05
S315080070606D1C38460721B5FBF1F24A43521EB0FBA8
S31508007070F1F30627FF435F43F319DB1C2028DDD114
S3150800708000200BB0F0BDC046A0020020B0B50446F3
S31508007090002062B340F60005AC420AD040F2004533
S315080070A0AC4224D1362922D8012B20D18800184990
S315080070B01AE00F4BCB18542B02D89800134913E04B
S315080070C00C4BCB18272B02D898000F490CE00A4B1B
S315080070D0CB18302B02D898000A4905E0074BC91887
S315080070E0232904D888000649085810600120B0BD35
S315080070F018FCFFFF30F8FFFF48F4FFFF60F0FFFFC2
S31508007100B814002000120020C412002064130020C6
S315080071104C1500201CB50024019400940F4901AABF
S3150800712040F600002346FFF7B1FF0D496A4640F6D0
S3150800713000002346FFF7AAFF00F012FC50B9019899
S31508007140552807D000F0F8FB28B90098A52801D0E3
S315080071505A2800D10124204602B010BDF6070000C7
S315080071603404000070B50023064CDDB2092D08D89A
S31508007170ED00665D5B1C8E42F7D161194B681146BE
S31508007180984770BD88DE000870B50023064CDDB24E
S31508007190132D08D8ED00665D5B1C8E42F7D1611988
S315080071A04B681146984770BDD8DE000840F25C115E
S315080071B04118002006E00A6812B998228A581AB1BE
S315080071C0091D401C2528F6D9C0B270471C3000217D
S315080071D005E002680AB942691AB1001D491C252949
S315080071E0F7D9C8B270470000B0B5134D284605F068
S315080071F04FF9124800242146224642F2000304F0C1
S3150800720074FEED35284605F043F90720214604F0BB
S31508007210EFFE02250D21284605F0BEFD42F20000CC
S3150800722021462A4604F0B4FD42F20000B0BC02BC76
S315080072308E4604F0E3BDC04613050000000800486A
S31508007240FEB50D46044602A800230380019340F2CA
S31508007250E8302018411C01AA40F60000FFF716FF87
S315080072600199042902D128096D0004E06809032957
S3150800727001D1E808AD001F210D4002AE7570084027
S31508007280307040F2E83000F097FA072201252046D0
S3150800729031462B46FCF753FC074640F2E83000F02F
S315080072A08BFA2E430822204631462B46FCF747FC2C
S315080072B0384003B0F0BD000070B505244C43144DAA
S315080072C02C19A45C07252540E408AA2B10D0552BB9
S315080072D01DD101231E46964089004258324342502A
S315080072E0E8B28340E0B20B490818017D19430DE066
S315080072F001231E46964089004258B2434250E8B2DE
S315080073008340E0B203490818017D9943017570BDB1
S31508007310DD040020000000201CB501AC207040F2FE
S31508007320E83000F049FA0020052201232146FCF73F
S3150800733006FC02B010BD0000D14818307047C046A0
S31508007340CF48001D7047C0465C20CD49085A40BA50
S315080073507047C046F0B58DB00CA8602101700024B6
S315080073600B940A9440F600050BAA40F6000040F27A
S31508007370E8312346FFF78AFEA8B20190E5B20B98DA
S31508007380A84200DC6CE140F2E83136310AAA002353
S315080073900198FFF77BFE64200A99414340F2D070BA
S315080073A00818B64990FBF1F00A902C216943B44AB3
S315080073B051183D228A5C030ADBB29A4205D13E2265
S315080073C0895C641CC0B28142D8D0AA4800240470E3
S315080073D0A9480121069101700BAA019840F2E831EB
S315080073E02346FFF753FEBA20059032E1039440F294
S315080073F0E8300997A34988470CAE002535700495EF
S31508007400069C84F3108803223846314623469E4F4D
S31508007410B84785F310880E20099D68439B490A18CA
S3150800742008920C99D170964A17182720395440F2B9
S31508007430E8309449884705981530307084F31088E9
S31508007440042202922846314623468F4DA847049DBA
S3150800745085F3108840F2E8308A4988474F20307013
S315080074600899087128210797785484F31088099891
S315080074703146029A2346844CA04785F3108840F289
S31508007480E83080498847072002903070FEF7B2F945
S31508007490337802211943FD221A40012800D01146EB
S315080074A03170FEF741F90C9A1146069B19439A4327
S315080074B0012800D011463170089841712920079A91
S315080074C01154069C84F310880522099831462346F0
S315080074D06D4FB847049D85F3108840F2E830694936
S315080074E0884705983E303070089988712A21079A8E
S315080074F0505484F310880622099831462346624F71
S31508007500B84785F3108840F2E8305E4988473570F9
S315080075100898C5712B2007990D5484F3108809988B
S315080075203146029A2346584FB84785F3108840F2E9
S31508007530E830544988473570089805722C20079911
S315080075400D5484F310880822099F3846314623468D
S315080075504D4CA04785F3108840F2E83049498847E2
S3150800756005993170089841722D20079C2154069B75
S3150800757083F31088092238463146434FB84785F3C6
S31508007580108840F2E8303F498847612030700899F2
S3150800759088722E216054069F87F310880A2209985C
S315080075A031463B46384CA04785F3108840F2E83010
S315080075B03449884740F2E83136310AAA01982B4601
S315080075C0FFF764FD64200A99414340F2D070081819
S315080075D02A4990FBF1F00A90000A30700899C8729F
S315080075E02F212C463D46079A505487F310880B22C4
S315080075F0099831463B46244FB84784F3108840F231
S31508007600E830204988470A9830700899087330216D
S31508007610079A505485F310880C22099831462B4650
S31508007620194FB84784F3108840F2E830154988475F
S31508007630347008984473312007990C5485F31088E0
S315080076400D22099831462B46B84784F31088039CC7
S31508007650641CE7B20B98B84200DDC7E60DB0F0BD72
S3150800766005480078012800D0AFE6024800780028CF
S31508007670F4D0AAE6C20B00206E0600204A020000DB
S31508007680C0000020B97700083F3B000880080020AA
S31508007690FFF760BE05F070BAF8B5394F384604F002
S315080076A0F7FE0920C006002502260124294632468F
S315080076B0234604F01AFCEF37384604F0E9FE0520A5
S315080076C0294604F095FC2846294605F065FB204620
S315080076D02946324604F05CFB2046F8BC02BC8E46BE
S315080076E004F08CBBB0B5264D284604F0D1FE09201F
S315080076F0C00600242146224641F2000304F0F5FBA9
S31508007700EF35284604F0C4FE0720214604F070FC35
S315080077100C21204605F040FB022241F200002146DA
S3150800772004F036FB41F20000B0BC02BC8E4604F001
S3150800773065BBC04670B5124E304604F0A9FE092056
S31508007740C0060025022429462A46234604F0CDFB16
S31508007750EF36304604F09CFE0520294604F048FC26
S315080077600121284605F018FB20462946224604F042
S315080077700FFB204670BC02BC8E4604F03FBBC046D9
S3150800778011050000B0B50A4C0A4A002540F600006B
S3150800779021462B4602F0EEFC611C40F600002A4604
S315080077A02B46039CA646B0BC01B002F0E3BCC0461B
S315080077B0D20700003075000005214143044803E064
S315080077C00278521C0270491E0029F9D17047C0463A
S315080077D0FA11002070B5124E304604F059FE624880
S315080077E00025042429462A46234604F07EFBEE3665
S315080077F0304604F04DFE0620294604F0F9FB012028
S315080078000226314605F0C8FA20462946324604F0D3
S31508007810BFFA204670BC02BC8E4604F0EFBAC046DA
S3150800782012050000704710B50020072101242246E2
S3150800783003F032FE204603F081FE022003F022FE0A
S315080078400028FAD0022003F017FE10BC01BC8646B9
S3150800785003F06EBE7CB501A800210180FFF7E3FFA7
S3150800786001091B4EA52902D301A920481AE0194986
S31508007870884202D301A91C4814E0B1B2884202D951
S3150800788001A918480EE01449884203D301A941F614
S31508007890407007E01149884202D301A9104801E067
S315080078A001A9EE48088081B20420002401AD2246D1
S315080078B02B46FCF74BFB28886421B0FBF1F20C48F9
S315080078C00280BC36B0B20B49234602F053FC7CBD9D
S315080078D044070000C7080000DB050000BC040000E0
S315080078E028230000581B00007017000088130000AA
S315080078F04A150020F40700000920C006012104F0FB
S31508007900EEBA0920C00641F2000104F0E8BA0920DF
S31508007910C006022104F0E3BA10B5D248042104F0E7
S31508007920DEFA044604F026FE0021091A4141012028
S3150800793004B92046084010BD80B5C64842F2000189
S3150800794004F0CDFA0021091A484180BD80B5092006
S31508007950C006102104F0C3FA0021091A484180BD67
S31508007960C048012104F0BBBA00040048F0B589B04C
S31508007970012668460024046044608460C660B448F2
S31508007980871CB448B44D44F200013A46079733467B
S31508007990A847B248B24DA847684604604460846068
S315080079A0C660AC4848F200013A463346AA4FB84783
S315080079B0AA48A8476846046044608460C460A44D29
S315080079C06A1C0892A74840F200213346B847A348E4
S315080079D0A34988476846022106910460416084608D
S315080079E0C4600920C7063846059731462A46234605
S315080079F0994DA8476846046044608460C4602025A1
S31508007A0038462946924A3346934FB8476846046033
S31508007A1044608460C46093482946089D2A463346D4
S31508007A208D4FB8476846046044608460C4608D48DA
S31508007A3040F200112A462F463346874DA847684626
S31508007A40046044608460C460824842F20001079A78
S31508007A502346A8476846046044608460C4601021D1
S31508007A60049105987A4A2346A84768460321079150
S31508007A70046044608160C6607A4841F200013A4673
S31508007A803D463346744FB8476846046044600799D4
S31508007A908160C660734842F200012A4633466E4F3B
S31508007AA0B84768460460446007998160C6606D48B7
S31508007AB044F200012F462A463346674DA8476846D2
S31508007AC00460446007998160C660664848F2000110
S31508007AD03A463346604DA847684604604460079DA9
S31508007AE08560C6605F4840F200413A4633465A4FC1
S31508007AF0B84768460460001D70C05A4840F6000141
S31508007B00089A3346544FB847684604604460846010
S31508007B10C4608021059F38464D4A2B464E4DA847DE
S31508007B206846046044608460C460384641F20001D7
S31508007B30474A2346484DA84768460460446084601F
S31508007B40C460384640F60001414A3346A8476846AD
S31508007B500460069941608460C460424D28463146F7
S31508007B60089F3A4623463C4DA84768460460446049
S31508007B708460C4603B4804993A463346364FB84752
S31508007B806846046044608460C4604021059D2846B8
S31508007B902F4A3346B8476846046044608460C46028
S31508007BA004213048089A23462B4FB8476846046094
S31508007BB044608460C46028460699254A2346B84727
S31508007BC06846046044608460C46008212548089AB1
S31508007BD03346214FB8476846046044608460C660EF
S31508007BE0284640F200111A4F3A4633461A4FB8470C
S31508007BF06846046044608460C66028462F4640F2A2
S31508007C000021FD4A3346FE4DA84768460460446095
S31508007C108460C660384640F20041F74A3346A847B2
S31508007C206846046044608460C460F448069D29463A
S31508007C30089A3346F24EB047684630C0046044603E
S31508007C40384648F20001EC4A2346B04709B0F0BD71
S31508007C501105000000080048697C0008102700008C
S31508007C60B97700080004004870B51E460C4605465C
S31508007C70104604F00DFC059A28463146234604F0C2
S31508007C8034F9012E0ED1079E069A049928462346F2
S31508007C9004F049F928462146324670BC08BC9E467F
S31508007CA004F016B970BD0000F0B58DB0012668461F
S31508007CB00024046044608460C660E94F7A1C0C9214
S31508007CC0FA48CF4D40F200213346A847CD48CE4961
S31508007CD088476846046044608460C460BF1CCB481B
S31508007CE048F200013A4609973346A847C84D284640
S31508007CF0C54988476846046044608460C660C348CE
S31508007D0044F200013A463346BD4FB8472846BE49B5
S31508007D108847684602210A91046041608460C4600D
S31508007D200920C70638460B973146CD4A2346B44D37
S31508007D30A8476846046044608460C46020253846C5
S31508007D402946C74A3346AE4FB8476846046044607A
S31508007D508460C460D54F384629460C9D2A4633466A
S31508007D60A74FB8476846046044608460C460CF483B
S31508007D7040F200112A462F462346A14DA8476846D9
S31508007D80046044608460C460A04842F20001099A15
S31508007D902346A8476846046044608460C46010218E
S31508007DA006910B98AE4A2346A84768460321046005
S31508007DB0446081600D460896C660BC4841F20001E1
S31508007DC03A4633468E4FB847684604604460856035
S31508007DD02E460995089DC560B44842F200010C9AE2
S31508007DE02B46874FB8476846046044608660C5607E
S31508007DF0AE4844F200010C9F3A462B46804EB047E7
S31508007E0068460460446009998160C560A74848F2DD
S31508007E1000013A462B467A4EB047684604604460ED
S31508007E20099D8560C460A14840F200413A46089E13
S31508007E303346734FB8476846046044608560C4603B
S31508007E409A4840F600010C9A33466D4FB847684683
S31508007E50046044608460C460802107910B9F3846A3
S31508007E607F4A2B46664DA84768460460446084608E
S31508007E70C46038463D4641F20001794F3A462346EA
S31508007E805F4FB8476846046044608460C46028460B
S31508007E9040F60001724A3346B847684604600A99B4
S31508007EA041608460C460814F384631460C9D2A463D
S31508007EB02346534FB8476846046044608460C460EC
S31508007EC07A4806992A462F4633464D4DA8476846AE
S31508007ED0046044608460C460402109910B98604A3C
S31508007EE03346A8476846046044608460C460042139
S31508007EF006916E483A462346414FB847684604609D
S31508007F0044608460C4600B9F38460A99544A2346E5
S31508007F103B4DA8476846046044608460C4600821F5
S31508007F20059162480C9A3346A8476846046044603F
S31508007F308460C460384640F20011494A3346A8476F
S31508007F406846046044608460C460384640F2002194
S31508007F50434A3346A8476846046044608460C46060
S31508007F60384640F200413E4A3346A8476846046010
S31508007F7044608460C4604D480A9D29460C9A33467D
S31508007F801F4EB047684630C0046044603E463846D7
S31508007F9048F20001324F3A462346194DA84768462B
S31508007FA0046044608460C460304606993A462346B5
S31508007FB0A8476846046044608460C46030460599F2
S31508007FC03A462346A8476846046044608460C4600D
S31508007FD0364E304609990C9F3A462346A8476846C6
S31508007FE0046044608460C460304607993A46234674
S31508007FF0A8470DB0F0BDC0461105000000040048B2
S31508008000697C0008C0270900B977000800080048FD
S315080080101027000070B5E14E304604F039FA092001
S31508008020C0060025102429462A46234603F05DFF8C
S31508008030EF36304604F02CFA0720294603F0D8FF1D
S315080080400421284604F0A8FE01222046294603F00A
S315080080509FFE204670BC02BC8E4603F0CFBEC046CB
S315080080601105000002461148082103F031BFC04639
S3150800807002460920C00640F2001103F029BF024655
S315080080800920C00640F2002103F022BF704770475E
S3150800809002460920C00640F2004103F019BF00005D
S315080080A002460248102103F013BFC04600040048E8
S315080080B002460920C006402103F00ABF012080F3CA
S315080080C01088BFF34F8F034803490160BFF34F8FF2
S315080080D000BFFDE70CED00E00400FA05F8B5194904
S315080080E0411889B2184A914208D91949012200242F
S315080080F040F60000234602F03DF81FE04821002420
S3150800810091260BE09CB2AEB2371BA21B012A13D0F4
S31508008110012F11D0A11949081E462C468BB25B00C7
S315080081200A4AD75A87420B4600D3334687420D463A
S3150800813000D825468742E5D164244C43A0B201B055
S31508008140F0BDC046ABFEFFFF040E0000B0DC000821
S31508008150BB0F0000084809494160FF210906084A83
S3150800816013688B4303218907194311600021816035
S31508008170072101607047C04610E000E07FBB0000A1
S3150800818020ED00E07CB5002401941D4901AA40F6C3
S3150800819000002346FEF77AFF1A480168644A501A17
S315080081A08A180199914215DA814213DDFFF7A9FB76
S315080081B080B9514D2846FCF7B7FA012648B9A81DDB
S315080081C0FCF7B2FA28B903F0F3F910B903F01EFA6E
S315080081D018B13446204602B070BDFFF7ADFB002843
S315080081E0F8D1FFF7B3FB0028F4D107480078074910
S315080081F00A7882423446EDD008700024EAE7C04681
S31508008200D207000028010020D80B00206F060020A6
S31508008210F0B585B000250495039540F60007334C64
S3150800822004AA40F6000021462B46FEF72FFFFFF76B
S31508008230A9FF2F4E3168491C012800D02946316014
S315080082402C4D687908B1401E6871B8B2214637319D
S3150800825003AA002302900193FEF718FFFFF76CFBB1
S31508008260697901430398A52803D1080601D102209C
S315080082700490214F3846FCF757FA48B9B81DFCF761
S3150800828053FA28B903F094F910B903F0BFF998B175
S31508008290012028707068401C70603168049A914209
S315080082A012D26A78FF2A01D091420DD2062901D34B
S315080082B03C2809D205B0F0BD0020287070600F492F
S315080082C009780029F6D1E8E70198306000F0E4FF64
S315080082D028782C3408B9012200E0A5220023029848
S315080082E0214601F047FF00F00BF8C046FD030000E9
S315080082F0D004002020010020A10F0000B40B0020AC
S3150800830080B50B48FFF758FA03F072F800F07BFCCB
S31508008310FFF7CAFC0748FFF74FFA02F019FD0648AF
S3150800832004F0B6F80120002103F0B2FEFEE7C046CD
S3150800833030750000A08601001C07000010B5174C18
S31508008340204604F0A5F8F834204604F0A1F80620E3
S3150800835003F0D2FE0920C00603210024802322460A
S3150800836003F0C3FD204603F037F8012420462146D2
S3150800837003F012F807204104204603F069F8204666
S31508008380214603F045F803F039F840F2E830FFF7E4
S3150800839013FA10BC01BC864602F0EEBF11050000B8
S315080083A0F8B5002004F0A0F803F0C6FF0321CA437D
S315080083B01D4883581D4DAC1C1C43845001235C0486
S315080083C0865826406F1E15B1002E3D46F8D08558B2
S315080083D0254228D0164C25680726B5431D43256037
S315080083E00468046004680460046804600468114D45
S315080083F0254005602B242404056825430560845818
S315080084001D062543855084585D062C42FBD002681C
S315080084108A430260016802220A4302600168082250
S315080084201142FBD0F8BDFEE704100240FEFF000033
S3150800843000200240FFFFC077FEE7000010B50C4899
S31508008440143055210B4A07E00F23DB43C358046851
S31508008450E31808C21830491E0029F5D1002006493C
S3150800846002E000220A50001DDC28FAD110BDC046E1
S31508008470A8D20008641300204C150020F0B587B078
S315080084800024069405940494039401943C4E06AA89
S315080084903C4D40F6000031462346A8473A4F069819
S315080084A0F861B11D05AA40F600002346A847059ABB
S315080084B036491531364D40F600002346A84735495A
S315080084C005980880F969414340F2E83291FBF2F1D8
S315080084D0F96004F011FC311D04AA40F60000234699
S315080084E0284DA8470498F862711D03AA40F60000B3
S315080084F02346A8470398F968FA6A3A6339627862A4
S31508008500B862F869049991FBF0F202923146354651
